:100000000C94D1060C94F9060C94F9060C94F9069C
:100010000C94F9060C94F9060C94F9060C94F90664
:100020000C94F9060C94F9060C944D100C94BC1029
:100030000C94F9060C94F9060C94F9060C94F90644
:100040000C94F9060C94F9060C94F9060C94F90634
:100050000C94F9060C94F9060C94F9060C94EE1223
:100060000C94F9060C94F9060C94F9060C94F90614
:100070000C94F9060C94F9060C94F9060C94F90604
:100080000C94F9060C94F9060C94F9060C94F906F4
:100090000C94F9060C94F9060C94F9060C94F906E4
:1000A0000C94F9060C94F9060C94F9060009000169
:1000B000000300FA00FF0003000000030001000637
:1000C000000000FF00FA000000030001000300062A
:1000D00000FF00F70000000100010001000A00FF1E
:1000E00000F50000000100010001000A00FF00F916
:1000F0000000000100010003000C00FF00F70000F9
:10010000000100010003000E000000F700000002E3
:1001100000010002000A00FD00F700003E0400019B
:10012000B50080000000800320003E040001B500FF
:1001300080FF000080F620000001000200020004A1
:10014000000100FD000000010002000200FC0001AF
:1001500000FD000022252301272426012224250159
:100160002725240104070502121A110201180002B2
:100170002023210204060702121B1A020119180289
:10018000202223021C1F1D031E211F031C1E1F03F0
:100190001E2021030F05040411021004001513048E
:1001A000141715040B0A02040308090403090C04BC
:1001B0000B020E0402050E0404030C04040C0D04CF
:1001C0000F0E0504040D0F040203100410011304A4
:1001D000010013041312100412111004001415046A
:1001E00014161704FA000C0600001200E81200F4BE
:1001F0001A00F41A00E81A02F41A02E81200EF13C7
:1002000000F01200ED1300EC1500F01600EF1500E1
:10021000EC1600ED0600F40600E8FA00F4FA00001F
:10022000EE000CEE0000E2000CE20000FA020C0608
:1002300002000602E8FA02F4FA00F6FA00FEFA08F2
:10024000F6FA08FEFE0CF6FE0CFE020CF6020CFEA0
:100250000608F60608FE0600F60600FE000300018A
:100260000007000F00FF00FD0000800600010003F2
:10027000800500FF00F900001F040002B500800F98
:10028000000080F8E000800100028001800500008D
:1002900080FD00008001000280018005000080F4E4
:1002A000000000034002400200FC00FF00F9401380
:1002B00080050001000380F5000100F90000000343
:1002C0000001000200F3000100FE00003E040002F5
:1002D00000014BF200024BF8200000010001000277
:1002E00000F500010002000000010001000100F320
:1002F00000010003000000010001000200F1000104
:100300000002000000020001000200F300FF0001F3
:10031000000000030002000100F3000200050000DD
:1003200012151101161915011A1C190112161501C1
:10033000161A19011A1B1C01010200022E2F2D0290
:100340000A0B0702323533020103020216122102A0
:1003500022201A02202523021A202302162122021B
:100360001A16220225272A021B1A2302252A2902ED
:10037000292826022529260225262302171B2402C6
:100380001B2324021F06130213172D0217242D020C
:100390002E2C3002242E2D022D1F13022F2B2D0266
:1003A0002E302F020A310B0232343502080D0903B8
:1003B0001013060314171303181B1703080C0D035F
:1003C0001014130314181703181C1B03090708043F
:1003D0000D0100043D3332040E1D0F04051E0404FC
:1003E000090A07040D0C010439380F041D363704BF
:1003F0001D373A04390F3C040F333C04321D3A04D4
:10040000323A3B043D3C3304323B3D040E001D04B4
:10041000050A1E04E004F8EC04ECE008F8EC08EC33
:100420001800082400080E00F81800ECFE00ECFE8E
:1004300000F82400F81804ECF604ECF604F8EC04D8
:10044000F8EC04000800F80800EC0E00EC0E06F8CA
:100450000806F80806EC0E06EC0E0AF6080AF6087E
:100460000AEE0E0AEE0E0CF2080CF2E00400180080
:10047000F80E00FC0E0EE80E00E80E06E80E0EEE7A
:100480000E0EF60E10E80E10EE0E12E60E12F00E24
:1004900014F00E14E60E12FE0E12F40E10FC0E10E6
:1004A000F60E14FE0E14F42404F8E00408EC04081C
:1004B000E00808EC0808E50400E40401E70400E8AB
:1004C0000401E40403E50404E80403E7040401026E
:1004D0000408102040800103070F1F3F7FFFFFFE2D
:1004E000FCF8F0E0C080000306090C0F1215181B81
:1004F0001E2225272A2D303336393C3E41444649B9
:100500004B4E505355575A5C5E60626466686A6B26
:100510006D6E70717374757678797A7A7B7C7D7D77
:100520007E7E7E7F7F7F7F0000240348066A098CE1
:100530000CAB0FC812E215F9180B1C1A1F23222846
:100540002526281F2B112EFB30DF33BA368C395667
:100550003C173FCE417A441C47B4493F4CBF4E3311
:10056000519B53F5554258825AB35CD75EEB60F10C
:1005700062E864CF66A6686D6A236CC96D5E6FE23F
:10058000705472B573047541766B77847889797C81
:100590007A5C7B297CE37C897D1D7E9C7E097F6162
:1005A0007FA67FD87FF57FFF7F00000000003E5BC5
:1005B0004F5B3E3E6B4F6B3E1C3E7C3E1C183C7EB0
:1005C0003C181C577D571C1C5E7F5E1C00183C1895
:1005D00000FFE7C3E7FF0018241800FFE7DBE7FF91
:1005E00030483A060E2629792926407F050507401E
:1005F0007F05253F5A3CE73C5A7F3E1C1C08081CDF
:100600001C3E7F14227F22145F5F005F5F06097F1C
:10061000017F006689956A606060606094A2FFA2B5
:100620009408047E040810207E201008082A1C0864
:10063000081C2A08081E101010100C1E0C1E0C306E
:10064000383E3830060E3E0E060000000000000066
:100650005F00000007000700147F147F14242A7F26
:100660002A122313086462364956205000080703F3
:1006700000001C2241000041221C002A1C7F1C2A71
:1006800008083E08080080703000080808080800C4
:100690000060600020100804023E5149453E0042BF
:1006A0007F400072494949462141494D331814128F
:1006B0007F1027454545393C4A49493141211109B7
:1006C000073649494936464949291E0000140000A9
:1006D00000403400000008142241141414141400C3
:1006E0004122140802015909063E415D594E7C120F
:1006F00011127C7F494949363E414141227F4141A7
:10070000413E7F494949417F090909013E41415123
:10071000737F0808087F00417F41002040413F016E
:100720007F081422417F404040407F021C027F7FAF
:100730000408107F3E4141413E7F090909063E41C0
:1007400051215E7F09192946264949493203017F13
:1007500001033F4040403F1F2040201F3F403840A2
:100760003F631408146303047804036159494D433B
:10077000007F4141410204081020004141417F04B3
:10078000020102044040404040000307080020549A
:100790005478407F284444383844444428384444FA
:1007A000287F385454541800087E090218A4A49CC9
:1007B000787F0804047800447D40002040403D00DC
:1007C0007F1028440000417F40007C047804787C3E
:1007D000080404783844444438FC182424181824A5
:1007E0002418FC7C08040408485454542404043F8E
:1007F00044243C4040207C1C2040201C3C40304095
:100800003C44281028444C9090907C4464544C44C0
:100810000008364100000077000000413608000261
:10082000010204023C2623263C1EA1A161123A408B
:1008300040207A3854545559215555794121545402
:100840007841215554784020545579400C1E5272FD
:1008500012395555555939545454593955545458D9
:100860000000457C410002457D420001457C40F08E
:10087000292429F0F0282528F07C545545002054DF
:10088000547C547C0A097F493249494932324848EC
:100890004832324A4848303A4141217A3A4240206F
:1008A00078009DA0A07D39444444393D4040403DFE
:1008B0003C24FF2424487E4943662B2FFC2F2BFF2A
:1008C0000929F620C0887E0903205454794100008C
:1008D000447D413048484A32384040227A007A0A02
:1008E0000A727D0D19317D2629292F2826292929CB
:1008F0002630484D402038080808080808080838FD
:100900002F10C8ACBA2F102834FA00007B00000862
:10091000142A142222142A14089500220095AA00F1
:100920005500AAAA55AA55AA000000FF00101010F1
:10093000FF00141414FF001010FF00FF1010F0103F
:10094000F0141414FC001414F700FF0000FF00FF63
:100950001414F404FC141417101F10101F101F148B
:1009600014141F00101010F0000000001F101010D1
:10097000101F10101010F010000000FF10101010C9
:100980001010101010FF10000000FF140000FF00F6
:10099000FF00001F10170000FC04F41414171017B8
:1009A0001414F404F40000FF00F7141414141414C5
:1009B00014F700F7141414171410101F101F141438
:1009C00014F4141010F010F000001F101F000000AD
:1009D0001F14000000FC140000F010F01010FF10B5
:1009E000FF141414FF141010101F00000000F0106A
:1009F000FFFFFFFFFFF0F0F0F0F0FFFFFF0000004F
:100A00000000FFFF0F0F0F0F0F38444438447C2ABB
:100A10002A3E147E02020606027E027E02635549C9
:100A200041633844443C04407E201E2006027E027E
:100A30000299A5E7A5991C2A492A1C4C7201724CFF
:100A4000304A4D4D303048784830BC625A463D3EC1
:100A5000494949007E0101017E2A2A2A2A2A444462
:100A60005F444440514A444040444A51400000FFE2
:100A70000103E080FF000008086B6B083612362483
:100A800036060F090F0600001818000000101000AD
:100A90003040FF0101001F01011E00191D17120047
:100AA0003C3C3C3C0000000000D5F08D14A1C88106
:100AB000CFD9F1AF2000140420035C023E3D0E00AC
:100AC0000F8000000100F300010001E4015401ACBB
:100AD0000028240C00F480000003000A00FF00F747
:100AE000000046018B02CF03110551068D07C60891
:100AF000FB092C0B570C7D0D9E0EB90FCE10DC118F
:100B0000E412E613E014D515C216AA178A18641960
:100B1000381A051BCD1B8E1C4A1DFF1DB01E5A1F07
:100B20000020FFFFFFFFFF7F5555FF3F3333AA2A09
:100B30009224FF1F711C991945175515B1134912BD
:100B40001111FF0F0F0F380E790DCC0C300CA20BCA
:100B5000210BAA0A3D0AD8097B092409D308880871
:100B60004208FF07C107870750071C07EB06BC06B2
:100B7000900666063E061806F405D105B0059005F8
:100B80007205550539051E050505EC04D404BD04A0
:100B9000A70492047D046904560444043204210429
:100BA0001004FF03F003E003D203C303B503A8035B
:100BB0009B038E038103750369035E03530348039C
:100BC0003D03330329031F0315030C030303FA0238
:100BD000F102E802E002D802D002C802C002B90263
:100BE000B102AA02A3029C0295028F02880282022D
:100BF0007C02760270026A0264025E0259025302AB
:100C00004E02490243023E023902340230022B02F4
:100C1000260222021D021902140210020C0208020E
:100C20000402FF01FC01F801F401F001EC01E9010B
:100C3000E501E101DE01DA01D701D401D001CD01E6
:100C4000CA01C701C301C001BD01BA01B701B401A6
:100C5000B201AF01AC01A901A601A401A1019E014D
:100C60009C0199019701940192018F018D018A01E4
:100C700088018601830181017F017D017A0178016C
:100C800076017401720170016E016C016A016801E4
:100C900066016401620160015E015C015A01580154
:100CA000570155015301510150014E014C014A01B8
:100CB0004901470146014401420141013F013E0112
:100CC0003C013B0139013801360135013301320164
:100CD00030012F012E012C012B01290128012701B0
:100CE000250124012301210120011F011E011C01F6
:100CF0001B011A0119011801160115011401130134
:100D0000120111010F010E010D010C010B010A016D
:100D1000090108010701060105010401030102019F
:100D20000101000000AA55AA55FFFFFFFEFDFBF7D9
:100D3000EFDFBF7F080B0002020200000904000081
:100D40000102020000052400100105240101010434
:100D5000240206052406000107058103100040094E
:100D6000040100020A00000007050202400000071B
:100D70000583024000000403090412010002EF028F
:100D80000140412336800001010203014172647574
:100D9000696E6F204C4C430041726475626F79003C
:100DA000381311241FBECFEFDAE0DEBFCDBF11E054
:100DB000A0E0B1E0ECE9FDE402C005900D92A8339B
:100DC000B107D9F729E0A8E3B1E001C01D92A93924
:100DD000B207E1F716E0C1EDD6E004C02197FE01AD
:100DE0000E94C626C03DD107C9F70E945B130C9430
:100DF000CC260C940000FC0180912E05882311F173
:100E00003FB7F89482E08093E9002091F200822FAE
:100E100090E01816190614F481E090E0882339F068
:100E2000289844E640932D054091F1004083222309
:100E300039F02091F200211103C02BE62093E80045
:100E40003FBF08958FEF9FEF08952FB7F89483E089
:100E50008093E9009091E800892F807295FF04C08B
:100E60009091F20080E4891B2FBF089580912505A1
:100E700081110DC082E08093210584E080932205DA
:100E8000109224051092230581E08093250581E2CC
:100E900095E00895CF93DF931F92CDB7DEB76983B6
:100EA000DC01ED91FC910280F381E02D41E050E006
:100EB000BE016F5F7F4F09950F90DF91CF9108952D
:100EC00083E08093E9008091F200882319F08AE39F
:100ED0008093E80008950E94250790E00895CF933D
:100EE000DF931F92CDB7DEB7FC018485958597FD12
:100EF00008C02FEF3FEF358724870F90DF91CF9108
:100F00000895CE0101960E94FB06019719F489818C
:100F100090E0F3CF8FEF9FEFF0CF0F931F93CF931E
:100F2000DF931F92CDB7DEB78C01FC0184859585D8
:100F300097FF0BC0CE0101960E94FB06019771F44A
:100F4000898190E0F80195878487F80184859585EB
:100F50000F90DF91CF911F910F9108958FEF9FEF29
:100F6000F1CFFC018485958597FD0BC09FB7F89460
:100F700082E08093E9008091F2009FBF90E00196AB
:100F800008959FB7F89482E08093E9008091F20081
:100F90009FBF90E0089540911B0550911C05209142
:100FA000190530911A0542175307B4F49091E800DF
:100FB0009570E1F39091E80092FD19C08093F100E3
:100FC00080911B0590911C0501968F739927892BA1
:100FD00019F48EEF8093E80080911B0590911C0519
:100FE000019690931C0580931B0581E0089580E095
:100FF0000895EF92FF920F931F93CF93DF93F82EF4
:10100000192FE62E042F81E0860F880F0E94CB0750
:1010100083E00E94CB07CF2DD12FEC0EFD2EF11CCB
:10102000CE15DF05B9F007FF13C0FE0184910E94C1
:10103000CB07182F80E00E94CB07812321968111D6
:10104000EFCFDF91CF911F910F91FF90EF90089517
:101050008881EDCF81E0F5CFDF92EF92FF920F9381
:101060001F93CF93DF93D82E8A01EB017B01E40E0F
:10107000F51ECE15DF0559F0D7FE12C0FE01849192
:101080000E94CB0721968111F4CF0FEF1FEFC8010B
:10109000DF91CF911F910F91FF90EF90DF90089516
:1010A0008881EECF0F931F93CF93DF931F92CDB71D
:1010B000DEB782E0898342E450E064E37DE080E8CB
:1010C0000E942C080E943607DC0112960D911C919B
:1010D0000115110589F0D801ED91FC910280F38191
:1010E000E02DBE016F5F7F4FC801099597FD04C0D9
:1010F000F80100851185ECCF89810F90DF91CF91A8
:101100001F910F910895615030F02091F100FC0182
:1011100020830196F8CF289884E680932D050895C2
:10112000AF92BF92CF92DF92EF92FF920F931F93F5
:10113000CF93DF936C017B018B01040F151FEB0133
:101140005E01AE18BF08C017D10759F06991D601EA
:10115000ED91FC910190F081E02DC6010995892B5C
:1011600079F7C501DF91CF911F910F91FF90EF901B
:10117000DF90CF90BF90AF9008953FB7F8948091E3
:10118000390190913A01A0913B01B0913C0126B503
:10119000A89B05C02F3F19F00196A11DB11D3FBFAF
:1011A000BA2FA92F982F8827BC01CD01620F711D7E
:1011B000811D911D42E0660F771F881F991F4A9578
:1011C000D1F708958F929F92AF92BF92CF92DF9204
:1011D000EF92FF926B017C010E94BD084B015C0104
:1011E000C114D104E104F104B9F00E94BD086819EA
:1011F00079098A099B09683E73408105910580F34E
:1012000021E0C21AD108E108F10888EE880E83E0D7
:10121000981EA11CB11CE4CFFF90EF90DF90CF90FF
:10122000BF90AF909F908F90089565E070E080E050
:1012300090E00C94E2088F929F92AF92BF92CF926F
:10124000DF92EF92FF920F931F93CF93DF936C0186
:101250007B018A0180910B01882309F45CC0809195
:101260002E05882309F457C08091200580FF05C012
:101270008091E00082608093E000E801B12C8AEF69
:10128000A82E93E0892E2AE3922E209711F4BB20FA
:10129000D9F10E94250781110AC0AA94AA20D9F188
:1012A00061E070E080E090E00E94E208EECF8C17F1
:1012B0001D0611F00CF08C2F9FB7F8948092E90076
:1012C0002091E80025FD02C09FBFDFCF282F30E02E
:1012D000C21BD30BF701815020F041914093F100E4
:1012E000FACFE20EF31EBB2021F09092E800B12C61
:1012F000EBCF8091E80085FDE7CF9092E800BB241A
:10130000B394209709F3F3CF5D9884E680931F058B
:10131000101611063CF081E090E0F6019383828381
:1013200010E000E0C801DF91CF911F910F91FF9075
:10133000EF90DF90CF90BF90AF909F908F900895E7
:101340008FB18095807F669B88601C9B8460089528
:10135000AF92BF92CF92DF92EF92FF920F931F93C3
:10136000CF93DF936D3079F0C0911505D0911605BC
:101370006A30B1F410921805109217052896D09390
:101380001605C093150581E090E0DF91CF911F9184
:101390000F91FF90EF90DF90CF90BF90AF900895A6
:1013A000409117055091180585E0689FF0011124C0
:1013B000E755FA4F9A01C12C80E1E82EA5E070E0D4
:1013C000CA1621F0CF0101967491FC0110E000E0F3
:1013D000B72FB170DB2E20383105D0F4CE01800F4D
:1013E000911F80349105A0F461E081FD64E080FDEF
:1013F000660F82FD6295887FE89ED0011124A20FBE
:10140000F62EA756BA4F8C91DD20A9F0862B8C932F
:1014100076950F5F1F4F08301105D1F6C3942F5FEB
:101420003F4F86E0C812CACF4A5F5F4F50931805FE
:1014300040931705A8CFF0948F21E9CF482FE82FCC
:10144000EF7386FF03C080E48E1BE82FF0E0EE0F01
:10145000FF1FE95DFA4F8591949147FF03C0919575
:10146000819591090895E82FEF7386FF03C090E4FA
:101470009E1BE92FF0E0EA51FB4FE49187FDE195D7
:101480008E2F089520E0AC01D703C0014E03821FC8
:10149000312DDE03920B300D811D921FFC03920B48
:1014A000300D811D921F112408959C01B603C001C7
:1014B000EA0300249009810D1124911D08959C01D7
:1014C000369FC001279F800D911D379F900D269F4D
:1014D000810D1124911D08959C013603C0017203F2
:1014E000800D911D379F900D269F810D1124911D18
:1014F00008959C013603C001729F800D911D379F96
:10150000900D269F810D1124911D08959C01360395
:10151000C001269F810D1124911D0895EF92FF9225
:101520000F931F93CF93DF93082FC92F892F0E940A
:101530001E0AD82F192F81E08C0F0E941E0A7C01F1
:10154000602F60958D2F912F0E94860AEC01602FED
:10155000C7010E94860A8C0F9D1F810F911D17FDE8
:101560009A95DF91CF911F910F91FF90EF90089581
:101570005F926F927F928F929F92AF92BF92CF9223
:10158000DF92EF92FF920F931F93CF93DF93CDB72C
:10159000DEB72C970FB6F894DEBF0FBECDBF4F83DA
:1015A000588769877A878B879C87CF80D884E9841E
:1015B000FA840B851C85C701F7FE04C0882799278C
:1015C0008E199F09980117FF04C022273327201B7B
:1015D000310B821793070CF4C9019601D7FE04C0A2
:1015E000222733272C193D09821793070CF4C901D0
:1015F0008F3F9105B1F0ACF0D7FE03C02FEFC21AB8
:10160000D20AD594C794F7FE03C03FEFE31AF30A5A
:10161000F594E79417FF02C00F5F1F4F15950795CC
:10162000CACFB601C6010E946C0A4C01B701C701BE
:101630000E946C0A880E991EB801C8010E946C0AAB
:10164000880E991E38E0532EA12CBB24B39450E889
:10165000652E77247394B501C5010E945F0ABC0111
:10166000C4010E945F0A96958795B5019301281BD6
:10167000390BC9010E945F0A5C015A945110EBCFEB
:10168000BC01C6010E94790AD82EC92EB501C70136
:101690000E94790AF82EE92EB501C8010E94790A44
:1016A0002D2D3C2D4F2D5E2DBC0180E090E02C9621
:1016B0000FB6F894DEBF0FBECDBFDF91CF911F9163
:1016C0000F91FF90EF90DF90CF90BF90AF909F90E1
:1016D0008F907F906F905F9008958F929F92AF92BE
:1016E000BF92CF92DF92EF92FF920F931F93CF930F
:1016F000DF93CDB7DEB768970FB6F894DEBF0FBEA5
:10170000CDBF8F829886A986BA86CB86DC86ED8689
:10171000FE860F87188B298B3A8B4B8B5C8B6D8BDE
:101720007E8B8F8B988F0FA118A589A49AA4ABA448
:10173000BCA46F817885C8010E94420A6C0169854A
:101740007A85C4010E94420AC80ED91E6B857C8529
:10175000C5010E94420AC80ED91E6D857E85C8014A
:101760000E94420A7C016F857889C4010E94420A66
:10177000E80EF91E69897A89C5010E94420AE80EBD
:10178000F91E6B897C89C8010E94420A8C016D890F
:101790007E89C4010E94420A080F191F6F89788D43
:1017A000C5010E94420ADA82C982FC82EB82800F64
:1017B000911F9E838D832C2D3A814E2D5C81682F45
:1017C0007E8180E090E068960FB6F894DEBF0FBE91
:1017D000CDBFDF91CF911F910F91FF90EF90DF90E0
:1017E000CF90BF90AF909F908F9008956F927F920F
:1017F0008F929F92AF92BF92CF92DF92EF92FF9221
:101800000F931F93CF93DF93CDB7DEB765970FB6D6
:10181000F894DEBF0FBECDBF188729873A874B8764
:101820005C876D877E878F87A88AB98ACA8ADB8A98
:10183000EC8AFD8A688879888A889B88AC88BD880C
:10184000602FC3010E94550A6C016885C4010E9483
:10185000550AC80ED91E6985C5010E94550AC80ED1
:10186000D91E6A85C3010E94550A7C016B85C4019B
:101870000E94550AE80EF91E6C85C5010E94550AA2
:10188000E80EF91E6D85C3010E94550A8C016E8514
:10189000C4010E94550A080F191F6F85C5010E94D7
:1018A000550ADA82C982FC82EB82800F911F9E83E7
:1018B0008D832C2D3A814E2D5C81682F7E8180E0B6
:1018C00090E065960FB6F894DEBF0FBECDBFDF91F6
:1018D000CF911F910F91FF90EF90DF90CF90BF902D
:1018E000AF909F908F907F906F90089587FD1BC061
:1018F00060347105C0F4FB0194E0EE0FFF1F9A9570
:10190000E1F7E078F370E80FF11DE756FA4F6770E2
:10191000772781E090E001C0880F6A95EAF780950B
:101920009081892380830895CF93461757070CF43D
:1019300038C057FD36C0603471059CF587FD31C055
:1019400077FF02C070E060E0C62F4F33510514F0FE
:101950004FE350E0C87F942F987F677077276252DB
:101960007B4FFB016491FA01E770FF27EA52FB4FBE
:101970004491E82FF0E080FF232F80E1C89FD00141
:101980001124AE0FBF1FA756BA4F3C91C9130BC00D
:10199000E62FE4239E2F9095922BE223E32BE9235D
:1019A000EC93CF910895862F8095582F522BE62FD8
:1019B000E2238E2F832B85238C93A058BF4F892F32
:1019C0008C1B8850181624F42C93A058BF4FF9CFC5
:1019D0006C91E42FE0958E2F822BE42FE223E62BEF
:1019E000E823DECFE62FE770F0E0E253FB4FE4910F
:1019F00066956695669590E8699FD0011124A80FB9
:101A0000B11DA756BA4F8C91E82BEC9308959C0119
:101A100044E0969587954A95E1F737FD906F0895D4
:101A20002F923F924F925F926F927F928F929F92EE
:101A3000AF92BF92CF92DF92EF92FF920F931F93DC
:101A4000CF93DF93CDB7DEB72A970FB6F894DEBFFA
:101A50000FBECDBF9B838A837A8769875A0139017C
:101A6000D886CF824617570764F0E016F1064CF08F
:101A70009E2D8F2D7801092F182F8B2D5B01498703
:101A80008A8793014A815B81241B350B3D832C831C
:101A900047018A189B0897FE03C09194819491088E
:101AA000180189859A85281A390A37FE03C03194AE
:101AB000219431082A2D2F7099859F709983EA14FB
:101AC000FB0414F421952F7049855A8504171507D6
:101AD00024F4898181958F7089838A818F7098EF32
:101AE000C92EC80E0C2C000CDD082051330B4C8184
:101AF0005D81249FC001259F900D349F900D11247E
:101B00008C9C90018D9C300D9C9C300D1124821B6F
:101B1000930B0E94070D2C0189818051990B9C0128
:101B20004C815D81249FC001259F900D349F900DB5
:101B300011242C9C90012D9C300D3C9C300D1124C7
:101B4000821B930B0E94070D6C01AE14BF040CF4B2
:101B500045C05FEF598329853A85201731070CF47A
:101B600040C03FEF3E83EA14FB041CF451E0A51A89
:101B7000B10889859A85081719071CF401979A8777
:101B800089878A819B810E94070D8C01C30107967A
:101B90000E94070D9B838A83C5010E94070D5C018B
:101BA00089859A850E94070D7C019981692E990F7C
:101BB00077082E81022E000C330B3A8729874A8141
:101BC0005B814017510751F1141415046CF4A60CF5
:101BD000B71C8C819D81481A590AF6CF81E0898310
:101BE000BACF41E04E83BFCF1C141D044CF42985AD
:101BF0003A85E20EF31E4C815D81C41AD50AF4CFFA
:101C00002F813885A701B501802F0E94940C0F5FAA
:101C10001F4F480C591CC20CD31CD1CF2A960FB6AB
:101C2000F894DEBF0FBECDBFDF91CF911F910F9112
:101C3000FF90EF90DF90CF90BF90AF909F908F90EC
:101C40007F906F905F904F903F902F900895CF922C
:101C5000DF92EF92FF92292F30E0220F331F2E5D8B
:101C6000344FF90145915491F9013296659174917F
:101C7000282F2095249F6001259FD00CE12C112452
:101C8000E11C869F9001879F4427300D411D112440
:101C9000C20ED31EE41ECD2CDE2CEE24F12CDC0172
:101CA000A70196010E944D26672F782F892F99272B
:101CB00020E030E042E0261B370B480B50E0C70124
:101CC000B6010E949326FF90EF90DF90CF90089589
:101CD000AF92BF92CF92DF92EF92FF920F931F933A
:101CE000CF93DF935C01E9018417950741F1D80197
:101CF000A21BB30B201731071CF0D901A01BB10B9D
:101D00009B012A193B090E947A266B017C01CA01BA
:101D10008A199B098F3F9105F1F0E8F00E94270E88
:101D200055274F2D3E2D2D2DDC010E944D260C17E1
:101D30001D071CF4919581959109C80FD91FCE01FB
:101D4000DF91CF911F910F91FF90EF90DF90CF9097
:101D5000BF90AF900895FC01EE0FFF1FEE5DF44FB2
:101D6000A591B491A7019601E0CF4F925F926F9237
:101D70007F928F929F92AF92BF92CF92DF92EF921B
:101D8000FF920F931F93CF93DF935C01EA01390118
:101D90009B01A70160E870E0CE010E94680E6C0113
:101DA00083019501A70160E870E0CE010E94680EF2
:101DB000B601DF91CF911F910F91FF90EF90DF90CF
:101DC000CF90BF90AF909F908F907F906F905F90DB
:101DD0004F900895DF92EF92FF920F931F93CF934E
:101DE000DF937C018B01D22EFC0180819181461B07
:101DF000570B57FF02C04D5F5F4F5595479555955F
:101E00004795EA01C81BD90B6D2D0E94860A080F61
:101E1000191F6D2DCE010E94860AF70120813181A4
:101E2000820F931F91838083C801DF91CF911F910F
:101E30000F91FF90EF90DF900895AF92BF92CF92F5
:101E4000DF92EF920F931F93CF93DF9300D000D0D8
:101E500000D0CDB7DEB749835A836B837C838D83F3
:101E60009E83590149815A818DE3C82E85E0D82E81
:101E7000F6016081718120E483E395E00E94EA0E1F
:101E8000F601918380834B815C816281738120E4C0
:101E900085E395E00E94EA0EF601938382834D81EB
:101EA0005E816481758120E487E395E00E94EA0EFB
:101EB000F6019583848360913105709132052E2D52
:101EC000A50189E395E00E94EA0E90933205809384
:101ED000310560912F05709130052E2DA8018BE3FF
:101EE00095E00E94EA0E9093300580932F05269688
:101EF0000FB6F894DEBF0FBECDBFDF91CF911F911B
:101F00000F91EF90DF90CF90BF90AF90089508951C
:101F100090E080E00895EF92FF920F931F93CF938C
:101F2000DF93EC01E62E142F842F0E94330A082F32
:101F300080E4810F0E94330A182F8E2D0E94330AED
:101F4000F82E80E48E0D0E94330A88834F2D84037F
:101F50009001112439839403900111243A831B8248
:101F60001C83902F91959D83F194FE82482F8403CA
:101F7000900111243F839403C00111249887DF91BD
:101F8000CF911F910F91FF90EF9008952F923F9264
:101F90004F925F926F927F928F929F92AF92BF9279
:101FA000CF92DF92EF92FF920F931F93CF93DF9325
:101FB000CDB7DEB76D970FB6F894DEBF0FBECDBFBD
:101FC0004E8B5F8B688F798F8A8F9B8F322E532E2B
:101FD000202E412E6E887F88888C998C2A8D3B8D8F
:101FE0003D8F2C8F442D4195652D6195CE01019635
:101FF0000E948B0F1B861A861D861C86A12CBB8413
:10200000C12CDD8409811A812B813C814D815E8147
:102010006F81788589850E94F60B288B398B4A8BD6
:102020005B8B6C8B7D8B88899989680E791E8A8978
:102030009B89880E991E8C899D892C8D3D8D820FE0
:10204000931F462D7A826982682D9C828B829E83A3
:102050008D8390E4E92E022D142D232D352D5A81E8
:102060007C819E810E941D0F6D960FB6F894DEBF95
:102070000FBECDBFDF91CF911F910F91FF90EF90D9
:10208000DF90CF90BF90AF909F908F907F906F9098
:102090005F904F903F902F9008951F920F920FB630
:1020A0000F9211248F939F938091E1009091E10012
:1020B000937F9093E10083FF0FC01092E90091E0BD
:1020C0009093EB001092EC0092E39093ED0010924D
:1020D0002E0598E09093F00082FF22C093E0909349
:1020E000E9009091F200992319F09AE39093E800A7
:1020F00090911F05992341F090911F059150909365
:102100001F05911101C05D9A90912D05992341F011
:1021100090912D05915090932D05911101C0289A11
:1021200084FF18C08091E2008E7E81608093E2007F
:102130008091E1008F7E8093E100809120058E7E6A
:102140008061809320059F918F910F900FBE0F901B
:102150001F90189580FFF7CF8091E2008E7E8061FE
:102160008093E2008091E1008E7E8093E100809177
:1021700020058E7E8160E5CF1F920F920FB60F92E1
:102180001124CF92DF92EF92FF920F931F932F9320
:102190003F934F935F936F937F938F939F93AF93EF
:1021A000BF93EF93FF93CF93DF93CDB7DEB76C97D9
:1021B000DEBFCDBF1092E9008091E80083FF25C00B
:1021C00068E0CE0145960E94830882EF8093E80084
:1021D0008D8987FF39C09091E80090FFFCCF982F40
:1021E000907609F034C19E894F89588D2F89F88CDB
:1021F000911131C0803861F580911E058093F10006
:102200001092F1008EEF8093E8006C960FB6F89470
:10221000DEBF0FBECDBFDF91CF91FF91EF91BF9198
:10222000AF919F918F917F916F915F914F913F916E
:102230002F911F910F91FF90EF90DF90CF900F9013
:102240000FBE0F901F9018959EEF9093E800C7CF98
:102250001092F100D5CF913059F48111D3CF413094
:10226000510581F680911E058D7F80931E05CACF92
:10227000933049F48111C6CF4130510519F6809150
:102280001E058260F2CF953041F48091E80080FF16
:10229000FCCF20682093E300B5CF963009F0A9C0A9
:1022A0000B8D1C8D22E01092E90010921C051092FB
:1022B0001B05F2122EC010921A05109219050E94E9
:1022C00052081F8299E09983FA8291E09E8390EAF6
:1022D00098879AEF998720911B0530911C05275FFD
:1022E0003F4F3C832B838D831092E90010921C0595
:1022F00010921B0510931A050093190549E050E050
:10230000BE016F5F7F4F80E00E942C080E94520840
:1023100079CF10931A05009319050E943607DC0146
:1023200012960D911C910115110509F451C1D801A6
:10233000ED91FC910480F581E02DBE016B5E7F4F35
:10234000C8010995009709F03EC1F8010085118583
:10235000EACFF3E0FF120EC08F89882309F440C052
:10236000823061F440E867E088E99DE00E94F90767
:10237000811148CF81E28093EB0047CF813029F46F
:1023800040E86BE08CE89DE0F1CF833099F70E9444
:102390003607DC011296ED90FC908E010F5F1F4F07
:1023A0006801E114F10479F0D701ED91FC91068008
:1023B000F781E02DB801C7010995080F111DF7013C
:1023C000E084F184EECFD8011C92F6010190002048
:1023D000E9F73197BF016C197D0940E0C601C6CF0E
:1023E00066E77DE0FB01449150E080E80E942C0804
:1023F00009CF973009F4BECF983021F481E0809363
:10240000F10000CF993009F0FDCE837009F0B2CF12
:10241000E3E1F1E081E031E096E32191222371F0E4
:102420008093E9003093EB00DF0111972C9120930A
:10243000EC009093ED008F5F873079F78EE7809303
:10244000EA001092EA008F8980932E05DBCE8B8DF7
:102450009C8D1092E90010921C0510921B05909320
:102460001A0580931905898D811192C08E899D89E5
:10247000913A49F4813209F07DCF47E050E064E0C1
:1024800071E080E0B3CF913209F074CF833269F408
:102490008F89988DB0E0A0E08093000190930101B6
:1024A000A0930201B0930301ADCE803269F4809114
:1024B000E80082FFFCCF67E084E091E00E9483089F
:1024C0008BEF8093E8009ECE823209F09BCE8F89FD
:1024D00080930B01EEEFFFE7859194918B3F9C4D2C
:1024E00051F1E0E0F8E08091040190910501A091A4
:1024F0000601B0910701803B9440A105B105F1F4BC
:1025000080910B0180FD1AC0EE3F8AE0F80789F543
:1025100087E797E7918380838091600080931D0512
:1025200088E19BE00FB6F894A895809360000FBEF9
:102530009093600067CEEEEFFAE0D5CF8081918175
:102540008737974709F05ECEA89580916000886133
:102550008093600080911D0580936000EE3F2AE02B
:10256000F20789F08091FE0A9091FF0A918380839F
:1025700049CE808191818737980751F29093FF0A65
:102580008093FE0AC5CF1092FF0A1092FE0A3ACE3F
:102590000E943607DC0112960D911C910115110560
:1025A00009F4E8CED801ED91FC910190F081E02D85
:1025B000BE016B5E7F4FC8010995811123CEF801E2
:1025C00000851185EBCF181619060CF41BCED2CE60
:1025D000F1E0FF12BECE6AE77DE004CF1F920F92BA
:1025E0000FB60F9211242F933F938F939F93AF9326
:1025F000BF9380913D0190913E01A0913F01B09128
:1026000040013091380123E0230F2D3758F5019612
:10261000A11DB11D2093380180933D0190933E018F
:10262000A0933F01B09340018091390190913A010C
:10263000A0913B01B0913C010196A11DB11D809379
:10264000390190933A01A0933B01B0933C01BF91B3
:10265000AF919F918F913F912F910F900FBE0F904F
:102660001F90189526E8230F0296A11DB11DD2CF09
:10267000E3E4F5E01382128288EE93E0A0E0B0E09C
:1026800084839583A683B7838DE191E091838083D2
:102690008FEF9FEF9587848789E995E09093940564
:1026A00080939305E5E9F5E0138212828FE291E0D1
:1026B000918380830895CF93DF93CDB7DEB7CE5754
:1026C000D1090FB6F894DEBF0FBECDBF789484B5A4
:1026D000826084BD84B5816084BD85B5826085BD1E
:1026E00085B5816085BD80916E00816080936E00AC
:1026F000109281008091810082608093810080919E
:10270000810081608093810080918000816080934E
:10271000800080919100826080939100809191006F
:1027200081608093910080919000816080939000FF
:102730008091C10084608093C1008091C10082605B
:102740008093C1008091C10081608093C10080911D
:10275000C30081608093C3008091C0008260809339
:10276000C0008091C20081608093C20080917A0095
:10277000846080937A0080917A00826080937A00EE
:1027800080917A00816080937A0080917A008068DD
:1027900080937A0010922E0510921E05109220054B
:1027A0008091D70081608093D70080EA8093D80021
:1027B00089B5806189BD89B5826089BD09B400FE93
:1027C000FDCF61E070E080E090E00E94E20880913F
:1027D000D8008F7C80618093D8008091E000807F5A
:1027E0008093E0008091E1008E7E8093E1008DE097
:1027F0008093E200559A209A81EC80937C0085B109
:10280000806F85B984B1877E84B984B1876E84B9BD
:102810005E9A5F988AB1806D8AB9769A6E9881B314
:10282000806F81BB899880B38D7080BB80E58CBD43
:1028300081E08DBD0E9415095F9A0E9415095E987E
:102840005C98E9EAFAE086EB9AE024912EBD00005C
:102850000DB407FEFDCF31968E179F07B1F75C9A36
:1028600081E88093640080916500816080936500B9
:102870000E94A00987FF16C05C9885EA8EBD000003
:102880000DB407FEFDCF5C9A2E982F982D982E98A8
:102890008091640080628093640081E083BF8895AA
:1028A00013BEFCCF86EB9AE09093F3048093F2047E
:1028B00046E050E06FEB7AE089E095E00E94442624
:1028C00086E0EAEFF4E0DF01282F1D922A95E9F770
:1028D000E4EFF4E0DF01282F1D922A95E9F7ECE000
:1028E000F1E0ADE3B5E001900D928A95E1F780E06B
:1028F00092ED909332058093310580E193E19093BE
:10290000300580932F051092130510921005109238
:102910000F0510921205109211052FB7F8948091AF
:102920003D0190913E01A0913F01B09140012FBF28
:10293000E3961FAE1EAEE397E9961FAE1EAEE99773
:10294000E1961FAE1EAEE1972091600023FD15C0F9
:1029500021E03FB7F89440913D0150913E016091D4
:102960003F01709140013FBF481B413268F4403243
:1029700081F323BF889513BEECCFF89487E780934B
:10298000000880930108FFCF2FB7F89440913D01D4
:1029900050913E0160913F0170914001ED964CAF26
:1029A0005DAF6EAF7FAFED972FBFE1962EAD3FAD20
:1029B000E197240F351FB901681B790BE1967FAFB2
:1029C0006EAFE197E3968EAD9FADE3970196E396E8
:1029D0009FAF8EAFE3976A3F7105D0F09C01A8EEE0
:1029E000B3E00E947A26E196AEADBFADE1979D01BE
:1029F00050E040E00E945826E9963FAF2EAFE9979D
:102A0000E3961FAE1EAEE397E1961FAE1EAEE197B2
:102A10000E94A009D0901405D094D8228093140568
:102A20008091130581116CC120911105309112051F
:102A30002E961FAE1EAE2E9760961FAE1EAE6097EE
:102A400062961FAE1EAE6297E12CE9E1FE2E00E712
:102A500017E140E02E965FAD2E9760E060967FAD67
:102A6000609762969FAD62970E94C60F8091110594
:102A70009091120593959093120580931105809182
:102A80000F059091100501969093100580930F0506
:102A90008F3F910521F018F081E080931305D2FE5D
:102AA00003C081E0809313058091F2049091F304B8
:102AB000FC0137963491E6963FAFE6973197449103
:102AC00063964FAF6397349765917491AB967FAFE0
:102AD0006EAFAB976F967FAF6EAF6F97FC0125908F
:102AE0003490E0903105F090320500912F0510915F
:102AF0003005C8010E948E0A6C01C801905C0E94DA
:102B00008E0A8C01C7010E948E0A5C01C701905C8D
:102B10000E948E0A7C019A8389831C821B82BE825A
:102B2000AD82B501C6010E94420A98878F831A8739
:102B30000987B701C6010E94420A919581959109C2
:102B40009C878B87B501C8010E94420A91958195A7
:102B500091099E878D87D88ACF86B701C8010E94C8
:102B6000420A9A8B898B80E891E00E94270E8AE9BD
:102B700092E0A1969FAF8EAFA19766969FAF8EAF62
:102B80006697512C412C67961FAE6797A0913D0523
:102B9000B0913E0560913F057091400580914105DF
:102BA0009091420560909305709094056396EFAD07
:102BB00063974E1608F012C76796FFAD67972F2FE1
:102BC00030E0F101E20FF31F0491F9013196E20DBB
:102BD000F31D4491F9013296E20DF31D349120E882
:102BE0000203800111240A1B1B0B20E84203A001F1
:102BF0001124461B570B60E83603F0011124E81B33
:102C0000F90BC201880F991F680E791E730174EDCC
:102C1000E71A7EEFF70A9801D8010E94B7264B0108
:102C20005C019A01DA010E94B726860E971EA81E43
:102C3000B91E9F01DF010E94B726860E971EA81EAF
:102C4000B91ED701AD92BC921D8F0C8F5F8F4E8F36
:102C5000F9A3E8A300D000D000D0ADB7BEB711965D
:102C600086E0FE017C9601900D928A95E1F78980BD
:102C70009A80AB80BC80CD80DE80EF80F8840985AF
:102C80001A852B853C854D855E856F857889898978
:102C90009A890E946D0B2C8F3D8F4E8F5F8F68A39A
:102CA00079A32E8D3F8D88A199A191958195910948
:102CB0004C8D5D8D6696EEADFFAD6697518340837A
:102CC00033832283D3018D939C936796BFAD67971F
:102CD000BD5F6796BFAF6797EFEF4E1A5E0A6696C5
:102CE0002EAD3FAD66972C5F3F4F66963FAF2EAF40
:102CF00066970F900F900F900F900F900F9046CF08
:102D0000813009F094C086E0E9E0F5E0DE0111963B
:102D100001900D928A95E1F7209107053091080501
:102D200080910B0590910C059E5F682F9C838B838F
:102D3000E12C76E0F72E00E010E149815A817C8198
:102D40008D819E810E94C60F0E94A00985FF0AC046
:102D50002091070530910805205831093093080566
:102D60002093070586FF0AC02091070530910805CA
:102D700020583F4F309308052093070587FF05C073
:102D8000909106059C5F9093060584FF05C0909185
:102D9000060594509093060510910605143008F02E
:102DA00042C014E01093060583FF2CC0E090070595
:102DB000F0900805C7010E948E0A5C01C701905C73
:102DC0000E948E0A7C0186E0E9E0F5E0A0E0B5E033
:102DD00001900D928A95E1F7612FC5010E94860A44
:102DE0009093FB048093FA04612F882799278E190A
:102DF0009F090E94860A9093FF048093FE0482E05C
:102E000080931305D2FE50CE80910705909108055E
:102E100090931205809311051092100510920F05E2
:102E20001092130541CE17FFBDCF10E8BBCF823003
:102E300009F03ACEB4E06E96BFAF6E978091FC0475
:102E40009091FD04C0974091FA045091FB04411504
:102E5000E0EC5E070CF4CBC34115F0E45F070CF027
:102E6000C9C35093FB044093FA04811520EC9207E8
:102E70000CF4C3C3811530E493070CF0C1C39093E5
:102E8000FD048093FC042091FE043091FF04211581
:102E900060EC36070CF4B7C3211570E437070CF06B
:102EA000B5C33093FF042093FE0440585F4F6091F8
:102EB000090570910A05650F711D57FD7A9570938C
:102EC0000A056093090580589F4F40910B0550916A
:102ED0000C05490F511D97FD5A9550930C054093D1
:102EE0000B0520583F4F80910D0590910E05830FE3
:102EF000911D37FD9A9590930E0580930D05809155
:102F0000F2049091F304FC013496259134916D966E
:102F10003FAF2EAF6D97FC0138968491AC968FAF82
:102F2000AC9767961FAE6797AC969FADAC976796C8
:102F3000AFAD67979A1709F49CC34EE050E06D96C9
:102F40006EAD7FAD6D97CE0101960E944426E9815A
:102F5000FA816496FFAFEEAF64974B805C806D8022
:102F60007E80FD856596FFAF65972E8568962FAFAD
:102F70006897E0900905F0900A058F819885E81A16
:102F8000F90A20900B0530900C0589859A85281A3E
:102F9000390A00910D0510910E052B853C85021B09
:102FA000130BF11106C068963FAD6897332309F4FF
:102FB00063C068964FAD689765966FAD6597CE0113
:102FC00043960E948B0F4C89A2964FAFA2979D8883
:102FD0005E896A965FAF6A976F89A0966FAFA09778
:102FE000A88C798DAA967FAFAA978A8CBB8C6B89A7
:102FF000C7010E94550A6C016A966FAD6A97C101BC
:103000000E94550AC80ED91EAA966FADAA97C8018C
:103010000E94550A8C0D9D1D6B969FAF8EAF6B97CE
:10302000A2966FADA297C7010E94550A6C01A096A7
:103030006FADA097C1010E94550AC80ED91E682D18
:10304000C8010E94550AC80ED91E692DC7010E94E9
:10305000550A7C016A2DC1010E94550AE80EF91E2D
:103060006B2DC8010E94550A8701080F191F160110
:103070006B96EEACFFAC6B976496CEACDFAC64970E
:10308000D194C194D108812C912C5401EC14FD04ED
:103090005CF46496AEADBFAD6497AE0DBF1D9D01EF
:1030A0000E94B7264B015C0164968EAD9FAD64977C
:1030B0008E159F0554F4D701A81BB90B9D010E94E2
:1030C000B726860E971EA81EB91EEE27FF27E41905
:1030D000F5092E163F0654F4D101A40DB51D9D012E
:1030E0000E94B726860E971EA81EB91E42145304CE
:1030F00054F4D101A419B5099D010E94B726860E8A
:10310000971EA81EB91E44275527461957090417AC
:10311000150754F4D301A00FB11F9D010E94B726DB
:10312000860E971EA81EB91E6016710654F4D801AB
:10313000A619B7099D010E94B726860E971EA81EE4
:10314000B91E91E0891690E49906A104B10408F033
:103150003DC23E2D2F2DEC14FD0414F43C2D2D2DDD
:10316000832F922F6496AEADBFAD6497A817B907B1
:103170000CF4CD01E81AF90A2896FFAEEEAE2897B6
:10318000322D232D2E163F0614F43E2F2F2F832F82
:10319000922F481659060CF4C201281A390A2A96A9
:1031A0003FAE2EAE2A97302F212F0417150714F4A7
:1031B000342F252F832F922F681679060CF4C30124
:1031C000F801E81BF90BCF012C96FFAFEEAF2C975F
:1031D00027964FAD279728965FAD289729966FAD14
:1031E00029972A967FAD2A972C969FAD2C970E94FF
:1031F000B80A27962FAF279728963FAF289729968A
:103200004FAF29972A965FAF2A972B966FAF2B97D0
:103210002C967FAF2C976596FFAD6597F111F9C19C
:1032200068962FAD68972111F4C128962EAC3FAC5B
:1032300028972A964EAC5FAC2A972C960EAD1FAD00
:103240002C974091FA045091FB0466965FAF4EAF05
:1032500066976091FC047091FD0464967FAF6EAF39
:1032600064976090FE047090FF04B101CA010E944F
:103270006C0A7C01B20164968EAD9FAD64970E948A
:103280006C0AE80EF91EB801C3010E946C0AE80E30
:10329000F91E1E141F040CF499C1B101C7010E944C
:1032A0006C0A6696AEACBFAC6697A81AB90AB201B2
:1032B000C7010E946C0A6496CEACDFAC6497C81A52
:1032C000D90AB801C7010E946C0A4A2D2296BFAEE6
:1032D000AEAE22976C2D2496DFAECEAE2497D301EE
:1032E000A81BB90BCD012696BFAFAEAF269722968D
:1032F0005FAD229724967FAD249726969FAD2697A3
:103300000E94B80A21962FAF219722963FAF2297AD
:1033100023964FAF239724965FAF249725966FAFE0
:10332000259726967FAF26972296EEADFFAD229782
:10333000A196FFAFEEAFA19724962EAD3FAD249797
:10334000A9963FAF2EAFA99726964EAD5FAD2697B3
:10335000AB965FAF4EAFAB976091F4047091F504FC
:103360006B967FAF6EAF6B978091F6049091F704E8
:1033700069969FAF8EAF6997A091F804B091F90458
:10338000A396BFAFAEAFA397B8010E946C0A7C01B1
:10339000B201A3968EAD9FADA3970E946C0AE81A66
:1033A000F90AB101A3968EAD9FADA3970E946C0A56
:1033B0005C01B8016B968EAD9FAD6B970E946C0A55
:1033C000A81AB90AB2016B968EAD9FAD6B970E9499
:1033D0006C0A6C01B10169968EAD9FAD69970E9430
:1033E0006C0AF7FE03C0BFEFEB1AFB0AF594E794F3
:1033F0006696EEADFFAD6697EE19FF097F01B7FE49
:1034000003C0FFEFAF1ABF0AB594A79464968EACC1
:103410009FAC64978A189B08C81AD90AD7FE03C0C4
:103420002FEFC21AD20AD594C7945301AC18BD0825
:10343000B101C7010E946C0A6C01B201C4010E9473
:103440006C0AC80ED91EB801C5010E946C0AC80ECC
:10345000D91EA1966EAD7FADA197C7010E946C0ADF
:103460007C01A9966EAD7FADA997C4010E946C0A3C
:10347000E80EF91EAB966EAD7FADAB97C5010E940D
:103480006C0AE80EF91EAA24BB24AE18BF0860EC33
:10349000882799278C199D090E94860A7C01EC18BF
:1034A000FD0865E5C5010E94860A6C01B101C701EE
:1034B0000E946C0A4C01B201C7010E946C0A5C01B7
:1034C000B801C7010E946C0A7C01A1966EAD7FAD68
:1034D000A197C6010E946C0A880E991EA9966EAD2E
:1034E0007FADA997C6010E946C0AA80EB91EAB96C3
:1034F0006EAD7FADAB97C6010E946C0AE80EF91E57
:1035000066968EAD9FAD6697880D991D9093FB04CE
:103510008093FA0464968EAD9FAD64978A0D9B1DCF
:103520009093FD048093FC04C701860D971D909332
:10353000FF048093FE04B801C5010E946C0A6C016F
:10354000B201C7010E946C0AC81AD90AB101C701A9
:103550000E946C0A7C01B801C4010E946C0AE81A3E
:10356000F90AB201C4010E946C0A8C01B101C501C3
:103570000E946C0ACC0CDD1CCC0CDD1C6B964EAD95
:103580005FAD6B97C40ED51ED092F504C092F404C3
:10359000EE0CFF1CEE0CFF1C69966EAD7FAD6997BB
:1035A000E60EF71EF092F704E092F604081B190BE2
:1035B000000F111F000F111FA3968EAD9FADA39793
:1035C000080F191F1093F9040093F80467969FAD34
:1035D00067979F5F67969FAF67976D96AEADBFADDC
:1035E0006D971E966D96BFAFAEAF6D979DCC40E0C8
:1035F00050EC37CC40E050E434CC80E090EC3FCC51
:1036000080E090E43CCC20E030EC4BCC20E030E497
:1036100048CC2796AFAC27972896BFAC2897299619
:10362000CFAC29972A96DFAC2A972B96EFAC2B9735
:103630002C96FFAC2C970B891C892D893E894F89CC
:10364000588D698D7A8D8B8D0E94F60B27962FAF42
:10365000279728963FAF289729964FAF29972A9604
:103660005FAF2A972B966FAF2B972C967FAF2C9737
:10367000DCCD2091F4043091F504032E000C440BB2
:103680006FEF70E080E00E948926A82FCB01805860
:103690009F4FAF4F892F9A2FAA279093F5048093BD
:1036A000F4042091F6043091F704032E000C440B2F
:1036B0006FEF70E080E00E948926A82FCB01805830
:1036C0009F4FAF4F892F9A2FAA279093F70480938B
:1036D000F6042091F8043091F904032E000C440BF9
:1036E0006FEF70E080E00E948926A82FCB01805800
:1036F0009F4FAF4F892F9A2FAA279093F904809359
:10370000F8046E96BFAD6E97B1506E96BFAF6E97D0
:10371000B11194CB8091FE049091FF0497FF03C0F8
:103720009195819591092091FC043091FD0437FF1A
:1037300003C0319521953109821793070CF4C90113
:103740002091FA043091FB0437FF03C03195219595
:103750003109821793070CF4C9018F3F910511F0CD
:103760000CF004C1809143018F5F809343018091ED
:103770004101909142018830974008F0FAC0809151
:1037800043018E3108F0F5C080910B0590910C0536
:1037900081159C4E0CF4FEC06091F2047091F3040C
:1037A000615F7F4F46E050E0CE01CA960E944426FA
:1037B0008AAD9BAD2091090530910A05821B930BC0
:1037C0000EAD1FAD20910D0530910E05021B130BA0
:1037D000F12C17FF05C0119501951109FF24F394F1
:1037E00097FF05C06894F1F891958195910980172C
:1037F00091073CF46894F2F8302F212F8C01832F2D
:10380000922F8F3F910511F00CF0D8C0FC01EE0F04
:10381000FF1FEE5DF44F25913491D8010E94BF2621
:10382000DC01CB0113E0B695A795979587951A957E
:10383000D1F7382FE4969FAFE497E5961FAEE59752
:10384000E596EEADFFADE597EE0FFF1FE052F54FA9
:1038500085919491E596EEADFFADE597EE0FFF1FD4
:10386000EE51F54F65917491232F2095929FA00101
:10387000829F410D1124511D739F4001639F810C54
:103880001124911C840E951E892F9927880E991E4C
:10389000F2FE06C080E090E4FC01E819F9094F014E
:1038A000F1FE06C080E090E89C0128193909490121
:1038B000F0FE03C091948194910886E0E9E0F5E080
:1038C000DE01D49601900D928A95E1F74CA85DA88F
:1038D0006EA87FA828AC39AC409130054195609125
:1038E00032056195CE0101960E948B0F19A618A68C
:1038F0001BA61AA680E0E82E8CA78CE08DA7A12C31
:10390000B9A4C12CDBA43CE0F32E09811A812B81E0
:103910003C814D815E816F81788589850E94F60B9F
:103920002B8B3C8B4D8B5E8B6F8B788F8B899C891F
:10393000480E591E8D899E89680E791E8F89988D33
:10394000820D931D442D5FA64EA6662D79AA68AA06
:103950009BAB8AAB9401305C50E1E52E04E619E1A3
:103960005FA579A99BA90E941D0F9EC810924301D3
:10397000FECE10924201109241011092430186E066
:10398000EAEFF4E0DF011D928A95E9F781E0809388
:10399000130502CF86E0E0E0F5E0A9E0B5E0019094
:1039A0000D928A95E1F786E0EAEFF4E0DF01282F37
:1039B0001D922A95E9F7E4EFF4E0E4CF0E94270E88
:1039C0009C01D8010E94BF26DC01CB01FBE0B6952B
:1039D000A79597958795FA95D1F72BCF40910B0531
:1039E00050910C05461B570B20910D0530910E058B
:1039F000B901681B790B2091090530910A052A1B32
:103A00003B0B3BA32AA35DA34CA37FA36EA300D0D3
:103A100000D000D0ADB7BEB7119686E0FE01B296D9
:103A200001900D928A95E1F789809A80AB80BC80E5
:103A3000CD80DE80EF80F88409851A852B853C8552
:103A40004D855E856F85788989899A890E946D0B7D
:103A50002AA33BA34CA35DA36EA37FA38EA19FA12A
:103A600040EA5FEF481B590B0F900F900F900F909B
:103A70000F900F90403851050CF4C4C0AAA1BBA10F
:103A80000CA11DA1005E1F4F63967FAD6397872F2A
:103A900090E0FC01EE0FFF1FEE0FFF1FE656FD4FFB
:103AA000B183A083138302839C012F5F3F4FF901F1
:103AB000EE0FFF1FEE0FFF1FE656FD4FBD016058D2
:103AC0007F4F7183608313830283FC01EE0FFF1F1E
:103AD000E60DF71D51834083F901EE0FFF1FE60D40
:103AE000F71D5183408363968FAD63978F5FEF9689
:103AF0008FAFEF978FEF809304029D010E94B7264E
:103B00006B017C019801D8010E94B726C60ED71E12
:103B1000E81EF91E9A01DA010E94B7269B01AC014A
:103B20002C0D3D1D4E1D5F1DF301E85AFD4FA3E016
:103B3000B0E00E944D2640969183808363969FADAE
:103B40006397EE969FAFEE97A92FAE5F6396AFAFE8
:103B50006397B1E0A296BFAFA297E1E06596EFAFA1
:103B60006597A8961FAEA89768961FAE6897809035
:103B7000930590909405E696FFADE697A8962FAD35
:103B8000A897F21346C06401312CA12C82E0B82E14
:103B900063963FAD6397331185C38401065A1D4F69
:103BA000A5E0B2E0CC24C394A401485A5D4F6596C9
:103BB000EFAD6597CE1608F056C4F801619171918A
:103BC0008F01BD90DC2C8D2D90E09C01215031099E
:103BD000F901EE0FFF1FE40FF51FE080F180E616FC
:103BE000F70608F42DC48D2D90E0FC01EE0FFF1FA9
:103BF000E40FF51F718360838C5F9D4FFC01B082E1
:103C0000C394D5CFA2961FAEA29765961FAE6597B7
:103C1000A8CF65963FAD6597353908F0B4CF6F965C
:103C2000EEADFFAD6F97F4916A96FFAF6A976F960E
:103C3000EEADFFAD6F97319624916C962FAF6C97D8
:103C40006F96EEADFFAD6F973296349167963FAFAA
:103C500067976A964FAD6A97842F90E0880F991FF7
:103C6000880D991DDC016D907C90A22FB0E0AA0F09
:103C7000BB1FA80DB91DCD90DC901197E32FF0E08C
:103C8000EE0FFF1FE80DF91DA080B18021E030E8A4
:103C9000631671040CF020E040E8C416D1040CF463
:103CA000226050E8A516B10424F42460273009F4FA
:103CB00000C1845D9E4FAD01445D5E4FDC018D917E
:103CC0009C91DA014D915C91840F951FE45DFE4F4C
:103CD00040815181FC01E40FF51FAD96FFAFEEAFBF
:103CE000AD97422F50E0CA01019782239523892B7B
:103CF00009F443C16396FFAD6397F53908F0D9C065
:103D000068963FAD68973D3B08F0D3C06A965FADBB
:103D10006A9744E0549FC0011124BC0166567D4F50
:103D2000AF967FAF6EAFAF976796AFAD679774E012
:103D3000A79FC0011124FC01E656FD4FA596FFAFD9
:103D4000EEAFA5976C963FAD6C97F4E03F9FC00136
:103D50001124AC0146565D4FA7965FAF4EAFA797B3
:103D6000AF96AEADBFADAF976D917D918D919C91AA
:103D700020FDB1C0FA012080318042805380730160
:103D80008B019C01A601C201B1010E94B50E1B016D
:103D90002C01AF96AEADBFADAF970D911D912D919A
:103DA0003C91A596EEADFFADA597608171818281B2
:103DB0009381A5010E94B50E63964FAD6397242FA2
:103DC00030E0F901EE0FFF1FEE0FFF1FE656FD4F2B
:103DD0002082318242825382220F331FF401E20F8C
:103DE000F31FA0E8B0E0B183A083242F2F5FE22F60
:103DF000F0E0DF01AA0FBB1FAA0FBB1FA656BD4FE5
:103E00006D937D938D939C931397EE0FFF1FE80D99
:103E1000F91D40E850E05183408363963FAD6397BE
:103E20003E5F68965FAD6897A52FB0E065966FAD71
:103E30006597862F90E0FC01EC5FFD4FAD01559535
:103E40004795559547954A56408378EA871A7DEFFE
:103E5000970A880F991F880D991DAD964EAD5FADDD
:103E6000AD97FC01518340836F5F65966FAF659797
:103E7000AC5BBE4F6A965FAD6A975C9311962C93CC
:103E8000119763966FAD639712966C9312976F9626
:103E9000EEADFFAD6F973396E4911396EC93689671
:103EA0007FAD68977C5F68967FAF689763963FAFFA
:103EB0006397A896FFADA897FF5FA896FFAFA89756
:103EC0006F962EAD3FAD6F972C5F3F4F6F963FAF14
:103ED0002EAF6F974CCE21FD28C0A796AEADBFADDB
:103EE000A7970D911D912D913C917601A3010E9400
:103EF000B50E1B012C01A796EEADFFADA797008173
:103F0000118122813381A596AEADBFADA5976D918C
:103F10007D918D919C91A5010E94B50E6C96BFADCF
:103F20006C976A96BFAF6A9747CFA596EEADFFAD87
:103F3000A59700811181228133817501A3010E941F
:103F4000B50E1B012C01A596AEADBFADA5970D9189
:103F50001D912D913C91A796EEADFFADA797608185
:103F6000718182819381A6010E94B50E6796FFAD93
:103F700067976A96FFAF6A971FCF222309F472C131
:103F800063968FAD6397853908F093CF68969FADA0
:103F90006897993B08F08DCF6A96BFAD6A97A4E009
:103FA000BA9FC0011124FC01E656FD4FA596FFAF54
:103FB000EEAFA59767963FAD6797F4E03F9FC001CE
:103FC0001124AC0146565D4FAF965FAF4EAFAF9731
:103FD0006C966FAD6C9754E0659FC0011124DC01B5
:103FE000A656BD4FA796BFAFAEAFA79720FFCEC0D6
:103FF0000D911D912D913C91A596EEADFFADA5972C
:1040000060817181828193817601A3010E94B50E46
:104010001B012C01AF96AEADBFADAF970D911D91B9
:104020002D913C91A596EEADFFADA5976081718174
:10403000828193817501A3010E94B50E6396FFAD45
:1040400063972F2F30E0F901EE0FFF1FEE0FFF1FD8
:10405000E656FD4F2082318242825382220F331F67
:10406000F401E20FF31F20E830E0318320836396F0
:104070002FAD63972F5FE22FF0E0DF01AA0FBB1F88
:10408000AA0FBB1FA656BD4F6D937D938D939C9336
:104090001397EE0FFF1FE80DF91D40E850E0518324
:1040A000408363963FAD63973E5F68965FAD6897C8
:1040B000A52FB0E0BD0175956795759567956596D7
:1040C000EFAD65978E2F90E0FC01EC5FFD4F46E968
:1040D000460F4083A401485A5D4F880F991FFA018B
:1040E000E80FF91FAD968EAD9FADAD97918380839C
:1040F00065968FAD65978F5F90E0FC01EC5FFD4F9B
:1041000069566083880F991F480F591FAD966EAD91
:104110007FADAD97FA017183608365967FAD65973A
:104120007E5F65967FAF65976F96EEADFFAD6F973B
:104130003396E491AC5BBE4F63968FAD63978C93DF
:104140006C969FAD6C9711969C9311976796FFADF7
:1041500067971296FC9312971396EC936896AFADFF
:104160006897AC5FB0E0AC5BBE4F8C931196FC934C
:10417000119712962C9312971396EC9368962FAD85
:104180006897285F68962FAF689790CEAF96AEADD0
:10419000BFADAF976D917D918D919C9121FF33C003
:1041A000A796EEADFFADA797208031804280538067
:1041B00075018B019C01A601C201B1010E94B50EDF
:1041C0001B012C01A596AEADBFADA5970D911D911C
:1041D0002D913C91A796EEADFFADA79760817181BF
:1041E000828193817301A6010E94B50E6796FFAD8F
:1041F00067976C96FFAF6C976A962FAD6A97679634
:104200002FAF67971BCFA596AEADBFADA5970D910C
:104210001D912D913C917301A5010E94B50E1B01CA
:104220002C01A796EEADFFADA797008111812281E9
:104230003381AF96AEADBFADAF976D917D918D914E
:104240009C917601A5010E94B50E6C96BFAD6C974E
:104250006796BFAF67976A96EFAD6A976C96EFAFB8
:104260006C97ECCE65963FAD6597832F90E0FC018F
:10427000EC5FFD4FA8964FADA897408358EA851A8A
:104280005DEF950A880F991F880D991DAD96EEADCB
:10429000FFADAD97DC01ED93FC933F5F65963FAFBB
:1042A000659707CEA196AEADBFADA1974D905C903E
:1042B00011971296ED90FC90F601819191916F010A
:1042C00080389105DCF18F3F910509F00CF465C051
:1042D0000E94270E9C01D2010E94BF262B013C01A7
:1042E000D7010E94BF26411451046104F2EE7F06FB
:1042F000E4F1411424EC52062FEF62062DE1720620
:10430000D4F561157105810532EE9307E4F161156D
:1043100044EC74074FEF84074DE19407CCF55EE061
:1043200076946794579447945A95D1F7EEE0969512
:10433000879577956795EA95D1F77B0182011C5F98
:10434000A196AEADBFADA19711961C930E93C5017A
:104350008E199F0913969C938E93129733941496FB
:10436000A196BFAFAEAFA19713CC412C512C612CBD
:10437000A2EE7A2EC6CF412CF4EC5F2E66246A940E
:10438000FDE17F2EBECF60E070E080E092EEC7CF0F
:1043900060E074EC8FEF9DE1C2CFFC01EE0FFF1FD8
:1043A000EE5DF44F459154919A01D2010E94BF26CF
:1043B0002B013C01D7010E94BF264114510452EE4B
:1043C00065065FEF75061CF1A4EC4A16AFEF5A06BE
:1043D000ADE16A06710414F561157105B2EE8B0743
:1043E000BFEF9B071CF1643CEFEF7E07EDE18E070A
:1043F00091050CF5F6E0669457944794FA95D9F731
:1044000026E08695779567952A95D9F796CF412C22
:10441000512C32EE632E77247A94DECF24EC422E98
:1044200055245A942DE1622E712CD6CF60E070E0B5
:1044300082EE9FEFDFCF64EC7FEF8DE190E0DACF8B
:10444000FC01EE0FFF1FE40FF51FF182E0822C5FED
:104450003D4FF90120818C5F9D4FFC012083DA9450
:10446000D110B1CBC0CBEE96FFADEE978F2F90E081
:10447000A2962FADA297222389F0FC01EE0FFF1F19
:10448000E80DF91D31E0A2963FAFA297208131815E
:10449000203831051CF4A2961FAEA297E9E9F5E099
:1044A00029E939E011922E173F07E1F7880F991F8C
:1044B000880F991FAC0146565D4F6D965FAF4EAFAA
:1044C0006D9764E072E0AD967FAF6EAFAD976E967C
:1044D0001FAE6E976B961FAE1EAE6B97EF96AFAD8D
:1044E000EF9774E0A79FC0011124FC01E656FD4F31
:1044F000E796FFAFEEAFE7976596FFAD65976E96CF
:104500002FAD6E97F21709F47EC2AD96AEADBFAD7A
:10451000AD972D91AD96BFAFAEAFAD97B4E02B9FE9
:10452000C0011124263908F084C1AB96EEADFFAD71
:10453000AB97E80FF91FA491FC013196AB962EAD15
:104540003FADAB97E20FF31F3491FC013296AB966F
:104550004EAD5FADAB97E40FF51F2491FC01339690
:10456000E40FF51FF490F4E0AF9FD0011124A6569C
:10457000BD4F2D903C90119712964D905C9044E069
:10458000349FF0011124E656FD4F80809180A28077
:10459000B38054E0259FF0011124E656FD4F62815F
:1045A000738164967FAF6EAF64973A2D2B2DA41460
:1045B000B50414F4342D252D832F922F6496AEADBF
:1045C000BFAD64978A179B070CF4CD0197FDDAC144
:1045D0003A2D2B2D4A145B0414F4342D252D832FF2
:1045E000922F64962EAD3FAD6497281739070CF4CF
:1045F000C901813094400CF0C5C160807180821483
:1046000093040CF032C3621473040CF59A2D8B2DB5
:104610005201492E582E982D892D4101292E382ED0
:104620009A2D8B2D621473040CF4C3C1520164964D
:104630004EAC5FAC649763969FAF639764968FAF01
:104640006497982D892D41011301692E782E77FCEE
:1046500099C1811448E094060CF094C18614970423
:1046600009F490C164960EAD1FAD64979501A30146
:10467000B101C4010E94680E67968FAF6797689674
:104680009FAF6897EF2DF0E0EE0FFF1FEE5DF24F4A
:1046900065917491A5967FAF6EAFA59797FE97C170
:1046A00082019501A10170E060E0C4010E94680EE2
:1046B0007C0167960FAD679768961FAD6897950167
:1046C000A10170E060E0C4010E94680EA0968FAF67
:1046D000A097A8969FAFA8975701912C812C71E0C5
:1046E000271678E037060CF479C182019501A10103
:1046F00060E078E0C4010E94680EA6968FAFA6978E
:10470000AE969FAFAE9767960FAD679768961FAD51
:104710006897A0962FADA097A8963FADA897A10146
:1047200060E078E0C4010E94680E20E038E0821664
:104730009306ACF4A596CEACDFACA5977C01A6960B
:104740000FADA697AE961FADAE97A0964FADA097B2
:10475000A8965FADA897B501C4010E94100D37FE61
:1047600024C064960EAD1FAD64979201A30170E062
:1047700060E0C1010E94680E2C0164960EAD1FAD71
:10478000649767962FAD679768963FAD6897A301CA
:1047900070E060E0C1010E94680E67968FAF679776
:1047A00068969FAF6897312C212C81E0681688E0CD
:1047B00078060CF421C164960EAD1FAD649792018A
:1047C000A30160E078E0C1010E94680E7C0164965C
:1047D0000EAD1FAD649767962FAD679768963FAD96
:1047E0006897A30160E078E0C1010E94680E6396BB
:1047F000EFAE63976496FFAE6497612C38E0732E3A
:10480000261437040CF0BEC0A596CEACDFACA5973D
:104810007C0164960EAD1FAD6497930167964FAD12
:10482000679768965FAD6897B201C1010E94100D4D
:10483000A9C02F3F09F0AEC0A2965FADA297552345
:1048400009F4A0C06D96AEADBFAD6D978D919C91F2
:104850001197E796EEADFFADE79720813181A90171
:10486000481B590B6B965FAF4EAF6B9712960D912D
:104870001C919A01319521953109821793070CF407
:1048800081C0021713070CF47DC09A01385F281706
:10489000390708F477C02017310708F473C00E9465
:1048A000070D63968FAF6397C8010E94070D6C01D7
:1048B0006B960EAD1FAD6B9754E0169507955A9504
:1048C000E1F758EF50035001519FB00C112468E0FC
:1048D000A60EB11CC801880F991F880F991F75E09B
:1048E000472E512C481A590AECE02E2E312CF12C6F
:1048F000E12C2FEF3FEF3601600E711EA301460140
:10490000801A910AB40163968FAD63978E0D0E9451
:10491000940C2FEF3FEFA301B40163968FAD639723
:104920008E190E94940C2FEF3FEF37016C0C7D1C09
:10493000A30146018E189F08B40163968FAD63975B
:10494000800F0E94940C2FEF3FEFA301B4016396F8
:104950008FAD6397801B0E94940C57FC07C04A0CD4
:104960005B1C78E0A70EB11C01501109420C531CCE
:1049700088E0280E311C9FEFE91AF90A0E151F0571
:104980000CF0B7CF6E969FAD6E979F5F6E969FAF00
:104990006E97B2CD8C5B9E4FFC01E855F240A08132
:1049A000319630813196208185559240FC01F0800E
:1049B000DACD6496AEACBFAC649763969FAF639755
:1049C00064968FAF6497982D892D43013ECEA096B3
:1049D000AFAEA097A896BFAEA89781CE67968FADD1
:1049E000679768969FAD6897A6964FAEA697AE96C6
:1049F0005FAEAE9791019BCE63968FAD6397649641
:104A00009FAD6497FDCEA296AFADA297AA2309F4FD
:104A1000A1C06B968EAC9FAC6B97B8E08B0E911CCF
:104A20006D96EEADFFAD6D97808191812227332782
:104A300028193909821793070CF48CC0028113815D
:104A4000021713070CF486C06B962EAD3FAD6B9723
:104A5000285F374F2817390708F47CC02017310723
:104A600008F478C00E94070D382EC8010E94070D77
:104A70002C0184E0969487948A95E1F728EFA401AD
:104A800024035001259FB00C112458E0A50EB11C41
:104A9000C401880F991F880F991F25E030E0690134
:104AA000C81AD90A6CE070E064967FAF6EAF649765
:104AB000712C612C820108191909B801232C260CCC
:104AC000822D0E94760C7201E80CF91CB701822D30
:104AD0000E94760CB801132D1619812F0E94760CB6
:104AE000B701812F0E94760C820106191709B801BF
:104AF000232C280C822D0E94760C7301E40CF51CEB
:104B0000B701822D0E94760CB801132D1819812F40
:104B10000E94760CB701812F0E94760CD7FC08C04A
:104B2000CA0CDB1C78E0A70EB11C81E0881A910842
:104B30006496AEADBFAD6497CA0EDB1E1896649640
:104B4000BFAFAEAF6497BFEF6B1A7B0A86149704B2
:104B50000CF0B0CF80911305813009F04AC019E103
:104B6000612F8EE20E94F20C612F84E30E94F20C0E
:104B7000A12FA695A695A695E0E8AE9FD001112499
:104B8000A853BA4F8FE2E12FE770F0E0BF01645DF8
:104B9000724FFB0194914D919D0121503109942355
:104BA000F90190838F5F8433A1F71F5F1B33C1F638
:104BB0001FE268E1812F0E94F20C6BE3812F0E94BB
:104BC000F20C1F5F1433A9F719E300E0809106058A
:104BD000081778F4612F80E30E94F20C612F81E3C3
:104BE0000E94F20C612F82E30E94F20C0C5F1150C4
:104BF000EDCF10921805109217051092160510921D
:104C00001505E9968EAD9FADE99764E670E00E94C8
:104C1000A3268C01605D85E995E00E94A809C80182
:104C20006AE070E00E94A326182F605D85E995E098
:104C30000E94A80960E3610F85E995E00E94A80938
:104C4000E9E9F5E081E0A0E0B8E000800EBC811168
:104C5000012C1197A0FDFDCF0192B9F70DB4EB9691
:104C60008EAD9FADEB970C94A414681479040CF4EA
:104C7000D7CC9A2D8B2D5201492E582E982D892D47
:104C80004101292E382EE3CCFB01DC0102C0059046
:104C90000D9241505040D8F708950E947A26A59F62
:104CA000900DB49F900DA49F800D911D1124089527
:104CB000A1E21A2EAA1BBB1BFD010DC0AA1FBB1F20
:104CC000EE1FFF1FA217B307E407F50720F0A21B92
:104CD000B30BE40BF50B661F771F881F991F1A94FF
:104CE00069F760957095809590959B01AC01BD0129
:104CF000CF010895A29FB001B39FC001A39F700D83
:104D0000811D1124911DB29F700D811D1124911DD3
:104D10000895DB01582F0E947A26529F800DA49F90
:104D2000800D11240895DB018F939F930E944D26DF
:104D3000BF91AF91A29F800D911DA39F900DB29F37
:104D4000900D11240895AA1BBB1B51E107C0AA1F97
:104D5000BB1FA617B70710F0A61BB70B881F991F1C
:104D60005A95A9F780959095BC01CD0108950E94B0
:104D70007A26332312F48A1B9B0B0C94C1260E94C3
:104D80007A26B7FF0895821B930B0895EE0FFF1F3D
:0C4D90000590F491E02D0994F894FFCFF9
:104D9C00FFFFFFFF00E100000000000093FB58073D
:104DAC00780100C18081000000000000004A071B50
:104DBC00096B076007B1076F078D0700000000A89B
:084DCC00099008880F870F0011
:00000001FF
