:100000000C9448130C9470130C9470130C9470138C
:100010000C9470130C9470130C9470130C94701354
:100020000C9470130C9470130C94B2300C94213116
:100030000C9470130C9470130C9470130C94701334
:100040000C9470130C9470130C9470130C94701324
:100050000C9470130C9470130C9470130C94B433B0
:100060000C9470130C9470130C9470130C94701304
:100070000C9470130C9470130C9470130C947013F4
:100080000C9453330C9470130C9470130C947013E1
:100090000C9470130C9470130C9470130C947013D4
:1000A0000C9470130C9470130C947013400058004F
:1000B000001A00004000C040002000005800401A14
:1000C00000000000180028F600FA000010001800D8
:1000D00000F60000E00040F8004000004000F0C0E2
:1000E000000C0000A00040D800C00000A000402884
:1000F00000C000004000304000DC0000441000BCA4
:1001000004BC20004410004404BCE000441000BCC7
:100110000444E000441000440444200020001E0079
:1001200004D600E850001ED6040040E8401000004D
:10013000045000004010004004F000000010405047
:10014000040000002C3A352C393A2932272230207D
:1001500013280E182E1735342B3637252933322223
:100160003130132D28182F2E353A34363837121BDC
:10017000141D1E1F121A1B1D191E0900070F0A0D40
:100180000C110B0E0F131417151C18192522211D05
:10019000201C241023262736102C112A352B292623
:1001A0002B13121505040C0C01080100090B0203A6
:1001B0000B030608050C090801000B060006070FD3
:1001C0000E0A0C1011141617171618161918191DE7
:1001D0001C2021222124252423251D212024011037
:1001E000362523232636102A2C2A2C352726292685
:1001F0002A2B0F1213121415F000F0F00010040057
:10020000FE0200FC040002020004FE00FCFC00FEF2
:10021000FE0004FC00025000E80400F0040010306E
:1002200000E85000C83000D01000101000F00800A6
:10023000D03800B0F800D00000B0D000D0C800B076
:10024000B000C8D000EC0808DCF808DCB00000D032
:100250000014DC08ECDC0814B00038D00030C80012
:1002600050100030F00030F00050300030380050B6
:100270005008C85000383000105000103000F038DE
:1002800008B0C808B0B008C8B00838C80850380866
:10029000505008385008105000F0100050F008502E
:1002A0001008503008F05008F0500078EC00320090
:1002B00000A00050280028000078005032F4EC0024
:1002C000005000A0140CD800005000A0EC00D80092
:1002D00000100050C40CC40000100020BC0CD00062
:1002E00000100020BC0CB80000100050B40CC4007A
:1002F00000001050B010C40000501000EC04B0001A
:10030000000010500010EC0000721000EC042820D7
:10031000007210003C042820007210003CF8ECE051
:1003200000721000EC04ECE0007210001410C4E045
:100330000050002F3CFA0A00EA50002F14060A0071
:100340001650002F0AFAEC4016500029D006C4407F
:100350001A0114001830201F2913011514182C300D
:100360001F2F291A2B17222E1C0D2A16252812277B
:1003700031211A2D2B22322E0D1D2A253328273408
:10038000310F1310161E19191C1A2326240F1213CD
:1003900016181E191B1C2325260709010C100B110A
:1003A0000A0D110D1616171117191A121F131B24F7
:1003B0002218211E1C1B2226251221202705040C91
:1003C000000B060B02030B0306050C080C010800CA
:1003D00006070908010007010C0F10110E0A161973
:1003E0001712261F1B2324182021B00CB0B00CD8E4
:1003F000C00CC2BE0CC0C00CC6BE0CC8BA0CC0B883
:100400000CC2BA0CC8B80CC6D80050C00CB0C00C96
:10041000D8D8003C000050C80CD8C80CB000003C34
:10042000D800D8D800B0B014B0B014D80000142848
:10043000003C000C0028001450001428F40050F474
:1004400000D8083C280C000000B0000CD8280CD8BC
:1004500028F4D814F40014F4D80000000000D800E8
:100460000CB0D808D8D808B000081428083C0014EC
:100470000050081450FC000008B00014D82814D80C
:1004800028FCD80008000014B050002800084600DE
:1004900000A00050D808280000A00050280828001C
:1004A00000500050C4F8D800005000503CF8D8006C
:1004B00000180050F600D800001800500A00D800BC
:1004C000001000200000CC00001000200000E4001C
:1004D00000500058C4000000F15000583C000000DB
:1004E000F1500032E4FCD840F35000321CFCD840FC
:1004F0000D4010000004C40000721000C4FCD8209D
:10050000007210003CFCD8E000721000C40C28E01F
:10051000007210003C0C2820001521201F24161703
:1005200023131822111C271B1500211F292417250E
:10053000231826221C282700101112131510161834
:10054000141B17000110121413101916141A1B098A
:1005500000070D0F0E0C150B1314171110181B1A92
:100560001C16191F1A1D1C191D1F05040C0C01084F
:100570000100090B02030B030608050C0908010022
:100580000B060006070D0A0F0C12151A1E1D191E68
:100590001DF000C4F000EC0400D60200D40400DA20
:1005A0000200DCFE00D4FC00D6FE00DCFC00DA1405
:1005B00008500400C40400EC14083CEC083CEC08AF
:1005C00050D8F8ECD8F8C41000EC28F8C428F8EC9F
:1005D0001000C4B0081450F8ECB0F8ECD808142897
:1005E000081450081428083C00083C000814D808D7
:1005F0003C1008C4F008C4D800C42800C4B01014CB
:100600005000ECB000EC50101428103CD8103CA066
:1006100000F800000A0000480010EA00C800004886
:1006200000101600C80000A000180000BE0000A0C6
:1006300010000004B80000001048D804CA000000F0
:1006400010482804CA000020100000040000002008
:100650001000E004F000002010002004F000002052
:1006600010000004E000002D1000E0041020002D18
:100670001000200410E000300013000220001312CC
:10068000241E1823252729282B2D2C122224181547
:10069000232726292B2A2D002212012315012000B1
:1006A000323530312F333736383B3A3C0020220187
:1006B0002123012120322E3531342F3739363B3D6D
:1006C0003A131C1413111C0900070A101F0C0E0BFF
:1006D000001E0E01180D1F161A19171B1B1E0F10D6
:1006E0000F161D1B1005040C0C01080100090B025C
:1006F000030B030608050C090801000B060006079A
:100700000A1D100C0D0E00121E0115181F101619CF
:1007100018171B171E101B0F1D191B1000B8F00017
:10072000B80200CC0400CAFE00CCFC00CA0400C61B
:100730000200C4FC00C6FE00C4D800481000CCF083
:1007400000CCF000DC1000DC2800000000240C00CD
:10075000242800B8F40024F4041CD800B82800248D
:100760000000DCD800DCD800002800480000000CA5
:10077000041CD800242800DC0000481008B8F00849
:10078000B82808B8D808B82808DCD808DCE8000879
:10079000D80018D80818E808082800181800081801
:1007A00008082808180800000808E0F80800F80001
:1007B000E0F80000F808E00800E0080800E808F0A9
:1007C000D800F0D808F0E800F02808F01800F01879
:1007D00008F02800F05000503CFC140000300030BD
:1007E00000EC1C0000A00050280CC4000050005079
:1007F000C4FCC40000500050C4EC140000200010E1
:10080000B8EC2C0000200010D0EC2C000050001898
:10081000C4EC3600005000583C04EC001050005866
:10082000EC04C440F1500058C4F4EC000F00105028
:10083000B0F0140000001050D8F014000050100068
:10084000C4F03C0000721000C400C420007210000C
:100850003C10C4E0000010201410C4000020100060
:10086000C4F01000005010001410D8000050100008
:100870001410B000000110002427251E312122325F
:10088000200111102426271E3031222E3216180B7B
:100890000C1B17282B29232E221F2C1C1619180C71
:1008A0001A1B282A2B232F2E1F2D2C171C161D2018
:1008B0001F0E230D171D1C1D1E200E2123090007CE
:1008C0000E0A0F1412150C160B1C1D1F1E222022BF
:1008D000212305040C0C01080100090B02030B0382
:1008E0000608050C090801000B060006070E0D0A94
:1008F0001413120C17161E2122B0EC3CD8EC3CC28B
:10090000EC28C0EC2AC6EC28C8EC2AC0EC2EC2ECBD
:1009100030C8EC2EC6EC3050FC28B0EC28D8EC28BF
:1009200050FC0028FC0028FC28B0F43CD8F43C0C17
:10093000EC280CEC10F4EC10F4EC28B0EC00D8EC43
:1009400000B0F428B0F400D8F428D8F400B0FCD8F3
:10095000D8FCD8000CD8D8FCB0000CB0280CD82893
:100960000CB0500CD8BCEC10CCEC10BCF410CCF497
:1009700010140CBC140CCC1414BC1414CCB004D83B
:10098000D804B02814B05014D80014D82814D800B3
:1009900014B05000A000002800003800AD1400EC96
:1009A000E000A000500000C40000100020D400D0DF
:1009B0000000100020D400B80000180050CA00C485
:1009C0000000001050C404C40000501000D804B04F
:1009D00000007210000004EC20007210002804ECEB
:1009E00020007210002804C4E000721000D81CFC23
:1009F000E000721000001CFCE000A00050EC18FCAD
:100A0000000050222200002C002050002000181866
:100A100000000010200004C4000013161420102150
:100A20001E241F17271C1D281A1315162000101E20
:100A300023241726271D2928011000130E150D1435
:100A4000161B19181F25122C2F2D0111101B2219EE
:100A50001F24252C2E2F0D150E0D16150900070D20
:100A60000F0E12131D1C1B17121D1A171B18121A1A
:100A70001F1A1E201F1A1E1B2B2A05040C0C01080E
:100A80000100090B02030B030608050C090801000D
:100A90000B060006070D0A0F121413200B0C0C1A7C
:100AA000201B1C2BC400B0C400D8D800C2D600C084
:100AB000D800C6D600C8D200C0D000C2D200C8D06C
:100AC00000C6140050D800B0D800D8140038EC008C
:100AD00038EC0050C408B0C408D8140000EC002062
:100AE000140020EC0C2C140C2CEC18E8C418E8C4EE
:100AF00020E81400D8EC1810141810EC00001400B2
:100B0000B03C00D8EC00B0EC08B0EC20101408B0F9
:100B10003C08D8140800EC20E81420101408D8EC85
:100B20000800EC18201418200000CC0000BC0008BD
:100B3000CC0008BC50005000143C0000A00050D86D
:100B400000000000A0005028000000005000783C89
:100B500000320000500078C400320000280050E24B
:100B600000D800002800501E00D8000050002800C7
:100B700000CE00005000180000B60000200010F465
:100B800000C000002000100C00C000005010000049
:100B900004B000003A1000E204CE20003A10001E1B
:100BA00004CEE000731000C4040020007310003C69
:100BB0000400E000731000C4043CE0007310003C2B
:100BC000043C200050003A000A1E00E150003AE2C6
:100BD0000A3C40E150003A1E0A3C401F5010000001
:100BE00004EC000017151211201422231F1D3521BB
:100BF0000B322D2F2B0C1725151116202236231DF5
:100C000024350B30322F312B1B261A0133001B27C2
:100C1000260134330F100E0D120A0E180D0F11108D
:100C20000D13120E19180900070E0A0F141C1121BA
:100C30001F1D1B28291A2D220C2E2C1B2F0C171EB2
:100C40001F05040C0C01080100090B02030B03062D
:100C500008050C090801000B060006070E0D0A1412
:100C60001D1C21221F1B1A281A0B2D0C0B2E1B21B9
:100C70002F17121E1400B0EC00B00200C40400C212
:100C8000FE00C4FC00C20400BE0200BCFC00BEFEAC
:100C900000BC1414501400C4EC00C4141428EC1448
:100CA00028EC1450D80028D80050280050280028DC
:100CB000B00028280850D80850500028140014EC20
:100CC00000141400ECEC00ECD80014B00014280060
:100CD00014500014B00828D800EC2800EC50081478
:100CE000B008145008281408ECEC08EC1400ECECE4
:100CF00000ECD800ECEC08C4EC00D82800D81400B4
:100D0000D8D800D81408C4D808D82808D81408B0EF
:100D1000EC08B0D808EC2808EC5000A8ECF00E0065
:100D2000002800600AF0FC0000780050F60CF80083
:100D300000500028EC0CDA0000200010E00CCC0081
:100D400000200010F80CCC0000500018EC0CC20081
:100D500000501000EC10BC000060001318F1FC40C3
:100D6000F66000181FF5FC40E460001525FCFC400F
:100D7000D30016602705FC0000721000ECF4F82088
:100D800000721000EC10F8E000600015250DFC402A
:100D90002D40002204F01820001119150F160E0125
:100DA0001A002026211E241F1118190F1716011BC7
:100DB0001A2025261E23242127221F25201D231E1D
:100DC0002126271F24251D1C230900070F0E0D0EA9
:100DD0001D0D1011151013110D140F100C0B280DF3
:100DE0001D05040C0C01080100090B02030B03068E
:100DF00008050C090801000B060006070E1C1D1053
:100E000012130D0A1410150C000CBCD80CBCEE0CFF
:100E1000D0F00CCEEA0CD0E80CCEF00CCAEE0CC828
:100E2000E80CCAEA0CC800F038000CD0D80CD0008E
:100E3000F01400F0E4D8F00C000CE4000C0C140CDE
:100E4000E4140C0CD8F038D80CE400F8E4D8F80C12
:100E500000140CD814E40014BCD814BC14F0E4142E
:100E6000F0141CF21423F81427001427091423117A
:100E7000141CF2E423F8E42700E42709E42311E436
:100E800000F028500050C4003C0000A00050D810D2
:100E9000EC00005000503C00EC00005000503C10B2
:100EA0003C0000180050F2003C0000100020FC0044
:100EB000300000100020FC00480000721000C41434
:100EC000EC20007210003C04ECE0007210003C14B6
:100ED0003C2000281000F604500000281000F60402
:100EE000280000001050EC043C0000500058C408DA
:100EF0001400105000581408EC400F5000583C08E3
:100F000014801050005814083CC00F01100001114B
:100F100010000B1D1E11011B241C18221913201474
:100F200000100B1E1F111B2324182122130C200D4F
:100F30001312161715191A171C1D1A0D0E13161851
:100F400017191B1A1C1E1D0900070E0A0F12131475
:100F50001415121718191A1B1C05041E1E0108016E
:100F600000091D02031D030608051E090801001DD6
:100F7000060006070E0D0A141615EC0028EC0050AA
:100F800000003AFE003800003EFE0040FA0038F84B
:100F9000003AFA0040F8003ED80050000828B01887
:100FA00000D80028B00028B00050EC0828EC085009
:100FB000D81000B01000D810D80010000010D828A9
:100FC00000002800D85000002810285010282810B1
:100FD00050000028000050000850D818D82808D821
:100FE000500800501828281850A000400000380071
:100FF00000A000180000D20000480010EA00C8005D
:10100000004800101600C80000A000180000BE0034
:1010100000A010000004B80000001040D804C80070
:10102000000010402804C800001000A000F80000D4
:1010300000A000250CFA0040F6A00025F4FA0040BC
:101040000AA0001518FE0040EDA00015E8FE0040C3
:1010500013A0001820040040E0A00018E0040040A5
:101060002013341214333513323414253300321361
:101070000133250130000030320131330131301DA0
:101080001B1E231622211F24181A171A2717212D79
:1010900020162F221D2B1C1D1C1B23151621201F63
:1010A00018191A1A2A27212E2D16282F1D2C2B0924
:1010B00000070B110A0D0F0C00120F01140E201E59
:1010C0001F1517162321240A2629172816222E2138
:1010D000202C1D05040D0D01080100090C02030C54
:1010E000030608050D090801000C060006070B1091
:1010F000110D0E0F001312012514201D1E151817B7
:101100002322210A1126172728222F2E202D2C10CA
:1011100000B8F000B80200CC0400CAFE00CCFC000D
:10112000CA0400C60200C4FC00C6FE00C400004899
:10113000D800481000CCF000CCF000D81000D8D86F
:1011400000280000282800D82800B8D800D8ECFCD7
:1011500028ECFC00E40000E40028DC0828DC08009F
:101160002408282408001C00001C002814FC281453
:10117000FC0004F800FCF800FCF82804F828D8006B
:10118000B8280028E400D8ECFCD8280048DC08D8AF
:101190002408D81C00D814FCD804F8D8FCF8D810BF
:1011A00008B8F008B82808B8D808B82808D8D80867
:1011B000D8A000802800E00000A00080D800E00057
:1011C000004000804000200000400058C000160091
:1011D00000400018C0003A0000180010B6003000AF
:1011E00000180010CA00300000402000C008400075
:1011F00000002040B008300000001820E806F80089
:10120000000018200006E800000018201806D8008A
:10121000005B10004004D0E0005B1000C004D02050
:1012200000400046200430400A400033DC023040D9
:10123000F91600012428221D1E1A1614002429283C
:101240001D271E00151120312B2A301C2C332D0098
:101250001415202F312A2E302C32330B0E1201356B
:10126000100B0F0E0134350900070B130A0D110C7A
:10127000121813171A18261B1C191F1D1A191D1FC7
:1012800021221C202122212425232410231105049E
:101290000D0D01080100090C02030C030608050DE1
:1012A000090801000C060006070B12130D1011129D
:1012B000171817191A1C1926191726191C1F1F1C75
:1012C000211C1B20242125212025102523B000408E
:1012D000D00040BE002CBC002EC2002CC4002EBC8E
:1012E0000032BE0034C40032C2003450004030002E
:1012F00040B0002CD0002C100820100840D0002056
:10130000B00020300020500020B01040B01020D09D
:1013100010403000005000002800E05000E00000C5
:10132000000000E03000C05008E00000C0E800000D
:10133000D800E0D000C0B00000B000E0D00000183D
:1013400000003008C0D008C0B008E00000F0E8009D
:10135000F01800E01800D0000CF0E80C00000CE0E1
:10136000E80CF0180CE0180CD0E80440E804204029
:10137000004AD0ECF00013800040E0F4D0000040C0
:1013800000803004E0000080004020143000002085
:101390000040F014300000100018FC14260000106B
:1013A0000018FC143A0000400080D0E42000004007
:1013B000004A10FCD0C01340004A300C1080135B70
:1013C0001000D0F8D020005B10003008D0E0005BA7
:1013D00010003018302000401000F0F8C00000006D
:1013E00010404008F00000401000101840000000BD
:1013F0001040E8183000001516041A1B1924252384
:101400001512161A1E1B2427251412151D1E1A2824
:101410002724030102140F121D1F1E282927030071
:10142000011710111319141C231D17041013181978
:101430001C22230C020A110D0E171504171415197E
:10144000181A181D1A2322242228240D200E0807FA
:101450002828030B03020C2605062606090B08287C
:101460000C0B0302260902090A11100D1713141898
:101470001C1D2226280D2120E81C40E81C20E81411
:1014800020E81440C0F4E000142EFE142C001432A6
:10149000FE1434FA142CF8142EFA1434F81432C052
:1014A000E420E0E42000FCC0C0E400E0E400E0FC54
:1014B000C000F4E000F4C0E0F4C0C0FCE0E0F4E000
:1014C0002004E02004C04004E0200CC020040040C0
:1014D0000400400CE0400C00E0E440C0E440201474
:1014E00020401420201440401C20001420201C40C8
:1014F000001440001C40800040000000000040003C
:1015000080C0001000004000504000FC000040007F
:10151000204000D800001800103600E40000180039
:10152000104A00E40000001050B004040000001055
:10153000505004FC0000A00030D802E70008A000D2
:101540001FD808D60018A0003028021900F8A00003
:101550001F28082A00E812131B1F1E10101D1A1B3B
:1015600016180104292628141217131F1C1E101EFA
:101570001D1B1316010504261928251F101B1827EB
:101580001A262325111F1A2310232510182927276F
:10159000201B2024121B20122701290D020B150EDF
:1015A0000F242111252411152614270001090800F4
:1015B00000030C03020D01060701070A0C09000DC8
:1015C0000C0302010A020A0B15140E242021252205
:1015D000241523263000E85000E85000D03000D019
:1015E0005008105008E84200E84400E63E00E83C9D
:1015F00000E64400E24200E03C00E23E00E0B000D1
:1016000030D00030D804DC0000F0000424280C3076
:10161000B00018D00018500C30000C30500424B02A
:1016200008F0B004DC280424000CD0B00CD0D80C96
:10163000D00004DC2000102000F0E00010D000F00A
:10164000000010E000F0B000F0300010B0081850BA
:101650000010500038D0002E0000500080D000E074
:101660000000300050F000D400003000502800D4BA
:1016700000001000504000D400001000203800C8C6
:1016800000001000203800E000000010504404D496
:1016900000005010003004C000005010003004E87A
:1016A0000000801000DC04C00000001080BC04E0DA
:1016B0000000400058D8001040F04000580C00DCFA
:1016C00000F0020503182021020405181F20202322
:1016D00025100526201F231003051328271C2A295F
:1016E000271612291D1B1317281C1E2A2728162906
:1016F0002A1D0B0D03150E0F0011011F18220908DA
:101700000002010A01060701070A09000C00030C88
:10171000020A0B0D0C03020B0315140E0010111816
:101720001922222423231F223400C03400E844005D
:10173000E84400C04408E84408C03400D63600D865
:101740003400D23600D03A00D83C00D63A00D03C23
:1017500000D2BC003CE4003C1C00C01C00E8C4F803
:1017600020EC0820BC0020E40020C4F800EC0800B5
:10177000BC0000E40000E400C0FCF8C8FC08F01C59
:10178000F8C81C08F0BC00C0BC08C0BC0800E400DD
:10179000E8FC00C0FC00E8FC08C01C08C0D8002021
:1017A000D80000FC00DC1C00DC300070E4003400D9
:1017B000007000300C002400003000B01C00EC0071
:1017C000003000101C00B400001000101400BC0019
:1017D000001000102400BC00003010001C04B000F9
:1017E00000441000E4042420004410001C042420C1
:1017F0000030001D1C0406001830001D1C04F200FF
:10180000E83000101C08FC00003000101C04D4005C
:10181000003000121C02DC00133000121C02CC004D
:10182000ED020503281127241225020405281011B2
:101830002413121A181B1614172220231E1C1F1AF9
:1018400019181615142221201E1D1C0B0D0314003F
:1018500001211F202623242624250F290E2928278D
:101860001D1B1C2725291917180908000106070147
:10187000070A09000C00030C02010A020A0B0D0CF6
:1018800003020B03141500211E1F2622230F2829F3
:101890001D1A1B2726251916171000C02800C0285E
:1018A00000B01000B02808B01008B01E00C0200022
:1018B000BE1A00C01800BE2000BA1E00B81800BA38
:1018C0001A00B8F00050D80050D80830F0081810AE
:1018D00008302808182800C81000C81004D02804B0
:1018E000D02804D81004D81000E02800E02800EC2C
:1018F0001000EC1008F82808F8280800100800105C
:10190000000C28000C280018100030100018F000FF
:1019100018D80030F0003030007034F81000005853
:10192000003012F800000044100034FC00E0001801
:1019300020181200EE0000182018120012000030CB
:101940000024F4FA00400A500030D8FC00000030B7
:101950000020D0FCEC0000300010D0FCD8000010BB
:101960000010C8FCE00000100010D8FCE0000030BF
:101970001000D000D40000441000D00000E0000EA1
:10198000110D1215111618150E1211121615161723
:10199000181A0F3C0708042E312F2B3A0B27252944
:1019A0001F231E0E1E1B1C16171C171D171D130FA1
:1019B000133C3C131D261D271A030F072A082E303F
:1019C000312B3B3A2928272824262728261F212285
:1019D00022231F23201E0E1F1E1C1216263C1D052F
:1019E0000A060C0F0310130F14171305090A0C1025
:1019F0000F101413141817040307021901060E051B
:101A000037392F2B2D2C090B0A040E030207190658
:101A1000030E35342C2D32332D3336352C382C2F04
:101A2000382E2D362E363739382F2E372F2B002DC6
:101A3000092B0BDCFCF428F82C40F82C18F80C28A7
:101A4000F8F4FCF8F4FCF80C40F80C2800F4ECFC7A
:101A5000F4ECFC0CDCFC0C0CF80C0CF8F418F8F4AE
:101A600018040C0C040C0C04F41804F4180C080CE6
:101A70000C080C0CF8180CF81810000C100028F8C2
:101A80000C18F81818F8E81818F418180C181CE8AE
:101A9000181CF41820E41820F81824F81824E41866
:101AA000201C182008181C18181C0C18241C18249A
:101AB0000840000CC4FCF4C4FCE4DCFCE4DCFCD412
:101AC000C4FCD4DC04D4C404D4D2FCE4D4FCE2CE00
:101AD000FCE4CCFCE2D4FCDED2FCDCCCFCDECEFCB4
:101AE000DCDC040CC404F41808183000900C001856
:101AF0000000600030E800000000300030DC00E84A
:101B00000000300010DC00D00000100010D400D81D
:101B10000000100010E400D80000300800DC02CC07
:101B20000000202000F408F40000202000F4080C3D
:101B30000000440800DC0200E0004408000C020041
:101B4000E0002225232724262224252725240407F4
:101B500005121A11011800202321040607121B1A6E
:101B60000119182022231C1F1D1E211F1C1E1F1EB1
:101B700020210F05041102100015131417150B0A6C
:101B80000203080903090C0B020E02050E04030CE4
:101B9000040C0D0F0E05040D0F02031010011301AC
:101BA0000013131210121110001415141617180038
:101BB0000C0000F4D000DCE800DCE800CCD000CC65
:101BC000E804CCD004CCDE00DCE000DADA00DCD8BB
:101BD00000DAE000D6DE00D4D800D6DA00D4E8007F
:101BE000F4D000F4E8000C00000C180024000024DD
:101BF00018003C00003C18040C0004F4D004F4E885
:101C0000040CEC000CFC000CEC100CFC100CEC18A0
:101C100004FC1804EC18FCFC18FCEC10F4FC10F4A8
:101C2000EC00F4FC00F45000480000360000900086
:101C3000B80000F60000200010F400C400002000EE
:101C4000100C00C400005000100000BC0000501038
:101C5000000004B800002D10001C041C20002D10F2
:101C600000E404E420002D10001C04E4E0002D102A
:101C700000E4041CE0000010481404CA0000001036
:101C800048EC043600000010481404360000001030
:101C9000502404000000001050DC0400000022105A
:101CA000220004002000001048EC04CA00000205D5
:101CB00003140E1513111218281E1F241A020405EE
:101CC000140F0E1310111822281F29241410131595
:101CD000111219221816271D1C2117051F031A257A
:101CE0001B1E0402140F10150E1119232216202793
:101CF0001C262105291F1A24251E28041B261C1D0D
:101D000023190E10111B25261D27230E0F100D035E
:101D1000021C1D13001F1E09080002010A0106070C
:101D200001070A09000C00030C020A0B0D0C030248
:101D30000B0D14151F1F1A141A1B141C17161B1C2D
:101D4000141C161D1D191319181213191213141C23
:101D50001F151E15121E12181E1E0100EC00C814BD
:101D600000C81400B8EC00B81408B8EC08B80200B9
:101D7000C80400C6FE00C8FC00C60400C20200C0C1
:101D8000FC00C2FE00C00008F4F4080000080C0CBF
:101D900008000C000000000CF400000000F4140027
:101DA00048EC00482400EC240014DC00ECDC0014B7
:101DB000EC00241400241400DCEC00DC140848ECD3
:101DC00008482408EC240814DC08ECDC0814EC08AF
:101DD000241408241408DCEC08DC000046018B0203
:101DE000CF03110551068D07C608FB092C0B570CB4
:101DF0007D0D9E0EB90FCE10DC11E412E613E01437
:101E0000D515C216AA178A186419381A051BCD1BD6
:101E10008E1C4A1DFF1DB01E5A1F00200103070F14
:101E20001F3F7FFFFFFEFCF8F0E0C080FFFFFFFFD9
:101E3000FF7F5555FF3F3333AA2A9224FF1F711CA1
:101E4000991945175515B11349121111FF0F0F0FAD
:101E5000380E790DCC0C300CA20B210BAA0A3D0ACE
:101E6000D8097B092409D30888084208FF07C1075D
:101E7000870750071C07EB06BC06900666063E0661
:101E80001806F405D105B00590057205550539050C
:101E90001E050505EC04D404BD04A70492047D04CA
:101EA000690456044404320421041004FF03F003BF
:101EB000E003D203C303B503A8039B038E0381038E
:101EC000750369035E03530348033D03330329038A
:101ED0001F0315030C030303FA02F102E802E002F8
:101EE000D802D002C802C002B902B102AA02A302FB
:101EF0009C0295028F02880282027C0276027002A6
:101F00006A0264025E02590253024E02490243020F
:101F10003E023902340230022B02260222021D0246
:101F20001902140210020C0208020402FF01FC0153
:101F3000F801F401F001EC01E901E501E101DE0144
:101F4000DA01D701D401D001CD01CA01C701C30113
:101F5000C001BD01BA01B701B401B201AF01AC01CA
:101F6000A901A601A401A1019E019C01990197016B
:101F7000940192018F018D018A01880186018301FC
:101F800081017F017D017A0178017601740172017E
:101F900070016E016C016A016801660164016201F1
:101FA00060015E015C015A0158015701550153015E
:101FB000510150014E014C014A01490147014601BE
:101FC0004401420141013F013E013C013B01390115
:101FD0003801360135013301320130012F012E0164
:101FE0002C012B01290128012701250124012301AE
:101FF000210120011F011E011C011B011A011901F1
:1020000018011601150114011301120111010F012C
:102010000E010D010C010B010A0109010801070164
:10202000060105010401030102010101000000AAEB
:1020300055AA55FFFFFF00FE02FA2A1202728A72A9
:10204000027A8262827A02FAAA8A02FA2AD3040EF9
:102050001F4000400040005F055A005F15510052CC
:10206000154900411F41005E055E005F055A0041B1
:102070001F4100400040004000FF004E114E00474D
:102080001847005F1551005F055A00471847005177
:102090001F51005F1551004F104E104F004000407F
:1020A000004000FF00400040004000400040004071
:1020B0000040005F054200511F5100411F41004E8A
:1020C0001151005F045F00400040004000FF0040ED
:1020D0004040404040404040404040404040404000
:1020E000404E595F405F505F40515F5140415F41FA
:1020F000404040404040407F000102040810204022
:102100008018183C7E002499423CFEFE121E0C00F2
:102110007EFE80C0C000FCFE12FEFC00CEDE98FEFB
:102120007E000000000000000000FEFE121E0C00F9
:10213000FEFE12FEDC00FCFE12FEFC007CFE82C6EF
:10214000440002FEFE020082FEFE82007CFE82C689
:1021500044007CFE92D6C600000080C0F03C7CF0BB
:10216000800000000080E06080C0E060E00000804F
:10217000C0C06060C0F87F070000E0E00000000021
:10218000C0C00000C0F038180C0606068E8E000095
:1021900080C0E06060E0800080FC7F07C0F0FCCE83
:1021A000C3C34F0630381E0707060602030F1E384A
:1021B00030001F3F1E0301000000001E3F31301899
:1021C0000E1F3F3010001F3F3030180C1E3F200004
:1021D0001F3F3030303818CCFE0F01003E7F616069
:1021E00070381F07007F7F0000787F030000000029
:1021F00000FA22FA02728A7202FA828202FAAA8A29
:102200000202020202020202020202FE00020002B6
:1022100000FA281200F228F200FA28D20002000286
:1022200000020002000200FF0092A84A00FA20FA11
:1022300000728872000AF80A00020002000200021E
:10224000000200FF005C1DAE1C261C2A000A1006BE
:102250001A3A1100008000800F000000FF00F10218
:10226000AE1B421BEA1A280004080414240B0003C6
:102270008000000C00F700FF00F603331A7F1917E7
:10228000193D00061A08143C0D000D80FE000800E0
:10229000F400FE00F80399182118A9172A00000677
:1022A000081A280F00F980000011000700FF00EF56
:1022B000042817C21652162B0004040812220E001E
:1022C000F28000000C000E00FF00F504D415561536
:1022D000F6142A00000C0A142A0C00F080000009F1
:1022E000001000FF00F9047814F7136F132A00069A
:1022F0000806172B1100F480F9000D00FF00040000
:102300000C05CD123112B11136000608042234102A
:1023100000108000000C00F000FF000C040F1161A1
:1023200010E90F3600040610203A0F00008000006C
:102330000F000000FF00F2047A0F0B0F830E250040
:10234000020A0811251100F18000001100FF00FFB2
:10235000000F03080E990D190D2900000A06152516
:102360001000FB80FC800B00FB000200F304740CE7
:10237000E40B340B37000C04061A301600008005FD
:10238000000F000000FF00F004A40A1A0A920930AE
:10239000000A0A02182E1100008000001100F5004A
:1023A000FF00F105F9087508D5073300080A06147F
:1023B0002C14000F80FF000700F100FA000B051B32
:1023C000077F060F063E00080E021C340E00008038
:1023D00000000F000000FF00F204910519058904B8
:1023E0002A00000A081628120000800200110000CE
:1023F00000FF00F605EA035103A9023500060A08AA
:102400001B331500FB8000001200EF000200F106F4
:10241000F8014401AC003B00020C042A3C130010FC
:10242000800000F7000000FF0000060000F8380000
:102430000000000000FC7C0000000080C0C0C0C0A4
:10244000000080F87E0E0080C06060E0C0000000E8
:102450000000000000E0E60600C0C00080C0C0C070
:10246000800000000000000000000080E0703018D4
:1024700018181838F0E000C0C00080C0C0C080004C
:1024800000000080C06060E0C0000080F8780000BC
:10249000007C7F0303030303037F7F0000003C7F76
:1024A000636070381F0F007F7F00001E3F37363398
:1024B0003118080000000000003C3F0100383F0FC9
:1024C000070100001F3F3000000000000000001E58
:1024D0003F716060603030180E0701383F0F070110
:1024E00000001F3F3010001E3F37363331180830D0
:1024F0003707000000FFAA55AA110000001100557F
:10250000AAFFAAFFFF70C8F000F880F80088F888DA
:102510000008F808F808F000F8A88800D820D800CB
:1025200008F8083E303C288A29342AAE27742F3315
:1025300029F92870887090F880C8A89088A8503829
:1025400020F8B8A84870A84008C83850A85010A86B
:1025500070000306090C0F1215181B1E2225272ACE
:102560002D303336393C3E414446494B4E5053554D
:10257000575A5C5E60626466686A6B6D6E707173F8
:1025800074757678797A7A7B7C7D7D7E7E7E7F7F9E
:102590007F7F0000240348066A098C0CAB0FC81229
:1025A000E215F9180B1C1A1F2322282526281F2B99
:1025B000112EFB30DF33BA368C39563C173FCE41F3
:1025C0007A441C47B4493F4CBF4E33519B53F55599
:1025D0004258825AB35CD75EEB60F162E864CF6622
:1025E000A6686D6A236CC96D5E6FE2705472B57334
:1025F000047541766B77847889797C7A5C7B297C59
:10260000E37C897D1D7E9C7E097F617FA67FD87FCC
:10261000F57FFE7FD5F08D14A1C881CFD9F1AF2011
:1026200000080B000202020000090400000102027F
:102630000000052400100105240101010424020604
:10264000052406000107058103100040090401006C
:10265000020A00000007050202400000070583028D
:102660004000000403090412010002EF020140418E
:1026700023368000010102030141726475696E6FA7
:10268000204C4C430041726475626F790000FE3348
:1026900011241FBECFEFDAE0DEBFCDBF11E0A0E016
:1026A000B1E0E8E5FCE602C005900D92AC32B1075E
:1026B000D9F729E0ACE2B1E001C01D92A33EB20718
:1026C000E1F713E1C8E4D3E104C02197FE010E94C1
:1026D0002436C734D107C9F70E9423340C942A3614
:1026E0000C940000809154050895FC0180916E09BE
:1026F000882311F13FB7F89482E08093E90020919C
:10270000F200822F90E01816190614F481E090E090
:10271000882339F0289844E640936D094091F100F0
:102720004083222339F02091F200211103C02BE6CF
:102730002093E8003FBF08958FEF9FEF08952FB7D4
:10274000F89483E08093E9009091E800892F8072EB
:1027500095FF04C09091F20080E4891B2FBF08957B
:102760008091650981110DC082E08093610984E048
:1027700080936209109264091092630981E080934A
:10278000650981E699E00895A1E0B0E0EAECF3E1A3
:102790000C94FD356983DC01ED91FC910280F3819D
:1027A000E02D41E050E0BE016F5F7F4F099521961B
:1027B000E2E00C94193683E08093E9008091F20006
:1027C000882319F08AE38093E8000895B8DF90E049
:1027D0000895A1E0B0E0EFEEF3E10C94FD35FC01CB
:1027E0008485958597FD08C02FEF3FEF35872487B7
:1027F0002196E2E00C941936CE01019676DF01971E
:1028000019F4898190E0F4CF8FEF9FEFF1CFA1E031
:10281000B0E0EDE0F4E10C94FB358C01FC01848523
:10282000958597FF0AC0CE0101965FDF019761F49D
:10283000898190E0F80195878487F80184859585E2
:102840002196E4E00C9417368FEF9FEFF3CFFC0155
:102850008485958597FD0BC09FB7F89482E080939F
:10286000E9008091F2009FBF90E0019608959FB724
:10287000F89482E08093E9008091F2009FBF90E09D
:10288000089540915B0950915C092091590930915C
:102890005A0942175307B4F49091E8009570E1F398
:1028A0009091E80092FD19C08093F10080915B093E
:1028B00090915C0901968F739927892B19F48EEFFB
:1028C0008093E80080915B0990915C090196909358
:1028D0005C0980935B0981E0089580E00895EF92A0
:1028E000FF920F931F93CF93DF93F82E192FE62EAD
:1028F000042F81E0860F880FC4DF83E0C2DFCF2D75
:10290000D12FEC0EFD2EF11CCE15DF0599F007FF3F
:102910000FC0FE018491B5DF182F80E0B2DF812364
:1029200021968111F1CFCDB7DEB7E6E00C941536D4
:102930008881F1CF81E0F7CFB0E0A0E0E2EAF4E1F6
:102940000C94F835D82E8A01EB017B01E40EF51EBC
:10295000CE15DF0551F0D7FE0EC0FE01849191DF48
:1029600021968111F5CF0FEF1FEFC801CDB7DEB76C
:10297000E7E00C9414368881F2CFA1E0B0E0E3ECFC
:10298000F4E10C94FB3582E0898342E450E061E29B
:1029900076E280E8D1DFE4DEDC0112960D911C9135
:1029A0000115110589F0D801ED91FC910280F381A8
:1029B000E02DBE016F5F7F4FC801099597FD04C0F0
:1029C000F80100851185ECCF89812196E4E00C9413
:1029D0001736615030F02091F100FC012083019600
:1029E000F8CF289884E680936D0908958FB180957B
:1029F000807F669B88601C9B8460089510925405BC
:102A00003E983F9808953E9A3F9A81E080935405FE
:102A1000089520914D05E0914B05F0914C05CF01B3
:102A2000029690934C0580934B05222319F08591D3
:102A300094910895808191810895CF92DF92EF92D1
:102A4000FF92CF93DF93E5DF811520E8920791F4A1
:102A5000809171008D7F8093710010929100469853
:102A6000479810924A05DF91CF91FF90EF90DF9049
:102A7000CF90089521E020934A05813020E8920705
:102A800049F4809148059091490590934C058093B5
:102A90004B05BFDF97FD05C020914705222309F4B0
:102AA00053C02091460521114FC021E020934E05CF
:102AB000EC01DF77209709F04AC081E080934F0551
:102AC00046983FE9C32E3FE0D32EE12CF12CCAEF0C
:102AD000D0E0E091E109F091E2090995811103C08C
:102AE00081E080934F0580914E05882329F08091E5
:102AF0004F05882309F43EC047988BDF0097F1F11A
:102B00009C01DE010E94C935DC01CB0129E0B595AD
:102B1000A795979587952A95D1F7109290002AE06E
:102B200020939100D0929900C09298008093500514
:102B300090935105A0935205B09353058091710075
:102B40008260809371008FCF10924E05B1CF9E01AD
:102B500050E040E060E472E48FE090E00E94813554
:102B600069017A0181E0C81AD108E108F1081092E0
:102B70004F05AFCF4699C0CF479ABFCF8FEF9FEF9A
:102B8000DC01CBCF9C01E1E7F0E090819D7F908359
:102B900010924D05E3EDF9E0F0934C05E0934B0501
:102BA000F0934905E0934805318320837383628362
:102BB00080E090E89583848340CF0895482FE82FE4
:102BC000EF7386FF03C080E48E1BE82FF0E0EE0F6A
:102BD000FF1FEE56FA4D8591949147FF03C09195E2
:102BE000819591090895E82FEF7386FF03C090E463
:102BF0009E1BE92FF0E0EF5AFA4DE49187FDE19535
:102C00008E2F0895EF92FF920F931F93A62FB0E09F
:102C1000AA0FBB1FAF52BA4FE42FF0E0EE0FFF1F19
:102C2000EF52FA4F4D915C9160817181460F571FB1
:102C3000E82FF0E0EE0FFF1FEF52FA4F80819181F5
:102C4000480F591F80917F0990918009DC01A01BDA
:102C5000B10BB7FF03C0B195A195B109BC016E19C5
:102C60007F0977FF03C07195619571096A177B072A
:102C70000CF4DB01821B930B97FF03C091958195A8
:102C800091098A179B070CF4DC019D010E94E13534
:102C900024E0880F991F2A95E1F7840F951F1F9153
:102CA0000F91FF90EF900895E9E5F5E0119289E02A
:102CB000E935F807D9F7089520E0AC01D703C00142
:102CC0004E03821F312D5603000C111C920B300D48
:102CD000811D921F7403000C111C920B300D811D7D
:102CE000921F11240895A3E1B0E0E9E7F6E10C9406
:102CF000ED35FC0129833A834B835C836D837E83AE
:102D00000F83ADE7B9E0E980FA808D919C9111972E
:102D1000E81AF90ACB80DC8012968D919C9113976A
:102D2000C81AD90A6D807E8014968D919C91681A7C
:102D3000790A402E512C8201045C1F4F000F111F95
:102D4000A801475A5A4F9701D7010E94E1354B011C
:102D50005C019601D6010E94E135860E971EA81EE1
:102D6000B91E9301D3010E94E135860E971EA81E5D
:102D7000B91EDA01AD92BC92A280B38084819581A4
:102D80009987888726803780A085B185BD87AC87E5
:102D9000828593859F878E87A485B585B98BA88BFF
:102DA000868597859B8B8A8BA089B189BB87AA87EB
:102DB00060817181C70180DF4C01B501C6017CDFF4
:102DC000880E991E68857985C30176DF880E991E65
:102DD000B101C70171DF5C016C857D85C6016CDFC7
:102DE000A80EB91E6E857F85C30166DFA80EB91EC9
:102DF00068897989C70160DF7C016A897B89C6019E
:102E00005BDFE80EF91E6A857B85C30155DFF201A1
:102E1000EE0FFF1FEE0FFF1FE05AFC4F91828082E2
:102E2000B382A282F801E753F84FE80EF91EF1943D
:102E3000E194F108F182E0828F818F5F6396E2E195
:102E40000C9409369C01B603C0016203000C111CEE
:102E500000249009810D1124911D08959C01369F35
:102E6000C001279F800D911D379F900D269F810DDA
:102E70001124911D08959C013603C0017203800D39
:102E8000911D379F900D269F810D1124911D08954E
:102E90009C013603C001729F800D911D379F900DDC
:102EA000269F810D1124911D08959C013603C001B8
:102EB000269F810D1124911D0895EF92FF920F938B
:102EC0001F93CF93DF93EC018D2F78DE8C0181E08F
:102ED0008D0F74DE7C0160E071E06C1B7109C8012C
:102EE000D7DF8C016C2FC701E0DF800F911FCDB7BA
:102EF000DEB7E6E00C941536ACE0B0E0E2E8F7E1CE
:102F00000C94F0354F83588769877A878B879C8725
:102F1000CF80D884E984FA840B851C85C701F7FE2D
:102F200004C0882799278E199F09980117FF04C0AC
:102F300022273327201B310B821793070CF4C9017A
:102F40009601D7FE04C0222733272C193D0982178A
:102F500093070CF4C9018F3F9105B1F0ACF0D7FE97
:102F600003C02FEFC21AD20AD594C794F7FE03C04C
:102F70003FEFE31AF30AF594E79417FF02C00F5FDF
:102F80001F4F15950795CACFB601C60174DF4C01D6
:102F9000B701C70170DF880E991EB801C8016BDF49
:102FA000880E991E38E0532EA12CBB24B39450E810
:102FB000652E77247394B501C50150DFBC01C401AF
:102FC0004DDF96958795B5019301281B390BC901F3
:102FD00045DF5C015A945110EECFBC01C60158DFA9
:102FE000D82EC92EB501C70153DFF82EE92EB50141
:102FF000C8014EDF2D2D3C2D4F2D5E2DBC0180E0F4
:1030000090E02C96EFE00C940C36A5E1B0E0EBE0FC
:10301000F8E10C94F135188729873A874B875C874C
:103020006D877E878F87A88AB98ACA8ADB8AEC8AED
:10303000FD8A688879888A889B88AC88BD88602FDB
:10304000C30100DF6C016885C401FCDEC80ED91E17
:103050006985C501F7DEC80ED91E6A85C301F2DE97
:103060007C016B85C401EEDEE80EF91E6C85C5019E
:10307000E9DEE80EF91E6D85C301E4DE8C016E8584
:10308000C401E0DE080F191F6F85C501DBDEDA829F
:10309000C982FC82EB82800F911F9E838D832C2D31
:1030A0003A814E2D5C81682F7E8180E090E06596AC
:1030B000EEE00C940D36EF92FF920F931F93CF9397
:1030C000DF93DC0180E8689FB0011124675A7A4FD2
:1030D00030E0F02EF40E015010E00F5F1F4FFD01A5
:1030E000942F549197FD06C0EB01C90FD11DE1103B
:1030F00011C0588331969F5F9F11F3CFA00FB11F6E
:103100003F5F60587F4F2313EACFCDB7DEB7E6E0CD
:103110000C9415368881852B8883ECCFEF920F9322
:1031200023E0829FC0011124EE24E39403E021E018
:103130008D5C9A4DC0DF0F91EF9008950F931F9310
:10314000CF93DF93162FEC01C83E83E0D80710F031
:10315000C7EED3E080E0C436D10520F0C456D109D3
:103160008F5FF9CF00E0CA30D10518F02A970F5FC2
:10317000FACF882381F04CE5612FD0DF40E6612F44
:10318000802FCCDF44E6612F8C2FC8DFDF91CF91F9
:103190001F910F91089540E60023A9F34EE5612F9A
:1031A000802FBCDF42E6EFCF1F93CF93DF93162F24
:1031B000D42FC82F843608F0C3E680E0CA3018F058
:1031C000CA508F5FFBCF42E0882321F04D2F612F43
:1031D000A5DF44E04D0F612F8C2FA0DFDF91CF9151
:1031E0001F91089580917B0190917C0120917D0138
:1031F00030917E01E0914205F091430560914405D4
:10320000709145054091790150917A01A091400556
:10321000B09141054A1B5B0B57FF03C05195419587
:1032200051094F3F510509F0BCF48E1B9F0B97FFCE
:1032300003C09195819591098F3F910509F064F440
:10324000261B370B37FF03C031952195310981E0EB
:103250002F3F310511F00CF080E0089586E0E3E7A0
:10326000F1E0A0E4B5E001900D928A95E1F786E0E7
:10327000EDE3F1E0DF01982F1D929A95E9F7E7E37E
:10328000F1E0DF011D928A95E9F7089580936001CE
:103290002BE1829FC00111248B5B9D4D90936701B0
:1032A00080936601DBDF10926A0110925C0110923C
:1032B0005B0110925E0110925D0180E28093320109
:1032C00080E090E1909365018093640181E08093B8
:1032D0006801089580E0DADFE9E4F1E0119281E02D
:1032E000EB35F807D9F71092680186E0ECE0F1E0E1
:1032F000ADE7B9E001900D928A95E1F780E090EE9C
:10330000909372098093710980E09FE09093700917
:1033100080936F098091630181708093630180E2E3
:10332000809331018AE280936201089580E0AEDFEC
:10333000D1CF089587FD1BC060347105C0F4FB0137
:1033400094E0EE0FFF1F9A95E1F7E078F370E80F35
:10335000F11DE75AFA4F6770772781E090E001C0CE
:10336000880F6A95EAF78095908189238083089574
:10337000CF93461757070CF438C057FD36C060345A
:1033800071059CF587FD31C077FF02C070E060E0F9
:10339000C62F4F33510514F04FE350E0C87F942FF0
:1033A000987F677077276C5D714EFB016491FA011D
:1033B000E770FF27E45EF14E4491E82FF0E080FFD4
:1033C000232F80E1C89FD0011124AE0FBF1FA75A41
:1033D000BA4F3C91C9130BC0E62FE4239E2F909562
:1033E000922BE223E32BE923EC93CF910895862FD0
:1033F0008095582F522BE62FE2238E2F832B852387
:103400008C93A058BF4F892F8C1B8850181624F41A
:103410002C93A058BF4FF9CF6C91E42FE0958E2FDD
:10342000822BE42FE223E62BE823DECFE62FE770A2
:10343000F0E0E750FF4DE49166956695669590E85B
:10344000699FD0011124A80FB11DA75ABA4F8C91C2
:10345000E82BEC930895B0E0A0E0E1E3FAE10C94EE
:10346000F735C82FE62E182F110F110F110FD0E0CE
:1034700069E0610F8D2FDADF61E1610F8D2FD6DFFB
:1034800069E1610F8D2FD2DFDE5FDA3689F720E840
:10349000C29FC001112487529A4FFC01AC014C59C4
:1034A0005F4FDF01A058BF4F2AEA2C9320833A9642
:1034B0004E175F07B1F7FC01E851FF4F2083885991
:1034C0009F4FFC012083CC24C394CE0CF12CC70168
:1034D000875B9E4F7C01D2E010E000E0D12C4D2FA5
:1034E0006C2F8C2D61DEF70181917F01080F111D7A
:1034F000882391F04D2F62E06C0F56DEEFEFEC0D5C
:103500002BE1E29FF0011124E15AFD4D8491D80E88
:103510004D2F61E06C0F48DED65FC394DC35F9F6C1
:10352000DD2049F061E06C0F8D2D90E007DE62E058
:103530006C0FC80103DECDB7DEB7E8E00C9413369C
:103540009C0143E0969587954A95E1F737FD906E8B
:103550000895AAE0B0E0EFEAFAE10C94ED359B8320
:103560008A837A8769875A013901D886CF824617BC
:10357000570764F0E016F1064CF09E2D8F2D780170
:10358000092F182F8B2D5B0149878A8793014A8168
:103590005B81241B350B3D832C8347018A189B08D4
:1035A00097FE03C0919481949108180189859A85AA
:1035B000281A390A37FE03C03194219431082A2D84
:1035C0002770998597709983EA14FB0414F4219568
:1035D000277049855A850417150724F48981819538
:1035E000877089838A8187709CEFC92EC80E0C2C46
:1035F000000CDD082850330B4C815D81249FC001F5
:10360000259F900D349F900D11248C9C90018D9CD2
:10361000300D9C9C300D1124821B930B91DF2C01EB
:1036200089818850990B9C014C815D81249FC00148
:10363000259F900D349F900D11242C9C90012D9C62
:10364000300D3C9C300D1124821B930B79DF6C01F3
:10365000AE14BF040CF441C05FEF598329853A854D
:10366000201731070CF43CC03FEF3E83EA14FB0403
:103670001CF451E0A51AB10889859A850817190725
:103680001CF401979A8789878A819B8159DF8C0175
:10369000C301039655DF9B838A83C50151DF5C011B
:1036A00089859A854DDF7C019981692E990F77086C
:1036B0002E81022E000C330B3A8729874A815B81C9
:1036C0004017510749F1141415046CF4A60CB71CEB
:1036D0008C819D81481A590AF6CF81E08983BECF3B
:1036E00041E04E83C3CF1C141D044CF429853A8558
:1036F000E20EF31E4C815D81C41AD50AF4CF2F81EE
:103700003885A701B501802F33DE0F5F1F4F480CAE
:10371000591CC20CD31CD2CF2A96E2E10C94093674
:10372000A3E0B0E0E6E9FBE10C94ED35AA27BB2766
:10373000A41BB50B8B016A177B070CF47DC08A179D
:103740009B070CF479C0DA01BC5FA617B70708F431
:1037500073C0A817B90708F46FC069015B834A8377
:103760005C01CB01EDDE8983C501EADE5C010A81E3
:103770001B8183E0169507958A95E1F71B830A83E1
:1037800028EF20032001219F500C112418E0410E46
:10379000511C8A819B81880F991F880F991F25E0F2
:1037A00030E07901E81AF90A10E000E03CE0232E4D
:1037B000312C96018A809B808A0C9B1CA4013501C8
:1037C0008A819B81681A790AB3018981800FD0DDD3
:1037D0009601A401B3018981801BCADD96014801CD
:1037E0008A0C9B1CA4013501601A710AB3018981FE
:1037F0009A81890FBDDD9601A401B3018981EA8117
:103800008E1BB6DDF7FC0BC0E40CF51CF8E04F0E88
:10381000511C4A815B81415051095B834A83E20C10
:10382000F31C58E0250E311C0F5F1F4F8A819B81CE
:10383000801791070CF0BDCF2396E2E10C94093676
:103840000F931F93492F50E0440F551F445D514E75
:10385000FA0125913491FA013296A591B491482F3D
:103860004095349FB001249F610D1124711DB89FB4
:10387000A001A89F410D1124511D460F571F232F52
:103880003327FA01E20FF31F9F01DC010E94C935C3
:10389000072F182F292F332780E090E0A2E0801B0C
:1038A000910BA20B9C014A2F50E0DF010E949D3535
:1038B0001F910F910895B0E0A0E0E1E6FCE10C94C7
:1038C000F5355C01E9018417950739F1D801A21B90
:1038D000B30B201731071CF0D901A01BB10B9B01C2
:1038E0002A193B090E94C9356B017C01CA018A195A
:1038F0009B098F3F9105B9F0B0F0A2DF55274F2DFE
:103900003E2D2D2DDC010E949D350C171D071CF44A
:10391000919581959109C80FD91FCE01CDB7DEB71A
:10392000EAE00C941136FC01EE0FFF1FE45DF14E4E
:10393000A591B491A7019601E6CFB0E0A0E0E3EA3B
:10394000FCE10C94EF354B015C01EA0128013901DF
:103950009B01A70160E071E0CE01ADDF6C01830146
:103960009501A70160E071E0CE01A5DFB601CDB7FA
:10397000DEB7E0E10C940B36AAE0B0E0E2ECFCE14B
:103980000C94ED354C012A011801B42FA52F4817CE
:10399000590714F4B82FA92FEB2FFA2FE215F305CE
:1039A0000CF4F801F7FDD9C0B42FA52F84149504A9
:1039B00014F4B82FA92FEB2FFA2F2E163F060CF474
:1039C000F801E130F2400CF0C8C05B013A8729876A
:1039D0003701261737070CF0E4C0E616F7060CF09F
:1039E000C0C02C014A017A87698759016A147B0497
:1039F0000CF4BFC0782D692D9A2D8B2D48015701ED
:103A0000120169847A842401BA86A986872E962EAB
:103A1000A92EB82E77FCA1C0A114F4E0BF060CF0CB
:103A20009CC0A614B70409F498C081019401A301B5
:103A300069857A85C5013FDF89839A83EC2DF0E0A3
:103A4000EE0FFF1FE45DFF4D259134913E832D83E2
:103A5000B7FE9DC08201940149855A8570E060E0FF
:103A6000C50129DF7C0109811A81940149855A85A4
:103A700070E060E0C5011FDF8B839C834701B12CA0
:103A8000A12C89859A858130A4E09A070CF482C024
:103A900082019401AC0160E074E0C5010CDF8F830A
:103AA000988709811A812B813C8149855A8560E07C
:103AB00074E0C50100DF20E034E0A216B30654F440
:103AC000CD80DE807C010F8118854B815C81B40143
:103AD000C5013FDDE985FA85F7FF14C08101920138
:103AE000A30170E060E0CF01E6DE2C0129813A817C
:103AF000A30170E060E089859A85DDDE89839A8381
:103B00001A861986C101F1E06F16F4E07F06ACF069
:103B100081019201A30160E074E089859A85CBDE82
:103B20007C0129813A81A30160E074E089859A854E
:103B3000C2DE1701612C24E0722E29853A852615F4
:103B400037055CF4CD80DE807C01810193014981E1
:103B50005A81B20189859A85FCDC2A96E2E10C94AF
:103B60000936742F652F922F832F2801FA86E98654
:103B700047CF982D892D48011201492E582E9A2D94
:103B80008B2D570169847A8499878A8743CF8B82EA
:103B90009C8277CF89819A814F82588629853A8580
:103BA0008CCF89859A85E816F9060CF41FCF32CFA1
:103BB000A5E3B0E0EEEDFDE10C94ED35E090710988
:103BC000F090720900916F0910917009C80175D9C0
:103BD0006C01C801905C71D98C01C7016ED95C0180
:103BE000C701905C6AD97C019A8389831C821B82FD
:103BF000BE82AD82B501C6015FD898878F831A87D0
:103C00000987B701C60158D89195819591099C877C
:103C10008B87B501C80150D89195819591099E87F0
:103C20008D87D88ACF86B701C80146D89A8B898BF1
:103C3000D9DA8BA78111DAC100E0209140053091DB
:103C400041054091420550914305609144057091B2
:103C50004505CE01019647D8582E20914108309154
:103C600042082F3F310509F00CF4C4C140916003B4
:103C7000509161036091620370916303CA014093A4
:103C800064035093650360936603709367038058E1
:103C90009F4F90936503809364033093440820936F
:103CA00043088091D1059091D2059093D4058093DB
:103CB000D30520914205309143057901890140E007
:103CC00060E080E00E94021680579E4F9093D206DB
:103CD0008093D1068FEF80938301539401E00BA76B
:103CE00021E029A36090790170907A01E0907B0136
:103CF000F0907C01A0907D01B0907E0147019394EB
:103D0000262D7A8E698E482D9C8E8B8E6A2DBE8EC6
:103D1000AD8E052D3A8D5C8D7E8DCE0101960E9473
:103D20007316082F282F30E0A9014D585E4F440F1D
:103D3000551FFA01E75AFA4F20803180F901EE0F42
:103D4000FF1FEE0FFF1FE45AFC4F80819181A2817B
:103D5000B38160817181CB01C096220F331F220F86
:103D6000331FF901E05AFC4F80839183A283B38310
:103D7000455A5A4FDA012D923C920F5F6701BBEF13
:103D8000DB1A4C2DDC8ECB8E298D3A8D5C8D6D8DA2
:103D90007E8DCE0101960E947316482E90E0DC01C4
:103DA000AD58BE4FAA0FBB1FFD01E75AFA4F008165
:103DB000118131E0EFEF2E16310409F00CF430E000
:103DC00021E00F3F110509F00CF420E0332E3222E0
:103DD000FC01EE0FFF1FEE0FFF1FE45AFC4F408166
:103DE00051816281738120813181A901405D5F4FE2
:103DF000880F991F880F991FFC01E05AFC4F4083E0
:103E0000518362837383A55ABA4F0D931C9301E0CB
:103E1000040DC701995F482F9C8F8B8F298D3A8D98
:103E20005C8D6D8D7E8DCE0101960E947316082FDC
:103E3000E82FF0E0EE0FFF1FE15CF74F21E08081FB
:103E400091818F3F910509F00CF420E0322280919E
:103E50006A01880F880F880F0E94F315680E711C85
:103E600087FD7A94262D7A8E698EFAEFFF1A4E2DF1
:103E7000FC8EEB8E32E0B31A6A2DBE8EAD8E3A8D7B
:103E80005C8D7E8DCE0101960E947316782EE82FF0
:103E9000F0E0EE0FFF1FE15CF74F808191818F3FD3
:103EA000910509F00CF46BC0332009F468C082E07E
:103EB000682E650C44244394450C49A1A42EB12CD2
:103EC000760184019401462D642D852D0E940216F1
:103ED000F501EE0FFF1FEF52F94F91838083F5013B
:103EE000EE0FFF1FEE0FFF1FE058FE4F5082418282
:103EF000628244E0242E238253E0352E350CA9A0A3
:103F0000A394B12C86019401432D662D842D0E942B
:103F10000216F501EE0FFF1FEF52F94F91838083D8
:103F2000F501EE0FFF1FEE0FFF1FE058FE4F40821E
:103F3000618232822382E5E09E2E950C520CA9A06C
:103F4000A394A394B12C9601492D652D832D0E9435
:103F50000216F501EE0FFF1FEF52F94F9183808398
:103F6000F501EE0FFF1FEE0FFF1FE058FE4F6082BE
:103F70005182928283E0838359A15D5F59A3D72C3C
:103F800010E080916B011817B8F5E12FEE0FA1E05A
:103F9000AE0FB0E0AF51BA4F8C91A12FB0E0A75A4D
:103FA000BA4F6C91F0E0EF51FA4F408190E4490232
:103FB000A0011124242F5C8B4B8BA0E46A02B0017A
:103FC0001124462F7E8B6D8BB0E48B02C00111242F
:103FD000682F988F8F8B0D2D3C895E89788DCE014F
:103FE00001960E947316D82E1F5FCBCF1BA619A275
:103FF000512C78CE19A276CE8CE691E0E9A1ECA7FF
:1040000030E070E020E013E0DC014D91CD01740F51
:10401000319FF0011124E752F94F371708F043C0E0
:104020006081670D5181570D4281470DA62FB0E089
:10403000AA0FBB1FAF5BB74F0D90BC91A02DAF3F38
:10404000B10509F0D4F4A52FB0E0AA0FBB1FAF5BF8
:10405000B74F0D90BC91A02DAF3FB10509F06CF4A6
:10406000A42FB0E0AA0FBB1FAF5BB74F0D90BC9160
:10407000A02DAF3FB105A1F09CF0FCA404E0F09EA0
:10408000D0011124A058BE4F6C9311965C931197E8
:1040900012964C93129713962C930F2D0F5F0CA72B
:1040A0003F5F3396BACF2F5F253009F0ADCF29A1FE
:1040B000822F90E09C01220F331F220F331FA90192
:1040C00040585E4F58A34F8F880F991FDC01AF52A5
:1040D000B94FBDABACABBCA5BAA7E72DF0E0F9ABCF
:1040E000E8ABFCA5F9A0FF1608F468C060E6A62EB0
:1040F00063E0B62E71E4872E78E0972EC12C612CF8
:1041000077247394DC1090C253EDE52E56E0F52E23
:1041100004E811E091E0EAA59E1708F0F5C2D70186
:104120006D917D917D01F80181909190A190B19068
:104130008F01892F282F30E0A90145545F4F440F8C
:10414000551FFA01E75AFA4F0190F081E02D455AC8
:104150005A4FE617F707E0F4DA01ED93FC93D90123
:10416000AA0FBB1FAA0FBB1FA058BE4F220F331FA1
:10417000220F331FF901E458FE4F408051806280C6
:1041800073804D925D926D927C921397815091F65F
:10419000282F30E0F901EE0FFF1FEF52F94F718326
:1041A0006083220F331F220F331FF901E058FE4FA7
:1041B00080829182A282B3829F5FADCFAF8DB8A182
:1041C000BC91B8A7EF8DF8A1F181F9A7AF8DB8A187
:1041D0001296CC9012971396BC91BDA7F8A4EF2D20
:1041E000F0E0EE0FFF1FEF5BF74F208131813BA323
:1041F0002AA339A5E32FF0E0EE0FFF1FEF5BF74F87
:10420000408151815DA34CA36C2C712CF301EE0F06
:10421000FF1FEF5BF74FA080B180552453948AA114
:104220009BA18F3F910511F00CF0512CACA1BDA1C9
:10423000AF3FB10509F014F4689451F8BFEFAB1625
:10424000B10409F014F4689452F8F30128A939A9CB
:10425000E21BF30BE75AFA4F808130E483027001CE
:10426000112449A5842E912CF40188A999A9E81B51
:10427000F90BE75AFA4F008190E4090280011124FA
:10428000A8A52A2E312CF10128A939A9E21BF30B8C
:10429000E75AFA4F208140E42402900111244C2D6A
:1042A00069A58A2F0E9402169BAB8AABACA9BDA957
:1042B0008D939D93BDABACAB252D30E0C90101972B
:1042C00085219323892B09F4C5C0B6E7BD1508F4F1
:1042D0007DC0880C991C880C991CF401E05AFC4F95
:1042E0004F01660C771C660C771C9301205A3C4FDB
:1042F0003FA32EA33101660C771C660C771CA3012B
:10430000405A5C4F3A01DA016D917D918D919C91FB
:1043100050FC65C02080318042805380EAA0FBA021
:104320008B019C014CA15DA1C201B10106DB1B0107
:104330002C01F3010081118122813381AEA1BFA143
:104340006D917D918D919C91EAA0FBA0A501F5DA7C
:104350002D2D30E0F901EE0FFF1FEE0FFF1FE05A89
:10436000FC4F2082318242825382220F331FF90197
:10437000EF5BF74F20E031E03183208321E02D0D0A
:10438000422F50E0FA01EE0FFF1FEE0FFF1FE05A21
:10439000FC4F6083718382839383CA01880F991FC6
:1043A000FC01EF5BF74F40E051E051834083E8A50B
:1043B000AF8DB8A1EC9311962C9311971296DC92C5
:1043C0001297FDA51396FC93D394D39499A19F5F64
:1043D00099A3AF8DB8A11496B8A3AF8F82CE51FC2C
:1043E0001DC00081118122813381ECA0FDA04AA172
:1043F0005BA1A3DA1B012C01D4010D911D912D911C
:104400003C91EEA1FFA16081718182819381ECA03A
:10441000FDA0A50192DAF9A5F8A79ACFAEA1BFA198
:104420000D911D912D913C9175014AA15BA185DAF9
:104430001B012C01EEA1FFA100811181228133819A
:10444000D4016D917D918D919C914CA15DA175DA06
:10445000C8A67ECF552009F4B9CF66E7F62EFD1425
:1044600008F4B4CF0AA5083708F0B0CF880C991C1F
:10447000880C991C9401205A3C4F3FA32EA3660C34
:10448000771C660C771CA301405A5C4F5FA74EA7B0
:104490004101880C991C880C991CC401805A9C4FBE
:1044A0004C0150FE77C0D9010D911D912D913C9189
:1044B000FC016081718182819381ECA0FDA04AA101
:1044C0005BA13BDA2B013C01AEA5BFA50D911D916F
:1044D0002D913C91F40160817181828193817501FC
:1044E0004AA15BA12ADA2D2D30E0F901EE0FFF1F62
:1044F000EE0FFF1FE05AFC4F4082518262827382AE
:10450000220F331FF901EF5BF74F20E031E03183D9
:10451000208321E02D0D422F50E0FA01EE0FFF1F06
:10452000EE0FFF1FE05AFC4F6083718382839383F9
:10453000CA01880F991FFC01EF5BF74F40E051E083
:1045400051834083AF8DB8A1DC92E9A51196EC931D
:1045500011971296CC921297FDA51396FC93FAA48C
:10456000EF2DF0E0DF01AA0FBB1FAF52B94F4AA9F0
:104570005BA94D935C93EE0FFF1FEE0FFF1FE058FA
:10458000FE4FD082C18222835DA553838F2D8F5F22
:104590008AA71ACFAEA5BFA56D917D918D919C91F3
:1045A00051FE23C0EEA1FFA1408051806280738044
:1045B00075018B019C014CA15DA1C301B201BDD964
:1045C0002B013C01D4010D911D912D913C91EEA147
:1045D000FFA16081718182819381EAA0FBA04CA13F
:1045E0005DA1ABD9C9A6C8A47ECFD4010D911D9100
:1045F0002D913C91EAA0FBA0A5019FD92B013C0184
:10460000EEA1FFA10081118122813381AEA5BFA55A
:104610006D917D918D919C91ECA0FDA0A5018DD90E
:10462000C9A4B8A5B9A75FCFF50100811181E280C7
:10463000F380D4018D919D914D018F3F9105D1F172
:10464000CCF1FED89C01D8010E94E7351B012C015A
:10465000D7010E94E7352114B8E73B064104B4ECCA
:104660005B06CCF12114E8E83E06EFEF4E06EBE3E3
:104670005E06C4F56115F8E77F078105F4EC9F0736
:10468000CCF1611508E870070FEF80070BE3900786
:10469000B4F592018101BFE03695279517950795EE
:1046A000BA95D1F72FE096958795779567952A95D6
:1046B000D1F77B011E5FD50111961C930E93C301A8
:1046C0008E199F0913969C938E931297C394B4E00E
:1046D000AB0EB11C17CD212C48E7342E412C44ECF5
:1046E000542EC8CF212C38E8332E44244A943BE37F
:1046F000532EC0CF60E078E780E094ECCACF60E052
:1047000078E88FEF9BE3C5CF0E94541640E8842ED3
:1047100041E0942ED12CB12CA12CBAA5BD1509F4E1
:104720004CC0F401C380FFEFCF121FC0FBA4FF20D9
:10473000B9F0A0906403B0906503809160039091FC
:104740006103A81AB90A60916003709161038091B6
:104750006203909163032FEF3FEFA5010E94901B2E
:10476000D394E4E08E0E911CD8CFD4011296EC9134
:10477000B4E0EB9FF0011124E05AFC4FE080F1809F
:1047800002811381D4011196EC91B4E0EB9FF0010A
:104790001124E05AFC4F2081318142815381D401A0
:1047A000EC91B4E0EB9FF0011124E05AFC4F6081E2
:1047B000718182819381E0D8D3CFFBA5FF2309F4D7
:1047C00091C085010C5F1F4F809160039091610340
:1047D00022273327201B310B821793070CF482C04A
:1047E000E0906203F0906303E216F3060CF47AC0E3
:1047F00024E0A20EB21EA816B90608F473C0AE14C7
:10480000BF0408F46FC00E94A01A89A3C7010E94C8
:10481000A01A5C0183E0169507958A95E1F728EFC9
:1048200020032001219F500C112438E0430E511C1D
:10483000C801880F991F880F991F25E030E0690192
:10484000C81AD90A3CE0232E312CF12CE12C450169
:10485000801A910AB40149A14E0D4F8F842F0E94F6
:104860009A193501600E711EB3018F8D0E949A193D
:10487000B40199A09E18892D0E949A19B301892D1F
:104880000E949A1945018E189F08B40159A1500F32
:104890005F8F852F0E949A1937016A0C7B1CB30128
:1048A0008F8D0E949A19B40199A0901A892D0E94A7
:1048B0009A19B301892D0E949A19D7FC07C0C40C1C
:1048C000D51C88E0480E511C01501109C20CD31CA4
:1048D00098E0290E311CAFEFEA1AFA0A0E151F05EF
:1048E0000CF0B5CF8AA5E596E2E10C940936EF927B
:1048F0000F931F93CF93DF935BD99091680196300C
:1049000009F076C080913101803208F47CC0C091FA
:1049100062014C2F419580916301E12C0AE28823CA
:1049200009F475C024E060E081E590E20E945B1824
:1049300044E24C1BEE24E39403E021E0609161012A
:104940008EE490E20E945B18C09131014C2F41959A
:10495000E12C0CE123E065E081EF91E20E945B181D
:1049600012E11C1BD0916001412F65E081E08D0FA9
:104970000E94D4188BE1D89FF0011124E15AFD4D1B
:104980008491412F66E00E94D418ED2FF0E0E75BA0
:10499000FE4F8081412F67E08F5F0E94D418C530A1
:1049A000E8F586E08C1BEC2FF0E0ED52FA4F9F010A
:1049B0003C5FDF0190E01D929F5F8913FCCF9FEF6A
:1049C0009183E058FF4F2E173F0799F70DE70C0F23
:1049D000809132018695D0E4D81BD034F8F4102FA2
:1049E00017FD1AC06D2F812F0E94161A1F5FF8CF76
:1049F000809162018A3218F48D5F80936201923057
:104A000009F485CF7FCF8F5F8093310180CF23E082
:104A100060E08BE790E28ACFDF5FDFCF44E64C0FA8
:104A2000E12C08E121E067E086E390E20E945B1858
:104A3000DF91CF911F910F91EF900895FF920F9307
:104A40001F93CF93DF938091790190917A01209108
:104A5000400530914105821B930B00917D0110911F
:104A60007E012091440530914505021B130BF12C6A
:104A700017FF05C0119501951109FF24F39497FFC5
:104A800005C06894F1F89195819591098017910777
:104A90003CF46894F2F8302F212F8C01832F922F51
:104AA0008F3F910511F00CF04EC0FC01EE0FFF1F7F
:104AB000E45DF14E25913491D8010E94E735DC0187
:104AC000CB0153E0B695A795979587955A95D1F761
:104AD000182FC92F40E0D42FFE01EE0FFF1FE65222
:104AE000F24E85919491FE01EE0FFF1FE452F24EBB
:104AF000C591D49160E071E0611B71090E942E178D
:104B0000D19F9001C19F210D1124311D820F931F50
:104B1000F2FE06C020E030E4A901481B590BCA018F
:104B2000F1FE06C020E030E8A901481B590BCA017C
:104B3000F0FE03C0919581959109905CCDB7DEB7E9
:104B4000E5E00C9416360E94201C9C01D8010E94BE
:104B5000E735DC01CB013BE0B695A79597958795A6
:104B60003A95D1F7B5CFB0E0A0E0E9EBF5E20C94CF
:104B7000F8357C018B01D22EFC0180819181461B8E
:104B8000570B57FF02C04D5F5F4F559547955595A1
:104B90004795EA01C81BD90B6D2D0E945517080FC8
:104BA000191F6D2DCE010E945517F701208131810B
:104BB000820F931F91838083C801CDB7DEB7E7E0F2
:104BC0000C941436AF92BF92CF92DF92EF920F9374
:104BD0001F93CF93DF9300D000D000D0CDB7DEB7C6
:104BE00049835A836B837C838D839E8359014981DA
:104BF0005A818DE7C82E89E0D82EF6016081718137
:104C000020E483E799E0AFDFF601918380834B8155
:104C10005C816281738120E485E799E0A4DFF6017D
:104C2000938382834D815E816481758120E487E76F
:104C300099E099DFF6019583848360917109709101
:104C400072092E2DA50189E799E08DDF90937209F5
:104C50008093710960916F09709170092E2DA801E0
:104C60008BE799E080DF9093700980936F09269617
:104C70000FB6F894DEBF0FBECDBFDF91CF911F916D
:104C80000F91EF90DF90CF90BF90AF9008953FB716
:104C9000F89480912D0190912E01A0912F01B09157
:104CA000300126B5A89B05C02F3F19F00196A11D24
:104CB000B11D3FBFBA2FA92F982F8827BC01CD0166
:104CC000620F711D811D911D42E0660F771F881FC5
:104CD000991F4A95D1F708958F929F92AF92BF92F4
:104CE000CF92DF92EF92FF926B017C01D0DF4B01FC
:104CF0005C01C114D104E104F104B1F0C8DF68190A
:104D000079098A099B09683E73408105910588F3FA
:104D100081E0C81AD108E108F10828EE820E23E0EC
:104D2000921EA11CB11CE5CFFF90EF90DF90CF90B9
:104D3000BF90AF909F908F90089565E070E080E005
:104D400090E0CACF0895B0E0A0E0E9EAF6E20C9462
:104D5000F3356C017B018A0180910B01882309F4F2
:104D60005BC080916E09882309F456C08091600968
:104D700080FF05C08091E00082608093E000E80140
:104D8000B12C8AEFA82E93E0892E2AE3922E209749
:104D900011F4BB20D1F10E949F13811109C0AA9484
:104DA000AA20D1F161E070E080E090E095DFEFCFE4
:104DB0008C171D0611F00CF08C2F9FB7F894809281
:104DC000E9002091E80025FD02C09FBFE0CF282F19
:104DD00030E0C21BD30BF701815020F0419140938A
:104DE000F100FACFE20EF31EBB2021F09092E80012
:104DF000B12CEBCF8091E80085FDE7CF9092E800E1
:104E0000BB24B394209709F3F3CF5D9884E6809395
:104E10005F09101611063CF081E090E0F6019383E3
:104E2000828310E000E0C801CDB7DEB7ECE00C945F
:104E30000F36EF92FF920F931F93CF93DF93EC0106
:104E4000E62E142F842F0E94F315082F80E4810F83
:104E50000E94F315182F8E2D0E94F315F82E80E472
:104E60008E0D0E94F31588834F2D84039001112429
:104E700039839403900111243A831B821C83902F61
:104E800091959D83F194FE82482F84039001112413
:104E90003F839403C00111249887CDB7DEB7E6E0C5
:104EA0000C941536ADE1B0E0E8E5F7E20C94ED3591
:104EB0004E8B5F8B688F798F8A8F9B8F322E532E0C
:104EC000202E412E6E887F88888C998C2A8D3B8D70
:104ED0003D8F2C8F442D4195652D6195CE01019616
:104EE000A8DF1B861A861D861C86A12CBB84C12CBC
:104EF000DD8409811A812B813C814D815E816F8126
:104F0000788589850E940518288B398B4A8B5B8BA5
:104F10006C8B7D8B88899989680E791E8A899B891B
:104F2000880E991E8C899D892C8D3D8D820F931F33
:104F3000462D7A826982682D9C828B829E838D8326
:104F400090E4E92E022D142D232D352D5A817C81DC
:104F50009E8138DE6D96E2E10C940936A6E0B0E061
:104F6000E4EBF7E20C94F73586E0E9E7F1E0DE01E7
:104F7000119601900D928A95E1F720915D01309193
:104F80005E01E12CB4E1FB2E00E717E149815A8173
:104F90006B817C818D819E8185DF80915D01909107
:104FA0005E01939590935E0180935D0110916A017B
:104FB0001F3F19F485E08093680199DCE09160015E
:104FC000F0E0E75BFE4F8081813009F04FC01F7039
:104FD000173008F017E0E12FF0E0EE0FFF1FEB5065
:104FE000FB4D45915491EBE2F4E28491E0E9F4E267
:104FF000E4913E2F282F07EE17E0A7E6B8E070E017
:1050000060E0F12CE12CFB01E45DFB4D8491FB01A0
:10501000EF56FB4DE491DE2EC82EC601822B932B5A
:105020008E299F297C01EE0CFF1C8E299F297C0173
:10503000F694E7948E299F298095F801F0808F21BE
:10504000F42EF2228F2981938F01892F80959C91D4
:105050008923932F9423892B8D93542745275427F5
:105060006F5F7F4F79016436710521F42696E8E081
:105070000C9413369601C7CFA6E0B0E0E2E4F8E264
:105080000C94F735D62E0E942E1920915B01309199
:105090005C011A8219821C821B821E821D82E12CF5
:1050A0008CE1F82E00E717E140E05A8160E07C8156
:1050B00080E09E81F7DE80915B0190915C01939589
:1050C00090935C0180935B018091630180FF58C0E5
:1050D000D5FE08C080916001882309F443C0815047
:1050E00080936001D6FE08C080916001813109F48F
:1050F0003BC08F5F8093600180915F018830B0F585
:105100008F5F80935F01D2FC0E946A191091600149
:105110008BE1189F60011124C6018B5B9D4D90931C
:105120006701809366010E942E190E94D81DE12C10
:105130000CE122E040E066E081EF91E20E945B1822
:1051400042E166E081E0810F0E94D418F601E15A45
:10515000FD4D849142E167E00E94D4182696E8E074
:105160000C94133681E1BCCF80E0C4CFD3FECBCF0B
:1051700082E0809368018093630110925F01C3CF46
:1051800080916A018F3F11F0D2FE05C082E08093CA
:10519000680110925F01ABDBE1CFA6E0B0E0E3ED88
:1051A000F8E20C94F93586E0E0E4F5E0DE011196D2
:1051B00001900D928A95E1F70091640110916501CB
:1051C00020915D0130915E018091420590914305EF
:1051D0009E5F682F9C838B83E12C86E0F82E4981AB
:1051E0005A817C818D819E815DDE2696E6E00C945D
:1051F0001536CF93DF93C82FD62FCFDFC7FF0AC056
:1052000080916401909165018054910990936501AA
:1052100080936401C4FF0AC080916401909165018C
:10522000805C9F4F9093650180936401809164013D
:105230009091650197FD11C0811520E2920784F4D9
:105240009093650180936401D2FF03C082E0809354
:1052500068014DDBDF91CF91089590E080E0F0CFC1
:1052600080E090E2EDCFCF93C62F97DF20916301CE
:1052700092E0211193E080916201882319F083501C
:1052800080936201C2FF03C082E080936801C7FF80
:1052900007C080916101882381F181508093610171
:1052A000C4FF07C080916101891749F18F5F809326
:1052B0006101C3FF1FC0C0916101222361F0C111D0
:1052C00009C0809160010E94461982E080936801C4
:1052D00010925F01C150C11114C080915D01909185
:1052E0005E0190935C0180935B0110926A0181E002
:1052F00080936801FCDACF910895892FCFCF80E0A9
:10530000D6CFC13011F487E0F3CFC23099F70E94B5
:105310006A19F0CFEF92FF920F931F93CF93DF9311
:10532000C82FD62F3ADF8091330190E09C0136954B
:105330002795369527954C2F407609F451C0029653
:10534000820F931F8F3F910508F052C08093330165
:10535000C5FF0AC020915D0130915E01281B390B09
:1053600030935E0120935D01C6FF0AC020915D016C
:1053700030915E01820F931F90935E0180935D01D7
:10538000C7FF05C0809132018E5F80933201C4FF58
:1053900005C080913201825080933201C091320168
:1053A000C23048F5C2E0C0933201809131018823B8
:1053B00019F081508093310180915F018830F8F4B9
:1053C0008F5F80935F01D2FF05C086E08093680104
:1053D000109261018CDACDB7DEB7E6E00C94153699
:1053E0000197821B930B09F0ADCF81E090E0AECF27
:1053F0008FEF90E0ABCFC7FFD6CFC0E8D4CFD3FFBD
:10540000E2CF00915D0110915E01C8010E945D171D
:105410007C01C801905C0E945D178C0186E0E0E48D
:10542000F5E0A3E4B1E001900D928A95E1F76C2FCD
:10543000C7010E94551790933E0180933D016C2F48
:1054400088279927801B910B0E9455179093420142
:105450008093410183E08093680164E670E084EB0F
:1054600090E00E94C215AFCFAEE3B0E0EAE3FAE20B
:105470000C94ED3524E02DAB80913F0190914001DB
:10548000C09740913D0150913E01411530EC5307CA
:105490000CF41BC3411560E456070CF019C350937C
:1054A0003E0140933D018115A0EC9A070CF413C313
:1054B0008115B0E49B070CF011C3909340018093D9
:1054C0003F0120914101309142012115E0EC3E075E
:1054D0000CF407C32115F0E43F070CF005C330932B
:1054E00042012093410140585F4F60914005709107
:1054F0004105650F711D57FD7A95709341056093C5
:10550000400580589F4F4091420550914305490FF7
:10551000511D97FD5A9550934305409342052058DD
:105520003F4F8091440590914505830F911D37FDB4
:105530009A959093450580934405209172012EAF72
:1055400081E498E099A788A71CAA9EADACA99A17F8
:1055500009F4E5C2E8A5F9A5908081800281F68171
:10556000FCA7A8A5B9A51796BC91BEA7E8A5F9A563
:105570008381E0904005F0904105F0E48F02E0184F
:10558000F1081124A8A5B9A514968C91A090420504
:10559000B0904305B0E48B02A018B1081124E8A52F
:1055A000F9A59581C0904405D0904505F0E49F028F
:1055B000C018D10811242CA5211104C03EA5332305
:1055C00009F446C04EA56CA5CE01019632DC3A80A6
:1055D0005B806C816AA78D8188AB9E819AAB2F809E
:1055E000488419856981C7010E9422173C016AA578
:1055F000C5010E942217680E791E622DC6010E9405
:105600002217680E791E632DC7010E9422171C0104
:1056100068A9C5010E942217280E391E642DC601F3
:105620000E942217280E391E652DC7010E942217DD
:105630002C016AA9C5010E942217480E591E612F2C
:10564000C6010E9422176201C80ED91E51017301C2
:10565000A0E19A9EA0011124B0E18B9E400111248B
:10566000E0E10E9F80011124EE27FF27E41BF50BDC
:10567000FBA7EAA7DA01AE0DBF1DEE16FF064CF040
:10568000412C512C32014E155F0544F4D701A41B67
:10569000B50B9D010E94E1352B013C0122243324EE
:1056A00028183908D401AA0DBB1DA214B30434F084
:1056B0008A149B0454F4D501A819B9099D010E94CC
:1056C000E135460E571E681E791EEE27FF27E01BA8
:1056D000F10BD801AC0DBD1DCE16DF0634F00C1554
:1056E0001D0554F4D601A01BB10B9D010E94E135AC
:1056F000460E571E681E791E21E0421620E452060F
:105700006104710408F0D8C13E2D2F2D8AA59BA5F8
:10571000E816F90614F43AA52BA5832F922F481703
:1057200059070CF4CA01D701A81BB90BBBA3AAA344
:105730003A2D2B2DA214B30414F4322D232D832FD4
:10574000922F881699060CF4C4019501281B390B79
:105750003DA32CA33C2D2D2DCE16DF0614F43E2F99
:105760002F2F832F922F081719070CF4C801D60189
:10577000A81BB90BCD01BFA3AEA34AA15BA16CA12D
:105780007DA19FA10E947C172AA33BA34CA35DA3EC
:105790006EA37FA3BCA5B111AAC1EEA5E111A7C15B
:1057A0002AA03BA04CA05DA00EA11FA1A0903F018C
:1057B000B0904001C0904101D0904201B101809170
:1057C0003D0190913E010E943B177C01B201C50151
:1057D0000E943B17E80EF91EB801C6010E943B1754
:1057E000E80EF91E1E141F040CF466C1E114FCEF50
:1057F000FF0634F462E370E088E790E00E94C2158F
:1058000020913D0130913E013DA72CA7B101C70178
:105810000E943B17ACA4BDA4A81AB90A80913F010D
:10582000909140019FA78EA7B201C7010E943B172C
:10583000CEA4DFA4C81AD90AA0914101B0914201B7
:10584000B9ABA8ABB801C7010E943B174A2DBD8E6A
:10585000AC8E6C2DDF8ECE8EE8A9F9A9E81BF90B72
:10586000CF01F9A3E8A35D8D7F8D99A10E947C17DC
:105870002C8F3D8F4E8F5F8F68A379A32C8D3D8D2C
:1058800039AF28AF8E8D9F8D9BAF8AAFA8A1B9A1EC
:10589000BDAFACAFE0913701F0913801FBABEAABA3
:1058A0002091390130913A013FAB2EAB80913B0101
:1058B00090913C019BA78AA7B801C9010E943B17A0
:1058C0007C01B2018AA59BA50E943B17E81AF90A40
:1058D000B1018AA59BA50E943B175C01B8018AA96A
:1058E0009BA90E943B17A81AB90AB2018AA99BA9D1
:1058F0000E943B176C01B1018EA99FA90E943B1722
:10590000F7FE03C0AFEFEA1AFA0AF594E794ECA5A4
:10591000FDA5EE19FF097F01B7FE03C0FFEFAF1A27
:10592000BF0AB594A7948EA49FA48A189B08C81A8E
:10593000D90AD7FE03C02FEFC21AD20AD594C79452
:10594000A8A8B9A8AC18BD08B101C7010E943B17AF
:105950006C01B201C4010E943B17C80ED91EB801E8
:10596000C5010E943B17C80ED91E68AD79ADC701AD
:105970000E943B177C016AAD7BADC4010E943B17BE
:10598000E80EF91E6CAD7DADC5010E943B17E80E17
:10599000F91EF194E194F10860EC882799278C199D
:1059A0009D090E9455173C016C187D0865E5C701EB
:1059B0000E9455176C01B101C3010E943B174C01B5
:1059C000B201C3010E943B175C01B801C3010E94F0
:1059D0003B177C0168AD79ADC6010E943B17880E6C
:1059E000991E6AAD7BADC6010E943B17A80EB91E79
:1059F0006CAD7DADC6010E943B17E80EF91E8CA56B
:105A00009DA5880D991D90933E0180933D018EA523
:105A10009FA58A0D9B1D9093400180933F0188A90B
:105A200099A98E0D9F1D9093420180934101B80169
:105A3000C5010E943B176C01B201C7010E943B17D0
:105A4000C81AD90AB101C7010E943B177C01B801ED
:105A5000C4010E943B17E81AF90AB201C4010E946E
:105A60003B178C01B101C5010E943B17CC0CDD1C1A
:105A7000CC0CDD1CAAA9BBA9CA0EDB1ED092380132
:105A8000C0923701EE0CFF1CEE0CFF1CEEA9FFA923
:105A9000EE0EFF1EF0923A01E0923901081B190B3D
:105AA000000F111F000F111F2AA53BA5020F131F86
:105AB00010933C0100933B013CA93F5F3CAB88A5A0
:105AC00099A5089699A788A740CD40E050ECE7CC6F
:105AD00040E050E4E4CC80E090ECEFCC80E090E457
