:1000000033C4000059C4000057C4000055C40000A8
:1000100053C4000051C400004FC400004DC4000090
:100020004BC4000049C400000C94E6240C945525F0
:1000300043C4000041C400003FC400003DC40000B0
:100040003BC4000039C4000037C4000035C40000C0
:1000500033C4000031C400002FC400000C94E82712
:100060002BC4000029C4000027C4000025C40000E0
:1000700023C4000021C400001FC400001DC40000F0
:100080000C94872719C4000017C4000015C4000091
:1000900013C4000011C400000FC400000DC4000010
:1000A0000BC4000009C4000007C4000000004601A2
:1000B0008B02CF03110551068D07C608FB092C0BD7
:1000C000570C7D0D9E0EB90FCE10DC11E412E61315
:1000D000E014D515C216AA178A186419381A051B18
:1000E000CD1B8E1C4A1DFF1DB01E5A1F0020010291
:1000F0000408102040800103070F1F3F7FFFFFFE11
:10010000FCF8F0E0C080FFFFFFFFFF7F5555FF3F89
:100110003333AA2A9224FF1F711C991945175515CC
:10012000B11349121111FF0F0F0F380E790DCC0CBE
:10013000300CA20B210BAA0A3D0AD8097B0924091D
:10014000D30888084208FF07C107870750071C0724
:10015000EB06BC06900666063E061806F405D105B9
:10016000B00590057205550539051E050505EC0419
:10017000D404BD04A70492047D0469045604440415
:10018000320421041004FF03F003E003D203C3038D
:10019000B503A8039B038E038103750369035E0304
:1001A000530348033D03330329031F0315030C03C3
:1001B0000303FA02F102E802E002D802D002C80208
:1001C000C002B902B102AA02A3029C0295028F02E8
:1001D000880282027C02760270026A0264025E0277
:1001E000590253024E02490243023E0239023402CE
:1001F00030022B02260222021D02190214021002F2
:100200000C0208020402FF01FC01F801F401F001F4
:10021000EC01E901E501E101DE01DA01D701D401D8
:10022000D001CD01CA01C701C301C001BD01BA019E
:10023000B701B401B201AF01AC01A901A601A4014B
:10024000A1019E019C0199019701940192018F01E6
:100250008D018A0188018601830181017F017D0171
:100260007A01780176017401720170016E016C01EE
:100270006A01680166016401620160015E015C015E
:100280005A015801570155015301510150014E01C6
:100290004C014A0149014701460144014201410123
:1002A0003F013E013C013B01390138013601350176
:1002B0003301320130012F012E012C012B012901C4
:1002C00028012701250124012301210120011F010B
:1002D0001E011C011B011A0119011801160115014B
:1002E00014011301120111010F010E010D010C0186
:1002F0000B010A01090108010701060105010401BA
:10030000030102010101000000AA55AA55FFFFFFE9
:100310001700030CCE390000994C000003002E0298
:10032000D1010000C411100184001000980C2E3A75
:10033000F243B94AB12A877CB726AE22211FAA2AE6
:10034000A23A0A00500184284A298A10A10A000012
:10035000BE78BF2A2E463F3ABF46BF042E669F7C1A
:10036000F147F1019F6C1F425F7C3F783F7EBF08E1
:100370002E7ABF68B226E1071F7E071F1F7D9B6C88
:10038000833EB94E3F028360F103220810424100D0
:100390004C7A5F324C4A4C7E4C53BE00D6035F70A1
:1003A0001D00B0019F681F009E785E704C325E1188
:1003B00044799E0856034F020E7A061B1E79924915
:1003C000823ADA02C47D0000DF110000000049001B
:1003D00000FE02FA2A1202728A72027A8262827A1B
:1003E00002FAAA8A02FA2AD3040E1F4000400040F3
:1003F000005F055A005F15510052154900411F4129
:10040000005E055E005F055A00411F41004000404C
:10041000004000FF004E114E00471847005F155185
:10042000005F055A0047184700511F51005F1551E2
:10043000004F104E104F00400040004000FF0040B1
:10044000004000400040004000400040005F054286
:1004500000511F5100411F41004E1151005F045FC8
:1004600000400040004000FF00404040404040400D
:1004700040404040404040404040404E595F405F17
:10048000505F40515F5140415F41404040404040DB
:10049000407F0018183C7E002499423CFEFE121E4C
:1004A0000C007EFE80C0C000FCFE12FEFC00CEDE12
:1004B00098FE7E000000000000000000FEFE121EFC
:1004C0000C00FEFE12FEDC00FCFE12FEFC007CFEB8
:1004D00082C6440002FEFE020082FEFE82007CFE16
:1004E00082C644007CFE92D6C600000080C0F03C6C
:1004F0007CF0800000000080E06080C0E060E000F0
:100500000080C0C06060C0F87F070000E0E000002D
:100510000000C0C00000C0F038180C0606068E8E21
:10052000000080C0E06060E0800080FC7F07C0F0D9
:10053000FCCEC3C34F0630381E0707060602030F62
:100540001E3830001F3F1E0301000000001E3F3117
:1005500030180E1F3F3010001F3F3030180C1E3F68
:1005600020001F3F3030303818CCFE0F01003E7F96
:10057000616070381F07007F7F0000787F030000F4
:100580000000000000F838000000000000FC7C00C3
:1005900000000080C0C0C0C0000080F87E0E008057
:1005A000C06060E0C00000000000000000E0E6065F
:1005B00000C0C00080C0C0C080000000000000007B
:1005C00000000080E070301818181838F0E000C003
:1005D000C00080C0C0C0800000000080C06060E03B
:1005E000C0000080F8780000007C7F030303030351
:1005F000037F7F0000003C7F636070381F0F007F27
:100600007F00001E3F37363331180800000000001D
:10061000003C3F0100383F0F070100001F3F300042
:10062000000000000000001E3F7160606030301864
:100630000E0701383F0F070100001F3F3010001E5A
:100640003F373633311808303707000000FFAA550E
:10065000AA11000000110055AAFFAAFFFF41524451
:1006600055474F4C46F808F000F8A88800D820D825
:100670000008F80870C8F000F880F80088F88800D2
:1006800008F80804069F060402060F060242657376
:10069000743A0002022272FA222202022222FA7222
:1006A0002202FE00FA22FA02728A7202FA828202A0
:1006B000FAAA8A0202020202020202020202FE00F8
:1006C00002000200FA281200F228F200FA28D200F2
:1006D00002000200020002000200FF0092A84A008D
:1006E000FA20FA00728872000AF80A00020002007A
:1006F000020002000200FF007D24131C3D1DE71DC7
:10070000801B2E23E71C4B1CAD1C411A7088709077
:10071000F880C8A89088A8503820F8B8A84870A8D1
:100720004008C83850A85010A870000306090C0FE4
:100730001215181B1E2225272A2D303336393C3E30
:10074000414446494B4E505355575A5C5E60626473
:1007500066686A6B6D6E70717374757678797A7A83
:100760007B7C7D7D7E7E7E7F7F7F7F0000240348B3
:10077000066A098C0CAB0FC812E215F9180B1C1A8B
:100780001F2322282526281F2B112EFB30DF33BAEA
:10079000368C39563C173FCE417A441C47B4493F0A
:1007A0004CBF4E33519B53F5554258825AB35CD7D8
:1007B0005EEB60F162E864CF66A6686D6A236CC97F
:1007C0006D5E6FE2705472B573047541766B778419
:1007D0007889797C7A5C7B297CE37C897D1D7E9C91
:1007E0007E097F617FA67FD87FF57FFE7FD5F08D64
:1007F00014A1C881CFD9F1AF2000080B000202027A
:10080000000009040000010202000005240010019C
:100810000524010101042402060524060001070540
:10082000810310004009040100020A0000000705CE
:10083000020240000007058302400000040309048F
:1008400012010002EF020140412336800001010243
:10085000030141726475696E6F204C4C4300417214
:100860006475626F7900322811241FBECFEFDAE081
:10087000DEBFCDBF11E0A0E0B1E0EAE6F5E502C0E1
:1008800005900D92AC32B107D9F729E0ACE2B1E0A6
:1008900001C01D92A935B207E1F714E0C4E3D4E02A
:1008A00004C02197FE010E94AD2AC333D107C9F7C6
:1008B0000E9457280C94B32AA3CB8091200308955B
:1008C000FC0180915207882311F13FB7F89482E030
:1008D0008093E9002091F200822F90E0181619060B
:1008E00014F481E090E0882339F0289844E640939E
:1008F00051074091F1004083222339F02091F2000A
:10090000211103C02BE62093E8003FBF08958FEF2D
:100910009FEF08952FB7F89483E08093E9009091BA
:10092000E800892F807295FF04C09091F20080E466
:10093000891B2FBF08958091490781110DC082E066
:100940008093450784E080934607109248071092F1
:10095000470781E08093490785E497E00895A1E087
:10096000B0E0E5EBF4E00C94862A6983DC01ED91BC
:10097000FC910280F381E02D41E050E0BE016F5F09
:100980007F4F09952196E2E00C94A22A83E08093A0
:10099000E9008091F200882319F08AE38093E8004F
:1009A0000895B8DF90E00895A1E0B0E0EAEDF4E04A
:1009B0000C94862AFC018485958597FD08C02FEF4D
:1009C0003FEF358724872196E2E00C94A22ACE01DE
:1009D000019676DF019719F4898190E0F4CF8FEFCB
:1009E0009FEFF1CFA1E0B0E0E8EFF4E00C94842AAF
:1009F0008C01FC018485958597FF0AC0CE01019684
:100A00005FDF019761F4898190E0F8019587848721
:100A1000F801848595852196E4E00C94A02A8FEF57
:100A20009FEFF3CFFC018485958597FD0BC09FB7A1
:100A3000F89482E08093E9008091F2009FBF90E0FB
:100A4000019608959FB7F89482E08093E900809121
:100A5000F2009FBF90E0089540913F0750914007FA
:100A600020913D0730913E0742175307B4F490910F
:100A7000E8009570E1F39091E80092FD19C0809331
:100A8000F10080913F079091400701968F7399275D
:100A9000892B19F48EEF8093E80080913F079091A5
:100AA000400701969093400780933F0781E00895A7
:100AB00080E00895EF92FF920F931F93CF93DF93FF
:100AC000F82E192FE62E042F81E0860F880FC4DF41
:100AD00083E0C2DFCF2DD12FEC0EFD2EF11CCE1501
:100AE000DF0599F007FF0FC0FE018491B5DF182FD5
:100AF00080E0B2DF812321968111F1CFCDB7DEB73F
:100B0000E6E00C949E2A8881F1CF81E0F7CFB0E037
:100B1000A0E0EDE8F5E00C94812AD82E8A01EB01E3
:100B20007B01E40EF51ECE15DF0551F0D7FE0EC099
:100B3000FE01849191DF21968111F5CF0FEF1FEF18
:100B4000C801CDB7DEB7E7E00C949D2A8881F2CFCB
:100B5000A1E0B0E0EEEAF5E00C94842A82E089831B
:100B600042E450E06AEF77E080E8D1DFE4DEDC01C8
:100B700012960D911C910115110589F0D801ED9186
:100B8000FC910280F381E02DBE016F5F7F4FC801B1
:100B9000099597FD04C0F80100851185ECCF898186
:100BA0002196E4E00C94A02A615030F02091F100ED
:100BB000FC0120830196F8CF289884E680935107A2
:100BC00008958FB18095807F669B88601C9B8460B0
:100BD0000895109220033E983F9808953E9A3F9AB8
:100BE00081E080932003089520911903E091170379
:100BF000F0911803CF010296909318038093170386
:100C0000222319F08591949108958081918108950E
:100C1000CF92DF92EF92FF92CF93DF93E5DF8115C2
:100C200020E8920791F4809171008D7F809371008C
:100C3000109291004698479810921603DF91CF9139
:100C4000FF90EF90DF90CF90089521E0209316035E
:100C5000813020E8920749F48091140390911503A4
:100C60009093180380931703BFDF97FD05C0209171
:100C70001303222309F453C02091120321114FC002
:100C800021E020931A03EC01DF77209709F04AC096
:100C900081E080931B0346983FE9C32E3FE0D32EAB
:100CA000E12CF12CCAEFD0E0E0915709F0915809FE
:100CB0000995811103C081E080931B0380911A0381
:100CC000882329F080911B03882309F43EC04798AC
:100CD0008BDF0097F1F19C01DE010E94522ADC01BA
:100CE000CB0129E0B595A795979587952A95D1F7DA
:100CF000109290002AE020939100D0929900C09227
:100D0000980080931C0390931D03A0931E03B0933F
:100D10001F03809171008260809371008FCF1092C9
:100D20001A03B1CF9E0150E040E060E472E48FE02E
:100D300090E00E940A2A69017A0181E0C81AD1086C
:100D4000E108F10810921B03AFCF4699C0CF479A34
:100D5000BFCF8FEF9FEFDC01CBCF9C01E1E7F0E04D
:100D600090819D7F908310921903E9E4F9E0F0935C
:100D70001803E0931703F0931503E09314033183F2
:100D800020837383628380E090E89583848340CFDF
:100D90000895482FE82FEF7386FF03C080E48E1B71
:100DA000E82FF0E0EE0FFF1FE559F84F8591949181
:100DB00047FF03C09195819591090895E82FEF733E
:100DC00086FF03C090E49E1BE92FF0E0E65DF84F3C
:100DD000E49187FDE1958E2F0895EF92FF920F9396
:100DE0001F93A62FB0E0AA0FBB1FA056BC4FE42F45
:100DF000F0E0EE0FFF1FE056FC4F4D915C916081DB
:100E00007181460F571FE82FF0E0EE0FFF1FE056ED
:100E1000FC4F80819181480F591F80916307909109
:100E20006407DC01A01BB10BB7FF03C0B195A1950E
:100E3000B109BC016E197F0977FF03C071956195F7
:100E400071096A177B070CF4DB01821B930B97FF78
:100E500003C09195819591098A179B070CF4DC01D9
:100E60009D010E946A2A24E0880F991F2A95E1F7C4
:100E7000840F951F1F910F91FF90EF900895ECE361
:100E8000F3E0119287E0EC33F807D9F7089520E0FA
:100E9000AC01D703C0014E03821F312D5603000C55
:100EA000111C920B300D811D921F7403000C111C3C
:100EB000920B300D811D921F11240895A3E1B0E023
:100EC000E4E6F7E00C94762AFC0129833A834B830D
:100ED0005C836D837E830F83A1E6B7E0E980FA80AF
:100EE0008D919C911197E81AF90ACB80DC801296BB
:100EF0008D919C911397C81AD90A6D807E801496A3
:100F00008D919C91681A790A402E512C82010E5CB9
:100F10001F4F000F111FA801445C5C4F9701D701C0
:100F20000E946A2A4B015C019601D6010E946A2A3E
:100F3000860E971EA81EB91E9301D3010E946A2A2D
:100F4000860E971EA81EB91EDA01AD92BC92A28031
:100F5000B380848195819987888726803780A08592
:100F6000B185BD87AC87828593859F878E87A48551
:100F7000B585B98BA88B868597859B8B8A8BA08935
:100F8000B189BB87AA8760817181C70180DF4C016D
:100F9000B501C6017CDF880E991E68857985C3017D
:100FA00076DF880E991EB101C70171DF5C016C8587
:100FB0007D85C6016CDFA80EB91E6E857F85C301D5
:100FC00066DFA80EB91E68897989C70160DF7C01D8
:100FD0006A897B89C6015BDFE80EF91E6A857B851D
:100FE000C30155DFF201EE0FFF1FEE0FFF1FEE579B
:100FF000FE4F91828082B382A282F801E85BFA4FB1
:10100000E80EF91EF194E194F108F182E0828F81FB
:101010008F5F6396E2E10C94922A9C01B603C001B3
:101020006203000C111C00249009810D1124911DF4
:1010300008959C01369FC001279F800D911D379F09
:10104000900D269F810D1124911D08959C0136035A
:10105000C0017203800D911D379F900D269F810D59
:101060001124911D08959C013603C001729F800DCB
:10107000911D379F900D269F810D1124911D08957C
:101080009C013603C001269F810D1124911D0895F6
:10109000EF92FF920F931F93CF93DF93EC018D2F6D
:1010A00078DE8C0181E08D0F74DE7C0160E071E000
:1010B0006C1B7109C801D7DF8C016C2FC701E0DF01
:1010C000800F911FCDB7DEB7E6E00C949E2AACE00E
:1010D000B0E0EDE6F8E00C94792A4F8358876987F1
:1010E0007A878B879C87CF80D884E984FA840B85A4
:1010F0001C85C701F7FE04C0882799278E199F0910
:10110000980117FF04C022273327201B310B8217B9
:1011100093070CF4C9019601D7FE04C02227332798
:101120002C193D09821793070CF4C9018F3F9105D3
:10113000B1F0ACF0D7FE03C02FEFC21AD20AD5949B
:10114000C794F7FE03C03FEFE31AF30AF594E79460
:1011500017FF02C00F5F1F4F15950795CACFB60145
:10116000C60174DF4C01B701C70170DF880E991EFC
:10117000B801C8016BDF880E991E38E0532EA12CF0
:10118000BB24B39450E8652E77247394B501C50150
:1011900050DFBC01C4014DDF96958795B5019301E1
:1011A000281B390BC90145DF5C015A945110EECF61
:1011B000BC01C60158DFD82EC92EB501C70153DFC7
:1011C000F82EE92EB501C8014EDF2D2D3C2D4F2DF7
:1011D0005E2DBC0180E090E02C96EFE00C94952A07
:1011E000A5E1B0E0E6EFF8E00C947A2A18872987A9
:1011F0003A874B875C876D877E878F87A88AB98AF5
:10120000CA8ADB8AEC8AFD8A688879888A889B8802
:10121000AC88BD88602FC30100DF6C016885C40104
:10122000FCDEC80ED91E6985C501F7DEC80ED91EC1
:101230006A85C301F2DE7C016B85C401EEDEE80E37
:10124000F91E6C85C501E9DEE80EF91E6D85C30146
:10125000E4DE8C016E85C401E0DE080F191F6F8586
:10126000C501DBDEDA82C982FC82EB82800F911F2E
:101270009E838D832C2D3A814E2D5C81682F7E813B
:1012800080E090E06596EEE00C94962AEF92FF9253
:101290000F931F93CF93DF93DC0180E8689FB00129
:1012A0001124645C7C4F30E0F02EF40E015010E00D
:1012B0000F5F1F4FFD01942F549197FD06C0EB0166
:1012C000C90FD11DE11011C0588331969F5F9F1146
:1012D000F3CFA00FB11F3F5F60587F4F2313EACFBA
:1012E000CDB7DEB7E6E00C949E2A8881852B8883F3
:1012F000ECCFEF920F9323E0829FC0011124EE24E4
:10130000E39403E021E0845F984FC0DF0F91EF90FA
:101310000895FF920F931F93CF93DF93D62FC42F7F
:101320008C01083E83E0180710F007EE13E080E020
:101330000436110520F0045611098F5FF9CFF12C06
:101340000A30110520F00A501109F394F9CF8823CF
:1013500091F04C2F6D2FCDDF44E04C0F6D2F8F2D72
:10136000C8DF48E04C0F6D2F802FC3DFCDB7DEB74D
:10137000E5E00C949F2A44E0FF20A1F342E04C0FEB
:101380006D2F8F2DB6DF46E0EDCF1F93CF93DF9308
:10139000162FD42FC82F843608F0C3E680E0CA3059
:1013A00018F0CA508F5FFBCF42E0882321F04D2F09
:1013B000612F9FDF44E04D0F612F8C2F9ADFDF916B
:1013C000CF911F910895FDDB6091790160956823AD
:1013D0008093790190917A019F5F90937A01E091D7
:1013E0007801F0E0EE0FFF1FE850F94F259134919E
:1013F000F901099508958091370390913803209160
:10140000390330913A03E0917D01F0917E016091C2
:101410007F01709180014091350350913603A09176
:101420007B01B0917C014A1B5B0B57FF03C05195B8
:10143000419551094F3F510509F0BCF48E1B9F0B9C
:1014400097FF03C09195819591098F3F910509F010
:1014500064F4261B370B37FF03C031952195310902
:1014600081E02F3F310511F00CF080E0089586E017
:10147000EFE2F3E0ABE7B1E001900D928A95E1F77E
:1014800086E0EDE3F1E0DF01982F1D929A95E9F7F0
:10149000E7E3F1E0DF011D928A95E9F70895809373
:1014A0003C07E5DF10927A011092770110927601E5
:1014B00010925C0110925B0180E28093320180E027
:1014C00090E19093600180935F0181E080937801C7
:1014D00008956091810183E0689FB00111246653F3
:1014E0007C4FFB012491319694916E5F7F4FFB01FD
:1014F000649170E080E0862F77276627792B622B36
:101500000895CF93C82FE5DF9B01482F8C2F90E0E3
:10151000982F8827990F990F092E000CAA0B9F5F0F
:10152000AF4FBC018A2F620F731F841FCF910895A4
:101530008032B9F0E82FEE0FFF0BE253FD4F85919B
:101540009491292F269526952F7149F425E096959B
:1015500087952A95E1F78F7121F481E0089583E062
:10156000089582E0089587FD1BC060347105C0F4C2
:10157000FB0194E0EE0FFF1F9A95E1F7E078F3701E
:10158000E80FF11DE45CFC4F6770772781E090E085
:1015900001C0880F6A95EAF780959081892380833E
:1015A0000895CF93461757070CF438C057FD36C03F
:1015B000603471059CF587FD31C077FF02C070E093
:1015C00060E0C62F4F33510514F04FE350E0C87F61
:1015D000942F987F6770772762507F4FFB0164914B
:1015E000FA01E770FF27EA50FF4F4491E82FF0E03F
:1015F00080FF232F80E1C89FD0011124AE0FBF1FB1
:10160000A45CBC4F3C91C9130BC0E62FE4239E2F72
:101610009095922BE223E32BE923EC93CF9108954D
:10162000862F8095582F522BE62FE2238E2F832B67
:1016300085238C93A058BF4F892F8C1B8850181678
:1016400024F42C93A058BF4FF9CF6C91E42FE09570
:101650008E2F822BE42FE223E62BE823DECFA8E0B7
:10166000B0E0E5E3FBE00C94762A4C0178876F83C9
:101670005A01DC82CB824617570764F0E016F10668
:101680004CF09E2D8F2D7801092F182F8B2D5B018B
:101690004F838887A901481959095A83498327012B
:1016A0004A185B0857FE03C0519441945108180131
:1016B0006F817885261A370A37FE03C0319421944A
:1016C00031086A2D67708F818770EA14FB0414F467
:1016D00061956770EF81F8850E171F0714F48195E7
:1016E0008770482D47704450042E000C550B6850ED
:1016F000770BE981FA816E9F30016F9F700C7E9F9E
:10170000700C1124449EB001459E700D549E700DC6
:101710001124661A770A7594679475946794759482
:1017200067948850990B8E9F60018F9FD00C9E9F6D
:10173000D00C1124249EC001259E900D349E900D46
:101740001124C81AD90AD594C794D594C794D594AE
:10175000C7949FEFAE14BF040CF491E04F815885FD
:101760008FEF401751070CF481E0EA14FB041CF4DE
:1017700051E0A51AB1086F8178850617170724F480
:101780006150710978876F839594879495948794B5
:10179000959487942D5F3F4F7901F594E794F594E4
:1017A000E794F594E794B594A794B594A794B59469
:1017B000A794EF81F885F595E795F595E795F5956B
:1017C000E795F887EF83292F990F330B3E832D83FD
:1017D000082F880F110BE814F90449F116141704A7
:1017E0004CF44D815E81A40EB51E69817A81661A22
:1017F000770AF4CF1C141D045CF48F819885800F48
:10180000911F98878F83E981FA81CE1ADF0AF2CF80
:101810002B813C814F815885B501882DC2DEFFEFB9
:101820008F1A9F0A640C751CC20CD31CD4CF289647
:10183000E2E10C94922AA4E0B0E0E1E2FCE00C9436
:10184000762A7B01EE27FF27E41BF50B6E177F0737
:101850000CF481C08C018E179F070CF47CC0FA0138
:10186000FC5FE617F70708F476C0E817F90708F4F5
:1018700072C049017B01F594E794F594E794F594DF
:10188000E79415950795159507951595079583E0A8
:10189000569547958A95E1F728EF24031001259F77
:1018A000300C112488E0280E311CCA01880F991FC2
:1018B000880F991F25E030E05901A81AB90A5C8306
:1018C0004B83D12CC12C8CE090E09A8389839401C6
:1018D0006B807C80600E711EA30128018B819C812E
:1018E000481A590AB2018E2D8C0D5BDE9401A301BA
:1018F000B2018E2D8C1955DE94013601600E711ED9
:10190000A30128014C185D08B2018B818E0D49DEC0
:101910009401A301B2018E2D9B81891B42DEB7FC8D
:101920000AC0A20CB31C88E0280E311C8B819C815C
:1019300001979C838B8389819A81A80EB91E089692
:101940009A8389839FEFC91AD90A8B819C818C1550
:101950009D050CF0BCCF2496E2E10C94922AE62F70
:10196000E770F0E0E251FF4FE49166956695669569
:1019700090E8699FD0011124A80FB11DA45CBC4F51
:101980008C91E827EC930895A3E0B0E0EAECFCE04A
:101990000C947D2A182FF62EE42FEE0FFF0BE25346
:1019A000FD4F25913491822F8F718983C90145E0C4
:1019B000969587954A95E1F78F718A83932F96952F
:1019C00096959F719B8303E0911104C002E0811101
:1019D00001C001E0CE0101965C01902E910EF5014F
:1019E00081915F01EF2C882361F0C82ED12C80FFFC
:1019F00003C06E2D812FB3DFE394C60195958795C3
:101A0000F2CF1F5F1911EBCF802F2396EBE00C94E0
:101A1000992A0F931F93CF93C82F8B01F8014191FF
:101A20008F01442351F0403211F4CD5FF7CF64E2CF
:101A30008C2FAADFCF5FC80FF1CFCF911F910F91ED
:101A40000895E62FE770F0E0E251FF4FE4916695CC
:101A50006695669590E8699FD0011124A80FB11D85
:101A6000A45CBC4F8C91E82BEC930895B0E0A0E00F
:101A7000ECE3FDE00C947D2A10916101611708F000
:101A80007CC0161B1A3008F019E0062FC82FE82E6C
:101A9000EE0CEE0CEE0CDAE01D9FD02D11249EE032
:101AA000D92EDD0EF12C69E06E0D8F2DCADF61E1BC
:101AB0006E0D8F2DC6DF69E16E0D8F2DC2DFF394A1
:101AC000F394DF1480F720E8C29FF0011124AF01E6
:101AD00044545C4F90E0DA01A90FB11D9D012058DC
:101AE0003F4F8AEAF90180838C93965FD91798F764
:101AF000FA01ED0FF11DDF01A257BF4F8C938687CE
:101B0000802F90E09C01275B3E4F690182E0B82E58
:101B1000AA24A394F12CE12C912C1A1500F14B2D41
:101B20006C2F8A2D800F31DCF60181916F01E80E58
:101B3000F11C882381F04B2D62E06C0F26DCEFEF67
:101B4000E00FEA0DF0E0EF59FE4F8181980E4B2D2A
:101B500061E06C0F1ADCA394FAE0BF0EDECF99208F
:101B600061F0DE5F61E06C0F4D2F892D90E0D1DBDD
:101B700062E06C0F4D2FC701CCDBCDB7DEB7EBE0D9
:101B80000C94992A0F931F93492F50E0440F551F2F
:101B90004A5F5E4FFA0125913491FA013296A59180
:101BA000B491482F4095349FB001249F610D1124BA
:101BB000711DB89FA001A89F410D1124511D460F12
:101BC000571F232F3327FA01E20FF31F9F01DC0178
:101BD0000E94522A072F182F292F332780E090E0E8
:101BE000A2E0801B910BA20B9C014A2F50E0DF0169
:101BF0000E94262A1F910F910895B0E0A0E0E3E033
:101C0000FEE00C947E2A5C01E9018417950739F106
:101C1000D801A21BB30B201731071CF0D901A01B60
:101C2000B10B9B012A193B090E94522A6B017C01CE
:101C3000CA018A199B098F3F9105B9F0B0F0A2DF64
:101C400055274F2D3E2D2D2DDC010E94262A0C17E5
:101C50001D071CF4919581959109C80FD91FCE01DC
:101C6000CDB7DEB7EAE00C949A2AFC01EE0FFF1F15
:101C7000EA5FFE4FA591B491A7019601E6CFB0E0CF
:101C8000A0E0E5E4FEE00C94782A4B015C01EA0157
:101C9000280139019B01A70160E071E0CE01ADDFB1
:101CA0006C0183019501A70160E071E0CE01A5DF21
:101CB000B601CDB7DEB7E0E10C94942AAAE0B0E01B
:101CC000E4E6FEE00C94762A4C012A011801B42FB8
:101CD000A52F4817590714F4B82FA92FEB2FFA2F67
:101CE000E215F3050CF4F801F7FDD9C0B42FA52FC8
:101CF0008414950414F4B82FA92FEB2FFA2F2E1665
:101D00003F060CF4F801E130F2400CF0C8C05B0172
:101D10003A8729873701261737070CF0E4C0E61603
:101D2000F7060CF0C0C02C014A017A876987590177
:101D30006A147B040CF4BFC0782D692D9A2D8B2D6D
:101D400048015701120169847A842401BA86A98660
:101D5000872E962EA92EB82E77FCA1C0A114F4E0F0
:101D6000BF060CF09CC0A614B70409F498C081010A
:101D70009401A30169857A85C5013FDF89839A8330
:101D8000EC2DF0E0EE0FFF1FEA5FFC4F2591349140
:101D90003E832D83B7FE9DC08201940149855A85FB
:101DA00070E060E0C50129DF7C0109811A8194019E
:101DB00049855A8570E060E0C5011FDF8B839C83F5
:101DC0004701B12CA12C89859A858130A4E09A071E
:101DD0000CF482C082019401AC0160E074E0C501A2
:101DE0000CDF8F83988709811A812B813C8149857B
:101DF0005A8560E074E0C50100DF20E034E0A216FF
:101E0000B30654F4CD80DE807C010F8118854B81B0
:101E10005C81B401C50123DCE985FA85F7FF14C0B4
:101E200081019201A30170E060E0CF01E6DE2C01A8
:101E300029813A81A30170E060E089859A85DDDE21
:101E400089839A831A861986C101F1E06F16F4E03E
:101E50007F06ACF081019201A30160E074E0898506
:101E60009A85CBDE7C0129813A81A30160E074E090
:101E700089859A85C2DE1701612C24E0722E29859E
:101E80003A85261537055CF4CD80DE807C01810122
:101E9000930149815A81B20189859A85E0DB2A96AE
:101EA000E2E10C94922A742F652F922F832F280140
:101EB000FA86E98647CF982D892D48011201492ECF
:101EC000582E9A2D8B2D570169847A8499878A8799
:101ED00043CF8B829C8277CF89819A814F825886AB
:101EE00029853A858CCF89859A85E816F9060CF400
:101EF0001FCF32CFA6E3B0E0E0E8FFE00C94762AF3
:101F0000E0905507F0905607009153071091540741
:101F1000C801BED86C01C801905CBAD88C01C70159
:101F2000B7D85C01C701905CB3D87C019A838983E0
:101F30001C821B82BE82AD82B501C6010E9447078A
:101F400098878F831A870987B701C6010E944707C0
:101F50009195819591099C878B87B501C8010E9455
:101F600047079195819591099E878D87D88ACF865D
:101F7000B701C8010E9447079A8B898B3CDA8CA76E
:101F80008111DBC100E020917B0130917C01409107
:101F90007D0150917E0160917F0170918001CE01A1
:101FA00001960E945E07582E2091AC053091AD0538
:101FB0002F3F310509F00CF4C4C1409182015091CA
:101FC00083016091840170918501CA01409386016B
:101FD00050938701609388017093890180589F4FC7
:101FE00090938701809386013093AF052093AE05CF
:101FF0008091A0039091A1039093A3038093A203E7
:1020000020917D0130917E017901890140E060E0FD
:1020100080E00E94ED0680579E4F90937904809354
:1020200078048FEF80936A07539401E00CA721E0B6
:1020300029A36090350370903603E0903703F09049
:102040003803A0903903B0903A0347019394262DAA
:102050007A8E698E482D9C8E8B8E6A2DBE8EAD8EAB
:10206000052D3A8D5C8D7E8DCE0101960E945E0716
:10207000082F282F30E0A901495C5E4F440F551FFF
:10208000FA01E45CFC4F20803180F901EE0FFF1F64
:10209000EE0FFF1FE258FE4F80819181A281B38134
:1020A00060817181CB01C096220F331F220F331F35
:1020B000F901EE57FE4F80839183A283B383425C84
:1020C0005C4FDA012D923C920F5F6701BBEFDB1A88
:1020D0004C2DDC8ECB8E298D3A8D5C8D6D8D7E8D59
:1020E000CE0101960E945E07482E90E0DC01A95CBB
:1020F000BE4FAA0FBB1FFD01E45CFC4F00811181A4
:1021000031E0EFEF2E16310409F00CF430E021E05D
:102110000F3F110509F00CF420E0332E3222FC01B0
:10212000EE0FFF1FEE0FFF1FE258FE4F408151815F
:102130006281738120813181A901405D5F4F880FE9
:10214000991F880F991FFC01EE57FE4F4083518362
:1021500062837383A25CBC4F0D931C9301E0040D5A
:10216000C701995F482F9C8F8B8F298D3A8D5C8D8D
:102170006D8D7E8DCE0101960E945E07082FE82F9F
:10218000F0E0EE0FFF1FE655FA4F21E080819181CC
:102190008F3F910509F00CF420E0322280917A0102
:1021A000880F880F880F0E94DE06680E711C87FD5D
:1021B0007A94262D7A8E698EFAEFFF1A4E2DFC8EB8
:1021C000EB8E32E0B31A6A2DBE8EAD8E3A8D5C8DE9
:1021D0007E8DCE0101960E945E07782EE82FF0E0FA
:1021E000EE0FFF1FE655FA4F808191818F3F9105D9
:1021F00009F00CF46BC0332009F468C082E0682E4B
:10220000650C44244394450C49A1A42EB12C7601BD
:1022100084019401462D642D852D0E94ED06F50163
:10222000EE0FFF1FE858FB4F91838083F501EE0FFF
:10223000FF1FEE0FFF1FE959F84F50824182628263
:1022400044E0242E238253E0352E350CA9A0A3941C
:10225000B12C86019401432D662D842D0E94ED063C
:10226000F501EE0FFF1FE858FB4F91838083F501C6
:10227000EE0FFF1FEE0FFF1FE959F84F40826182FA
:1022800032822382E5E09E2E950C520CA9A0A394E5
:10229000A394B12C9601492D652D832D0E94ED0646
:1022A000F501EE0FFF1FE858FB4F91838083F50186
:1022B000EE0FFF1FEE0FFF1FE959F84F60825182AA
:1022C000928283E0838359A15D5F59A3D72C10E0EC
:1022D000809127031817B8F5E12FEE0FA1E0AE0F9C
:1022E000B0E0A055BC4F8C91A12FB0E0A45CBC4FD6
:1022F0006C91F0E0E055FC4F408190E44902A00170
:102300001124242F5C8B4B8BA0E46A02B0011124B2
:10231000462F7E8B6D8BB0E48B02C0011124682F99
:10232000988F8F8B0D2D3C895E89788DCE0101961B
:102330000E945E07D82E1F5FCBCF1CA619A2512C7E
:1023400078CE19A276CE88E293E0E9A1EDA730E03D
:1023500070E020E013E0DC014D91CD01740F319F5E
:10236000F0011124E058FB4F371708F043C060819B
:10237000670D5181570D4281470DA62FB0E0AA0F7E
:10238000BB1FA455BA4F0D90BC91A02DAF3FB10516
:1023900009F0D4F4A52FB0E0AA0FBB1FA455BA4F83
:1023A0000D90BC91A02DAF3FB10509F06CF4A42FA6
:1023B000B0E0AA0FBB1FA455BA4F0D90BC91A02D41
:1023C000AF3FB105A1F09CF0FDA404E0F09ED00168
:1023D0001124A959B84F6C9311965C9311971296DA
:1023E0004C93129713962C930F2D0F5F0DA73F5F01
:1023F0003396BACF2F5F253009F0ADCF29A1822FB8
:1024000090E09C01220F331F220F331FA90149596D
:10241000584F58A34F8F880F991FDC01A858BB4F06
:10242000BEABADABBDA5BBA7E72DF0E0FAABE9AB0A
:10243000FDA5F9A0FF1608F468C062E8A62E61E0C9
:10244000B62E7CEA872E75E0972EC12C612C77245E
:102450007394DC1090C25AE7E52E54E0F52E0BE69B
:1024600017E091E0EBA59E1708F0F5C2D7016D913A
:102470007D917D01F80181909190A190B1908F01A3
:10248000892F282F30E0A90143565F4F440F551F75
:10249000FA01E45CFC4F0190F081E02D425C5C4F5E
:1024A000E617F707E0F4DA01ED93FC93D901AA0FE0
:1024B000BB1FAA0FBB1FA959B84F220F331F220FF2
:1024C000331FF901ED59F84F4080518062807380CD
:1024D0004D925D926D927C921397815091F6282FC8
:1024E00030E0F901EE0FFF1FE858FB4F7183608366
:1024F000220F331F220F331FF901E959F84F808251
:102500009182A282B3829F5FADCFAF8DB8A1BC9103
:10251000B9A7EF8DF8A1F181FAA7AF8DB8A11296F6
:10252000CC9012971396BC91BEA7F9A4EF2DF0E0C2
:10253000EE0FFF1FE455FA4F208131813CA32BA3FE
:102540003AA5E32FF0E0EE0FFF1FE455FA4F40816C
:1025500051815EA34DA36C2C712CF301EE0FFF1F74
:10256000E455FA4FA080B180552453948BA19CA1CF
:102570008F3F910511F00CF0512CADA1BEA1AF3FE2
:10258000B10509F014F4689451F8BFEFAB16B1042B
:1025900009F014F4689452F8F30129A93AA9E21B4E
:1025A000F30BE45CFC4F808130E483027001112462
:1025B0004AA5842E912CF40189A99AA9E81BF90B4C
:1025C000E45CFC4F008190E4090280011124A9A57C
:1025D0002A2E312CF10129A93AA9E21BF30BE45C64
:1025E000FC4F208140E42402900111244C2D6AA567
:1025F0008A2F0E94ED069CAB8BABADA9BEA98D9333
:102600009D93BEABADAB252D30E0C901019785216F
:102610009323892B09F4C5C0B2E6BD1508F47DC02B
:10262000880C991C880C991CF401EE57FE4F4F0141
:10263000660C771C660C771C93012E573E4F38A70B
:102640002FA33101660C771C660C771CA3014E5733
:102650005E4F3A01DA016D917D918D919C9150FC14
:1026600065C02080318042805380EBA0FCA08B01AC
:102670009C014DA15EA1C201B10101DB1B012C0136
:10268000F3010081118122813381AFA1B8A56D9141
:102690007D918D919C91EBA0FCA0A501F0DA2D2DF0
:1026A00030E0F901EE0FFF1FEE0FFF1FEE57FE4F58
:1026B0002082318242825382220F331FF901E45576
:1026C000FA4F20E031E03183208321E02D0D422FAD
:1026D00050E0FA01EE0FFF1FEE0FFF1FEE57FE4F07
:1026E0006083718382839383CA01880F991FFC01E1
:1026F000E455FA4F40E051E051834083E9A5AF8DA6
:10270000B8A1EC9311962C9311971296DC92129724
:10271000FEA51396FC93D394D39499A19F5F99A39C
:10272000AF8DB8A11496B8A3AF8F82CE51FC1DC057
:102730000081118122813381EDA0FEA04BA15CA11B
:102740009EDA1B012C01D4010D911D912D913C911C
:10275000EFA1F8A56081718182819381EDA0FEA037
:10276000A5018DDAFAA5F9A79ACFAFA1B8A50D9169
:102770001D912D913C9175014BA15CA180DA1B014B
:102780002C01EFA1F8A50081118122813381D401B0
:102790006D917D918D919C914DA15EA170DAC9A63C
:1027A0007ECF552009F4B9CF62E6F62EFD1408F469
:1027B000B4CF0BA5043608F0B0CF880C991C880C58
:1027C000991C94012E573E4F38A72FA3660C771CF7
:1027D000660C771CA3014E575E4F58AB4FA74101C3
:1027E000880C991C880C991CC4018E579E4F4C0173
:1027F00050FE77C0D9010D911D912D913C91FC01A6
:102800006081718182819381EDA0FEA04BA15CA1CA
:1028100036DA2B013C01AFA5B8A90D911D912D9180
:102820003C91F401608171818281938175014BA19A
:102830005CA125DA2D2D30E0F901EE0FFF1FEE0F20
:10284000FF1FEE57FE4F4082518262827382220F39
:10285000331FF901E455FA4F20E031E03183208342
:1028600021E02D0D422F50E0FA01EE0FFF1FEE0F79
:10287000FF1FEE57FE4F6083718382839383CA01EB
:10288000880F991FFC01E455FA4F40E051E0518355
:102890004083AF8DB8A1DC92EAA51196EC93119715
:1028A0001296CC921297FEA51396FC93FBA4EF2DE3
:1028B000F0E0DF01AA0FBB1FA858BB4F4BA95CA9D2
:1028C0004D935C93EE0FFF1FEE0FFF1FE959F84F7A
:1028D000D082C18222835EA553838F2D8F5F8BA709
:1028E0001ACFAFA5B8A96D917D918D919C9151FEA4
:1028F00023C0EFA1F8A540805180628073807501EC
:102900008B019C014DA15EA1C301B201B8D92B017D
:102910003C01D4010D911D912D913C91EFA1F8A5A1
:102920006081718182819381EBA0FCA04DA15EA1A9
:10293000A6D9CAA6C9A47ECFD4010D911D912D910F
:102940003C91EBA0FCA0A5019AD92B013C01EFA181
:10295000F8A50081118122813381AFA5B8A96D91BD
:102960007D918D919C91EDA0FEA0A50188D9CAA46E
:10297000B9A5BAA75FCFF50100811181E280F3808C
:10298000D4018D919D914D018F3F9105D1F1CCF1F5
:10299000F9D89C01D8010E94702A1B012C01D70193
:1029A0000E94702A2114B8E73B064104B4EC5B0690
:1029B000CCF12114E8E83E06EFEF4E06EBE35E06AD
:1029C000C4F56115F8E77F078105F4EC9F07CCF1AA
:1029D000611508E870070FEF80070BE39007B4F567
:1029E00092018101BFE03695279517950795BA9515
:1029F000D1F72FE096958795779567952A95D1F72A
:102A00007B011E5FD50111961C930E93C3018E1995
:102A10009F0913969C938E931297C394B4E0AB0EC8
:102A2000B11C17CD212C48E7342E412C44EC542EF8
:102A3000C8CF212C38E8332E44244A943BE3532E4C
:102A4000C0CF60E078E780E094ECCACF60E078E83F
:102A50008FEF9BE3C5CF0E943F0737E6832E37E019
:102A6000932ED12CB12CA12CBBA5BD1509F44CC0C3
:102A7000F401C380FFEFCF121FC0FCA4FF20B9F008
:102A8000A0908601B090870180918201909183018E
:102A9000A81AB90A60918201709183018091840122
:102AA000909185012FEF3FEFA5010E941B0CD3945D
:102AB000E4E08E0E911CD8CFD4011296EC91B4E0D4
:102AC000EB9FF0011124EE57FE4FE080F180028170
:102AD0001381D4011196EC91B4E0EB9FF001112425
:102AE000EE57FE4F2081318142815381D401EC9118
:102AF000B4E0EB9FF0011124EE57FE4F608171812D
:102B000082819381DBD8D3CFFCA5FF2309F498C041
:102B100085010C5F1F4FE0908201F09083018827B0
:102B20009927801B910BE816F9060CF489C0C09018
:102B30008401D0908501C816D9060CF481C024E028
:102B4000A20EB21EAE14BF0408F47AC0AC14BD04C9
:102B500008F476C0F594E794F594E794F594E79437
:102B6000D594C794D594C794D594C79483E016950B
:102B700007958A95E1F728EF20031001219F300C7B
:102B8000112438E0230E311CC801880F991F880FCB
:102B9000991F25E030E04901881A990A4CE050E07D
:102BA0005AA349A3B12CA12C3601601A710AB301B2
:102BB0005A2D5E0D5F8F852F0E94B30A2601400EAD
:102BC000511EB2018F8D0E94B30AB3017E2C7A1878
:102BD000872D0E94B30AB201872D0E94B30A3601E5
:102BE0006A187B08B301802F8E0D8F8F0E94B30A65
:102BF00025014C0C5D1CB2018F8D0E94B30AB301FC
:102C00007E2C701A872D0E94B30AB201872D0E9474
:102C1000B30A97FC07C0820C931C98E0290E311C64
:102C200001501109A9A1BAA18A0E9B1E1896BAA338
:102C3000A9A3BFEFAB1ABB0A0A151B050CF0B4CF52
:102C40008BA5E696E2E10C94922AEF920F931F93E4
:102C5000CF93DF934FD990917801963009F073C0EC
:102C600080913101803208F479C0C0915E014C2F0F
:102C7000419580917501E12C0AE2882309F472C024
:102C800024E060E08BEE93E00E94460944E24C1B96
:102C9000EE24E39403E021E060915D0188EE93E08F
:102CA0000E944609C09131014C2F4195E12C0CE165
:102CB00023E065E084EA96E00E944609D2E1DC1B4D
:102CC00000913C074D2F65E081E0800F0E94C5090F
:102CD00010E0F801EF59FE4F4D2F66E081810E9410
:102CE000C509F801E75BFE4F80814D2F67E08F5FDC
:102CF0000E94C509C530E8F586E08C1BEC2FF0E09A
:102D0000EA54FC4F9F013C5FDF0190E01D929F5F02
:102D10008913FCCF9FEF9183E058FF4F2E173F0799
:102D200099F70DE70C0F80913201869510E4181B7E
:102D30001034F8F4D02FD7FD1AC0612F8D2F0E94C8
:102D4000210DDF5FF8CF80915E018A3218F48D5F2C
:102D500080935E01923009F488CF82CF8F5F809399
:102D6000310183CF23E060E085E194E08DCF1F5FE8
:102D7000DFCF44E64C0FE12C08E121E067E080ED75
:102D800093E00E944609DF91CF911F910F91EF9040
:102D90000895FF920F931F93CF93DF938091350394
:102DA0009091360320917B0130917C01821B930B23
:102DB0000091390310913A0320917F0130918001F5
:102DC000021B130BF12C17FF05C01195019511097A
:102DD000FF24F39497FF05C06894F1F891958195CD
:102DE0009109801791073CF46894F2F8302F212F55
:102DF0008C01832F922F8F3F910511F00CF04EC064
:102E0000FC01EE0FFF1FEA5FFE4F25913491D801C0
:102E10000E94702ADC01CB0153E0B695A7959795E7
:102E200087955A95D1F7182FC92F40E0D42FFE016E
:102E3000EE0FFF1FE455FF4F85919491FE01EE0FB9
:102E4000FF1FE255FF4FC591D49160E071E0611B17
:102E500071090E941908D19F9001C19F210D112471
:102E6000311D820F931FF2FE06C020E030E4A9015D
:102E7000481B590BCA01F1FE06C020E030E8A90149
:102E8000481B590BCA01F0FE03C091958195910929
:102E9000905CCDB7DEB7E5E00C949F2A0E94C20D8E
:102EA0009C01D8010E94702ADC01CB013BE0B69561
:102EB000A795979587953A95D1F7B5CFB0E0A0E063
:102EC000E4E6F7E10C94812A7C018B01D22EFC010F
:102ED00080819181461B570B57FF02C04D5F5F4FAA
:102EE0005595479555954795EA01C81BD90B6D2D0A
:102EF0000E944008080F191F6D2DCE010E94400846
:102F0000F70120813181820F931F91838083C80153
:102F1000CDB7DEB7E7E00C949D2AAF92BF92CF9277
:102F2000DF92EF920F931F93CF93DF9300D000D0E7
:102F300000D0CDB7DEB749835A836B837C838D8302
:102F40009E83590149815A8181E6C82E87E0D82E97
:102F5000F6016081718120E487E597E0AFDFF6013B
:102F6000918380834B815C816281738120E489E558
:102F700097E0A4DFF601938382834D815E816481B3
:102F8000758120E48BE597E099DFF60195838483D2
:102F900060915507709156072E2DA5018DE597E09C
:102FA0008DDF90935607809355076091530770917A
:102FB00054072E2DA8018FE597E080DF90935407EA
:102FC0008093530726960FB6F894DEBF0FBECDBF91
:102FD000DF91CF911F910F91EF90DF90CF90BF9035
:102FE000AF9008950DB407FEFDCF8EB51EBC0895B9
:102FF000EF92FF920F931F93CF93DF937B018C018E
:10300000D0E0C0E02196CE15DF0561F0EBDFF801DE
:1030100081938F01EC16FD06A8F7CDB7DEB7E6E089
:103020000C949E2A0DB407FEFDCF8EB5599AF80177
:103030008083F3CF8EBD00000DB407FEFDCF8EB5AB
:1030400008951F93CF93DF93EA01162F5998F2DF6B
:10305000812FF0DF8D2FEEDF8C2FECDFDF91CF9112
:103060001F910895AB01682F0090F708500D009054
:10307000F808601D83E0E5DF1EBC089560918101C2
:1030800080E4689FB0011124072E000C880BEADF52
:1030900060E470E082E891E0ABCF0895AB01682F67
:1030A00000902103500D00902203601D83E0C9DFD2
:1030B0001EBC0895809381010E94690AEFDF63E1DD
:1030C00070E081E691E094DF10923C07089580E083
:1030D000F1DF80E00E944F0AE9E4F1E0119281E023
:1030E000EB35F807D9F71092780186E0ECE0F1E0D3
:1030F000A1E6B7E001900D928A95E1F780E090EEAD
:10310000909356078093550780E09FE09093540773
:10311000809353078091750181708093750180E2DF
:10312000809331018AE280935E01109274010895C8
:1031300080E0C0DF80E00E944F0AC9CF089559980F
:1031400079DF599A0895CF93DF93EC0186E0F7DF9A
:103150004091F7085091F8084C0F5D1F60E0652F13
:10316000542F442784E06DDFC0E0EC2FF0E0E959F4
:10317000F84F80815FDF81E08C0FCF3F21F4599AB7
:10318000DF91CF910895C82FF0CFCF93DF93EC015B
:1031900086E0D5DF4091F7085091F8084C0F5D1F8D
:1031A00060E0652F542F442780E24BDF599ADF916E
:1031B000CF9108953FB7F89480912D0190912E0101
:1031C000A0912F01B091300126B5A89B05C02F3FDB
:1031D00019F00196A11DB11D3FBFBA2FA92F982F3D
:1031E0008827BC01CD01620F711D811D911D42E038
:1031F000660F771F881F991F4A95D1F708958F9200
:103200009F92AF92BF92CF92DF92EF92FF926B01AB
:103210007C01D0DF4B015C01C114D104E104F10455
:10322000B1F0C8DF681979098A099B09683E7340C3
:103230008105910588F381E0C81AD108E108F108F9
:1032400028EE820E23E0921EA11CB11CE5CFFF9058
:10325000EF90DF90CF90BF90AF909F908F900895A8
:1032600065E070E080E090E0CACF0895B0E0A0E0B3
:10327000ECE3F9E10C947C2A6C017B018A018091DA
:103280000B01882309F45BC080915207882309F45D
:1032900056C08091440780FF05C08091E0008260A5
:1032A0008093E000E801B12C8AEFA82E93E0892EEC
:1032B0002AE3922E209711F4BB20D1F10E948A04B8
:1032C000811109C0AA94AA20D1F161E070E080E0E8
:1032D00090E095DFEFCF8C171D0611F00CF08C2FCE
:1032E0009FB7F8948092E9002091E80025FD02C084
:1032F0009FBFE0CF282F30E0C21BD30BF7018150D6
:1033000020F041914093F100FACFE20EF31EBB2072
:1033100021F09092E800B12CEBCF8091E80085FD80
:10332000E7CF9092E800BB24B394209709F3F3CF42
:103330005D9884E680934307101611063CF081E007
:1033400090E0F6019383828310E000E0C801CDB7DE
:10335000DEB7ECE00C94982AEF92FF920F931F9344
:10336000CF93DF93EC01E62E142F842F0E94DE060C
:10337000082F80E4810F0E94DE06182F8E2D0E94F8
:10338000DE06F82E80E48E0D0E94DE0688834F2D27
:1033900084039001112439839403900111243A830A
:1033A0001B821C83902F91959D83F194FE82482F60
:1033B0008403900111243F839403C0011124988752
:1033C000CDB7DEB7E6E00C949E2AADE1B0E0EBEEBF
:1033D000F9E10C94762A4E8B5F8B688F798F8A8FF8
:1033E0009B8F322E532E202E412E6E887F88888C04
:1033F000998C2A8D3B8D3D8F2C8F442D4195652DC9
:103400006195CE010196A8DF1B861A861D861C8653
:10341000A12CBB84C12CDD8409811A812B813C81C4
:103420004D815E816F81788589850E94F008288BA7
:10343000398B4A8B5B8B6C8B7D8B88899989680E65
:10344000791E8A899B89880E991E8C899D892C8D6D
:103450003D8D820F931F462D7A826982682D9C8252
:103460008B829E838D8390E4E92E022D142D232DD3
:10347000352D5A817C819E8150DD6D96E2E10C9460
:10348000922AA6E0B0E0E7E4FAE10C947E2AD62E78
:103490000E94370A20917601309177011A821982B1
:1034A00080E0682F8B8384EF8C831E821D82E12C49
:1034B00048E2F42E00E717E140E05A8174EF80E023
:1034C0009E8183DF8091760190917701939590930F
:1034D0007701809376010E947A0FE12C0AE121E0C6
:1034E00040E063E084EA96E00E94460901E121E0C1
:1034F0004AE163E083E996E00E94460910913C07A7
:1035000042E163E081E0810F0E94C509B7DDE12F50
:10351000F0E0EE57FE4F028D0436F0F410922005D5
:103520008EEF80932105E2E2F5E086E692E091934A
:103530008F5F8038D9F72DE8E22E26E0F22E17E6CD
:10354000F7014491FFEFEF1AFF0A41112FC049E73D
:1035500063E0802F0E94C509ECE3F5E082E08193EF
:1035600025E0EC3BF207D1F7ECEBF5E0119237E008
:10357000EC33F307D9F70E94690A90DD63ED70E040
:1035800082E891E035DD65E971E080E00E94090D97
:1035900010E095EBE92E91E0F92EF70181917F0182
:1035A0008823A1F0803269F41D5FF7CF403211F417
:1035B0001D5FC6CF6BE1812F0E94C40C1F5F180FE7
:1035C000BFCF0E94980A1F5F180FE7CF111111504B
:1035D00065EB71E080E8811B0E94090D00E018E0B6
:1035E0008FE2F82EE02EB12CEE2DF0E0EB52FE4FE4
:1035F000C080F0E2FC153CF48C2D0E94980A8F5F8D
:10360000B80EE394F1CF212F2B0D3327331F213830
:10361000310534F036E0F30E8BE38F15C0F018E07F
:10362000802F90E0FC01EB52FE4F5F01802F0F5F77
:103630008E1550F4F50141915F016F2D812F0E948D
:10364000C40C8F5F180FF2CF1E5FC110CBCFE12CDF
:1036500005E022E040E066E083E896E00E9446094B
:10366000D7FE06C080918101882371F1815022DD4F
:10367000D4FE06C080918101813041F18F5F1ADD57
:10368000D5FE09C080913C07811102C08091610183
:10369000815080933C07D6FE0CC080913C0720915E
:1036A00061012150330B8217130691F08F5F8093D5
:1036B0003C0780917401883068F48F5F80937401B7
:1036C0002696EAE00C949A2A81E0D1CF80E0D7CF09
:1036D00080E0EDCFD3FE10C080917501882341F0CA
:1036E00082E0809378018093750110927401E8CF95
:1036F00080E00E944F0AE4CFD2FEE2CFE8DCE0CFC8
:10370000A6E0B0E0E6E8FBE10C94802AD62E86E045
:10371000E5E3F3E0DE01119601900D928A95E1F761
:1037200020915B0130915C01E12CB4E1FB2E00E7BC
:1037300017E149815A816B817C818D819E8145DEB3
:1037400080915B0190915C01939590935C018093D3
:103750005B0110917A011F3F11F0D2FE05C085E098
:10376000809378011092740170DAE0913C07F0E0E8
:10377000E75BFE4F8081813009F04FC01F7017302A
:1037800008F017E0E12FF0E0EE0FFF1FE35BF94FC9
:1037900045915491E3E8F5E08491E8EEF5E0E49199
:1037A0003E2F282F0AEC15E0AAE4B6E070E060E0B6
:1037B000F12CE12CFB01EC57FA4F8491FB01E7510E
:1037C000FA4FE491DE2EC82EC601822B932B8E2950
:1037D0009F297C01EE0CFF1C8E299F297C01F69409
:1037E000E7948E299F298095F801F0808F21F42E8F
:1037F000F2228F2981938F01892F80959C918923B3
:10380000932F9423892B8D935427452754276F5F3B
:103810007F4F79016436710521F42696E8E00C9417
:103820009C2A9601C7CFA6E0B0E0E9E1FCE10C9448
:10383000812AD62E0E94370A209176013091770195
:103840001A8219821C821B821E821D82E12C8CE14D
:10385000F82E00E717E140E05A8160E07C8180E0CB
:103860009E81B3DD8091760190917701939590933D
:1038700077018093760180917A018F3F11F0D2FE1B
:1038800005C082E08093780110927401DED92696FB
:10389000E7E00C949D2AA6E0B0E0E1E5FCE10C94A1
:1038A000812AD62E20917601309177011A821982D1
:1038B0001C821B821E821D82E12C8CE1F82E00E707
:1038C00017E140E05A8160E07C8180E09E817DDDEF
:1038D00080917601909177019395909377018093F1
:1038E000760180917A018F3F11F0D2FE05C082E00F
:1038F0008093780110927401A8D92696E7E00C9481
:103900009D2AA6E0B0E0E7E8FCE10C94822A86E07C
:10391000EBE7F1E0DE01119601900D928A95E1F757
:1039200000915F011091600120915B0130915C0179
:1039300080917D0190917E019E5F682F9C838B8397
:10394000E12C86E0F82E49815A817C818D819E810F
:103950003CDD2696E6E00C949E2ACF93DF93C82F99
:10396000D62FCFDFC7FF0AC080915F019091600121
:10397000805491099093600180935F01C4FF0AC055
:1039800080915F0190916001805C9F4F90936001F6
:1039900080935F0180915F019091600197FD11C05C
:1039A000811520E2920784F49093600180935F0177
:1039B000D2FF03C082E08093780147D9DF91CF9195
:1039C000089590E080E0F0CF80E090E2EDCFCF93DB
:1039D000C62F97DF2091750192E0211193E080912D
:1039E0005E01882319F0835080935E01C2FF03C0FB
:1039F00082E080937801C7FF07C080915D01882332
:103A000081F1815080935D01C4FF07C080915D0109
:103A1000891749F18F5F80935D01C3FF1FC0C0917B
:103A20005D01222361F0C11109C080913C070E9411
:103A30004F0A82E08093780110927401C150C11145
:103A400014C080915B0190915C0190937701809309
:103A5000760110927A0187E080937801F6D8CF91B1
:103A60000895892FCFCF80E0D6CFC13011F488E000
:103A7000F3CFC23099F72BDBF1CFEF92FF920F9388
:103A80001F93CF93DF93C82FD62F3BDF8091330155
:103A900090E09C0136952795369527954C2F4076DA
:103AA00009F451C00296820F931F8F3F910508F0D1
:103AB00052C080933301C5FF0AC020915B01309151
:103AC0005C01281B390B30935C0120935B01C6FF1E
:103AD0000AC020915B0130915C01820F931F90938B
:103AE0005C0180935B01C7FF05C0809132018E5F4E
:103AF00080933201C4FF05C08091320182508093CF
:103B00003201C0913201C23048F5C2E0C0933201A7
:103B100080913101882319F0815080933101809187
:103B200074018830F8F48F5F80937401D2FF05C070
:103B300086E08093780110925D0187D8CDB7DEB71B
:103B4000E6E00C949E2A0197821B930B09F0ADCFFF
:103B500081E090E0AECF8FEF90E0ABCFC7FFD6CF44
:103B6000C0E8D4CFD3FFE2CF00915B0110915C019C
:103B7000C8010E9448087C01C801905C0E94480866
:103B80008C0186E0EBE7F1E0A3E4B1E001900D9257
:103B90008A95E1F76C2FC7010E94400890933E017F
:103BA00080933D016C2F88279927801B910B0E94E1
:103BB0004008909342018093410183E08093780113
:103BC00064E670E084EB90E00E94AD06AFCFAEE318
:103BD000B0E0EDEEFDE10C94762A24E02DAB80916F
:103BE0003F0190914001C09740913D0150913E01AD
:103BF000411530EC53070CF41BC3411560E4560724
:103C00000CF019C350933E0140933D018115A0EC87
:103C10009A070CF413C38115B0E49B070CF011C391
:103C20009093400180933F012091410130914201E6
:103C30002115E0EC3E070CF407C32115F0E43F0723
:103C40000CF005C3309342012093410140585F4F6F
:103C500060917B0170917C01650F711D57FD7A9514
:103C600070937C0160937B0180589F4F40917D0150
:103C700050917E01490F511D97FD5A9550937E0139
:103C800040937D0120583F4F80917F0190918001AA
:103C9000830F911D37FD9A959093800180937F014A
:103CA00020912E032EAF8CEA95E099A788A71CAA35
:103CB0009EADACA99A1709F4E5C2E8A5F9A59080D4
:103CC00081800281F681FCA7A8A5B9A51796BC91B1
:103CD000BEA7E8A5F9A58381E0907B01F0907C0167
:103CE000F0E48F02E018F1081124A8A5B9A51496F4
:103CF0008C91A0907D01B0907E01B0E48B02A01861
:103D0000B1081124E8A5F9A59581C0907F01D09054
:103D10008001F0E49F02C018D10811242CA52111C4
:103D200004C03EA5332309F446C04EA56CA5CE01C0
:103D3000019612DB3A805B806C816AA78D8188AB2B
:103D40009E819AAB2F80488419856981C7010E94A2
:103D50000D083C016AA5C5010E940D08680E791E78
:103D6000622DC6010E940D08680E791E632DC701E1
:103D70000E940D081C0168A9C5010E940D08280EAB
:103D8000391E642DC6010E940D08280E391E652DAE
:103D9000C7010E940D082C016AA9C5010E940D08E7
:103DA000480E591E612FC6010E940D086201C80EFF
:103DB000D91E51017301A0E19A9EA0011124B0E126
:103DC0008B9E40011124E0E10E9F80011124EE271B
:103DD000FF27E41BF50BFBA7EAA7DA01AE0DBF1D19
:103DE000EE16FF064CF0412C512C32014E155F05AA
:103DF00044F4D701A41BB50B9D010E946A2A2B0134
:103E00003C012224332428183908D401AA0DBB1DF3
:103E1000A214B30434F08A149B0454F4D501A819F5
:103E2000B9099D010E946A2A460E571E681E791E16
:103E3000EE27FF27E01BF10BD801AC0DBD1DCE1600
:103E4000DF0634F00C151D0554F4D601A01BB10B90
:103E50009D010E946A2A460E571E681E791E21E0A7
:103E6000421620E452066104710408F0D8C13E2DC8
:103E70002F2D8AA59BA5E816F90614F43AA52BA5C3
:103E8000832F922F481759070CF4CA01D701A81B9A
:103E9000B90BBBA3AAA33A2D2B2DA214B30414F47F
:103EA000322D232D832F922F881699060CF4C401EE
:103EB0009501281B390B3DA32CA33C2D2D2DCE168F
:103EC000DF0614F43E2F2F2F832F922F0817190788
:103ED0000CF4C801D601A81BB90BCD01BFA3AEA33A
:103EE0004AA15BA16CA17DA19FA10E9467082AA3A2
:103EF0003BA34CA35DA36EA37FA3BCA5B111AAC134
:103F0000EEA5E111A7C12AA03BA04CA05DA00EA187
:103F10001FA1A0903F01B0904001C0904101D090FE
:103F20004201B10180913D0190913E010E9426081D
:103F30007C01B201C5010E942608E80EF91EB801F5
:103F4000C6010E942608E80EF91E1E141F040CF478
:103F500066C1E114FCEFFF0634F462E370E088E729
:103F600090E00E94AD0620913D0130913E013DA7B9
:103F70002CA7B101C7010E942608ACA4BDA4A81AB1
:103F8000B90A80913F01909140019FA78EA7B2018D
:103F9000C7010E942608CEA4DFA4C81AD90AA0919E
:103FA0004101B0914201B9ABA8ABB801C7010E9471
:103FB00026084A2DBD8EAC8E6C2DDF8ECE8EE8A9E4
:103FC000F9A9E81BF90BCF01F9A3E8A35D8D7F8D5B
:103FD00099A10E9467082C8F3D8F4E8F5F8F68A339
:103FE00079A32C8D3D8D39AF28AF8E8D9F8D9BAFE2
:103FF0008AAFA8A1B9A1BDAFACAFE0913701F091F4
:104000003801FBABEAAB2091390130913A013FAB6B
:104010002EAB80913B0190913C019BA78AA7B801F0
:10402000C9010E9426087C01B2018AA59BA50E94B5
:104030002608E81AF90AB1018AA59BA50E9426085C
:104040005C01B8018AA99BA90E942608A81AB90A8E
:10405000B2018AA99BA90E9426086C01B1018EA910
:104060009FA90E942608F7FE03C0AFEFEA1AFA0ADA
:10407000F594E794ECA5FDA5EE19FF097F01B7FEC5
:1040800003C0FFEFAF1ABF0AB594A7948EA49FA4F4
:104090008A189B08C81AD90AD7FE03C02FEFC21A84
:1040A000D20AD594C794A8A8B9A8AC18BD08B10184
:1040B000C7010E9426086C01B201C4010E942608B3
:1040C000C80ED91EB801C5010E942608C80ED91E07
:1040D00068AD79ADC7010E9426087C016AAD7BAD51
:1040E000C4010E942608E80EF91E6CAD7DADC50125
:1040F0000E942608E80EF91EF194E194F10860ECA4
:10410000882799278C199D090E9440083C016C184A
:104110007D0865E5C7010E9440086C01B101C3013B
:104120000E9426084C01B201C3010E9426085C01CE
:10413000B801C3010E9426087C0168AD79ADC601B3
:104140000E942608880E991E6AAD7BADC6010E94AA
:104150002608A80EB91E6CAD7DADC6010E942608CA
:10416000E80EF91E8CA59DA5880D991D90933E0122
:1041700080933D018EA59FA58A0D9B1D90934001C4
:1041800080933F0188A999A98E0D9F1D90934201AC
:1041900080934101B801C5010E9426086C01B2015B
:1041A000C7010E942608C81AD90AB101C7010E9496
:1041B00026087C01B801C4010E942608E81AF90A01
:1041C000B201C4010E9426088C01B101C5010E9400
:1041D0002608CC0CDD1CCC0CDD1CAAA9BBA9CA0E80
:1041E000DB1ED0923801C0923701EE0CFF1CEE0CA2
:1041F000FF1CEEA9FFA9EE0EFF1EF0923A01E0921D
:104200003901081B190B000F111F000F111F2AA5E0
:104210003BA5020F131F10933C0100933B013CA9E7
:104220003F5F3CAB88A599A5089699A788A740CD84
:1042300040E050ECE7CC40E050E4E4CC80E090EC8F
:10424000EFCC80E090E4ECCC20E030ECFBCC20E044
:1042500030E4F8CCAAA0BBA0CCA0DDA0EEA0FFA0CB
:1042600009811A812B813C814D815E816F81788526
:1042700089850E94F0082AA33BA34CA35DA36EA3EB
:104280007FA341CE2091370130913801032E000CDD
:10429000440B6FEF70E080E00E94612AA82FCB01F1
:1042A00080589F4FAF4F892F9A2FAA27909338019C
:1042B000809337012091390130913A01032E000C8F
:1042C000440B6FEF70E080E00E94612AA82FCB01C1
:1042D00080589F4FAF4F892F9A2FAA2790933A016A
:1042E0008093390120913B0130913C01032E000C59
:1042F000440B6FEF70E080E00E94612AA82FCB0191
:1043000080589F4FAF4F892F9A2FAA2790933C0137
:1043100080933B019DA991509DAB911160CC809100
:1043200041019091420197FF03C0919581959109B8
:1043300020913F013091400137FF03C03195219515
:104340003109821793070CF4C90120913D01309186
:104350003E0137FF03C0319521953109821793073C
:104360000CF4C9018F3F910509F0DCF5809136010D
:104370008F5F8093360100913C0710E080913401FB
:1043800090913501075B1E4F8830974068F580910A
:1043900036018E3148F5F801F08080917D019091D1
:1043A0007E0181159C4E0CF0A0C086E0E3E4F1E0B4
:1043B000ABE7B1E001900D928A95E1F786E0EDE37D
:1043C000F1E0DF01282F1D922A95E9F7E7E3F1E0FC
:1043D000DF011D928A95E9F7F394F394F801F082D6
:1043E0001AC010923601C7CF1092350110923401D5
:1043F0001092360186E0EDE3F1E0DF011D928A952F
:10440000E9F70E94C91690935C0180935B01F80163
:1044100080818F5F808382E080937801E0913C0708
:10442000F0E0E75BFE4F8081833608F083E680830F
:104430000E94C9162C0186E0EBE7F1E0DE015696FA
:1044400001900D928A95E1F76E887F88888C998C0F
:104450002A8C3B8C40915407419560915607619599
:10446000CE0101960E94AC191B861A861D861C86F9
:1044700080E0E82EA12CBB84C12CDD848EE0F82ED8
:1044800009811A812B813C814D815E816F81788504
:1044900089850E94F008288B398B4A8B5B8B6C8B4B
:1044A0007D8B88899989680E791E8A899B89880EF7
:1044B000991E8C899D89820D931D462D7A82698271
:1044C000682D9C828B829E838D8390E1E92E04E689
:1044D00019E192015A817C819E810E948D170E9470
:1044E0002516EE96E2E10C94922A0E94FB0988239D
:1044F00009F494CF8091550790915607F394D80111
:10450000FC9224E02093780190935C0180935B01FE
:1045100010927A01809171008D7F809371001092CA
:10452000190389E499E090931803809317039093FB
:1045300015038093140384EB90E090934A098093D1
:10454000490984E690E090934C0980934B092CE252
:1045500031E030934E0920934D0990935009809398
:104560004F0980E090E890935209809351090E948E
:10457000080654CFAAE0B0E0EFEBF2E2B7C7D62EC0
:1045800028E0829F3001112420EF222E23E0322EDA
:10459000412C512C230138EA832E33E0932EA12C99
:1045A000B12C53012FEF3FEF40E550E0C301B401C0
:1045B0000E941B0C30E020E040E450E0C301B40155
:1045C0000E941B0C38E4398781E08A879A85D916C6
:1045D00008F441C089850E94DE0618E4282FA10353
:1045E000C0011124892F990F990B9C0128553C4F2C
:1045F0003A832983898580540E94DE06382FB103CF
:10460000C00111249301290F311D97FD3A953C8378
:104610002B8388EA882E83E0982E530189819A8122
:104620009E838D8338872F8394E0C92EED80FE8092
:104630000F811885A2019101C301B4010E945E0E91
:1046400029803A804B805C809A859F5F9A87298574
:10465000285F2987BBCF2A96E2E164C76F927F92D9
:104660008F92CF92DF92EF920F931F93CF93DF93AE
:10467000D82FC0917401C13009F0D9C00E943E18F2
:1046800080913C0790E0FC01E75BFE4F2081FC013C
:10469000EE57FE4F328D231738F5228F21E05091CF
:1046A0006101E52FE150FF0B8E179F0709F0BDC098
:1046B0008091AE019091AF0101969093AF018093EC
:1046C000AE01A9E4B1E0EAE8F1E040E090E080E08A
:1046D00030E020E0541751F06D91260F311D6191AB
:1046E000860F911D4F5FF6CF20E0D9CF28173907ED
:1046F00048F482E1E9E4F1E0AAE8B1E001900D922A
:104700008A95E1F7A2E8B1E06DE576E02AE831E0CC
:10471000CD01FC015191CF01FB014491541387C09D
:104720006F5F7F4F28173907A1F760EC71E02FEF1B
:104730003FEF8D91982F9327892F82958F7089272E
:10474000482F50E0922F9A01322F22273295307F46
:10475000822793279A01F5E0220F331FFA95E1F79C
:10476000282739276A177B0721F78091C00190918C
:10477000C1018217930709F05AC080918101D82E98
:10478000D694D694E82EE294EE0CEE0C30ECE322B4
:1047900090E080E00E94C518612C40E1742E812CCD
:1047A00010E000E0882DB3010E94321860E071E053
:1047B00087E697E00E94F817D0120BC0AE2DB0E04C
:1047C000A959B84F80E4E2E8F1E001900D928A9592
:1047D000E1F7C8010E94A3180F5F1F4FFFEF7F1A78
:1047E0008F0A00311105F1F680E190E00E94C518B2
:1047F00000E110E0C12CD12CE12C8E2DB6010E94DD
:10480000321860E071E087E697E00E94F817C8016F
:104810000E94A3188FEFD81AE80A0F5F1F4FC11428
:10482000E0E1DE06E10449F702C021116BCF0E94EE
:104830003F0760E080E00E94360D69E084E00E945E
:10484000360DC03130F4CF5FC093740110927A01FD
:1048500019C08D2F8C70D1F380917A01803291F440
:1048600090917501911140C0D2FD3EC080913C07EE
:10487000209161012150330B82171306A9F18F5F3C
:104880000E944F0A60917A01C0E0D3FD05C0C0913B
:104890007A01D2FFC0E060E08091750181110CC007
:1048A00085E168DEEE24E3940FE021E04EE662E06D
:1048B00085E696E00E9446096C2F8DE25BDEEE24D1
:1048C000E3940FE021E04EE665E084E796E00E9485
:1048D0004609DF91CF911F910F91EF90DF90CF901C
:1048E0008F907F906F900895892F90E09595879590
:1048F000809375010E946718C5CFEF920F93CF93F5
:10490000DF9380917401883048F58F5F8093740144
:104910000E947A0FE12C0DE422E042E361E089EE8F
:1049200094E00E94460921E042E364E08CE994E0CF
:104930000E9446098091750109E4C1E3882311F0C2
:104940000FE7C1E50C1778F1D0E26D2F8C2F0E9494
:10495000AF0CDF5FD932C9F7CF5FF4CFC09120032E
:1049600063FF0DC089E08093780182E090E03CD540
:10497000C81771F26C2F82E090E03ED5C9CF62FF7C
:1049800008C0CC2319F00E94E905C2CF0E94EE05B1
:10499000BFCF607609F4BCCF8091750191E0892783
:1049A00080937501B5CF8091200309E0811101C08A
:1049B00004E0E12C21E047E767E083E994E00E940E
:1049C0004609DF91CF910F91EF9008951F920F92BA
:1049D0000FB60F9211248F939F938091E1009091D5
:1049E000E100937F9093E10083FF0FC01092E900F4
:1049F00091E09093EB001092EC0092E39093ED0025
:104A00001092520798E09093F00082FF22C093E04A
:104A10009093E9009091F200992319F09AE3909312
:104A2000E80090914307992341F0909143079150FA
:104A300090934307911101C05D9A9091510799237A
:104A400041F090915107915090935107911101C0FD
:104A5000289A84FF18C08091E2008E7E8160809346
:104A6000E2008091E1008F7E8093E1008091440715
:104A70008E7E8061809344079F918F910F900FBE2F
:104A80000F901F90189580FFF7CF8091E2008E7EE7
:104A900080618093E2008091E1008E7E8093E1004E
:104AA000809144078E7E8160E5CF1F920F920FB6F2
:104AB0000F921124CF92DF92EF92FF920F931F93E8
:104AC0002F933F934F935F936F937F938F939F9316
:104AD000AF93BF93EF93FF93CF93DF93CDB7DEB741
:104AE0006C97DEBFCDBF1092E9008091E80083FF94
:104AF00025C068E0CE0145960E94D40582EF8093E0
:104B0000E8008D8987FF39C09091E80090FFFCCFC5
:104B1000982F907609F034C19E894F89588D2F893E
:104B2000F88C911131C0803861F5809142078093F3
:104B3000F1001092F1008EEF8093E8006C960FB6B2
:104B4000F894DEBF0FBECDBFDF91CF91FF91EF9103
:104B5000BF91AF919F918F917F916F915F914F9195
:104B60003F912F911F910F91FF90EF90DF90CF9089
:104B70000F900FBE0F901F9018959EEF9093E80036
:104B8000C7CF1092F100D5CF913059F48111D3CF16
:104B90004130510581F6809142078D7F8093420715
:104BA000CACF933049F48111C6CF4130510519F66F
:104BB000809142078260F2CF953041F48091E80005
:104BC00080FFFCCF20682093E300B5CF963009F03A
:104BD000A9C00B8D1C8D22E01092E90010924007B5
:104BE00010923F07F2122EC010923E0710923D071E
:104BF0000E94A8051F8299E09983FA8291E09E8322
:104C000090EA98879AEF998720913F073091400763
:104C1000275F3F4F3C832B838D831092E9001092D6
:104C2000400710923F0710933E0700933D0749E06D
:104C300050E0BE016F5F7F4F80E00E9487050E94B9
:104C4000A80579CF10933E0700933D070E949B046F
:104C5000DC0112960D911C910115110509F451C149
:104C6000D801ED91FC910480F581E02DBE016B5ED1
:104C70007F4FC8010995009709F03EC1F8010085F2
:104C80001185EACFF3E0FF120EC08F89882309F463
:104C900040C0823061F440E867E08EE598E00E9411
:104CA0005A05811148CF81E28093EB0047CF8130D4
:104CB00029F440E86BE082E598E0F1CF833099F782
:104CC0000E949B04DC011296ED90FC908E010F5F18
:104CD0001F4F6801E114F10479F0D701ED91FC91C7
:104CE0000680F781E02DB801C7010995080F111D55
:104CF000F701E084F184EECFD8011C92F601019017
:104D00000020E9F73197BF016C197D0940E0C60129
:104D1000C6CF6CE378E0FB01449150E080E80E944C
:104D2000870509CF973009F4BECF983021F481E090
:104D30008093F10000CF993009F0FDCE837009F027
:104D4000B2CFE3E1F1E081E031E096E3219122236B
:104D500071F08093E9003093EB00DF0111972C9103
:104D60002093EC009093ED008F5F873079F78EE70A
:104D70008093EA001092EA008F8980935207DBCE7D
:104D80008B8D9C8D1092E9001092400710923F0786
:104D900090933E0780933D07898D811192C08E8943
:104DA0009D89913A49F4813209F07DCF47E050E086
:104DB00064E071E080E0B3CF913209F074CF8332C8
:104DC00069F48F89988DB0E0A0E080930001909302
:104DD0000101A0930201B0930301ADCE803269F4CA
:104DE0008091E80082FFFCCF67E084E091E00E94C0
:104DF000D4058BEF8093E8009ECE823209F09BCEE3
:104E00008F8980930B01EEEFFFE7859194918B3FA3
:104E10009C4D51F1E0E0F8E0809104019091050192
:104E2000A0910601B0910701803B9440A105B10516
:104E3000F1F480910B0180FD1AC0EE3F8AE0F80783
:104E400089F587E797E7918380838091600080935D
:104E5000410788E19BE00FB6F894A8958093600025
:104E60000FBE9093600067CEEEEFFAE0D5CF808161
:104E700091818737974709F05ECEA89580916000B1
:104E80008861809360008091410780936000EE3FCD
:104E90002AE0F20789F08091FE0A9091FF0A91833F
:104EA000808349CE808191818737980751F2909312
:104EB000FF0A8093FE0AC5CF1092FF0A1092FE0AE5
:104EC0003ACE0E949B04DC0112960D911C910115B3
:104ED000110509F4E8CED801ED91FC910190F08123
:104EE000E02DBE016B5E7F4FC8010995811123CE75
:104EF000F80100851185EBCF181619060CF41BCEAE
:104F0000D2CEF1E0FF12BECE60E478E004CF1F9273
:104F10000F920FB60F9211242F933F934F935F93ED
:104F20006F937F938F939F93AF93BF93EF93FF9371
:104F300080911C0390911D03A0911E03B0911F034B
:104F4000892B8A2B8B2B09F440C080911B03811184
:104F50000BC088B190E4892788B980911A0388230F
:104F600019F088B1805888B980911C0390911D0375
:104F7000A0911E03B0911F03181619061A061B06EE
:104F80009CF480911C0390911D03A0911E03B0918D
:104F90001F030197A109B10980931C0390931D037E
:104FA000A0931E03B0931F03FF91EF91BF91AF91A8
:104FB0009F918F917F916F915F914F913F912F9131
:104FC0000F900FBE0F901F9018950E940806ECCF0F
:104FD0001F920F920FB60F9211242F933F938F932E
:104FE0009F93AF93BF938091230390912403A0914B
:104FF0002503B091260330912C0123E0230F2D3798
:1050000058F50196A11DB11D20932C018093230317
:1050100090932403A0932503B093260380912D0140
:1050200090912E01A0912F01B09130010196A11D08
:10503000B11D80932D0190932E01A0932F01B09369
:105040003001BF91AF919F918F913F912F910F9020
:105050000FBE0F901F90189526E8230F0296A11DF2
:10506000B11DD2CFE9EFF8E01382128288EE93E00F
:10507000A0E0B0E084839583A683B7838DE191E0BF
:10508000918380838FEF9FEF958784878DE594E0F0
:10509000909358098093570980E090E890935609BF
:1050A0008093550946983E9A47983F9A0895B0E0F4
:1050B000A0E0ECE5F8E222C2789484B5826084BD79
:1050C00084B5816084BD85B5826085BD85B581600C
:1050D00085BD80916E00816080936E00109281008A
:1050E0008091810082608093810080918100816045
:1050F0008093810080918000816080938000809106
:1051000091008260809391008091910081608093F2
:105110009100809190008160809390008091C10007
:1051200084608093C1008091C10082608093C1003F
:105130008091C10081608093C1008091C300816033
:105140008093C3008091C00082608093C0008091F2
:10515000C20081608093C20080917A008460809355
:105160007A0080917A00826080937A0080917A0040
:10517000816080937A0080917A00806880937A00C1
:105180001092520710924207109244078091D70064
:1051900081608093D70080EA8093D80089B58061D0
:1051A00089BD89B5826089BD09B400FEFDCF61E08B
:1051B00070E080E090E00E94FF188091D8008F7C22
:1051C00080618093D8008091E000807F8093E00030
:1051D0008091E1008E7E8093E1008DE08093E2007B
:1051E000559A209A81EC80937C0085B1806F85B9B7
:1051F00084B1877E84B984B1876E84B95E9A5F98E2
:105200008AB1806D8AB9769A6E9881B3806F81BBBE
:10521000899880B38D7080BB80E58CBD81E08DBDA9
:105220000E9430195F9A0E9430195E985C98EDEEEA
:10523000F7E08AEF97E024912EBD00000DB407FE41
:10524000FDCF31968E179F07B1F75C9A81E8809366
:105250006400809165008160809365000E94E10593
:1052600087FF16C05C9885EA8EBD00000DB407FE6E
:10527000FDCF5C9A2E982F982D982E9880916400DF
:1052800080628093640081E083BF889513BEFCCF69
:1052900082E090E0A9D0882309F44BC00E94EE057B
:1052A0005E9AE4E1F0E0859194918831954909F0A6
:1052B00043C0E6E1F0E08491E7E1F0E0E491F82F0B
:1052C000F0932203E0932103E8E1F0E085919491CB
:1052D0008831954909F037C0EAE1F0E08491EBE1CB
:1052E000F0E0E491F82FF093F808E093F7088BEAE8
:1052F0000E949F180E9498188FB7F894C0902303BB
:10530000D0902403E0902503F09026038FBFAA24B9
:10531000A394B12C0CE313E0C0E0D4E080916000D2
:1053200083FF16C0F89487E78093000880930108F4
:10533000FFCF0E94E905B4CF82EB9FEF9093220349
:1053400080932103C1CF1092F8081092F708CFCFB5
:105350002FB7F8948091230390912403A091250303
:10536000B09126032FBF8C19813230F4803281F343
:10537000A3BE889513BEECCF8FB7F894C0902303DB
:10538000D0902403E0902503F09026038FBF0E9465
:10539000E30980913C070E94810A0E944E18D801BF
:1053A0009E01ECE3F3E097E00DB407FEFDCF5E98BD
:1053B00000808EB50EBCB110012C019221503040FE
:1053C0002AF000008D93EC33F90790F3E2F35E9A34
:1053D000599A8DB585E1ECEAF6E0A7E2B3E00190D9
:1053E0000D928A95E1F79ACFF999FECF92BD81BDD2
:1053F000F89A992780B50895262FF999FECF1FBAFC
:1054000092BD81BD20BD0FB6F894FA9AF99A0FBEED
:1054100001960895052E97FB16F400940FD057FDC2
:1054200005D01ED007FC02D046F408C05095409528
:10543000309521953F4F4F4F5F4F08959095809540
:10544000709561957F4F8F4F9F4F08952BD0A59FEB
:10545000900DB49F900DA49F800D911D112408956F
:10546000A1E21A2EAA1BBB1BFD010DC0AA1FBB1F68
:10547000EE1FFF1FA217B307E407F50720F0A21BDA
:10548000B30BE40BF50B661F771F881F991F1A9447
:1054900069F760957095809590959B01AC01BD0171
:1054A000CF010895A29FB001B39FC001A39F700DCB
:1054B000811D1124911DB29F700D811D1124911D1C
:1054C0000895DB01582FEEDF529F800DA49F800DC1
:1054D00011240895E7DF332312F48A1B9B0B01C0CC
:1054E000E1DFB7FF0895821B930B08952F923F923F
:1054F0004F925F926F927F928F929F92AF92BF92E4
:10550000CF92DF92EF92FF920F931F93CF93DF938F
:10551000CDB7DEB7CA1BDB0B0FB6F894DEBF0FBEEC
:10552000CDBF09942A88398848885F846E847D8439
:105530008C849B84AA84B984C884DF80EE80FD803B
:105540000C811B81AA81B981CE0FD11D0FB6F894B1
:10555000DEBF0FBECDBFED010895EE0FFF1F05901A
:0A556000F491E02D0994F894FFCFB8
:10556A00FFFFFFFF00E1000000000000030D8006BE
:10557A0085F200C1808100000000000000AF0436FF
:0C558A0019D104C6041205D404F2040078
:00000001FF
