:10000000B5C30000DBC30000D9C30000D7C30000A4
:10001000D5C30000D3C30000D1C30000CFC300008C
:10002000CDC30000CBC300000C94DC200C944B210A
:10003000C5C30000C3C30000C1C30000BFC30000AC
:10004000BDC30000BBC30000B9C30000B7C30000BC
:10005000B5C30000B3C30000B1C300000C94DE239D
:10006000ADC30000ABC30000A9C30000A7C30000DC
:10007000A5C30000A3C30000A1C300009FC30000EC
:100080000C947D239BC3000099C3000097C300001C
:1000900095C3000093C3000091C300008FC300000C
:1000A0008DC300008BC3000089C30000000046011F
:1000B0008B02CF03110551068D07C608FB092C0BD7
:1000C000570C7D0D9E0EB90FCE10DC11E412E61315
:1000D000E014D515C216AA178A186419381A051B18
:1000E000CD1B8E1C4A1DFF1DB01E5A1F0020010390
:1000F000070F1F3F7FFFFFFEFCF8F0E0C080FFFF0F
:10010000FFFFFF7F5555FF3F3333AA2A9224FF1F7D
:10011000711C991945175515B11349121111FF0F8B
:100120000F0F380E790DCC0C300CA20B210BAA0A44
:100130003D0AD8097B092409D30888084208FF072B
:10014000C107870750071C07EB06BC06900666062A
:100150003E061806F405D105B00590057205550553
:1001600039051E050505EC04D404BD04A70492045A
:100170007D04690456044404320421041004FF037E
:10018000F003E003D203C303B503A8039B038E036C
:100190008103750369035E03530348033D0333037F
:1001A00029031F0315030C030303FA02F102E802FB
:1001B000E002D802D002C802C002B902B102AA020B
:1001C000A3029C0295028F02880282027C027602C0
:1001D00070026A0264025E02590253024E02490230
:1001E00043023E023902340230022B02260222026E
:1001F0001D021902140210020C0208020402FF017F
:10020000FC01F801F401F001EC01E901E501E10173
:10021000DE01DA01D701D401D001CD01CA01C70145
:10022000C301C001BD01BA01B701B401B201AF0100
:10023000AC01A901A601A401A1019E019C019901A3
:100240009701940192018F018D018A018801860135
:10025000830181017F017D017A01780176017401BA
:10026000720170016E016C016A016801660164012E
:10027000620160015E015C015A015801570155019C
:100280005301510150014E014C014A0149014701FE
:1002900046014401420141013F013E013C013B0155
:1002A00039013801360135013301320130012F01A6
:1002B0002E012C012B0129012801270125012401F0
:1002C0002301210120011F011E011C011B011A0134
:1002D0001901180116011501140113011201110170
:1002E0000F010E010D010C010B010A0109010801AA
:1002F00007010601050104010301020101010000DB
:1003000000AA55AA55FFFFFF0102040810204080F3
:100310000000F838000000000000FC7C0000000035
:1003200080C0C0C0C0000080F87E0E0080C0606049
:10033000E0C00000000000000000E0E60600C0C0D1
:100340000080C0C0C080000000000000000000006D
:1003500080E070301818181838F0E000C0C0008035
:10036000C0C0C0800000000080C06060E0C000002D
:1003700080F8780000007C7F0303030303037F7F82
:100380000000003C7F636070381F0F007F7F00001B
:100390001E3F3736333118080000000000003C3F94
:1003A0000100383F0F070100001F3F300000000030
:1003B000000000001E3F716060603030180E0701C1
:1003C000383F0F070100001F3F3010001E3F373637
:1003D00033311808303707000000FFAA55AA110072
:1003E0000000110055AAFFAAFFFF00FE02FA2A1220
:1003F00002728A72027A8262827A02FAAA8A02FA05
:100400002AD3040E1F4000400040005F055A005FE1
:1004100015510052154900411F41005E055E005F05
:10042000055A00411F4100400040004000FF004EBF
:10043000114E00471847005F1551005F055A0047ED
:10044000184700511F51005F1551004F104E104FBB
:1004500000400040004000FF0040004000400040DD
:10046000004000400040005F054200511F51004124
:100470001F41004E1151005F045F004000400040EA
:1004800000FF00404040404040404040404040402D
:1004900040404040404E595F405F505F40515F5187
:1004A00040415F41404040404040407F0070C8F0C4
:1004B00000F880F80088F8880008F808F808F000CC
:1004C000F8A88800D820D80008F808FA22FA0272A2
:1004D0008A7202FA828202FAAA8A020202020202E4
:1004E0000202020202FE0002000200FA281200F2DA
:1004F00028F200FA28D200020002000200020002E4
:1005000000FF0092A84A00FA20FA00728872000ADE
:10051000F80A0002000200020002000200FF0018B8
:10052000183C7E002499423CFEFE121E0C007EFE0A
:1005300080C0C000FCFE12FEFC00CEDE98FE7E00F5
:100540000000000000000000FEFE121E0C00FEFE77
:1005500012FEDC00FCFE12FEFC007CFE82C64400A3
:1005600002FEFE020082FEFE82007CFE82C6440085
:100570007CFE92D6C600000080C0F03C7CF080007B
:1005800000000080E06080C0E060E0000080C0C04B
:100590006060C0F87F070000E0E000000000C0C01D
:1005A0000000C0F038180C0606068E8E000080C0D1
:1005B000E06060E0800080FC7F07C0F0FCCEC3C339
:1005C0004F0630381E0707060602030F1E3830009C
:1005D0001F3F1E0301000000001E3F3130180E1F98
:1005E0003F3010001F3F3030180C1E3F20001F3FCF
:1005F0003030303818CCFE0F01003E7F616070381B
:100600001F07007F7F0000787F030000000000705C
:10061000887090F880C8A89088A8503820F8B8A8AA
:100620004870A84008C83850A85010A870000306A9
:10063000090C0F1215181B1E2225272A2D303336C0
:10064000393C3E414446494B4E505355575A5C5EE7
:1006500060626466686A6B6D6E70717374757678CB
:10066000797A7A7B7C7D7D7E7E7E7F7F7F7F0000B6
:10067000240348066A098C0CAB0FC812E215F9185E
:100680000B1C1A1F2322282526281F2B112EFB3076
:10069000DF33BA368C39563C173FCE417A441C477B
:1006A000B4493F4CBF4E33519B53F5554258825A83
:1006B000B35CD75EEB60F162E864CF66A6686D6AF2
:1006C000236CC96D5E6FE2705472B5730475417628
:1006D0006B77847889797C7A5C7B297CE37C897D63
:1006E0001D7E9C7E097F617FA67FD87FF57FFE7F80
:1006F000D5F08D14A1C881CFD9F1AF2000080B002F
:1007000002020200000904000001020200000524A8
:10071000001001052401010104240206052406003D
:10072000010705810310004009040100020A0000CE
:100730000007050202400000070583024000000494
:1007400003090412010002EF020140412336800038
:10075000010102030141726475696E6F204C4C43C4
:100760000041726475626F790000282411241FBE55
:10077000CFEFDAE0DEBFCDBF11E0A0E0B1E0E0E412
:10078000FDE402C005900D92AC32B107D9F729E023
:10079000ACE2B1E001C01D92A93FB207E1F713E05E
:1007A000C6EBD3E004C02197FE010E949826C53B0A
:1007B000D107C9F70E944D240C949E2621CC80912C
:1007C0004F050895FC0180918409882311F13FB7FA
:1007D000F89482E08093E9002091F200822F90E06B
:1007E0001816190614F481E090E0882339F028984F
:1007F00044E6409383094091F1004083222339F07D
:100800002091F200211103C02BE62093E8003FBFA6
:1008100008958FEF9FEF08952FB7F89483E08093AA
:10082000E9009091E800892F807295FF04C09091B3
:10083000F20080E4891B2FBF089580917B0981110C
:100840000DC082E08093770984E08093780910924C
:100850007A091092790981E080937B0987E799E012
:100860000895A1E0B0E0E7E3F4E00C947126698319
:10087000DC01ED91FC910280F381E02D41E050E03C
:10088000BE016F5F7F4F09952196E2E00C948D26A3
:1008900083E08093E9008091F200882319F08AE3D5
:1008A0008093E8000895B8DF90E00895A1E0B0E0FB
:1008B000ECE5F4E00C947126FC018485958597FDA8
:1008C00008C02FEF3FEF358724872196E2E00C9494
:1008D0008D26CE01019676DF019719F4898190E08B
:1008E000F4CF8FEF9FEFF1CFA1E0B0E0EAE7F4E0C3
:1008F0000C946F268C01FC018485958597FF0AC0B6
:10090000CE0101965FDF019761F4898190E0F801E3
:1009100095878487F801848595852196E4E00C9479
:100920008B268FEF9FEFF3CFFC018485958597FD94
:100930000BC09FB7F89482E08093E9008091F200A9
:100940009FBF90E0019608959FB7F89482E080934E
:10095000E9008091F2009FBF90E0089540917109F5
:100960005091720920916F09309170094217530715
:10097000B4F49091E8009570E1F39091E80092FD55
:1009800019C08093F10080917109909172090196CC
:100990008F739927892B19F48EEF8093E80080914B
:1009A000710990917209019690937209809371096F
:1009B00081E0089580E00895EF92FF920F931F93D6
:1009C000CF93DF93F82E192FE62E042F81E0860FA8
:1009D000880FC4DF83E0C2DFCF2DD12FEC0EFD2EB8
:1009E000F11CCE15DF0599F007FF0FC0FE018491C1
:1009F000B5DF182F80E0B2DF812321968111F1CF7E
:100A0000CDB7DEB7E6E00C9489268881F1CF81E08E
:100A1000F7CFB0E0A0E0EFE0F5E00C946C26D82E24
:100A20008A01EB017B01E40EF51ECE15DF0551F0C6
:100A3000D7FE0EC0FE01849191DF21968111F5CF82
:100A40000FEF1FEFC801CDB7DEB7E7E00C948826A3
:100A50008881F2CFA1E0B0E0E0E3F5E00C946F26EE
:100A600082E0898342E450E06DEF76E080E8D1DFF8
:100A7000E4DEDC0112960D911C910115110589F03F
:100A8000D801ED91FC910280F381E02DBE016F5FF2
:100A90007F4FC801099597FD04C0F80100851185B5
:100AA000ECCF89812196E4E00C948B26615030F0E4
:100AB0002091F100FC0120830196F8CF289884E66C
:100AC0008093830908958FB18095807F669B8860AD
:100AD0001C9B8460089510924F053E983F9808959E
:100AE0003E9A3F9A81E080934F05089520914805F2
:100AF000E0914605F0914705CF0102969093470596
:100B000080934605222319F0859194910895808160
:100B100091810895CF92DF92EF92FF92CF93DF936E
:100B2000E5DF811520E8920791F4809171008D7FB7
:100B30008093710010929100469847981092450555
:100B4000DF91CF91FF90EF90DF90CF90089521E05B
:100B500020934505813020E8920749F480914305B0
:100B6000909144059093470580934605BFDF97FD1C
:100B700005C020914205222309F453C0209141056C
:100B800021114FC021E020934905EC01DF77209728
:100B900009F04AC081E080934A0546983FE9C32E98
:100BA0003FE0D32EE12CF12CCAEFD0E0E091F70921
:100BB000F091F8090995811103C081E080934A05FD
:100BC00080914905882329F080914A05882309F4FA
:100BD0003EC047988BDF0097F1F19C01DE010E9437
:100BE0003D26DC01CB0129E0B595A7959795879522
:100BF0002A95D1F7109290002AE020939100D0928C
:100C00009900C092980080934B0590934C05A09357
:100C10004D05B0934E058091710082608093710004
:100C20008FCF10924905B1CF9E0150E040E060E4C3
:100C300072E48FE090E00E94F52569017A0181E07D
:100C4000C81AD108E108F10810924A05AFCF4699B9
:100C5000C0CF479ABFCF8FEF9FEFDC01CBCF9C0176
:100C6000E1E7F0E090819D7F908310924805E9EEE6
:100C7000F9E0F0934705E0934605F0934405E093CF
:100C80004305318320837383628380E090E89583FA
:100C9000848340CF0895482FE82FEF7386FF03C069
:100CA00080E48E1BE82FF0E0EE0FFF1FE259F94FB2
:100CB0008591949147FF03C091958195910908957D
:100CC000E82FEF7386FF03C090E49E1BE92FF0E04E
:100CD000E35DF94FE49187FDE1958E2F0895EF9242
:100CE000FF920F931F93A62FB0E0AA0FBB1FAD5129
:100CF000BA4FE42FF0E0EE0FFF1FED51FA4F4D9188
:100D00005C9160817181460F571FE82FF0E0EE0F74
:100D1000FF1FED51FA4F80819181480F591F80913B
:100D2000950990919609DC01A01BB10BB7FF03C098
:100D3000B195A195B109BC016E197F0977FF03C078
:100D40007195619571096A177B070CF4DB01821BB1
:100D5000930B97FF03C09195819591098A179B0783
:100D60000CF4DC019D010E94552624E0880F991F98
:100D70002A95E1F7840F951F1F910F91FF90EF9037
:100D80000895EBE6F5E0119289E0EB36F807D9F724
:100D9000089520E0AC01D703C0014E03821F312D1E
:100DA0005603000C111C920B300D811D921F740311
:100DB000000C111C920B300D811D921F11240895FF
:100DC000A3E1B0E0E6EEF6E00C946126FC01298395
:100DD0003A834B835C836D837E830F83A3E9B9E001
:100DE000E980FA808D919C911197E81AF90ACB80DD
:100DF000DC8012968D919C911397C81AD90A6D8048
:100E00007E8014968D919C91681A790A402E512CFF
:100E10008201045C1F4F000F111FA80145595A4F52
:100E20009701D7010E9455264B015C019601D6011E
:100E30000E945526860E971EA81EB91E9301D30147
:100E40000E945526860E971EA81EB91EDA01AD9285
:100E5000BC92A280B38084819581998788872680FF
:100E60003780A085B185BD87AC87828593859F87B4
:100E70008E87A485B585B98BA88B868597859B8B36
:100E80008A8BA089B189BB87AA8760817181C701DC
:100E900080DF4C01B501C6017CDF880E991E688594
:100EA0007985C30176DF880E991EB101C70171DF14
:100EB0005C016C857D85C6016CDFA80EB91E6E8550
:100EC0007F85C30166DFA80EB91E68897989C701CD
:100ED00060DF7C016A897B89C6015BDFE80EF91E51
:100EE0006A857B85C30155DFF201EE0FFF1FEE0F10
:100EF000FF1FE55AFC4F91828082B382A282F801E3
:100F0000E552F84FE80EF91EF194E194F108F182F0
:100F1000E0828F818F5F6396E2E10C947D269C01D5
:100F2000B603C0016203000C111C00249009810D5E
:100F30001124911D08959C01369FC001279F800DAB
:100F4000911D379F900D269F810D1124911D0895AD
:100F50009C013603C0017203800D911D379F900DD7
:100F6000269F810D1124911D08959C013603C00117
:100F7000729F800D911D379F900D269F810D11242A
:100F8000911D08959C013603C001269F810D1124F7
:100F9000911D0895EF92FF920F931F93CF93DF93CC
:100FA000EC018D2F78DE8C0181E08D0F74DE7C01E9
:100FB00060E071E06C1B7109C801D7DF8C016C2FF8
:100FC000C701E0DF800F911FCDB7DEB7E6E00C94DC
:100FD0008926ACE0B0E0EFEEF7E00C9464264F8396
:100FE000588769877A878B879C87CF80D884E984E4
:100FF000FA840B851C85C701F7FE04C08827992752
:101000008E199F09980117FF04C022273327201B40
:10101000310B821793070CF4C9019601D7FE04C067
:10102000222733272C193D09821793070CF4C90195
:101030008F3F9105B1F0ACF0D7FE03C02FEFC21A7D
:10104000D20AD594C794F7FE03C03FEFE31AF30A20
:10105000F594E79417FF02C00F5F1F4F1595079592
:10106000CACFB601C60174DF4C01B701C70170DFFA
:10107000880E991EB801C8016BDF880E991E38E0F2
:10108000532EA12CBB24B39450E8652E772473947F
:10109000B501C50150DFBC01C4014DDF96958795B0
:1010A000B5019301281B390BC90145DF5C015A9436
:1010B0005110EECFBC01C60158DFD82EC92EB501A4
:1010C000C70153DFF82EE92EB501C8014EDF2D2DE3
:1010D0003C2D4F2D5E2DBC0180E090E02C96EFE082
:1010E0000C948026A5E1B0E0E8E7F8E00C946526D2
:1010F000188729873A874B875C876D877E878F871C
:10110000A88AB98ACA8ADB8AEC8AFD8A68887988C3
:101110008A889B88AC88BD88602FC30100DF6C0182
:101120006885C401FCDEC80ED91E6985C501F7DEDD
:10113000C80ED91E6A85C301F2DE7C016B85C4012D
:10114000EEDEE80EF91E6C85C501E9DEE80EF91E3B
:101150006D85C301E4DE8C016E85C401E0DE080FFD
:10116000191F6F85C501DBDEDA82C982FC82EB8242
:10117000800F911F9E838D832C2D3A814E2D5C8193
:10118000682F7E8180E090E06596EEE00C948126E9
:10119000EF92FF920F931F93CF93DF93DC0180E8D0
:1011A000689FB001112465597A4F30E0F02EF40E9B
:1011B000015010E00F5F1F4FFD01942F549197FDD8
:1011C00006C0EB01C90FD11DE11011C05883319643
:1011D0009F5F9F11F3CFA00FB11F3F5F60587F4FFC
:1011E0002313EACFCDB7DEB7E6E00C9489268881D9
:1011F000852B8883ECCFEF920F9323E0829FC00171
:101200001124EE24E39403E021E0815F994FC0DFD5
:101210000F91EF900895FF920F931F93CF93DF9359
:10122000D62FC42F8C01083E83E0180710F007EE7C
:1012300013E080E00436110520F0045611098F5F99
:10124000F9CFF12C0A30110520F00A501109F3945E
:10125000F9CF882391F04C2F6D2FCDDF44E04C0F58
:101260006D2F8F2DC8DF48E04C0F6D2F802FC3DF0F
:10127000CDB7DEB7E5E00C948A2644E0FF20A1F369
:1012800042E04C0F6D2F8F2DB6DF46E0EDCF1F9360
:10129000CF93DF93162FD42FC82F843608F0C3E6E0
:1012A00080E0CA3018F0CA508F5FFBCF42E088233D
:1012B00021F04D2F612F9FDF44E04D0F612F8C2FC8
:1012C0009ADFDF91CF911F910895809166059091EB
:1012D00067052091680530916905E0913D05F09121
:1012E0003E0560913F057091400540916405509125
:1012F0006505A0913B05B0913C054A1B5B0B57FF70
:1013000003C05195419551094F3F510509F0BCF477
:101310008E1B9F0B97FF03C09195819591098F3F7D
:10132000910509F064F4261B370B37FF03C0319594
:101330002195310981E02F3F310511F00CF080E05B
:10134000089586E0EEE5F5E0ABE3B5E001900D929F
:101350008A95E1F786E0EEE4F1E0DF01982F1D9237
:101360009A95E9F7E5E3F1E0DF011D928A95E9F747
:10137000089580936E09E5DF10927A011092710151
:1013800010927001109275011092740180E28093A6
:101390005B0180E090E1909377018093760181E09A
:1013A00080937801089580E0E4DFEBE3F1E01192AF
:1013B00081E0ED34F807D9F71092780186E0ECE08F
:1013C000F1E0A3E9B9E001900D928A95E1F780E0A0
:1013D00090EE909388098093870980E09FE0909336
:1013E00086098093850980917201817080937201D2
:1013F00080E280935A018AE280933401089587FD48
:101400001BC060347105C0F4FB0194E0EE0FFF1FB8
:101410009A95E1F7E078F370E80FF11DE559FA4F7E
:101420006770772781E090E001C0880F6A95EAF73E
:1014300080959081892380830895CF93461757071D
:101440000CF438C057FD36C0603471059CF587FD3B
:1014500031C077FF02C070E060E0C62F4F33510506
:1014600014F04FE350E0C87F942F987F6770772780
:101470006A507F4FFB016491FA01E770FF27E25148
:10148000FF4F4491E82FF0E080FF232F80E1C89FB9
:10149000D0011124AE0FBF1FA559BA4F3C91C913FB
:1014A0000BC0E62FE4239E2F9095922BE223E32B93
:1014B000E923EC93CF910895862F8095582F522BD6
:1014C000E62FE2238E2F832B85238C93A058BF4FCA
:1014D000892F8C1B8850181624F42C93A058BF4FCA
:1014E000F9CF6C91E42FE0958E2F822BE42FE2232D
:1014F000E62BE823DECFE62FE770F0E0E85FFC4F55
:10150000E49166956695669590E8699FD0011124EF
:10151000A80FB11DA559BA4F8C91E82BEC930895F3
:10152000B0E0A0E0E6E9FAE00C946B26C82F062FA5
:10153000182F110F110F110FD0E069E0610F8D2FDF
:10154000DADF61E1610F8D2FD6DF69E1610F8D2F49
:10155000D2DFDE5FDA3689F720E8C29FC0011124AE
:1015600085519A4FFC01AC014C595F4FDF01A058E7
:10157000BF4F2AEA2C9320833A964E175F07B1F7A4
:10158000FC01E851FF4F208388599F4FFC012083C5
:10159000CC24C394C00E10E0055C1E4FD2E0F12CA9
:1015A000E12CD12C4D2F6C2F8C2D71DEF801819107
:1015B0008F01E80EF11C882379F04D2F62E06C0F4B
:1015C00066DEEFEFEC0DF0E0E35AFE4F8181D80EBE
:1015D0004D2F61E06C0F5BDED65FC394DC3511F7F5
:1015E000DD2059F061E06C0F4CE58D2D90E013DEAD
:1015F00062E06C0F4CE5C7010EDECDB7DEB7E8E068
:101600000C9487269C0143E0969587954A95E1F7CF
:1016100037FD906E0895AAE0B0E0E1E1FBE00C94A4
:1016200061269B838A837A8769875A013901D88624
:10163000CF824617570764F0E016F1064CF09E2D56
:101640008F2D7801092F182F8B2D5B0149878A87F1
:1016500093014A815B81241B350B3D832C83470119
:101660008A189B0897FE03C09194819491081801F1
:1016700089859A85281A390A37FE03C03194219446
:1016800031082A2D2770998597709983EA14FB04F5
:1016900014F42195277049855A850417150724F4F9
:1016A00089818195877089838A8187709CEFC92E93
:1016B000C80E0C2C000CDD082850330B4C815D81CA
:1016C000249FC001259F900D349F900D11248C9C68
:1016D00090018D9C300D9C9C300D1124821B930B2E
:1016E00091DF2C0189818850990B9C014C815D818F
:1016F000249FC001259F900D349F900D11242C9C98
:1017000090012D9C300D3C9C300D1124821B930BBD
:1017100079DF6C01AE14BF040CF441C05FEF598354
:1017200029853A85201731070CF43CC03FEF3E83F2
:10173000EA14FB041CF451E0A51AB10889859A85C6
:10174000081719071CF401979A8789878A819B815A
:1017500059DF8C01C301039655DF9B838A83C50142
:1017600051DF5C0189859A854DDF7C019981692E65
:10177000990F77082E81022E000C330B3A872987A8
:101780004A815B814017510749F1141415046CF428
:10179000A60CB71C8C819D81481A590AF6CF81E0AE
:1017A0008983BECF41E04E83C3CF1C141D044CF48B
:1017B00029853A85E20EF31E4C815D81C41AD50A53
:1017C000F4CF2F813885A701B501802F36DE0F5F5A
:1017D0001F4F480C591CC20CD31CD2CF2A96E2E1F1
:1017E0000C947D26A3E0B0E0E8EFFBE00C946126CA
:1017F000AA27BB27A41BB50B8B016A177B070CF428
:101800007DC08A179B070CF479C0DA01BC5FA6176C
:10181000B70708F473C0A817B90708F46FC06901C7
:101820005B834A835C01CB01EDDE8983C501EADE7F
:101830005C010A811B8183E0169507958A95E1F783
:101840001B830A8328EF20032001219F500C1124C1
:1018500018E0410E511C8A819B81880F991F880FC7
:10186000991F25E030E07901E81AF90A10E000E05C
:101870003CE0232E312C96018A809B808A0C9B1C95
:10188000A40135018A819B81681A790AB301898193
:10189000800FD3DD9601A401B3018981801BCDDDCA
:1018A000960148018A0C9B1CA4013501601A710A3B
:1018B000B30189819A81890FC0DD9601A401B3012A
:1018C0008981EA818E1BB9DDF7FC0BC0E40CF51CA5
:1018D000F8E04F0E511C4A815B81415051095B83F6
:1018E0004A83E20CF31C58E0250E311C0F5F1F4F9A
:1018F0008A819B81801791070CF0BDCF2396E2E18E
:101900000C947D260F931F93492F50E0440F551FD1
:1019100042505F4FFA0125913491FA013296A59118
:10192000B491482F4095349FB001249F610D11243C
:10193000711DB89FA001A89F410D1124511D460F94
:10194000571F232F3327FA01E20FF31F9F01DC01FA
:101950000E943D26072F182F292F332780E090E083
:10196000A2E0801B910BA20B9C014A2F50E0DF01EB
:101970000E9411261F910F910895B0E0A0E0E3ECC2
:10198000FCE00C9469265C01E9018417950739F1A4
:10199000D801A21BB30B201731071CF0D901A01BE3
:1019A000B10B9B012A193B090E943D266B017C016A
:1019B000CA018A199B098F3F9105B9F0B0F0A2DFE7
:1019C00055274F2D3E2D2D2DDC010E9411260C1781
:1019D0001D071CF4919581959109C80FD91FCE015F
:1019E000CDB7DEB7EAE00C948526FC01EE0FFF1FB1
:1019F000E250FF4FA591B491A7019601E6CFB0E068
:101A0000A0E0E5E0FDE00C9463264B015C01EA01F7
:101A1000280139019B01A70160E071E0CE01ADDF33
:101A20006C0183019501A70160E071E0CE01A5DFA3
:101A3000B601CDB7DEB7E0E10C947F26AAE0B0E0B6
:101A4000E4E2FDE00C9461264C012A011801B42F58
:101A5000A52F4817590714F4B82FA92FEB2FFA2FE9
:101A6000E215F3050CF4F801F7FDD9C0B42FA52F4A
:101A70008414950414F4B82FA92FEB2FFA2F2E16E7
:101A80003F060CF4F801E130F2400CF0C8C05B01F5
:101A90003A8729873701261737070CF0E4C0E61686
:101AA000F7060CF0C0C02C014A017A8769875901FA
:101AB0006A147B040CF4BFC0782D692D9A2D8B2DF0
:101AC00048015701120169847A842401BA86A986E3
:101AD000872E962EA92EB82E77FCA1C0A114F4E073
:101AE000BF060CF09CC0A614B70409F498C081018D
:101AF0009401A30169857A85C5013FDF89839A83B3
:101B0000EC2DF0E0EE0FFF1FE250FD4F25913491D8
:101B10003E832D83B7FE9DC08201940149855A857D
:101B200070E060E0C50129DF7C0109811A81940120
:101B300049855A8570E060E0C5011FDF8B839C8377
:101B40004701B12CA12C89859A858130A4E09A07A0
:101B50000CF482C082019401AC0160E074E0C50124
:101B60000CDF8F83988709811A812B813C814985FD
:101B70005A8560E074E0C50100DF20E034E0A21681
:101B8000B30654F4CD80DE807C010F8118854B8133
:101B90005C81B401C5013FDDE985FA85F7FF14C01A
:101BA00081019201A30170E060E0CF01E6DE2C012B
:101BB00029813A81A30170E060E089859A85DDDEA4
:101BC00089839A831A861986C101F1E06F16F4E0C1
:101BD0007F06ACF081019201A30160E074E0898589
:101BE0009A85CBDE7C0129813A81A30160E074E013
:101BF00089859A85C2DE1701612C24E0722E298521
:101C00003A85261537055CF4CD80DE807C018101A4
:101C1000930149815A81B20189859A85FCDC2A9613
:101C2000E2E10C947D26742F652F922F832F2801DB
:101C3000FA86E98647CF982D892D48011201492E51
:101C4000582E9A2D8B2D570169847A8499878A871B
:101C500043CF8B829C8277CF89819A814F8258862D
:101C600029853A858CCF89859A85E816F9060CF482
:101C70001FCF32CFA5E3B0E0E0E4FEE00C94612694
:101C8000E0908709F09088090091850910918609F4
:101C9000C80180D96C01C801905C7CD98C01C70156
:101CA00079D95C01C701905C75D97C019A838983DD
:101CB0001C821B82BE82AD82B501C6016AD898879C
:101CC0008F831A870987B701C60163D891958195DB
:101CD00091099C878B87B501C8015BD89195819547
:101CE00091099E878D87D88ACF86B701C80151D8C0
:101CF0009A8B898BEADA8BA78111DAC100E02091F7
:101D00003B0530913C0540913D0550913E05609169
:101D10003F0570914005CE01019652D8582E209172
:101D20005308309154082F3F310509F00CF4C4C119
:101D300040915B0350915C0360915D0370915E0381
:101D4000CA0140935F0350936003609361037093F3
:101D5000620380589F4F9093600380935F0330939A
:101D60005608209355088091E3059091E4059093DF
:101D7000E6058093E50520913D0530913E0579010A
:101D8000890140E060E080E00E946F0680579E4F2E
:101D90009093E4068093E3068FEF80937E01539443
:101DA00001E00BA721E029A3609064057090650510
:101DB000E0906605F0906705A0906805B090690511
:101DC00047019394262D7A8E698E482D9C8E8B8E9A
:101DD0006A2DBE8EAD8E052D3A8D5C8D7E8DCE0129
:101DE00001960E94E006082F282F30E0A9014D58E7
:101DF0005E4F440F551FFA01E559FA4F208031809C
:101E0000F901EE0FFF1FEE0FFF1FE95AFC4F808113
:101E10009181A281B38160817181CB01C096220F33
:101E2000331F220F331FF901E55AFC4F8083918342
:101E3000A283B38343595A4FDA012D923C920F5F2C
:101E40006701BBEFDB1A4C2DDC8ECB8E298D3A8DD2
:101E50005C8D6D8D7E8DCE0101960E94E006482E30
:101E600090E0DC01AD58BE4FAA0FBB1FFD01E55944
:101E7000FA4F0081118131E0EFEF2E16310409F0A5
:101E80000CF430E021E00F3F110509F00CF420E0E4
:101E9000332E3222FC01EE0FFF1FEE0FFF1FE95A17
:101EA000FC4F408151816281738120813181A90180
:101EB000405D5F4F880F991F880F991FFC01E55AFD
:101EC000FC4F4083518362837383A359BA4F0D93B0
:101ED0001C9301E0040DC701995F482F9C8F8B8FE5
:101EE000298D3A8D5C8D6D8D7E8DCE0101960E947F
:101EF000E006082FE82FF0E0EE0FFF1FEF5AF74F34
:101F000021E0808191818F3F910509F00CF420E060
:101F1000322280917A01880F880F880F0E94600614
:101F2000680E711C87FD7A94262D7A8E698EFAEFE1
:101F3000FF1A4E2DFC8EEB8E32E0B31A6A2DBE8E48
:101F4000AD8E3A8D5C8D7E8DCE0101960E94E006AD
:101F5000782EE82FF0E0EE0FFF1FEF5AF74F808149
:101F600091818F3F910509F00CF46BC0332009F487
:101F700068C082E0682E650C44244394450C49A156
:101F8000A42EB12C760184019401462D642D852D5B
:101F90000E946F06F501EE0FFF1FED51F94F91837F
:101FA0008083F501EE0FFF1FEE0FFF1FE558FE4F78
:101FB00050824182628244E0242E238253E0352EF7
:101FC000350CA9A0A394B12C86019401432D662D54
:101FD000842D0E946F06F501EE0FFF1FED51F94FA2
:101FE00091838083F501EE0FFF1FEE0FFF1FE55871
:101FF000FE4F4082618232822382E5E09E2E950C64
:10200000520CA9A0A394A394B12C9601492D652D3F
:10201000832D0E946F06F501EE0FFF1FED51F94F62
:1020200091838083F501EE0FFF1FEE0FFF1FE55830
:10203000FE4F60825182928283E0838359A15D5F6B
:1020400059A3D72C10E0809156051817B8F5E12F49
:10205000EE0FA1E0AE0FB0E0AD50BA4F8C91A12FC2
:10206000B0E0A559BA4F6C91F0E0ED50FA4F4081C5
:1020700090E44902A0011124242F5C8B4B8BA0E437
:102080006A02B0011124462F7E8B6D8BB0E48B0267
:10209000C0011124682F988F8F8B0D2D3C895E898C
:1020A000788DCE0101960E94E006D82E1F5FCBCF1F
:1020B0001BA619A2512C78CE19A276CE87E595E001
:1020C000E9A1ECA730E070E020E013E0DC014D91E5
:1020D000CD01740F319FF0011124E551F94F3717ED
:1020E00008F043C06081670D5181570D4281470D53
:1020F000A62FB0E0AA0FBB1FAD5AB74F0D90BC91F1
:10210000A02DAF3FB10509F0D4F4A52FB0E0AA0F80
:10211000BB1FAD5AB74F0D90BC91A02DAF3FB1057D
:1021200009F06CF4A42FB0E0AA0FBB1FAD5AB74F53
:102130000D90BC91A02DAF3FB105A1F09CF0FCA487
:1021400004E0F09ED0011124A558BE4F6C93119667
:102150005C93119712964C93129713962C930F2D14
:102160000F5F0CA73F5F3396BACF2F5F253009F082
:10217000ADCF29A1822F90E09C01220F331F220FA7
:10218000331FA90145585E4F58A34F8F880F991FE1
:10219000DC01AD51B94FBDABACABBCA5BAA7E72DC7
:1021A000F0E0F9ABE8ABFCA5F9A0FF1608F468C0B5
:1021B0006BE5A62E63E0B62E73E5872E78E0972EAA
:1021C000C12C612C77247394DC1090C255EEE52E5F
:1021D00056E0F52E0FE711E091E0EAA59E1708F012
:1021E000F5C2D7016D917D917D01F80181909190AB
:1021F000A190B1908F01892F282F30E0A90145547B
:102200005F4F440F551FFA01E559FA4F0190F081D5
:10221000E02D43595A4FE617F707E0F4DA01ED9342
:10222000FC93D901AA0FBB1FAA0FBB1FA558BE4F15
:10223000220F331F220F331FF901E958FE4F408050
:102240005180628073804D925D926D927C92139763
:10225000815091F6282F30E0F901EE0FFF1FED516C
:10226000F94F71836083220F331F220F331FF9014F
:10227000E558FE4F80829182A282B3829F5FADCFEC
:10228000AF8DB8A1BC91B8A7EF8DF8A1F181F9A7E6
:10229000AF8DB8A11296CC9012971396BC91BDA7A2
:1022A000F8A4EF2DF0E0EE0FFF1FED5AF74F20815D
:1022B00031813BA32AA339A5E32FF0E0EE0FFF1FE6
:1022C000ED5AF74F408151815DA34CA36C2C712CCA
:1022D000F301EE0FFF1FED5AF74FA080B180552498
:1022E00053948AA19BA18F3F910511F00CF0512CC2
:1022F000ACA1BDA1AF3FB10509F014F4689451F849
:10230000BFEFAB16B10409F014F4689452F8F3016E
:1023100028A939A9E21BF30BE559FA4F808130E473
:1023200083027001112449A5842E912CF40188A9FF
:1023300099A9E81BF90BE559FA4F008190E40902CD
:1023400080011124A8A52A2E312CF10128A939A930
:10235000E21BF30BE559FA4F208140E4240290017F
:1023600011244C2D69A58A2F0E946F069BAB8AAB66
:10237000ACA9BDA98D939D93BDABACAB252D30E031
:10238000C901019785219323892B09F4C5C0B6E7BC
:10239000BD1508F47DC0880C991C880C991CF401AB
:1023A000E55AFC4F4F01660C771C660C771C9301B5
:1023B000255A3C4F3FA32EA33101660C771C660CB7
:1023C000771CA301455A5C4F3A01DA016D917D916A
:1023D0008D919C9150FC65C020803180428053805B
:1023E000EAA0FBA08B019C014CA15DA1C201B1013F
:1023F00006DB1B012C01F301008111812281338155
:10240000AEA1BFA16D917D918D919C91EAA0FBA0A1
:10241000A501F5DA2D2D30E0F901EE0FFF1FEE0FCB
:10242000FF1FE55AFC4F2082318242825382220FE5
:10243000331FF901ED5AF74F20E031E0318320835B
:1024400021E02D0D422F50E0FA01EE0FFF1FEE0F9D
:10245000FF1FE55AFC4F6083718382839383CA0117
:10246000880F991FFC01ED5AF74F40E051E051836E
:102470004083E8A5AF8DB8A1EC9311962C931197EA
:102480001296DC921297FDA51396FC93D394D394E5
:1024900099A19F5F99A3AF8DB8A11496B8A3AF8FF0
:1024A00082CE51FC1DC00081118122813381ECA0BC
:1024B000FDA04AA15BA1A3DA1B012C01D4010D915F
:1024C0001D912D913C91EEA1FFA1608171818281CE
:1024D0009381ECA0FDA0A50192DAF9A5F8A79ACF07
:1024E000AEA1BFA10D911D912D913C9175014AA105
:1024F0005BA185DA1B012C01EEA1FFA100811181F6
:1025000022813381D4016D917D918D919C914CA15B
:102510005DA175DAC8A67ECF552009F4B9CF66E76C
:10252000F62EFD1408F4B4CF0AA5083708F0B0CF92
:10253000880C991C880C991C9401255A3C4F3FA388
:102540002EA3660C771C660C771CA301455A5C4FC2
:102550005FA74EA74101880C991C880C991CC401E7
:10256000855A9C4F4C0150FE77C0D9010D911D91A9
:102570002D913C91FC016081718182819381ECA05D
:10258000FDA04AA15BA13BDA2B013C01AEA5BFA592
:102590000D911D912D913C91F40160817181828199
:1025A000938175014AA15BA12ADA2D2D30E0F90152
:1025B000EE0FFF1FEE0FFF1FE55AFC4F40825182C6
:1025C00062827382220F331FF901ED5AF74F20E028
:1025D00031E03183208321E02D0D422F50E0FA01BC
:1025E000EE0FFF1FEE0FFF1FE55AFC4F6083718354
:1025F00082839383CA01880F991FFC01ED5AF74F1C
:1026000040E051E051834083AF8DB8A1DC92E9A551
:102610001196EC9311971296CC921297FDA51396F2
:10262000FC93FAA4EF2DF0E0DF01AA0FBB1FAD5120
:10263000B94F4AA95BA94D935C93EE0FFF1FEE0FB4
:10264000FF1FE558FE4FD082C18222835DA55383D0
:102650008F2D8F5F8AA71ACFAEA5BFA56D917D91F3
:102660008D919C9151FE23C0EEA1FFA1408051802D
:102670006280738075018B019C014CA15DA1C30137
:10268000B201BDD92B013C01D4010D911D912D91B9
:102690003C91EEA1FFA16081718182819381EAA0CA
:1026A000FBA04CA15DA1ABD9C9A6C8A47ECFD40123
:1026B0000D911D912D913C91EAA0FBA0A5019FD900
:1026C0002B013C01EEA1FFA1008111812281338108
:1026D000AEA5BFA56D917D918D919C91ECA0FDA0C3
:1026E000A5018DD9C9A4B8A5B9A75FCFF50100810F
:1026F0001181E280F380D4018D919D914D018F3F36
:102700009105D1F1CCF1FED89C01D8010E945B2645
:102710001B012C01D7010E945B262114B8E73B0660
:102720004104B4EC5B06CCF12114E8E83E06EFEF7F
:102730004E06EBE35E06C4F56115F8E77F078105F9
:10274000F4EC9F07CCF1611508E870070FEF8007E4
:102750000BE39007B4F592018101BFE03695279510
:1027600017950795BA95D1F72FE0969587957795A8
:1027700067952A95D1F77B011E5FD50111961C93B1
:102780000E93C3018E199F0913969C938E931297F3
:10279000C394B4E0AB0EB11C17CD212C48E7342E06
:1027A000412C44EC542EC8CF212C38E8332E44243D
:1027B0004A943BE3532EC0CF60E078E780E094EC8E
:1027C000CACF60E078E88FEF9BE3C5CF0E94C106D7
:1027D0004BE7842E41E0942ED12CB12CA12CBAA52C
:1027E000BD1509F44CC0F401C380FFEFCF121FC028
:1027F000FBA4FF20B9F0A0905F03B090600380912C
:102800005B0390915C03A81AB90A60915B03709115
:102810005C0380915D0390915E032FEF3FEFA50174
:102820000E94F20BD394E4E08E0E911CD8CFD40119
:102830001296EC91B4E0EB9FF0011124E55AFC4FA5
:10284000E080F18002811381D4011196EC91B4E013
:10285000EB9FF0011124E55AFC4F20813181428128
:102860005381D401EC91B4E0EB9FF0011124E55ABF
:10287000FC4F6081718182819381E0D8D3CFFBA529
:10288000FF2309F491C085010C5F1F4F80915B030A
:1028900090915C0322273327201B310B821793076B
:1028A0000CF482C0E0905D03F0905E03E216F30644
:1028B0000CF47AC024E0A20EB21EA816B90608F4E1
:1028C00073C0AE14BF0408F46FC00E94020B89A34A
:1028D000C7010E94020B5C0183E0169507958A955B
:1028E000E1F728EF20032001219F500C112438E04C
:1028F000430E511CC801880F991F880F991F25E0AE
:1029000030E06901C81AD90A3CE0232E312CF12CA1
:10291000E12C4501801A910AB40149A14E0D4F8F57
:10292000842F0E94FF093501600E711EB3018F8D47
:102930000E94FF09B40199A09E18892D0E94FF09E9
:10294000B301892D0E94FF0945018E189F08B4012B
:1029500059A1500F5F8F852F0E94FF0937016A0C24
:102960007B1CB3018F8D0E94FF09B40199A0901ABE
:10297000892D0E94FF09B301892D0E94FF09D7FC10
:1029800007C0C40CD51C88E0480E511C0150110929
:10299000C20CD31C98E0290E311CAFEFEA1AFA0AD8
:1029A0000E151F050CF0B5CF8AA5E596E2E10C9453
:1029B0007D26FF920F931F93CF93DF938091640541
:1029C0009091650520913B0530913C05821B930B4E
:1029D000009168051091690520913F0530914005EF
:1029E000021B130BF12C17FF05C01195019511095E
:1029F000FF24F39497FF05C06894F1F891958195B1
:102A00009109801791073CF46894F2F8302F212F38
:102A10008C01832F922F8F3F910511F00CF04EC047
:102A2000FC01EE0FFF1FE250FF4F25913491D801BA
:102A30000E945B26DC01CB0153E0B695A7959795E4
:102A400087955A95D1F7182FC92F40E0D42FFE0152
:102A5000EE0FFF1FE455FF4F85919491FE01EE0F9D
:102A6000FF1FE255FF4FC591D49160E071E0611BFB
:102A700071090E949B07D19F9001C19F210D1124D4
:102A8000311D820F931FF2FE06C020E030E4A90141
:102A9000481B590BCA01F1FE06C020E030E8A9012D
:102AA000481B590BCA01F0FE03C09195819591090D
:102AB000905CCDB7DEB7E5E00C948A260E94820CCC
:102AC0009C01D8010E945B26DC01CB013BE0B6955E
:102AD000A795979587953A95D1F7B5CFB0E0A0E047
:102AE000E4E7F5E10C946C267C018B01D22EFC010D
:102AF00080819181461B570B57FF02C04D5F5F4F8E
:102B00005595479555954795EA01C81BD90B6D2DED
:102B10000E94C207080F191F6D2DCE010E94C20727
:102B2000F70120813181820F931F91838083C80137
:102B3000CDB7DEB7E7E00C948826AF92BF92CF9274
:102B4000DF92EF920F931F93CF93DF9300D000D0CB
:102B500000D0CDB7DEB749835A836B837C838D83E6
:102B60009E83590149815A8183E9C82E89E0D82E74
:102B7000F6016081718120E489E899E0AFDFF60118
:102B8000918380834B815C816281738120E48BE837
:102B900099E0A4DFF601938382834D815E81648195
:102BA000758120E48DE899E099DFF60195838483AF
:102BB00060918709709188092E2DA5018FE899E011
:102BC0008DDF9093880980938709609185097091C2
:102BD00086092E2DA80181E999E080DF909386096E
:102BE0008093850926960FB6F894DEBF0FBECDBF41
:102BF000DF91CF911F910F91EF90DF90CF90BF9019
:102C0000AF9008950DB407FEFDCF8EB51EBC08959C
:102C10008EBD00000DB407FEFDCF8EB50895CF9296
:102C2000DF92EF926B01E82E00905005D00C0090DF
:102C30005105E01C599883E0EBDF8E2DE9DF8D2DE7
:102C4000E7DF8C2DE5DF1EBCEF90DF90CF9008957D
:102C50000F931F93CF93DF9380E091E0A0E08093E8
:102C60006B0990936C09A0936D0960E070E080E0BF
:102C7000D6DFCDE5D1E00FE611E00C171D0719F006
:102C8000C1DF8993FACF0DB407FEFDCF8EB5599AF7
:102C900080936F0180E00E94B9090E94D309DF91FF
:102CA000CF911F910F9108953FB7F89480912D0116
:102CB00090912E01A0912F01B091300126B5A89BD3
:102CC00005C02F3F19F00196A11DB11D3FBFBA2FBE
:102CD000A92F982F8827BC01CD01620F711D811D7E
:102CE000911D42E0660F771F881F991F4A95D1F703
:102CF00008958F929F92AF92BF92CF92DF92EF9200
:102D0000FF926B017C01D0DF4B015C01C114D10447
:102D1000E104F104B1F0C8DF681979098A099B0957
:102D2000683E73408105910588F381E0C81AD10897
:102D3000E108F10828EE820E23E0921EA11CB11CCE
:102D4000E5CFFF90EF90DF90CF90BF90AF909F9036
:102D50008F90089565E070E080E090E0CACF08951C
:102D6000B0E0A0E0E6EBF6E10C9467266C017B0195
:102D70008A0180910B01882309F45BC0809184094A
:102D8000882309F456C08091760980FF05C08091A0
:102D9000E00082608093E000E801B12C8AEFA82E69
:102DA00093E0892E2AE3922E209711F4BB20D1F1D3
:102DB0000E940C04811109C0AA94AA20D1F161E0FB
:102DC00070E080E090E095DFEFCF8C171D0611F0EA
:102DD0000CF08C2F9FB7F8948092E9002091E800C6
:102DE00025FD02C09FBFE0CF282F30E0C21BD30BD0
:102DF000F701815020F041914093F100FACFE20EAB
:102E0000F31EBB2021F09092E800B12CEBCF809113
:102E1000E80085FDE7CF9092E800BB24B3942097AB
:102E200009F3F3CF5D9884E68093750910161106B7
:102E30003CF081E090E0F6019383828310E000E0B3
:102E4000C801CDB7DEB7ECE00C948326EF92FF9279
:102E50000F931F93CF93DF93EC01E62E142F842F53
:102E60000E946006082F80E4810F0E946006182FE0
:102E70008E2D0E946006F82E80E48E0D0E94600662
:102E800088834F2D8403900111243983940390018A
:102E900011243A831B821C83902F91959D83F1947A
:102EA000FE82482F8403900111243F839403C001C4
:102EB00011249887CDB7DEB7E6E00C948926ADE102
:102EC000B0E0E5E6F7E10C9461264E8B5F8B688FEE
:102ED000798F8A8F9B8F322E532E202E412E6E8813
:102EE0007F88888C998C2A8D3B8D3D8F2C8F442D2B
:102EF0004195652D6195CE010196A8DF1B861A8646
:102F00001D861C86A12CBB84C12CDD8409811A81FD
:102F10002B813C814D815E816F81788589850E94FE
:102F20007208288B398B4A8B5B8B6C8B7D8B8889E5
:102F30009989680E791E8A899B89880E991E8C89C9
:102F40009D892C8D3D8D820F931F462D7A8269823B
:102F5000682D9C828B829E838D8390E4E92E022DC6
:102F6000142D232D352D5A817C819E81E6DD6D96B1
:102F7000E2E10C947D26AAE0B0E0E1ECF7E10C94EC
:102F80006126D62E28E0829F3001112420EF222EC8
:102F900023E0322E412C512C230138EA832E33E0DA
:102FA000932EA12CB12C53012FEF3FEF40E550E0C1
:102FB000C301B4010E94F20B30E020E040E450E095
:102FC000C301B4010E94F20B38E4398781E08A879B
:102FD0009A85D91608F441C089850E94600618E4D4
:102FE000282FA103C0011124892F990F990B9C014F
:102FF00028553C4F3A832983898580540E94600676
:10300000382FB103C00111249301290F311D97FD01
:103010003A953C832B8388EA882E83E0982E5301CF
:1030200089819A819E838D8338872F8394E0C92E6E
:10303000ED80FE800F811885A2019101C301B401CA
:103040000E941E0D29803A804B805C809A859F5F8C
:103050009A872985285F2987BBCF2A96E2E10C94BD
:103060007D26AEE3B0E0E7E3F8E10C9461260E9430
:103070006305C82ED0907901D094D822809379012D
:1030800080917A018F5F80937A01809178018230FC
:1030900019F08650823010F586E0EBE3F5E0DE01B2
:1030A000119601900D928A95E1F7009176011091A9
:1030B0007701209174013091750180913D059091C7
:1030C0003E059E5F682F9C838B83E12CA6E0FA2E41
:1030D00049815A817C818D819E81F1DE80917801C8
:1030E000811170C010914F05D3FE48C0109273013A
:1030F0000E94B90982E090E00E94DF25181729F0AC
:10310000612F82E090E00E94E7250E943A0EE12CB8
:103110000DE422E042E361E085E795E00E94C80803
:1031200021E042E364E088E295E00E94C8088091D3
:10313000720149E421E3882311F04FE721E530E0F3
:10314000421788F180E2E82FE770F0E0E85FFC4F7B
:10315000E491A82FA695A695A69560E8A69FD00114
:103160001124A20FB31FA559BA4F9C91E927EC93E4
:103170008F5F893241F72F5F3F4FE2CFD2FE08C009
:10318000112319F00E946B05C0CF0E947005BDCFBE
:103190008D2D807609F4B9CF8091720191E0892755
:1031A00080937201B2CF80914F0509E0811101C077
:1031B00004E0E12C21E047E767E08FE195E00E9421
:1031C000C80867C0813009F0EAC0209170013091D1
:1031D0007101198A188A1B8A1A8A1D8A1C8AE12C95
:1031E000FCE1FF2E00E717E140E0598960E07B89B0
:1031F00080E09D8964DE80917001909171019395CA
:1032000090937101809370018091720180FF51C091
:10321000D5FE09C080916E09811102C080915D01C7
:10322000815080936E09D6FE0CC080916E0920916A
:103230005D012150330B8217130679F18F5F809364
:103240006E0980917301883050F58F5F8093730110
:10325000D2FC0E94D3090E94A1090E943A0EE12CDF
:103260000CE122E040E066E08BEC94E00E94C808AC
:1032700010916E0942E166E081E0810F0E944709EA
:10328000E12FF0E0E35AFE4F42E167E081810E94C6
:103290004709EE96E2E10C947D2680E0D0CFD3FE84
:1032A000D7CF82E0809378018093720110927301EE
:1032B000CFCF80917A018F3F11F0D2FE05C082E01E
:1032C00080937801109273010E943A0E90917801D8
:1032D000963009F0E3C680915A01803208F458C74D
:1032E000943009F0E5C6E0916E09F0E0E55CFE4F30
:1032F0008081813009F0DCC6E0917A01EF70E7301F
:1033000008F0E7E0F0E0EE0FFF1FE652FC4F4591BA
:103310005491E0E1F3E08491E5E7F3E0E4913E2F9E
:10332000282F09EF17E0A9E7B8E070E060E0F12C82
:10333000E12CFB01EF5EFC4F8491FB01EA58FC4F4E
:10334000E491DE2EC82EC601822B932B8E299F2955
:103350007C01EE0CFF1C8E299F297C01F694E794DA
:103360008E299F298095F801F0808F21F42EF2227A
:103370008F2981938F01892F80959C918923932F89
:103380009423892B8D935427452754276F5F7F4FB4
:1033900079016436710509F48BC69601CACF823073
:1033A00009F0A0C00E94630520915C0130E0A901F2
:1033B0005695479556954795982F907609F44DC0A8
:1033C0002E5F3F4F240F351F2F3F310508F04EC0B1
:1033D00020935C0185FF0AC04091740150917501F2
:1033E000421B530B509375014093740186FF0AC032
:1033F0004091740150917501240F351F3093750170
:103400002093740187FF05C090915B019E5F9093AC
:103410005B0184FF05C080915B01825080935B015A
:1034200010915B01123028F512E010935B0180913E
:103430005A01882319F0815080935A0180917301B9
:103440008830D8F48F5F80937301D2FE3DCF86E041
:103450008093780110924D0137CF21503109241B00
:10346000350B09F0B1CF21E030E0B2CF2FEF30E0E3
:10347000AFCF17FFDACF10E8D8CFD3FEE6CFE0907A
:103480007401F0907501C7010E94CA075C01C70171
:10349000905C0E94CA077C0186E0EBE3F5E0A4E5BE
:1034A000B1E001900D928A95E1F7612FC5010E946C
:1034B000C20790934F0180934E01612F882799276F
:1034C0008E199F090E94C207909353018093520165
:1034D00083E08093780164E670E084EB90E00E94E2
:1034E0002F06B3CF833009F0CDC484E08FAB809139
:1034F000500190915101C09740914E0150914F0160
:103500004115A0EC5A070CF420C34115B0E45B0749
:103510000CF01EC350934F0140934E018115E0EC17
:103520009E070CF418C38115F0E49F070CF016C336
:103530009093510180935001209152013091530199
:10354000211560EC36070CF40CC32115A0E43A07F2
:103550000CF00AC3309353012093520140585F4F3F
:1035600060913B0570913C05650F711D57FD7A9583
:1035700070933C0560933B0580589F4F40913D05FB
:1035800050913E05490F511D97FD5A9550933E05A8
:1035900040933D0520583F4F80913F059091400555
:1035A000830F911D37FD9A959093400580933F05B9
:1035B000B0915D05BEAFE3E5F8E0F9A7E8A71CAA66
:1035C000FEAD2CA9F21709F4EAC2A8A5B9A59C90F2
:1035D00011968C90119712960C9112971696BC9199
:1035E000BCA7E8A5F9A5F781FEA7A8A5B9A51396DC
:1035F0008C91E0903B05F0903C05B0E48B02E01824
:10360000F1081124E8A5F9A58481A0903D05B090AA
:103610003E05F0E48F02A018B1081124A8A5B9A5B1
:1036200015969C91C0903F05D0904005B0E49B0258
:10363000C018D1081124ECA5E11104C0FEA5FF2398
:1036400009F446C04EA56CA5CE010196FFDB3A8079
:103650005B802C8128AB3D813AAB6E816AA72F80BD
:10366000488419856981C7010E948F073C0168A9B8
:10367000C5010E948F07680E791E622DC6010E9447
:103680008F07680E791E632DC7010E948F071C01EA
:103690006AA9C5010E948F07280E391E642DC60134
:1036A0000E948F07280E391E652DC7010E948F07C3
:1036B0002C016AA5C5010E948F07480E591E612F73
:1036C000C6010E948F076201C80ED91E5101730105
:1036D00080E1989EA001112490E1899E400111246F
:1036E000A0E10A9F80011124EE27FF27E41BF50BC0
:1036F000FBA7EAA7DA01AE0DBF1DEE16FF064CF0E0
:10370000412C512C32014E155F0544F4D701A41B06
:10371000B50B9D010E9455262B013C012224332428
:1037200028183908D401AA0DBB1DA214B30434F023
:103730008A149B0454F4D501A819B9099D010E946B
:103740005526460E571E681E791EEE27FF27E01BE2
:10375000F10BD801AC0DBD1DCE16DF0634F00C15F3
:103760001D0554F4D601A01BB10B9D010E945526E6
:10377000460E571E681E791E21E0421620E45206AE
:103780006104710408F0D8C13E2D2F2D8AA59BA598
:10379000E816F90614F43AA52BA5832F922F4817A3
:1037A00059070CF4CA01D701A81BB90BBBA3AAA3E4
:1037B0003A2D2B2DA214B30414F4322D232D832F74
:1037C000922F881699060CF4C4019501281B390B19
:1037D0003DA32CA33C2D2D2DCE16DF0614F43E2F39
:1037E0002F2F832F922F081719070CF4C801D60129
:1037F000A81BB90BCD01BFA3AEA34AA15BA16CA1CD
:103800007DA19FA10E94E9072AA33BA34CA35DA32E
:103810006EA37FA3BCA5B111AAC1EEA5E111A7C1FA
:103820002AA03BA04CA05DA00EA11FA1A09050011A
:10383000B0905101C0905201D0905301B1018091DC
:103840004E0190914F010E94A8077C01B201C50171
:103850000E94A807E80EF91EB801C6010E94A80739
:10386000E80EF91E1E141F040CF466C1E114FCEFEF
:10387000FF0634F462E370E088E790E00E942F06D0
:1038800020914E0130914F013FA72EA7B101C701F2
:103890000E94A807AEA4BFA4A81AB90A809150013B
:1038A0009091510199AB88ABB201C7010E94A80762
:1038B000C8A8D9A8C81AD90AA0915201B091530139
:1038C000BBABAAABB801C7010E94A8074A2DBD8EA9
:1038D000AC8E6C2DDF8ECE8EEAA9FBA9E81BF90B0E
:1038E000CF01F9A3E8A35D8D7F8D99A10E94E9071F
:1038F0002C8F3D8F4E8F5F8F68A379A32C8D3D8DCC
:103900003DAF2CAF8E8D9F8D99AF88AFA8A1B9A187
:10391000BBAFAAAFE0913501F0913601FBA7EAA752
:1039200020913701309138013EAB2DAB80913901A8
:1039300090913A019DA78CA7B801C9010E94A807E0
:103940007C01B2018CA59DA50E94A807E81AF90A7E
:10395000B1018CA59DA50E94A8075C01B8018AA5AC
:103960009BA50E94A807A81AB90AB2018AA59BA51F
:103970000E94A8076C01B1018DA99EA90E94A80709
:10398000F7FE03C0AFEFEA1AFA0AF594E794EEA542
:10399000FFA5EE19FF097F01B7FE03C0FFEFAF1AC5
:1039A000BF0AB594A79488A899A88A189B08C81A32
:1039B000D90AD7FE03C02FEFC21AD20AD594C794F2
:1039C000AAA8BBA8AC18BD08B101C7010E94A807EE
:1039D0006C01B201C4010E94A807C80ED91EB8012B
:1039E000C5010E94A807C80ED91E6CAD7DADC701E8
:1039F0000E94A8077C0168AD79ADC4010E94A807A8
:103A0000E80EF91E6AAD7BADC5010E94A807E80E5D
:103A1000F91EF194E194F10860EC882799278C193C
:103A20009D090E94C2073C016C187D0865E5C7012D
:103A30000E94C2076C01B101C3010E94A8074C019A
:103A4000B201C3010E94A8075C01B801C3010E9432
:103A5000A8077C016CAD7DADC6010E94A807880E49
:103A6000991E68AD79ADC6010E94A807A80EB91EBF
:103A70006AAD7BADC6010E94A807E80EF91E8EA5AF
:103A80009FA5880D991D90934F0180934E0188A9A1
:103A900099A98A0D9B1D90935101809350018AA989
:103AA0009BA98E0D9F1D9093530180935201B801E5
:103AB000C5010E94A8076C01B201C7010E94A807B6
:103AC000C81AD90AB101C7010E94A8077C01B80130
:103AD000C4010E94A807E81AF90AB201C4010E94B1
:103AE000A8078C01B101C5010E94A807CC0CDD1C00
:103AF000CC0CDD1CAAA5BBA5CA0EDB1ED0923601DC
:103B0000C0923501EE0CFF1CEE0CFF1CEDA9FEA9C6
:103B1000EE0EFF1EF0923801E0923701081B190BE0
:103B2000000F111F000F111F2CA53DA5020F131F21
:103B300010933A01009339013CA93F5F3CAB88A543
:103B400099A5089699A788A73BCD40E050ECE2CC18
:103B500040E050E4DFCC80E090ECEACC80E090E400
:103B6000E7CC20E030ECF6CC20E030E4F3CCAAA0A7
:103B7000BBA0CCA0DDA0EEA0FFA009811A812B8103
:103B80003C814D815E816F81788589850E947208B4
:103B90002AA33BA34CA35DA36EA37FA341CE209198
:103BA000350130913601032E000C440B6FEF70E0AD
:103BB00080E00E944C26A82FCB0180589F4FAF4F2A
:103BC000892F9A2FAA27909336018093350120914F
:103BD000370130913801032E000C440B6FEF70E079
:103BE00080E00E944C26A82FCB0180589F4FAF4FFA
:103BF000892F9A2FAA27909338018093370120911B
:103C0000390130913A01032E000C440B6FEF70E044
:103C100080E00E944C26A82FCB0180589F4FAF4FC9
:103C2000892F9A2FAA2790933A01809339019FA94F
:103C300091509FAB91115BCC8091520190915301B7
:103C400097FF03C091958195910920915001309182
:103C5000510137FF03C03195219531098217930730
:103C60000CF4C90120914E0130914F0137FF03C080
:103C7000319521953109821793070CF4C9018F3FC3
:103C8000910511F00CF064C0809133018F5F809337
:103C9000330180913101909132018830974008F0D2
:103CA0005AC0809133018E3108F055C080913D0596
:103CB00090913E0581159C4E0CF4C5C00E9465098B
:103CC000882309F466C02091870930918809E09122
:103CD0006E09F0E0E55CFE4F80818F5F808384E0B9
:103CE00080937801309375012093740110927A01CA
:103CF000809171008D7F809371001092480589EE4C
:103D000099E09093470580934605909344058093EE
:103D1000430584EB90E09093EA098093E90984E6F7
:103D200090E09093EC098093EB092CE231E0309322
:103D3000EE092093ED099093F0098093EF0980E05C
:103D400090E89093F2098093F1090E948A0521C0BE
:103D5000109233019ECF10923201109231011092D5
:103D6000330186E0EEE4F1E0DF011D928A95E9F788
:103D70000E94D9149093750180937401E0916E09AB
:103D8000F0E0E55CFE4F80818F5F808382E080936E
:103D900078010E94D9142C0186E0EBE3F5E0DE0106
:103DA000569601900D928A95E1F76E887F88888CEF
:103DB000998C2A8C3B8C40918609419560918809A9
:103DC0006195CE01019642D81B861A861D861C86F7
:103DD00080E0E82E8E878EE08F87A12CBB84C12CDB
:103DE000DD840EE0F02E09811A812B813C814D810A
:103DF0005E816F81788589850E947208288B398B56
:103E00004A8B5B8B6C8B7D8B88899989680E791EB8
:103E10008A899B89880E991E8C899D89820D931DA4
:103E2000462D7A826982682D9C828B829E838D8347
:103E300090E1E92E04E619E192015A817C819E818C
:103E40000E949D1541CA86E0E4E5F1E0ABE3B5E0F0
:103E500001900D928A95E1F786E0EEE4F1E0DF0152
:103E6000282F1D922A95E9F7E5E3F1E0DF011D9285
:103E70008A95E9F7E0916E09F0E0E55CFE4F8081FC
:103E80008E5F83CF843059F586E0E4E6F5E0DE010D
:103E9000119601900D928A95E1F72091740130916D
:103EA0007501E12C14E1F12E00E717E149815A81F7
:103EB0006B817C818D819E8102D88091740190916B
:103EC00075019395909375018093740180917A01A7
:103ED0008F3F09F0F9C985E080937801F5C9009119
:103EE0007201853009F054C00E94C10660E080E094
:103EF0000E94900A69E084E00E94900A8C2D8C70E8
:103F000009F443C080917A01803281F4011134C0F8
:103F1000C2FC32C080916E0920915D012150330BAB
:103F20008217130649F18F5F0E94B90960917A01E7
:103F300010E0C3FC05C010917A01C2FE10E060E001
:103F40008091720181110CC085E115D8EE24E394B3
:103F50000FE021E04EE662E08CEB94E00E94C8089E
:103F6000612F8DE208D8EE24E3940FE021E04EE6C5
:103F700065E08DEA94E023C9802F90E095958795C0
:103F8000809372010E94D309D1CF10927A01CECFD3
:103F9000863009F050C093E0011101C092E0809199
:103FA0003401882319F0835080933401D2FE03C07A
:103FB00082E080937801D7FE07C080914D0188236D
:103FC00061F1815080934D01D4FE07C080914D0175
:103FD000981729F18F5F80934D01D3FE75C9109119
:103FE0004D01002361F0111109C080916E090E94FA
:103FF000B90982E080937801109273011150111178
:1040000010C080917401909175019093710180931B
:10401000700110927A0181E05FCF892FD3CF80E0C9
:10402000DACF87E0113009F457CF123009F04CC9CC
:104030000E94D30949C9873009F046C9C7FE0AC0A2
:104040008091760190917701805491099093770146
:1040500080937601C4FE0AC0809176019091770129
:10406000805C9F4F909377018093760180917601D9
:104070009091770197FD0CC08115B0E29B075CF42D
:104080009093770180937601D2FE1EC982E024CFFF
:1040900090E080E0F5CF80E090E2F2CF80913401B3
:1040A0008A3218F48D5F80933401923009F013C97D
:1040B00010913401412F419580917201E12C0AE267
:1040C000882309F469C024E060E085E094E00E9460
:1040D000C80844E2411BEE24E39403E021E0609130
:1040E0004D0182E094E00E94C80810915A01412FCE
:1040F0004195E12C0CE123E065E08BEC94E00E941B
:10410000C80802E1011BE0906E09402F65E081E0E4
:104110008E0D0E944709F12CF701E35AFE4F818171
:10412000402F66E090E00E940B09F701E55CFE4F2E
:104130008081402F67E08F5F0E944709153098F516
:1041400086E0811BE12FF0E0EB51FA4F9F013C5FCD
:10415000DF0190E01D929F5F8913FCCF9FEF918359
:10416000E058FF4F2E173F0799F78DE7E82EE10E35
:1041700080915B01869500E4081B0034A0F4FE2CBE
:10418000F7FC0FC0602F8F2D0E947B0AF394F8CFAD
:104190008F5F80935A01A4C823E060E08FE294E02F
:1041A00096CF0F5FEACF44E6410FE12C08E121E012
:1041B00067E08AEE93E003C81F920F920FB60F924A
:1041C00011248F939F938091E1009091E100937F60
:1041D0009093E10083FF0FC01092E90091E090936B
:1041E000EB001092EC0092E39093ED0010928409A2
:1041F00098E09093F00082FF22C093E09093E90052
:104200009091F200992319F09AE39093E80090912D
:104210007509992341F09091750991509093750912
:10422000911101C05D9A90918309992341F0909179
:104230008309915090938309911101C0289A84FFBA
:1042400018C08091E2008E7E81608093E2008091B0
:10425000E1008F7E8093E100809176098E7E8061FF
:10426000809376099F918F910F900FBE0F901F90B2
:10427000189580FFF7CF8091E2008E7E8061809359
:10428000E2008091E1008E7E8093E10080917609CA
:104290008E7E8160E5CF1F920F920FB60F92112490
:1042A000CF92DF92EF92FF920F931F932F933F9342
:1042B0004F935F936F937F938F939F93AF93BF932E
:1042C000EF93FF93CF93DF93CDB7DEB76C97DEBF4D
:1042D000CDBF1092E9008091E80083FF25C068E01F
:1042E000CE0145960E94560582EF8093E8008D89A5
:1042F00087FF39C09091E80090FFFCCF982F90760F
:1043000009F034C19E894F89588D2F89F88C9111FD
:1043100031C0803861F5809174098093F10010926A
:10432000F1008EEF8093E8006C960FB6F894DEBF34
:104330000FBECDBFDF91CF91FF91EF91BF91AF91B4
:104340009F918F917F916F915F914F913F912F91AD
:104350001F910F91FF90EF90DF90CF900F900FBEC5
:104360000F901F9018959EEF9093E800C7CF109282
:10437000F100D5CF913059F48111D3CF413051059F
:1043800081F6809174098D7F80937409CACF933030
:1043900049F48111C6CF4130510519F68091740955
:1043A0008260F2CF953041F48091E80080FFFCCF2D
:1043B00020682093E300B5CF963009F0A9C00B8D9B
:1043C0001C8D22E01092E90010927209109271097E
:1043D000F2122EC01092700910926F090E942A05E5
:1043E0001F8299E09983FA8291E09E8390EA9887F0
:1043F0009AEF99872091710930917209275F3F4F99
:104400003C832B838D831092E900109272091092E5
:1044100071091093700900936F0949E050E0BE01E3
:104420006F5F7F4F80E00E9409050E942A0579CFC7
:104430001093700900936F090E941D04DC0112960D
:104440000D911C910115110509F451C1D801ED918F
:10445000FC910480F581E02DBE016B5E7F4FC801A9
:104460000995009709F03EC1F80100851185EACF52
:10447000F3E0FF120EC08F89882309F440C0823018
:1044800061F440E867E081E697E00E94DC04811176
:1044900048CF81E28093EB0047CF813029F440E898
:1044A0006BE085E597E0F1CF833099F70E941D041A
:1044B000DC011296ED90FC908E010F5F1F4F68019A
:1044C000E114F10479F0D701ED91FC910680F781B8
:1044D000E02DB801C7010995080F111DF701E0840F
:1044E000F184EECFD8011C92F60101900020E9F78B
:1044F0003197BF016C197D0940E0C601C6CF6FE35B
:1045000077E0FB01449150E080E80E94090509CF63
:10451000973009F4BECF983021F481E08093F10008
:1045200000CF993009F0FDCE837009F0B2CFE3E1FE
:10453000F1E081E031E096E32191222371F0809354
:10454000E9003093EB00DF0111972C912093EC00F0
:104550009093ED008F5F873079F78EE78093EA00C4
:104560001092EA008F8980938409DBCE8B8D9C8D1D
:104570001092E900109272091092710990937009DB
:1045800080936F09898D811192C08E899D89913A9E
:1045900049F4813209F07DCF47E050E064E071E0FA
:1045A00080E0B3CF913209F074CF833269F48F8900
:1045B000988DB0E0A0E08093000190930101A0935A
:1045C0000201B0930301ADCE803269F48091E8001E
:1045D00082FFFCCF67E084E091E00E9456058BEFFC
:1045E0008093E8009ECE823209F09BCE8F89809323
:1045F0000B01EEEFFFE7859194918B3F9C4D51F1BC
:10460000E0E0F8E08091040190910501A09106019D
:10461000B0910701803B9440A105B105F1F4809170
:104620000B0180FD1AC0EE3F8AE0F80789F587E7A5
:1046300097E791838083809160008093730988E17C
:104640009BE00FB6F894A895809360000FBE9093FE
:10465000600067CEEEEFFAE0D5CF80819181873799
:10466000974709F05ECEA89580916000886180939D
:1046700060008091730980936000EE3F2AE0F207AA
:1046800089F08091FE0A9091FF0A9183808349CE40
:10469000808191818737980751F29093FF0A809328
:1046A000FE0AC5CF1092FF0A1092FE0A3ACE0E946F
:1046B0001D04DC0112960D911C910115110509F4E0
:1046C000E8CED801ED91FC910190F081E02DBE0182
:1046D0006B5E7F4FC8010995811123CEF8010085DB
:1046E0001185EBCF181619060CF41BCED2CEF1E0D3
:1046F000FF12BECE63E477E004CF1F920F920FB695
:104700000F9211242F933F934F935F936F937F9357
:104710008F939F93AF93BF93EF93FF9380914B053C
:1047200090914C05A0914D05B0914E05892B8A2B97
:104730008B2B09F440C080914A0581110BC088B1D0
:1047400090E4892788B980914905882319F088B1B8
:10475000805888B980914B0590914C05A0914D05EA
:10476000B0914E05181619061A061B069CF4809186
:104770004B0590914C05A0914D05B0914E050197C8
:10478000A109B10980934B0590934C05A0934D0569
:10479000B0934E05FF91EF91BF91AF919F918F9193
:1047A0007F916F915F914F913F912F910F900FBE2D
:1047B0000F901F9018950E948A05ECCF1F920F92C0
:1047C0000FB60F9211242F933F938F939F93AF9324
:1047D000BF938091520590915305A0915405B091DB
:1047E000550530912C0123E0230F2D3758F5019604
:1047F000A11DB11D20932C01809352059093530568
:10480000A0935405B093550580912D0190912E01F0
:10481000A0912F01B09130010196A11DB11D80938F
:104820002D0190932E01A0932F01B0933001BF91E1
:10483000AF919F918F913F912F910F900FBE0F904D
:104840001F90189526E8230F0296A11DB11DD2CF07
:10485000E9E9F9E01382128288EE93E0A0E0B0E08B
:1048600084839583A683B7838DE191E091838083D0
:104870008FEF9FEF958784878FED93E09093F809F2
:104880008093F70980E090E89093F6098093F5090A
:1048900046983E9A47983F9A0895789484B58260E6
:1048A00084BD84B5816084BD85B5826085BD85B5D4
:1048B000816085BD80916E00816080936E00109252
:1048C00081008091810082608093810080918100CD
:1048D000816080938100809180008160809380005E
:1048E000809191008260809391008091910081601D
:1048F00080939100809190008160809390008091DE
:10490000C10084608093C1008091C1008260809367
:10491000C1008091C10081608093C1008091C3007B
:1049200081608093C3008091C00082608093C0004A
:104930008091C20081608093C20080917A0084607F
:1049400080937A0080917A00826080937A008091CF
:104950007A00816080937A0080917A0080688093E9
:104960007A0010928409109274091092760980914D
:10497000D70081608093D70080EA8093D80089B502
:10498000806189BD89B5826089BD09B400FEFDCF13
:1049900061E070E080E090E00E9479168091D8009C
:1049A0008F7C80618093D8008091E000807F80932D
:1049B000E0008091E1008E7E8093E1008DE08093A5
:1049C000E200559A209A81EC80937C0085B1806F3B
:1049D00085B984B1877E84B984B1876E84B95E9AC3
:1049E0005F988AB1806D8AB9769A6E9881B3806F2C
:1049F00081BB899880B38D7080BB80E58CBD81E0E0
:104A00008DBD0E94AA165F9A0E94AA165E985C98B5
:104A1000E0EFF6E08DEF96E024912EBD00000DB49E
:104A200007FEFDCF31968E179F07B1F75C9A81E89C
:104A3000809364008091650081608093650082E0CE
:104A400090E0BDD08823E1F00E9470050E946305CC
:104A500087FF19C05C9885EA8EBD00000DB407FE83
:104A6000FDCF5C9A2E982F982D982E9880916400F7
:104A700080628093640081E083BF889513BEFCCF81
:104A80000E946B05E3CF5E9AE4E1F0E0859194919A
:104A90008831954979F5E6E1F0E08491E7E1F0E0CD
:104AA000E491F82FF0935105E093500559988BEA63
:104AB0000E940816599A0E9428168FB7F894C09041
:104AC0005205D0905305E0905405F09055058FBFE6
:104AD000AA24A394B12C0BE615E0C0E0D4E08091A9
:104AE000600083FF0EC0F89487E7809300088093EE
:104AF0000108FFCF87EB9FEF9093510580935005FE
:104B0000D5CF2FB7F8948091520590915305A0917D
:104B10005405B09155052FBF8C19813230F4803285
:104B200081F3A3BE889513BEECCF8FB7F894C090E5
:104B30005205D0905305E0905405F09055058FBF75
:104B40000E94311880916E0990E0982F8827990F64
:104B5000990F20916B0930916C0940916D093901D1
:104B6000842E680E791E811C97FD8A94882DB301CE
:104B70000E940F16D8019E01EBE6F5E099E00DB416
:104B800007FEFDCF5E9800808EB50EBCB110012CE3
:104B90000192215030402AF000008D93EB36F90746
:104BA00090F3E2F35E9A599A8DB585E1E3E5F9E079
:104BB000A6E5B5E001900D928A95E1F790CFF999BD
:104BC000FECF92BD81BDF89A992780B50895262F12
:104BD000F999FECF1FBA92BD81BD20BD0FB6F894E2
:104BE000FA9AF99A0FBE01960895052E97FB16F4CE
:104BF00000940FD057FD05D01ED007FC02D046F41C
:104C000008C050954095309521953F4F4F4F5F4FCD
:104C1000089590958095709561957F4F8F4F9F4F28
:104C200008952BD0A59F900DB49F900DA49F800D4B
:104C3000911D11240895A1E21A2EAA1BBB1BFD0190
:104C40000DC0AA1FBB1FEE1FFF1FA217B307E4076B
:104C5000F50720F0A21BB30BE40BF50B661F771FC3
:104C6000881F991F1A9469F76095709580959095A3
:104C70009B01AC01BD01CF010895A29FB001B39F7C
:104C8000C001A39F700D811D1124911DB29F700D55
:104C9000811D1124911D0895DB01582FEEDF529FD5
:104CA000800DA49F800D11240895E7DF332312F4B3
:104CB0008A1B9B0B01C0E1DFB7FF0895821B930B9A
:104CC00008952F923F924F925F926F927F928F92B0
:104CD0009F92AF92BF92CF92DF92EF92FF920F938B
:104CE0001F93CF93DF93CDB7DEB7CA1BDB0B0FB695
:104CF000F894DEBF0FBECDBF09942A883988488852
:104D00005F846E847D848C849B84AA84B984C884E7
:104D1000DF80EE80FD800C811B81AA81B981CE0FDE
:104D2000D11D0FB6F894DEBF0FBECDBFED010895C3
:104D3000EE0FFF1F0590F491E02D0994F894FFCF3A
:104D4000FFFFFFFF00E1000000000000030D8006F0
:104D500085F200C18081000000000000003104B035
:0C4D600016530448049404560474040024
:00000001FF
