:100000000C9487130C94AF130C94AF130C94AF1390
:100010000C94AF130C94AF130C94AF130C94AF1358
:100020000C94AF130C94AF130C9426320C949532AD
:100030000C94AF130C94AF130C94AF130C94AF1338
:100040000C94AF130C94AF130C94AF130C94AF1328
:100050000C94AF130C94AF130C94AF130C9428357D
:100060000C94AF130C94AF130C94AF130C94AF1308
:100070000C94AF130C94AF130C94AF130C94AF13F8
:100080000C94C7340C94AF130C94AF130C94AF13AF
:100090000C94AF130C94AF130C94AF130C94AF13D8
:1000A0000C94AF130C94AF130C94AF134000580092
:1000B000001A00004000C040002000005800401A14
:1000C00000000000180028F600FA000010001800D8
:1000D00000F60000E00040F8004000004000F0C0E2
:1000E000000C0000A00040D800C00000A000402884
:1000F00000C000004000304000DC0000441000BCA4
:1001000004BC20004410004404BCE000441000BCC7
:100110000444E000441000440444200020001E0079
:1001200004D600E850001ED6040040E8401000004D
:10013000045000004010004004F000000010405047
:10014000040000002C3A352C393A2932272230207D
:1001500013280E182E1735342B3637252933322223
:100160003130132D28182F2E353A34363837121BDC
:10017000141D1E1F121A1B1D191E0900070F0A0D40
:100180000C110B0E0F131417151C18192522211D05
:10019000201C241023262736102C112A352B292623
:1001A0002B13121505040C0C01080100090B0203A6
:1001B0000B030608050C090801000B060006070FD3
:1001C0000E0A0C1011141617171618161918191DE7
:1001D0001C2021222124252423251D212024011037
:1001E000362523232636102A2C2A2C352726292685
:1001F0002A2B0F1213121415F000F0F00010040057
:10020000FE0200FC040002020004FE00FCFC00FEF2
:10021000FE0004FC00025000E80400F0040010306E
:1002200000E85000C83000D01000101000F00800A6
:10023000D03800B0F800D00000B0D000D0C800B076
:10024000B000C8D000EC0808DCF808DCB00000D032
:100250000014DC08ECDC0814B00038D00030C80012
:1002600050100030F00030F00050300030380050B6
:100270005008C85000383000105000103000F038DE
:1002800008B0C808B0B008C8B00838C80850380866
:10029000505008385008105000F0100050F008502E
:1002A0001008503008F05008F0500078EC00320090
:1002B00000A00050280028000078005032F4EC0024
:1002C000005000A0140CD800005000A0EC00D80092
:1002D00000100050C40CC40000100020BC0CD00062
:1002E00000100020BC0CB80000100050B40CC4007A
:1002F00000001050B010C40000501000EC04B0001A
:10030000000010500010EC0000721000EC042820D7
:10031000007210003C042820007210003CF8ECE051
:1003200000721000EC04ECE0007210001410C4E045
:100330000050002F3CFA0A00EA50002F14060A0071
:100340001650002F0AFAEC4016500029D006C4407F
:100350001A0114001830201F2913011514182C300D
:100360001F2F291A2B17222E1C0D2A16252812277B
:1003700031211A2D2B22322E0D1D2A253328273408
:10038000310F1310161E19191C1A2326240F1213CD
:1003900016181E191B1C2325260709010C100B110A
:1003A0000A0D110D1616171117191A121F131B24F7
:1003B0002218211E1C1B2226251221202705040C91
:1003C000000B060B02030B0306050C080C010800CA
:1003D00006070908010007010C0F10110E0A161973
:1003E0001712261F1B2324182021B00CB0B00CD8E4
:1003F000C00CC2BE0CC0C00CC6BE0CC8BA0CC0B883
:100400000CC2BA0CC8B80CC6D80050C00CB0C00C96
:10041000D8D8003C000050C80CD8C80CB000003C34
:10042000D800D8D800B0B014B0B014D80000142848
:10043000003C000C0028001450001428F40050F474
:1004400000D8083C280C000000B0000CD8280CD8BC
:1004500028F4D814F40014F4D80000000000D800E8
:100460000CB0D808D8D808B000081428083C0014EC
:100470000050081450FC000008B00014D82814D80C
:1004800028FCD80008000014B050002800084600DE
:1004900000A00050D808280000A00050280828001C
:1004A00000500050C4F8D800005000503CF8D8006C
:1004B00000180050F600D800001800500A00D800BC
:1004C000001000200000CC00001000200000E4001C
:1004D00000500058C4000000F15000583C000000DB
:1004E000F1500032E4FCD840F35000321CFCD840FC
:1004F0000D4010000004C40000721000C4FCD8209D
:10050000007210003CFCD8E000721000C40C28E01F
:10051000007210003C0C2820001521201F24161703
:1005200023131822111C271B1500211F292417250E
:10053000231826221C282700101112131510161834
:10054000141B17000110121413101916141A1B098A
:1005500000070D0F0E0C150B1314171110181B1A92
:100560001C16191F1A1D1C191D1F05040C0C01084F
:100570000100090B02030B030608050C0908010022
:100580000B060006070D0A0F0C12151A1E1D191E68
:100590001DF000C4F000EC0400D60200D40400DA20
:1005A0000200DCFE00D4FC00D6FE00DCFC00DA1405
:1005B00008500400C40400EC14083CEC083CEC08AF
:1005C00050D8F8ECD8F8C41000EC28F8C428F8EC9F
:1005D0001000C4B0081450F8ECB0F8ECD808142897
:1005E000081450081428083C00083C000814D808D7
:1005F0003C1008C4F008C4D800C42800C4B01014CB
:100600005000ECB000EC50101428103CD8103CA066
:1006100000F800000A0000480010EA00C800004886
:1006200000101600C80000A000180000BE0000A0C6
:1006300010000004B80000001048D804CA000000F0
:1006400010482804CA000020100000040000002008
:100650001000E004F000002010002004F000002052
:1006600010000004E000002D1000E0041020002D18
:100670001000200410E000300013000220001312CC
:10068000241E1823252729282B2D2C122224181547
:10069000232726292B2A2D002212012315012000B1
:1006A000323530312F333736383B3A3C0020220187
:1006B0002123012120322E3531342F3739363B3D6D
:1006C0003A131C1413111C0900070A101F0C0E0BFF
:1006D000001E0E01180D1F161A19171B1B1E0F10D6
:1006E0000F161D1B1005040C0C01080100090B025C
:1006F000030B030608050C090801000B060006079A
:100700000A1D100C0D0E00121E0115181F101619CF
:1007100018171B171E101B0F1D191B1000B8F00017
:10072000B80200CC0400CAFE00CCFC00CA0400C61B
:100730000200C4FC00C6FE00C4D800481000CCF083
:1007400000CCF000DC1000DC2800000000240C00CD
:10075000242800B8F40024F4041CD800B82800248D
:100760000000DCD800DCD800002800480000000CA5
:10077000041CD800242800DC0000481008B8F00849
:10078000B82808B8D808B82808DCD808DCE8000879
:10079000D80018D80818E808082800181800081801
:1007A00008082808180800000808E0F80800F80001
:1007B000E0F80000F808E00800E0080800E808F0A9
:1007C000D800F0D808F0E800F02808F01800F01879
:1007D00008F02800F05000503CFC140000300030BD
:1007E00000EC1C0000A00050280CC4000050005079
:1007F000C4FCC40000500050C4EC140000200010E1
:10080000B8EC2C0000200010D0EC2C000050001898
:10081000C4EC3600005000583C04EC001050005866
:10082000EC04C440F1500058C4F4EC000F00105028
:10083000B0F0140000001050D8F014000050100068
:10084000C4F03C0000721000C400C420007210000C
:100850003C10C4E0000010201410C4000020100060
:10086000C4F01000005010001410D8000050100008
:100870001410B000000110002427251E312122325F
:10088000200111102426271E3031222E3216180B7B
:100890000C1B17282B29232E221F2C1C1619180C71
:1008A0001A1B282A2B232F2E1F2D2C171C161D2018
:1008B0001F0E230D171D1C1D1E200E2123090007CE
:1008C0000E0A0F1412150C160B1C1D1F1E222022BF
:1008D000212305040C0C01080100090B02030B0382
:1008E0000608050C090801000B060006070E0D0A94
:1008F0001413120C17161E2122B0EC3CD8EC3CC28B
:10090000EC28C0EC2AC6EC28C8EC2AC0EC2EC2ECBD
:1009100030C8EC2EC6EC3050FC28B0EC28D8EC28BF
:1009200050FC0028FC0028FC28B0F43CD8F43C0C17
:10093000EC280CEC10F4EC10F4EC28B0EC00D8EC43
:1009400000B0F428B0F400D8F428D8F400B0FCD8F3
:10095000D8FCD8000CD8D8FCB0000CB0280CD82893
:100960000CB0500CD8BCEC10CCEC10BCF410CCF497
:1009700010140CBC140CCC1414BC1414CCB004D83B
:10098000D804B02814B05014D80014D82814D800B3
:1009900014B05000A000002800003800AD1400EC96
:1009A000E000A000500000C40000100020D400D0DF
:1009B0000000100020D400B80000180050CA00C485
:1009C0000000001050C404C40000501000D804B04F
:1009D00000007210000004EC20007210002804ECEB
:1009E00020007210002804C4E000721000D81CFC23
:1009F000E000721000001CFCE000A00050EC18FCAD
:100A0000000050222200002C002050002000181866
:100A100000000010200004C4000013161420102150
:100A20001E241F17271C1D281A1315162000101E20
:100A300023241726271D2928011000130E150D1435
:100A4000161B19181F25122C2F2D0111101B2219EE
:100A50001F24252C2E2F0D150E0D16150900070D20
:100A60000F0E12131D1C1B17121D1A171B18121A1A
:100A70001F1A1E201F1A1E1B2B2A05040C0C01080E
:100A80000100090B02030B030608050C090801000D
:100A90000B060006070D0A0F121413200B0C0C1A7C
:100AA000201B1C2BC400B0C400D8D800C2D600C084
:100AB000D800C6D600C8D200C0D000C2D200C8D06C
:100AC00000C6140050D800B0D800D8140038EC008C
:100AD00038EC0050C408B0C408D8140000EC002062
:100AE000140020EC0C2C140C2CEC18E8C418E8C4EE
:100AF00020E81400D8EC1810141810EC00001400B2
:100B0000B03C00D8EC00B0EC08B0EC20101408B0F9
:100B10003C08D8140800EC20E81420101408D8EC85
:100B20000800EC18201418200000CC0000BC0008BD
:100B3000CC0008BC50005000143C0000A00050D86D
:100B400000000000A0005028000000005000783C89
:100B500000320000500078C400320000280050E24B
:100B600000D800002800501E00D8000050002800C7
:100B700000CE00005000180000B60000200010F465
:100B800000C000002000100C00C000005010000049
:100B900004B000003A1000E204CE20003A10001E1B
:100BA00004CEE000731000C4040020007310003C69
:100BB0000400E000731000C4043CE0007310003C2B
:100BC000043C200050003A000A1E00E150003AE2C6
:100BD0000A3C40E150003A1E0A3C401F5010000001
:100BE00004EC000017151211201422231F1D3521BB
:100BF0000B322D2F2B0C1725151116202236231DF5
:100C000024350B30322F312B1B261A0133001B27C2
:100C1000260134330F100E0D120A0E180D0F11108D
:100C20000D13120E19180900070E0A0F141C1121BA
:100C30001F1D1B28291A2D220C2E2C1B2F0C171EB2
:100C40001F05040C0C01080100090B02030B03062D
:100C500008050C090801000B060006070E0D0A1412
:100C60001D1C21221F1B1A281A0B2D0C0B2E1B21B9
:100C70002F17121E1400B0EC00B00200C40400C212
:100C8000FE00C4FC00C20400BE0200BCFC00BEFEAC
:100C900000BC1414501400C4EC00C4141428EC1448
:100CA00028EC1450D80028D80050280050280028DC
:100CB000B00028280850D80850500028140014EC20
:100CC00000141400ECEC00ECD80014B00014280060
:100CD00014500014B00828D800EC2800EC50081478
:100CE000B008145008281408ECEC08EC1400ECECE4
:100CF00000ECD800ECEC08C4EC00D82800D81400B4
:100D0000D8D800D81408C4D808D82808D81408B0EF
:100D1000EC08B0D808EC2808EC5000A8ECF00E0065
:100D2000002800600AF0FC0000780050F60CF80083
:100D300000500028EC0CDA0000200010E00CCC0081
:100D400000200010F80CCC0000500018EC0CC20081
:100D500000501000EC10BC000060001318F1FC40C3
:100D6000F66000181FF5FC40E460001525FCFC400F
:100D7000D30016602705FC0000721000ECF4F82088
:100D800000721000EC10F8E000600015250DFC402A
:100D90002D40002204F01820001119150F160E0125
:100DA0001A002026211E241F1118190F1716011BC7
:100DB0001A2025261E23242127221F25201D231E1D
:100DC0002126271F24251D1C230900070F0E0D0EA9
:100DD0001D0D1011151013110D140F100C0B280DF3
:100DE0001D05040C0C01080100090B02030B03068E
:100DF00008050C090801000B060006070E1C1D1053
:100E000012130D0A1410150C000CBCD80CBCEE0CFF
:100E1000D0F00CCEEA0CD0E80CCEF00CCAEE0CC828
:100E2000E80CCAEA0CC800F038000CD0D80CD0008E
:100E3000F01400F0E4D8F00C000CE4000C0C140CDE
:100E4000E4140C0CD8F038D80CE400F8E4D8F80C12
:100E500000140CD814E40014BCD814BC14F0E4142E
:100E6000F0141CF21423F81427001427091423117A
:100E7000141CF2E423F8E42700E42709E42311E436
:100E800000F028500050C4003C0000A00050D810D2
:100E9000EC00005000503C00EC00005000503C10B2
:100EA0003C0000180050F2003C0000100020FC0044
:100EB000300000100020FC00480000721000C41434
:100EC000EC20007210003C04ECE0007210003C14B6
:100ED0003C2000281000F604500000281000F60402
:100EE000280000001050EC043C0000500058C408DA
:100EF0001400105000581408EC400F5000583C08E3
:100F000014801050005814083CC00F01100001114B
:100F100010000B1D1E11011B241C18221913201474
:100F200000100B1E1F111B2324182122130C200D4F
:100F30001312161715191A171C1D1A0D0E13161851
:100F400017191B1A1C1E1D0900070E0A0F12131475
:100F50001415121718191A1B1C05041E1E0108016E
:100F600000091D02031D030608051E090801001DD6
:100F7000060006070E0D0A141615EC0028EC0050AA
:100F800000003AFE003800003EFE0040FA0038F84B
:100F9000003AFA0040F8003ED80050000828B01887
:100FA00000D80028B00028B00050EC0828EC085009
:100FB000D81000B01000D810D80010000010D828A9
:100FC00000002800D85000002810285010282810B1
:100FD00050000028000050000850D818D82808D821
:100FE000500800501828281850A000400000380071
:100FF00000A000180000D20000480010EA00C8005D
:10100000004800101600C80000A000180000BE0034
:1010100000A010000004B80000001040D804C80070
:10102000000010402804C800001000A000F80000D4
:1010300000A000250CFA0040F6A00025F4FA0040BC
:101040000AA0001518FE0040EDA00015E8FE0040C3
:1010500013A0001820040040E0A00018E0040040A5
:101060002013341214333513323414253300321361
:101070000133250130000030320131330131301DA0
:101080001B1E231622211F24181A171A2717212D79
:1010900020162F221D2B1C1D1C1B23151621201F63
:1010A00018191A1A2A27212E2D16282F1D2C2B0924
:1010B00000070B110A0D0F0C00120F01140E201E59
:1010C0001F1517162321240A2629172816222E2138
:1010D000202C1D05040D0D01080100090C02030C54
:1010E000030608050D090801000C060006070B1091
:1010F000110D0E0F001312012514201D1E151817B7
:101100002322210A1126172728222F2E202D2C10CA
:1011100000B8F000B80200CC0400CAFE00CCFC000D
:10112000CA0400C60200C4FC00C6FE00C400004899
:10113000D800481000CCF000CCF000D81000D8D86F
:1011400000280000282800D82800B8D800D8ECFCD7
:1011500028ECFC00E40000E40028DC0828DC08009F
:101160002408282408001C00001C002814FC281453
:10117000FC0004F800FCF800FCF82804F828D8006B
:10118000B8280028E400D8ECFCD8280048DC08D8AF
:101190002408D81C00D814FCD804F8D8FCF8D810BF
:1011A00008B8F008B82808B8D808B82808D8D80867
:1011B000D8A000802800E00000A00080D800E00057
:1011C000004000804000200000400058C000160091
:1011D00000400018C0003A0000180010B6003000AF
:1011E00000180010CA00300000402000C008400075
:1011F00000002040B008300000001820E806F80089
:10120000000018200006E800000018201806D8008A
:10121000005B10004004D0E0005B1000C004D02050
:1012200000400046200430400A400033DC023040D9
:10123000F91600012428221D1E1A1614002429283C
:101240001D271E00151120312B2A301C2C332D0098
:101250001415202F312A2E302C32330B0E1201356B
:10126000100B0F0E0134350900070B130A0D110C7A
:10127000121813171A18261B1C191F1D1A191D1FC7
:1012800021221C202122212425232410231105049E
:101290000D0D01080100090C02030C030608050DE1
:1012A000090801000C060006070B12130D1011129D
:1012B000171817191A1C1926191726191C1F1F1C75
:1012C000211C1B20242125212025102523B000408E
:1012D000D00040BE002CBC002EC2002CC4002EBC8E
:1012E0000032BE0034C40032C2003450004030002E
:1012F00040B0002CD0002C100820100840D0002056
:10130000B00020300020500020B01040B01020D09D
:1013100010403000005000002800E05000E00000C5
:10132000000000E03000C05008E00000C0E800000D
:10133000D800E0D000C0B00000B000E0D00000183D
:1013400000003008C0D008C0B008E00000F0E8009D
:10135000F01800E01800D0000CF0E80C00000CE0E1
:10136000E80CF0180CE0180CD0E80440E804204029
:10137000004AD0ECF00013800040E0F4D0000040C0
:1013800000803004E0000080004020143000002085
:101390000040F014300000100018FC14260000106B
:1013A0000018FC143A0000400080D0E42000004007
:1013B000004A10FCD0C01340004A300C1080135B70
:1013C0001000D0F8D020005B10003008D0E0005BA7
:1013D00010003018302000401000F0F8C00000006D
:1013E00010404008F00000401000101840000000BD
:1013F0001040E8183000001516041A1B1924252384
:101400001512161A1E1B2427251412151D1E1A2824
:101410002724030102140F121D1F1E282927030071
:10142000011710111319141C231D17041013181978
:101430001C22230C020A110D0E171504171415197E
:10144000181A181D1A2322242228240D200E0807FA
:101450002828030B03020C2605062606090B08287C
:101460000C0B0302260902090A11100D1713141898
:101470001C1D2226280D2120E81C40E81C20E81411
:1014800020E81440C0F4E000142EFE142C001432A6
:10149000FE1434FA142CF8142EFA1434F81432C052
:1014A000E420E0E42000FCC0C0E400E0E400E0FC54
:1014B000C000F4E000F4C0E0F4C0C0FCE0E0F4E000
:1014C0002004E02004C04004E0200CC020040040C0
:1014D0000400400CE0400C00E0E440C0E440201474
:1014E00020401420201440401C20001420201C40C8
:1014F000001440001C40800040000000000040003C
:1015000080C0001000004000504000FC000040007F
:10151000204000D800001800103600E40000180039
:10152000104A00E40000001050B004040000001055
:10153000505004FC0000A00030D802E70008A000D2
:101540001FD808D60018A0003028021900F8A00003
:101550001F28082A00E812131B1F1E10101D1A1B3B
:1015600016180104292628141217131F1C1E101EFA
:101570001D1B1316010504261928251F101B1827EB
:101580001A262325111F1A2310232510182927276F
:10159000201B2024121B20122701290D020B150EDF
:1015A0000F242111252411152614270001090800F4
:1015B00000030C03020D01060701070A0C09000DC8
:1015C0000C0302010A020A0B15140E242021252205
:1015D000241523263000E85000E85000D03000D019
:1015E0005008105008E84200E84400E63E00E83C9D
:1015F00000E64400E24200E03C00E23E00E0B000D1
:1016000030D00030D804DC0000F0000424280C3076
:10161000B00018D00018500C30000C30500424B02A
:1016200008F0B004DC280424000CD0B00CD0D80C96
:10163000D00004DC2000102000F0E00010D000F00A
:10164000000010E000F0B000F0300010B0081850BA
:101650000010500038D0002E0000500080D000E074
:101660000000300050F000D400003000502800D4BA
:1016700000001000504000D400001000203800C8C6
:1016800000001000203800E000000010504404D496
:1016900000005010003004C000005010003004E87A
:1016A0000000801000DC04C00000001080BC04E0DA
:1016B0000000400058D8001040F04000580C00DCFA
:1016C00000F0020503182021020405181F20202322
:1016D00025100526201F231003051328271C2A295F
:1016E000271612291D1B1317281C1E2A2728162906
:1016F0002A1D0B0D03150E0F0011011F18220908DA
:101700000002010A01060701070A09000C00030C88
:10171000020A0B0D0C03020B0315140E0010111816
:101720001922222423231F223400C03400E844005D
:10173000E84400C04408E84408C03400D63600D865
:101740003400D23600D03A00D83C00D63A00D03C23
:1017500000D2BC003CE4003C1C00C01C00E8C4F803
:1017600020EC0820BC0020E40020C4F800EC0800B5
:10177000BC0000E40000E400C0FCF8C8FC08F01C59
:10178000F8C81C08F0BC00C0BC08C0BC0800E400DD
:10179000E8FC00C0FC00E8FC08C01C08C0D8002021
:1017A000D80000FC00DC1C00DC300070E4003400D9
:1017B000007000300C002400003000B01C00EC0071
:1017C000003000101C00B400001000101400BC0019
:1017D000001000102400BC00003010001C04B000F9
:1017E00000441000E4042420004410001C042420C1
:1017F0000030001D1C0406001830001D1C04F200FF
:10180000E83000101C08FC00003000101C04D4005C
:10181000003000121C02DC00133000121C02CC004D
:10182000ED020503281127241225020405281011B2
:101830002413121A181B1614172220231E1C1F1AF9
:1018400019181615142221201E1D1C0B0D0314003F
:1018500001211F202623242624250F290E2928278D
:101860001D1B1C2725291917180908000106070147
:10187000070A09000C00030C02010A020A0B0D0CF6
:1018800003020B03141500211E1F2622230F2829F3
:101890001D1A1B2726251916171000C02800C0285E
:1018A00000B01000B02808B01008B01E00C0200022
:1018B000BE1A00C01800BE2000BA1E00B81800BA38
:1018C0001A00B8F00050D80050D80830F0081810AE
:1018D00008302808182800C81000C81004D02804B0
:1018E000D02804D81004D81000E02800E02800EC2C
:1018F0001000EC1008F82808F8280800100800105C
:10190000000C28000C280018100030100018F000FF
:1019100018D80030F0003030007034F81000005853
:10192000003012F800000044100034FC00E0001801
:1019300020181200EE0000182018120012000030CB
:101940000024F4FA00400A500030D8FC00000030B7
:101950000020D0FCEC0000300010D0FCD8000010BB
:101960000010C8FCE00000100010D8FCE0000030BF
:101970001000D000D40000441000D00000E0000EA1
:10198000110D1215111618150E1211121615161723
:10199000181A0F3C0708042E312F2B3A0B27252944
:1019A0001F231E0E1E1B1C16171C171D171D130FA1
:1019B000133C3C131D261D271A030F072A082E303F
:1019C000312B3B3A2928272824262728261F212285
:1019D00022231F23201E0E1F1E1C1216263C1D052F
:1019E0000A060C0F0310130F14171305090A0C1025
:1019F0000F101413141817040307021901060E051B
:101A000037392F2B2D2C090B0A040E030207190658
:101A1000030E35342C2D32332D3336352C382C2F04
:101A2000382E2D362E363739382F2E372F2B002DC6
:101A3000092B0BDCFCF428F82C40F82C18F80C28A7
:101A4000F8F4FCF8F4FCF80C40F80C2800F4ECFC7A
:101A5000F4ECFC0CDCFC0C0CF80C0CF8F418F8F4AE
:101A600018040C0C040C0C04F41804F4180C080CE6
:101A70000C080C0CF8180CF81810000C100028F8C2
:101A80000C18F81818F8E81818F418180C181CE8AE
:101A9000181CF41820E41820F81824F81824E41866
:101AA000201C182008181C18181C0C18241C18249A
:101AB0000840000CC4FCF4C4FCE4DCFCE4DCFCD412
:101AC000C4FCD4DC04D4C404D4D2FCE4D4FCE2CE00
:101AD000FCE4CCFCE2D4FCDED2FCDCCCFCDECEFCB4
:101AE000DCDC040CC404F41808183000900C001856
:101AF0000000600030E800000000300030DC00E84A
:101B00000000300010DC00D00000100010D400D81D
:101B10000000100010E400D80000300800DC02CC07
:101B20000000202000F408F40000202000F4080C3D
:101B30000000440800DC0200E0004408000C020041
:101B4000E0002225232724262224252725240407F4
:101B500005121A11011800202321040607121B1A6E
:101B60000119182022231C1F1D1E211F1C1E1F1EB1
:101B700020210F05041102100015131417150B0A6C
:101B80000203080903090C0B020E02050E04030CE4
:101B9000040C0D0F0E05040D0F02031010011301AC
:101BA0000013131210121110001415141617180038
:101BB0000C0000F4D000DCE800DCE800CCD000CC65
:101BC000E804CCD004CCDE00DCE000DADA00DCD8BB
:101BD00000DAE000D6DE00D4D800D6DA00D4E8007F
:101BE000F4D000F4E8000C00000C180024000024DD
:101BF00018003C00003C18040C0004F4D004F4E885
:101C0000040CEC000CFC000CEC100CFC100CEC18A0
:101C100004FC1804EC18FCFC18FCEC10F4FC10F4A8
:101C2000EC00F4FC00F45000480000360000900086
:101C3000B80000F60000200010F400C400002000EE
:101C4000100C00C400005000100000BC0000501038
:101C5000000004B800002D10001C041C20002D10F2
:101C600000E404E420002D10001C04E4E0002D102A
:101C700000E4041CE0000010481404CA0000001036
:101C800048EC043600000010481404360000001030
:101C9000502404000000001050DC0400000022105A
:101CA000220004002000001048EC04CA00000205D5
:101CB00003140E1513111218281E1F241A020405EE
:101CC000140F0E1310111822281F29241410131595
:101CD000111219221816271D1C2117051F031A257A
:101CE0001B1E0402140F10150E1119232216202793
:101CF0001C262105291F1A24251E28041B261C1D0D
:101D000023190E10111B25261D27230E0F100D035E
:101D1000021C1D13001F1E09080002010A0106070C
:101D200001070A09000C00030C020A0B0D0C030248
:101D30000B0D14151F1F1A141A1B141C17161B1C2D
:101D4000141C161D1D191319181213191213141C23
:101D50001F151E15121E12181E1E0100EC00C814BD
:101D600000C81400B8EC00B81408B8EC08B80200B9
:101D7000C80400C6FE00C8FC00C60400C20200C0C1
:101D8000FC00C2FE00C00008F4F4080000080C0CBF
:101D900008000C000000000CF400000000F4140027
:101DA00048EC00482400EC240014DC00ECDC0014B7
:101DB000EC00241400241400DCEC00DC140848ECD3
:101DC00008482408EC240814DC08ECDC0814EC08AF
:101DD000241408241408DCEC08DC000046018B0203
:101DE000CF03110551068D07C608FB092C0B570CB4
:101DF0007D0D9E0EB90FCE10DC11E412E613E01437
:101E0000D515C216AA178A186419381A051BCD1BD6
:101E10008E1C4A1DFF1DB01E5A1F00200103070F14
:101E20001F3F7FFFFFFEFCF8F0E0C080FFFFFFFFD9
:101E3000FF7F5555FF3F3333AA2A9224FF1F711CA1
:101E4000991945175515B11349121111FF0F0F0FAD
:101E5000380E790DCC0C300CA20B210BAA0A3D0ACE
:101E6000D8097B092409D30888084208FF07C1075D
:101E7000870750071C07EB06BC06900666063E0661
:101E80001806F405D105B00590057205550539050C
:101E90001E050505EC04D404BD04A70492047D04CA
:101EA000690456044404320421041004FF03F003BF
:101EB000E003D203C303B503A8039B038E0381038E
:101EC000750369035E03530348033D03330329038A
:101ED0001F0315030C030303FA02F102E802E002F8
:101EE000D802D002C802C002B902B102AA02A302FB
:101EF0009C0295028F02880282027C0276027002A6
:101F00006A0264025E02590253024E02490243020F
:101F10003E023902340230022B02260222021D0246
:101F20001902140210020C0208020402FF01FC0153
:101F3000F801F401F001EC01E901E501E101DE0144
:101F4000DA01D701D401D001CD01CA01C701C30113
:101F5000C001BD01BA01B701B401B201AF01AC01CA
:101F6000A901A601A401A1019E019C01990197016B
:101F7000940192018F018D018A01880186018301FC
:101F800081017F017D017A0178017601740172017E
:101F900070016E016C016A016801660164016201F1
:101FA00060015E015C015A0158015701550153015E
:101FB000510150014E014C014A01490147014601BE
:101FC0004401420141013F013E013C013B01390115
:101FD0003801360135013301320130012F012E0164
:101FE0002C012B01290128012701250124012301AE
:101FF000210120011F011E011C011B011A011901F1
:1020000018011601150114011301120111010F012C
:102010000E010D010C010B010A0109010801070164
:10202000060105010401030102010101000000AAEB
:1020300055AA55FFFFFF00FE02FA2A1202728A72A9
:10204000027A8262827A02FAAA8A02FA2AD3FAA869
:102050005200FAA88A0092A84AFA22FA02728A72F8
:1020600002FA828202FAAA8A020202020202020230
:10207000020202FE0002000200FA281200F228F218
:1020800000FA28D20002000200020002000200FF53
:102090000092A84A00FA20FA00728872000AF80A30
:1020A0000002000200020002000200FF00040E1FF6
:1020B0004000400040005F055A005F155100521576
:1020C0004900411F41005E055E005F055A00411F47
:1020D0004100400040004000FF004E114E004718F4
:1020E00047005F1551005F055A0047184700511F10
:1020F00051005F1551004F104E104F00400040003E
:102100004000FF0040004000400040004000400010
:1021100040005F054200511F5100411F41004E1118
:1021200051005F045F00400040004000FF0040405D
:10213000404040404040404040404040404040409F
:102140004E595F405F505F40515F5140415F414099
:102150004040404040407F00010204081020408081
:1021600018183C7E002499423C000000000000004A
:1021700000000000E0E020E0C000E0E0000000001F
:10218000C0E020E0C000E0E080E0E00000000000EF
:10219000000000000000808080800000808080803F
:1021A000000F0F81818000070F888C8C000F8F81BA
:1021B0008F8F008C8D898F070080808000000080C9
:1021C0008080803F3F040703003F3F043F37003FCC
:1021D0003F043F3F001F3F20311100003F3F000000
:1021E000203F3F20001F3F203111001F3F24353189
:1021F00000000000004CDE92F664007CFE82C644C3
:10220000007CFE82FE7C00FEFE12FEDC007CFE9264
:10221000D6C6004CDE92F66400000000000000000C
:1022200080C0F03C7CF0800000000080E06080C056
:10223000E060E0000080C0C06060C0F87F07000080
:10224000E0E000000000C0C00000C0F038180C063C
:1022500006068E8E000080C0E06060E0800080FC9A
:102260007F07C0F0FCCEC3C34F0630381E070706F9
:102270000602030F1E3830001F3F1E03010000003E
:10228000001E3F3130180E1F3F3010001F3F30300E
:10229000180C1E3F20001F3F3030303818CCFE0F86
:1022A00001003E7F616070381F07007F7F0000786B
:1022B0007F0300000000005C1DAE1C261C2A000AE3
:1022C00010061A3A1100008000800F000000FF0085
:1022D000F102AE1B421BEA1A280004080414240B66
:1022E00000038000000C00F700FF00F603331A7FA4
:1022F0001917193D00061A08143C0D000D80FE0048
:102300000800F400FE00F80399182118A9172A0004
:102310000006081A280F00F980000011000700FFCE
:1023200000EF042817C21652162B000404081222CC
:102330000E00F28000000C000E00FF00F504D41522
:102340005615F6142A00000C0A142A0C00F080001E
:102350000009001000FF00F9047814F7136F132A26
:1023600000060806172B1100F480F9000D00FF008D
:1023700004000C05CD123112B111360006080422FA
:10238000341000108000000C00F000FF000C040F5F
:10239000116110E90F3600040610203A0F0000808A
:1023A00000000F000000FF00F2047A0F0B0F830EF5
:1023B0002500020A0811251100F18000001100FF1C
:1023C00000FF000F03080E990D190D2900000A06E1
:1023D00015251000FB80FC800B00FB000200F304BD
:1023E000740CE40B340B37000C04061A3016000092
:1023F0008005000F000000FF00F004A40A1A0A92F2
:102400000930000A0A02182E110000800000110095
:10241000F500FF00F105F9087508D5073300080A33
:1024200006142C14000F80FF000700F100FA000BC7
:10243000051B077F060F063E00080E021C340E0027
:10244000008000000F000000FF00F2049105190554
:1024500089042A00000A08162812000080020011D0
:10246000000000FF00F605EA035103A9023500064B
:102470000A081B331500FB8000001200EF00020069
:10248000F106F8014401AC003B00020C042A3C13A5
:102490000010800000F7000000FF0000060000F8B8
:1024A00038000000000000FC7C0000000080C0C07C
:1024B000C0C0000080F87E0E0080C06060E0C000F8
:1024C00000000000000000E0E60600C0C00080C080
:1024D000C0C0800000000000000000000080E0702C
:1024E000301818181838F0E000C0C00080C0C0C014
:1024F000800000000080C06060E0C0000080F878CC
:102500000000007C7F0303030303037F7F000000C0
:102510003C7F636070381F0F007F7F00001E3F37D5
:1025200036333118080000000000003C3F0100383D
:102530003F0F070100001F3F3000000000000000B7
:10254000001E3F716060603030180E0701383F0F89
:10255000070100001F3F3010001E3F37363331188F
:1025600008303707000000FFAA55AA11000000112B
:102570000055AAFFAAFFFFF808F000F8A88800D8C5
:1025800020D80008F80870C8F000F880F80088F833
:10259000880008F8088931FD286C2A1D2B6C28AEAC
:1025A00030152A7929DB29002770887090F880C8B7
:1025B000A89088A8503820F8B8A84870A84008C843
:1025C0003850A85010A87041524455474F4C46000F
:1025D0000306090C0F1215181B1E2225272A2D3061
:1025E0003336393C3E414446494B4E505355575A79
:1025F0005C5E60626466686A6B6D6E707173747540
:102600007678797A7A7B7C7D7D7E7E7E7F7F7F7F08
:102610000000240348066A098C0CAB0FC812E215AF
:10262000F9180B1C1A1F2322282526281F2B112ED0
:10263000FB30DF33BA368C39563C173FCE417A44F3
:102640001C47B4493F4CBF4E33519B53F55542583C
:10265000825AB35CD75EEB60F162E864CF66A6682D
:102660006D6A236CC96D5E6FE2705472B573047548
:1026700041766B77847889797C7A5C7B297CE37CF2
:10268000897D1D7E9C7E097F617FA67FD87FF57F37
:10269000FE7FD5F08D14A1C881CFD9F1AF200008FD
:1026A0000B00020202000009040000010202000007
:1026B000052400100105240101010424020605245B
:1026C0000600010705810310004009040100020A09
:1026D00000000007050202400000070583024000D9
:1026E000000403090412010002EF020140412336F5
:1026F0008000010102030141726475696E6F204C14
:102700004C430041726475626F7900007235112488
:102710001FBECFEFDAE0DEBFCDBF11E0A0E0B1E039
:10272000E2E7FFE602C005900D92AC32B107D9F79F
:1027300029E0ACE2B1E001C01D92A534B207E1F797
:1027400013E1C7E8D3E104C02197FE010E94AA3734
:10275000C638D107C9F70E9497350C94B7370C9447
:1027600000008091B6040895FC018091D008882370
:1027700011F13FB7F89422E02093E9005091F20064
:10278000852F90E01816190614F481E090E0882354
:1027900039F0289844E64093CF086091F1006083B7
:1027A000552339F07091F200711103C0ABE6A0938C
:1027B000E8003FBF08958FEF9FEF08952FB7F8947B
:1027C00083E08093E9009091E800892F807295FF63
:1027D00004C03091F20080E4831B2FBF08958091E4
:1027E000C70881110DC022E02093C30834E0309364
:1027F000C4081092C6081092C50841E04093C7086B
:1028000083EC98E00895A1E0B0E0E9E0F4E10C94F5
:1028100083376983DC01ED91FC910280F381E02D27
:1028200041E050E0BE016F5F7F4F09952196E2E0E5
:102830000C949F3783E08093E9002091F2002223DB
:1028400019F03AE33093E8000895B8DF90E0089576
:10285000A1E0B0E0EEE2F4E10C948337FC01848562
:10286000958597FD08C02FEF3FEF35872487219688
:10287000E2E00C949F37CE01019676DF019719F4C0
:10288000898190E0F4CF8FEF9FEFF1CFA1E0B0E02E
:10289000ECE4F4E10C9481378C01FC01848595858E
:1028A00097FF0AC0CE0101965FDF019761F489812D
:1028B00090E0F80195878487F801848595852196B5
:1028C000E4E00C949D378FEF9FEFF3CFFC018485FC
:1028D000958597FD0BC03FB7F89442E04093E9001F
:1028E0008091F2003FBF90E0019608959FB7F89461
:1028F00022E02093E9008091F2009FBF90E00895CC
:102900004091BD085091BE082091BB083091BC0891
:1029100042175307B4F49091E8009570E1F33091B9
:10292000E80032FD19C08093F1008091BD089091BC
:10293000BE0801968F739927892B19F45EEF509387
:10294000E800A091BD08B091BE081196B093BE08F2
:10295000A093BD0881E0089580E00895EF92FF9272
:102960000F931F93CF93DF93F82E192FE62E042F8A
:1029700081E0860F880FC4DF83E0C2DFCF2DD12F27
:10298000EC0EFD2EF11CCE15DF0599F007FF0FC0F0
:10299000FE018491B5DF182F80E0B2DF81232196FC
:1029A0008111F1CFCDB7DEB7E6E00C949B3788817B
:1029B000F1CF81E0F7CFB0E0A0E0E1EEF4E10C94DC
:1029C0007E37D82E8A01EB017B01E40EF51ECE1571
:1029D000DF0551F0D7FE0EC0FE01849191DF2196F4
:1029E0008111F5CF0FEF1FEFC801CDB7DEB7E7E0DC
:1029F0000C949A378881F2CFA1E0B0E0E2E0F5E1F3
:102A00000C94813782E0898342E450E06FE976E2FA
:102A100080E8D1DFE4DEFC0102811381011511059C
:102A200089F0D801ED91FC910280F381E02DBE0187
:102A30006F5F7F4FC801099597FD04C0F8010085BD
:102A40001185ECCF89812196E4E00C949D3761508B
:102A500030F02091F100FC0120830196F8CF2898F6
:102A600084E68093CF0808958FB18095807F669B20
:102A700088601C9B846008951092B6043E983F982D
:102A800008953E9A3F9A81E08093B604089520917C
:102A9000AF04E091AD04F091AE04CF0102969093A3
:102AA000AE048093AD04222319F08591949108958A
:102AB000808191810895CF92DF92EF92FF92CF9320
:102AC000DF93E5DF811520E8920791F49091710082
:102AD0009D7F9093710010929100469847981092B4
:102AE000AC04DF91CF91FF90EF90DF90CF900895ED
:102AF00021E02093AC04813020E8920749F48091D2
:102B0000AA049091AB049093AE048093AD04BFDF10
:102B100097FD05C0C090A904CC2009F453C0D09003
:102B2000A804D1104FC031E03093B004EC01DF773E
:102B3000209709F04AC041E04093B10446983FE92C
:102B4000C32E3FE0D32EE12CF12CCAEFD0E0E09170
:102B50004309F09144090995811103C051E0509354
:102B6000B104E090B004EE2029F0F090B104FF2011
:102B700009F43EC047988BDF0097F1F19C01DE011C
:102B80000E944F37DC01CB0129E0B595A7959795B9
:102B900087952A95D1F7109290006AE06093910092
:102BA000D0929900C09298008093B2049093B3049D
:102BB000A093B404B093B5047091710072607093E7
:102BC00071008FCF1092B004B1CF9E0150E040E071
:102BD00060E472E48FE090E00E94073769017A01B7
:102BE00081E0C81AD108E108F1081092B104AFCF12
:102BF0004699C0CF479ABFCF8FEF9FEFDC01CBCF75
:102C00009C01E1E7F0E090819D7F90831092AF04FA
:102C1000E5E3F9E0F093AE04E093AD04F093AB0488
:102C2000E093AA04318320837383628380E090E879
:102C30009583848340CF0895482FE82FEF7386FF54
:102C400003C080E48E1BE82FF0E0EE0FFF1FE05F73
:102C5000F94D8591949147FF03C091958195910914
:102C60000895E82FEF7386FF03C090E49E1BE92FC1
:102C7000F0E0E153FA4DE49187FDE1958E2F089540
:102C8000E8E1F3E066E473E02FEF3FEF8191832703
:102C9000982F92959F708927482F50E0922F9A0184
:102CA000322F22273295307F822793279A01B5E071
:102CB000220F331FBA95E1F7282739276E177F07B0
:102CC00029F7C9010895EF92FF920F931F93A62F42
:102CD000B0E0AA0FBB1FA15EBA4FE42FF0E0EE0FE9
:102CE000FF1FE15EFA4F4D915C9160817181460F4B
:102CF000571FE82FF0E0EE0FFF1FE15EFA4F8081D3
:102D00009181480F591FE091E108F091E208DF013D
:102D1000A01BB10BB7FF03C0B195A195B1098F01FD
:102D20000E191F0917FF03C01195019511090A1704
:102D30001B070CF4D801E21BF30BF7FF03C0F1955E
:102D4000E195F109EA17FB070CF4DF019D010E94F0
:102D5000673724E0880F991F2A95E1F7840F951FA4
:102D60001F910F91FF90EF900895EBEBF4E011921B
:102D700088E0EB3BF807D9F7089520E0AC01D703D2
:102D8000C0014E03821F312D5603000C111C920B03
:102D9000300D811D921F7403000C111C920B300D1D
:102DA000811D921F11240895A9E0B0E0EAEDF6E13B
:102DB0000C9473377C0129833A834B835C836D8346
:102DC0007E830987EFEDF8E0A980BA808081918148
:102DD000A81AB90ACB80DC8022803380C218D308BD
:102DE0000D811E8144805580041915096984712C58
:102DF000F301F296EE0FFF1FF887EF83E554FB4FC8
:102E00009501D5010E9467371B012C019601D6015F
:102E10000E946737260E371E481E591E9801D8019A
:102E20000E946737620D731D841D951D91838083F9
:102E3000D7016D917C91C501A0DF1C01F701628172
:102E40007381C6019ADF280E391EF70164817581EE
:102E5000C80193DF280E391EF70166817781C5010D
:102E60008CDF4C01F70160857185C60186DF880E15
:102E7000991EF70162857385C8017FDF880E991E50
:102E8000F70164857585C50178DF5C01F70166850A
:102E90007785C60172DFA80EB91EF70160897189B6
:102EA000C8016BDFF301EE0FFF1FEE0FFF1FE85E9F
:102EB000FC4F3182208293828282AF81B885A953F0
:102EC000B94FA80EB91EB194A194B108AD92BC92AD
:102ED00089858F5F2996E2E10C948F379C01B603B8
:102EE000C0016203000C111C00249009810D112403
:102EF000911D08959C01369FC001279F800D911D53
:102F0000379F900D269F810D1124911D08959C01DE
:102F10003603C0017203800D911D379F900D269FCF
:102F2000810D1124911D08959C013603C001729FEB
:102F3000800D911D379F900D269F810D1124911DAD
:102F400008959C013603C001269F810D1124911D17
:102F50000895EF92FF920F931F93CF93DF93EC01AD
:102F60008D2F6ADE8C0181E08D0F66DE7C0160E0D2
:102F700071E06C1B7109C801D7DF8C016C2FC70190
:102F8000E0DF800F911FCDB7DEB7E6E00C949B37F2
:102F9000ACE0B0E0EEECF7E10C9476374F83588765
:102FA00069877A878B879C87CF80D884E984FA8465
:102FB0000B851C85C701F7FE04C0882799278E1949
:102FC0009F09980117FF04C022273327201B310BCC
:102FD000821793070CF4C9013601D7FE04C066249A
:102FE00077246C187D08861597050CF4C3018F3F74
:102FF0009105B1F0ACF0D7FE03C02FEFC21AD20A90
:10300000D594C794F7FE03C03FEFE31AF30AF59493
:10301000E79417FF02C00F5F1F4F15950795CACFA2
:10302000B601C60174DF4C01B701C70170DF880E1D
:10303000991EB801C8016BDF880E991E38E0532E27
:10304000A12CBB24B39450E8652E77247394B5016A
:10305000C50150DFBC01C4014DDF96958795B501D0
:103060005301A81AB90AC50145DF5C015A945110F1
:10307000EECFBC01C60158DFD82EC92EB501C7015D
:1030800053DFF82EE92EB501C8014EDF2D2D3C2D62
:103090004F2D5E2DBC0180E090E02C96EFE00C946B
:1030A0009237ACE0B0E0E7E5F8E10C9477378C01BB
:1030B0002F83388749875A876B877C87AF80B8848E
:1030C000C984DA84EB84FC84FC016081C50106DFDD
:1030D0003C01F8016181C60101DF680E791EF8012B
:1030E0006281C701FBDE680E791EF8016381C501AC
:1030F000F5DE4C01F8016481C601F0DE880E991EF0
:10310000F8016581C701EADE880E991EF801668123
:10311000C501E4DE5C01F8016781C601DFDEA80EAF
:10312000B91EF8016085C701D9DE7A8269829C8266
:103130008B828A0D9B1D9E838D83262D3A81482D7F
:103140005C81682F7E8180E090E02C96EEE00C940C
:103150009337EF92FF920F931F93CF93DF93DC018E
:1031600080E8689FB001112465547B4F30E0F02E59
:10317000F40E015010E00F5F1F4FFD01942F54918A
:1031800097FD06C0EB01C90FD11DE11011C0588396
:1031900031969F5F9F11F3CFA00FB11F3F5F605823
:1031A0007F4F2313EACFCDB7DEB7E6E00C949B3711
:1031B0008881852B8883ECCFEF920F9323E0829F49
:1031C000C0011124EE24E39403E021E087559A4DD9
:1031D000C0DF0F91EF900895FF920F931F93CF934D
:1031E000DF93D62FC42F8C01083E83E0180710F020
:1031F00007EE13E080E00436110520F004561109B3
:103200008F5FF9CFF12C0A30110520F00A50110917
:10321000F394F9CF882391F04C2F6D2FCDDF44E04C
:103220004C0F6D2F8F2DC8DF48E04C0F6D2F802F76
:10323000C3DFCDB7DEB7E5E00C949C3744E0FF2058
:10324000A1F342E04C0F6D2F8F2DB6DF46E0EDCF9E
:103250001F93CF93DF93162FD42FC82F843608F0F7
:10326000C3E680E0CA3018F0CA508F5FFBCF42E05F
:10327000882321F04D2F612F9FDF44E04D0F612FF8
:103280008C2F9ADFDF91CF911F91089580917D015E
:1032900090917E0120917F0130918001E091140393
:1032A000F0911503609116037091170340917B0113
:1032B00050917C01A0911203B09113034A1B5B0B48
:1032C00057FF03C05195419551094F3F510509F0F2
:1032D000BCF48E1B9F0B97FF03C0919581959109BC
:1032E0008F3F910509F064F4261B370B37FF03C0AD
:1032F00031952195310981E02F3F310511F00CF016
:1033000080E0089586E0E5E7F1E0A2E1B3E0982FE0
:1033100001900D929A95E1F7AFE3B1E0FD01282FFE
:1033200011922A95E9F7A9E3B1E0FD0111928A957E
:10333000E9F70895809350012BE1829FC001112489
:1033400089549D4D9093690180936801DBDF109251
:103350006C0110924C0110924B0110924E01109290
:103360004D0130E23093340140E050E1509355017B
:103370004093540151E050936A01089580E0DADFF0
:10338000E6E5F1E0119281E0E836F807D9F710920E
:103390006A01ECE0F1E0AFEDB8E086E001900D925B
:1033A0008A95E1F720E030EE3093D4082093D308DB
:1033B00040E05FE05093D2084093D1083091530130
:1033C00031703093530150E25093330150933201E6
:1033D0006AE26093520110924F01089580E0AADFE3
:1033E000CDCF089587FD1BC060347105C0F4FB018B
:1033F00094E0EE0FFF1F9A95E1F7E078F370E80F85
:10340000F11DE554FB4F6770772781E090E001C024
:10341000880F6A95EAF780959081892380830895C3
:10342000CF93461757070CF438C057FD36C06034A9
:1034300071059CF587FD31C077FF02C070E060E048
:10344000C62F4F33510514F04FE350E0C87F942F3F
:10345000987F677077276C5D714EFB016491FA016C
:10346000E770FF27E45EF14E4491E82FF0E080FF23
:10347000232F80E1C89FD0011124AE0FBF1FA55498
:10348000BB4F3C91C9130BC0E62FE4234E2F409550
:10349000422BE223E32BE423EC93CF910895562FA4
:1034A0005095752F722B862F8223F82FF32BF7233D
:1034B000FC93A058BF4F9C1B9850191624F42C93D2
:1034C000A058BF4FF9CFCC91842F8095682F622BE5
:1034D000E42FE223EC2BE623DFCFA8E0B0E0E3E724
:1034E000FAE10C947337DC82CB82461757076CF0F5
:1034F000E016F10654F0FE2DEF2D78010F2F1E2F50
:10350000242E352EAB01622D732D3901681A790AEC
:10351000D701A41BB50BB887AF83B7FF05C0B19522
:10352000A195B109B887AF834801861A970A97FE1B
:1035300003C0919481949108F42FF770E62FE770FF
:10354000E416F50614F4F195F7700617170714F44E
:10355000E195E770A82FA770A4504A2EAA0F55082E
:10356000AF2FA850BB0BA69D5001A79DB00CB69DD8
:10357000B00C1124AF81B885A49D6001A59DD00C2D
:10358000B49DD00C1124AC18BD08F3E0B594A794F9
:10359000FA95E1F7E850FF0BE69D6001E79DD00C3E
:1035A000F69DD00C1124849CF001859CF00D949C18
:1035B000F00D1124CE1ADF0AA3E0D594C794AA9582
:1035C000E1F7FFEF4E155F050CF4F1E0EFEF601748
:1035D00071070CF4E1E0E416F50614F441505109CA
:1035E0000617170714F4615071097C0183E0F59404
:1035F000E7948A95E1F72D5F3F4FC90123E0959548
:1036000087952A95E1F79A8389831A0133E03594E7
:1036100027943A95E1F72B0143E0559447944A9556
:10362000E1F70F2FFF0F110B1E830D830E2FEE0FEF
:10363000110B29813A812E153F0511F11A141B0433
:103640003CF44D815E81240E351EA618B708F6CFD6
:103650001C141D042CF4400E511EC618D708F8CFB8
:103660002B813C81A201B1018E2DDADE9FEFE91A98
:10367000F90A6F817885A60EB71EC80CD91CD9CF60
:103680002896E2E10C948F37A4E0B0E0EAE4FBE195
:103690000C947337AA27BB27A41BB50B8B016A17A1
:1036A0007B070CF47FC08A179B070CF47BC0DA0100
:1036B000BC5FA617B70708F475C0A817B90708F4C8
:1036C00071C069015C011B0183E0359427948A95E0
:1036D000E1F73A82298293E0B594A7949A95E1F7AD
:1036E00023E0569547952A95E1F728EF240320011A
:1036F000259F500C112418E0410E511CCA01880F5F
:10370000991F880F991F65E070E07B01E81AF90A9C
:103710005C834B8310E000E04CE0242E312C9601BA
:103720008B809C808A0C9B1CA4013501EB81FC8161
:103730006E1A7F0AB3018981800F72DE9601A4019F
:10374000B3018981801B6CDE960148018A0C9B1CA9
:10375000A4013501601A710AB3018B819981890F27
:103760005FDE9601A401B3018981BB818B1B58DE0A
:10377000F7FC0BC0E40CF51CF8E04F0E511C4B811C
:103780005C81415051095C834B83E20CF31C38E0AF
:10379000230E311C0F5F1F4FAB81BC81A017B107F7
:1037A0000CF0BDCF2496E2E10C948F37E62FE77042
:1037B000F0E0E85AFE4D249166956695669590E88E
:1037C000699FD0011124A80FB11DA554BB4F8C9146
:1037D000282B2C930895B0E0A0E0E1EFFBE10C94DE
:1037E0007B37C82F162FD42FE82EEE0CEE0CEE0CE4
:1037F00000E0FD2EF00E69E06E0D8F2DD7DF61E148
:103800006E0D8F2DD3DF69E16E0D8F2DCFDF0E5F33
:103810000A3679F78C2F90E001969695982F882795
:10382000979587958D0F911D85549B4FFC01AC0199
:103830004C595F4FDF01A058BF4F2AEA2C932083D9
:103840003A964E175F07B1F7FC01E851FF4F20830E
:1038500088599F4FDC012C9382E0B82EBD0E812F3A
:1038600090E0BC016A5A7E4F7B0101E0D12CC12C53
:10387000A12C4B2D6C2F812F800FEADCF701819159
:103880007F01C80ED11C882399F04B2D62E06C0F8C
:10389000DFDC3FEF310F300F5BE1359FF00111248A
:1038A000EF52FD4D8491A80E4B2D61E06C0FD0DCE2
:1038B0000F5F7AE0B70E0A30E1F6AA2061F0D45A21
:1038C00061E06C0F4D2F8A2D90E086DC62E06C0F7A
:1038D0004D2FC60181DCCDB7DEB7EAE00C949737F7
:1038E0000F931F93492F50E0440F551F445D514ED5
:1038F000FA0125913491FA013296A591B491482F9D
:103900004095349FB001249F610D1124711DB89F13
:10391000F001A89FE10D1124F11DE60FF71F032F01
:103920001127E00FF11F9F01DC010E944F37072F85
:10393000182F292F332780E090E0A2E0801B910B05
:10394000A20B9C014A2F50E0DF010E9423371F91F8
:103950000F910895B0E0A0E0E0EBFCE10C947B3720
:103960005C01E9018417950739F1D801A21BB30B5B
:10397000201731071CF0D901A01BB10B9B012A199C
:103980003B090E944F376B017C01CA018A199B09D0
:103990008F3F9105B9F0B0F0A3DF55274F2D3E2D95
:1039A0002D2DDC010E9423370C171D071CF4919567
:1039B00081959109C80FD91FCE01CDB7DEB7EAE0D6
:1039C0000C949737FC01EE0FFF1FE45DF14EA591BB
:1039D000B491A7019601E6CFB0E0A0E0E2EFFCE1F0
:1039E0000C9475374B015C01EA01280139019B01F8
:1039F000A70160E071E0CE01ADDF6C0183019501AC
:103A0000A70160E071E0CE01A5DFB601CDB7DEB75A
:103A1000E0E10C949137AAE0B0E0E1E1FDE10C9423
:103A200073374C012A011801B42FA52F48175907E5
:103A300014F4B82FA92FEB2FFA2FE215F3050CF48D
:103A4000F801F7FDD8C0E42FB52F8414950414F4C1
:103A5000E82FB92FFB2F2E163F060CF4F801E130AA
:103A6000F2400CF0C8C05B013A872987370126175E
:103A700037070CF0E4C0E616F7060CF0C0C02C01C6
:103A80004A017A87698759016A147B040CF4BFC024
:103A9000782D692D9A2D2B2D48015701120169842B
:103AA0007A842401BA86A986872E962EA92EB22E54
:103AB00077FCA1C0A114F4E0BF060CF09CC0A614D2
:103AC000B70409F498C081019401A30169857A853E
:103AD000C50140DF89839A83EC2DF0E0EE0FFF1FD4
:103AE000E45DFF4D259134913E832D83B7FE9DC04B
:103AF0008201940149855A8570E060E0C5012ADFA2
:103B00007C0109811A81940149855A8570E060E041
:103B1000C50120DF8B839C834701B12CA12CE98553
:103B2000FA85E130A4E0FA070CF482C08201940126
:103B3000AF0160E074E0C5010DDF8F8398870981D4
:103B40001A812B813C8149855A8560E074E0C5016A
:103B500001DF20E034E0A216B30654F4CD80DE800D
:103B60007C010F8118854B815C81B401C501B5DCF6
:103B7000A985BA85B7FF14C081019201A30170E045
:103B800060E0CD01E7DE2C0129813A81A30170E0DC
:103B900060E089859A85DEDE89839A831A86198694
:103BA000C101F1E06F16F4E07F06ACF081019201F3
:103BB000A30160E074E089859A85CCDE7C012981CF
:103BC0003A81A30160E074E089859A85C3DE17011C
:103BD000612C24E0722E69857A85661577055CF480
:103BE000CD80DE807C018101930149815A81B2013F
:103BF00089859A8572DC2A96E2E10C948F37742FBE
:103C0000652F922F232F2801FA86E98647CF682C4B
:103C1000792C48011201462C572C3A2D4B2D570177
:103C200069847A8439874A8743CF8B829C8277CF95
:103C300089819A814F82588629853A858CCF8985DA
:103C40009A85E816F9060CF41FCF32CFA5E3B0E051
:103C5000ECE2FEE10C947337E090D308F090D408C6
:103C60000091D1081091D208C80173D96C01C80124
:103C7000905C6FD91C01C7016CD95C01C701905CD5
:103C800068D92C019A8389831C821B82BE82AD82F3
:103C9000B501C60172D898878F833A862986B2010A
:103CA000C6016BD89195819591099C878B87B50149
:103CB000C10163D89195819591099E878D87D88A96
:103CC000CF86B201C10159D89A8B898BDFDA8BA7D5
:103CD0008111D7C100E0209112033091130340916C
:103CE0001403509115036091160370911703CE01D0
:103CF00001965AD8582E20912B0730912C072F3F30
:103D0000310509F00CF4C1C1409118035091190319
:103D100060911A0370911B03CA0140931C035093D6
:103D20001D0360931E0370931F0380589F4F909351
:103D30001D0380931C0330932E0720932D07609062
:103D40001F05709020057092220560922105209138
:103D50001403309115037901890140E060E080E0AF
:103D60000E94631680579E4F9093F8058093F70545
:103D70001FEF10938501539431E03BA741E04F8F33
:103D800060907B0170907C01E0907D01F0907E015D
:103D9000A0907F01B090800147019394262D7A8EE8
:103DA000698E482D9C8E8B8E6A2DBE8EAD8E052D14
:103DB0003A8D5C8D7E8DCE0101960E94D416082F1F
:103DC000282F30E0A901495C5E4F440F551FFA01CE
:103DD000E554FB4F20803180F901EE0FFF1FEE0FFD
:103DE000FF1FEC5EFC4F80819181A281B3818081B5
:103DF0009181C096220F331F220F331FF901E85E15
:103E0000FC4F80839183A283B38343545B4FDA01D9
:103E10002D923C920F5F6701BBEFDB1A4C2DDC8EBD
:103E2000CB8E298D3A8D5C8D6D8D7E8DCE01019668
:103E30000E94D416482E90E0DC01A95CBE4FAA0F68
:103E4000BB1FFD01E554FB4F0081118151E0EFEFF5
:103E50002E16310409F00CF450E061E00F3F11051B
:103E600009F00CF460E0352E3622FC01EE0FFF1F46
:103E7000EE0FFF1FEC5EFC4F408151816281738128
:103E800040815181405D5F4F880F991F880F991FB6
:103E9000FC01E85EFC4F4083518362837383A3542B
:103EA000BB4F0D931C9301E0040DC701995F482F90
:103EB0009C8F8B8F298D3A8D5C8D6D8D7E8DCE0183
:103EC00001960E94D416082FE82FF0E0EE0FFF1F96
:103ED000E75DF84F71E0808191818F3F910509F096
:103EE0000CF470E0372280916C01880F880F880FE6
:103EF0000E943116680E711C87FD7A94262D7A8EE9
:103F0000698EFAEFFF1A4E2DFC8EEB8E32E0B31A5B
:103F10006A2DBE8EAD8E3A8D5C8D7E8DCE01019662
:103F20000E94D416782EE82FF0E0EE0FFF1FE75D19
:103F3000F84F208131812F3F310509F00CF46AC020
:103F4000332009F467C0F2E06F2E650C44244394DB
:103F5000450CAF8CB12C760184019401462D642D63
:103F6000852D0E946316F501EE0FFF1FE950FA4FF1
:103F700091838083F501EE0FFF1FEE0FFF1FEE57B9
:103F8000FE4F50824182628214E0212E238203E0A0
:103F9000302E350CAF8CA394B12C86019401432DA7
:103FA000662D842D0E946316D501AA0FBB1FA95050
:103FB000BA4F8D939C93F501EE0FFF1FEE0FFF1F7D
:103FC000EE57FE4F408261823282238245E0942E7A
:103FD000950C520CAF8CA394A394B12C9601492D4F
:103FE000652D832D0E946316D501AA0FBB1FA95012
:103FF000BA4F8D939C93F501EE0FFF1FEE0FFF1F3D
:10400000EE57FE4F60825182928293E09383BF8D80
:10401000BD5FBF8FD72C10E080906D011815B8F5EB
:10402000E12FEE0FA1E0AE0FB0E0A15DBA4F3C91E1
:10403000A12FB0E0A554BB4F0C91F0E0E15DFA4F29
:10404000F08150E4F502A0011124242F5C8B4B8BEE
:1040500060E40602B0011124462F7E8B6D8B80E454
:104060003802C0011124682F988F8F8B0D2D3C8949
:104070005E89788DCE0101960E94D416D82E1F5FDE
:10408000CBCF1BA61F8E512C7BCE1F8E79CE8EE6FA
:1040900091E0BF8CBCA630E0E12C70E023E0DC01B5
:1040A000FD90CD01EF0C329FA0011124FA01E150E7
:1040B000FA4F5F013E1508F040C0D501CC90C70C07
:1040C000F5016180670C9280970CAC2DB0E0AA0FCF
:1040D000BB1FA55DB84F0D911C910F3F110509F055
:1040E000CCF4A62DB0E0AA0FBB1FA55DB84F4D9133
:1040F0005C914F3F510509F06CF4A92DB0E0AA0F77
:10410000BB1FA55DB84F0D90BC91A02DAF3FB10571
:1041100079F074F01CA5B4E01B9FF0011124EE5758
:10412000FE4FC082618292827383F12FFF5FFCA7F2
:104130003F5F03E0A00EB11CBDCF7F5F753009F07B
:10414000AECF8F8D90E0AC01440F551F440F551F2B
:10415000BA016E577E4F79A368A3880F991F8950C3
:104160009A4F9DAB8CAB9CA59AA7E72DF0E0F9ABDD
:10417000E8AB7CA48F8C871408F468C048E1A42EB7
:1041800043E0B42E5BE2852E57E0952EC12C612CC6
:1041900077247394DC107AC209EFE02E05E0F02E4C
:1041A00006E811E091E0DAA49D1508F0DCC2D70121
:1041B0006D917D917D01F80181909190A190B190D8
:1041C0008F01892F282F30E0A90143565F4F440FFC
:1041D000551FDA01A554BB4FED91FC9143545B4F41
:1041E000E617F707E0F4DA01ED93FC93D901AA0F83
:1041F000BB1FAA0FBB1FAE57BE4F220F331F220F8C
:10420000331FF901E258FE4F408051806280738075
:104210004D925D926D927C921397815099F6282F62
:1042200030E0F901EE0FFF1FE950FA4F7183608310
:10423000220F331F220F331FD901AE57BE4F8D926D
:104240009D92AD92BC9213979F5FADCFA8A1B9A1EB
:104250003C9038A6E8A1F9A1518059A6E8A1F9A19E
:10426000C28023802DA6E32DF0E0EE0FFF1FE55D59
:10427000F84FE080F180FBA2EAA2E9A5F0E0EE0FA2
:10428000FF1FE55DF84F208131813DA32CA36C2CED
:10429000712CD301AA0FBB1FA55DB84FAD90BC9088
:1042A000552453940AA11BA10F3F110511F00CF0E6
:1042B000512C4CA15DA14F3F510509F014F46894B5
:1042C00051F8BFEFAB16B10409F014F4689452F83A
:1042D000F30168A979A9E61BF70BE554FB4F508160
:1042E00030E453027001112489A4912CD40188A9CF
:1042F00099A9A81BB90BA554BB4F7C9110E471027E
:104300008001112488A5282E312CF10128A939A972
:10431000E21BF30BE554FB4FB081F0E4BF029001C8
:1043200011244C2D69A50E9463169BAB8AABACA9E6
:10433000BDA98D939D93BDABACAB252D30E0C901DC
:10434000019785219323892B09F4C0C052E65D159E
:1043500008F478C0880C991C880C991CF401E85E5C
:10436000FC4F4F01660C771C660C771C8301085EBE
:104370001C4F1FA30EA3A101440F551F440F551F2F
:10438000BA01685E7C4F3B01DB016D917D918D919F
:104390009C9150FC60C02080318042805380EAA014
:1043A000FBA08B019C014CA15DA1C201B10114DBFA
:1043B0001B012C01F3010081118122813381AEA107
:1043C000BFA16D917D918D919C91EAA0FBA0A5016B
:1043D00003DB2D2D30E0F901EE0FFF1FEE0FFF1F65
:1043E000E85EFC4F2082318242825382220F331FCB
:1043F000D901A55DB84F20E031E02D933C9311E049
:104400001D0D412F50E0FA01EE0FFF1FEE0FFF1FB1
:10441000E85EFC4F6083718382839383FA01EE0F21
:10442000FF1FDF01A55DB84F80E091E08D939C9365
:1044300078A4E8A1F9A170821183D282ADA4A382ED
:10444000D394D3947F8D7F5F7F8FA8A1B9A1149659
:10445000B9A3A8A38ECE51FC1DC000811181228179
:104460003381ECA0FDA04AA15BA1B6DA1B012C01AF
:10447000F4010081118122813381AEA1BFA16D9130
:104480007D918D919C91ECA0FDA0A501A5DA99A448
:1044900098A69FCFEEA1FFA10081118122813381D7
:1044A00075014AA15BA198DA1B012C01AEA1BFA145
:1044B0000D911D912D913C91F4016081718182815A
:1044C00093814CA15DA188DAC8A683CF552009F459
:1044D000B9CF92E69D1508F4B5CF0AA5043608F0C9
:1044E000B1CF880C991C880C991CA401485E5C4FC4
:1044F0005FA34EA3660C771C660C771CB301685E45
:104500007C4F7FA76EA7D101AA0FBB1FAA0FBB1FAD
:10451000A85EBC4F4D0150FE70C0FA0100811181B0
:10452000228133816D917D918D919C91ECA0FDA0B4
:104530004AA15BA151DA2B013C01AEA5BFA50D91AB
:104540001D912D913C91F401608171818281938153
:1045500075014AA15BA140DA2D2D30E0D901AA0FE7
:10456000BB1FAA0FBB1FA85EBC4F4D925D926D9200
:104570007C921397220F331FF901E55DF84F20E07D
:1045800031E03183208321E02D0D422F50E0FA01EC
:10459000EE0FFF1FEE0FFF1FE85EFC4F608371837D
:1045A00082839383FA01EE0FFF1FDF01A55DB84FF1
:1045B00080E091E08D939C93E8A1F9A1D082F9A4C9
:1045C000F182C2826DA463823AA5E32FF0E0DF019D
:1045D000AA0FBB1FA950BA4FEAA8FBA8ED92FC9204
:1045E000EE0FFF1FEE0FFF1FEE57FE4FD082C1826E
:1045F000228363823F5F3AA723CFEEA5FFA56081A8
:1046000071818281938151FE23C0EEA1FFA1408080
:1046100051806280738075018B019C014CA15DA16A
:10462000C301B201D9D92B013C01D4010D911D91D7
:104630002D913C91EEA1FFA16081718182819381D6
:10464000EAA0FBA04CA15DA1C7D9C9A6C8A484CF8C
:104650000D911D912D913C91EAA0FBA0A501BCD923
:104660002B013C01EEA1FFA1008111812281338148
:10467000AEA5BFA56D917D918D919C91ECA0FDA003
:10468000A501AAD9C9A4B8A4B9A666CFF50100812D
:104690001181E280F380D4018D919D914D018F3F76
:1046A0009105D1F1CCF11CD99C01D8010E946D3744
:1046B0001B012C01D7010E946D372114B8E73B067E
:1046C0004104B4EC5B06B4F12114E8E83E06EFEFD8
:1046D0004E06EBE35E06ACF56115F8E77F07810552
:1046E000F4EC9F07B4F1611508E870070FEF80073D
:1046F0000BE390079CF592018101FFE03695279529
:1047000017950795FA95D1F7AFE096958795779528
:104710006795AA95D1F77B011E5FF5011183008390
:1047200083010E191F0913830283C394F4E0AF0EB3
:10473000B11C30CD212C18E7312E412C14EC512E18
:10474000CBCF212CB8E83B2E44244A94BBE35B2E0C
:10475000C3CF60E078E780E094ECCDCF60E078E80C
:104760008FEF9BE3C8CF0E94B51652E8852E51E02B
:10477000952ED12CB12CA12CBAA5BD1509F448C099
:10478000F401C380FFEFCF121FC0FBA4FF20B9F0DC
:10479000A0901C03B0901D032091180330911903C1
:1047A000A21AB30A609118037091190380911A0339
:1047B00090911B032FEF3FEFA5010E94441BD39460
:1047C000E4E08E0E911CD8CFF401F28034E0F39E29
:1047D000D0011124A85EBC4FED90FD900D911C916D
:1047E000518174E0579FD0011124A85EBC4F2D91D8
:1047F0003D914D915C91908164E0969FD001112490
:10480000A85EBC4F6D917D918D919C9104D9D7CFBD
:104810008BA5882309F495C085010C5F1F4F40913B
:10482000180350911903EE27FF27E01BF10B4E17D9
:104830005F070CF486C0E0901A03F0901B03EE169D
:10484000FF060CF47EC024E0A20EB21EA416B5062C
:1048500008F477C0AE14BF0408F473C02A0183E0E3
:10486000559447948A95E1F759A248A293E0F594AC
:10487000E7949A95E1F723E0169507952A95E1F7D5
:1048800038EF30032001319F500C112458E0450EC1
:10489000511C1801220C331C220C331C65E070E003
:1048A0005B01A218B3084CE0242E312CD12CC12C72
:1048B0004701801A910AB40188A18C0D8F8F0E9444
:1048C000F2193701600E711EB3018F8D0E94F2192B
:1048D000B40198A09C18892D0E94F219B301892D6A
:1048E0000E94F21947018C189D08B40188A1800F1D
:1048F0008F8F0E94F21936016E0C7F1CB3018F8DD1
:104900000E94F219B40198A0901A892D0E94F21900
:10491000B301892D0E94F219B7FC07C0A40CB51C85
:10492000A8E04A0E511C01501109A20CB31CB8E0BA
:104930002B0E311CEFEFCE1ADE0A0C151D050CF004
:10494000B7CF8AA5E596E2E10C948F37FF920F93DB
:104950001F93CF93DF9380917B0190917C012091F5
:10496000120330911303821B930B00917F0110916E
:1049700080014091160350911703041B150BF12C75
:1049800017FF05C0119501951109FF24F39497FFB6
:1049900005C06894F1F89195819591098017910768
:1049A0003CF46894F2F8302F512F8C01832F952F0F
:1049B0008F3F910511F00CF04EC0FC01EE0FFF1F70
:1049C000E45DF14E25913491D8010E946D37DC01F0
:1049D000CB0153E0B695A795979587955A95D1F752
:1049E000182FC92F60E0D62FFE01EE0FFF1FE652F1
:1049F000F24E85919491FE01EE0FFF1FE452F24EAC
:104A0000C591D49160E071E0611B71090E947A1731
:104A1000D19FD001C19FA10D1124B11D8A0F9B1FF1
:104A2000F2FE06C040E050E49A01281B390BC90190
:104A3000F1FE06C040E050E8BA01681B790BCB01DB
:104A4000F0FE03C0919581959109905CCDB7DEB7DA
:104A5000E5E00C949C370E94701C9C01D8010E94D8
:104A60006D37DC01CB013BE0B695A795979587950F
:104A70003A95D1F7B5CFB0E0A0E0E1E4F5E20C94CF
:104A80007E377C018B01D22EFC0180819181461BF7
:104A9000570B57FF02C04D5F5F4F55954795559592
:104AA0004795EA01C81BD90B6D2D0E94A117080F6D
:104AB000191F6D2DCE010E94A117D7012D913C9198
:104AC0001197820F931F8D939C93C801CDB7DEB7CA
:104AD000E7E00C949A37AF92BF92CF92DF92EF92B9
:104AE0000F931F93CF93DF9300D000D000D0CDB7AA
:104AF000DEB749835A836B837C838D839E83590100
:104B000049815A818FEDC82E88E0D82EF601608148
:104B1000718120E485ED98E0AEDFF601918380831A
:104B20004B815C816281738120E487ED98E0A3DF93
:104B3000F601938382834D815E816481758120E4D7
:104B400089ED98E098DFF601958384836091D3081E
:104B50007091D4082E2DA5018BED98E08CDF9093F9
:104B6000D4088093D3086091D1087091D2082E2D7B
:104B7000A8018DED98E07FDF9093D2088093D10853
:104B800026960FB6F894DEBF0FBECDBFDF91CF9152
:104B90001F910F91EF90DF90CF90BF90AF9008954D
:104BA0003FB7F89480912D0190912E01A0912F0193
:104BB000B091300126B5A89B05C02F3F19F0019692
:104BC000A11DB11D3FBFBA2FA92F982F8827BC0167
:104BD000CD01620F711D811D911D42E0660F771F8F
:104BE000881F991F4A95D1F708958F929F92AF928F
:104BF000BF92CF92DF92EF92FF926B017C01D0DFE8
:104C00004B015C01C114D104E104F104B1F0C8DF2F
:104C1000681979098A099B09683E734081059105E5
:104C200088F381E0C81AD108E108F10828EE820E65
:104C300023E0921EA11CB11CE5CFFF90EF90DF9006
:104C4000CF90BF90AF909F908F90089565E070E0F7
:104C500080E090E0CACF0895B0E0A0E0E2E3F6E2A1
:104C60000C9479376C017B018A0180910B018823B8
:104C700009F45BC02091D008222309F456C080902B
:104C8000C20880FE05C03091E00032603093E00041
:104C9000E801B12C8AEFA82E93E0892E2AE3922E08
:104CA000209711F4BB20D1F10E94DE13811109C0BD
:104CB000AA94AA20D1F161E070E080E090E095DF55
:104CC000EFCF8C171D0611F00CF08C2F9FB7F894C6
:104CD0008092E9004091E80045FD02C09FBFE0CF0F
:104CE000282F30E0C21BD30BF701815020F06191D7
:104CF0006093F100FACFE20EF31EBB2021F09092F8
:104D0000E800B12CEBCF5091E80055FDE7CF909231
:104D1000E800BB24B394209709F3F3CF5D9874E6C1
:104D20007093C108101611063CF001E010E0E60196
:104D30001B830A8310E000E0C801CDB7DEB7ECE0CA
:104D40000C949537AF92BF92DF92EF92FF920F9340
:104D50001F93CF93DF9308E113E07801CCEBD2E00F
:104D6000CE010E94DF36F70181937F012196CC3E70
:104D7000F2E0DF07A9F787ECE82E85E2F82EF701CD
:104D8000C8E1D3E0D12C99918491981711F0DD24DA
:104D9000D394319683E0C032D807A9F7A090460398
:104DA000B09047030E944016A816B90611F4DD2002
:104DB000E9F044E250E06FEF70E080E293E00E949F
:104DC000B037F701B490D801BD928D01FFEFEF1A13
:104DD000FF0ACA17DB07A9F7109245031092440394
:104DE0000E9440169093470380934603DF91CF9132
:104DF0001F910F91FF90EF90DF90BF90AF900895BB
:104E0000CF93C62F9FDFA0E2B3E0E6E5F1E08D91FE
:104E1000843608F080E0819381E0E836F807B9F73E
:104E20000E94B5164CE060E080E00E94EB1B4CE075
:104E300060E084E00E94EB1BC2FD0E94BE19CF918E
:104E40000895B0E0A0E0E7E2F7E20C947D370E941D
:104E5000261E10916A01163039F0809152018A3273
:104E600018F48D5F809352010FEF010F023070F044
:104E700020913301203218F42F5F209333013091B9
:104E80003201303218F43F5F30933201C091520149
:104E90004C2F4195C0905301E12C0AE2CC2009F43B
:104EA00075C024E060E080EB90E20E94A91844E223
:104EB0004C1BEE24E39403E021E0609151018DEA64
:104EC00090E20E94A918D0903301FD2CF194E12CBE
:104ED0000CE123E04F2D65E089E590E20E94A918DE
:104EE000D2E1DD19009150014D2F65E081E0800F86
:104EF0000E942819C02ED12C4BE1049FF0011124EF
:104F0000EF52FD4D84914D2F66E00E94281911301B
:104F100009F041C00BE021E04F2D67E08EE490E204
:104F20000E94A9180FDFF601E85EFC4F828D4D2F1D
:104F300067E08436B8F1C0913201C530C0F516E0A3
:104F40001C1BEC2FF0E0EB5CFA4FBF017C5FDF0134
:104F500090E01D929F5F1913FCCF5FEF5183E058E3
:104F6000FF4FE617F70799F71DE71C0FE090340194
:104F7000E694D0E4DE19D034D0F4D12ED7FC15C09D
:104F80006D2F8D2D0E94D61BD394F8CF23E060E0C7
:104F90008AED90E28ACFD601AA5ABE4F8C914D2F4E
:104FA00067E08F5F0E942819C6CFDF5FE4CF44E639
:104FB0004C0FE12C08E121E067E086E390E20E94DB
:104FC000A918CDB7DEB7E8E00C949937EF92FF92BD
:104FD0000F931F93CF93DF93EC01E62E142F842FB2
:104FE0000E943116082F80E4810F0E943116182F7D
:104FF0008E2D0E943116F82E80E48E0D0E943116FF
:1050000088834F2D840390011124398394039001E8
:1050100011243A831B821C83902F91959D83F194D8
:10502000FE82582F8503900111243F839503C00110
:1050300011249887CDB7DEB7E6E00C949B37ABE13F
:10504000B0E0E5E2F8E20C9477374E8B5F8B688F27
:10505000798F8A8F9B8F59016E887F88C88CD98CF5
:105060008A8C9B8C412F41956B2D6195CE010196C9
:10507000ADDF1B861A861D861C866E2D20E03B85C3
:1050800040E05D857F2DCE0101960E945118288B4E
:10509000398B4A8B5B8B6C8B7D8B68897989660D2C
:1050A000771D2A893B892C0D3D1D8C899D89880D92
:1050B000991D462F7A836983622F3C832B839E83BD
:1050C0008D8390E4E92E95015A817C819E8103DDD8
:1050D0006B96EEE00C949337A6E0B0E0E2E7F8E2DE
:1050E0000C947D37D62EEBE7F1E0DE01119686E0D9
:1050F00001900D928A95E1F720914D0130914E017A
:10510000E12CB4E1FB2E00E717E149815A816B8164
:105110007C818D819E8193DF20914D0130914E01E4
:10512000339530934E0120934D0110916C011F3F38
:1051300011F0D2FE05C035E030936A0110924F01A4
:1051400080DEE0915001F0E0EA5AFE4F40814130AC
:1051500009F04DC01F70173008F017E0E12FF0E0A4
:10516000EE0FFF1FE959FA4D45915491EDE9F4E234
:105170002491E2E0F5E2349109E417E0A9ECB7E00C
:1051800070E060E0F12CE12CFB01E256FB4D9491C4
:10519000FB01ED5FFA4DC490DC2CC92EC601822BB9
:1051A000932B8E299F297C01EE0CFF1C8E299F29B1
:1051B0007C01F694E7948E299F298095F801F08070
:1051C0008F21E42EE2228E2981938F01F92FF09511
:1051D0008C91F823932F9423F92BFD935427452783
:1051E00054276F5F7F4F79016436710521F426964D
:1051F000E8E00C9499379601C7CFA6E0B0E0E3E071
:10520000F9E20C947E37D62E0E94821920914B0130
:1052100030914C011A8219821C821B821E821D82CF
:10522000E12C8CE1F82E00E717E140E05A8160E0C4
:105230007C8180E09E8103DF80914B0190914C0145
:10524000939590934C0180934B012091330122233D
:1052500019F02150209333013091530130FF3DC0AC
:10526000D5FE07C060915001662349F161506093FB
:105270005001D6FE07C070915001713111F17F5F6E
:105280007093500190914F019830E8F49F5F909394
:105290004F01D2FC0E94BE19B0915001EBE1BE9FBC
:1052A000C001112489549D4D909369018093680138
:1052B0000E948219C6DD2696E7E00C949A3761E1D8
:1052C000D6CF70E0DDCFD3FEE4CFA2E0A0936A0199
:1052D000A093530110924F01DCCF40916C014F3FDE
:1052E00011F0D2FEE7CF52E050936A0110924F01C5
:1052F000E1CFA6E0B0E0EFE7F9E20C947E37D62EDE
:1053000020914B0130914C011A8219821C821B8220
:105310001E821D82E12C8CE1F82E00E717E140E0AF
:105320005A8160E07C8180E09E8189DE80914B0122
:1053300090914C01939590934C0180934B01209157
:105340006C012F3F11F0D2FE05C032E030936A01AC
:1053500010924F0176DD2696E7E00C949A37A6E08E
:10536000B0E0E5EBF9E20C947F37E2E1F3E0DE0137
:10537000119686E001900D928A95E1F70091540113
:105380001091550120914D0130914E0180911403EF
:10539000909115039E5F682F9C838B83E12C86E0A0
:1053A000F82E49815A817C818D819E8148DE269626
:1053B000E6E00C949B37CF93DF93C82FD62FCFDF37
:1053C000C7FF0AC080915401909155018054910902
:1053D0009093550180935401C4FF0AC02091540159
:1053E00030915501205C3F4F30935501209354017B
:1053F000809154019091550197FD11C0811520E2D3
:10540000920784F49093550180935401D2FF03C016
:1054100032E030936A0115DDDF91CF91089590E07D
:1054200080E0F0CF80E090E2EDCFCF93C62F97DF02
:105430002091530192E0211193E080915201882341
:1054400019F0835080935201C2FF03C032E03093C1
:105450006A01C7FF07C040915101442381F14150C7
:1054600040935101C4FF07C050915101591749F1B0
:105470005F5F50935101C3FF1FC0C09151012223B0
:1054800061F0C11109C0809150010E949A1962E037
:1054900060936A0110924F01C150C11114C0A091D4
:1054A0004D01B0914E01B0934C01A0934B0110926D
:1054B0006C0177E070936A01C4DCCF910895492FA5
:1054C000CFCF50E0D6CFC13011F478E0F3CFC23067
:1054D00099F70E94BE19F0CFEF92FF920F931F939E
:1054E000CF93DF93C82FD62F3ADF8091350190E01C
:1054F0009C0136952795369527954C2F407609F4D3
:1055000058C00296820F931F8F3F910508F059C033
:1055100080933501C5FF0AC060914D0170914E0125
:10552000681B790B70934E0160934D01C6FF0AC052
:10553000A0914D01B0914E018A0F9B1F90934E0197
:1055400080934D01C7FF05C0809134018E5F809329
:105550003401C4FF05C0309134013250309334011E
:10556000C0913401C23080F5C2E0C0933401509143
:105570003301552319F0515050933301709132018A
:10558000772319F071507093320190914F01983048
:10559000F8F49F5F90934F01D2FF05C0E6E0E093DF
:1055A0006A01109251014DDCCDB7DEB7E6E00C94F4
:1055B0009B370197821B930B09F0A6CF81E090E007
:1055C000A7CF8FEF90E0A4CFC7FFCFCFC0E8CDCF5C
:1055D000D3FFE2CF00914D0110914E01C8010E940E
:1055E000A9177C01C801905C0E94A9178C01E2E117
:1055F000F3E0A5E4B1E026E001900D922A95E1F7F1
:105600006C2FC7010E94A1179093400180933F0126
:105610006C2F88279927801B910B0E94A1179093CC
:10562000440180934301B3E0B0936A0164E670E003
:1056300084EB90E00E940016AFCFAEE3B0E0E3E26F
:10564000FBE20C94733724E029AB809141019091E7
:105650004201C09740913F0150914001411530EC0B
:1056600053070CF409C3411560E456070CF007C357
:105670005093400140933F018115A0EC9A070CF430
:1056800001C38115B0E49B070CF0FFC29093420167
:105690008093410120914301309144012115E0ECB8
:1056A0003E070CF4F5C22115F0E43F070CF0F3C2FD
:1056B000309344012093430140585F4F609112039F
:1056C00070911303650F711D57FD7A957093130345
:1056D0006093120380589F4F40911403509115031B
:1056E000490F511D97FD5A9550931503409314038C
:1056F00020583F4F8091160390911703830F911DFF
:1057000037FD9A959093170380931603A090740128
:10571000AEAE0BE217E019A708A71CA69EADACA57C
:105720009A1709F4CCC2E8A5F9A51381C090120319
:10573000D0901303F0E41F02C018D1081124E8A58B
:10574000F9A53481E0901403F090150350E435027C
:10575000E018F1081124E8A5F9A575810091160358
:1057600010911703B0E47B02001911091124E8A578
:10577000F9A566814781611102C04423C9F1CE01B8
:10578000019624DC6981C6010E946E171C016C81A0
:10579000C7010E946E17280E391E6F81C8010E9432
:1057A0006E17280E391E6A81C6010E946E174C01C1
:1057B0006D81C7010E946E17880E991E6885C80109
:1057C0000E946E17880E991E6B81C6010E946E178B
:1057D0006C016E81C7010E946E17C80ED91E6985C3
:1057E000C8010E946E178601080F191F740161011C
:1057F000A8A5B9A53C9020E1329EB00111247EA756
:105800006DA7FD01418040E1449EA001112462800A
:1058100080E1689E300111242B015194419451087C
:10582000DB01AC0DBD1DC414D5045CF02DA43EA459
:10583000812C912C54012C143D0444F4D601A2195E
:10584000B3099D010E9467374B015C012224332478
:10585000241A350ADA01AE0DBF1DE214F30434F048
:105860004E155F0554F4D701A41BB50B9D010E9492
:105870006737860E971EA81EB91EEE27FF27E6196A
:10588000F709D301A00FB11F0E171F0734F06016E0
:10589000710654F4D801A619B7099D010E94673713
:1058A000860E971EA81EB91E21E0821620E49206DD
:1058B000A104B10408F0D7C1BC2CAD2CC414D5048C
:1058C00014F4B42CA52C8B2D9A2DADA5BEA5A8172C
:1058D000B9070CF4CD01C81AD90ADBA2CAA25E2C02
:1058E000DF2CE214F30414F4522CD32C852D9D2DBF
:1058F000481759070CF4CA01E81AF90AFDA2ECA2EC
:10590000E02EF12E0E171F0714F4EE2EFF2E8E2D13
:105910009F2D681679060CF4C301081B190BC801EA
:105920001FA30EA34AA15BA16CA17DA19FA10E9410
:10593000C8172AA33BA34CA35DA36EA37FA3E8A52E
:10594000F9A596819111AAC117811111A7C12AA0A9
:105950003BA04CA05DA00EA11FA1A0904101B09062
:105960004201C0904301D0904401B10180913F01B8
:10597000909140010E9487177C01B201C5010E94ED
:105980008717E80EF91EB801C6010E948717E80EB6
:10599000F91E1E141F040CF466C1E114FCEFFF068F
:1059A00034F462E370E088E790E00E940016809093
:1059B0003F01909040019BA68AA6B101C7010E94B9
:1059C0008717AAA4BBA4A81AB90A20914101309153
:1059D00042013EA72DA7B201C7010E948717CDA49F
:1059E000DEA4C81AD90A609143017091440178ABD2
:1059F0006FA7B801C7010E9487174A2DBD8EAC8ED4
:105A00006C2DDF8ECE8E6FA478A8681A790AC30138
:105A100079A268A25D8D7F8D99A10E94C8172C8FF5
:105A20003D8F4E8F5F8F68A379A34C8D5D8D59AFED
:105A300048AF8E8D9F8D9BAF8AAFA8A1B9A1BDAF96
:105A4000ACAFE0913901F0913A01FBABEAABA09029
:105A50003B01B0903C01BDAAACAAC0903D01D090E2
:105A60003E01DFAACEAAB801C5010E9487177C01BA
:105A7000B2018EA99FA90E948717E81AF90AB101FD
:105A80008EA99FA90E9487173C01B8018AA99BA9EA
:105A90000E948717681A790AB2018AA99BA90E94F5
:105AA00087176C01B1018CA99DA90E948717F7FE89
:105AB00003C0AFEFEA1AFA0AF594E7948AA49BA40C
:105AC0008E189F08740177FE03C0FFEF6F1A7F0ADC
:105AD000759467948DA49EA486189708C81AD90A4D
