:100000000C9432130C945A130C945A130C945A13E4
:100010000C945A130C945A130C945A130C945A13AC
:100020000C945A130C945A130C940D300C947C308D
:100030000C945A130C945A130C945A130C945A138C
:100040000C945A130C945A130C945A130C945A137C
:100050000C945A130C945A130C945A130C94AE32F9
:100060000C945A130C945A130C945A130C945A135C
:100070000C945A130C945A130C945A130C945A134C
:100080000C945A130C945A130C945A130C945A133C
:100090000C945A130C945A130C945A130C945A132C
:1000A0000C945A130C945A130C945A134000580091
:1000B000001A00004000C040002000005800401A14
:1000C00000000000180028F600FA000010001800D8
:1000D00000F60000E00040F8004000004000F0C0E2
:1000E000000C0000A00040D800C00000A000402884
:1000F00000C000004000304000DC0000441000BCA4
:1001000004BC20004410004404BCE000441000BCC7
:100110000444E000441000440444200020001E0079
:1001200004D600E850001ED6040040E8401000004D
:10013000045000004010004004F000000010405047
:10014000040000002C3A352C393A2932272230207D
:1001500013280E182E1735342B3637252933322223
:100160003130132D28182F2E353A34363837121BDC
:10017000141D1E1F121A1B1D191E0900070F0A0D40
:100180000C110B0E0F131417151C18192522211D05
:10019000201C241023262736102C112A352B292623
:1001A0002B13121505040C0C01080100090B0203A6
:1001B0000B030608050C090801000B060006070FD3
:1001C0000E0A0C1011141617171618161918191DE7
:1001D0001C2021222124252423251D212024011037
:1001E000362523232636102A2C2A2C352726292685
:1001F0002A2B0F1213121415F000F0F00010040057
:10020000FE0200FC040002020004FE00FCFC00FEF2
:10021000FE0004FC00025000E80400F0040010306E
:1002200000E85000C83000D01000101000F00800A6
:10023000D03800B0F800D00000B0D000D0C800B076
:10024000B000C8D000EC0808DCF808DCB00000D032
:100250000014DC08ECDC0814B00038D00030C80012
:1002600050100030F00030F00050300030380050B6
:100270005008C85000383000105000103000F038DE
:1002800008B0C808B0B008C8B00838C80850380866
:10029000505008385008105000F0100050F008502E
:1002A0001008503008F05008F0500078EC00320090
:1002B00000A00050280028000078005032F4EC0024
:1002C000005000A0140CD800005000A0EC00D80092
:1002D00000100050C40CC40000100020BC0CD00062
:1002E00000100020BC0CB80000100050B40CC4007A
:1002F00000001050B010C40000501000EC04B0001A
:10030000000010500010EC0000721000EC042820D7
:10031000007210003C042820007210003CF8ECE051
:1003200000721000EC04ECE0007210001410C4E045
:100330000050002F3CFA0A00EA50002F14060A0071
:100340001650002F0AFAEC4016500029D006C4407F
:100350001A0114001830201F2913011514182C300D
:100360001F2F291A2B17222E1C0D2A16252812277B
:1003700031211A2D2B22322E0D1D2A253328273408
:10038000310F1310161E19191C1A2326240F1213CD
:1003900016181E191B1C2325260709010C100B110A
:1003A0000A0D110D1616171117191A121F131B24F7
:1003B0002218211E1C1B2226251221202705040C91
:1003C000000B060B02030B0306050C080C010800CA
:1003D00006070908010007010C0F10110E0A161973
:1003E0001712261F1B2324182021B00CB0B00CD8E4
:1003F000C00CC2BE0CC0C00CC6BE0CC8BA0CC0B883
:100400000CC2BA0CC8B80CC6D80050C00CB0C00C96
:10041000D8D8003C000050C80CD8C80CB000003C34
:10042000D800D8D800B0B014B0B014D80000142848
:10043000003C000C0028001450001428F40050F474
:1004400000D8083C280C000000B0000CD8280CD8BC
:1004500028F4D814F40014F4D80000000000D800E8
:100460000CB0D808D8D808B000081428083C0014EC
:100470000050081450FC000008B00014D82814D80C
:1004800028FCD80008000014B050002800084600DE
:1004900000A00050D808280000A00050280828001C
:1004A00000500050C4F8D800005000503CF8D8006C
:1004B00000180050F600D800001800500A00D800BC
:1004C000001000200000CC00001000200000E4001C
:1004D00000500058C4000000F15000583C000000DB
:1004E000F1500032E4FCD840F35000321CFCD840FC
:1004F0000D4010000004C40000721000C4FCD8209D
:10050000007210003CFCD8E000721000C40C28E01F
:10051000007210003C0C2820001521201F24161703
:1005200023131822111C271B1500211F292417250E
:10053000231826221C282700101112131510161834
:10054000141B17000110121413101916141A1B098A
:1005500000070D0F0E0C150B1314171110181B1A92
:100560001C16191F1A1D1C191D1F05040C0C01084F
:100570000100090B02030B030608050C0908010022
:100580000B060006070D0A0F0C12151A1E1D191E68
:100590001DF000C4F000EC0400D60200D40400DA20
:1005A0000200DCFE00D4FC00D6FE00DCFC00DA1405
:1005B00008500400C40400EC14083CEC083CEC08AF
:1005C00050D8F8ECD8F8C41000EC28F8C428F8EC9F
:1005D0001000C4B0081450F8ECB0F8ECD808142897
:1005E000081450081428083C00083C000814D808D7
:1005F0003C1008C4F008C4D800C42800C4B01014CB
:100600005000ECB000EC50101428103CD8103CA066
:1006100000F800000A0000480010EA00C800004886
:1006200000101600C80000A000180000BE0000A0C6
:1006300010000004B80000001048D804CA000000F0
:1006400010482804CA000020100000040000002008
:100650001000E004F000002010002004F000002052
:1006600010000004E000002D1000E0041020002D18
:100670001000200410E000300013000220001312CC
:10068000241E1823252729282B2D2C122224181547
:10069000232726292B2A2D002212012315012000B1
:1006A000323530312F333736383B3A3C0020220187
:1006B0002123012120322E3531342F3739363B3D6D
:1006C0003A131C1413111C0900070A101F0C0E0BFF
:1006D000001E0E01180D1F161A19171B1B1E0F10D6
:1006E0000F161D1B1005040C0C01080100090B025C
:1006F000030B030608050C090801000B060006079A
:100700000A1D100C0D0E00121E0115181F101619CF
:1007100018171B171E101B0F1D191B1000B8F00017
:10072000B80200CC0400CAFE00CCFC00CA0400C61B
:100730000200C4FC00C6FE00C4D800481000CCF083
:1007400000CCF000DC1000DC2800000000240C00CD
:10075000242800B8F40024F4041CD800B82800248D
:100760000000DCD800DCD800002800480000000CA5
:10077000041CD800242800DC0000481008B8F00849
:10078000B82808B8D808B82808DCD808DCE8000879
:10079000D80018D80818E808082800181800081801
:1007A00008082808180800000808E0F80800F80001
:1007B000E0F80000F808E00800E0080800E808F0A9
:1007C000D800F0D808F0E800F02808F01800F01879
:1007D00008F02800F05000503CFC140000300030BD
:1007E00000EC1C0000A00050280CC4000050005079
:1007F000C4FCC40000500050C4EC140000200010E1
:10080000B8EC2C0000200010D0EC2C000050001898
:10081000C4EC3600005000583C04EC001050005866
:10082000EC04C440F1500058C4F4EC000F00105028
:10083000B0F0140000001050D8F014000050100068
:10084000C4F03C0000721000C400C420007210000C
:100850003C10C4E0000010201410C4000020100060
:10086000C4F01000005010001410D8000050100008
:100870001410B000000110002427251E312122325F
:10088000200111102426271E3031222E3216180B7B
:100890000C1B17282B29232E221F2C1C1619180C71
:1008A0001A1B282A2B232F2E1F2D2C171C161D2018
:1008B0001F0E230D171D1C1D1E200E2123090007CE
:1008C0000E0A0F1412150C160B1C1D1F1E222022BF
:1008D000212305040C0C01080100090B02030B0382
:1008E0000608050C090801000B060006070E0D0A94
:1008F0001413120C17161E2122B0EC3CD8EC3CC28B
:10090000EC28C0EC2AC6EC28C8EC2AC0EC2EC2ECBD
:1009100030C8EC2EC6EC3050FC28B0EC28D8EC28BF
:1009200050FC0028FC0028FC28B0F43CD8F43C0C17
:10093000EC280CEC10F4EC10F4EC28B0EC00D8EC43
:1009400000B0F428B0F400D8F428D8F400B0FCD8F3
:10095000D8FCD8000CD8D8FCB0000CB0280CD82893
:100960000CB0500CD8BCEC10CCEC10BCF410CCF497
:1009700010140CBC140CCC1414BC1414CCB004D83B
:10098000D804B02814B05014D80014D82814D800B3
:1009900014B05000A000002800003800AD1400EC96
:1009A000E000A000500000C40000100020D400D0DF
:1009B0000000100020D400B80000180050CA00C485
:1009C0000000001050C404C40000501000D804B04F
:1009D00000007210000004EC20007210002804ECEB
:1009E00020007210002804C4E000721000D81CFC23
:1009F000E000721000001CFCE000A00050EC18FCAD
:100A0000000050222200002C002050002000181866
:100A100000000010200004C4000013161420102150
:100A20001E241F17271C1D281A1315162000101E20
:100A300023241726271D2928011000130E150D1435
:100A4000161B19181F25122C2F2D0111101B2219EE
:100A50001F24252C2E2F0D150E0D16150900070D20
:100A60000F0E12131D1C1B17121D1A171B18121A1A
:100A70001F1A1E201F1A1E1B2B2A05040C0C01080E
:100A80000100090B02030B030608050C090801000D
:100A90000B060006070D0A0F121413200B0C0C1A7C
:100AA000201B1C2BC400B0C400D8D800C2D600C084
:100AB000D800C6D600C8D200C0D000C2D200C8D06C
:100AC00000C6140050D800B0D800D8140038EC008C
:100AD00038EC0050C408B0C408D8140000EC002062
:100AE000140020EC0C2C140C2CEC18E8C418E8C4EE
:100AF00020E81400D8EC1810141810EC00001400B2
:100B0000B03C00D8EC00B0EC08B0EC20101408B0F9
:100B10003C08D8140800EC20E81420101408D8EC85
:100B20000800EC18201418200000CC0000BC0008BD
:100B3000CC0008BC50005000143C0000A00050D86D
:100B400000000000A0005028000000005000783C89
:100B500000320000500078C400320000280050E24B
:100B600000D800002800501E00D8000050002800C7
:100B700000CE00005000180000B60000200010F465
:100B800000C000002000100C00C000005010000049
:100B900004B000003A1000E204CE20003A10001E1B
:100BA00004CEE000731000C4040020007310003C69
:100BB0000400E000731000C4043CE0007310003C2B
:100BC000043C200050003A000A1E00E150003AE2C6
:100BD0000A3C40E150003A1E0A3C401F5010000001
:100BE00004EC000017151211201422231F1D3521BB
:100BF0000B322D2F2B0C1725151116202236231DF5
:100C000024350B30322F312B1B261A0133001B27C2
:100C1000260134330F100E0D120A0E180D0F11108D
:100C20000D13120E19180900070E0A0F141C1121BA
:100C30001F1D1B28291A2D220C2E2C1B2F0C171EB2
:100C40001F05040C0C01080100090B02030B03062D
:100C500008050C090801000B060006070E0D0A1412
:100C60001D1C21221F1B1A281A0B2D0C0B2E1B21B9
:100C70002F17121E1400B0EC00B00200C40400C212
:100C8000FE00C4FC00C20400BE0200BCFC00BEFEAC
:100C900000BC1414501400C4EC00C4141428EC1448
:100CA00028EC1450D80028D80050280050280028DC
:100CB000B00028280850D80850500028140014EC20
:100CC00000141400ECEC00ECD80014B00014280060
:100CD00014500014B00828D800EC2800EC50081478
:100CE000B008145008281408ECEC08EC1400ECECE4
:100CF00000ECD800ECEC08C4EC00D82800D81400B4
:100D0000D8D800D81408C4D808D82808D81408B0EF
:100D1000EC08B0D808EC2808EC5000A8ECF00E0065
:100D2000002800600AF0FC0000780050F60CF80083
:100D300000500028EC0CDA0000200010E00CCC0081
:100D400000200010F80CCC0000500018EC0CC20081
:100D500000501000EC10BC000060001318F1FC40C3
:100D6000F66000181FF5FC40E460001525FCFC400F
:100D7000D30016602705FC0000721000ECF4F82088
:100D800000721000EC10F8E000600015250DFC402A
:100D90002D40002204F01820001119150F160E0125
:100DA0001A002026211E241F1118190F1716011BC7
:100DB0001A2025261E23242127221F25201D231E1D
:100DC0002126271F24251D1C230900070F0E0D0EA9
:100DD0001D0D1011151013110D140F100C0B280DF3
:100DE0001D05040C0C01080100090B02030B03068E
:100DF00008050C090801000B060006070E1C1D1053
:100E000012130D0A1410150C000CBCD80CBCEE0CFF
:100E1000D0F00CCEEA0CD0E80CCEF00CCAEE0CC828
:100E2000E80CCAEA0CC800F038000CD0D80CD0008E
:100E3000F01400F0E4D8F00C000CE4000C0C140CDE
:100E4000E4140C0CD8F038D80CE400F8E4D8F80C12
:100E500000140CD814E40014BCD814BC14F0E4142E
:100E6000F0141CF21423F81427001427091423117A
:100E7000141CF2E423F8E42700E42709E42311E436
:100E800000F028500050C4003C0000A00050D810D2
:100E9000EC00005000503C00EC00005000503C10B2
:100EA0003C0000180050F2003C0000100020FC0044
:100EB000300000100020FC00480000721000C41434
:100EC000EC20007210003C04ECE0007210003C14B6
:100ED0003C2000281000F604500000281000F60402
:100EE000280000001050EC043C0000500058C408DA
:100EF0001400105000581408EC400F5000583C08E3
:100F000014801050005814083CC00F01100001114B
:100F100010000B1D1E11011B241C18221913201474
:100F200000100B1E1F111B2324182122130C200D4F
:100F30001312161715191A171C1D1A0D0E13161851
:100F400017191B1A1C1E1D0900070E0A0F12131475
:100F50001415121718191A1B1C05041E1E0108016E
:100F600000091D02031D030608051E090801001DD6
:100F7000060006070E0D0A141615EC0028EC0050AA
:100F800000003AFE003800003EFE0040FA0038F84B
:100F9000003AFA0040F8003ED80050000828B01887
:100FA00000D80028B00028B00050EC0828EC085009
:100FB000D81000B01000D810D80010000010D828A9
:100FC00000002800D85000002810285010282810B1
:100FD00050000028000050000850D818D82808D821
:100FE000500800501828281850A000400000380071
:100FF00000A000180000D20000480010EA00C8005D
:10100000004800101600C80000A000180000BE0034
:1010100000A010000004B80000001040D804C80070
:10102000000010402804C800001000A000F80000D4
:1010300000A000250CFA0040F6A00025F4FA0040BC
:101040000AA0001518FE0040EDA00015E8FE0040C3
:1010500013A0001820040040E0A00018E0040040A5
:101060002013341214333513323414253300321361
:101070000133250130000030320131330131301DA0
:101080001B1E231622211F24181A171A2717212D79
:1010900020162F221D2B1C1D1C1B23151621201F63
:1010A00018191A1A2A27212E2D16282F1D2C2B0924
:1010B00000070B110A0D0F0C00120F01140E201E59
:1010C0001F1517162321240A2629172816222E2138
:1010D000202C1D05040D0D01080100090C02030C54
:1010E000030608050D090801000C060006070B1091
:1010F000110D0E0F001312012514201D1E151817B7
:101100002322210A1126172728222F2E202D2C10CA
:1011100000B8F000B80200CC0400CAFE00CCFC000D
:10112000CA0400C60200C4FC00C6FE00C400004899
:10113000D800481000CCF000CCF000D81000D8D86F
:1011400000280000282800D82800B8D800D8ECFCD7
:1011500028ECFC00E40000E40028DC0828DC08009F
:101160002408282408001C00001C002814FC281453
:10117000FC0004F800FCF800FCF82804F828D8006B
:10118000B8280028E400D8ECFCD8280048DC08D8AF
:101190002408D81C00D814FCD804F8D8FCF8D810BF
:1011A00008B8F008B82808B8D808B82808D8D80867
:1011B000D8A000802800E00000A00080D800E00057
:1011C000004000804000200000400058C000160091
:1011D00000400018C0003A0000180010B6003000AF
:1011E00000180010CA00300000402000C008400075
:1011F00000002040B008300000001820E806F80089
:10120000000018200006E800000018201806D8008A
:10121000005B10004004D0E0005B1000C004D02050
:1012200000400046200430400A400033DC023040D9
:10123000F91600012428221D1E1A1614002429283C
:101240001D271E00151120312B2A301C2C332D0098
:101250001415202F312A2E302C32330B0E1201356B
:10126000100B0F0E0134350900070B130A0D110C7A
:10127000121813171A18261B1C191F1D1A191D1FC7
:1012800021221C202122212425232410231105049E
:101290000D0D01080100090C02030C030608050DE1
:1012A000090801000C060006070B12130D1011129D
:1012B000171817191A1C1926191726191C1F1F1C75
:1012C000211C1B20242125212025102523B000408E
:1012D000D00040BE002CBC002EC2002CC4002EBC8E
:1012E0000032BE0034C40032C2003450004030002E
:1012F00040B0002CD0002C100820100840D0002056
:10130000B00020300020500020B01040B01020D09D
:1013100010403000005000002800E05000E00000C5
:10132000000000E03000C05008E00000C0E800000D
:10133000D800E0D000C0B00000B000E0D00000183D
:1013400000003008C0D008C0B008E00000F0E8009D
:10135000F01800E01800D0000CF0E80C00000CE0E1
:10136000E80CF0180CE0180CD0E80440E804204029
:10137000004AD0ECF00013800040E0F4D0000040C0
:1013800000803004E0000080004020143000002085
:101390000040F014300000100018FC14260000106B
:1013A0000018FC143A0000400080D0E42000004007
:1013B000004A10FCD0C01340004A300C1080135B70
:1013C0001000D0F8D020005B10003008D0E0005BA7
:1013D00010003018302000401000F0F8C00000006D
:1013E00010404008F00000401000101840000000BD
:1013F0001040E8183000001516041A1B1924252384
:101400001512161A1E1B2427251412151D1E1A2824
:101410002724030102140F121D1F1E282927030071
:10142000011710111319141C231D17041013181978
:101430001C22230C020A110D0E171504171415197E
:10144000181A181D1A2322242228240D200E0807FA
:101450002828030B03020C2605062606090B08287C
:101460000C0B0302260902090A11100D1713141898
:101470001C1D2226280D2120E81C40E81C20E81411
:1014800020E81440C0F4E000142EFE142C001432A6
:10149000FE1434FA142CF8142EFA1434F81432C052
:1014A000E420E0E42000FCC0C0E400E0E400E0FC54
:1014B000C000F4E000F4C0E0F4C0C0FCE0E0F4E000
:1014C0002004E02004C04004E0200CC020040040C0
:1014D0000400400CE0400C00E0E440C0E440201474
:1014E00020401420201440401C20001420201C40C8
:1014F000001440001C40800040000000000040003C
:1015000080C0001000004000504000FC000040007F
:10151000204000D800001800103600E40000180039
:10152000104A00E40000001050B004040000001055
:10153000505004FC0000A00030D802E70008A000D2
:101540001FD808D60018A0003028021900F8A00003
:101550001F28082A00E812131B1F1E10101D1A1B3B
:1015600016180104292628141217131F1C1E101EFA
:101570001D1B1316010504261928251F101B1827EB
:101580001A262325111F1A2310232510182927276F
:10159000201B2024121B20122701290D020B150EDF
:1015A0000F242111252411152614270001090800F4
:1015B00000030C03020D01060701070A0C09000DC8
:1015C0000C0302010A020A0B15140E242021252205
:1015D000241523263000E85000E85000D03000D019
:1015E0005008105008E84200E84400E63E00E83C9D
:1015F00000E64400E24200E03C00E23E00E0B000D1
:1016000030D00030D804DC0000F0000424280C3076
:10161000B00018D00018500C30000C30500424B02A
:1016200008F0B004DC280424000CD0B00CD0D80C96
:10163000D00004DC2000102000F0E00010D000F00A
:10164000000010E000F0B000F0300010B0081850BA
:101650000010500038D0002E0000500080D000E074
:101660000000300050F000D400003000502800D4BA
:1016700000001000504000D400001000203800C8C6
:1016800000001000203800E000000010504404D496
:1016900000005010003004C000005010003004E87A
:1016A0000000801000DC04C00000001080BC04E0DA
:1016B0000000400058D8001040F04000580C00DCFA
:1016C00000F0020503182021020405181F20202322
:1016D00025100526201F231003051328271C2A295F
:1016E000271612291D1B1317281C1E2A2728162906
:1016F0002A1D0B0D03150E0F0011011F18220908DA
:101700000002010A01060701070A09000C00030C88
:10171000020A0B0D0C03020B0315140E0010111816
:101720001922222423231F223400C03400E844005D
:10173000E84400C04408E84408C03400D63600D865
:101740003400D23600D03A00D83C00D63A00D03C23
:1017500000D2BC003CE4003C1C00C01C00E8C4F803
:1017600020EC0820BC0020E40020C4F800EC0800B5
:10177000BC0000E40000E400C0FCF8C8FC08F01C59
:10178000F8C81C08F0BC00C0BC08C0BC0800E400DD
:10179000E8FC00C0FC00E8FC08C01C08C0D8002021
:1017A000D80000FC00DC1C00DC300070E4003400D9
:1017B000007000300C002400003000B01C00EC0071
:1017C000003000101C00B400001000101400BC0019
:1017D000001000102400BC00003010001C04B000F9
:1017E00000441000E4042420004410001C042420C1
:1017F0000030001D1C0406001830001D1C04F200FF
:10180000E83000101C08FC00003000101C04D4005C
:10181000003000121C02DC00133000121C02CC004D
:10182000ED020503281127241225020405281011B2
:101830002413121A181B1614172220231E1C1F1AF9
:1018400019181615142221201E1D1C0B0D0314003F
:1018500001211F202623242624250F290E2928278D
:101860001D1B1C2725291917180908000106070147
:10187000070A09000C00030C02010A020A0B0D0CF6
:1018800003020B03141500211E1F2622230F2829F3
:101890001D1A1B2726251916171000C02800C0285E
:1018A00000B01000B02808B01008B01E00C0200022
:1018B000BE1A00C01800BE2000BA1E00B81800BA38
:1018C0001A00B8F00050D80050D80830F0081810AE
:1018D00008302808182800C81000C81004D02804B0
:1018E000D02804D81004D81000E02800E02800EC2C
:1018F0001000EC1008F82808F8280800100800105C
:10190000000C28000C280018100030100018F000FF
:1019100018D80030F0003030007034F81000005853
:10192000003012F800000044100034FC00E0001801
:1019300020181200EE0000182018120012000030CB
:101940000024F4FA00400A500030D8FC00000030B7
:101950000020D0FCEC0000300010D0FCD8000010BB
:101960000010C8FCE00000100010D8FCE0000030BF
:101970001000D000D40000441000D00000E0000EA1
:10198000110D1215111618150E1211121615161723
:10199000181A0F3C0708042E312F2B3A0B27252944
:1019A0001F231E0E1E1B1C16171C171D171D130FA1
:1019B000133C3C131D261D271A030F072A082E303F
:1019C000312B3B3A2928272824262728261F212285
:1019D00022231F23201E0E1F1E1C1216263C1D052F
:1019E0000A060C0F0310130F14171305090A0C1025
:1019F0000F101413141817040307021901060E051B
:101A000037392F2B2D2C090B0A040E030207190658
:101A1000030E35342C2D32332D3336352C382C2F04
:101A2000382E2D362E363739382F2E372F2B002DC6
:101A3000092B0BDCFCF428F82C40F82C18F80C28A7
:101A4000F8F4FCF8F4FCF80C40F80C2800F4ECFC7A
:101A5000F4ECFC0CDCFC0C0CF80C0CF8F418F8F4AE
:101A600018040C0C040C0C04F41804F4180C080CE6
:101A70000C080C0CF8180CF81810000C100028F8C2
:101A80000C18F81818F8E81818F418180C181CE8AE
:101A9000181CF41820E41820F81824F81824E41866
:101AA000201C182008181C18181C0C18241C18249A
:101AB0000840000CC4FCF4C4FCE4DCFCE4DCFCD412
:101AC000C4FCD4DC04D4C404D4D2FCE4D4FCE2CE00
:101AD000FCE4CCFCE2D4FCDED2FCDCCCFCDECEFCB4
:101AE000DCDC040CC404F41808183000900C001856
:101AF0000000600030E800000000300030DC00E84A
:101B00000000300010DC00D00000100010D400D81D
:101B10000000100010E400D80000300800DC02CC07
:101B20000000202000F408F40000202000F4080C3D
:101B30000000440800DC0200E0004408000C020041
:101B4000E0002225232724262224252725240407F4
:101B500005121A11011800202321040607121B1A6E
:101B60000119182022231C1F1D1E211F1C1E1F1EB1
:101B700020210F05041102100015131417150B0A6C
:101B80000203080903090C0B020E02050E04030CE4
:101B9000040C0D0F0E05040D0F02031010011301AC
:101BA0000013131210121110001415141617180038
:101BB0000C0000F4D000DCE800DCE800CCD000CC65
:101BC000E804CCD004CCDE00DCE000DADA00DCD8BB
:101BD00000DAE000D6DE00D4D800D6DA00D4E8007F
:101BE000F4D000F4E8000C00000C180024000024DD
:101BF00018003C00003C18040C0004F4D004F4E885
:101C0000040CEC000CFC000CEC100CFC100CEC18A0
:101C100004FC1804EC18FCFC18FCEC10F4FC10F4A8
:101C2000EC00F4FC00F45000480000360000900086
:101C3000B80000F60000200010F400C400002000EE
:101C4000100C00C400005000100000BC0000501038
:101C5000000004B800002D10001C041C20002D10F2
:101C600000E404E420002D10001C04E4E0002D102A
:101C700000E4041CE0000010481404CA0000001036
:101C800048EC043600000010481404360000001030
:101C9000502404000000001050DC0400000022105A
:101CA000220004002000001048EC04CA00000205D5
:101CB00003140E1513111218281E1F241A020405EE
:101CC000140F0E1310111822281F29241410131595
:101CD000111219221816271D1C2117051F031A257A
:101CE0001B1E0402140F10150E1119232216202793
:101CF0001C262105291F1A24251E28041B261C1D0D
:101D000023190E10111B25261D27230E0F100D035E
:101D1000021C1D13001F1E09080002010A0106070C
:101D200001070A09000C00030C020A0B0D0C030248
:101D30000B0D14151F1F1A141A1B141C17161B1C2D
:101D4000141C161D1D191319181213191213141C23
:101D50001F151E15121E12181E1E0100EC00C814BD
:101D600000C81400B8EC00B81408B8EC08B80200B9
:101D7000C80400C6FE00C8FC00C60400C20200C0C1
:101D8000FC00C2FE00C00008F4F4080000080C0CBF
:101D900008000C000000000CF400000000F4140027
:101DA00048EC00482400EC240014DC00ECDC0014B7
:101DB000EC00241400241400DCEC00DC140848ECD3
:101DC00008482408EC240814DC08ECDC0814EC08AF
:101DD000241408241408DCEC08DC000046018B0203
:101DE000CF03110551068D07C608FB092C0B570CB4
:101DF0007D0D9E0EB90FCE10DC11E412E613E01437
:101E0000D515C216AA178A186419381A051BCD1BD6
:101E10008E1C4A1DFF1DB01E5A1F00200103070F14
:101E20001F3F7FFFFFFEFCF8F0E0C080FFFFFFFFD9
:101E3000FF7F5555FF3F3333AA2A9224FF1F711CA1
:101E4000991945175515B11349121111FF0F0F0FAD
:101E5000380E790DCC0C300CA20B210BAA0A3D0ACE
:101E6000D8097B092409D30888084208FF07C1075D
:101E7000870750071C07EB06BC06900666063E0661
:101E80001806F405D105B00590057205550539050C
:101E90001E050505EC04D404BD04A70492047D04CA
:101EA000690456044404320421041004FF03F003BF
:101EB000E003D203C303B503A8039B038E0381038E
:101EC000750369035E03530348033D03330329038A
:101ED0001F0315030C030303FA02F102E802E002F8
:101EE000D802D002C802C002B902B102AA02A302FB
:101EF0009C0295028F02880282027C0276027002A6
:101F00006A0264025E02590253024E02490243020F
:101F10003E023902340230022B02260222021D0246
:101F20001902140210020C0208020402FF01FC0153
:101F3000F801F401F001EC01E901E501E101DE0144
:101F4000DA01D701D401D001CD01CA01C701C30113
:101F5000C001BD01BA01B701B401B201AF01AC01CA
:101F6000A901A601A401A1019E019C01990197016B
:101F7000940192018F018D018A01880186018301FC
:101F800081017F017D017A0178017601740172017E
:101F900070016E016C016A016801660164016201F1
:101FA00060015E015C015A0158015701550153015E
:101FB000510150014E014C014A01490147014601BE
:101FC0004401420141013F013E013C013B01390115
:101FD0003801360135013301320130012F012E0164
:101FE0002C012B01290128012701250124012301AE
:101FF000210120011F011E011C011B011A011901F1
:1020000018011601150114011301120111010F012C
:102010000E010D010C010B010A0109010801070164
:10202000060105010401030102010101000000AAEB
:1020300055AA55FFFFFF0102040810204080000050
:10204000F838000000000000FC7C0000000080C0A8
:10205000C0C0C0000080F87E0E0080C06060E0C09C
:102060000000000000000000E0E60600C0C00080A4
:10207000C0C0C0800000000000000000000080E040
:1020800070301818181838F0E000C0C00080C0C0C8
:10209000C0800000000080C06060E0C0000080F8E8
:1020A000780000007C7F0303030303037F7F0000AD
:1020B000003C7F636070381F0F007F7F00001E3F71
:1020C0003736333118080000000000003C3F0100A3
:1020D000383F0F070100001F3F30000000000000E4
:1020E00000001E3F716060603030180E0701383FFD
:1020F0000F070100001F3F3010001E3F37363331FD
:102100001808303707000000FFAA55AA1100000088
:10211000110055AAFFAAFFFF00FE02FA2A1202725E
:102120008A72027A8262827A02FAAA8A02FA2AD32E
:10213000040E1F4000400040005F055A005F15512B
:102140000052154900411F41005E055E005F055ABF
:1021500000411F4100400040004000FF004E114E72
:1021600000471847005F1551005F055A00471847A0
:1021700000511F51005F1551004F104E104F00408D
:102180000040004000FF0040004000400040004090
:1021900000400040005F054200511F5100411F41B7
:1021A000004E1151005F045F00400040004000FFFE
:1021B000004040404040404040404040404040405F
:1021C0004040404E595F405F505F40515F51404139
:1021D0005F41404040404040407F0070C8F000F800
:1021E00080F80088F8880008F808F808F000F8A8D7
:1021F0008800D820D80008F8080203030404040566
:102200000404030404050504050606FA22FA027212
:102210008A7202FA828202FAAA8A02020202020286
:102220000202020202FE0002000200FA281200F27C
:1022300028F200FA28D20002000200020002000286
:1022400000FF0092A84A00FA20FA00728872000A81
:10225000F80A0002000200020002000200FF005C17
:102260001DAE1C261C2A000A10061A110000800050
:10227000800F000000FF00F1AE1B421BEA1A28008D
:10228000040804140B00038000000C00F700FF009A
:10229000F6331A7F1917193D00061A08140D000DA0
:1022A00080FE000800F400FE00F899182118A91714
:1022B0002A000006081A0F00F9800000110007002C
:1022C000FF00EF2817C21652162B00040408120E46
:1022D00000F28000000C000E00FF00F5D41556152A
:1022E000F6142A00000C0A140C00F080000009000B
:1022F0001000FF00F97814F7136F132A0006080680
:10230000171100F480F9000D00FF0004000CCD123D
:102310003112B111360006080422100010800000AE
:102320000C00F000FF000C0F116110E90F360004E3
:102330000610200F00008000000F000000FF00F2D8
:102340007A0F0B0F830E2500020A08111100F1808D
:1023500000001100FF00FF000F080E990D190D2954
:1023600000000A06151000FB80FC800B00FB000239
:1023700000F3740CE40B340B37000C04061A16003F
:10238000008005000F000000FF00F0A40A1A0A9266
:102390000930000A0A02181100008000001100F53F
:1023A00000FF00F1F9087508D5073300080A061484
:1023B00014000F80FF000700F100FA000B1B077FDD
:1023C000060F063E00080E021C0E00008000000FE3
:1023D000000000FF00F29105190589042A00000A97
:1023E000081612000080020011000000FF00F6EA4B
:1023F000035103A9023500060A081B1500FB8000E3
:10240000001200EF000200F1F8014401AC003B00B3
:10241000020C042A130010800000F7000000FF00E7
:1024200000FEFE121E0C007EFE80C0C000FCFE12EC
:10243000FEFC00CEDE98FE7E0000000000000000E2
:1024400000FEFE121E0C00FEFE12FEDC00FCFE1260
:10245000FEFC007CFE82C6440002FEFE020082FEFC
:10246000FE82007CFE82C644007CFE92D6C600003E
:102470000080C0F03C7CF0800000000080E06080C4
:10248000C0E060E0000080C0C06060C0F87F07006E
:1024900000E0E000000000C0C00000C0F038180CF0
:1024A0000606068E8E000080C0E06060E08000803E
:1024B000FC7F07C0F0FCCEC3C34F0630381E0707B1
:1024C000060602030F1E3830001F3F1E03010000E6
:1024D00000001E3F3130180E1F3F3010001F3F30EC
:1024E00030180C1E3F20001F3F3030303818CCFE13
:1024F0000F01003E7F616070381F07007F7F000082
:10250000787F03000000000070887090F880C8A8F1
:102510009088A8503820F8B8A84870A84008C83853
:1025200050A85010A870000306090C0F1215181BB4
:102530001E2225272A2D303336393C3E4144464958
:102540004B4E505355575A5C5E60626466686A6BC6
:102550006D6E70717374757678797A7A7B7C7D7D17
:102560007E7E7E7F7F7F7F0000240348066A098C81
:102570000CAB0FC812E215F9180B1C1A1F232228E6
:102580002526281F2B112EFB30DF33BA368C395607
:102590003C173FCE417A441C47B4493F4CBF4E33B1
:1025A000519B53F5554258825AB35CD75EEB60F1AC
:1025B00062E864CF66A6686D6A236CC96D5E6FE2DF
:1025C000705472B573047541766B77847889797C21
:1025D0007A5C7B297CE37C897D1D7E9C7E097F6102
:1025E0007FA67FD87FF57FFE7FD5F08D14A1C881AF
:1025F000CFD9F1AF2000080B00020202000009044D
:102600000000010202000005240010010524010160
:1026100001042402060524060001070581031000B9
:102620004009040100020A00000007050202400000
:1026300000070583024000000403090412010002A0
:10264000EF02014041233680000101020301417283
:102650006475696E6F204C4C430041726475626F03
:102660007900F83211241FBECFEFDAE0DEBFCDBF14
:1026700011E0A0E0B1E0ECE7F9E602C005900D92B0
:10268000AC32B107D9F729E0ACE2B1E001C01D924C
:10269000AF39B207E1F713E1C2E3D3E104C02197F8
:1026A000FE010E94B634C133D107C9F70E9413332B
:1026B0000C94BC340C940000FC01809138058823F4
:1026C00011F13FB7F89482E08093E9002091F20085
:1026D000822F90E01816190614F481E090E0882308
:1026E00039F0289844E6409337054091F100408343
:1026F000222339F02091F200211103C02BE6209310
:10270000E8003FBF08958FEF9FEF08952FB7F8942B
:1027100083E08093E9009091E800892F807295FF13
:1027200004C09091F20080E4891B2FBF089580912E
:102730002F0581110DC082E080932B0584E08093EA
:102740002C0510922E0510922D0581E080932F0507
:102750008BE295E00895A1E0B0E0E1EBF3E10C94A9
:102760008F346983DC01ED91FC910280F381E02DCF
:1027700041E050E0BE016F5F7F4F09952196E2E096
:102780000C94AB3483E08093E9008091F2008823BD
:1027900019F08AE38093E8000895B8DF90E0089587
:1027A000A1E0B0E0E6EDF3E10C948F34FC01848508
:1027B000958597FD08C02FEF3FEF35872487219639
:1027C000E2E00C94AB34CE01019676DF019719F468
:1027D000898190E0F4CF8FEF9FEFF1CFA1E0B0E0DF
:1027E000E4EFF3E10C948D348C01FC018485958534
:1027F00097FF0AC0CE0101965FDF019761F48981DE
:1028000090E0F80195878487F80184859585219665
:10281000E4E00C94A9348FEF9FEFF3CFFC018485A3
:10282000958597FD0BC09FB7F89482E08093E900EF
:102830008091F2009FBF90E0019608959FB7F894B1
:1028400082E08093E9008091F2009FBF90E00895BC
:1028500040912505509126052091230530912405AE
:1028600042175307B4F49091E8009570E1F390910A
:10287000E80092FD19C08093F100809125059091A8
:10288000260501968F739927892B19F48EEF809373
:10289000E8008091250590912605019690932605E4
:1028A0008093250581E0089580E00895EF92FF92DE
:1028B0000F931F93CF93DF93F82E192FE62E042F3B
:1028C00081E0860F880FC4DF83E0C2DFCF2DD12FD8
:1028D000EC0EFD2EF11CCE15DF0599F007FF0FC0A1
:1028E000FE018491B5DF182F80E0B2DF81232196AD
:1028F0008111F1CFCDB7DEB7E6E00C94A734888123
:10290000F1CF81E0F7CFB0E0A0E0E9E8F4E10C948A
:102910008A34D82E8A01EB017B01E40EF51ECE1518
:10292000DF0551F0D7FE0EC0FE01849191DF2196A4
:102930008111F5CF0FEF1FEFC801CDB7DEB7E7E08C
:102940000C94A6348881F2CFA1E0B0E0EAEAF4E189
:102950000C948D3482E0898342E450E066EF75E2A6
:1029600080E8D1DFE4DEDC0112960D911C910115A7
:10297000110589F0D801ED91FC910280F381E02DE1
:10298000BE016F5F7F4FC801099597FD04C0F80134
:1029900000851185ECCF89812196E4E00C94A9345F
:1029A000615030F02091F100FC0120830196F8CFB6
:1029B000289884E68093370508953FB7F89480916E
:1029C0001F0590912005A0912105B091220526B503
:1029D000A89B05C02F3F19F00196A11DB11D3FBF57
:1029E000BA2FA92F982F8827BC01CD01620F711D26
:1029F000811D911D42E0660F771F881F991F4A9520
:102A0000D1F708958F929F92AF92BF92CF92DF92AB
:102A1000EF92FF926B017C01D0DF4B015C01C1148E
:102A2000D104E104F104B1F0C8DF681979098A0919
:102A30009B09683E73408105910588F321E0C21A25
:102A4000D108E108F10888EE880E83E0981EA11CE9
:102A5000B11CE5CFFF90EF90DF90CF90BF90AF908B
:102A60009F908F90089565E070E080E090E0CACF7D
:102A70000895B0E0A0E0EFE3F5E10C9485346C013B
:102A80007B018A0180910B01882309F45AC080914F
:102A90003805882309F455C080912A0580FF05C0B8
:102AA0008091E00082608093E000E801B12C8AEF21
:102AB000A82E93E0892E2AE3922E209711F4BB20B2
:102AC000C9F124DE811109C0AA94AA20D1F161E0E4
:102AD00070E080E090E096DFF0CF8C171D0611F0DB
:102AE0000CF08C2F9FB7F8948092E9002091E800B9
:102AF00025FD02C09FBFE1CF282F30E0C21BD30BC2
:102B0000F701815020F041914093F100FACFE20E9D
:102B1000F31EBB2021F09092E800B12CEBCF809106
:102B2000E80085FDE7CF9092E800BB24B39420979E
:102B300009F3F3CF5D9884E68093290510161106FA
:102B40003CF081E090E0F6019383828310E000E0A6
:102B5000C801CDB7DEB7ECE00C94A1348FB18095FD
:102B6000807F669B88601C9B84600895482FE82FB7
:102B7000EF7386FF03C080E48E1BE82FF0E0EE0FBA
:102B8000FF1FE959FA4D8591949147FF03C0919534
:102B9000819591090895E82FEF7386FF03C090E4B3
:102BA0009E1BE92FF0E0EA5DFA4DE49187FDE19587
:102BB0008E2F0895EF92FF920F931F93CF93DF9381
:102BC000E0919D05F0919E05E45DFE4FC62FD0E09B
:102BD000CC0FDD1FCE0FDF1FA42FB0E0AA0FBB1F4D
:102BE000AE0FBF1F488159816D917C91460F571FD1
:102BF00090E0880F991FE80FF91F80819181480F9D
:102C0000591F8091490590914A05DC01A01BB10B29
:102C1000B7FF03C0B195A195B109BC016E197F0939
:102C200077FF03C07195619571096A177B070CF4F2
:102C3000DB01821B930B97FF03C09195819591094E
:102C40008A179B070CF4DC019D010E94733424E079
:102C5000880F991F2A95E1F7840F951FCDB7DEB72E
:102C6000E6E00C94A73420E0AC01D703C0014E038A
:102C7000821F312D5603000C111C920B300D811D4B
:102C8000921F7403000C111C920B300D811D921FBA
:102C9000112408959C01B603C0016203000C111CAD
:102CA00000249009810D1124911D08959C01369FE7
:102CB000C001279F800D911D379F900D269F810D8C
:102CC0001124911D08959C013603C0017203800DEB
:102CD000911D379F900D269F810D1124911D089500
:102CE0009C013603C001729F800D911D379F900D8E
:102CF000269F810D1124911D08959C013603C0016A
:102D0000269F810D1124911D0895EF92FF920F933C
:102D10001F93CF93DF93EC018D2F28DF8C0181E08F
:102D20008D0F24DF7C0160E071E06C1B7109C8012C
:102D3000D7DF8C016C2FC701E0DF800F911FCDB76B
:102D4000DEB7E6E00C94A734ACE0B0E0EAEAF6E1E6
:102D50000C9482344F83588769877A878B879C8746
:102D6000CF80D884E984FA840B851C85C701F7FEDF
:102D700004C0882799278E199F09980117FF04C05E
:102D800022273327201B310B821793070CF4C9012C
:102D90009601D7FE04C0222733272C193D0982173C
:102DA00093070CF4C9018F3F9105B1F0ACF0D7FE49
:102DB00003C02FEFC21AD20AD594C794F7FE03C0FE
:102DC0003FEFE31AF30AF594E79417FF02C00F5F91
:102DD0001F4F15950795CACFB601C60174DF4C0188
:102DE000B701C70170DF880E991EB801C8016BDFFB
:102DF000880E991E38E0532EA12CBB24B39450E8C2
:102E0000652E77247394B501C50150DFBC01C40160
:102E10004DDF96958795B5019301281B390BC901A4
:102E200045DF5C015A945110EECFBC01C60158DF5A
:102E3000D82EC92EB501C70153DFF82EE92EB501F2
:102E4000C8014EDF2D2D3C2D4F2D5E2DBC0180E0A5
:102E500090E02C96EFE00C949E34A8E1B0E0E3E320
:102E6000F7E10C9485348F829886A986BA86CB8642
:102E7000DC86ED86FE860F87188B298B3A8B4B8B71
:102E80005C8B6D8B7E8B8F8B988F0FA118A589A47F
:102E90009AA4ABA4BCA46F817885C801E4DE6C0160
:102EA00069857A85C401DFDEC80ED91E6B857C85F5
:102EB000C501D9DEC80ED91E6D857E85C801D3DE59
:102EC0007C016F857889C401CEDEE80EF91E698920
:102ED0007A89C501C8DEE80EF91E6B897C89C801B4
:102EE000C2DE8C016D897E89C401BDDE080F191F09
:102EF0006F89788DC501B7DEDA82C982FC82EB82E8
:102F0000800F911F9E838D832C2D3A814E2D5C81E5
:102F1000682F7E8180E090E06896ECE00C94A1340C
:102F2000A7E0B0E0E6E9F7E10C947F343C012983A7
:102F30003A834B835C836D837E830F83A7E4B5E084
:102F400009811A818D919C911197081B190BEB81B6
:102F5000FC8112968D919C911397E81BF90B4D8182
:102F60005E8114968D919C91481B590B8F81482E40
:102F7000512C1201220C331C80919D0590919E05CD
:102F8000280E391E7101A4EDEA1AAEEFFA0A980173
:102F9000D8010E9473344B015C019F01DF010E9444
:102FA0007334860E971EA81EB91E9A01DA010E947C
:102FB0007334860E971EA81EB91ED701AD92BC921F
:102FC0001A830983FC83EB835E834D8300D000D09A
:102FD00000D0ADB7BEB7119686E0FE0131960190E4
:102FE0000D928A95E1F7F30180809180A280B380F1
:102FF000C480D580E680F7800085118522853385E1
:1030000044855585668577858089918926DF298362
:103010003A834B835C836D837E832B813C818D81DE
:103020009E81919581959109F201EE0FFF1FEE0FA0
:10303000FF1FE654FD4F49815A81518340833383FA
:103040002283D1018D939C930F900F900F900F903E
:103050000F900F908F818F5F2796E2E10C949B3445
:10306000A5E1B0E0E6E3F8E10C9483341887298702
:103070003A874B875C876D877E878F87A88AB98A56
:10308000CA8ADB8AEC8AFD8A688879888A889B8864
:10309000AC88BD88602FC301FDDD6C016885C4016B
:1030A000F9DDC80ED91E6985C501F4DDC80ED91E2B
:1030B0006A85C301EFDD7C016B85C401EBDDE80EA1
:1030C000F91E6C85C501E6DDE80EF91E6D85C301AC
:1030D000E1DD8C016E85C401DDDD080F191F6F85F0
:1030E000C501D8DDDA82C982FC82EB82800F911F94
:1030F0009E838D832C2D3A814E2D5C81682F7E819D
:1031000080E090E06596EEE00C949F34EF92FF92A1
:103110000F931F93CF93DF93DC0180E8689FB0018A
:10312000112461567A4F30E0F02EF40E015010E079
:103130000F5F1F4FFD01942F549197FD06C0EB01C7
:10314000C90FD11DE11011C0588331969F5F9F11A7
:10315000F3CFA00FB11F3F5F60587F4F2313EACF1B
:10316000CDB7DEB7E6E00C94A7348881852B888341
:10317000ECCFEF920F9323E0829FC0011124EE2445
:10318000E39403E021E0885F9A4DC0DF0F91EF9058
:1031900008950F931F93CF93DF93162FEC01C83E32
:1031A00083E0D80710F0C7EED3E080E0C436D10545
:1031B00020F0C456D1098F5FF9CF00E0CA30D105A5
:1031C00018F02A970F5FFACF882381F04CE5612F22
:1031D000D0DF40E6612F802FCCDF44E6612F8C2FBB
:1031E000C8DFDF91CF911F910F91089540E6002332
:1031F000A9F34EE5612F802FBCDF42E6EFCF1F938E
:10320000CF93DF93162FD42FC82F843608F0C3E650
:1032100080E0CA3018F0CA508F5FFBCF42E08823AD
:1032200021F04D2F612FA5DF44E04D0F612F8C2F32
:10323000A0DFDF91CF911F91089587FD1BC06034FF
:103240007105C0F4FB0194E0EE0FFF1F9A95E1F7C2
:10325000E078F370E80FF11DE156FA4F67707727B9
:1032600081E090E001C0880F6A95EAF7809590812F
:10327000892380830895CF93461757070CF438C0ED
:1032800057FD36C0603471059CF587FD31C077FF6E
:1032900002C070E060E0C62F4F33510514F04FE3D9
:1032A00050E0C87F942F987F677077276C5D714ED0
:1032B000FB016491FA01E770FF27E45EF14E44914F
:1032C000E82FF0E080FF232F80E1C89FD001112478
:1032D000AE0FBF1FA156BA4F3C91C9130BC0E62FCA
:1032E000E4239E2F9095922BE223E32BE923EC938A
:1032F000CF910895862F8095582F522BE62FE223E9
:103300008E2F832B85238C93A058BF4F892F8C1B26
:103310008850181624F42C93A058BF4FF9CF6C9105
:10332000E42FE0958E2F822BE42FE223E62BE82377
:10333000DECFE62FE770F0E0EA5CFF4DE4916695A2
:103340006695669590E8699FD0011124A80FB11D7C
:10335000A156BA4F8C91E82BEC930895AF92BF928F
:10336000CF92DF92FF920F931F93CF93DF93C82FDB
:10337000062F182F110F110F110FD0E069E0610F08
:103380008D2FD7DF61E1610F8D2FD3DF69E1610FF1
:103390008D2FCFDFDE5FDA3689F720E8C29FC001CC
:1033A0001124815E994FFC01AC014C595F4FDF0144
:1033B000A058BF4F2AEA2C9320833A96E417F507CA
:1033C000B1F7FC01E851FF4F208388599F4FFC0162
:1033D000208310E0C8018A5C9E4F5C01D2E0D12CB2
:1033E000C12CF12C4D2F6C2F81E0800F08DFF501EF
:1033F00081915F01C80ED11C882369F04D2F62E0D6
:103400006C0FFDDEF801E750FE4D8491F80E4D2F54
:1034100061E06C0FF4DED65F0F5F1F4FDC3511F7F4
:10342000FF2049F061E06C0F8F2D90E0B2DE62E08A
:103430006C0FC601AEDEDF91CF911F910F91FF900F
:10344000DF90CF90BF90AF9008959C0143E0969598
:1034500087954A95E1F737FD906E0895AAE0B0E0B0
:10346000E4E3FAE10C947F349B838A837A8769874B
:103470005A013901D886CF824617570764F0E01603
:10348000F1064CF09E2D8F2D7801092F182F8B2DD2
:103490005B0149878A8793014A815B81241B350B35
:1034A0003D832C8347018A189B0897FE03C09194A3
:1034B00081949108180189859A85281A390A37FE5E
:1034C00003C03194219431082A2D27709985977073
:1034D0009983EA14FB0414F42195277049855A85D1
:1034E0000417150724F489818195877089838A815F
:1034F00087709CEFC92EC80E0C2C000CDD082850DC
:10350000330B4C815D81249FC001259F900D349F1A
:10351000900D11248C9C90018D9C300D9C9C300D45
:103520001124821B930B91DF2C0189818850990B08
:103530009C014C815D81249FC001259F900D349F8B
:10354000900D11242C9C90012D9C300D3C9C300D35
:103550001124821B930B79DF6C01AE14BF040CF4B1
:1035600041C05FEF598329853A85201731070CF454
:103570003CC03FEF3E83EA14FB041CF451E0A51A63
:10358000B10889859A85081719071CF401979A874D
:1035900089878A819B8159DF8C01C301039655DF9E
:1035A0009B838A83C50151DF5C0189859A854DDF44
:1035B0007C019981692E990F77082E81022E000CCB
:1035C000330B3A8729874A815B814017510749F1BC
:1035D000141415046CF4A60CB71C8C819D81481A38
:1035E000590AF6CF81E08983BECF41E04E83C3CF35
:1035F0001C141D044CF429853A85E20EF31E4C81FF
:103600005D81C41AD50AF4CF2F813885A701B50191
:10361000802F31DE0F5F1F4F480C591CC20CD31C8A
:10362000D2CF2A96E2E10C949B34A3E0B0E0EBE128
:10363000FBE10C947F34AA27BB27A41BB50B8B019D
:103640006A177B070CF47DC08A179B070CF479C0BE
:10365000DA01BC5FA617B70708F473C0A817B9074B
:1036600008F46FC069015B834A835C01CB01EDDE26
:103670008983C501EADE5C010A811B8183E016951E
:1036800007958A95E1F71B830A8328EF2003200121
:10369000219F500C112418E0410E511C8A819B81FE
:1036A000880F991F880F991F25E030E07901E81AEB
:1036B000F90A10E000E03CE0232E312C96018A80CC
:1036C0009B808A0C9B1CA40135018A819B81681A0E
:1036D000790AB3018981800FCEDD9601A401B3017F
:1036E0008981801BC8DD960148018A0C9B1CA401BE
:1036F0003501601A710AB30189819A81890FBBDD96
:103700009601A401B3018981EA818E1BB4DDF7FC27
:103710000BC0E40CF51CF8E04F0E511C4A815B8194
:10372000415051095B834A83E20CF31C58E0250E9B
:10373000311C0F5F1F4F8A819B81801791070CF00E
:10374000BDCF2396E2E10C949B340F931F93492F36
:1037500050E0440F551F445D514EFA0125913491BC
:10376000FA013296A591B491482F4095349FB0014B
:10377000249F610D1124711DB89FA001A89F410DC8
:103780001124511D460F571F232F3327FA01E20F33
:10379000F31F9F01DC010E945B34072F182F292F94
:1037A000332780E090E0A2E0801B910BA20B9C01EC
:1037B0004A2F50E0DF010E9451341F910F9108956C
:1037C000B0E0A0E0E6EEFBE10C9487345C01E90197
:1037D0008417950739F1D801A21BB30B20173107C5
:1037E0001CF0D901A01BB10B9B012A193B090E94B7
:1037F0005B346B017C01CA018A199B098F3F9105DB
:10380000B9F0B0F0A2DF55274F2D3E2D2D2DDC0154
:103810000E9451340C171D071CF491958195910954
:10382000C80FD91FCE01CDB7DEB7EAE00C94A334A0
:10383000FC01EE0FFF1FE45DF14EA591B491A701CD
:103840009601E6CFB0E0A0E0E8E2FCE10C94813420
:103850004B015C01EA01280139019B01A70160E0ED
:1038600071E0CE01ADDF6C0183019501A70160E03D
:1038700071E0CE01A5DFB601CDB7DEB7E0E10C9473
:103880009D34AAE0B0E0E7E4FCE10C947F344C0105
:103890002A011801B42FA52F4817590714F4B82F7F
:1038A000A92FEB2FFA2FE215F3050CF4F801F7FD21
:1038B000D9C0B42FA52F8414950414F4B82FA92FC0
:1038C000EB2FFA2F2E163F060CF4F801E130F240F0
:1038D0000CF0C8C05B013A872987370126173707E4
:1038E0000CF0E4C0E616F7060CF0C0C02C014A014B
:1038F0007A87698759016A147B040CF4BFC0782D5C
:10390000692D9A2D8B2D48015701120169847A8403
:103910002401BA86A986872E962EA92EB82E77FC6A
:10392000A1C0A114F4E0BF060CF09CC0A614B7041B
:1039300009F498C081019401A30169857A85C501C4
:103940003FDF89839A83EC2DF0E0EE0FFF1FE45DEB
:10395000FF4D259134913E832D83B7FE9DC082019A
:10396000940149855A8570E060E0C50129DF7C013A
:1039700009811A81940149855A8570E060E0C5018A
:103980001FDF8B839C834701B12CA12C89859A85ED
:103990008130A4E09A070CF482C082019401AC014A
:1039A00060E074E0C5010CDF8F83988709811A817C
:1039B0002B813C8149855A8560E074E0C50100DFB8
:1039C00020E034E0A216B30654F4CD80DE807C0102
:1039D0000F8118854B815C81B401C5013FDDE9850C
:1039E000FA85F7FF14C081019201A30170E060E045
:1039F000CF01E6DE2C0129813A81A30170E060E06D
:103A000089859A85DDDE89839A831A861986C101A4
:103A1000F1E06F16F4E07F06ACF081019201A301A2
:103A200060E074E089859A85CBDE7C0129813A814A
:103A3000A30160E074E089859A85C2DE1701612CDC
:103A400024E0722E29853A85261537055CF4CD8051
:103A5000DE807C018101930149815A81B20189850F
:103A60009A85FCDC2A96E2E10C949B34742F652F36
:103A7000922F832F2801FA86E98647CF982D892D2A
:103A800048011201492E582E9A2D8B2D5701698419
:103A90007A8499878A8743CF8B829C8277CF89816A
:103AA0009A814F82588629853A858CCF89859A8557
:103AB000E816F9060CF41FCF32CFB0E0A0E0E3E641
:103AC000FDE10C948A347C018B01D22EFC018081B3
:103AD0009181461B570B57FF02C04D5F5F4F5595B5
:103AE000479555954795EA01C81BD90B6D2D05D90A
:103AF000080F191F6D2DCE0100D9F70120813181EA
:103B0000820F931F91838083C801CDB7DEB7E7E0B2
:103B10000C94A634AF92BF92CF92DF92EF920F93A4
:103B20001F93CF93DF9300D000D000D0CDB7DEB786
:103B300049835A836B837C838D839E83590149819A
:103B40005A8187E4C82E85E0D82EF6016081718104
:103B500020E48DE395E0B1DFF601918380834B8112
:103B60005C816281738120E48FE395E0A6DFF6013A
:103B7000938382834D815E816481758120E481E439
:103B800095E09BDFF6019583848360913B057091FE
:103B90003C052E2DA50183E495E08FDF90933C0535
:103BA00080933B056091390570913A052E2DA8014F
:103BB00085E495E082DF90933A0580933905269657
:103BC0000FB6F894DEBF0FBECDBFDF91CF911F912E
:103BD0000F91EF90DF90CF90BF90AF900895A6E047
:103BE000B0E0E5EFFDE10C948F3460911805709121
:103BF00019056D5E7F4F46E050E0CE0101960E94B0
:103C000048348B819C81E0911405F09115052D813C
:103C10003E81609116057091170549815A81A091E6
:103C20001205B09113054A1B5B0B57FF03C051955A
:103C3000419551094F3F510509F0BCF48E1B9F0B74
:103C400097FF03C09195819591098F3F910509F0E8
:103C500064F4261B370B37FF03C0319521953109DA
:103C600081E02F3F310511F00CF080E02696E2E074
:103C70000C94AB34AFE3B0E0E0E4FEE10C947F34AD
:103C800020911805309119053CA72BA7295F3F4FBC
:103C90003DAF2CAFEBA5FCA536969490EBA5FCA50B
:103CA00032964591549159AF48AFEBA5FCA585914B
:103CB00094919EA78DA7E0903B05F0903C05009164
:103CC000390510913A05C80120D86C01C801905CF3
:103CD0001CD88C01C70119D85C01C701905C15D8AC
:103CE0007C019A8389831C821B82BE82AD82B501CE
:103CF000C6010E94331698878F831A870987B701F8
:103D0000C6010E9433169195819591099C878B87F6
:103D1000B501C8010E9433169195819591099E873E
:103D20008D87D88ACF86B701C8010E9433169A8B37
:103D3000898B10E0712C7914A0F5812F90E0EDA50E
:103D4000FEA5E80FF91FE491A0E4EA02F0011124B6
:103D50002E2FFC8BEB8BFC0131964DA55EA5E40F5D
:103D6000F51FE49150E4E502F00111244E2FFE8B83
:103D7000ED8BFC0132968DA59EA5E80FF91FE4910D
:103D800090E4E902F00111246E2FF88FEF8B072DDC
:103D90003C895E89788DCE010196C2D8782E1D5F50
:103DA000CACF1DDF8AA781116CC320911405309101
:103DB00015058091490590914A05281B390B809182
:103DC00016059091170540914B0550914C05841BA9
:103DD000950B409112055091130560914705709124
:103DE0004805461B570B5C8B4B8B3E8B2D8B988F5E
:103DF0008F8B00D000D000D0ADB7BEB7119686E053
:103E0000FE01739601900D928A95E1F789809A8060
:103E1000AB80BC80CD80DE80EF80F88409851A8578
:103E20002B853C854D855E856F85788989899A8942
:103E300014D82B8B3C8B4D8B5E8B6F8B788F4F897F
:103E4000588D0F900F900F900F900F900F90413062
:103E5000AFEF5A070CF016C36B897C89AD89BE8918
:103E6000519541955109872D90E0FC01EE0FFF1F00
:103E7000EE0FFF1FE654FD4F71836083B383A2836F
:103E80009C012F5F3F4FF901EE0FFF1FEE0FFF1F49
:103E9000E654FD4F60587F4F71836083B383A283E4
:103EA000C0909D05D0909E05880F991FF601E80FE0
:103EB000F91F51834083220F331FF601E20FF31FD6
:103EC00051834083B1E0B70DBFAF8FEF80932402E1
:103ED000209114053091150579018901472D672D31
:103EE000872D0E94DA15F601E85AFD4F80579E4F44
:103EF000918380837EAE73947394E1E0EAA7F1E04E
:103F0000F9A360911805709119056D5E7F4F46E029
:103F100050E0CE0149960E9448348B8C9C8C93943F
:103F2000482D9C8E8B8E072D298D3A8D5C8D6D8D45
:103F30007E8DCE0101960E949017082F282F30E029
:103F4000F9013197C0909D05D0909E05D901AA0F27
:103F5000BB1FAC0DBD1D11E09E918E918F3F910551
:103F600009F00CF410E0EE0FFF1FEE0FFF1FE654F8
:103F7000FD4F608171818281938140815181BA01BD
:103F8000605D7F4FF901EE0FFF1FEE0FFF1FE6543C
:103F9000FD4F60837183828393838D919C91220F67
:103FA000331FF601E20FF31F918380830F5FAB8C09
:103FB000BC8C3CEFB31A4A2DBC8EAB8E298D3A8D4A
:103FC0005C8D6D8D7E8DCE0101960E949017082F1D
:103FD000E82FF0E0DF011197EE0FFF1FEC0DFD1D44
:103FE00081E0329122912F3F310509F00CF480E0FD
:103FF0001823AA0FBB1FAA0FBB1FA654BD4F6D915C
:104000007D918D919C911397202F30E04D915C9183
:10401000BA01605D7F4FD901AA0FBB1FAA0FBB1F5A
:10402000A654BD4F6D937D938D939C931397808180
:104030009181220F331FF601E20FF31F91838083DA
:104040000F5F8B8D9C8D9E5F482F9C8F8B8F298D52
:104050003A8D5C8D6D8D7E8DCE0101960E949017FC
:10406000082F482F4150550BFA01EE0FFF1FEC0DA2
:10407000FD1D81E0208131812F3F310509F00CF4D5
:1040800080E018238B8D9C8D9A95682E9C8F8B8F4A
:10409000E98CFA8C80912302880F880F880F0E9488
:1040A000CB15E80EF11C87FDFA942E2DFA8EE98EC1
:1040B0008D8D9E8D9250682F9E8F8D8F3A8D462DBF
:1040C0005C8D7E8DCE0101960E9490178F8F81505E
:1040D000990BFC01EE0FFF1FEC0DFD1D80819181FE
:1040E0008F3F910509F00CF4CFC1112309F4CCC125
:1040F00099A1292E312CF101EC5DFD4F86E98083D9
:1041000002E0602E670C55245394570C750184010E
:104110009401462D652D872D0E94DA15A8EACA1A4A
:10412000ADEFDA0A220C331CF601E20DF31D918388
:104130008083709263015092640160926501B4E0E3
:10414000B093660189A18F5F282E312CF101EC5DBF
:10415000FD4F87E9808333E0432E470C85019401AE
:10416000442D662D852D0E94DA15F101EE0FFF1FFB
:10417000EC0DFD1D91838083509267016092680170
:1041800040926901E4E0E0936A0189A083948394FA
:10419000912CF401EC5DFD4F88E9808355E0552EAC
:1041A000570CF4E07F0E9501452D672D842D0E945C
:1041B000DA15880C991CC80CD91CD6018D939C93D8
:1041C000B9A1BD5FB9A360926B0170926C0150926E
:1041D0006D0183E080936E01ECE0EBA31AAA19AAAB
:1041E0001BAA1AAEF9A9FBAFE9A9FAA92CAD3DADFE
:1041F000E20FF31FE4913AAD3E0F3AAF48AD59AD2F
:104200008BA993E0899F400D511D11245DAB4CABF0
:10421000A0909D05B0909E05AAADBBA9BA1708F065
:1042200092C2E9A1E53908F08EC2ECA9FDA9F4918A
:10423000FAA3ECA9FDA93196C490ECA9FDA9329688
:10424000D4902AA1E22FF0E0EE0FFF1FEA0DFB1D34
:1042500080809180EC2DF0E0EE0FFF1FEA0DFB1D3A
:1042600020803180ED2DF0E0EE0FFF1FEA0DFB1DE9
:10427000408151815DA34CA3772473945FEF851631
:10428000910411F00CF0712C8FEF2816310409F015
:1042900014F4689471F8ACA1BDA1AF3FB10509F069
:1042A00034F4689472F8B7E07B1609F4E2C02DA5E7
:1042B0003EA5EAA1F3E0EF9F200D311D11242F5FF1
:1042C0003F4FF9012491EDA5FEA533E0C39EE00D1B
:1042D000F11D112431960491EDA5FEA543E0D49E75
:1042E000E00DF11D11243196349150E83503700131
:1042F000112430E803038001112440E824039001D5
:1043000011244D2D6C2D8AA10E94DA159FAB8EAB26
:10431000272D30E0C901019787219323892B09F4C8
:10432000F1C05F8D553908F0A4C08BA18D3B08F01A
:10433000A0C0BAA1A4E0BA9FC0011124FC01E654B8
:10434000FD4FF8ABEFA7F4E0CF9EC00111249C0114
:1043500026543D4F3FA32EA334E0D39EC001112429
:10436000AC0146545D4F59A748A7AFA5B8A96D91B8
:104370007D918D919C9170FC89C0EEA1FFA1408040
:1043800051806280738074018B019C01A101C30183
:10439000B20158DA2B013C01AFA5B8A90D911D91CE
:1043A0002D913C91E8A5F9A560817181828193816D
:1043B0004CA15DA147DAFF8D2F2F30E0F901EE0F00
:1043C000FF1FEE0FFF1FE654FD4F408251826282B5
:1043D0007382220F331FF501E20FF31F20E031E05B
:1043E000318320832F8D2F5F422F50E0FA01EE0F93
:1043F000FF1FEE0FFF1FE654FD4F60837183828322
:104400009383CA01880F991FF501E80FF91F40E057
:1044100051E0518340835BA1E52FF0E0A9A18A2FF1
:1044200090E0DC01AC5DBD4FAF01559547955595CA
:1044300047954A564C93B8EAAB1ABDEFBB0A880FB2
:10444000991F8A0D9B1D4EA95FA9DC014D935C93BA
:1044500059A15F5F59A3ED59FE4F8AA18083218343
:104460009F8D9283ABADA383BBA1BC5FBBA39E5FBB
:104470009F8F3BA93F5F3BAB4CA95DA94D5F5F4F51
:10448000C5CE1AA619A23DCD1BA2A8CE71FC1CC098
:10449000AEA1BFA10D911D912D913C917101A4017F
:1044A000D1D92B013C01EEA1FFA100811181228114
:1044B0003381A8A5B9A56D917D918D919C914CA159
:1044C0005DA1C0D9CAA277CFE8A5F9A50081118165
:1044D00022813381ECA0FDA0A401B4D92B013C01C1
:1044E000A8A5B9A50D911D912D913C91EEA1FFA11B
:1044F0006081718182819381ECA0FDA0A101A2D98C
:10450000DAA259CF772009F406C1EF8DE53908F01A
:10451000B0CFFBA1F93B08F0ACCF3AA124E0329F29
:10452000C0011124AC0146545D4F59A748A754E07F
:10453000C59EC0011124DC01A654BD4FBFA3AEA38C
:10454000B4E0DB9EC0011124FC01E654FD4FF8AB42
:10455000EFA770FE97C0AEA1BFA10D911D912D9147
:104560003C91E8A5F9A560817181828193817101F7
:10457000A40168D92B013C01AFA5B8A90D911D91EB
:104580002D913C91E8A5F9A560817181828193818B
:10459000ECA0FDA0A40156D9BF8D2B2F30E0F9016E
:1045A000EE0FFF1FEE0FFF1FE654FD4F40825182BA
:1045B00062827382220F331FF501E20FF31F20E0A6
:1045C00031E0318320834B2F4F5F242F30E0F901FE
:1045D000EE0FFF1FEE0FFF1FE654FD4F6083718348
:1045E00082839383C901880F991FF501E80FF91F92
:1045F00080E091E0918380839BA1E92FF0E08F011F
:104600001595079515950795A9A12A2F30E0D90191
:10461000AC5DBD4F86E9800F8C93B501685A7D4F24
:10462000220F331FDB01A20FB31F2EA93FA92D9329
:104630003C9389A18F5F90E0DC01AC5DBD4F0956D2
:104640000C93880F991F680F791FDB012D933C9302
:10465000B9A1BE5FB9A3ED59FE4F2F8D2083C18252
:10466000D2823BAD3383EBA1EC5FF0E0ED59FE4F1E
:104670002083D182428333834BA1485F4BA32E5FBB
:104680002F8FF7CEAFA5B8A96D917D918D919C919B
:1046900071FE22C0EEA1FFA1408051806280738034
:1046A000ECA0FDA08B019C01A101C301B201CAD8FD
:1046B0002B013C01A8A5B9A50D911D912D913C910F
:1046C000EEA1FFA160817181828193817401A101BA
:1046D000B9D8CD2CDAA060CFA8A5B9A50D911D91B0
:1046E0002D913C9174014CA15DA1ACD82B013C01F2
:1046F000EEA1FFA10081118122813381AFA5B8A96C
:104700006D917D918D919C9171014CA15DA19AD883
:10471000DC2CCAA041CF59A1852F90E0FC01EC5DB3
:10472000FD4FABA9A083B8EAAB1ABDEFBB0A880F57
:10473000991F8A0D9B1D2EA93FA9FC01318320835F
:104740005F5F59A396CE89A99AA901969AAB89ABC6
:10475000059709F047CDAAEBCA2EA2E0DA2E450153
:10476000712C9F8D971133C08501065A1D4FA5E20C
:10477000B2E0CC24C394A501485A5D4FE9A1CE16FE
:1047800008F0ACC0F801619171918F019D90DC2C13
:104790008D2D90E09C0121503109F901EE0FFF1F92
:1047A000E40FF51FE080F180E616F70608F483C0F9
:1047B0008D2D90E0FC01EE0FFF1FE40FF51F7183BC
:1047C00060838C5D9D4FFC019082C394D7CFD6014E
:1047D0000D911C9111971296ED90FC90F40181912E
:1047E00091914F018F3F9105D9F1D4F10E94A51B02
:1047F0009C01D8010E9479341B012C01D7010E9431
:1048000079342114F8E73F064104F4EC5F06D4F153
:10481000211428E832062FEF42062BE35206CCF58E
:10482000611538E77307810534EC9307D4F16115FE
:1048300048E874074FEF84074BE39407BCF59201F7
:1048400081014FE036952795179507954A95D1F741
:104850005FE096958795779567955A95D1F77B0197
:104860001E5FD60111961C930E9380E091E08E1985
:104870009F0913969C938E9312977394B4E0CB0E7A
:10488000D11C6FCF212CF8E73F2E412CF4EC5F2E8A
:10489000C7CF212CE8E83E2E44244A94EBE35E2E59
:1048A000BFCF60E078E780E094ECC9CF60E078E8C3
:1048B0008FEF9BE3C4CFFC01EE0FFF1FE40FF51F4A
:1048C000F182E0822C5D3D4FF90120818C5D9D4F8E
:1048D000FC012083DA94D1105BCF6ACFFEAD8F2E1E
:1048E000912C2AA5222371F0F401EE0FFF1FEA0D8F
:1048F000FB1D31E03AA7808191818F3F910509F03E
:104900000CF41AA6EFE9F5E08FE999E011928E1701
:104910009F07E1F7ECADFDAD5490EBA5FCA53896F3
:104920007490750CEBA5FCA539966490670CEBA50B
:10493000FCA53A96D490D60C880C991C880C991C2E
:10494000940126543D4F490154E2252E52E0352E64
:10495000412CB12CA12C4FAD34E0439FC001112458
:10496000DC01A654BD4FB8A3AF8FB9A1B41509F4AB
:1049700076C0F101A1911F01A63908F046C0F3E00D
:10498000AF9FC0011124E8ADF9ADE80FF91F6491A4
:10499000FC01319628AD39ADE20FF31F2491FC01E3
:1049A000329648AD59ADE40FF51FE491B4E0AD1572
:1049B00050F4B3E0A61538F4B2E0A71520F4B1E046
:1049C000A51508F4B0E034E0E39FF0011124E654AB
:1049D000FD4FE080F1800281138144E0249FF001CB
:1049E0001124E654FD4F208131814281538184E0BE
:1049F000689FF0011124E654FD4F6081718182812E
:104A00009381CB2E0E94411C17C0AF3FB9F45AA529
:104A1000552391F0AF8DB8A1AD90BC90F401808189
:104A20009181A81AB90A60817181828193812FEFE7
:104A30003FEFA5010E94151B439497CFA659F4E0C0
:104A4000AF9FD0011124AD59BE4F6C9111962C919E
:104A500011971296EC9112971396BC91B4CF9AA528
:104A6000992309F490C085010C5F1F4FD4018D91EB
:104A70009C91119722273327201B310B8217930714
:104A80000CF481C01296ED90FC90E216F3060CF443
:104A90007AC0B4E0AB0EBB1EA816B90608F473C00A
:104AA000AE14BF0408F46FC00E94251A8AA3C70180
:104AB0000E94251A5C0183E0169507958A95E1F717
:104AC00028EF20032001219F500C1124E8E04E0E16
:104AD000511CC801880F991F880F991F25E030E0ED
:104AE0006901C81AD90A3CE0232E312CF12CE12CA3
:104AF0004501801A910AB401FAA1FE0DFF8F8F2F94
:104B00000E941D193501600E711EB3018F8D0E9428
:104B10001D19B4019AA09E18892D0E941D19B30178
:104B2000892D0E941D1945018E189F08B4012AA1E4
:104B3000200F2F8F822F0E941D1937016A0C7B1CBA
:104B4000B3018F8D0E941D19B4019AA0901A892D6E
:104B50000E941D19B301892D0E941D19D7FC07C0A1
:104B6000C40CD51C38E0430E511C01501109C20C75
:104B7000D31C48E0240E311C5FEFE51AF50A0E1530
:104B80001F050CF0B5CF89A1EF96E2E10C949B34A0
:104B90006091180570911905635F7F4F46E050E002
:104BA00082E195E00E94483486E0E9E4F1E0DF012B
:104BB000982F1D929A95E9F7E0E3F1E0DF011D924D
:104BC0008A95E9F708958093580129E1829FC001F1
:104BD0001124815A9D4D9093190580931805D8DFB3
:104BE0001092230210925A011092590110925E0104
:104BF00010925D0180E28093560180E090E19093F5
:104C0000600180935F0181E080936101089580E0FD
:104C1000DADFE6E3F1E0119281E0E834F807D9F752
:104C20001092610186E0ECE0F1E0A7E4B5E00190CC
:104C30000D928A95E1F780E090EE90933C05809389
:104C40003B0580E09FE090933A0580933905809181
:104C50005B01817080935B0180E2809355018AE261
:104C600080932F010895D3CF0895A6E0B0E0EBE341
:104C7000F6E20C948A3460911805709119056D5E06
:104C80007F4F46E050E0CE0101960E944834898172
:104C90009A812091120530911305821B930BED80B0
:104CA000FE802091160530911705E21AF30AD12CE7
:104CB000F7FE05C0F194E194F108DD24D39497FF49
:104CC00005C06894D1F89195819591098E159F053D
:104CD0003CF46894D2F83E2D2F2D7C01832F922F27
:104CE0008F3F910511F00CF04CC0FC01EE0FFF1F3F
:104CF000E45DF14E25913491D7010E947934DC01B5
:104D0000CB0153E0B695A795979587955A95D1F71E
:104D1000F82E092F10E0F801EE0FFF1FE652F24EB9
:104D200085919491F801EE0FFF1FE452F24E059128
:104D3000149160E071E06F1971090E9456161F9D71
:104D400090010F9D210D1124311D820F931FD2FE62
:104D500006C020E030E4A901481B590BCA01D1FE6E
:104D600006C020E030E8A901481B590BCA01D0FE5B
:104D700003C0919581959109905C2696E7E00C948B
:104D8000A6340E94A51B9C01D7010E947934DC0146
:104D9000CB013BE0B695A795979587953A95D1F7C6
:104DA000B7CFEF92FF920F931F93CF93DF93EC0156
:104DB000E62E142F842F0E94CB15082F80E4810F3C
:104DC0000E94CB15182F8E2D0E94CB15F82E80E453
:104DD0008E0D0E94CB1588834F2D840390011124E2
:104DE00039839403900111243A831B821C83902FF2
:104DF00091959D83F194FE82482F840390011124A4
:104E00003F839403C00111249887CDB7DEB7E6E055
:104E10000C94A734ADE1B0E0E0E1F7E20C947F340C
:104E20004E8B5F8B688F798F8A8F9B8F322E532E9C
:104E3000202E412E6E887F88888C998C2A8D3B8D00
:104E40003D8F2C8F442D4195652D6195CE010196A6
:104E5000A8DF1B861A861D861C86A12CBB84C12C4C
:104E6000DD8409811A812B813C814D815E816F81B6
:104E7000788589850E943018288B398B4A8B5B8B0B
:104E80006C8B7D8B88899989680E791E8A899B89AC
:104E9000880E991E8C899D892C8D3D8D820F931FC4
:104EA000462D7A826982682D9C828B829E838D83B7
:104EB00090E4E92E022D142D232D352D5A817C816D
:104EC0009E810E948A1D6D96E2E10C949B34AAE0BB
:104ED000B0E0EDE6F7E20C947F34D62E28E0829F16
:104EE0003001112420EF222E23E0322E412C512CB0
:104EF000230138EA832E33E0932EA12CB12C5301E9
:104F00002FEF3FEF40E550E0C301B4010E94151BB5
:104F100030E020E040E450E0C301B4010E94151BE2
:104F200038E4398781E08A879A85D91608F441C028
:104F300089850E94CB1518E4282FA103C0011124F4
:104F4000892F990F990B9C0128553C4F3A8329834F
:104F5000898580540E94CB15382FB103C0011124DC
:104F60009301290F311D97FD3A953C832B8388EAE5
:104F7000882E83E0982E530189819A819E838D83A8
:104F800038872F8394E0C92EED80FE800F8118852D
:104F9000A2019101C301B4010E94411C29803A8001
:104FA0004B805C809A859F5F9A872985285F298737
:104FB000BBCF2A96E2E10C949B34AEE3B0E0E3EE83
:104FC000F7E20C947F340E94AE15C82ED090620197
:104FD000D094D82280936201809123028F5F8093C6
:104FE000230280916101823019F08650823010F5E1
:104FF00086E0E2E1F5E0DE01119601900D928A95DE
:10500000E1F700915F011091600120915D01309105
:105010005E0180911405909115059E5F682F9C8319
:105020008B83E12CA6E0FA2E49815A817C818D8107
:105030009E81F0DE80916101811149C0D3FE3AC0AA
:1050400010925C01C0DD0E943A1EE12C0DE422E0CA
:1050500042E361E08EE694E20E94861821E042E39A
:1050600064E081E294E20E94861880915B018111E4
:105070002BC049E481E390E0481708F494C020E293
:10508000E22FE770F0E0EA5CFF4DE491A22FA695D5
:10509000A695A69530E8A39FD0011124A80FB91FAB
:1050A000A156BA4F3C91E327EC932F5F293241F789
:1050B0000196E2CF8D2D807631F280915B0191E0F7
:1050C000892780935B01BFCF4FE781E5D4CF813043
:1050D00009F0F1C02091590130915A011B8A1A8AB6
:1050E0001D8A1C8A1F8A1E8AE12CFCE1FF2E00E724
:1050F00017E140E05B8960E07D8980E09F898ADE7E
:105100008091590190915A01939590935A018093FF
:10511000590180915B0180FF58C0D5FE08C0809185
:105120005801882309F443C0815080935801D6FE6A
:1051300008C080915801813109F43BC08F5F809392
:10514000580180915C018830B0F58F5F80935C01DD
:10515000D2FC5DDD8091580169E1869FC001112478
:10516000815A9D4D909319058093180511DD0E9479
:105170003A1EE12C0CE122E040E066E08BE092E296
:105180000E9486181091580142E166E081E0810F8B
:105190000E94FF18E12FF0E0E750FE4D849142E1BC
:1051A00067E00E94FF18EE96E2E10C949B3481E1E7
:1051B000BCCF80E0C4CFD3FECBCF82E0809361012F
:1051C00080935B0110925C01C3CF809123028F3FDB
:1051D00011F0D2FE05C082E08093610110925C0163
:1051E0000E943A1E90916101963009F089C6809123
:1051F0005501803208F4FDC6943009F08BC6E09169
:105200005801F0E0EA5CFE4F8081813009F082C6EF
:10521000E0912302EF70E73008F0E7E0F0E0EE0FF6
:10522000FF1FE85FFE4D45915491EEE3F0E284915B
:10523000E3EAF0E2E4913E2F282F0DE218E0ADEA18
:10524000B8E070E060E0F12CE12CFB01E15CFF4D87
:105250008491FB01EC55FF4DE491DE2EC82EC60172
:10526000822B932B8E299F297C01EE0CFF1C8E290B
:105270009F297C01F694E7948E299F298095F80157
:10528000F0808F21F42EF2228F2981938F01892FB4
:1052900080959C918923932F9423892B8D93542758
:1052A000452754276F5F7F4F79016436710509F4F4
:1052B00031C69601CACF823009F09AC00E94AE155D
:1052C0002091570130E0A90156954795569547958D
:1052D000982F907609F44DC02E5F3F4F240F351F55
:1052E0002F3F310508F04EC02093570185FF0AC0BB
:1052F00040915D0150915E01421B530B50935E0142
:1053000040935D0186FF0AC040915D0150915E01AE
:10531000240F351F30935E0120935D0187FF05C088
:10532000909156019E5F9093560184FF05C0809135
:10533000560182508093560110915601123028F583
:1053400012E01093560180915501882319F0815085
:105350008093550180915C018830D8F48F5F8093F1
:105360005C01D2FE3DCF86E080936101109248013E
:1053700037CF21503109241B350B09F0B1CF21E083
:1053800030E0B2CF2FEF30E0AFCF17FFDACF10E829
:10539000D8CFD3FEE6CFE0905D01F0905E01C7016B
:1053A0000E9485165C01C701905C0E9485167C01F5
:1053B00086E0E2E1F5E0AFE4B1E001900D928A957C
:1053C000E1F7612FC5010E947D1690934A018093F9
:1053D0004901612F882799278E199F090E947D1600
:1053E00090934E0180934D0183E080936101B9CF8A
:1053F000833009F07AC484E08FAB80914B019091A7
:105400004C01C0974091490150914A014115A0ECCF
:105410005A070CF405C34115B0E45B070CF003C355
:1054200050934A01409349018115E0EC9E070CF42A
:10543000FDC28115F0E49F070CF0FBC290934C0174
:1054400080934B0120914D0130914E01211560EC6C
:1054500036070CF4F1C22115A0E43A070CF0EFC2B4
:1054600030934E0120934D0140585F4F60911205DB
:1054700070911305650F711D57FD7A957093130593
:105480006093120580589F4F409114055091150567
:10549000490F511D97FD5A955093150540931405DA
:1054A00020583F4F8091160590911705830F911D4D
:1054B00037FD9A95909317058093160580911805EE
:1054C00090911905FC013496259134913EAB2DAB9A
:1054D000FC013C96B491BEAF1CAAEEADFCA9EF173F
:1054E00009F4C8C248E050E06DA97EA9CE010A9631
:1054F0000E9448349A848B840C8528892CA739898A
:105500003EA78D85E0901205F090130560E48602B9
:10551000E018F10811248E85A0901405B0901505AF
:1055200090E48902A018B10811249F85C090160547
:10553000D0901705A0E49A02C018D10811242111B7
:1055400003C0332309F446C04EA56CA5CE010196D5
:1055500028DC3A805B80BC81B8ABED81EAABFE8190
:10556000FAA72F80488419856981C7010E944A16CD
:105570003C0168A9C5010E944A16680E791E622D79
:10558000C6010E944A16680E791E632DC7010E944B
:105590004A161C016AA9C5010E944A16280E391E26
:1055A000642DC6010E944A16280E391E652DC701BA
:1055B0000E944A162C016AA5C5010E944A16480E8F
:1055C000591E612FC6010E944A166201C80ED91EDB
:1055D0005101730120E1929EA001112430E1839ECC
:1055E0004001112460E1069F80011124EE27FF276E
:1055F000E41BF50BFBA7EAA7DA01AE0DBF1DEE1603
:10560000FF064CF0412C512C32014E155F0544F43D
:10561000D701A41BB50B9D010E9473342B013C01E3
:105620002224332428183908D401AA0DBB1DA21442
:10563000B30434F08A149B0454F4D501A819B909B1
:105640009D010E947334460E571E681E791EEE2778
:10565000FF27E01BF10BD801AC0DBD1DCE16DF06F8
:1056600034F00C151D0554F4D601A01BB10B9D019F
:105670000E947334460E571E681E791E21E04216A2
:1056800020E452066104710408F0C0C13E2D2F2DA4
:105690008AA59BA5E816F90614F43AA52BA5832F35
:1056A000922F481759070CF4CA01D701A81BB90B50
:1056B000BDA3ACA33A2D2B2DA214B30414F4322DA8
:1056C000232D832F922F881699060CF4C40195017F
:1056D000281B390B3FA32EA33C2D2D2DCE16DF0604
:1056E00014F43E2F2F2F832F922F081719070CF435
:1056F000C801D601A81BB90BCD01B9A7A8A74CA119
:105700005DA16EA17FA199A50E94A4162CA33DA323
:105710004EA35FA368A779A7BCA5B11193C1EEA55D
:10572000E11190C12CA03DA04EA05FA008A519A535
:105730002091490130914A013DA72CA780914B014E
:1057400090914C019BA78AA760904D0170904E01EB
:10575000B101C9010E9463167C01B2018AA59BA513
:105760000E946316E80EF91EB801C3010E94631679
:10577000E80EF91E1E141F040CF448C1B101C70144
:105780000E946316ACA4BDA4A81AB90AB201C7014D
:105790000E946316CAA4DBA4C81AD90AB801C701BB
:1057A0000E9463164A2DBF8EAE8E6C2DD9A2C8A260
:1057B000D301A81BB90BCD01BBA3AAA35F8D79A10F
:1057C0009BA10E94A4162E8F3F8F48A359A36AA3C2
:1057D0007BA3EE8DFF8DFBAFEAAF28A139A139AFD6
:1057E00028AF8AA19BA19DAF8CAFA0913001B09151
:1057F0003101BFA7AEA7E0913201F0913301F9ABBF
:10580000E8AB20913401309135013BAB2AABB801B4
:10581000CF010E9463167C01B2018AA99BA90E9454
:105820006316E81AF90AB1018AA99BA90E946316B6
:105830005C01B8018EA59FA50E946316A81AB90A3B
:10584000B2018EA59FA50E9463166C01B10188A9C3
:1058500099A90E946316F7FE03C03FEFE31AF30A0B
:10586000F594E794ACA5BDA5AE19BF097D01B7FEBF
:1058700003C0BFEFAB1ABB0AB594A7948AA49BA43C
:105880008A189B08C81AD90AD7FE03C0EFEFCE1AB0
:10589000DE0AD594C7945301AC18BD08B101C70105
:1058A0000E9463166C01B201C4010E946316C80E07
:1058B000D91EB801C5010E946316C80ED91E6AAD73
:1058C0007BADC7010E9463167C0168AD79ADC40150
:1058D0000E946316E80EF91E6CAD7DADC5010E94F5
:1058E0006316E80EF91EAA24BB24AE18BF0860ECAC
:1058F000882799278C199D090E947D167C01EC1838
:10590000FD0865E5C5010E947D166C01B101C70166
:105910000E9463164C01B201C7010E9463165C012C
:10592000B801C7010E9463167C016AAD7BADC60158
:105930000E946316880E991E68AD79ADC6010E945B
:105940006316A80EB91E6CAD7DADC6010E9463162C
:10595000E80EF91E8CA59DA5880D991D90934A010E
:10596000809349018AA59BA58A0D9B1D90934C01AC
:1059700080934B01C701860D971D90934E01809334
:105980004D01B801C5010E9463166C01B201C70147
:105990000E946316C81AD90AB101C7010E94631692
:1059A0007C01B801C4010E946316E81AF90AB20129
:1059B000C4010E9463168C01B101C5010E946316E7
:1059C000CC0CDD1CCC0CDD1C2EA53FA5C20ED31EBD
:1059D000D0923101C0923001EE0CFF1CEE0CFF1C86
:1059E000A8A9B9A9EA0EFB1EF0923301E092320198
:1059F000081B190B000F111F000F111FEAA9FBA9AB
:105A00000E0F1F1F1093350100933401FCA9FF5F97
:105A1000FCAB2DA93EA9285F3F4F3EAB2DAB5DCD22
:105A200040E050ECFDCC40E050E4FACC80E090EC5B
:105A300005CD80E090E402CD20E030EC11CD20E0F7
:105A400030E40ECDACA0BDA0CEA0DFA0E8A4F9A4A8
:105A500009811A812B813C814D815E816F8178851E
:105A600089850E9430182CA33DA34EA35FA368A78D
:105A700079A758CE2091300130913101032E000CCE
:105A8000440B6FEF70E080E025D7A82FCB01805842
:105A90009F4FAF4F892F9A2FAA2790933101809360
:105AA00030012091320130913301032E000C440B60
:105AB0006FEF70E080E00ED7A82FCB0180589F4F8A
:105AC000AF4F892F9A2FAA279093330180933201E9
:105AD0002091340130913501032E000C440B6FEFFF
