:100000006CC4000092C4000090C400008EC40000C4
:100010008CC400008AC4000088C4000086C40000AC
:1000200084C4000082C400000C9421290C949029FF
:100030007CC400007AC4000078C4000076C40000CC
:1000400074C4000072C4000070C400006EC40000DC
:100050006CC400006AC4000068C400000C94092C41
:1000600064C4000062C4000060C400005EC40000FC
:100070005CC400005AC4000058C4000056C400000C
:100080000C94C22B52C4000050C400004EC40000A7
:100090004CC400004AC4000048C4000046C400002C
:1000A00044C4000042C4000040C4000000004601F7
:1000B0008B02CF03110551068D07C608FB092C0BD7
:1000C000570C7D0D9E0EB90FCE10DC11E412E61315
:1000D000E014D515C216AA178A186419381A051B18
:1000E000CD1B8E1C4A1DFF1DB01E5A1F0020010291
:1000F0000408102040800103070F1F3F7FFFFFFE11
:10010000FCF8F0E0C080FFFFFFFFFF7F5555FF3F89
:100110003333AA2A9224FF1F711C991945175515CC
:10012000B11349121111FF0F0F0F380E790DCC0CBE
:10013000300CA20B210BAA0A3D0AD8097B0924091D
:10014000D30888084208FF07C107870750071C0724
:10015000EB06BC06900666063E061806F405D105B9
:10016000B00590057205550539051E050505EC0419
:10017000D404BD04A70492047D0469045604440415
:10018000320421041004FF03F003E003D203C3038D
:10019000B503A8039B038E038103750369035E0304
:1001A000530348033D03330329031F0315030C03C3
:1001B0000303FA02F102E802E002D802D002C80208
:1001C000C002B902B102AA02A3029C0295028F02E8
:1001D000880282027C02760270026A0264025E0277
:1001E000590253024E02490243023E0239023402CE
:1001F00030022B02260222021D02190214021002F2
:100200000C0208020402FF01FC01F801F401F001F4
:10021000EC01E901E501E101DE01DA01D701D401D8
:10022000D001CD01CA01C701C301C001BD01BA019E
:10023000B701B401B201AF01AC01A901A601A4014B
:10024000A1019E019C0199019701940192018F01E6
:100250008D018A0188018601830181017F017D0171
:100260007A01780176017401720170016E016C01EE
:100270006A01680166016401620160015E015C015E
:100280005A015801570155015301510150014E01C6
:100290004C014A0149014701460144014201410123
:1002A0003F013E013C013B01390138013601350176
:1002B0003301320130012F012E012C012B012901C4
:1002C00028012701250124012301210120011F010B
:1002D0001E011C011B011A0119011801160115014B
:1002E00014011301120111010F010E010D010C0186
:1002F0000B010A01090108010701060105010401BA
:10030000030102010101000000AA55AA55FFFFFFE9
:100310001700030CCE390000994C000003002E0298
:10032000D1010000C411100184001000980C2E3A75
:10033000F243B94AB12A877CB726AE22211FAA2AE6
:10034000A23A0A00500184284A298A10A10A000012
:10035000BE78BF2A2E463F3ABF46BF042E669F7C1A
:10036000F147F1019F6C1F425F7C3F783F7EBF08E1
:100370002E7ABF68B226E1071F7E071F1F7D9B6C88
:10038000833EB94E3F028360F103220810424100D0
:100390004C7A5F324C4A4C7E4C53BE00D6035F70A1
:1003A0001D00B0019F681F009E785E704C325E1188
:1003B00044799E0856034F020E7A061B1E79924915
:1003C000823ADA02C47D0000DF11A2020000FE02C0
:1003D000FA2A1202728A72027A8262827A02FAAA75
:1003E0008A02FA2AD3040E1F4000400040005F0535
:1003F0005A005F15510052154900411F41005E052A
:100400005E005F055A00411F41004000400040006F
:10041000FF004E114E00471847005F1551005F0561
:100420005A0047184700511F51005F1551004F10E7
:100430004E104F00400040004000FF0040004000D0
:10044000400040004000400040005F054200511F56
:100450005100411F41004E1151005F045F004000F8
:1004600040004000FF00404040404040404040408D
:1004700040404040404040404E595F405F505F40E8
:10048000515F5140415F41404040404040407F000B
:1004900018183C7E002499423C0000000000000037
:1004A00000000000E0E020E0C000E0E0000000000C
:1004B000C0E020E0C000E0E080E0E00000000000DC
:1004C000000000000000808080800000808080802C
:1004D000000F0F81818000070F888C8C000F8F81A7
:1004E0008F8F008C8D898F070080808000000080B6
:1004F0008080803F3F040703003F3F043F37003FB9
:100500003F043F3F001F3F20311100003F3F0000EC
:10051000203F3F20001F3F203111001F3F24353175
:1005200000000000004CDE92F664007CFE82C644AF
:10053000007CFE82FE7C00FEFE12FEDC007CFE9251
:10054000D6C6004CDE92F6640000000000000000F9
:1005500080C0F03C7CF0800000000080E06080C043
:10056000E060E0000080C0C06060C0F87F0700006D
:10057000E0E000000000C0C00000C0F038180C0629
:1005800006068E8E000080C0E06060E0800080FC87
:100590007F07C0F0FCCEC3C34F0630381E070706E6
:1005A0000602030F1E3830001F3F1E03010000002B
:1005B000001E3F3130180E1F3F3010001F3F3030FB
:1005C000180C1E3F20001F3F3030303818CCFE0F73
:1005D00001003E7F616070381F07007F7F00007858
:1005E0007F0300000000000000F838000000000059
:1005F00000FC7C0000000080C0C0C0C0000080F88B
:100600007E0E0080C06060E0C000000000000000BE
:1006100000E0E60600C0C00080C0C0C0800000004E
:100620000000000000000080E07030181818183832
:10063000F0E000C0C00080C0C0C0800000000080AA
:10064000C06060E0C0000080F8780000007C7F039C
:1006500003030303037F7F0000003C7F6360703867
:100660001F0F007F7F00001E3F3736333118080010
:1006700000000000003C3F0100383F0F0701000070
:100680001F3F3000000000000000001E3F7160604E
:10069000603030180E0701383F0F070100001F3F80
:1006A0003010001E3F37363331180830370700004E
:1006B00000FFAA55AA11000000110055AAFFAAFFC9
:1006C000FFF808F000F8A88800D820D80008F8083B
:1006D00070C8F000F880F80088F8880008F808046E
:1006E000069F060402060F0602426573743A000371
:1006F000022272FA222202022222FA722202FE0050
:10070000FAA85200FAA88A0092A84AFA22FA0272BB
:100710008A7202FA828202FAAA8A020202020202A1
:100720000202020202FE0002000200FA281200F297
:1007300028F200FA28D200020002000200020002A1
:1007400000FF0092A84A00FA20FA00728872000A9C
:10075000F80A0002000200020002000200FF007F0F
:10076000280B201C21CD21781F3527B020D81B76DF
:1007700020921AE61D70887090F880C8A89088A80A
:10078000503820F8B8A84870A84008C83850A85079
:1007900010A87041524455474F4C46000306090CBF
:1007A0000F1215181B1E2225272A2D303336393CEF
:1007B0003E414446494B4E505355575A5C5E606229
:1007C0006466686A6B6D6E70717374757678797A29
:1007D0007A7B7C7D7D7E7E7E7F7F7F7F0000240311
:1007E00048066A098C0CAB0FC812E215F9180B1CED
:1007F0001A1F2322282526281F2B112EFB30DF331A
:10080000BA368C39563C173FCE417A441C47B4491E
:100810003F4CBF4E33519B53F5554258825AB35CFF
:10082000D75EEB60F162E864CF66A6686D6A236C00
:10083000C96D5E6FE2705472B573047541766B7763
:10084000847889797C7A5C7B297CE37C897D1D7E38
:100850009C7E097F617FA67FD87FF57FFE7FD5F0E4
:100860008D14A1C881CFD9F1AF2000080B0002027E
:10087000020000090400000102020000052400102B
:1008800001052401010104240206052406000107D4
:1008900005810310004009040100020A000000075E
:1008A000050202400000070583024000000403091E
:1008B0000412010002EF02014041233680000101D1
:1008C00002030141726475696E6F204C4C43004114
:1008D000726475626F790000532C11241FBECFEF34
:1008E000DAE0DEBFCDBF11E0A0E0B1E0E6EEFCE56E
:1008F00002C005900D92AC32B107D9F729E0ACE205
:10090000B1E001C01D92AA3CB207E1F714E0CDE6C8
:10091000D4E004C02197FE010E94642ECC36D1079A
:10092000C9F70E94782C0C94712E6ACB80917D03BC
:100930000895FC018091C103882311F13FB7F89419
:1009400082E08093E9002091F200822F90E0181657
:10095000190614F481E090E0882339F0289844E6E1
:100960004093C0034091F1004083222339F020914D
:10097000F200211103C02BE62093E8003FBF089549
:100980008FEF9FEF08952FB7F89483E08093E900ED
:100990009091E800892F807295FF04C09091F20039
:1009A00080E4891B2FBF08958091B80381110DC089
:1009B00082E08093B40384E08093B5031092B70380
:1009C0001092B60381E08093B80384EB93E008951E
:1009D000A1E0B0E0EEEEF4E00C943D2E6983DC0182
:1009E000ED91FC910280F381E02D41E050E0BE01E9
:1009F0006F5F7F4F09952196E2E00C94592E83E0BA
:100A00008093E9008091F200882319F08AE38093B3
:100A1000E8000895B8DF90E00895A1E0B0E0E3E1D8
:100A2000F5E00C943D2EFC018485958597FD08C06A
:100A30002FEF3FEF358724872196E2E00C94592E63
:100A4000CE01019676DF019719F4898190E0F4CF09
:100A50008FEF9FEFF1CFA1E0B0E0E1E3F5E00C9480
:100A60003B2E8C01FC018485958597FF0AC0CE0141
:100A700001965FDF019761F4898190E0F801958725
:100A80008487F801848595852196E4E00C94572E9F
:100A90008FEF9FEFF3CFFC018485958597FD0BC009
:100AA0009FB7F89482E08093E9008091F2009FBFA5
:100AB00090E0019608959FB7F89482E08093E90052
:100AC0008091F2009FBF90E008954091AE03509155
:100AD000AF032091AC033091AD0342175307B4F438
:100AE0009091E8009570E1F39091E80092FD19C0B3
:100AF0008093F1008091AE039091AF0301968F73C4
:100B00009927892B19F48EEF8093E8008091AE032A
:100B10009091AF0301969093AF038093AE0381E071
:100B2000089580E00895EF92FF920F931F93CF9363
:100B3000DF93F82E192FE62E042F81E0860F880F01
:100B4000C4DF83E0C2DFCF2DD12FEC0EFD2EF11CD0
:100B5000CE15DF0599F007FF0FC0FE018491B5DFC8
:100B6000182F80E0B2DF812321968111F1CFCDB71C
:100B7000DEB7E6E00C94552E8881F1CF81E0F7CF07
:100B8000B0E0A0E0E6ECF5E00C94382ED82E8A0117
:100B9000EB017B01E40EF51ECE15DF0551F0D7FE0B
:100BA0000EC0FE01849191DF21968111F5CF0FEFE8
:100BB0001FEFC801CDB7DEB7E7E00C94542E888153
:100BC000F2CFA1E0B0E0E7EEF5E00C943B2E82E03E
:100BD000898342E450E06BE678E080E8D1DFE4DE30
:100BE000DC0112960D911C910115110589F0D801B7
:100BF000ED91FC910280F381E02DBE016F5F7F4F8C
:100C0000C801099597FD04C0F80100851185ECCF56
:100C100089812196E4E00C94572E615030F02091A8
:100C2000F100FC0120830196F8CF289884E6809398
:100C3000C003089520918B03E0918903F0918A030A
:100C4000CF01029690938A0380938903222319F09F
:100C5000859194910895808191810895CF92DF923A
:100C6000EF92FF92CF93DF93E5DF811520E89207A3
:100C700091F4809171008D7F8093710010929100AA
:100C80004698479810928803DF91CF91FF90EF909C
:100C9000DF90CF90089521E020938803813020E8F1
:100CA000920749F4809186039091870390938A0379
:100CB00080938903BFDF97FD05C020918503222320
:100CC00009F453C02091840321114FC021E02093E7
:100CD0008C03EC01DF77209709F04AC081E0809314
:100CE0008D0346983FE9C32E3FE0D32EE12CF12C33
:100CF000CAEFD0E0E091C809F091C90909958111C6
:100D000003C081E080938D0380918C03882329F0B8
:100D100080918D03882309F43EC047988BDF0097AC
:100D2000F1F19C01DE010E94092EDC01CB0129E0DA
:100D3000B595A795979587952A95D1F7109290002C
:100D40002AE020939100D0929900C092980080935D
:100D50008E0390938F03A0939003B093910380919F
:100D600071008260809371008FCF10928C03B1CF9D
:100D70009E0150E040E060E472E48FE090E00E9469
:100D8000C12D69017A0181E0C81AD108E108F10892
:100D900010928D03AFCF4699C0CF479ABFCF8FEF48
:100DA0009FEFDC01CBCF9C01E1E7F0E090819D7FDC
:100DB000908310928B03EAEBF9E0F0938A03E093BF
:100DC0008903F0938703E093860331832083738341
:100DD000628380E090E89583848340CF08950DB4CA
:100DE00007FEFDCF8EB5599A0895FC016150704001
:100DF00019F005D08193FACFF2DF808308950DB406
:100E000007FEFDCF8EB51EBC089559985BD1862F85
:100E100059D1852F57D1842F55C1462F5091520556
:100E2000570F60915305681F83E0EFDF1EBC0895E4
:100E3000462F50916805570F60916905681F83E040
:100E4000E4DF1EBC0895A3E0B0E0E9E2F7E00C9413
:100E50002D2E4C016A01E62E862FBA01E9DFCFDF85
:100E6000182FBDDF212F30E0A401420F531F452B67
:100E700009F424C1882309F421C13901782AF0E05A
:100E8000E0E053E022E0C20ED11CE11CE115F105C7
:100E9000A1F086958695869550FD880F819FB001BB
:100EA0006F9FD00CE11C7E9FD00CE11C7F9FE00C5B
:100EB0006E9FC00CD11C1124E11CB72CAAE6B5E032
:100EC000C401A82E7727762CB694B694B69461E028
:100ED000E1FD64E0E0FD660FE2FD62954FEF469FA5
:100EE000800100951095F595E795F595E795F595B1
:100EF000E7953E2F3F3F4CF43095B31A50FD330F2A
:100F0000369DC00CD11CE71E3FEF97FF0BC0780E3B
:100F100050FF02C0880F991FC81AD90AE70A97FD27
:100F2000E394AA2440E834030A0CA00DB11D4A1929
:100F3000741608F0742E47E0431B4B1514F4B42EBE
:100F4000739540E84719462C552451FD02C04718B7
:100F5000550850FF02C0440C551C1124F32E00907C
:100F60006805D00C00906905E01C18C0599893E002
:100F70009EBDC40CD51CE11C8824671409F0839421
:100F80000BD0EEBC06D0DEBC04D0CEBC02D01EBC62
:100F900002C0C8950000C895C8950895C418D50822
:100FA000E108E4DF31151CF0BB2071F564C0A058E6
:100FB000BF4FA72C50FD0CC02EB41EBC269E9C908B
:100FC000912291289D92C89500C0AA94A9F711C0BA
:100FD0002EB41EBC269E1001DEDF0EB51EBC069F81
:100FE00080019C901095912293289D92C895AA9477
:100FF00079F71124A719B109BA9409F45CC08820C3
:1010000019F00DB4599AB2DFFD01E058FF4FA72C3B
:1010100050FD0EC02EB41EBC269E9C90902290289F
:101020009D929080912291289192AA9499F716C04E
:101030002EB41EBC269E10019C901081AEDF00C015
:101040000EB51EBC069F0094902092289D9210948D
:101050001121132911930000AA9451F71124A40F10
:10106000B11DBA9461F6772331F1882021F00DB4D7
:10107000599A7CDFC89550FD0CC02EB41EBC269E2C
:101080009C90902290289D92C89500C07A94A9F7D0
:1010900012C02EB41EBC269E10017DDFBEB41EBC45
:1010A000B69EB02C9C90B0949B2092289D92C8959F
:1010B0007A9479F7C8951124599A0DB42396E2E1F0
:1010C0000C94492E8EBD00008EB50DB407FEFCCFEA
:1010D0000895599885E0F6DF80E0F4DF80FDFCCFCD
:1010E000599A08955998EEDF599A0895CF93DF934E
:1010F000EC0186E0F7DF40915205509153054C0F0B
:101100005D1F60E0652F542F442782E07EDEC0E043
:10111000EC2FF0E0EE53FC4F8081D4DF81E08C0FA8
:10112000CF3F21F4599ADF91CF910895C82FF0CF86
:10113000CF93DF93EC0186E0D5DF409152055091CB
:1011400053054C0F5D1F60E0652F542F442780E24C
:101150005CDE599ADF91CF910895FC0187D03197D9
:1011600028F068517C4F8F4F9F4FF9CFAB01FC01A6
:101170007DD0641775078E079F07D0F3089585E02B
:1011800090E0EBCF0895B0E0A0E0E9ECF8E00C943B
:10119000332E6C017B018A0180910B01882309F4B5
:1011A00058C08091C103882309F453C08091B303D0
:1011B00080FF05C08091E00082608093E000E8013C
:1011C000B12C8AEFA82E93E0892E2AE3922E209745
:1011D00011F4BB20B9F1D7DB811107C0AA94AA2072
:1011E000C1F181E090E0B9DFF2CF8C171D0611F05C
:1011F0000CF08C2F9FB7F8948092E9002091E800C2
:1012000025FD02C09FBFE3CF282F30E0C21BD30BC8
:10121000F701815020F041914093F100FACFE20EA6
:10122000F31EBB2021F09092E800B12CEBCF80910F
:10123000E80085FDE7CF9092E800BB24B3942097A7
:1012400009F3F3CF5D9884E68093B203101611067C
:101250003CF081E090E0F6019383828310E000E0AF
:10126000C801CDB7DEB7ECE00C944F2EA0E8B3E098
:101270002FB7F8947D918D919C9166B52FBFA89B57
:1012800005C06F3F18F47F5F8F4F9F4F22E0660FBE
:10129000771F881F991F2A95D1F708958FB18095E0
:1012A000807F669B88601C9B8460089510927D03FC
:1012B0003E983F9808953E9A3F9A81E080937D033F
:1012C0000895482FE82FEF7386FF03C080E48E1B3C
:1012D000E82FF0E0EE0FFF1FE452F84F8591949154
:1012E00047FF03C09195819591090895E82FEF7309
:1012F00086FF03C090E49E1BE92FF0E0E556F84F0F
:10130000E49187FDE1958E2F0895EDEEF1E06BE21B
:1013100072E02FEF3FEF81918327982F92959F7076
:101320008927482F50E0922F9A01322F2227329599
:10133000307F822793279A01B5E0220F331FBA9599
:10134000E1F7282739276E177F0729F7C901089584
:10135000EF92FF920F931F93A62FB0E0AA0FBB1F2F
:10136000A253BA4FE42FF0E0EE0FFF1FE253FA4F03
:101370004D915C9160817181460F571FE82FF0E01D
:10138000EE0FFF1FE253FA4F80819181480F591FE2
:101390008091640590916505DC01A01BB10BB7FF3E
:1013A00003C0B195A195B109BC016E197F0977FF02
:1013B00003C07195619571096A177B070CF4DB0115
:1013C000821B930B97FF03C09195819591098A1712
:1013D0009B070CF4DC019D010E94212E24E0880F64
:1013E000991F2A95E1F7840F951F1F910F91FF9088
:1013F000EF900895EAE6F5E0119289E0EA36F80701
:10140000D9F7089520E0AC01D703C0014E03821F35
:10141000312D5603000C111C920B300D811D921FB3
:101420007403000C111C920B300D811D921F1124AE
:101430000895A9E0B0E0EFE1FAE00C942D2E7C01D4
:1014400029833A834B835C836D837E830987E2E63D
:10145000F5E0A980BA8080819181A81AB90ACB8071
:10146000DC8082819381C81AD90A0D811E81848112
:101470009581081B190B8985682E712C230192E335
:10148000490E511CF201EE0FFF1FF887EF83E6595A
:10149000FA4F9501D5010E94212E1B012C019601C6
:1014A000D6010E94212E260E371E481E591E980175
:1014B000D8010E94212E620D731D841D951D9183FC
:1014C0008083F70160817181C5019CDF4C01F701C8
:1014D00062817381C60196DF880E991EF7016481CF
:1014E0007581C8018FDF1401280E391EF70166814E
:1014F0007781C50187DF4C01F70160857185C601E1
:1015000081DF880E991EF70162857385C8017ADF35
:10151000880E991EF70164857585C50173DF5C012E
:10152000F70166857785C6016DDFA80EB91EF70144
:1015300060897189C80166DFF301EE0FFF1FEE0FAE
:10154000FF1FE351FE4F3182208293828282EF811E
:10155000F885EA58F84FA80EB91EB194A194B108C5
:10156000B182A08289858F5F2996E2E10C94492E91
:101570009C01B603C0016203000C111C00249009F9
:10158000810D1124911D08959C01369FC001279F54
:10159000800D911D379F900D269F810D1124911D67
:1015A00008959C013603C0017203800D911D379F81
:1015B000900D269F810D1124911D08959C013603E5
:1015C000C001729F800D911D379F900D269F810D48
:1015D0001124911D08959C013603C001269F810DA1
:1015E0001124911D0895EF92FF920F931F93CF93B3
:1015F000DF93EC018D2F65DE8C0181E08D0F61DEC4
:101600007C0160E071E06C1B7109C801D7DF8C01BF
:101610006C2FC701E0DF800F911FCDB7DEB7E6E08A
:101620000C94552EACE0B0E0E8E1FBE00C94302ED9
:101630004F83588769877A878B879C87CF80D88428
:10164000E984FA840B851C85C701F7FE04C088274E
:1016500099278E199F09980117FF04C02227332765
:10166000201B310B821793070CF4C9019601D7FE9A
:1016700004C0222733272C193D09821793070CF445
:10168000C9018F3F9105B1F0ACF0D7FE03C02FEF39
:10169000C21AD20AD594C794F7FE03C03FEFE31AEB
:1016A000F30AF594E79417FF02C00F5F1F4F1595DB
:1016B0000795CACFB601C60174DF4C01B701C70157
:1016C00070DF880E991EB801C8016BDF880E991E65
:1016D00038E0532EA12CBB24B39450E8652E772418
:1016E0007394B501C50150DFBC01C4014DDF96956F
:1016F0008795B5019301281B390BC90145DF5C01B2
:101700005A945110EECFBC01C60158DFD82EC92E15
:10171000B501C70153DFF82EE92EB501C8014EDF30
:101720002D2D3C2D4F2D5E2DBC0180E090E02C96A0
:10173000EFE00C944C2EACE0B0E0E1EAFBE00C945E
:10174000312E8C012F83388749875A876B877C8796
:10175000AF80B884C984DA84EB84FC84FC016081A6
:10176000C50106DF3C01F8016181C60101DF680E99
:10177000791EF8016281C701FBDE680E791EF8014F
:101780006381C501F5DE4C01F8016481C601F0DE1C
:10179000880E991EF8016581C701EADE880E991E40
:1017A000F8016681C501E4DE5C01F8016781C601CC
:1017B000DFDEA80EB91EF8016085C701D9DE7A8286
:1017C00069829C828B828A0D9B1D9E838D83262D30
:1017D0003A81482D5C81682F7E8180E090E02C96D4
:1017E000EEE00C944D2EEF92FF920F931F93CF9348
:1017F000DF93DC0180E8689FB001112466597A4FBD
:1018000030E0F02EF40E015010E00F5F1F4FFD018D
:10181000942F549197FD06C0EB01C90FD11DE11023
:1018200011C0588331969F5F9F11F3CFA00FB11F56
:101830003F5F60587F4F2313EACFCDB7DEB7E6E0B6
:101840000C94552E8881852B8883ECCFEF920F93D3
:1018500023E0829FC0011124EE24E39403E021E001
:101860008B58984FC0DF0F91EF900895FF920F9320
:101870001F93CF93DF93D62FC42F8C01083E83E0B4
:10188000180710F007EE13E080E00436110520F091
:10189000045611098F5FF9CFF12C0A30110520F0A1
:1018A0000A501109F394F9CF882391F04C2F6D2F32
:1018B000CDDF44E04C0F6D2F8F2DC8DF48E04C0F7B
:1018C0006D2F802FC3DFCDB7DEB7E5E00C94562E29
:1018D00044E0FF20A1F342E04C0F6D2F8F2DB6DFC7
:1018E00046E0EDCF1F93CF93DF93162FD42FC82F51
:1018F000843608F0C3E680E0CA3018F0CA508F5F23
:10190000FBCF42E0882321F04D2F612F9FDF44E081
:101910004D0F612F8C2F9ADFDF91CF911F9108958A
:10192000E1E8F1E080E081938F5F8436E1F708958C
:10193000B5DC60918001609568238093800190916F
:10194000E5019F5F9093E501E0917F01F0E0EE0FEC
:10195000FF1FE15AF84F25913491F9010995089537
:101960008091A6039091A7032091A8033091A90329
:10197000E091E801F091E9016091EA017091EB01D9
:101980004091A4035091A503A091E601B091E70115
:101990004A1B5B0B57FF03C05195419551094F3FBF
:1019A000510509F0BCF48E1B9F0B97FF03C0919566
:1019B000819591098F3F910509F064F4261B370B3F
:1019C00037FF03C031952195310981E02F3F310563
:1019D00011F00CF080E0089586E0EEE9F3E0A6EE69
:1019E000B1E001900D928A95E1F786E0EAE3F1E03B
:1019F000DF01982F1D929A95E9F7E4E3F1E0DF010A
:101A00001D928A95E9F708958093AB03E5DF109264
:101A1000E50110927E0110927D0110924B0110920F
:101A20004A0180E280932F0180E090E1909355017C
:101A30008093540181E080937F0108956091EC01CF
:101A400083E0689FB001112466537C4FFB01249111
:101A5000319694916E5F7F4FFB01649170E080E05E
:101A6000862F77276627792B622B08958093EC01C8
:101A7000E5DFDED963E170E088E691E0B6D9109247
:101A8000AB03089580E0F2DF80E0BEDFE6E5F1E041
:101A9000119281E0E836F807D9F710927F0186E0CD
:101AA000ECE0F1E0A2E6B5E001900D928A95E1F755
:101AB00080E090EE909357058093560580E09FE07C
:101AC000909355058093540580917B01817080939C
:101AD0007B0180E280932E0180932D018AE2809326
:101AE000530110927C01089582EAC0DF80E08CDF10
:101AF000C9CF0895CF93C82FA1DF9B01482F8C2F0A
:101B000090E0982F8827990F990F092E000CAA0BA7
:101B10009F5FAF4FBC018A2F620F731F841FCF914D
:101B200008958032B9F0E82FEE0FFF0BE253FD4F1E
:101B300085919491292F269526952F7149F425E0BA
:101B4000969587952A95E1F78F7121F481E00895A4
:101B500083E0089582E008950F931F93CF938C0143
:101B6000C0E0F80181918F01882341F0803211F4A7
:101B7000CD5FF7CFD6DFCF5FC80FF3CFC111C15014
:101B80008C2FCF911F910F91089587FD1BC060345A
:101B90007105C0F4FB0194E0EE0FFF1F9A95E1F789
:101BA000E078F370E80FF11DE659FA4F6770772778
:101BB00081E090E001C0880F6A95EAF780959081F6
:101BC000892380830895CF93461757070CF438C0B4
:101BD00057FD36C0603471059CF587FD31C077FF35
:101BE00002C070E060E0C62F4F33510514F04FE3A0
:101BF00050E0C87F942F987F6770772762507F4F9F
:101C0000FB016491FA01E770FF27EA50FF4F44910E
:101C1000E82FF0E080FF232F80E1C89FD00111243E
:101C2000AE0FBF1FA659BA4F3C91C9130BC0E62F88
:101C3000E4239E2F9095922BE223E32BE923EC9350
:101C4000CF910895862F8095582F522BE62FE223AF
:101C50008E2F832B85238C93A058BF4F892F8C1BED
:101C60008850181624F42C93A058BF4FF9CF6C91CC
:101C7000E42FE0958E2F822BE42FE223E62BE8233E
:101C8000DECFA8E0B0E0E7E4FEE00C942D2E4C019E
:101C900078876F835A01DC82CB824617570764F03E
:101CA000E016F1064CF09E2D8F2D7801092F182F8C
:101CB0008B2D5B014F838887A901481959095A83E5
:101CC000498327014A185B0857FE03C05194419489
:101CD000510818016F817885261A370A37FE03C02C
:101CE0003194219431086A2D67708F818770EA14CE
:101CF000FB0414F461956770EF81F8850E171F07D8
:101D000014F481958770482D47704450042E000CC0
:101D1000550B6850770BE981FA816E9F30016F9FF8
:101D2000700C7E9F700C1124449EB001459E700D76
:101D3000549E700D1124661A770A759467947594F1
:101D40006794759467948850990B8E9F60018F9F5C
:101D5000D00C9E9FD00C1124249EC001259E900D76
:101D6000349E900D1124C81AD90AD594C794D594DD
:101D7000C794D594C7949FEFAE14BF040CF491E0C0
:101D80004F8158858FEF401751070CF481E0EA141A
:101D9000FB041CF451E0A51AB1086F817885061781
:101DA000170724F46150710978876F83959487949D
:101DB00095948794959487942D5F3F4F7901F5947E
:101DC000E794F594E794F594E794B594A794B594C3
:101DD000A794B594A794EF81F885F595E795F595C7
:101DE000E795F595E795F887EF83292F990F330B42
:101DF0003E832D83082F880F110BE814F90449F155
:101E0000161417044CF44D815E81A40EB51E698131
:101E10007A81661A770AF4CF1C141D045CF48F8152
:101E20009885800F911F98878F83E981FA81CE1A58
:101E3000DF0AF2CF2B813C814F815885B501882D77
:101E4000C2DEFFEF8F1A9F0A640C751CC20CD31CF4
:101E5000D4CF2896E2E10C94492EA4E0B0E0E3E36D
:101E6000FFE00C942D2E7B01EE27FF27E41BF50BE2
:101E70006E177F070CF481C08C018E179F070CF43E
:101E80007CC0FA01FC5FE617F70708F476C0E81794
:101E9000F90708F472C049017B01F594E794F594C1
:101EA000E794F594E794159507951595079515957D
:101EB000079583E0569547958A95E1F728EF240327
:101EC0001001259F300C112488E0280E311CCA0116
:101ED000880F991F880F991F25E030E05901A81A33
:101EE000B90A5C834B83D12CC12C8CE090E09A839F
:101EF000898394016B807C80600E711EA301280190
:101F00008B819C81481A590AB2018E2D8C0D5BDEA3
:101F10009401A301B2018E2D8C1955DE9401360176
:101F2000600E711EA30128014C185D08B2018B815F
:101F30008E0D49DE9401A301B2018E2D9B81891B78
:101F400042DEB7FC0AC0A20CB31C88E0280E311C8C
:101F50008B819C8101979C838B8389819A81A80EB8
:101F6000B91E08969A8389839FEFC91AD90A8B8173
:101F70009C818C159D050CF0BCCF2496E2E10C945D
:101F8000492EE62FE770F0E0E251FF4FE4916695AD
:101F90006695669590E8699FD0011124A80FB11D40
:101FA000A659BA4F8C91E827EC930895A3E0B0E0CE
:101FB000ECEDFFE00C94342E182FF62EE42FEE0FEC
:101FC000FF0BE253FD4F25913491822F8F7189834E
:101FD000C90145E0969587954A95E1F78F718A8307
:101FE000932F969596959F719B8303E0911104C062
:101FF00002E0811101C001E0CE0101965C01902E4A
:10200000910EF50181915F01EF2C882361F0C82EBC
:10201000D12C80FF03C06E2D812FB3DFE394C60166
:1020200095958795F2CF1F5F1911EBCF802F2396DF
:10203000EBE00C94502E0F931F93CF93DF93C82F98
:10204000D62F8A01F80141918F01442351F040328B
:1020500011F4CD5FF7CF6D2F8C2FA8DFCF5FC80FA6
:10206000F1CFDF91CF911F910F910895E62FE77087
:10207000F0E0E251FF4FE49166956695669590E831
:10208000699FD0011124A80FB11DA659BA4F8C9198
:10209000E82BEC930895B0E0A0E0E1E5F0E10C94CA
:1020A000332E00916801601708F085C0061B0A30C6
:1020B00008F009E0842EF62EC82F182F110F110FEB
:1020C000110FDAE00D9FD02D11249EE0C92ECD0E08
:1020D000E12CD82CDE0C69E0610F8D2DC7DF61E1AA
:1020E000610F8D2DC3DF69E1610F8D2DBFDFE3949B
:1020F000E394CE1470F7EC2FF0E03196F695FE2FB6
:10210000EE27F795E795E80DF11DAF0146595A4FB7
:1021100090E0DA01A90FB11D9D0120583F4F8AEAD6
:10212000F90180838C93965FD91798F7FA01ED0F28
:10213000F11DDF01A257BF4F8C9386878394839450
:102140008F2D90E09C012A5A3E4F5901182DEE2404
:10215000E394D12CC12C912C0E15F8F0412F6C2F4B
:102160008E2D8F0DBFDBF50181915F01C80ED11C53
:10217000882381F0412F62E06C0FB4DBEFEFEF0DAD
:10218000EE0DF0E0E859FE4F8181980E412F61E09D
:102190006C0FA8DBE394165FDFCF992061F0D80DB8
:1021A00061E06C0F4D2F892D90E060DB62E06C0FD9
:1021B0004D2FC6015BDBCDB7DEB7ECE00C944F2EA4
:1021C0000F931F93492F50E0440F551F4A5F5E4FF6
:1021D000FA0125913491FA013296A591B491482FD4
:1021E0004095349FB001249F610D1124711DB89F4B
:1021F000A001A89F410D1124511D460F571F232FE9
:102200003327FA01E20FF31F9F01DC010E94092E20
:10221000072F182F292F332780E090E0A2E0801BA2
:10222000910BA20B9C014A2F50E0DF010E94DD2D93
:102230001F910F910895B0E0A0E0E1E2F1E10C946C
:10224000352E5C01E9018417950739F1D801A21BED
:10225000B30B201731071CF0D901A01BB10B9B0158
:102260002A193B090E94092E6B017C01CA018A19B7
:102270009B098F3F9105B9F0B0F0A2DF55274F2D94
:102280003E2D2D2DDC010E94DD2D0C171D071CF4A9
:10229000919581959109C80FD91FCE01CDB7DEB7B1
:1022A000EAE00C94512EFC01EE0FFF1FEA5FFE4F97
:1022B000A591B491A7019601E6CFB0E0A0E0E3E6D6
:1022C000F1E10C942F2E4B015C01EA012801390148
:1022D0009B01A70160E071E0CE01ADDF6C018301DD
:1022E0009501A70160E071E0CE01A5DFB601CDB791
:1022F000DEB7E0E10C944B2EAAE0B0E0E2E8F1E1B9
:102300000C942D2E4C012A011801B42FA52F48172B
:10231000590714F4B82FA92FEB2FFA2FE215F30564
:102320000CF4F801F7FDD9C0B42FA52F841495043F
:1023300014F4B82FA92FEB2FFA2F2E163F060CF40A
:10234000F801E130F2400CF0C8C05B013A87298700
:102350003701261737070CF0E4C0E616F7060CF035
:10236000C0C02C014A017A87698759016A147B042D
:102370000CF4BFC0782D692D9A2D8B2D4801570183
:10238000120169847A842401BA86A986872E962E42
:10239000A92EB82E77FCA1C0A114F4E0BF060CF062
:1023A0009CC0A614B70409F498C081019401A3014C
:1023B00069857A85C5013FDF89839A83EC2DF0E03A
:1023C000EE0FFF1FEA5FFC4F259134913E832D8372
:1023D000B7FE9DC08201940149855A8570E060E096
:1023E000C50129DF7C0109811A81940149855A853B
:1023F00070E060E0C5011FDF8B839C834701B12C37
:10240000A12C89859A858130A4E09A070CF482C0BA
:1024100082019401AC0160E074E0C5010CDF8F83A0
:10242000988709811A812B813C8149855A8560E012
:1024300074E0C50100DF20E034E0A216B30654F4D6
:10244000CD80DE807C010F8118854B815C81B401D9
:10245000C50117DCE985FA85F7FF14C081019201F7
:10246000A30170E060E0CF01E6DE2C0129813A8112
:10247000A30170E060E089859A85DDDE89839A8317
:102480001A861986C101F1E06F16F4E07F06ACF000
:1024900081019201A30160E074E089859A85CBDE19
:1024A0007C0129813A81A30160E074E089859A85E5
:1024B000C2DE1701612C24E0722E29853A8526158B
:1024C00037055CF4CD80DE807C0181019301498178
:1024D0005A81B20189859A85D4DB2A96E2E10C946F
:1024E000492E742F652F922F832F2801FA86E986B3
:1024F00047CF982D892D48011201492E582E9A2D2B
:102500008B2D570169847A8499878A8743CF8B8280
:102510009C8277CF89819A814F82588629853A8516
:102520008CCF89859A85E816F9060CF41FCF32CF37
:10253000A6E3B0E0EEE9F2E10C942D2EE090560512
:10254000F09057050091540510915505C8014BD8DE
:102550006C01C801905C47D88C01C70144D85C016C
:10256000C701905C40D87C019A8389831C821B82BE
:10257000BE82AD82B501C6010E94020A98878F8390
:102580001A870987B701C6010E94020A91958195B1
:1025900091099C878B87B501C8010E94020A919519
:1025A000819591099E878D87D88ACF86B701C8010A
:1025B0000E94020A9A8B898BD3D98CA78111DBC127
:1025C00000E02091E6013091E7014091E80150914F
:1025D000E9016091EA017091EB01CE0101960E9440
:1025E000190A582E2091DA073091DB072F3F310569
:1025F00009F00CF4C4C14091ED015091EE016091DD
:10260000EF017091F001CA014093F1015093F20182
:102610006093F3017093F40180589F4F9093F201FF
:102620008093F1013093DD072093DC078091CE0584
:102630009091CF059093D1058093D0052091E8012A
:102640003091E9017901890140E060E080E00E9479
:10265000A80980579E4F9093A7068093A6068FEFF8
:102660008093C503539401E00CA721E029A3609057
:10267000A4037090A503E090A603F090A703A09098
:10268000A803B090A90347019394262D7A8E698EF2
:10269000482D9C8E8B8E6A2DBE8EAD8E052D3A8D6B
:1026A0005C8D7E8DCE0101960E94190A082F282F7D
:1026B00030E0A901495C5E4F440F551FFA01E6590D
:1026C000FA4F20803180F901EE0FFF1FEE0FFF1F40
:1026D000E751FE4F80819181A281B3816081718138
:1026E000CB01C096220F331F220F331FF901E35194
:1026F000FE4F80839183A283B38344595A4FDA01FA
:102700002D923C920F5F6701BBEFDB1A4C2DDC8EE4
:10271000CB8E298D3A8D5C8D6D8D7E8DCE0101968F
:102720000E94190A482E90E0DC01A95CBE4FAA0F56
:10273000BB1FFD01E659FA4F0081118131E0EFEF37
:102740002E16310409F00CF430E021E00F3F1105A2
:1027500009F00CF420E0332E3222FC01EE0FFF1FB3
:10276000EE0FFF1FE751FE4F40815181628173815F
:1027700020813181A901405D5F4F880F991F880F2B
:10278000991FFC01E351FE4F4083518362837383A1
:10279000A459BA4F0D931C9301E0040DC701995F32
:1027A000482F9C8F8B8F298D3A8D5C8D6D8D7E8D02
:1027B000CE0101960E94190A082FE82FF0E0EE0FD3
:1027C000FF1FE852F84F21E0808191818F3F9105F2
:1027D00009F00CF420E032228091E501880F880F87
:1027E000880F0E947609680E711C87FD7A94262D49
:1027F0007A8E698EFAEFFF1A4E2DFC8EEB8E32E048
:10280000B31A6A2DBE8EAD8E3A8D5C8D7E8DCE0153
:1028100001960E94190A782EE82FF0E0EE0FFF1FB4
:10282000E852F84F808191818F3F910509F00CF4B7
:102830006BC0332009F468C082E0682E650C442424
:102840004394450C49A1A42EB12C76018401940136
:10285000462D642D852D0E94A809F501EE0FFF1F5E
:10286000EA55F94F91838083F501EE0FFF1FEE0FBC
:10287000FF1FEE53FC4F50824182628244E0242EBF
:10288000238253E0352E350CA9A0A394B12C8601E8
:102890009401432D662D842D0E94A809F501EE0FA9
:1028A000FF1FEA55F94F91838083F501EE0FFF1F5B
:1028B000EE0FFF1FEE53FC4F408261823282238273
:1028C000E5E09E2E950C520CA9A0A394A394B12CE4
:1028D0009601492D652D832D0E94A809F501EE0F63
:1028E000FF1FEA55F94F91838083F501EE0FFF1F1B
:1028F000EE0FFF1FEE53FC4F60825182928283E005
:10290000838359A15D5F59A3D72C10E08091960372
:102910001817B8F5E12FEE0FA1E0AE0FB0E0A2520C
:10292000BA4F8C91A12FB0E0A659BA4F6C91F0E04C
:10293000E252FA4F408190E44902A0011124242F71
:102940005C8B4B8BA0E46A02B0011124462F7E8B76
:102950006D8BB0E48B02C0011124682F988F8F8B90
:102960000D2D3C895E89788DCE0101960E94190A51
:10297000D82E1F5FCBCF1CA619A2512C78CE19A23E
:1029800076CE87E993E0E9A1EDA730E070E020E0A2
:1029900013E0DC014D91CD01740F319FF001112442
:1029A000E255F94F371708F043C06081670D518138
:1029B000570D4281470DA62FB0E0AA0FBB1FA652AC
:1029C000B84F0D90BC91A02DAF3FB10509F0D4F4E4
:1029D000A52FB0E0AA0FBB1FA652B84F0D90BC9117
:1029E000A02DAF3FB10509F06CF4A42FB0E0AA0F01
:1029F000BB1FA652B84F0D90BC91A02DAF3FB105A3
:102A0000A1F09CF0FDA404E0F09ED0011124AE538F
:102A1000BC4F6C9311965C93119712964C9312973E
:102A200013962C930F2D0F5F0DA73F5F3396BACFF0
:102A30002F5F253009F0ADCF29A1822F90E09C01B6
:102A4000220F331F220F331FA9014E535C4F58A38F
:102A50004F8F880F991FDC01AA55B94FBEABADABA4
:102A6000BDA5BBA7E72DF0E0FAABE9ABFDA5F9A04A
:102A7000FF1608F46BC08DEEA82E81E0B82E9AEDFB
:102A8000892E97E0992EC12C612C77247394DC1445
:102A900009F4ABC2F50100811181E280F380D40119
:102AA0008D919D914D018F3F910509F00CF43DC032
:102AB00087DB9C01D8010E94272E1B012C01D70126
:102AC0000E94272E2114B8E73B064104B4EC5B06B4
:102AD0000CF472C22114E8E83E06EFEF4E06EBE379
:102AE0005E060CF070C26115F8E77F078105F4EC13
:102AF0009F070CF470C2611508E870070FEF80079C
:102B00000BE390070CF06CC2920181015FE03695F7
:102B10002795179507955A95D1F7EFE096958795E4
:102B200077956795EA95D1F77B011E5FD5011196E0
:102B30001C930E93C3018E199F0913969C938E9339
:102B40001297C394B4E0AB0EB11CA1CFAF8DB8A166
:102B5000BC91B9A7EF8DF8A1F181FAA7AF8DB8A10B
:102B60001296CC9012971396BC91BEA7F9A4EF2DA4
:102B7000F0E0EE0FFF1FE652F84F208131813CA3B9
:102B80002BA33AA5E32FF0E0EE0FFF1FE652F84F1C
:102B9000408151815EA34DA36C2C712CF301EE0F8B
:102BA000FF1FE652F84FA080B180552453948BA1AB
:102BB0009CA18F3F910511F00CF0512CADA1BEA14D
:102BC000AF3FB10509F014F4689451F8BFEFAB16AC
:102BD000B10409F014F4689452F8F30129A93AA950
:102BE000E21BF30BE659FA4F808130E48302700157
:102BF00011244AA5842E912CF40189A99AA9E81BD5
:102C0000F90BE659FA4F008190E409028001112482
:102C1000A9A52A2E312CF10129A93AA9E21BF30B0F
:102C2000E659FA4F208140E42402900111244C2DF2
:102C30006AA58A2F0E94A8099CAB8BABADA9BEA93F
:102C40008D939D93BEABADAB252D30E0C9010197AF
:102C500085219323892B09F4C5C0B2E6BD1508F47C
:102C60007DC0880C991C880C991CF401E351FE4F1F
:102C70004F01660C771C660C771C930123513E4F65
:102C800038A72FA33101660C771C660C771CA301B3
:102C900043515E4F3A01DA016D917D918D919C9186
:102CA00050FC65C02080318042805380EBA0FCA0A6
:102CB0008B019C014DA15EA1C201B101FEDA1B0195
:102CC0002C01F3010081118122813381AFA1B8A5CC
:102CD0006D917D918D919C91EBA0FCA0A501EDDA09
:102CE0002D2D30E0F901EE0FFF1FEE0FFF1FE35116
:102CF000FE4F2082318242825382220F331FF9011C
:102D0000E652F84F20E031E03183208321E02D0DA1
:102D1000422F50E0FA01EE0FFF1FEE0FFF1FE351AD
:102D2000FE4F6083718382839383CA01880F991F4A
:102D3000FC01E652F84F40E051E051834083E9A5A1
:102D4000AF8DB8A1EC9311962C9311971296DC924B
:102D50001297FEA51396FC93D394D39499A19F5FE9
:102D600099A3AF8DB8A11496B8A3AF8F7FCE51FCB5
:102D70001DC00081118122813381EDA0FEA04BA1F5
:102D80005CA19BDA1B012C01D4010D911D912D91A9
:102D90003C91EFA1F8A56081718182819381EDA0C2
:102DA000FEA0A5018ADAFAA5F9A79ACFAFA1B8A526
:102DB0000D911D912D913C9175014BA15CA17DDA86
:102DC0001B012C01EFA1F8A5008111812281338123
:102DD000D4016D917D918D919C914DA15EA16DDA93
:102DE000C9A67ECF552009F4B9CF62E6F62EFD14B0
:102DF00008F4B4CF0BA5043608F0B0CF880C991CAA
:102E0000880C991C940123513E4F38A72FA3660CC0
:102E1000771C660C771CA30143515E4F58AB4FA73C
:102E20004101880C991C880C991CC40183519E4F48
:102E30004C0150FE77C0D9010D911D912D913C910F
:102E4000FC016081718182819381EDA0FEA04BA184
:102E50005CA133DA2B013C01AFA5B8A90D911D91FE
:102E60002D913C91F4016081718182819381750182
:102E70004BA15CA122DA2D2D30E0F901EE0FFF1FEE
:102E8000EE0FFF1FE351FE4F408251826282738238
:102E9000220F331FF901E652F84F20E031E0318371
:102EA000208321E02D0D422F50E0FA01EE0FFF1F8D
:102EB000EE0FFF1FE351FE4F608371838283938384
:102EC000CA01880F991FFC01E652F84F40E051E01B
:102ED00051834083AF8DB8A1DC92EAA51196EC93A3
:102EE00011971296CC921297FEA51396FC93FBA411
:102EF000EF2DF0E0DF01AA0FBB1FAA55B94F4BA978
:102F00005CA94D935C93EE0FFF1FEE0FFF1FEE5376
:102F1000FC4FD082C18222835EA553838F2D8F5FA9
:102F20008BA71ACFAFA5B8A96D917D918D919C917A
:102F300051FE23C0EFA1F8A54080518062807380CC
:102F400075018B019C014DA15EA1C301B201B5D9F0
:102F50002B013C01D4010D911D912D913C91EFA1CC
:102F6000F8A56081718182819381EBA0FCA04DA1C5
:102F70005EA1A3D9CAA6C9A47ECFD4010D911D918B
:102F80002D913C91EBA0FCA0A50197D92B013C0110
:102F9000EFA1F8A50081118122813381AFA5B8A9E5
:102FA0006D917D918D919C91EDA0FEA0A50185D99B
:102FB000CAA4B9A5BAA75FCF212CA8E73A2E412C05
:102FC000A4EC5A2E90CD212CF8E83F2E44244A94AC
:102FD000FBE35F2E88CD60E078E780E094EC94CD51
:102FE00060E078E88FEF9BE38FCD0E94900C82E841
:102FF00091E021E0EBA52E1750F5DC013D91CD01CC
:10300000E32FF0E0EE0FFF1FEA55F94F6081718169
:10301000E22F4E2F50E04F575E4FDA011197FC918F
:10302000AF2FB0E0AA0FBB1FAA55B94F0D90BC91AE
:10303000A02DA617B70730F0F0E0EF57FE4F308312
:103040002F5FD8CFDA01FC93E15019F7F5CF0E943A
:10305000FA0931E8832E31E0932ED12CB12CA12C2A
:10306000BBA5BD1509F44DC0D401ED914D01B4E0EF
:10307000EB9FF0011124EE53FC4FC380FF24FA9420
:10308000CF101CC00CA50023B9F0A090F101B090A6
:10309000F2018091ED019091EE01A81AB90A6091B8
:1030A000ED017091EE018091EF019091F0012FEF11
:1030B0003FEFA5010E942D0FD394D2CFA28124E02F
:1030C000A29FD0011124A351BE4FED90FD900D9110
:1030D0001C91A18134E0A39FD0011124A351BE4FC4
:1030E0002D913D914D915C91E08184E0E89FF0014C
:1030F0001124E351FE4F6081718182819381FCD85C
:10310000DBCF9CA5992309F49AC085010C5F1F4F62
:10311000E090ED01F090EE0188279927801B910B3C
:10312000E816F9060CF48BC0C090EF01D090F001C6
:10313000C816D9060CF483C0A4E0AA0EBA1EAE14B9
:10314000BF0408F47CC0AC14BD0408F478C0F59446
:10315000E794F594E794F594E794D594C794D594BF
:10316000C794D594C79483E0169507958A95E1F79F
:1031700028EF20031001219F300C1124B8E02B0E02
:10318000311CC801880F991F880F991F25E030E076
:103190004901881A990AECE0F0E0FAA3E9A3B12CFE
:1031A000A12C3601601A710AB301FA2DFE0DFF8FB2
:1031B0008F2F0E94C50D2601400E511EB2018F8D2A
:1031C0000E94C50DB3017E2C7A18872D0E94C50D73
:1031D000B201872D0E94C50D36016A187B08B30124
:1031E000202F2E0D2F8F822F0E94C50D25014C0CF4
:1031F0005D1CB2018F8D0E94C50DB3017E2C701A2B
:10320000872D0E94C50DB201872D0E94C50D97FC28
:1032100007C0820C931C38E0230E311C01501109A9
:1032200049A15AA1840E951E485F5F4F5AA349A336
:103230005FEFA51AB50A0A151B050CF0B2CF8BA5D6
:10324000E696E2E10C94492EFF920F931F93CF93E1
:10325000DF938091A4039091A5032091E601309122
:10326000E701821B930B0091A8031091A903209101
:10327000EA013091EB01021B130BF12C17FF05C083
:10328000119501951109FF24F39497FF05C06894E7
:10329000F1F8919581959109801791073CF4689414
:1032A000F2F8302F212F8C01832F922F8F3F910521
:1032B00011F00CF04EC0FC01EE0FFF1FEA5FFE4F55
:1032C00025913491D8010E94272EDC01CB0153E0D7
:1032D000B695A795979587955A95D1F7182FC92F29
:1032E00040E0D42FFE01EE0FFF1FE455FF4F859104
:1032F0009491FE01EE0FFF1FE255FF4FC591D4914F
:1033000060E071E0611B71090E94C40AD19F9001C5
:10331000C19F210D1124311D820F931FF2FE06C0A3
:1033200020E030E4A901481B590BCA01F1FE06C098
:1033300020E030E8A901481B590BCA01F0FE03C088
:10334000919581959109905CCDB7DEB7E5E00C943D
:10335000562E0E94E0109C01D8010E94272EDC010D
:10336000CB013BE0B695A795979587953A95D1F710
:10337000B5CFB0E0A0E0EFEBF9E10C94382E7C0182
:103380008B01D22EFC0180819181461B570B57FF88
:1033900002C04D5F5F4F5595479555954795EA019A
:1033A000C81BD90B6D2D0E94EB0A080F191F6D2D3C
:1033B000CE010E94EB0AF70120813181820F931F19
:1033C00091838083C801CDB7DEB7E7E00C94542E1B
:1033D000AF92BF92CF92DF92EF920F931F93CF9352
:1033E000DF9300D000D000D0CDB7DEB749835A8339
:1033F0006B837C838D839E83590149815A8182E648
:10340000C82E85E0D82EF6016081718120E488E520
:1034100095E0AFDFF601918380834B815C8162810F
:10342000738120E48AE595E0A4DFF601938382832B
:103430004D815E816481758120E48CE595E099DFA2
:10344000F6019583848360915605709157052E2D62
:10345000A5018EE595E08DDF909357058093560585
:1034600060915405709155052E2DA80180E695E0D8
:1034700080DF909355058093540526960FB6F894F7
:10348000DEBF0FBECDBFDF91CF911F910F91EF90A7
:10349000DF90CF90BF90AF9008950F931F93CF937D
:1034A0006091EC0180E4689FB0011124072E000CAC
:1034B000880B0E940D0760E470E08DEE91E00E94A1
:1034C000F5060E946908ADEEB1E0E3E9F7E0C0E07F
:1034D0009D9184919813C1E0319681E0A53FB80792
:1034E000B9F700912B0210912C020E948509081750
:1034F000190711F4CC2391F046E350E06FEF70E030
:1035000085EF91E00E946A2E10921A021092190221
:103510000E94850990932C0280932B02CF911F91DA
:103520000F9108951F93CF93DF93162F862F807AE4
:1035300031F08091EC01811181500E94360D812F74
:10354000807531F08091EC0181118F5F0E94360D02
:10355000A4DFA5EFB1E0E6E5F1E08D91843608F057
:1035600080E0819361E0E836F607B9F70E94FA0936
:103570004CE069E084E00E944B1030E020E0AAE6D5
:10358000B5E0F901E651F74F90E0EF01C058D109DD
:10359000888186958695408160E4469FA00111242C
:1035A000842B81939F5F903881F720583109211532
:1035B0008EEF380721F7EAE6F7E080E09C9190640F
:1035C0009D939081907891938F5F8038B9F74CE00C
:1035D00060E081E00E944B100E941E0D0E941807BF
:1035E00063ED70E08DEE91E00E94F50680E092E0E0
:1035F0000E94AC0DC82FD0E0D595C79540E052E0B1
:1036000060E080E48C1B0E941B104BE760E088E3C5
:103610008C1B0E94D60F4DE760E08C2F8A5B0E94C6
:10362000D60F12FD0E94420DDF91CF911F91089598
:10363000B0E0A0E0EEE1FBE10C94382E0E9498127D
:10364000F0907F0186E0F81639F0809153018A32BC
:1036500018F48D5F809353018FEF8F0D823070F0DF
:1036600080912E01803218F48F5F80932E0180911B
:103670002D01803218F48F5F80932D01C09153018A
:103680004C2F419580917B01E12C0AE2882309F4BB
:1036900070C024E060E088EE93E00E94F30B44E207
:1036A0004C1BEE24E39403E021E06091520185EE8F
:1036B00093E00E94F30BC0912E01DC2ED194E12CFB
:1036C0000CE123E04D2D65E08BE097E00E94F30BC9
:1036D00012E11C1BC091AB03412F65E081E08C0F10
:1036E0000E94720CD0E0FE01E859FE4F412F66E0C7
:1036F00081810E94720C81E0F81240C00BE021E051
:103700004D2D67E080E097E00E94F30BC6DEC351C9
:10371000DE4F8A8D412F67E08436B0F1C0912D01D4
:10372000C530B8F586E08C1BEC2FF0E0EC51FA4F79
:103730009F013C5FDF0190E01D929F5F8913FCCFEA
:103740009FEF9183E058FF4FE217F30799F70DE7DA
:103750000C0F80912F018695D0E4D81BD034C8F48B
:10376000102F17FD14C06D2F812F0E9436101F5F80
:10377000F8CF23E060E082E194E08FCFCA5ADE4FB9
:103780008881412F67E08F5F0E94720CC7CFDF5F97
:10379000E5CF44E64C0FE12C08E121E067E08DEC39
:1037A00093E00E94F30BCDB7DEB7E7E00C94542E04
:1037B000AF92BF92CF92DF92EF920F931F93CF936E
:1037C000DF93C82FD62FA0904801B0904901C09038
:1037D0007D01D0907E0180E4E82E85019601409124
:1037E0004C0150914D0160914E0170914F018091BB
:1037F000500190915101ECDDC601905C0E94F30AEA
:10380000192FC6010E94F30A8C2F8C70883009F0A2
:10381000ACC0C7FF05C0BA94B0924901A09248015C
:10382000C4FF09C0809148019091490193959093FC
:10383000490180934801C5FF05C0DA94D0927E010A
:10384000C0927D01C6FF09C080917D0190917E01EB
:10385000939590937E0180937D0180914801909192
:103860004901811528EC92070CF479C0811528E3F1
:1038700092070CF077C090934901809348018091A2
:103880004C0190914D0181152EEC92070CF4EAC089
:10389000811522E392070CF0E8C090934D018093CC
:1038A0004C0180914E0190914F0181152EEC9207B1
:1038B0000CF4DEC0811522E392070CF0DCC090937B
:1038C0004F0180934E0180915001909151018115DB
:1038D0002EEC92070CF4D2C0811522E392070CF073
:1038E000D0C09093510180935001809146018F3F49
:1038F00019F08F5F80934601D2FF0AC08091460184
:10390000843108F0C1C082E080937F0110927C0175
:10391000D3FFBDC0109247018BDE9091470180918B
:103920004601963908F0BCC0981708F0BCC040E0CA
:1039300050E060E090E080E00E9423074EE650E017
:1039400060E08EE590E00E942307DF91CF911F9108
:103950000F91EF90DF90CF90BF90AF90089580E0EF
:1039600098EC89CF80E098E386CF8430C9F4C7FF14
:103970000AC080914E0190914F0180589F4F9093C3
:103980004F0180934E01C4FF7ACF80914E019091F8
:103990004F018058910990934F0180934E016FCF52
:1039A00081116DCF212F312F330F330B892F990FB9
:1039B000990BC7FF14C04091500150915101609183
:1039C0004C0170914D01680F791F70934D01609308
:1039D0004C01421B530B5093510140935001C4FFC3
:1039E00014C0409150015091510160914C0170916F
:1039F0004D01681B790B70934D0160934C01420F90
:103A0000531F5093510140935001C5FF14C0409182
:103A100050015091510160914C0170914D01621B18
:103A2000730B70934D0160934C01481B590B5093DD
:103A3000510140935001C6FF22CF60915001709117
:103A4000510140914C0150914D01240F351F30938D
:103A50004D0120934C01860F971F90935101809345
:103A600050010DCF80E09EEC18CF80E092E315CF9F
:103A700080E09EEC24CF80E092E321CF80E09EECBA
:103A800030CF80E092E32DCF1092460141CF80915C
:103A900047018F3F09F440CF8F5F809347013CCFB0
:103AA000863908F052CF4CE351E060E090E080E0CE
:103AB0000E94230748EF51E060E084E690E043CFA6
:103AC000EF92FF920F931F93CF93DF93EC01E62EBB
:103AD000142F842F0E947609082F80E4810F0E9402
:103AE0007609182F8E2D0E947609F82E80E48E0D0F
:103AF0000E94760988834F2D840390011124398315
:103B00009403900111243A831B821C83902F91957A
:103B10009D83F194FE82482F8403900111243F83FA
:103B20009403C00111249887CDB7DEB7E6E00C946A
:103B3000552EABE1B0E0EFE9FDE10C94312E4E8B58
:103B40005F8B688F798F8A8F9B8F59016E887F88F2
:103B5000C88CD98C8A8C9B8C412F41956B2D61959B
:103B6000CE010196ADDF1B861A861D861C866E2D42
:103B700020E03B8540E05D857F2DCE0101960E94CF
:103B80009B0B288B398B4A8B5B8B6C8B7D8B68896D
:103B90007989660D771D2A893B892C0D3D1D8C89FD
:103BA0009D89880D991D462F7A836983622F3C83F6
:103BB0002B839E838D8390E4E92E95015A817C812D
:103BC0009E8106DC6B96EEE00C944D2E8F929F92B8
:103BD000AF92BF92DF92EF92FF920F931F93CF931A
:103BE000DF9300D000D000D0CDB7DEB7D62E0E9434
:103BF000EC0C20917D0130917E011A82198280E0C7
:103C0000682F8B8384EF8C831E821D82E12C48E217
:103C1000F42E00E717E140E05A8174EF80E09E81C6
:103C200088DF80917D0190917E01939590937E0134
:103C300080937D010E949812E12C0CE123E040E08A
:103C400061E08BE097E00E94F30B0BE021E040E0A5
:103C500063E080E097E00E94F30B0091AB0342E148
:103C600061E081E0800F0E94720C10E0F801E859D9
:103C7000FE4F42E162E081810E94720C0EDC9801ED
:103C800023513E4F5901F901828D843620F442E1DF
:103C900063E00E94720CF0907B01FF2049F0E12C60
:103CA00001E121E04AE163E08FEE96E00E94F30B30
:103CB000F4DBF501028D0436F0F410924E078EEF1E
:103CC00080934F07E0E5F7E086E692E091938F5FFF
:103CD0008038D9F799EEA92E96E0B92E17E6F501AE
:103CE0004491FFEFAF1ABF0A411146C049E763E0B4
:103CF000802F0E94720CEAE6F7E08AEE97E022E05D
:103D000021938E179F07D9F7EAEEF7E0119229E089
:103D1000EA36F207D9F70E941E0D0E94180763EDDC
:103D200070E08DEE91E00E94F50640E052E064E222
:103D300080E00E941B1080E292E00E94AC0D40E205
:103D400052E064E290E8981B892F0E941B1000E06B
:103D500018E08FE2B82EA02E912CEA2DF0E0E05C66
:103D6000FD4FE08030E23E1594F48E2D0E94910DBF
:103D70008F5F980EA394F1CF403211F41D5FAFCF47
:103D80006BE1812F0E94D60F1F5F180FA8CFE12F84
:103D9000E90DFF27FF1FE138F10534F0F6E0BF0E13
:103DA0002BE32B15C0F018E0802F90E0FC01E05CC5
:103DB000FD4F4F01802F0F5F8A1550F4F4014191A0
:103DC0004F016B2D812F0E94D60F8F5F180FF2CFFE
:103DD0001E5FE110C0CFE12C05E022E040E066E08C
:103DE0008FED96E00E94F30BD7FE06C08091EC01A8
:103DF000811181500E94360DD4FE06C08091EC01E5
:103E000081118F5F0E94360DFF2099F1D5FE09C008
:103E10008091AB03811102C0809168018150809331
:103E2000AB03D6FC2BC038C080E032C0D3FE16C036
:103E300080917B01882371F082E080937F018093E1
:103E40007B0110927C016EE170E08CE291E00E94B7
:103E5000D3063CC080E00E94040DF5CFD2FE36C0F0
:103E60006EE170E088EC90E00E94D3060E94420D63
:103E70002DC08091E5018F738F33B9F48091AB032E
:103E8000209168012150330B8217130669F28F5F6E
:103E90008093AB03FF2049F08D2D807631F06EE1E9
:103EA00070E084E690E00E94D3068D2D807931F099
:103EB0006EE170E086E990E00E94D30680917C017B
:103EC000883008F0B3CF8F5F80937C0126960FB6C1
:103ED000F894DEBF0FBECDBFDF91CF911F910F9140
:103EE000FF90EF90DF90BF90AF909F908F900895DC
:103EF000A6E0B0E0EEE7FFE10C94372ED62E86E088
:103F0000E4EAF3E0DE01119601900D928A95E1F763
:103F100020914A0130914B01E12CB4E1FB2E00E7E6
:103F200017E149815A816B817C818D819E8101DEFF
:103F300080914A0190914B01939590934B0180930E
:103F40004A011091E5011F3F11F0D2FE05C085E046
:103F500080937F0110927C016BDBE091AB03F0E07A
:103F6000EA5AFE4F8081813009F04FC01F70173030
:103F700008F017E0E12FF0E0EE0FFF1FEF54F94FCC
:103F800045915491E7EEF5E08491ECE4F6E0E4919C
:103F90003E2F282F08EF17E0A8E7B8E070E060E0B8
:103FA000F12CE12CFB01E851FA4F8491FB01E35B1A
:103FB000F94FE491DE2EC82EC601822B932B8E2959
:103FC0009F297C01EE0CFF1C8E299F297C01F69411
:103FD000E7948E299F298095F801F0808F21F42E97
:103FE000F2228F2981938F01892F80959C918923BB
:103FF000932F9423892B8D935427452754276F5F44
:104000007F4F79016436710521F42696E8E00C941F
:10401000532E9601C7CFA6E0B0E0E1E1F0E20C94A8
:10402000382ED62E0E94EC0C20917D0130917E011D
:104030001A8219821C821B821E821D82E12C8CE155
:10404000F82E00E717E140E05A8160E07C8180E0D3
:104050009E816FDD80917D0190917E01939590937B
:104060007E0180937D0180912E01882319F081507B
:1040700080932E018091E5018F3F11F0D2FE05C0A3
:1040800082E080937F0110927C01D2DA2696E7E0ED
:104090000C94542EA6E0B0E0E0E5F0E20C94392E4A
:1040A00086E0E6EEF1E0DE01119601900D928A9530
:1040B000E1F7009154011091550120914A0130918E
:1040C0004B018091E8019091E9019E5F682F9C83EC
:1040D0008B83E12C86E0F82E49815A817C818D8189
:1040E0009E8127DD2696E6E00C94552ECF93DF9334
:1040F000C82FD62FCFDFC7FF0AC0809154019091FF
:104100005501805491099093550180935401C4FF47
:104110000AC08091540190915501805C9F4F90930B
:10412000550180935401809154019091550197FD60
:1041300011C0811520E2920784F490935501809379
:104140005401D2FF03C082E080937F0171DADF91D6
:10415000CF91089590E080E0F0CF80E090E2EDCF45
:10416000CF93C62F97DF20917B0192E0211193E03E
:1041700080915301882319F0835080935301C2FF2B
:1041800003C082E080937F01C7FF08C08091520185
:10419000882309F444C0815080935201C4FF07C0B2
:1041A000809152018917E9F18F5F80935201C3FF1B
:1041B00033C0C0915201222361F0C11109C0809126
:1041C000AB030E94040D82E080937F0110927C017A
:1041D000C150C11128C086E0E2E6F5E0ACE4B1E0F0
:1041E00001900D928A95E1F780914A0190914B01DF
:1041F00090937E0180937D018091540190915501AF
:104200009093490180934801109247018FEF80936A
:10421000460187E080937F010BDACF910895892FC3
:10422000BBCF80E0C2CFC13011F488E0F3CFC23001
:1042300099F70E94420DF0CFEF92FF920F931F93D8
:10424000CF93DF93C82FD62F25DF8091300190E0E8
:104250009C0136952795369527954C2F407609F485
:1042600058C00296820F931F8F3F910508F059C0E6
:1042700080933001C5FF0AC020914A0130914B0163
:10428000281B390B30934B0120934A01C6FF0AC00B
:1042900020914A0130914B01820F931F90934B0163
:1042A00080934A01C7FF05C080912F018E5F8093E4
:1042B0002F01C4FF05C080912F01825080932F01F0
:1042C000C0912F01C23080F5C2E0C0932F018091D0
:1042D0002E01882319F0815080932E0180912D01A9
:1042E000882319F0815080932D0180917C018830C2
:1042F000F8F48F5F80937C01D2FF05C086E0809345
:104300007F011092520194D9CDB7DEB7E6E00C944C
:10431000552E0197821B930B09F0A6CF81E090E008
:10432000A7CF8FEF90E0A4CFC7FFCFCFC0E8CDCF0E
:10433000D3FFE2CF00914A0110914B01C8010E94C6
:10434000F30A7C01C801905C0E94F30A8C0186E0AC
:10435000E6EEF1E0A0E4B1E001900D928A95E1F77C
:104360006C2FC7010E94EB0A90933B0180933A01A6
:104370006C2F88279927801B910B0E94EB0A909342
:104380003F0180933E0183E080937F0164E670E00B
:1043900084EB90E00E94D306AFCFAEE3B0E0E3ED54
:1043A000F1E20C942D2E24E029AB80913C019091F8
:1043B0003D01C09740913A0150913B01411530ECCD
:1043C00053070CF415C3411560E456070CF013C3F2
:1043D00050933B0140933A018115A0EC9A070CF4ED
:1043E0000DC38115B0E49B070CF00BC390933D0106
:1043F00080933C0120913E0130913F012115E0EC7A
:104400003E070CF401C32115F0E43F070CF0FFC296
:1044100030933F0120933E0140585F4F6091E60189
:104420007091E701650F711D57FD7A957093E70153
:104430006093E60180589F4F4091E8015091E90157
:10444000490F511D97FD5A955093E9014093E8019A
:1044500020583F4F8091EA019091EB01830F911D0D
:1044600037FD9A959093EB018093EA0120919D038B
:104470002EAF8AED97E099A788A71CA69EADACA5A4
:104480009A1709F4D8C2E8A5F9A58381C090E6017E
:10449000D090E701F0E48F02C018D1081124A8A53C
:1044A000B9A514968C91E090E801F090E901B0E490
:1044B0008B02E018F1081124E8A5F9A59581009177
:1044C000EA011091EB01F0E49F0200191109112497
:1044D000A8A5B9A516966C91169717964C916111DF
:1044E00002C04423C9F1CE010196EADA6981C6010E
:1044F0000E94B80A5C016C81C7010E94B80AA80E2C
:10450000B91E6F81C8010E94B80AA80EB91E6A813F
:10451000C6010E94B80A4C016D81C7010E94B80A09
:10452000880E991E6885C8010E94B80A880E991ED7
:104530006B81C6010E94B80A6C016E81C7010E949E
:10454000B80AC80ED91E6985C8010E94B80A86013A
:10455000080F191F74016501A8A5B9A5EC91B0E178
:10456000EB9FF0011124A8A5B9A511964C91B0E1DB
:104570004B9FA0011124A8A5B9A512966C90B0E19B
:104580006B9E30011124442455244E1A5F0ADF012A
:10459000AC0DBD1DC414D5044CF0812C912C5401DC
:1045A000EC15FD0544F4D601AE1BBF0B9D010E9426
:1045B000212E4B015C0122243324241A350ADA010E
:1045C000AE0DBF1DE214F30434F04E155F0554F434
:1045D000D701A41BB50B9D010E94212E860E971EAC
:1045E000A81EB91E22273327261937093BA72AA759
:1045F000D301A00FB11F0217130734F06016710624
:1046000054F4D801A619B7099D010E94212E860EE7
:10461000971EA81EB91E31E0831630E49306A1044C
:10462000B10408F0DBC13C2D2D2DC414D50414F4C5
:10463000342D252D832F922FE817F9070CF4CF0185
:10464000C81AD90ADBA2CAA23E2D2F2DE214F30408
:1046500014F4322D232D832F922F481759070CF471
:10466000CA01E81AF90AFDA2ECA2302F212FEAA50F
:10467000FBA50E171F0714F43AA52BA5832F922F25
:10468000681679060CF4C3019801281B390BC9017F
:104690003FA32EA34AA15BA16CA17DA19FA10E9473
:1046A000120B2AA33BA34CA35DA36EA37FA3A8A5D3
:1046B000B9A516968C9116978111ACC117968C915D
:1046C0008111A8C12AA03BA04CA05DA00EA11FA1F2
:1046D000A0903C01B0903D01C0903E01D0903F01C0
:1046E000B10180913A0190913B010E94D10A7C0175
:1046F000B201C5010E94D10AE80EF91EB801C60137
:104700000E94D10AE80EF91E1E141F040CF466C1A3
:10471000E114BCEFFB0634F462E370E088E790E05C
:104720000E94D306E0913A01F0913B01FBA7EAA772
:10473000B101C7010E94D10AAAA4BBA4A81AB90A50
:1047400020913C0130913D013EA72DA7B201C70148
:104750000E94D10ACDA4DEA4C81AD90A80913E01D4
:1047600090913F0198AB8FA7B801C7010E94D10A71
:104770004A2DBD8EAC8E6C2DDF8ECE8EAFA5B8A926
:10478000A81BB90BCD01B9A3A8A35D8D7F8D99A1FD
:104790000E94120B2C8F3D8F4E8F5F8F68A379A3E1
:1047A000EC8DFD8DF9AFE8AF2E8D3F8D3BAF2AAF7D
:1047B00088A199A19DAF8CAFA0913401B091350132
:1047C000BBABAAABE0913601F0913701FDABECAB8E
:1047D00020913801309139013FAB2EABB801CF01A8
:1047E0000E94D10A7C01B2018EA99FA90E94D10A20
:1047F000E81AF90AB1018EA99FA90E94D10A5C01A9
:10480000B8018AA99BA90E94D10AA81AB90AB201C3
:104810008AA99BA90E94D10A6C01B1018CA99DA90A
:104820000E94D10AF7FE03C03FEFE31AF30AF594A2
:10483000E794AAA5BBA5AE19BF097D01B7FE03C0C9
:10484000BFEFAB1ABB0AB594A7948DA49EA48A1897
:104850009B08C81AD90AD7FE03C0EFEFCE1ADE0AAA
:10486000D594C794AFA4B8A8AC18BD08B101C701CE
:104870000E94D10A6C01B201C4010E94D10AC80E83
:10488000D91EB801C5010E94D10AC80ED91E68AD53
:1048900079ADC7010E94D10A7C016AAD7BADC4012C
:1048A0000E94D10AE80EF91E6CAD7DADC5010E94D3
:1048B000D10AE80EF91EF194E194F10860EC882722
:1048C00099278C199D090E94EB0A3C016C187D0800
:1048D00065E5C7010E94EB0A6C01B101C3010E94AA
:1048E000D10A4C01B201C3010E94D10A5C01B80196
:1048F000C3010E94D10A7C0168AD79ADC6010E9456
:10490000D10A880E991E6AAD7BADC6010E94D10AFC
:10491000A80EB91E6CAD7DADC6010E94D10AE80E8D
:10492000F91E8AA59BA5880D991D90933B01809344
:104930003A018DA59EA58A0D9B1D90933D01809304
:104940003C018FA598A98E0D9F1D90933F018093E8
:104950003E01B801C5010E94D10A6C01B201C70134
:104960000E94D10AC81AD90AB101C7010E94D10A0E
:104970007C01B801C4010E94D10AE81AF90AB20107
:10498000C4010E94D10A8C01B101C5010E94D10A63
:10499000CC0CDD1CCC0CDD1C2AA93BA9C20ED31EFD
:1049A000D0923501C0923401EE0CFF1CEE0CFF1CBE
:1049B000ACA9BDA9EA0EFB1EF0923701E0923601C8
:1049C000081B190B000F111F000F111FEEA9FFA9E3
:1049D0000E0F1F1F1093390100933801FCA5FF5FD4
:1049E000FCA728A539A5285F3F4F39A728A746CDA2
:1049F00040E050ECEDCC40E050E4EACC80E090ECBC
:104A0000F5CC80E090E4F2CC20E030EC01CD20E069
:104A100030E4FECC2AA13BA14CA15DA16EA17FA1F7
:104A2000CE0101960E949B0B2AA33BA34CA35DA33E
:104A30006EA37FA347CE2091340130913501032E20
:104A4000000C440B6FEF70E080E00E94182EA82F3E
:104A5000CB0180589F4FAF4F892F9A2FAA27909351
:104A60003501809334012091360130913701032EB6
:104A7000000C440B6FEF70E080E00E94182EA82F0E
:104A8000CB0180589F4FAF4F892F9A2FAA27909321
:104A90003701809336012091380130913901032E7E
:104AA000000C440B6FEF70E080E00E94182EA82FDE
:104AB000CB0180589F4FAF4F892F9A2FAA279093F1
:104AC00039018093380139A9315039AB31116DCC9E
:104AD00080913E0190913F0197FF03C09195819590
:104AE000910920913C0130913D0137FF03C0319580
:104AF00021953109821793070CF4C90120913A01DD
:104B000030913B0137FF03C0319521953109821760
:104B100093070CF4C9018F3F910511F00CF073C09D
:104B2000809133018F5F809333010091AB0310E0DC
:104B300080913101909132010A5A1E4F883097407E
:104B400008F064C0809133018E3108F05FC0D80155
:104B5000FC908091E8019091E90181159C4E0CF048
:104B6000CDC086E0E0E4F1E0A6EEB1E001900D9268
:104B70008A95E1F786E0EAE3F1E0DF01282F1D9254
:104B80002A95E9F7E4E3F1E0DF011D928A95E9F760
:104B9000F394F394F801F08282E080937F01809196
:104BA00071008D7F8093710010928B038AEB99E0E6
:104BB00090938A038093890390938703809386035D
:104BC0008CE291E09093BB098093BA0984E690E06F
:104BD0009093BD098093BC0924EB30E03093BF096A
:104BE0002093BE099093C1098093C00928E730E063
:104BF0003093C3092093C2099093C5098093C409D7
:104C00000E942E061DC0109233018FCF10923201E8
:104C1000109231011092330186E0EAE3F1E0DF0106
:104C20001D928A95E9F70E94241990934B01809375
:104C30004A01F80180818F5F808382E080937F0149
:104C4000E091AB03F0E0EA5AFE4F8081833608F032
:104C500083E680830E9424196C0186E0E6EEF1E091
:104C6000DE01569601900D928A95E1F7AE88BF88D5
:104C7000E88CF98C0A8D1B8D40915505419560910A
:104C800057056195CE0101960E94601D1B861A860C
:104C90001D861C8680E0682F20E03B8540E05D8516
:104CA0007EE0CE0101960E949B0B288B398B4A8BAC
:104CB0005B8B6C8B7D8B688979896A0D7B1D2A895A
:104CC0003B892E0D3F1D8C899D89800F911F462F9A
:104CD0007A836983622F3C832B839E838D8390E14B
:104CE000E92E04E619E196015A817C819E810E9499
:104CF000E8190E94181BEE96E2E1CBC70E94B00CA7
:104D0000882309F49DCF8091560590915705F3941F
:104D1000D801FC9224E020937F0190934B01809373
:104D20004A011092E501809171008D7F809371009E
:104D300010928B038AEB99E090938A038093890306
:104D4000909387038093860384EB90E09093BB0954
:104D50008093BA0984E690E09093BD098093BC09E2
:104D60002CE231E03093BF092093BE099093C10932
:104D70008093C00980E090E89093C3098093C209B2
:104D80003FCFAAE0B0E0E6ECF6E267C7D62E28E017
:104D9000829F3001112420EF222E23E0322E412C5D
:104DA000512C230138EA832E33E0932EA12CB12C11
:104DB00053012FEF3FEF40E550E0C301B4010E94E3
:104DC0002D0F30E020E040E450E0C301B4010E9428
:104DD0002D0F38E4398781E08A879A85D91608F43F
:104DE00041C089850E94760918E4282FA103C001DB
:104DF0001124892F990F990B9C0128553C4F3A8318
:104E00002983898580540E947609382FB103C00117
:104E100011249301290F311D97FD3A953C832B8373
:104E200088EA882E83E0982E530189819A819E8397
:104E30008D8338872F8394E0C92EED80FE800F810B
:104E40001885A2019101C301B4010E947C1129803F
:104E50003A804B805C809A859F5F9A872985285F7E
:104E60002987BBCF2A96E2E114C76F927F928F9277
:104E7000CF92DF92EF92FF920F931F93CF93DF9326
:104E8000F82EC0917B01D0917C01C111D1C0D130ED
:104E900009F0CEC00E944D1A8091AB0390E0FC0156
:104EA000EA5AFE4F2081FC01E351FE4F328D231759
:104EB00078F5228F21E0E09068016E2D6150770B2C
:104EC0008617970709F0B2C08091190290911A02D3
:104ED000019690931A0280931902A6E5B1E055EF6E
:104EE000C52E51E0D52EB6018D0180E030E020E0E6
:104EF00050E040E0E81671F0F80191918F01490F00
:104F0000511DFB019191BF01290F311D8F5FF2CF20
:104F100020E0D1CF4217530790F490E0891731F089
:104F20002D91F60121936F019F5FF8CF82E1E6E5B5
:104F3000F1E0A5EFB1E001900D928A95E1F70E94B2
:104F4000850990932C0280932B02ADEEB1E0E3E94A
:104F5000F7E09D91849198136BC0319661E0A53F75
:104F6000B607B9F78091EC01D82ED694D694E82EE6
:104F7000E294EE0CEE0C30ECE32290E080E00E9434
:104F800098080E946908612C40E1742E812C10E081
:104F900000E0882DB3010E940D0760E071E082EC13
:104FA00093E00E94F5060E946908D0120BC0AE2D56
:104FB000B0E0AE53BC4F80E4EDEEF1E001900D9215
:104FC0008A95E1F7C8010E9476080E9469080F5F80
:104FD0001F4F7FEF771A870A00311105D1F680E164
:104FE00090E00E9498080E94690800E110E0C12C3E
:104FF000D12CE12C8E2DB6010E940D0760E071E0EE
:1050000082EC93E00E94F5060E946908C8010E94A4
:1050100076080E9469088FEFD81AE80A0F5F1F4FC1
:10502000C114E0E1DE06E10429F702C0211187CFB7
:105030000E94FA0940E060E080E00E944B1040E0EE
:1050400069E084E00E944B10D03130F4DF5FD093F0
:105050007C011092E50117C08F2D8C70D1F38091E7
:10506000E501803281F4C11141C0F2FC3FC0809162
:10507000AB03209168012150330B82171306B1F165
:105080008F5F0E94040D6091E501C0E0F3FC05C054
:10509000C091E501F2FEC0E060E080917B018111EA
:1050A0000CC085E16EDEEE24E3940FE021E04EE6D5
:1050B00062E081EC96E00E94F30B6C2F8DE261DEE2
:1050C000EE24E3940FE021E04EE665E080ED96E00B
:1050D0000E94F30BDF91CF911F910F91FF90EF9002
:1050E000DF90CF908F907F906F9008958C2F90E0FD
:1050F0009595879580937B010E94420DC4CFEF92D6
:10510000FF920F931F93CF93DF93C62F80917C0163
:105110008830E0F58F5F80937C01C07931F06EE1DB
:1051200070E084E690E00E94D3060E949812E12C81
:105130000DE422E042E361E08DE495E00E94F30B90
:105140000DE224E042E463E089E994E00E94F30B7D
:1051500080912C010FE6C1E4813031F00AE6C6E40B
:10516000823011F004E6CCE4DAE08D9FD02D1124DA
:1051700084E2F82EFD0E1CE11D0FF11608F44CC060
:10518000612F8C2F0E94C10F1F5FF7CF63FF22C0DA
:105190006EE170E08CE291E00E94D30680912C01D8
:1051A000823021F489E080937F01B7CF80937B0127
:1051B0001092E5018AE080937F01D0917D0382E027
:1051C00090E0C9D4D81709F4A8CF6D2F82E090E001
:1051D000CAD4A3CF62FF0AC080917D03882319F04F
:1051E0000E9456099ACF0E945B0997CF67FF0AC0B9
:1051F00080912C01882321F0815080932C018DCF48
:1052000082E0FBCF64FF89CF80912C01823011F0C6
:105210008F5FF3CF80E0F1CFCF5F0C1708F0ABCFFB
:1052200080917D0304E0811109E0E12C21E047E752
:1052300067E080E994E00E94F30BCDB7DEB7E6E0CB
:1052400034C51F920F920FB60F9211248F939F9324
:105250008091E1009091E100937F9093E10083FFC2
:105260000FC01092E90091E09093EB001092EC00D7
:1052700092E39093ED001092C10398E09093F000B8
:1052800082FF22C093E09093E9009091F20099236D
:1052900019F09AE39093E8009091B203992341F0BA
:1052A0009091B20391509093B203911101C05D9A15
:1052B0009091C003992341F09091C0039150909335
:1052C000C003911101C0289A84FF18C08091E200A8
:1052D0008E7E81608093E2008091E1008F7E8093DA
:1052E000E1008091B3038E7E80618093B3039F9130
:1052F0008F910F900FBE0F901F90189580FFF7CFE2
:105300008091E2008E7E80618093E2008091E100D6
:105310008E7E8093E1008091B3038E7E8160E5CF25
:105320001F920F920FB60F921124CF92DF92EF923D
:10533000FF920F931F932F933F934F935F936F931E
:105340007F938F939F93AF93BF93EF93FF93CF93ED
:10535000DF93CDB7DEB76C97DEBFCDBF1092E9000B
:105360008091E80083FF25C068E0CE0145960E9449
:105370000D0682EF8093E8008D8987FF39C09091F8
:10538000E80090FFFCCF982F907609F034C19E89F9
:105390004F89588D2F89F88C911131C0803861F573
:1053A0008091B1038093F1001092F1008EEF809311
:1053B000E8006C960FB6F894DEBF0FBECDBFDF914C
:1053C000CF91FF91EF91BF91AF919F918F917F917D
:1053D0006F915F914F913F912F911F910F91FF908E
:1053E000EF90DF90CF900F900FBE0F901F90189509
:1053F0009EEF9093E800C7CF1092F100D5CF913087
:1054000059F48111D3CF4130510581F68091B10318
:105410008D7F8093B103CACF933049F48111C6CFF9
:105420004130510519F68091B1038260F2CF953079
:1054300041F48091E80080FFFCCF20682093E300D6
:10544000B5CF963009F0A9C00B8D1C8D22E01092CB
:10545000E9001092AF031092AE03F2122EC0109228
:10546000AD031092AC030E94E1051F8299E099837D
:10547000FA8291E09E8390EA98879AEF998720912B
:10548000AE033091AF03275F3F4F3C832B838D8367
:105490001092E9001092AF031092AE031093AD0387
:1054A0000093AC0349E050E0BE016F5F7F4F80E0A6
:1054B0000E94C0050E94E10579CF1093AD030093CF
:1054C000AC030E94D404DC0112960D911C910115CD
:1054D000110509F451C1D801ED91FC910480F581C9
:1054E000E02DBE016B5E7F4FC8010995009709F062
:1054F0003EC1F80100851185EACFF3E0FF120EC02E
:105500008F89882309F440C0823061F440E867E065
:105510008FEC98E00E949305811148CF81E280933F
:10552000EB0047CF813029F440E86BE083EC98E052
:10553000F1CF833099F70E94D404DC011296ED90EC
:10554000FC908E010F5F1F4F6801E114F10479F0A8
:10555000D701ED91FC910680F781E02DB801C701DC
:105560000995080F111DF701E084F184EECFD801F1
:105570001C92F60101900020E9F73197BF016C19E8
:105580007D0940E0C601C6CF6DEA78E0FB01449199
:1055900050E080E80E94C00509CF973009F4BECFE3
:1055A000983021F481E08093F10000CF993009F028
:1055B000FDCE837009F0B2CFE3E1F1E081E031E0AC
:1055C00096E32191222371F08093E9003093EB0060
:1055D000DF0111972C912093EC009093ED008F5FE9
:1055E000873079F78EE78093EA001092EA008F897E
:1055F0008093C103DBCE8B8D9C8D1092E9001092BD
:10560000AF031092AE039093AD038093AC03898DEA
:10561000811192C08E899D89913A49F4813209F0B5
:105620007DCF47E050E064E071E080E0B3CF91329D
:1056300009F074CF833269F48F89988DB0E0A0E0CF
:105640008093000190930101A0930201B0930301A4
:10565000ADCE803269F48091E80082FFFCCF67E034
:1056600084E091E00E940D068BEF8093E8009ECECF
:10567000823209F09BCE8F8980930B01EEEFFFE71A
:10568000859194918B3F9C4D51F1E0E0F8E0809141
:10569000040190910501A0910601B0910701803BA2
:1056A0009440A105B105F1F480910B0180FD1AC071
:1056B000EE3F8AE0F80789F587E797E791838083D3
:1056C000809160008093B00388E19BE00FB6F8946E
:1056D000A895809360000FBE9093600067CEEEEFB8
:1056E000FAE0D5CF808191818737974709F05ECE68
:1056F000A895809160008861809360008091B003DC
:1057000080936000EE3F2AE0F20789F08091FE0A64
:105710009091FF0A9183808349CE80819181873760
:10572000980751F29093FF0A8093FE0AC5CF10921A
:10573000FF0A1092FE0A3ACE0E94D404DC011296AF
:105740000D911C910115110509F4E8CED801ED91D8
:10575000FC910190F081E02DBE016B5E7F4FC8018E
:105760000995811123CEF80100851185EBCF18161C
:1057700019060CF41BCED2CEF1E0FF12BECE61EBC7
:1057800078E004CF1F920F920FB60F9211242F933F
:105790003F934F935F936F937F938F939F93AF93B9
:1057A000BF93EF93FF9380918E0390918F03A0910D
:1057B0009003B09191030097A105B10539F12091B3
:1057C0008D03211105C0369A20918C032111379A3F
:1057D0000197A109B109B7FD08C080938E0390938A
:1057E0008F03A0939003B0939103FF91EF91BF912A
:1057F000AF919F918F917F916F915F914F913F9169
:105800002F910F900FBE0F901F9018950E942E069B
:10581000ECCF0F920FB68F939F93EF93FF938091EE
:105820007F038D5F8D3708F08D5780937F03E2E90A
:10583000F3E080818E4F808391819F4F918382819D
:105840008F4F828383818F4F8383E0E8F3E08081F1
:105850008F5F808381818F4F818382818F4F82838D
:1058600083818F4F83838FB18F6066991C9B8827BC
:105870008F3681F480917E03981B963068F0E0E0CB
:10588000F8E087E78083818388E180936000F0936C
:105890006000FFCF90937E03FF91EF919F918F91D6
:1058A0000FBE0F901895EAE6F9E01382128288EE97
:1058B00093E0A0E0B0E084839583A683B7838DE175
:1058C00091E0918380838FEF9FEF9587848786E9AE
:1058D00094E09093C9098093C80980E090E8909380
:1058E000C7098093C60946983E9A47983F9A0895FB
:1058F000789483E084BD83E085BD81E080936E0071
:10590000E1E8F0E083E08083E0E881E08083E1E9A2
:1059100083E08083E0E981E08083E1EC87E08083BD
:10592000E3EC81E08083E0EC82E08083E2EC81E0E4
:105930008083EAE787E08083806880831092C103D8
:105940001092B1031092B3038091D70081608093CD
:10595000D70080EA8093D80089B5806189BD89B578
:10596000826089BD09B400FEFDCF81E090E00E9415
:10597000AD088091D8008F7C80618093D8008091A1
:10598000E000807F8093E0008091E1008E7E809334
:10599000E1008DE08093E200559A209A81EC80939B
:1059A0007C0081EF85B987EE84B982E38BB982EF01
:1059B0008AB9769A6E9880EF81BB10BA80E58CBD6B
:1059C00081E08DBD0E94BF085F9A0E94BF085C986D
:1059D000EEE5F8E085918EBD00000DB407FEFDCF29
:1059E000EB36C1F75C9A81E88093640081E0809394
:1059F00065000E944E0987FF16C05C9885EA8EBD3F
:105A000000000DB407FEFDCF5C9A2E982F982D98BC
:105A10002E988091640080628093640081E083BF4F
:105A2000889513BEFCCF82E090E095D0882309F4DE
:105A300043C00E945B095E9AE4E1F0E084E99FEFD5
:105A400060EE7FEF2591359155914591285135496B
:105A500009F4CA01809368059093690525913591F1
:105A6000559145912851354909F4BA016093520581
:105A7000709353058BEA0E9472080E94740D8FB7D1
:105A8000F894C0909203D0909303E0909403F09028
:105A900095038FBFAA24A394B12C0AE615E0C0E0B9
:105AA000D4E08091600083FF0AC0F89487E7809378
:105AB000000880930108FFCF0E945609BCCF2FB782
:105AC000F8948091920390919303A0919403B091E4
:105AD00095032FBF8C19813230F4803281F3A3BE3D
