:100000000C9465030C948D030C948D030C948D0358
:100010000C948D030C948D030C948D030C948D0320
:100020000C948D030C948D030C943C080C94AB0839
:100030000C948D030C948D030C948D030C948D0300
:100040000C948D030C948D030C948D030C948D03F0
:100050000C948D030C948D030C948D030C94DD0A89
:100060000C948D030C948D030C948D030C948D03D0
:100070000C948D030C948D030C948D030C948D03C0
:100080000C948D030C948D030C948D030C948D03B0
:100090000C948D030C948D030C948D030C948D03A0
:1000A0000C948D030C948D030C948D030103070FA6
:1000B0001F3F7FFFFFFEFCF8F0E0C0800000000063
:1000C000003E5B4F5B3E3E6B4F6B3E1C3E7C3E1CDE
:1000D000183C7E3C181C577D571C1C5E7F5E1C0024
:1000E000183C1800FFE7C3E7FF0018241800FFE7DB
:1000F000DBE7FF30483A060E2629792926407F059E
:100100000507407F05253F5A3CE73C5A7F3E1C1CB3
:1001100008081C1C3E7F14227F22145F5F005F5F73
:1001200006097F017F006689956A6060606060945F
:10013000A2FFA29408047E040810207E2010080864
:100140002A1C08081C2A08081E101010100C1E0C6F
:100150001E0C30383E3830060E3E0E060000000001
:100160000000005F00000007000700147F147F14E8
:10017000242A7F2A1223130864623649562050002D
:1001800008070300001C2241000041221C002A1C19
:100190007F1C2A08083E0808008070300008080804
:1001A0000808000060600020100804023E51494524
:1001B0003E00427F400072494949462141494D3342
:1001C0001814127F1027454545393C4A49493141A9
:1001D000211109073649494936464949291E000077
:1001E00014000000403400000008142241141414CC
:1001F0001414004122140802015909063E415D59B8
:100200004E7C1211127C7F494949363E41414122C0
:100210007F4141413E7F494949417F090909013EEA
:10022000414151737F0808087F00417F4100204011
:10023000413F017F081422417F404040407F021C23
:10024000027F7F0408107F3E4141413E7F0909093A
:10025000063E4151215E7F09192946264949493206
:1002600003017F01033F4040403F1F2040201F3FCC
:100270004038403F63140814630304780403615951
:10028000494D43007F414141020408102000414193
:10029000417F04020102044040404040000307083F
:1002A0000020545478407F2844443838444444283B
:1002B000384444287F385454541800087E090218E2
:1002C000A4A49C787F0804047800447D400020406A
:1002D000403D007F1028440000417F40007C0478AE
:1002E00004787C080404783844444438FC182424F6
:1002F0001818242418FC7C08040408485454542476
:1003000004043F44243C4040207C1C2040201C3CF2
:100310004030403C44281028444C9090907C4464E9
:10032000544C44000836410000007700000041367C
:10033000080002010204023C2623263C1EA1A16102
:10034000123A4040207A3854545559215555794134
:100350002154547841215554784020545579400C0B
:100360001E527212395555555939545454593955EC
:100370005454580000457C410002457D420001452F
:100380007C40F0292429F0F0282528F07C5455459C
:10039000002054547C547C0A097F4932494949322F
:1003A0003248484832324A4848303A4141217A3A44
:1003B00042402078009DA0A07D39444444393D400E
:1003C00040403D3C24FF2424487E4943662B2FFCBB
:1003D0002F2BFF0929F620C0887E09032054547969
:1003E000410000447D413048484A32384040227A3A
:1003F000007A0A0A727D0D19317D2629292F2826B7
:100400002929292630484D402038080808080808BE
:100410000808382F10C8ACBA2F102834FA00007B17
:10042000000008142A142222142A1408950022001D
:1004300095AA005500AAAA55AA55AA000000FF00D7
:10044000101010FF00141414FF001010FF00FF1014
:1004500010F010F0141414FC001414F700FF000046
:10046000FF00FF1414F404FC141417101F10101FC5
:10047000101F1414141F00101010F0000000001FB3
:10048000101010101F10101010F010000000FF10BE
:100490001010101010101010FF10000000FF1400BA
:1004A00000FF00FF00001F10170000FC04F41414EC
:1004B0001710171414F404F40000FF00F7141414B8
:1004C00014141414F700F7141414171410101F1038
:1004D0001F141414F4141010F010F000001F101F5B
:1004E0000000001F14000000FC140000F010F010C9
:1004F00010FF10FF141414FF141010101F00000040
:1005000000F010FFFFFFFFFFF0F0F0F0F0FFFFFF43
:100510000000000000FFFF0F0F0F0F0F384444389A
:10052000447C2A2A3E147E02020606027E027E02D5
:1005300063554941633844443C04407E201E2006F4
:10054000027E020299A5E7A5991C2A492A1C4C7231
:1005500001724C304A4D4D303048784830BC625AB8
:10056000463D3E494949007E0101017E2A2A2A2A48
:100570002A44445F444440514A444040444A514024
:100580000000FF0103E080FF000008086B6B0836E5
:1005900012362436060F090F060000181800000056
:1005A0001010003040FF0101001F01011E00191D45
:1005B0001712003C3C3C3C0000000000D5F08D14BC
:1005C000A1C881CFD9F1AF2000000306090C0F129A
:1005D00015181B1E2225272A2D303336393C3E4163
:1005E0004446494B4E505355575A5C5E60626466B0
:1005F000686A6B6D6E70717374757678797A7A7BD0
:100600007C7D7D7E7E7E7F7F7F7F000000AA55AA55
:1006100055FFFFFF01020001030602030704060164
:10062000050004030600020203050702010302019C
:100630000307060307050401050100030604000281
:1006400003010502FFFF01FF0101FFFFFFFF01FFA3
:1006500001FF0101010101FFFF0101FF080B000281
:10066000020200000904000001020200000524004B
:1006700010010524010101042402060524060001DD
:100680000705810310004009040100020A00000070
:100690000705020240000007058302400000040332
:1006A000090412010002EF020140412336800001DB
:1006B0000102030141726475696E6F204C4C430066
:1006C00041726475626F7900270B11241FBECFEF52
:1006D000DAE0DEBFCDBF11E0A0E0B1E0E2EDFEE187
:1006E00002C005900D92A233B107D9F726E0A2E32C
:1006F000B1E001C01D92A837B207E1F713E0C5E6EB
:10070000D3E004C02197FE010E94610FC436D107D7
:10071000C9F70E944A0B0C94670F0C940000FC016F
:1007200080912102882311F13FB7F89482E08093F1
:10073000E9002091F200822F90E01816190614F4B7
:1007400081E090E0882339F0289844E64093200225
:100750004091F1004083222339F02091F2002111D1
:1007600003C02BE62093E8003FBF08958FEF9FEF73
:1007700008952FB7F89483E08093E9009091E80002
:10078000892F807295FF04C09091F20080E4891B4C
:100790002FBF08958091180281110DC082E08093CF
:1007A000140284E080931502109217021092160230
:1007B00081E08093180284E192E00895CF93DF9363
:1007C0001F92CDB7DEB76983DC01ED91FC91028009
:1007D000F381E02D41E050E0BE016F5F7F4F09954E
:1007E0000F90DF91CF91089583E08093E90080918D
:1007F000F200882319F08AE38093E80008950E94AC
:10080000B90390E00895CF93DF931F92CDB7DEB781
:10081000FC018485958597FD08C02FEF3FEF358754
:1008200024870F90DF91CF910895CE0101960E9409
:100830008F03019719F4898190E0F3CF8FEF9FEF39
:10084000F0CF0F931F93CF93DF931F92CDB7DEB7F7
:100850008C01FC018485958597FF0BC0CE01019624
:100860000E948F03019771F4898190E0F8019587C8
:100870008487F801848595850F90DF91CF911F9132
:100880000F9108958FEF9FEFF1CFFC01848595853F
:1008900097FD0BC09FB7F89482E08093E9008091A8
:1008A000F2009FBF90E0019608959FB7F89482E010
:1008B0008093E9008091F2009FBF90E008954091FD
:1008C0000E0250910F0220910C0230910D0242173E
:1008D0005307B4F49091E8009570E1F39091E8002B
:1008E00092FD19C08093F10080910E0290910F0249
:1008F00001968F739927892B19F48EEF8093E80066
:1009000080910E0290910F02019690930F028093B6
:100910000E0281E0089580E00895EF92FF920F9318
:100920001F93CF93DF93F82E192FE62E042F81E02B
:10093000860F880F0E945F0483E00E945F04CF2D22
:10094000D12FEC0EFD2EF11CCE15DF05B9F007FFFF
:1009500013C0FE0184910E945F04182F80E00E9462
:100960005F04812321968111EFCFDF91CF911F91F9
:100970000F91FF90EF9008958881EDCF81E0F5CF42
:10098000DF92EF92FF920F931F93CF93DF93D82EB6
:100990008A01EB017B01E40EF51ECE15DF0559F04F
:1009A000D7FE12C0FE0184910E945F04219681113E
:1009B000F4CF0FEF1FEFC801DF91CF911F910F917F
:1009C000FF90EF90DF9008958881EECF0F931F93F3
:1009D000CF93DF931F92CDB7DEB782E0898342E4E5
:1009E00050E06CE576E080E80E94C0040E94CA03F3
:1009F000DC0112960D911C910115110589F0D801A9
:100A0000ED91FC910280F381E02DBE016F5F7F4F7D
:100A1000C801099597FD04C0F80100851185ECCF48
:100A200089810F90DF91CF911F910F9108956150AF
:100A300030F02091F100FC0120830196F8CF289836
:100A400084E6809320020895E82FEF7386FF03C0A9
:100A500090E49E1BE92FF0E0E753FA4FE49187FD05
:100A6000E1958E2F0895AF92BF92CF92DF92EF92D1
:100A7000FF920F931F93CF93DF936C017B018B0148
:100A8000040F151FEB015E01AE18BF08C017D10798
:100A900059F06991D601ED91FC910190F081E02D22
:100AA000C6010995892B79F7C501DF91CF911F9177
:100AB0000F91FF90EF90DF90CF90BF90AF9008958F
:100AC0003FB7F8948091330190913401A0913501A2
:100AD000B091360126B5A89B05C02F3F19F00196AD
:100AE000A11DB11D3FBFBA2FA92F982F8827BC0188
:100AF000CD01620F711D811D911D42E0660F771FB0
:100B0000881F991F4A95D1F708958F929F92AF92AF
:100B1000BF92CF92DF92EF92FF926B017C010E9415
:100B200060054B015C01C114D104E104F104B9F08A
:100B30000E946005681979098A099B09683E73401B
:100B40008105910580F321E0C21AD108E108F1087E
:100B500088EE880E83E0981EA11CB11CE4CFFF90A4
:100B6000EF90DF90CF90BF90AF909F908F900895BF
:100B700065E070E080E090E00C9485058F929F9294
:100B8000AF92BF92CF92DF92EF92FF920F931F939B
:100B9000CF93DF936C017B018A0180910C01882344
:100BA00009F45CC080912102882309F457C0809128
:100BB000130280FF05C08091E00082608093E00016
:100BC000E801B12C8AEFA82E93E0892E2AE3922E19
:100BD000209711F4BB20D9F10E94B90381110AC0FA
:100BE000AA94AA20D9F161E070E080E090E00E9430
:100BF0008505EECF8C171D0611F00CF08C2F9FB7DA
:100C0000F8948092E9002091E80025FD02C09FBF82
:100C1000DFCF282F30E0C21BD30BF701815020F02B
:100C200041914093F100FACFE20EF31EBB2021F078
:100C30009092E800B12CEBCF8091E80085FDE7CFE2
:100C40009092E800BB24B394209709F3F3CF5D980A
:100C500084E680931202101611063CF081E090E0C9
:100C6000F6019383828310E000E0C801DF91CF9109
:100C70001F910F91FF90EF90DF90CF90BF90AF90BA
:100C80009F908F900895AF92BF92CF92DF92EF9294
:100C9000FF920F931F93CF93DF936D3079F0C09144
:100CA0000802D09109026A30B1F410920B0210923E
:100CB0000A022896D0930902C093080281E090E0CE
:100CC000DF91CF911F910F91FF90EF90DF90CF9028
:100CD000BF90AF90089540910A0250910B0285E0B9
:100CE000689FF0011124E454FF4F9A01C12C80E168
:100CF000E82EA5E070E0CA1621F0CF0101967491AC
:100D0000FC0110E000E0B72FB170DB2E2038310578
:100D1000D0F4CE01800F911F80349105A0F461E0E2
:100D200081FD64E080FD660F82FD6295887FE89E0C
:100D3000D0011124A20FF62EA858BD4F8C91DD20B2
:100D4000A9F0862B8C9376950F5F1F4F0830110505
:100D5000D1F6C3942F5F3F4F86E0C812CACF4A5FD7
:100D60005F4F50930B0240930A02A8CFF0948F215B
:100D7000E9CF2F923F924F925F926F927F928F9224
:100D80009F92AF92BF92CF92DF92EF92FF920F931A
:100D90001F93CF93DF93CDB7DEB72A970FB6F894A2
:100DA000DEBF0FBECDBF461757076CF0E016F10649
:100DB00054F0FE2DEF2D78010F2F1E2FF42FE52F6D
:100DC000AB016F2F7E2F1901281A390A4701841AA7
:100DD000950A97FE03C09194819491083801661A90
:100DE000770A77FE03C0719461947108A42FAF70E5
:100DF000E62FEF70E416F50614F4A195AF70061710
:100E0000170714F4E195EF70F82FFF70F8504F2E8C
:100E1000042C000C55085B824A82A051BB0BA29D9A
:100E20005001A39DB00CB29DB00C1124489CD00180
:100E3000499CB00D589CB00D112425014A1A5B0A3B
:100E40005201F4E0B694A794FA95E1F757FE02C078
:100E5000F0EFBF2AE051FF0BE29DD001E39DB00D02
:100E6000F29DB00D11244A805B80469CF001479CA6
:100E7000F00D569CF00D1124AE1BBF0B2D01E4E0CC
:100E800056944794EA95E1F7B7FF02C0E0EF5E2A77
:100E9000F1E04E155F050CF0FFEFE1E06017710720
:100EA0000CF0EFEFE416F50614F441505109061763
:100EB000170714F461507109DC0104E0B695A79599
:100EC0000A95E1F797FDB06F295F3F4F790114E074
:100ED000F694E7941A95E1F737FF02C000EFF02A85
:100EE0009A0194E0369527959A95E1F757FD306F72
:100EF000AB0184E0569547958A95E1F777FD506FF1
:100F00006F2FFF0F770B7B836A838E2FEE0F990B6A
:100F10009D838C83AE15BF0509F491C01A141B0480
:100F20003CF46A817B81260F371FA218B308F6CFE5
:100F3000141415043CF48C819D81480F591F4218EC
:100F40005308F6CFA7FD4BC0421753070CF447C018
:100F500057FD45C0203431050CF041C0E22F37FD6C
:100F6000E0E0642F4F3351050CF06FE39E2F987F24
:100F7000162F187FE770E88767706983BD017727B0
:100F80008D2DA0FD8C2D00E1909FF0011124E60F26
:100F9000F71FE858FD4FFF83EE836885E62FF0E0EA
:100FA000BF016C547F4F7A876987EE81FF81008192
:100FB000F9816F2F70E064557F4FE985FA859113B1
:100FC00014C09491FB016491E62FE9237E2F709564
:100FD000782BE8230E2B0723EE81FF8100831196E7
:100FE000A80CB91C460C571C95CFF491F983F095C9
:100FF000F82BE981E8230E2B0F23EE81FF8100837C
:10100000E058FF4FFF83EE83F8EFF91B1F0F111617
:101010004CF4EE81FF818083E058FF4FFF83EE8325
:101020001850F5CFFB016491EE81FF817081962FFE
:101030009095982B6823762B79237083D0CF2A96AE
:101040000FB6F894DEBF0FBECDBFDF91CF911F91D9
:101050000F91FF90EF90DF90CF90BF90AF909F9057
:101060008F907F906F905F904F903F902F9008955A
:10107000089590E080E008951F920F920FB60F92AE
:1010800011248F939F938091E1009091E100937FD1
:101090009093E10083FF0FC01092E90091E09093DC
:1010A000EB001092EC0092E39093ED00109221027D
:1010B00098E09093F00082FF22C093E09093E900C3
:1010C0009091F200992319F09AE39093E80090919F
:1010D0001202992341F090911202915090931202C2
:1010E000911101C05D9A90912002992341F0909155
:1010F0002002915090932002911101C0289A84FF00
:1011000018C08091E2008E7E81608093E200809121
:10111000E1008F7E8093E100809113028E7E8061DA
:10112000809313029F918F910F900FBE0F901F908D
:10113000189580FFF7CF8091E2008E7E80618093CA
:10114000E2008091E1008E7E8093E10080911302A5
:101150008E7E8160E5CF1F920F920FB60F92112401
:10116000CF92DF92EF92FF920F931F932F933F93B3
:101170004F935F936F937F938F939F93AF93BF939F
:10118000EF93FF93CF93DF93CDB7DEB76C97DEBFBE
:10119000CDBF1092E9008091E80083FF25C068E090
:1011A000CE0145960E94170582EF8093E8008D8955
:1011B00087FF39C09091E80090FFFCCF982F907680
:1011C00009F034C19E894F89588D2F89F88C91116F
:1011D00031C0803861F5809111028093F100109246
:1011E000F1008EEF8093E8006C960FB6F894DEBFA6
:1011F0000FBECDBFDF91CF91FF91EF91BF91AF9126
:101200009F918F917F916F915F914F913F912F911E
:101210001F910F91FF90EF90DF90CF900F900FBE36
:101220000F901F9018959EEF9093E800C7CF1092F3
:10123000F100D5CF913059F48111D3CF4130510510
:1012400081F6809111028D7F80931102CACF933075
:1012500049F48111C6CF4130510519F68091110230
:101260008260F2CF953041F48091E80080FFFCCF9E
:1012700020682093E300B5CF963009F0A9C00B8D0C
:101280001C8D22E01092E90010920F0210920E02C3
:10129000F2122EC010920D0210920C020E94E6046F
:1012A0001F8299E09983FA8291E09E8390EA988761
:1012B0009AEF998720910E0230910F02275F3F4FDE
:1012C0003C832B838D831092E90010920F021092C1
:1012D0000E0210930D0200930C0249E050E0BE0193
:1012E0006F5F7F4F80E00E94C0040E94E60479CFC8
:1012F00010930D0200930C020E94CA03DC011296A7
:101300000D911C910115110509F451C1D801ED9100
:10131000FC910480F581E02DBE016B5E7F4FC8011A
:101320000995009709F03EC1F80100851185EACFC3
:10133000F3E0FF120EC08F89882309F440C0823089
:1013400061F440E867E080EC96E00E948D04811132
:1013500048CF81E28093EB0047CF813029F440E809
:101360006BE084EB96E0F1CF833099F70E94CA03DB
:10137000DC011296ED90FC908E010F5F1F4F68010B
:10138000E114F10479F0D701ED91FC910680F78129
:10139000E02DB801C7010995080F111DF701E08480
:1013A000F184EECFD8011C92F60101900020E9F7FC
:1013B0003197BF016C197D0940E0C601C6CF6EE9C7
:1013C00076E0FB01449150E080E80E94C00409CF20
:1013D000973009F4BECF983021F481E08093F1007A
:1013E00000CF993009F0FDCE837009F0B2CFEEE066
:1013F000F1E081E031E096E32191222371F08093C6
:10140000E9003093EB00DF0111972C912093EC0061
:101410009093ED008F5F873079F78EE78093EA0035
:101420001092EA008F8980932102DBCE8B8D9C8DF8
:101430001092E90010920F0210920E0290930D028A
:1014400080930C02898D811192C08E899D89913A79
:1014500049F4813209F07DCF47E050E065E071E06A
:1014600080E0B3CF913209F074CF833269F48F8971
:10147000988DB0E0A0E08093010190930201A093C9
:101480000301B0930401ADCE803269F48091E8008D
:1014900082FFFCCF67E085E091E00E9417058BEFAB
:1014A0008093E8009ECE823209F09BCE8F89809394
:1014B0000C01EEEFFFE7859194918B3F9C4D51F12C
:1014C000E0E0F8E08091050190910601A09107010C
:1014D000B0910801803B9440A105B105F1F48091E1
:1014E0000C0180FD1AC0EE3F8AE0F80789F587E716
:1014F00097E791838083809160008093100288E158
:101500009BE00FB6F894A895809360000FBE90936F
:10151000600067CEEEEFFAE0D5CF8081918187370A
:10152000974709F05ECEA89580916000886180930E
:1015300060008091100280936000EE3F2AE0F20785
:1015400089F08091FE0A9091FF0A9183808349CEB1
:10155000808191818737980751F29093FF0A809399
:10156000FE0AC5CF1092FF0A1092FE0A3ACE0E94E0
:10157000CA03DC0112960D911C910115110509F4A5
:10158000E8CED801ED91FC910190F081E02DBE01F3
:101590006B5E7F4FC8010995811123CEF80100854C
:1015A0001185EBCF181619060CF41BCED2CEF1E044
:1015B000FF12BECE62EA76E004CF1F920F920FB602
:1015C0000F9211242F933F938F939F93AF93BF93C9
:1015D0008091040290910502A0910602B091070249
:1015E0003091320123E0230F2D3758F50196A11DCC
:1015F000B11D209332018093040290930502A093C1
:101600000602B09307028091330190913401A091BA
:101610003501B09136010196A11DB11D80933301B2
:1016200090933401A0933501B0933601BF91AF91EF
:101630009F918F913F912F910F900FBE0F901F9010
:10164000189526E8230F0296A11DB11DD2CFE2E224
:10165000F2E01382128288EE93E0A0E0B0E084838F
:101660009583A683B78388E191E0918380838FEF90
:101670009FEF9587848788E792E090937302809329
:101680007202E4E7F2E0138212828AE291E091832F
:1016900080830895CF93DF93CDB7DEB7E0970FB681
:1016A000F894DEBF0FBECDBF789484B5826084BD50
:1016B00084B5816084BD85B5826085BD85B5816056
:1016C00085BD80916E00816080936E0010928100D4
:1016D000809181008260809381008091810081608F
:1016E0008093810080918000816080938000809150
:1016F000910082608093910080919100816080933D
:101700009100809190008160809390008091C10051
:1017100084608093C1008091C10082608093C10089
:101720008091C10081608093C1008091C30081607D
:101730008093C3008091C00082608093C00080913C
:10174000C20081608093C20080917A00846080939F
:101750007A0080917A00826080937A0080917A008A
:10176000816080937A0080917A00806880937A000B
:101770001092210210921102109213028091D70050
:1017800081608093D70080EA8093D80089B580611A
:1017900089BD89B5826089BD09B400FEFDCF61E0D5
:1017A00070E080E090E00E9485058091D8008F7CF9
:1017B00080618093D8008091E000807F8093E0007A
:1017C0008091E1008E7E8093E1008DE08093E200C5
:1017D000559A209A81EC80937C0085B1806F85B901
:1017E00084B1877E84B984B1876E84B95E9A5F982C
:1017F0008AB1806D8AB9769A6E9881B3806F81BB09
:10180000899880B38D7080BB80E58CBD81E08DBDF3
:101810000E94B8055F9A0E94B8055E985C98ECEB50
:10182000F5E089EC95E024912EBD00000DB407FE93
:10183000FDCF31968E179F07B1F75C9A81E88093B0
:101840006400809165008160809365008FB1809510
:10185000807F669B88601C9B846087FF16C05C98B5
:1018600085EA8EBD00000DB407FEFDCF5C9A2E9870
:101870002F982D982E988091640080628093640048
:1018800081E083BF889513BEFCCF81E28093000185
:101890002FB7F8948091040290910502A09106025E
:1018A000B09107022FBF9CA78BA71EA21DA21AA64C
:1018B00019A61CA21BA28FB7F89440910402509164
:1018C000050260910602709107028FBF8091390175
:1018D000882319F010923901EECF80913A01242F1C
:1018E000281B822F90910001291740F48F5F8917E0
:1018F00010F731E033BF889513BEDDCF81E08093D0
:10190000390140933A018091370190913801019655
:10191000909338018093370110910302812F0E9428
:101920002405B82E80E4810F0E942405182FE9EDCC
:10193000F5E0049180E50E9424054B2DC003900141
:101940001124432E582FC50390011124F32EE02EAD
:10195000E194DB2CD194900390011124732E950314
:1019600090011124032F44E456E0DE01119670E04B
:1019700060E0FA016490319694913196E491F42DEF
:101980009F0290011124F62DF102200D311D11242A
:10199000FF2DEF02200D311D1124220F331F3C5F5C
:1019A00011963C932E93FE2DEF0290011124980284
:1019B000200D311D1124220F331F3E5F13963C93DF
:1019C0002E9312972090720230907302510128ECEE
:1019D000A20EB11C4B01880C991C8A0C9B1CF72D84
:1019E0009F0290011124962DFD2D9F02200D311D87
:1019F0001124E002200D311D1124F40131832083D4
:101A00006F5F7F4F4D5F5F4F14966830710509F02F
:101A1000B0CF84E196E02BE331E038A72FA3A101FA
:101A200040575E4FB901F12C9A01FC01B4913196F7
:101A3000A4913196E490FB01F192BF01EB2FF0E00D
:101A4000EE0FFF1FEA0DFB1DB0E0AA0FBB1FAA0D92
:101A5000BB1D008111810D90BC91A02D0A0F1B1F91
:101A6000EE2DF0E0EE0FFF1FEA0DFB1DA081B1810E
:101A70000A0F1B1FFA0101931193AF01F39404960F
:101A8000FCE0FF12D2CF4EE6241A4EEF340A0CE3EC
:101A900011E091E0F101A191B1911F01F801B19024
:101AA0008F01892F482F50E0BA0161507109FB0165
:101AB000EE0FFF1FE20FF31FE080F180EA16FB0636
:101AC0008CF4FA01EE0FFF1FE20FF31FF182E082A8
:101AD000655C7E4FFB016081455C5E4FFA0160836F
:101AE000815001F7482F50E0FA01EE0FFF1FE20F7F
:101AF000F31FB183A083455C5E4FFA01B0829F5F04
:101B00009C3041F6E8E7F2E0119228E736E02E1724
:101B10003F07D1F7EFA1F8A58191F8A7EFA3880FB0
:101B2000880F90E0FC01EC5EF94F3491FC01EB5E14
:101B3000F94F2491FC01EA5EF94FA491FC01E95EA2
:101B4000F94F44914FA754E0359FC0011124E1E0C3
:101B5000F0E0EC0FFD1F8E0F9F1FFC0120803180F5
:101B6000428153815AA349A354E0259FC001112407
:101B7000E1E0F0E0EC0FFD1F8E0F9F1FFC014080A5
:101B80005180A280B380F4E0AF9FD001112421E006
:101B900030E02C0F3D1FA20FB31F8D909C9011972A
:101BA00012966D907C90A10164E0559547956A95D9
:101BB000E1F7D50174E0B595A7957A95E1F7720143
:101BC000E4E0F594E794EA95E1F79301F4E03595C4
:101BD0002795FA95E1F76E2D6202C00111244A02A1
:101BE000800D911D1124B401B4E075956795BA95E7
:101BF000E1F709A11AA134E0159507953A95E1F7A7
:101C00006002800D911D1124EE2DE00280199109D2
:101C10001124A60280199109112442028019910908
:101C20001124181619060CF499C0421453040CF030
:101C30000BC182149304ECF49A2D8B2DA9A0BAA0A9
:101C400099A38AA3942D852D2101292E382E9A2D12
:101C50008B2D821493040CF444C0A9A0BAA07AA2DC
:101C600069A2692E782E942D852D21011401892ECB
:101C7000982E97FC73C04114F8E05F060CF06EC01C
:101C80004814590409F46AC0B3016A197B09A614FF
:101C9000B7041CF0B50166197709910124193509BB
:101CA00040E080E00E94430F6B01E82EC4018419DC
:101CB0009509092E000CAA0B27E0880F991FAA1F6F
:101CC0002A95D9F740E870E060E0242F30E0C8168C
:101CD000D906EA0688F0620F731FC81AD90AEA0A01
:101CE000F4CF5301692E782E942D852D2401BFCF7A
:101CF000A69597958795E9CF35952795422F211180
:101D0000F7CF6A147B041CF4719561957109A501E4
:101D1000460F571F5EA74DA75FA5E52FF0E0EE0F1A
:101D2000FF1FE65FF94F8591949198AB8FA76C01E7
:101D3000EDA4FEA409A11AA19101A501B501C2015A
:101D40000E94B906CFA4D8A87301830194014DA5C0
:101D50005EA569A17AA1C1010E94B906E7E4F1E09C
:101D60002FA138A5E217F30709F0D4CE8091030222
:101D70008F5F809303028FB7F89480900402909055
:101D80000502A0900602B09007028FBF8BA19CA114
:101D9000880D991DAC01EBA5FCA54E1B5F0B5CA348
:101DA0004BA32DA13EA12F5F3F4F3EA32DA34A3F42
:101DB000510598F048EE53E0249FC001259F900DF7
:101DC000349F900D11246BA17CA10E944D0F7AA726
:101DD00069A71EA21DA21CA21BA210920B021092A8
:101DE0000A02109209021092080289A59AA564E6D7
:101DF00070E00E944D0F8C01605D84E792E00E94CC
:101E00004306C8016AE070E00E944D0F182F605D24
:101E100084E792E00E94430660E3610F84E792E06A
:101E20000E944306E8E7F2E051E080E098E000809D
:101E30000EBC5111012C019780FDFDCF0192B9F725
:101E40000DB49CA68BA637CD841495040CF4FFCE5C
:101E50009A2D8B2DA9A0BAA099A38AA3942D852D84
:101E60002101292E382E05CFA29FB001B39FC001BA
:101E7000A39F700D811D1124911DB29F700D811DB6
:101E80001124911D0895DB01582F0E94340F529F99
:101E9000800DA49F800D11240895AA1BBB1B51E146
:101EA00007C0AA1FBB1FA617B70710F0A61BB70BCA
:101EB000881F991F5A95A9F780959095BC01CD016F
:101EC0000895EE0FFF1F0590F491E02D0994F8940A
:021ED000FFCF42
:101ED20010FFFFFFFF00E100000000000000C180D2
:101EE2008100000000000000DE03BE05FF03F403D2
:101EF20045040304210400000000430633053908A9
:021F020038089D
:00000001FF
