:10000000BEC30000E4C30000E2C30000E0C3000080
:10001000DEC30000DCC30000DAC30000D8C3000068
:10002000D6C30000D4C300000C9443210C94B22129
:10003000CEC30000CCC30000CAC30000C8C3000088
:10004000C6C30000C4C30000C2C30000C0C3000098
:10005000BEC30000BCC30000BAC300000C9445241A
:10006000B6C30000B4C30000B2C30000B0C30000B8
:10007000AEC30000ACC30000AAC30000A8C30000C8
:100080000C94E423A4C30000A2C30000A0C300009A
:100090009EC300009CC300009AC3000098C30000E8
:1000A00096C3000094C3000092C300000000460104
:1000B0008B02CF03110551068D07C608FB092C0BD7
:1000C000570C7D0D9E0EB90FCE10DC11E412E61315
:1000D000E014D515C216AA178A186419381A051B18
:1000E000CD1B8E1C4A1DFF1DB01E5A1F0020010390
:1000F000070F1F3F7FFFFFFEFCF8F0E0C080FFFF0F
:10010000FFFFFF7F5555FF3F3333AA2A9224FF1F7D
:10011000711C991945175515B11349121111FF0F8B
:100120000F0F380E790DCC0C300CA20B210BAA0A44
:100130003D0AD8097B092409D30888084208FF072B
:10014000C107870750071C07EB06BC06900666062A
:100150003E061806F405D105B00590057205550553
:1001600039051E050505EC04D404BD04A70492045A
:100170007D04690456044404320421041004FF037E
:10018000F003E003D203C303B503A8039B038E036C
:100190008103750369035E03530348033D0333037F
:1001A00029031F0315030C030303FA02F102E802FB
:1001B000E002D802D002C802C002B902B102AA020B
:1001C000A3029C0295028F02880282027C027602C0
:1001D00070026A0264025E02590253024E02490230
:1001E00043023E023902340230022B02260222026E
:1001F0001D021902140210020C0208020402FF017F
:10020000FC01F801F401F001EC01E901E501E10173
:10021000DE01DA01D701D401D001CD01CA01C70145
:10022000C301C001BD01BA01B701B401B201AF0100
:10023000AC01A901A601A401A1019E019C019901A3
:100240009701940192018F018D018A018801860135
:10025000830181017F017D017A01780176017401BA
:10026000720170016E016C016A016801660164012E
:10027000620160015E015C015A015801570155019C
:100280005301510150014E014C014A0149014701FE
:1002900046014401420141013F013E013C013B0155
:1002A00039013801360135013301320130012F01A6
:1002B0002E012C012B0129012801270125012401F0
:1002C0002301210120011F011E011C011B011A0134
:1002D0001901180116011501140113011201110170
:1002E0000F010E010D010C010B010A0109010801AA
:1002F00007010601050104010301020101010000DB
:1003000000AA55AA55FFFFFF00000000FE02FA2ACE
:100310001202728A72027A8262827A02FAAA8A02CD
:10032000FA2AD3040E1F4000400040005F055A0027
:100330005F15510052154900411F41005E055E00E6
:100340005F055A00411F4100400040004000FF008F
:100350004E114E00471847005F1551005F055A00C7
:1003600047184700511F51005F1551004F104E10A4
:100370004F00400040004000FF00400040004000AF
:1003800040004000400040005F054200511F510006
:10039000411F41004E1151005F045F0040004000CA
:1003A0004000FF004040404040404040404040400E
:1003B0004040404040404E595F405F505F40515F79
:1003C0005140415F41404040404040407F00010279
:1003D00004081020408018183C7E002499423CFEFE
:1003E000FE121E0C007EFE80C0C000FCFE12FEFC51
:1003F00000CEDE98FE7E000000000000000000FE3F
:10040000FE121E0C00FEFE12FEDC00FCFE12FEFCC4
:10041000007CFE82C6440002FEFE020082FEFE82D6
:10042000007CFE82C644007CFE92D6C6000000809E
:10043000C0F03C7CF0800000000080E06080C0E004
:1004400060E0000080C0C06060C0F87F070000E08E
:10045000E000000000C0C00000C0F038180C060624
:10046000068E8E000080C0E06060E0800080FC7F2F
:1004700007C0F0FCCEC3C34F0630381E0707060680
:1004800002030F1E3830001F3F1E03010000000052
:100490001E3F3130180E1F3F3010001F3F30301804
:1004A0000C1E3F20001F3F3030303818CCFE0F01AB
:1004B000003E7F616070381F07007F7F0000787FFB
:1004C000030000000000FA22FA02728A7202FA8225
:1004D0008202FAAA8A020202020202020202020254
:1004E000FE0002000200FA281200F228F200FA28A8
:1004F000D20002000200020002000200FF0092A8E7
:100500004A00FA20FA00728872000AF80A00020013
:100510000200020002000200FF000000F8380000A4
:1005200000000000FC7C0000000080C0C0C0C000D3
:100530000080F87E0E0080C06060E0C00000000017
:1005400000000000E0E60600C0C00080C0C0C0801F
:100550000000000000000000000080E0703018186B
:10056000181838F0E000C0C00080C0C0C080000093
:10057000000080C06060E0C0000080F878000000EB
:100580007C7F0303030303037F7F0000003C7F6342
:100590006070381F0F007F7F00001E3F37363331F9
:1005A00018080000000000003C3F0100383F0F0722
:1005B0000100001F3F3000000000000000001E3F4F
:1005C000716060603030180E0701383F0F0701007E
:1005D000001F3F3010001E3F3736333118083037C8
:1005E00007000000FFAA55AA11000000110055AA3B
:1005F000FFAAFFFFF808F000F8A88800D820D8006C
:1006000008F80870C8F000F880F80088F88800083A
:10061000F808CF203E19851A2F1BB0186D202E1A0E
:10062000F41970887090F880C8A89088A850382075
:10063000F8B8A84870A84008C83850A85010A8704A
:10064000000306090C0F1215181B1E2225272A2D40
:10065000303336393C3E414446494B4E5053555752
:100660005A5C5E60626466686A6B6D6E707173740A
:10067000757678797A7A7B7C7D7D7E7E7E7F7F7FC2
:100680007F0000240348066A098C0CAB0FC812E2F5
:1006900015F9180B1C1A1F2322282526281F2B1199
:1006A0002EFB30DF33BA368C39563C173FCE417AB9
:1006B000441C47B4493F4CBF4E33519B53F5554200
:1006C00058825AB35CD75EEB60F162E864CF66A6ED
:1006D000686D6A236CC96D5E6FE2705472B5730405
:1006E0007541766B77847889797C7A5C7B297CE3A9
:1006F0007C897D1D7E9C7E097F617FA67FD87FF5EA
:100700007FFE7FD5F08D14A1C881CFD9F1AF200035
:10071000080B0002020200000904000001020200AE
:10072000000524001001052401010104240206052E
:10073000240600010705810310004009040100029E
:100740000A0000000705020240000007058302407E
:1007500000000403090412010002EF0201404123DA
:10076000368000010102030141726475696E6F20D9
:100770004C4C430041726475626F79008F241124E0
:100780001FBECFEFDAE0DEBFCDBF11E0A0E0B1E0E9
:10079000E4EFFDE402C005900D92AC32B107D9F749
:1007A00029E0ACE2B1E001C01D92A73FB207E1F73A
:1007B00013E0CFEBD3E004C02197FE010E94F226A4
:1007C000CE3BD107C9F70E94B4240C94F82618CC6C
:1007D000809150050895FC0180918209882311F1D0
:1007E0003FB7F89482E08093E9002091F200822FD5
:1007F00090E01816190614F481E090E0882339F08F
:10080000289844E6409381094091F10040832223D7
:1008100039F02091F200211103C02BE62093E8006B
:100820003FBF08958FEF9FEF08952FB7F89483E0AF
:100830008093E9009091E800892F807295FF04C0B1
:100840009091F20080E4891B2FBF0895809179096F
:1008500081110DC082E08093750984E08093760950
:10086000109278091092770981E08093790985E7E1
:1008700099E00895A1E0B0E0E0E4F4E00C94CB2628
:100880006983DC01ED91FC910280F381E02D41E070
:1008900050E0BE016F5F7F4F09952196E2E00C9416
:1008A000E72683E08093E9008091F200882319F025
:1008B0008AE38093E8000895B8DF90E00895A1E00E
:1008C000B0E0E5E6F4E00C94CB26FC018485958548
:1008D00097FD08C02FEF3FEF358724872196E2E090
:1008E0000C94E726CE01019676DF019719F48981F1
:1008F00090E0F4CF8FEF9FEFF1CFA1E0B0E0E3E81D
:10090000F4E00C94C9268C01FC018485958597FF41
:100910000AC0CE0101965FDF019761F4898190E002
:10092000F80195878487F801848595852196E4E010
:100930000C94E5268FEF9FEFF3CFFC01848595851E
:1009400097FD0BC09FB7F89482E08093E9008091F7
:10095000F2009FBF90E0019608959FB7F89482E05F
:100960008093E9008091F2009FBF90E0089540914C
:100970006F095091700920916D0930916E094217ED
:100980005307B4F49091E8009570E1F39091E8007A
:1009900092FD19C08093F10080916F0990917009C8
:1009A00001968F739927892B19F48EEF8093E800B5
:1009B00080916F09909170090196909370098093CE
:1009C0006F0981E0089580E00895EF92FF920F9300
:1009D0001F93CF93DF93F82E192FE62E042F81E07B
:1009E000860F880FC4DF83E0C2DFCF2DD12FEC0E3E
:1009F000FD2EF11CCE15DF0599F007FF0FC0FE019B
:100A00008491B5DF182F80E0B2DF81232196811118
:100A1000F1CFCDB7DEB7E6E00C94E3268881F1CFC5
:100A200081E0F7CFB0E0A0E0E8E1F5E00C94C62665
:100A3000D82E8A01EB017B01E40EF51ECE15DF05F1
:100A400051F0D7FE0EC0FE01849191DF21968111F5
:100A5000F5CF0FEF1FEFC801CDB7DEB7E7E00C947D
:100A6000E2268881F2CFA1E0B0E0E9E3F5E00C9462
:100A7000C92682E0898342E450E060E177E080E8C3
:100A8000D1DFE4DEDC0112960D911C9101151105F8
:100A900089F0D801ED91FC910280F381E02DBE0137
:100AA0006F5F7F4FC801099597FD04C0F80100856D
:100AB0001185ECCF89812196E4E00C94E526615004
:100AC00030F02091F100FC0120830196F8CF2898A6
:100AD00084E68093810908958FB18095807F669B1D
:100AE00088601C9B84600895109250053E983F9842
:100AF00008953E9A3F9A81E0809350050895209191
:100B00004905E0914705F0914805CF010296909381
:100B1000480580934705222319F085919491089503
:100B2000808191810895CF92DF92EF92FF92CF93CF
:100B3000DF93E5DF811520E8920791F48091710041
:100B40008D7F809371001092910046984798109283
:100B50004605DF91CF91FF90EF90DF90CF90089501
:100B600021E020934605813020E8920749F48091E6
:100B70004405909145059093480580934705BFDF54
:100B800097FD05C020914305222309F453C020910D
:100B9000420521114FC021E020934A05EC01DF7787
:100BA000209709F04AC081E080934B0546983FE9C1
:100BB000C32E3FE0D32EE12CF12CCAEFD0E0E09120
:100BC000F509F091F6090995811103C081E0809340
:100BD0004B0580914A05882329F080914B05882395
:100BE00009F43EC047988BDF0097F1F19C01DE01CC
:100BF0000E949726DC01CB0129E0B595A795979532
:100C000087952A95D1F7109290002AE020939100C1
:100C1000D0929900C092980080934C0590934D0516
:100C2000A0934E05B0934F05809171008260809330
:100C300071008FCF10924A05B1CF9E0150E040E085
:100C400060E472E48FE090E00E944F2669017A012F
:100C500081E0C81AD108E108F10810924B05AFCF26
:100C60004699C0CF479ABFCF8FEF9FEFDC01CBCF24
:100C70009C01E1E7F0E090819D7F9083109249050F
:100C8000E7EEF9E0F0934805E0934705F09345055A
:100C9000E0934405318320837383628380E090E88E
:100CA0009583848340CF0895482FE82FEF7386FF04
:100CB00003C080E48E1BE82FF0E0EE0FFF1FEF571C
:100CC000F94F8591949147FF03C0919581959109C2
:100CD0000895E82FEF7386FF03C090E49E1BE92F71
:100CE000F0E0E05CF94FE49187FDE1958E2F0895E7
:100CF000EF92FF920F931F93A62FB0E0AA0FBB1F96
:100D0000AC51BA4FE42FF0E0EE0FFF1FEC51FA4F59
:100D10004D915C9160817181460F571FE82FF0E083
:100D2000EE0FFF1FEC51FA4F80819181480F591F40
:100D30008091930990919409DC01A01BB10BB7FF3E
:100D400003C0B195A195B109BC016E197F0977FF68
:100D500003C07195619571096A177B070CF4DB017B
:100D6000821B930B97FF03C09195819591098A1778
:100D70009B070CF4DC019D010E94AF2624E0880F44
:100D8000991F2A95E1F7840F951F1F910F91FF90EE
:100D9000EF900895ECE6F5E0119289E0EC36F80763
:100DA000D9F7089520E0AC01D703C0014E03821F9C
:100DB000312D5603000C111C920B300D811D921F1A
:100DC0007403000C111C920B300D811D921F112415
:100DD0000895A3E1B0E0EFEEF6E00C94BB26FC0131
:100DE00029833A834B835C836D837E830F83A1E9E0
:100DF000B9E0E980FA808D919C911197E81AF90A7F
:100E0000CB80DC8012968D919C911397C81AD90AD9
:100E10006D807E8014968D919C91681A790A402E7F
:100E2000512C8201045C1F4F000F111FA80144596F
:100E30005A4F9701D7010E94AF264B015C019601E2
:100E4000D6010E94AF26860E971EA81EB91E9301DA
:100E5000D3010E94AF26860E971EA81EB91EDA0186
:100E6000AD92BC92A280B380848195819987888756
:100E700026803780A085B185BD87AC878285938524
:100E80009F878E87A485B585B98BA88B8685978526
:100E90009B8B8A8BA089B189BB87AA87608171816E
:100EA000C70180DF4C01B501C6017CDF880E991EA9
:100EB00068857985C30176DF880E991EB101C70167
:100EC00071DF5C016C857D85C6016CDFA80EB91EE3
:100ED0006E857F85C30166DFA80EB91E6889798992
:100EE000C70160DF7C016A897B89C6015BDFE80E90
:100EF000F91E6A857B85C30155DFF201EE0FFF1FE6
:100F0000EE0FFF1FE45AFC4F91828082B382A282CF
:100F1000F801E452F84FE80EF91EF194E194F1085B
:100F2000F182E0828F818F5F6396E2E10C94D72695
:100F30009C01B603C0016203000C111C002490093F
:100F4000810D1124911D08959C01369FC001279F9A
:100F5000800D911D379F900D269F810D1124911DAD
:100F600008959C013603C0017203800D911D379FC7
:100F7000900D269F810D1124911D08959C0136032B
:100F8000C001729F800D911D379F900D269F810D8E
:100F90001124911D08959C013603C001269F810DE7
:100FA0001124911D0895EF92FF920F931F93CF93F9
:100FB000DF93EC018D2F78DE8C0181E08D0F74DEE4
:100FC0007C0160E071E06C1B7109C801D7DF8C0106
:100FD0006C2FC701E0DF800F911FCDB7DEB7E6E0D1
:100FE0000C94E326ACE0B0E0E8EFF7E00C94BE260A
:100FF0004F83588769877A878B879C87CF80D8846F
:10100000E984FA840B851C85C701F7FE04C0882794
:1010100099278E199F09980117FF04C022273327AB
:10102000201B310B821793070CF4C9019601D7FEE0
:1010300004C0222733272C193D09821793070CF48B
:10104000C9018F3F9105B1F0ACF0D7FE03C02FEF7F
:10105000C21AD20AD594C794F7FE03C03FEFE31A31
:10106000F30AF594E79417FF02C00F5F1F4F159521
:101070000795CACFB601C60174DF4C01B701C7019D
:1010800070DF880E991EB801C8016BDF880E991EAB
:1010900038E0532EA12CBB24B39450E8652E77245E
:1010A0007394B501C50150DFBC01C4014DDF9695B5
:1010B0008795B5019301281B390BC90145DF5C01F8
:1010C0005A945110EECFBC01C60158DFD82EC92E5C
:1010D000B501C70153DFF82EE92EB501C8014EDF77
:1010E0002D2D3C2D4F2D5E2DBC0180E090E02C96E7
:1010F000EFE00C94DA26A5E1B0E0E1E8F8E00C942A
:10110000BF26188729873A874B875C876D877E873C
:101110008F87A88AB98ACA8ADB8AEC8AFD8A68889E
:1011200079888A889B88AC88BD88602FC30100DFDE
:101130006C016885C401FCDEC80ED91E6985C50135
:10114000F7DEC80ED91E6A85C301F2DE7C016B850D
:10115000C401EEDEE80EF91E6C85C501E9DEE80E7D
:10116000F91E6D85C301E4DE8C016E85C401E0DEED
:10117000080F191F6F85C501DBDEDA82C982FC8288
:10118000EB82800F911F9E838D832C2D3A814E2DF3
:101190005C81682F7E8180E090E06596EEE00C94A3
:1011A000DB26EF92FF920F931F93CF93DF93DC0127
:1011B00080E8689FB001112464597A4F30E0F02E26
:1011C000F40E015010E00F5F1F4FFD01942F54915A
:1011D00097FD06C0EB01C90FD11DE11011C0588366
:1011E00031969F5F9F11F3CFA00FB11F3F5F6058F3
:1011F0007F4F2313EACFCDB7DEB7E6E00C94E326AA
:101200008881852B8883ECCFEF920F9323E0829F18
:10121000C0011124EE24E39403E021E08E5D994F98
:10122000C0DF0F91EF900895FF920F931F93CF931C
:10123000DF93D62FC42F8C01083E83E0180710F0EF
:1012400007EE13E080E00436110520F00456110982
:101250008F5FF9CFF12C0A30110520F00A501109E7
:10126000F394F9CF882391F04C2F6D2FCDDF44E01C
:101270004C0F6D2F8F2DC8DF48E04C0F6D2F802F46
:10128000C3DFCDB7DEB7E5E00C94E42644E0FF20F1
:10129000A1F342E04C0F6D2F8F2DB6DF46E0EDCF6E
:1012A0001F93CF93DF93162FD42FC82F843608F0C7
:1012B000C3E680E0CA3018F0CA508F5FFBCF42E02F
:1012C000882321F04D2F612F9FDF44E04D0F612FC8
:1012D0008C2F9ADFDF91CF911F910895FDDB6091F4
:1012E0007A016095682380937A0190917B019F5FDA
:1012F00090937B01E0917901F0E0EE0FFF1FEE5E2D
:10130000F94F25913491F901099508958091670568
:10131000909168052091690530916A05E0913E053C
:10132000F0913F0560914005709141054091650540
:1013300050916605A0913C05B0913D054A1B5B0BA1
:1013400057FF03C05195419551094F3F510509F091
:10135000BCF48E1B9F0B97FF03C09195819591095B
:101360008F3F910509F064F4261B370B37FF03C04C
:1013700031952195310981E02F3F310511F00CF0B5
:1013800080E0089586E0EFE5F5E0ACE3B5E001909C
:101390000D928A95E1F786E0EEE3F1E0DF01982F08
:1013A0001D929A95E9F7E8E3F1E0DF011D928A9535
:1013B000E9F7089580936C09E5DF10927B011092A4
:1013C000700110926F01109272011092710180E20F
:1013D0008093330180E090E19093780180937701CE
:1013E00081E080937901089580E0E4DFEAE4F1E0B0
:1013F000119281E0EC35F807D9F71092790186E077
:10140000ECE0F1E0A1E9B9E001900D928A95E1F7F5
:1014100080E090EE909386098093850980E09FE0BC
:1014200090938409809383098091760181708093E1
:10143000760180E2809332018AE2809375010895FB
:101440008091310123E0829FC0011124885F9C4F6D
:10145000FC015491319624910296FC01849130E074
:1014600040E0220F331F441F90E0A0E0880F991F37
:10147000AA1F880F991FAA1F822B932BA42BBC0194
:101480008A2F652B0895CF93C82FDADF9B01482F51
:101490008C2F90E0982F8827990F990F092E000C18
:1014A000AA0B9F5FAF4FBC018A2F620F731F841F6F
:1014B000CF91089587FD1BC060347105C0F4FB0116
:1014C00094E0EE0FFF1F9A95E1F7E078F370E80FD4
:1014D000F11DE459FA4F6770772781E090E001C071
:1014E000880F6A95EAF78095908189238083089513
:1014F000CF93461757070CF438C057FD36C06034F9
:1015000071059CF587FD31C077FF02C070E060E097
:10151000C62F4F33510514F04FE350E0C87F942F8E
:10152000987F677077276A507F4FFB016491FA01BB
:10153000E770FF27E251FF4F4491E82FF0E080FF72
:10154000232F80E1C89FD0011124AE0FBF1FA459E3
:10155000BA4F3C91C9130BC0E62FE4239E2F909500
:10156000922BE223E32BE923EC93CF910895862F6E
:101570008095582F522BE62FE2238E2F832B852325
:101580008C93A058BF4F892F8C1B8850181624F4B9
:101590002C93A058BF4FF9CF6C91E42FE0958E2F7C
:1015A000822BE42FE223E62BE823DECFE62FE77041
:1015B000F0E0E253FC4FE49166956695669590E8FD
:1015C000699FD0011124A80FB11DA459BA4F8C9165
:1015D000E82BEC930895B0E0A0E0E1EFFAE00C9482
:1015E000C526C82F062F182F110F110F110FD0E08D
:1015F00069E0610F8D2FDADF61E1610F8D2FD6DF9A
:1016000069E1610F8D2FD2DFDE5FDA3689F720E8DE
:10161000C29FC001112484519A4FFC01AC014C5966
:101620005F4FDF01A058BF4F2AEA2C9320833A96E0
:101630004E175F07B1F7FC01E851FF4F208388592F
:101640009F4FFC012083CC24C394C00E10E0065BA6
:101650001E4FD2E0F12CE12CD12C4D2F6C2F8C2D74
:101660001FDEF80181918F01E80EF11C882379F0CB
:101670004D2F62E06C0F14DEEFEFEC0DF0E0E45A5A
:10168000FE4F8181D80E4D2F61E06C0F09DED65FD1
:10169000C394DC3511F7DD2059F061E06C0F4CE5A7
:1016A0008D2D90E0C1DD62E06C0F4CE5C701BCDD23
:1016B000CDB7DEB7E8E00C94E1269C0143E09695B7
:1016C00087954A95E1F737FD906E0895AAE0B0E05E
:1016D000ECE6FBE00C94BB269B838A837A876987C0
:1016E0005A013901D886CF824617570764F0E016B1
:1016F000F1064CF09E2D8F2D7801092F182F8B2D80
:101700005B0149878A8793014A815B81241B350BE2
:101710003D832C8347018A189B0897FE03C0919450
:1017200081949108180189859A85281A390A37FE0B
:1017300003C03194219431082A2D27709985977020
:101740009983EA14FB0414F42195277049855A857E
:101750000417150724F489818195877089838A810C
:1017600087709CEFC92EC80E0C2C000CDD08285089
:10177000330B4C815D81249FC001259F900D349FC8
:10178000900D11248C9C90018D9C300D9C9C300DF3
:101790001124821B930B91DF2C0189818850990BB6
:1017A0009C014C815D81249FC001259F900D349F39
:1017B000900D11242C9C90012D9C300D3C9C300DE3
:1017C0001124821B930B79DF6C01AE14BF040CF45F
:1017D00041C05FEF598329853A85201731070CF402
:1017E0003CC03FEF3E83EA14FB041CF451E0A51A11
:1017F000B10889859A85081719071CF401979A87FB
:1018000089878A819B8159DF8C01C301039655DF4B
:101810009B838A83C50151DF5C0189859A854DDFF1
:101820007C019981692E990F77082E81022E000C78
:10183000330B3A8729874A815B814017510749F169
:10184000141415046CF4A60CB71C8C819D81481AE5
:10185000590AF6CF81E08983BECF41E04E83C3CFE2
:101860001C141D044CF429853A85E20EF31E4C81AC
:101870005D81C41AD50AF4CF2F813885A701B5013F
:10188000802F36DE0F5F1F4F480C591CC20CD31C33
:10189000D2CF2A96E2E10C94D726A3E0B0E0E3E5AC
:1018A000FCE00C94BB26AA27BB27A41BB50B8B011D
:1018B0006A177B070CF47DC08A179B070CF479C06C
:1018C000DA01BC5FA617B70708F473C0A817B907F9
:1018D00008F46FC069015B834A835C01CB01EDDED4
:1018E0008983C501EADE5C010A811B8183E01695CC
:1018F00007958A95E1F71B830A8328EF20032001CF
:10190000219F500C112418E0410E511C8A819B81AB
:10191000880F991F880F991F25E030E07901E81A98
:10192000F90A10E000E03CE0232E312C96018A8079
:101930009B808A0C9B1CA40135018A819B81681ABB
:10194000790AB3018981800FD3DD9601A401B30127
:101950008981801BCDDD960148018A0C9B1CA40166
:101960003501601A710AB30189819A81890FC0DD3E
:101970009601A401B3018981EA818E1BB9DDF7FCD0
:101980000BC0E40CF51CF8E04F0E511C4A815B8142
:10199000415051095B834A83E20CF31C58E0250E49
:1019A000311C0F5F1F4F8A819B81801791070CF0BC
:1019B000BDCF2396E2E10C94D7260F931F93492FB6
:1019C00050E0440F551F42505F4FFA01259134916A
:1019D000FA013296A591B491482F4095349FB001F9
:1019E000249F610D1124711DB89FA001A89F410D76
:1019F0001124511D460F571F232F3327FA01E20FE1
:101A0000F31F9F01DC010E949726072F182F292F13
:101A1000332780E090E0A2E0801B910BA20B9C0199
:101A20004A2F50E0DF010E946B261F910F9108950D
:101A3000B0E0A0E0EEE1FDE00C94C3265C01E9011A
:101A40008417950739F1D801A21BB30B2017310772
:101A50001CF0D901A01BB10B9B012A193B090E9464
:101A600097266B017C01CA018A199B098F3F91055A
:101A7000B9F0B0F0A2DF55274F2D3E2D2D2DDC0102
:101A80000E946B260C171D071CF4919581959109F6
:101A9000C80FD91FCE01CDB7DEB7EAE00C94DF2620
:101AA000FC01EE0FFF1FE250FF4FA591B491A7017B
:101AB0009601E6CFB0E0A0E0E0E6FDE00C94BD26A4
:101AC0004B015C01EA01280139019B01A70160E09B
:101AD00071E0CE01ADDF6C0183019501A70160E0EB
:101AE00071E0CE01A5DFB601CDB7DEB7E0E10C9421
:101AF000D926AAE0B0E0EFE7FDE00C94BB264C014C
:101B00002A011801B42FA52F4817590714F4B82F2C
:101B1000A92FEB2FFA2FE215F3050CF4F801F7FDCE
:101B2000D9C0B42FA52F8414950414F4B82FA92F6D
:101B3000EB2FFA2F2E163F060CF4F801E130F2409D
:101B40000CF0C8C05B013A87298737012617370791
:101B50000CF0E4C0E616F7060CF0C0C02C014A01F8
:101B60007A87698759016A147B040CF4BFC0782D09
:101B7000692D9A2D8B2D48015701120169847A84B1
:101B80002401BA86A986872E962EA92EB82E77FC18
:101B9000A1C0A114F4E0BF060CF09CC0A614B704C9
:101BA00009F498C081019401A30169857A85C50172
:101BB0003FDF89839A83EC2DF0E0EE0FFF1FE250A8
:101BC000FD4F259134913E832D83B7FE9DC0820148
:101BD000940149855A8570E060E0C50129DF7C01E8
:101BE00009811A81940149855A8570E060E0C50138
:101BF0001FDF8B839C834701B12CA12C89859A859B
:101C00008130A4E09A070CF482C082019401AC01F7
:101C100060E074E0C5010CDF8F83988709811A8129
:101C20002B813C8149855A8560E074E0C50100DF65
:101C300020E034E0A216B30654F4CD80DE807C01AF
:101C40000F8118854B815C81B401C5013FDDE985B9
:101C5000FA85F7FF14C081019201A30170E060E0F2
:101C6000CF01E6DE2C0129813A81A30170E060E01A
:101C700089859A85DDDE89839A831A861986C10152
:101C8000F1E06F16F4E07F06ACF081019201A30150
:101C900060E074E089859A85CBDE7C0129813A81F8
:101CA000A30160E074E089859A85C2DE1701612C8A
:101CB00024E0722E29853A85261537055CF4CD80FF
:101CC000DE807C018101930149815A81B2018985BD
:101CD0009A85FCDC2A96E2E10C94D726742F652FB6
:101CE000922F832F2801FA86E98647CF982D892DD8
:101CF00048011201492E582E9A2D8B2D57016984C7
:101D00007A8499878A8743CF8B829C8277CF898117
:101D10009A814F82588629853A858CCF89859A8504
:101D2000E816F9060CF41FCF32CFA5E3B0E0EBE9DB
:101D3000FEE00C94BB26E0908509F09086090091A6
:101D4000830910918409C8012ED96C01C801905CE7
:101D50002AD98C01C70127D95C01C701905C23D91E
:101D60007C019A8389831C821B82BE82AD82B5016D
:101D7000C60118D898878F831A870987B701C601CB
:101D800011D89195819591099C878B87B501C801E0
:101D900009D89195819591099E878D87D88ACF869C
:101DA000B701C8010E94D2069A8B898BAFDA8BA744
:101DB0008111DBC100E020913C0530913D0540914F
:101DC0003E0550913F056091400570914105CE015F
:101DD00001960E94E906582E20915408309155082A
:101DE0002F3F310509F00CF4C4C140915C035091C0
:101DF0005D0360915E0370915F03CA0140936003CD
:101E000050936103609362037093630380589F4F04
:101E10009093610380936003309357082093560892
:101E20008091E4059091E5059093E7058093E605A0
:101E300020913E0530913F057901890140E060E045
:101E400080E00E94780680579E4F9093E50680932D
:101E5000E4068FEF80937F01539401E00BA721E00C
:101E600029A36090650570906605E0906705F09085
:101E70006805A0906905B0906A0547019394262DE6
:101E80007A8E698E482D9C8E8B8E6A2DBE8EAD8E7D
:101E9000052D3A8D5C8D7E8DCE0101960E94E9065E
:101EA000082F282F30E0A9014D585E4F440F551FD1
:101EB000FA01E459FA4F20803180F901EE0FFF1F3B
:101EC000EE0FFF1FE85AFC4F80819181A281B38100
:101ED00060817181CB01C096220F331F220F331F07
:101EE000F901E45AFC4F80839183A283B383425962
:101EF0005A4FDA012D923C920F5F6701BBEFDB1A5C
:101F00004C2DDC8ECB8E298D3A8D5C8D6D8D7E8D2A
:101F1000CE0101960E94E906482E90E0DC01AD5802
:101F2000BE4FAA0FBB1FFD01E459FA4F008111817A
:101F300031E0EFEF2E16310409F00CF430E021E02F
:101F40000F3F110509F00CF420E0332E3222FC0182
:101F5000EE0FFF1FEE0FFF1FE85AFC4F408151812B
:101F60006281738120813181A901405D5F4F880FBB
:101F7000991F880F991FFC01E45AFC4F408351833D
:101F800062837383A259BA4F0D931C9301E0040D31
:101F9000C701995F482F9C8F8B8F298D3A8D5C8D5F
:101FA0006D8D7E8DCE0101960E94E906082FE82FE7
:101FB000F0E0EE0FFF1FEE5AF74F21E08081918194
:101FC0008F3F910509F00CF420E0322280917B01D3
:101FD000880F880F880F0E946906680E711C87FDA4
:101FE0007A94262D7A8E698EFAEFFF1A4E2DFC8E8A
:101FF000EB8E32E0B31A6A2DBE8EAD8E3A8D5C8DBB
:102000007E8DCE0101960E94E906782EE82FF0E041
:10201000EE0FFF1FEE5AF74F808191818F3F9105A0
:1020200009F00CF46BC0332009F468C082E0682E1C
:10203000650C44244394450C49A1A42EB12C76018F
:1020400084019401462D642D852D0E947806F501AA
:10205000EE0FFF1FEC51F94F91838083F501EE0FD6
:10206000FF1FEE0FFF1FE458FE4F50824182628235
:1020700044E0242E238253E0352E350CA9A0A394EE
:10208000B12C86019401432D662D842D0E94780683
:10209000F501EE0FFF1FEC51F94F91838083F5019D
:1020A000EE0FFF1FEE0FFF1FE458FE4F40826182CC
:1020B00032822382E5E09E2E950C520CA9A0A394B7
:1020C000A394B12C9601492D652D832D0E9478068D
:1020D000F501EE0FFF1FEC51F94F91838083F5015D
:1020E000EE0FFF1FEE0FFF1FE458FE4F608251827C
:1020F000928283E0838359A15D5F59A3D72C10E0BE
:10210000809157051817B8F5E12FEE0FA1E0AE0F3B
:10211000B0E0AC50BA4F8C91A12FB0E0A459BA4FA7
:102120006C91F0E0EC50FA4F408190E44902A0013C
:102130001124242F5C8B4B8BA0E46A02B001112484
:10214000462F7E8B6D8BB0E48B02C0011124682F6B
:10215000988F8F8B0D2D3C895E89788DCE010196ED
:102160000E94E906D82E1F5FCBCF1BA619A2512CC7
:1021700078CE19A276CE88E595E0E9A1ECA730E00B
:1021800070E020E013E0DC014D91CD01740F319F30
:10219000F0011124E451F94F371708F043C0608172
:1021A000670D5181570D4281470DA62FB0E0AA0F50
:1021B000BB1FAC5AB74F0D90BC91A02DAF3FB105DE
:1021C00009F0D4F4A52FB0E0AA0FBB1FAC5AB74F4B
:1021D0000D90BC91A02DAF3FB10509F06CF4A42F78
:1021E000B0E0AA0FBB1FAC5AB74F0D90BC91A02D09
:1021F000AF3FB105A1F09CF0FCA404E0F09ED0013B
:102200001124A458BE4F6C9311965C9311971296AB
:102210004C93129713962C930F2D0F5F0CA73F5FD3
:102220003396BACF2F5F253009F0ADCF29A1822F89
:1022300090E09C01220F331F220F331FA901445845
:102240005E4F58A34F8F880F991FDC01AC51B94FD7
:10225000BDABACABBCA5BAA7E72DF0E0F9ABE8ABE2
:10226000FCA5F9A0FF1608F468C06CE5A62E63E093
:10227000B62E74E5872E78E0972EC12C612C77243A
:102280007394DC1090C256EEE52E56E0F52E00E871
:1022900011E091E0EAA59E1708F0F5C2D7016D9113
:1022A0007D917D01F80181909190A190B1908F0175
:1022B000892F282F30E0A90145545F4F440F551F47
:1022C000FA01E459FA4F0190F081E02D42595A4F3A
:1022D000E617F707E0F4DA01ED93FC93D901AA0FB2
:1022E000BB1FAA0FBB1FA458BE4F220F331F220FC4
:1022F000331FF901E858FE4F40805180628073809F
:102300004D925D926D927C921397815091F6282F99
:1023100030E0F901EE0FFF1FEC51F94F718360833C
:10232000220F331F220F331FF901E458FE4F808222
:102330009182A282B3829F5FADCFAF8DB8A1BC91D5
:10234000B8A7EF8DF8A1F181F9A7AF8DB8A11296CA
:10235000CC9012971396BC91BDA7F8A4EF2DF0E096
:10236000EE0FFF1FEC5AF74F208131813BA32AA3C8
:1023700039A5E32FF0E0EE0FFF1FEC5AF74F408135
:1023800051815DA34CA36C2C712CF301EE0FFF1F48
:10239000EC5AF74FA080B180552453948AA19BA199
:1023A0008F3F910511F00CF0512CACA1BDA1AF3FB6
:1023B000B10509F014F4689451F8BFEFAB16B104FD
:1023C00009F014F4689452F8F30128A939A9E21B22
:1023D000F30BE459FA4F808130E483027001112439
:1023E00049A5842E912CF40188A999A9E81BF90B21
:1023F000E459FA4F008190E4090280011124A8A554
:102400002A2E312CF10128A939A9E21BF30BE4593A
:10241000FA4F208140E42402900111244C2D69A53B
:102420008A2F0E9478069BAB8AABACA9BDA98D937D
:102430009D93BDABACAB252D30E0C9010197852143
:102440009323892B09F4C5C0B6E7BD1508F47DC0F8
:10245000880C991C880C991CF401E45AFC4F4F011C
:10246000660C771C660C771C9301245A3C4F3FA3E3
:102470002EA33101660C771C660C771CA301445A0D
:102480005C4F3A01DA016D917D918D919C9150FCE8
:1024900065C02080318042805380EAA0FBA08B0180
:1024A0009C014CA15DA1C201B10104DB1B012C0107
:1024B000F3010081118122813381AEA1BFA16D9111
:1024C0007D918D919C91EAA0FBA0A501F3DA2D2DC1
:1024D00030E0F901EE0FFF1FEE0FFF1FE45AFC4F33
:1024E0002082318242825382220F331FF901EC5A3B
:1024F000F74F20E031E03183208321E02D0D422F82
:1025000050E0FA01EE0FFF1FEE0FFF1FE45AFC4FE1
:102510006083718382839383CA01880F991FFC01B2
:10252000EC5AF74F40E051E051834083E8A5AF8D6E
:10253000B8A1EC9311962C9311971296DC921297F6
:10254000FDA51396FC93D394D39499A19F5F99A36F
:10255000AF8DB8A11496B8A3AF8F82CE51FC1DC029
:102560000081118122813381ECA0FDA04AA15BA1F1
:10257000A1DA1B012C01D4010D911D912D913C91EB
:10258000EEA1FFA16081718182819381ECA0FDA009
:10259000A50190DAF9A5F8A79ACFAEA1BFA10D9138
:1025A0001D912D913C9175014AA15BA183DA1B011C
:1025B0002C01EEA1FFA10081118122813381D40180
:1025C0006D917D918D919C914CA15DA173DAC8A60E
:1025D0007ECF552009F4B9CF66E7F62EFD1408F436
:1025E000B4CF0AA5083708F0B0CF880C991C880C26
:1025F000991C9401245A3C4F3FA32EA3660C771CD0
:10260000660C771CA301445A5C4F5FA74EA741019B
:10261000880C991C880C991CC401845A9C4F4C014D
:1026200050FE77C0D9010D911D912D913C91FC0177
:102630006081718182819381ECA0FDA04AA15BA1A0
:1026400039DA2B013C01AEA5BFA50D911D912D914D
:102650003C91F401608171818281938175014AA16D
:102660005BA128DA2D2D30E0F901EE0FFF1FEE0FF0
:10267000FF1FE45AFC4F4082518262827382220F14
:10268000331FF901EC5AF74F20E031E0318320830A
:1026900021E02D0D422F50E0FA01EE0FFF1FEE0F4B
:1026A000FF1FE45AFC4F6083718382839383CA01C6
:1026B000880F991FFC01EC5AF74F40E051E051831D
:1026C0004083AF8DB8A1DC92E9A51196EC931197E8
:1026D0001296CC921297FDA51396FC93FAA4EF2DB7
:1026E000F0E0DF01AA0FBB1FAC51B94F4AA95BA9AB
:1026F0004D935C93EE0FFF1FEE0FFF1FE458FE4F4C
:10270000D082C18222835DA553838F2D8F5F8AA7DC
:102710001ACFAEA5BFA56D917D918D919C9151FE73
:1027200023C0EEA1FFA140805180628073807501BB
:102730008B019C014CA15DA1C301B201BBD92B014E
:102740003C01D4010D911D912D913C91EEA1FFA171
:102750006081718182819381EAA0FBA04CA15DA17F
:10276000A9D9C9A6C8A47ECFD4010D911D912D91E0
:102770003C91EAA0FBA0A5019DD92B013C01EEA153
:10278000FFA10081118122813381AEA5BFA56D918A
:102790007D918D919C91ECA0FDA0A5018BD9C9A440
:1027A000B8A5B9A75FCFF50100811181E280F38060
:1027B000D4018D919D914D018F3F9105D1F1CCF1C7
:1027C000FCD89C01D8010E94B5261B012C01D70121
:1027D0000E94B5262114B8E73B064104B4EC5B0621
:1027E000CCF12114E8E83E06EFEF4E06EBE35E067F
:1027F000C4F56115F8E77F078105F4EC9F07CCF17C
:10280000611508E870070FEF80070BE39007B4F538
:1028100092018101BFE03695279517950795BA95E6
:10282000D1F72FE096958795779567952A95D1F7FB
:102830007B011E5FD50111961C930E93C3018E1967
:102840009F0913969C938E931297C394B4E0AB0E9A
:10285000B11C17CD212C48E7342E412C44EC542ECA
:10286000C8CF212C38E8332E44244A943BE3532E1E
:10287000C0CF60E078E780E094ECCACF60E078E811
:102880008FEF9BE3C5CF0E94CA064CE7842E41E040
:10289000942ED12CB12CA12CBAA5BD1509F44CC095
:1028A000F401C380FFEFCF121FC0FBA4FF20B9F0DB
:1028B000A0906003B090610380915C0390915D03F0
:1028C000A81AB90A60915C0370915D0380915E0360
:1028D00090915F032FEF3FEFA5010E944D0CD39421
:1028E000E4E08E0E911CD8CFD4011296EC91B4E0A6
:1028F000EB9FF0011124E45AFC4FE080F18002814B
:102900001381D4011196EC91B4E0EB9FF0011124F6
:10291000E45AFC4F2081318142815381D401EC91F2
:10292000B4E0EB9FF0011124E45AFC4F6081718107
:1029300082819381DED8D3CFFBA5FF2309F491C018
:1029400085010C5F1F4F80915C0390915D032227EE
:102950003327201B310B821793070CF482C0E090C1
:102960005E03F0905F03E216F3060CF47AC024E0F5
:10297000A20EB21EA816B90608F473C0AE14BF04A6
:1029800008F46FC00E945D0B89A3C7010E945D0B14
:102990005C0183E0169507958A95E1F728EF2003FF
:1029A0002001219F500C112438E0430E511CC80116
:1029B000880F991F880F991F25E030E06901C81A18
:1029C000D90A3CE0232E312CF12CE12C4501801A50
:1029D000910AB40149A14E0D4F8F842F0E945A0ACB
:1029E0003501600E711EB3018F8D0E945A0AB40129
:1029F00099A09E18892D0E945A0AB301892D0E9420
:102A00005A0A45018E189F08B40159A1500F5F8FD3
:102A1000852F0E945A0A37016A0C7B1CB3018F8DE7
:102A20000E945A0AB40199A0901A892D0E945A0A4C
:102A3000B301892D0E945A0AD7FC07C0C40CD51CCB
:102A400088E0480E511C01501109C20CD31C98E0BB
:102A5000290E311CAFEFEA1AFA0A0E151F050CF009
:102A6000B5CF8AA5E596E2E10C94D726EF920F93B5
:102A70001F93CF93DF9359D990917901963009F044
:102A800074C080913201803208F47AC0C09175011F
:102A90004C2F419580917601E12C0AE2882309F4BC
:102AA00073C024E060E086E293E00E94D10844E233
:102AB0004C1BEE24E39403E021E06091740183E277
:102AC00093E00E94D108C09132014C2F4195E12C36
:102AD0000CE123E065E086EC94E00E94D108D2E1AD
:102AE000DC1B00916C094D2F65E081E0800F0E9496
:102AF000500910E0F801E45AFE4F81814D2F66E045
:102B000090E00E941409F801E65BFE4F80814D2F92
:102B100067E08F5F0E945009C530E8F586E08C1BA6
:102B2000EC2FF0E0EA51FA4F9F013C5FDF0190E0AB
:102B30001D929F5F8913FCCF9FEF9183E058FF4F59
:102B40002E173F0799F70DE70C0F809133018695FB
:102B500010E4181B1034F8F4D02FD7FD1AC0612FE1
:102B60008D2F0E94D60ADF5FF8CF809175018A32DF
:102B700018F48D5F80937501923009F487CF81CF6F
:102B80008F5F8093320182CF23E060E080E593E0A5
:102B90008CCF1F5FDFCF44E64C0FE12C08E121E032
:102BA00067E08BE093E00E94D108DF91CF911F9105
:102BB0000F91EF900895FF920F931F93CF93DF93A0
:102BC000809165059091660520913C0530913D0509
:102BD000821B930B0091690510916A0520914005B5
:102BE00030914105021B130BF12C17FF05C0119505
:102BF00001951109FF24F39497FF05C06894F1F83B
:102C0000919581959109801791073CF46894F2F8A9
:102C1000302F212F8C01832F922F8F3F910511F0A0
:102C20000CF04EC0FC01EE0FFF1FE250FF4F25914C
:102C30003491D8010E94B526DC01CB0153E0B69552
:102C4000A795979587955A95D1F7182FC92F40E0EA
:102C5000D42FFE01EE0FFF1FE455FF4F8591949195
:102C6000FE01EE0FFF1FE255FF4FC591D49160E0CA
:102C700071E0611B71090E94A407D19F9001C19F5F
:102C8000210D1124311D820F931FF2FE06C020E09A
:102C900030E4A901481B590BCA01F1FE06C020E02F
:102CA00030E8A901481B590BCA01F0FE03C09195F9
:102CB00081959109905CCDB7DEB7E5E00C94E426F0
:102CC0000E94DD0C9C01D8010E94B526DC01CB01DD
:102CD0003BE0B695A795979587953A95D1F7B5CFEF
:102CE000B0E0A0E0E6E7F6E10C94C6267C018B019B
:102CF000D22EFC0180819181461B570B57FF02C0E9
:102D00004D5F5F4F5595479555954795EA01C81B0F
:102D1000D90B6D2D0E94CB07080F191F6D2DCE0109
:102D20000E94CB07F70120813181820F931F91838D
:102D30008083C801CDB7DEB7E7E00C94E226AF92FE
:102D4000BF92CF92DF92EF920F931F93CF93DF93B7
:102D500000D000D000D0CDB7DEB749835A836B8353
:102D60007C838D839E83590149815A8181E9C82ED4
:102D700089E0D82EF6016081718120E487E899E02E
:102D8000AFDFF601918380834B815C816281738127
:102D900020E489E899E0A4DFF601938382834D81E2
:102DA0005E816481758120E48BE899E099DFF6010A
:102DB0009583848360918509709186092E2DA501E4
:102DC0008DE899E08DDF9093860980938509609165
:102DD0008309709184092E2DA8018FE899E080DF86
:102DE000909384098093830926960FB6F894DEBFEA
:102DF0000FBECDBFDF91CF911F910F91EF90DF906C
:102E0000CF90BF90AF9008950DB407FEFDCF8EB563
:102E10001EBC08958EBD00000DB407FEFDCF8EB51B
:102E20000895CF92DF92EF926B01E82E009051054A
:102E3000D00C00905205E01C599883E0EBDF8E2DFA
:102E4000E9DF8D2DE7DF8C2DE5DF1EBCEF90DF90F5
:102E5000CF900895CF93DF93109231010E94200A02
:102E6000E0DFCCE5D1E081E0CE36D80719F0CCDF49
:102E70008993F9CF0DB407FEFDCF8EB5599A809393
:102E80006E0180E00E94DA090E94F409DF91CF917F
:102E900008953FB7F89480912D0190912E01A09153
:102EA0002F01B091300126B5A89B05C02F3F19F026
:102EB0000196A11DB11D3FBFBA2FA92F982F8827BA
:102EC000BC01CD01620F711D811D911D42E0660F95
:102ED000771F881F991F4A95D1F708958F929F9267
:102EE000AF92BF92CF92DF92EF92FF926B017C0183
:102EF000D0DF4B015C01C114D104E104F104B1F055
:102F0000C8DF681979098A099B09683E7340810501
:102F1000910588F381E0C81AD108E108F10828EE8C
:102F2000820E23E0921EA11CB11CE5CFFF90EF9012
:102F3000DF90CF90BF90AF909F908F90089565E005
:102F400070E080E090E0CACF0895B0E0A0E0EBEA46
:102F5000F7E10C94C1266C017B018A0180910B0181
:102F6000882309F45BC080918209882309F456C044
:102F70008091740980FF05C08091E0008260809399
:102F8000E000E801B12C8AEFA82E93E0892E2AE315
:102F9000922E209711F4BB20D1F10E9415048111CB
:102FA00009C0AA94AA20D1F161E070E080E090E02D
:102FB00095DFEFCF8C171D0611F00CF08C2F9FB70B
:102FC000F8948092E9002091E80025FD02C09FBF9F
:102FD000E0CF282F30E0C21BD30BF701815020F047
:102FE00041914093F100FACFE20EF31EBB2021F095
:102FF0009092E800B12CEBCF8091E80085FDE7CFFF
:103000009092E800BB24B394209709F3F3CF5D9826
:1030100084E680937309101611063CF081E090E07D
:10302000F6019383828310E000E0C801CDB7DEB7DC
:10303000ECE00C94DD26EF92FF920F931F93CF9359
:10304000DF93EC01E62E142F842F0E946906082FCF
:1030500080E4810F0E946906182F8E2D0E94690658
:10306000F82E80E48E0D0E94690688834F2D84031C
:103070009001112439839403900111243A831B8217
:103080001C83902F91959D83F194FE82482F840399
:10309000900111243F839403C00111249887CDB778
:1030A000DEB7E6E00C94E326ADE1B0E0EAE5F8E156
:1030B0000C94BB264E8B5F8B688F798F8A8F9B8F8A
:1030C000322E532E202E412E6E887F88888C998C2C
:1030D0002A8D3B8D3D8F2C8F442D4195652D61951B
:1030E000CE010196A8DF1B861A861D861C86A12CA0
:1030F000BB84C12CDD8409811A812B813C814D81E7
:103100005E816F81788589850E947B08288B398B49
:103110004A8B5B8B6C8B7D8B88899989680E791EB5
:103120008A899B89880E991E8C899D892C8D3D8D5D
:10313000820F931F462D7A826982682D9C828B8232
:103140009E838D8390E4E92E022D142D232D352DA1
:103150005A817C819E81F3DD6D96E2E10C94D72645
:10316000A6E0B0E0E6EBF8E10C94C52686E0E5E6E3
:10317000F5E0DE01119601900D928A95E1F720911C
:10318000710130917201E12CB4E1FB2E00E717E1EF
:1031900049815A816B817C818D819E8185DF8091FF
:1031A00071019091720193959093720180937101D6
:1031B00010917B011F3F19F485E08093790156DC63
:1031C000E0916C09F0E0E65BFE4F8081813009F010
:1031D0004FC01F70173008F017E0E12FF0E0EE0F3E
:1031E000FF1FEC51FA4F45915491EAE1F5E08491CB
:1031F000EFE7F5E0E4913E2F282F0AEF17E0AAE76A
:10320000B8E070E060E0F12CE12CFB01E55EFA4FE4
:103210008491FB01E058FA4FE491DE2EC82EC601DE
:10322000822B932B8E299F297C01EE0CFF1C8E296B
:103230009F297C01F694E7948E299F298095F801B7
:10324000F0808F21F42EF2228F2981938F01892F14
:1032500080959C918923932F9423892B8D935427B8
:10326000452754276F5F7F4F79016436710521F43C
:103270002696E8E00C94E1269601C7CFA6E0B0E0E0
:10328000E4E4F9E10C94C626D62E0E94C2092091EE
:103290006F01309170011A8219821C821B821E827A
:1032A0001D82E12C8CE1F82E00E717E140E05A8105
:1032B00060E07C8180E09E81F7DE80916F019091DB
:1032C000700193959093700180936F0180917601C6
:1032D00080FF51C0D5FE09C080916C09811102C0E8
:1032E00080915C01815080936C09D6FE0CC0809166
:1032F0006C0920915C012150330B8217130679F180
:103300008F5F80936C0980917301883050F58F5FD7
:1033100080937301D2FC0E94F4090E94C2090E94AA
:10332000950EE12C0CE122E040E066E086EC94E0B2
:103330000E94D10810916C0942E166E081E0810FA2
:103340000E945009E12FF0E0E45AFE4F42E167E0AD
:1033500081810E9450092696E7E00C94E22680E0E5
:10336000D0CFD3FED7CF82E08093790180937601CE
:1033700010927301CFCF80917B018F3F11F0D2FE6D
:1033800005C082E080937901109273016FDBE3CF77
:10339000A6E0B0E0EEECF9E10C94C72686E0ECE3A1
:1033A000F5E0DE01119601900D928A95E1F700910A
:1033B0007701109178012091710130917201809113
:1033C0003E0590913F059E5F682F9C838B83E12C87
:1033D00086E0F82E49815A817C818D819E8164DE50
:1033E0002696E6E00C94E326CF93DF93C82FD62FE2
:1033F000CFDFC7FF0AC08091770190917801805498
:1034000091099093780180937701C4FF0AC080915D
:10341000770190917801805C9F4F90937801809321
:103420007701809177019091780197FD11C0811506
:1034300020E2920784F49093780180937701D2FF81
:1034400003C082E08093790111DBDF91CF91089571
:1034500090E080E0F0CF80E090E2EDCFCF93C62FF8
:1034600097DF2091760192E0211193E08091750120
:10347000882319F0835080937501C2FF03C082E056
:1034800080937901C7FF07C080917401882381F17F
:10349000815080937401C4FF07C080917401891723
:1034A00049F18F5F80937401C3FF1FC0C091740105
:1034B000222361F0C11109C080916C090E94DA09D0
:1034C00082E08093790110927301C150C11114C040
:1034D00080917101909172019093700180936F01BE
:1034E00010927B0181E080937901C0DACF91089539
:1034F000892FCFCF80E0D6CFC13011F487E0F3CF52
:10350000C23099F70E94F409F0CFEF92FF920F9327
:103510001F93CF93DF93C82FD62F3ADF80913401CA
:1035200090E09C0136952795369527954C2F40764F
:1035300009F451C00296820F931F8F3F910508F046
:1035400052C080933401C5FF0AC0209171013091AF
:103550007201281B390B3093720120937101C6FF51
:103560000AC02091710130917201820F931F9093D4
:10357000720180937101C7FF05C0809133018E5F96
:1035800080933301C4FF05C0809133018250809342
:103590003301C0913301C23048F5C2E0C09333011A
:1035A00080913201882319F08150809332018091FB
:1035B00073018830F8F48F5F80937301D2FF05C0E8
:1035C00086E0809379011092740150DACDB7DEB7AE
:1035D000E6E00C94E3260197821B930B09F0ADCF34
:1035E00081E090E0AECF8FEF90E0ABCFC7FFD6CFBA
:1035F000C0E8D4CFD3FFE2CF0091710110917201E6
:10360000C8010E94D3077C01C801905C0E94D307C7
:103610008C0186E0ECE3F5E0A4E4B1E001900D92CA
:103620008A95E1F76C2FC7010E94CB0790933F0169
:1036300080933E016C2F88279927801B910B0E9455
:10364000CB07909343018093420183E080937901FB
:1036500064E670E084EB90E00E943806AFCFAEE302
:10366000B0E0E5E3FBE10C94BB2624E02DAB8091B8
:10367000400190914101C09740913E0150913F011E
:10368000411530EC53070CF41BC3411560E4560799
:103690000CF019C350933F0140933E018115A0ECFB
:1036A0009A070CF413C38115B0E49B070CF011C307
:1036B0009093410180934001209142013091430158
:1036C0002115E0EC3E070CF407C32115F0E43F0799
:1036D0000CF005C3309343012093420140585F4FE3
:1036E00060913C0570913D05650F711D57FD7A9500
:1036F00070933D0560933C0580589F4F40913E0577
:1037000050913F05490F511D97FD5A9550933F0524
:1037100040933E0520583F4F8091400590914105D0
:10372000830F911D37FD9A95909341058093400535
:1037300020915E052EAF84E598E099A788A71CAA82
:103740009EADACA99A1709F4E5C2E8A5F9A5908049
:1037500081800281F681FCA7A8A5B9A51796BC9126
:10376000BEA7E8A5F9A58381E0903C05F0903D0552
:10377000F0E48F02E018F1081124A8A5B9A5149669
:103780008C91A0903E05B0903F05B0E48B02A0184C
:10379000B1081124E8A5F9A59581C0904005D09005
:1037A0004105F0E49F02C018D10811242CA5211175
:1037B00004C03EA5332309F446C04EA56CA5CE0136
:1037C000019639DC3A805B806C816AA78D8188AB79
:1037D0009E819AAB2F80488419856981C7010E9418
:1037E00098073C016AA5C5010E949807680E791EDA
:1037F000622DC6010E949807680E791E632DC701CD
:103800000E9498071C0168A9C5010E949807280E0C
:10381000391E642DC6010E949807280E391E652D99
:10382000C7010E9498072C016AA9C5010E94980748
:10383000480E591E612FC6010E9498076201C80EEA
:10384000D91E51017301A0E19A9EA0011124B0E19B
:103850008B9E40011124E0E10E9F80011124EE2790
:10386000FF27E41BF50BFBA7EAA7DA01AE0DBF1D8E
:10387000EE16FF064CF0412C512C32014E155F051F
:1038800044F4D701A41BB50B9D010E94AF262B0168
:103890003C012224332428183908D401AA0DBB1D69
:1038A000A214B30434F08A149B0454F4D501A8196B
:1038B000B9099D010E94AF26460E571E681E791E4B
:1038C000EE27FF27E01BF10BD801AC0DBD1DCE1676
:1038D000DF0634F00C151D0554F4D601A01BB10B06
:1038E0009D010E94AF26460E571E681E791E21E0DC
:1038F000421620E452066104710408F0D8C13E2D3E
:103900002F2D8AA59BA5E816F90614F43AA52BA538
:10391000832F922F481759070CF4CA01D701A81B0F
:10392000B90BBBA3AAA33A2D2B2DA214B30414F4F4
:10393000322D232D832F922F881699060CF4C40163
:103940009501281B390B3DA32CA33C2D2D2DCE1604
:10395000DF0614F43E2F2F2F832F922F08171907FD
:103960000CF4C801D601A81BB90BCD01BFA3AEA3AF
:103970004AA15BA16CA17DA19FA10E94F2072AA38D
:103980003BA34CA35DA36EA37FA3BCA5B111AAC1A9
:10399000EEA5E111A7C12AA03BA04CA05DA00EA1FD
:1039A0001FA1A0904001B0904101C0904201D09071
:1039B0004301B10180913E0190913F010E94B10706
:1039C0007C01B201C5010E94B107E80EF91EB801E1
:1039D000C6010E94B107E80EF91E1E141F040CF464
:1039E00066C1E114FCEFFF0634F462E370E088E79F
:1039F00090E00E94380620913E0130913F013DA7A2
:103A00002CA7B101C7010E94B107ACA4BDA4A81A9C
:103A1000B90A80914001909141019FA78EA7B20100
:103A2000C7010E94B107CEA4DFA4C81AD90AA09189
:103A30004201B0914301B9ABA8ABB801C7010E94E4
:103A4000B1074A2DBD8EAC8E6C2DDF8ECE8EE8A9CF
:103A5000F9A9E81BF90BCF01F9A3E8A35D8D7F8DD0
:103A600099A10E94F2072C8F3D8F4E8F5F8F68A324
:103A700079A32C8D3D8D39AF28AF8E8D9F8D9BAF57
:103A80008AAFA8A1B9A1BDAFACAFE0913801F09168
:103A90003901FBABEAAB20913A0130913B013FABDE
:103AA0002EAB80913C0190913D019BA78AA7B80164
:103AB000C9010E94B1077C01B2018AA59BA50E94A1
:103AC000B107E81AF90AB1018AA59BA50E94B107BE
:103AD0005C01B8018AA99BA90E94B107A81AB90A7A
:103AE000B2018AA99BA90E94B1076C01B1018EA9FC
:103AF0009FA90E94B107F7FE03C0AFEFEA1AFA0AC6
:103B0000F594E794ECA5FDA5EE19FF097F01B7FE3A
:103B100003C0FFEFAF1ABF0AB594A7948EA49FA469
:103B20008A189B08C81AD90AD7FE03C02FEFC21AF9
:103B3000D20AD594C794A8A8B9A8AC18BD08B101F9
:103B4000C7010E94B1076C01B201C4010E94B10714
:103B5000C80ED91EB801C5010E94B107C80ED91EF2
:103B600068AD79ADC7010E94B1077C016AAD7BAD3C
:103B7000C4010E94B107E80EF91E6CAD7DADC50110
:103B80000E94B107E80EF91EF194E194F10860EC8F
:103B9000882799278C199D090E94CB073C016C1836
:103BA0007D0865E5C7010E94CB076C01B101C30127
:103BB0000E94B1074C01B201C3010E94B1075C0130
:103BC000B801C3010E94B1077C0168AD79ADC6019F
:103BD0000E94B107880E991E6AAD7BADC6010E9496
:103BE000B107A80EB91E6CAD7DADC6010E94B1072C
:103BF000E80EF91E8CA59DA5880D991D90933F0197
:103C000080933E018EA59FA58A0D9B1D9093410137
:103C10008093400188A999A98E0D9F1D909343011F
:103C200080934201B801C5010E94B1076C01B20145
:103C3000C7010E94B107C81AD90AB101C7010E9481
:103C4000B1077C01B801C4010E94B107E81AF90A62
:103C5000B201C4010E94B1078C01B101C5010E94EB
:103C6000B107CC0CDD1CCC0CDD1CAAA9BBA9CA0E6B
:103C7000DB1ED0923901C0923801EE0CFF1CEE0C15
:103C8000FF1CEEA9FFA9EE0EFF1EF0923B01E09291
:103C90003A01081B190B000F111F000F111F2AA555
:103CA0003BA5020F131F10933D0100933C013CA95B
:103CB0003F5F3CAB88A599A5089699A788A740CDFA
:103CC00040E050ECE7CC40E050E4E4CC80E090EC05
:103CD000EFCC80E090E4ECCC20E030ECFBCC20E0BA
:103CE00030E4F8CCAAA0BBA0CCA0DDA0EEA0FFA041
:103CF00009811A812B813C814D815E816F8178859C
:103D000089850E947B082AA33BA34CA35DA36EA3D5
:103D10007FA341CE2091380130913901032E000C50
:103D2000440B6FEF70E080E00E94A626A82FCB0125
:103D300080589F4FAF4F892F9A2FAA279093390110
:103D40008093380120913A0130913B01032E000C01
:103D5000440B6FEF70E080E0F9D7A82FCB018058BB
:103D60009F4FAF4F892F9A2FAA2790933B018093A3
:103D70003A0120913C0130913D01032E000C440B8F
:103D80006FEF70E080E0E2D7A82FCB0180589F4F03
:103D9000AF4F892F9A2FAA2790933D0180933C0122
:103DA0009DA991509DAB911162CC8091420190915F
:103DB000430197FF03C0919581959109209140019E
:103DC0003091410137FF03C03195219531098217A8
:103DD00093070CF4C90120913E0130913F0137FF58
:103DE00003C0319521953109821793070CF4C9015D
:103DF0008F3F910509F0BCF5809137018F5F80936B
:103E0000370180913501909136018830974070F5E7
:103E1000809137018E3150F580913E0590913F059C
:103E200081159C4E0CF09BC086E0E4E4F1E0ACE32D
:103E3000B5E001900D928A95E1F786E0EEE3F1E0BE
:103E4000DF01282F1D922A95E9F7E8E3F1E0DF0171
:103E50001D928A95E9F7E0916C09F0E0E65BFE4F70
:103E600080818E5F1DC010923701CBCF109236013A
:103E7000109235011092370186E0EEE3F1E0DF01A8
:103E80001D928A95E9F70E94DB1590937201809349
:103E90007101E0916C09F0E0E65BFE4F80818F5F7D
:103EA000808382E0809379010E94DB152C0186E0FB
:103EB000ECE3F5E0DE01569601900D928A95E1F76C
:103EC0006E887F88888C998C2A8C3B8C40918409E1
:103ED0004195609186096195CE010196ACD81B860B
:103EE0001A861D861C8680E0E82EA12CBB84C12C7E
:103EF000DD848EE0F82E09811A812B813C814D8171
:103F00005E816F81788589850E947B08288B398B3B
:103F10004A8B5B8B6C8B7D8B88899989680E791EA7
:103F20008A899B89880E991E8C899D89820D931D93
:103F3000462D7A826982682D9C828B829E838D8336
:103F400090E1E92E04E619E192015A817C819E817B
:103F50000E949F160E943615EE96E2E128C70E9445
:103F60008609882309F4A0CF20918509309186091C
:103F7000E0916C09F0E0E65BFE4F80818F5F80830B
:103F800084E0809379013093720120937101109243
:103F90007B01809171008D7F8093710010924905A3
:103FA00087EE99E0909348058093470590934505E7
:103FB0008093440584EB90E09093E8098093E709AF
:103FC00084E690E09093EA098093E9092CE231E0DD
:103FD0003093EC092093EB099093EE098093ED095F
:103FE00080E090E89093F0098093EF090E94930598
:103FF0005BCFAAE0B0E0EEEFFFE1BDC6D62E28E031
:10400000829F3001112420EF222E23E0322E412CFA
:10401000512C230138EA832E33E0932EA12CB12CAE
:1040200053012FEF3FEF40E550E0C301B4010E9480
:104030004D0C30E020E040E450E0C301B4010E94A8
:104040004D0C38E4398781E08A879A85D91608F4BF
:1040500041C089850E94690618E4282FA103C00188
:104060001124892F990F990B9C0128553C4F3A83B5
:104070002983898580540E946906382FB103C001C5
:1040800011249301290F311D97FD3A953C832B8311
:1040900088EA882E83E0982E530189819A819E8335
:1040A0008D8338872F8394E0C92EED80FE800F81A9
:1040B0001885A2019101C301B4010E94790D2980E4
:1040C0003A804B805C809A859F5F9A872985285F1C
:1040D0002987BBCF2A96E2E16AC6EF920F93CF936E
:1040E000C82F0E94CA0660E080E00E94EB0A69E0E7
:1040F00084E00E94EB0A8C2F8C7009F445C08091FB
:104100007B018032B9F49091760191110BC0C2FD10
:1041100009C080916C0920915C012150330B8217FA
:10412000130671F5892F90E0959587958093760118
:104130000E94F409C3FF2BC060917B01C0E0809115
:10414000760181110CC085E154DFEE24E3940FE089
:1041500021E04EE662E084EF95E00E94D1086C2FEA
:104160008DE247DFEE24E3940FE021E04EE665E0C8
:1041700083E096E00E94D108CF910F91EF900895CF
:104180008F5F0E94DA09D6CF10927B01D3CFC2FF96
:1041900004C0C0917B0160E0D2CFC0E0FCCFEF92C1
:1041A0000F93CF93C091500563FF44C010927301E9
:1041B00080E00E94DA0982E090E05BD5C81721F028
:1041C0006C2F82E090E05DD50E94950EE12C0DE40D
:1041D00022E042E361E08CE294E00E94D10821E019
:1041E00042E364E08FED93E00E94D1088091760174
:1041F000811134C049E481E390E0481790F120E256
:10420000E22FE770F0E0E253FC4FE491A22FA69575
:10421000A695A69530E8A39FD0011124A80FB91F39
:10422000A459BA4F3C91E327EC932F5F293241F711
:104230000196E3CF62FF08C0CC2319F00E947405F9
:10424000C3CF0E947905C0CF607609F4BDCF8091BD
:10425000760191E0892780937601B6CF4FE781E51B
:10426000CBCF8091500509E0811101C004E0E12C21
:1042700021E047E767E086ED93E00E94D108CF9107
:104280000F91EF9008951F920F920FB60F92112485
:104290008F939F938091E1009091E100937F9093A1
:1042A000E10083FF0FC01092E90091E09093EB00D2
:1042B0001092EC0092E39093ED001092820998E046
:1042C0009093F00082FF22C093E09093E9009091D8
:1042D000F200992319F09AE39093E8009091730902
:1042E000992341F090917309915090937309911122
:1042F00001C05D9A90918109992341F090918109C3
:10430000915090938109911101C0289A84FF18C09F
:104310008091E2008E7E81608093E2008091E100D6
:104320008F7E8093E100809174098E7E80618093FE
:1043300074099F918F910F900FBE0F901F90189549
:1043400080FFF7CF8091E2008E7E80618093E20053
:104350008091E1008E7E8093E100809174098E7ED1
:104360008160E5CF1F920F920FB60F921124CF926A
:10437000DF92EF92FF920F931F932F933F934F93F0
:104380005F936F937F938F939F93AF93BF93EF93BD
:10439000FF93CF93DF93CDB7DEB76C97DEBFCDBF72
:1043A0001092E9008091E80083FF25C068E0CE010B
:1043B00045960E945F0582EF8093E8008D8987FF14
:1043C00039C09091E80090FFFCCF982F907609F0CB
:1043D00034C19E894F89588D2F89F88C911131C035
:1043E000803861F5809172098093F1001092F1009C
:1043F0008EEF8093E8006C960FB6F894DEBF0FBE88
:10440000CDBFDF91CF91FF91EF91BF91AF919F9180
:104410008F917F916F915F914F913F912F911F915C
:104420000F91FF90EF90DF90CF900F900FBE0F9005
:104430001F9018959EEF9093E800C7CF1092F1005F
:10444000D5CF913059F48111D3CF4130510581F648
:10445000809172098D7F80937209CACF933049F49D
:104460008111C6CF4130510519F6809172098260E1
:10447000F2CF953041F48091E80080FFFCCF2068B6
:104480002093E300B5CF963009F0A9C00B8D1C8DA9
:1044900022E01092E9001092700910926F09F21256
:1044A0002EC010926E0910926D090E9433051F8272
:1044B00099E09983FA8291E09E8390EA98879AEF37
:1044C000998720916F0930917009275F3F4F3C8396
:1044D0002B838D831092E9001092700910926F095E
:1044E00010936E0900936D0949E050E0BE016F5FC3
:1044F0007F4F80E00E9412050E94330579CF109310
:104500006E0900936D090E942604DC0112960D913C
:104510001C910115110509F451C1D801ED91FC91CF
:104520000480F581E02DBE016B5E7F4FC8010995C7
:10453000009709F03EC1F80100851185EACFF3E04C
:10454000FF120EC08F89882309F440C0823061F4C5
:1045500040E867E084E797E00E94E504811148CFD6
:1045600081E28093EB0047CF813029F440E86BE093
:1045700088E697E0F1CF833099F70E942604DC01AA
:104580001296ED90FC908E010F5F1F4F6801E114B1
:10459000F10479F0D701ED91FC910680F781E02DCF
:1045A000B801C7010995080F111DF701E084F184D6
:1045B000EECFD8011C92F60101900020E9F7319767
:1045C000BF016C197D0940E0C601C6CF62E577E006
:1045D000FB01449150E080E80E94120509CF97301A
:1045E00009F4BECF983021F481E08093F10000CF30
:1045F000993009F0FDCE837009F0B2CFE3E1F1E02C
:1046000081E031E096E32191222371F08093E9006B
:104610003093EB00DF0111972C912093EC009093E5
:10462000ED008F5F873079F78EE78093EA00109274
:10463000EA008F8980938209DBCE8B8D9C8D10924E
:10464000E9001092700910926F0990936E0980939F
:104650006D09898D811192C08E899D89913A49F4A5
:10466000813209F07DCF47E050E064E071E080E006
:10467000B3CF913209F074CF833269F48F89988D6A
:10468000B0E0A0E08093000190930101A0930201AB
:10469000B0930301ADCE803269F48091E80082FFCF
:1046A000FCCF67E084E091E00E945F058BEF809390
:1046B000E8009ECE823209F09BCE8F8980930B0159
:1046C000EEEFFFE7859194918B3F9C4D51F1E0E037
:1046D000F8E08091040190910501A0910601B0914C
:1046E0000701803B9440A105B105F1F480910B01D5
:1046F00080FD1AC0EE3F8AE0F80789F587E797E763
:1047000091838083809160008093710988E19BE0B0
:104710000FB6F894A895809360000FBE9093600048
:1047200067CEEEEFFAE0D5CF80819181873797474A
:1047300009F05ECEA895809160008861809360004A
:104740008091710980936000EE3F2AE0F20789F0C2
:104750008091FE0A9091FF0A9183808349CE8081E7
:1047600091818737980751F29093FF0A8093FE0A50
:10477000C5CF1092FF0A1092FE0A3ACE0E9426047C
:10478000DC0112960D911C910115110509F4E8CE7A
:10479000D801ED91FC910190F081E02DBE016B5E9E
:1047A0007F4FC8010995811123CEF801008511853D
:1047B000EBCF181619060CF41BCED2CEF1E0FF1287
:1047C000BECE66E577E004CF1F920F920FB60F9230
:1047D00011242F933F934F935F936F937F938F9306
:1047E0009F93AF93BF93EF93FF9380914C0590916C
:1047F0004D05A0914E05B0914F05892B8A2B8B2B2F
:1048000009F440C080914B0581110BC088B190E440
:10481000892788B980914A05882319F088B1805882
:1048200088B980914C0590914D05A0914E05B091AD
:104830004F05181619061A061B069CF480914C05A4
:1048400090914D05A0914E05B0914F050197A1099A
:10485000B10980934C0590934D05A0934E05B093FC
:104860004F05FF91EF91BF91AF919F918F917F91F4
:104870006F915F914F913F912F910F900FBE0F90CD
:104880001F9018950E949305ECCF1F920F920FB6C0
:104890000F9211242F933F938F939F93AF93BF93C6
:1048A0008091530590915405A0915505B0915605FE
:1048B00030912C0123E0230F2D3758F50196A11DCF
:1048C000B11D20932C018093530590935405A09320
:1048D0005505B093560580912D0190912E01A09120
:1048E0002F01B09130010196A11DB11D80932D01C2
:1048F00090932E01A0932F01B0933001BF91AF91FF
:104900009F918F913F912F910F900FBE0F901F900D
:10491000189526E8230F0296A11DB11DD2CFE7E915
:10492000F9E01382128288EE93E0A0E0B0E0848385
:104930009583A683B7838DE191E0918380838FEF88
:104940009FEF9587848788EE93E09093F609809394
:10495000F50980E090E89093F4098093F309469874
:104960003E9A47983F9A0895B0E0A0E0E9EBF4E260
:104970000AC2789484B5826084BD84B5816084BDA8
:1049800085B5826085BD85B5816085BD80916E00ED
:10499000816080936E00109281008091810082601E
:1049A000809381008091810081608093810080915B
:1049B000800081608093800080919100826080936C
:1049C000910080919100816080939100809190008E
:1049D0008160809390008091C10084608093C100C9
:1049E0008091C10082608093C1008091C10081608C
:1049F0008093C1008091C30081608093C300809147
:104A0000C00082608093C0008091C200816080936A
:104A1000C20080917A00846080937A0080917A004D
:104A2000826080937A0080917A00816080937A001E
:104A300080917A00806880937A00109282091092A7
:104A40007209109274098091D70081608093D70019
:104A500080EA8093D80089B5806189BD89B582607C
:104A600089BD09B400FEFDCF61E070E080E090E018
:104A70000E946E178091D8008F7C80618093D8004F
:104A80008091E000807F8093E0008091E1008E7E45
:104A90008093E1008DE08093E200559A209A81ECAA
:104AA00080937C0085B1806F85B984B1877E84B99D
:104AB00084B1876E84B95E9A5F988AB1806D8AB935
:104AC000769A6E9881B3806F81BB899880B38D7020
:104AD00080BB80E58CBD81E08DBD0E949F175F9AF1
:104AE0000E949F175E985C98E3E0F7E080E197E012
:104AF00024912EBD00000DB407FEFDCF31968E1718
:104B00009F07B1F75C9A81E880936400809165000B
:104B100081608093650082E090E0ABD08823E1F073
:104B20000E9479050E946C0587FF19C05C9885EA90
:104B30008EBD00000DB407FEFDCF5C9A2E982F9815
:104B40002D982E988091640080628093640081E0AB
:104B500083BF889513BEFCCF0E947405E3CF5E9A95
:104B6000E4E1F0E0859194918831954979F5E6E1A9
:104B7000F0E08491E7E1F0E0E491F82FF093520542
:104B8000E093510559988BEA0E940A17599A0E949E
:104B90002A178FB7F894C0905305D0905405E09031
:104BA0005505F09056058FBFAA24A394B12C0CE6AE
:104BB00015E0C0E0D4E08091600083FF0EC0F8945F
:104BC00087E78093000880930108FFCF87EB9FEF72
:104BD0009093520580935105D5CF2FB7F8948091CB
:104BE000530590915405A0915505B09156052FBFDE
:104BF0008C19813230F4803281F3A3BE889513BEC4
:104C0000ECCF8FB7F894C0905305D0905405E09046
:104C10005505F09056058FBF0E946E0980916C0972
:104C20000E94430A0E941117D8019E01ECE6F5E0AC
:104C300099E00DB407FEFDCF5E9800808EB50EBCE6
:104C4000B110012C0192215030402AF000008D93C8
:104C5000EC36F90790F3E2F35E9A599A8DB585E147
:104C6000E4E5F9E0A7E5B5E001900D928A95E1F75A
:104C7000A2CFF999FECF92BD81BDF89A992780B550
:104C80000895262FF999FECF1FBA92BD81BD20BD90
:104C90000FB6F894FA9AF99A0FBE01960895052E68
:104CA00097FB16F400940FD057FD05D01ED007FCDB
:104CB00002D046F408C050954095309521953F4F5D
:104CC0004F4F5F4F089590958095709561957F4FF8
:104CD0008F4F9F4F08952BD0A59F900DB49F900D9F
:104CE000A49F800D911D11240895A1E21A2EAA1BE4
:104CF000BB1BFD010DC0AA1FBB1FEE1FFF1FA2178C
:104D0000B307E407F50720F0A21BB30BE40BF50B88
:104D1000661F771F881F991F1A9469F76095709511
:104D2000809590959B01AC01BD01CF010895A29F94
:104D3000B001B39FC001A39F700D811D1124911D6F
:104D4000B29F700D811D1124911D0895DB01582F14
:104D5000EEDF529F800DA49F800D11240895E7DFA0
:104D6000332312F48A1B9B0B01C0E1DFB7FF0895C8
:104D7000821B930B08952F923F924F925F926F92F6
:104D80007F928F929F92AF92BF92CF92DF92EF92DB
:104D9000FF920F931F93CF93DF93CDB7DEB7CA1B5C
:104DA000DB0B0FB6F894DEBF0FBECDBF09942A8887
:104DB000398848885F846E847D848C849B84AA842F
:104DC000B984C884DF80EE80FD800C811B81AA81BC
:104DD000B981CE0FD11D0FB6F894DEBF0FBECDBF87
:104DE000ED010895EE0FFF1F0590F491E02D099459
:044DF000F894FFCF65
:104DF400FFFFFFFF00E1000000000000030D80063C
:104E040085F200C18081000000000000003A04A582
:0C4E1400175C0451049D045F047D040041
:00000001FF
