:100000002CC4000052C4000050C400004EC40000C4
:100010004CC400004AC4000048C4000046C40000AC
:1000200044C4000042C400000C945C230C94CB2315
:100030003CC400003AC4000038C4000036C40000CC
:1000400034C4000032C4000030C400002EC40000DC
:100050002CC400002AC4000028C400000C945E26B2
:1000600024C4000022C4000020C400001EC40000FC
:100070001CC400001AC4000018C4000016C400000C
:100080000C94FD2512C4000010C400000EC4000032
:100090000CC400000AC4000008C4000006C400002C
:1000A00004C4000002C4000000C4000000004601B7
:1000B0008B02CF03110551068D07C608FB092C0BD7
:1000C000570C7D0D9E0EB90FCE10DC11E412E61315
:1000D000E014D515C216AA178A186419381A051B18
:1000E000CD1B8E1C4A1DFF1DB01E5A1F0020010291
:1000F0000408102040800103070F1F3F7FFFFFFE11
:10010000FCF8F0E0C080FFFFFFFFFF7F5555FF3F89
:100110003333AA2A9224FF1F711C991945175515CC
:10012000B11349121111FF0F0F0F380E790DCC0CBE
:10013000300CA20B210BAA0A3D0AD8097B0924091D
:10014000D30888084208FF07C107870750071C0724
:10015000EB06BC06900666063E061806F405D105B9
:10016000B00590057205550539051E050505EC0419
:10017000D404BD04A70492047D0469045604440415
:10018000320421041004FF03F003E003D203C3038D
:10019000B503A8039B038E038103750369035E0304
:1001A000530348033D03330329031F0315030C03C3
:1001B0000303FA02F102E802E002D802D002C80208
:1001C000C002B902B102AA02A3029C0295028F02E8
:1001D000880282027C02760270026A0264025E0277
:1001E000590253024E02490243023E0239023402CE
:1001F00030022B02260222021D02190214021002F2
:100200000C0208020402FF01FC01F801F401F001F4
:10021000EC01E901E501E101DE01DA01D701D401D8
:10022000D001CD01CA01C701C301C001BD01BA019E
:10023000B701B401B201AF01AC01A901A601A4014B
:10024000A1019E019C0199019701940192018F01E6
:100250008D018A0188018601830181017F017D0171
:100260007A01780176017401720170016E016C01EE
:100270006A01680166016401620160015E015C015E
:100280005A015801570155015301510150014E01C6
:100290004C014A0149014701460144014201410123
:1002A0003F013E013C013B01390138013601350176
:1002B0003301320130012F012E012C012B012901C4
:1002C00028012701250124012301210120011F010B
:1002D0001E011C011B011A0119011801160115014B
:1002E00014011301120111010F010E010D010C0186
:1002F0000B010A01090108010701060105010401BA
:10030000030102010101000000AA55AA55FFFFFFE9
:100310001700030CCE390000994C000003002E0298
:10032000D1010000C411100184001000980C2E3A75
:10033000F243B94AB12A877CB726AE22211FAA2AE6
:10034000A23A0A00500184284A298A10A10A000012
:10035000BE78BF2A2E463F3ABF46BF042E669F7C1A
:10036000F147F1019F6C1F425F7C3F783F7EBF08E1
:100370002E7ABF68B226E1071F7E071F1F7D9B6C88
:10038000833EB94E3F028360F103220810424100D0
:100390004C7A5F324C4A4C7E4C53BE00D6035F70A1
:1003A0001D00B0019F681F009E785E704C325E1188
:1003B00044799E0856034F020E7A061B1E79924915
:1003C000823ADA02C47D0000DF110000000049001B
:1003D00000FE02FA2A1202728A72027A8262827A1B
:1003E00002FAAA8A02FA2AD3040E1F4000400040F3
:1003F000005F055A005F15510052154900411F4129
:10040000005E055E005F055A00411F41004000404C
:10041000004000FF004E114E00471847005F155185
:10042000005F055A0047184700511F51005F1551E2
:10043000004F104E104F00400040004000FF0040B1
:10044000004000400040004000400040005F054286
:1004500000511F5100411F41004E1151005F045FC8
:1004600000400040004000FF00404040404040400D
:1004700040404040404040404040404E595F405F17
:10048000505F40515F5140415F41404040404040DB
:10049000407F0018183C7E002499423CFEFE121E4C
:1004A0000C007EFE80C0C000FCFE12FEFC00CEDE12
:1004B00098FE7E000000000000000000FEFE121EFC
:1004C0000C00FEFE12FEDC00FCFE12FEFC007CFEB8
:1004D00082C6440002FEFE020082FEFE82007CFE16
:1004E00082C644007CFE92D6C600000080C0F03C6C
:1004F0007CF0800000000080E06080C0E060E000F0
:100500000080C0C06060C0F87F070000E0E000002D
:100510000000C0C00000C0F038180C0606068E8E21
:10052000000080C0E06060E0800080FC7F07C0F0D9
:10053000FCCEC3C34F0630381E0707060602030F62
:100540001E3830001F3F1E0301000000001E3F3117
:1005500030180E1F3F3010001F3F3030180C1E3F68
:1005600020001F3F3030303818CCFE0F01003E7F96
:10057000616070381F07007F7F0000787F030000F4
:100580000000000000F838000000000000FC7C00C3
:1005900000000080C0C0C0C0000080F87E0E008057
:1005A000C06060E0C00000000000000000E0E6065F
:1005B00000C0C00080C0C0C080000000000000007B
:1005C00000000080E070301818181838F0E000C003
:1005D000C00080C0C0C0800000000080C06060E03B
:1005E000C0000080F8780000007C7F030303030351
:1005F000037F7F0000003C7F636070381F0F007F27
:100600007F00001E3F37363331180800000000001D
:10061000003C3F0100383F0F070100001F3F300042
:10062000000000000000001E3F7160606030301864
:100630000E0701383F0F070100001F3F3010001E5A
:100640003F373633311808303707000000FFAA550E
:10065000AA11000000110055AAFFAAFFFFF808F038
:1006600000F8A88800D820D80008F80870C8F00062
:10067000F880F80088F8880008F80804069F060447
:1006800002060F060202022272FA2222020222222D
:10069000FA722202FE00FA22FA02728A7202FA82C8
:1006A0008202FAAA8A020202020202020202020282
:1006B000FE0002000200FA281200F228F200FA28D6
:1006C000D20002000200020002000200FF0092A815
:1006D0004A00FA20FA00728872000AF80A00020042
:1006E0000200020002000200FF00F322781BA21C9D
:1006F0004C1DE51A8B224C1CB01B121CD71970889C
:100700007090F880C8A89088A8503820F8B8A848F9
:1007100070A84008C83850A85010A87000030609F7
:100720000C0F1215181B1E2225272A2D303336399F
:100730003C3E414446494B4E505355575A5C5E60CF
:10074000626466686A6B6D6E7071737475767879C1
:100750007A7A7B7C7D7D7E7E7E7F7F7F7F0000241A
:100760000348066A098C0CAB0FC812E215F9180B86
:100770001C1A1F2322282526281F2B112EFB30DFB1
:1007800033BA368C39563C173FCE417A441C47B4B5
:10079000493F4CBF4E33519B53F5554258825AB393
:1007A0005CD75EEB60F162E864CF66A6686D6A2391
:1007B0006CC96D5E6FE2705472B573047541766BEF
:1007C00077847889797C7A5C7B297CE37C897D1DC0
:1007D0007E9C7E097F617FA67FD87FF57FFE7FD5D7
:1007E000F08D14A1C881CFD9F1AF2000080B000211
:1007F00002020000090400000102020000052400BA
:10080000100105240101010424020605240600014B
:100810000705810310004009040100020A000000DE
:1008200007050202400000070583024000000403A0
:10083000090412010002EF02014041233680000149
:100840000102030141726475696E6F204C4C4300D4
:1008500041726475626F7900A82611241FBECFEF24
:10086000DAE0DEBFCDBF11E0A0E0B1E0E6E2F2E504
:1008700002C005900D92AC32B107D9F729E0ACE285
:10088000B1E001C01D92A735B207E1F714E0CDE257
:10089000D4E004C02197FE010E940B29CC32D1077D
:1008A000C9F70E94CD260C941129AACB8091B004DF
:1008B0000895FC018091E208882311F13FB7F89474
:1008C00082E08093E9002091F200822F90E01816D8
:1008D000190614F481E090E0882339F0289844E662
:1008E0004093E1084091F1004083222339F02091A8
:1008F000F200211103C02BE62093E8003FBF0895CA
:100900008FEF9FEF08952FB7F89483E08093E9006D
:100910009091E800892F807295FF04C09091F200B9
:1009200080E4891B2FBF08958091D90881110DC0E3
:1009300082E08093D50884E08093D6081092D8088E
:100940001092D70881E08093D90885ED98E008954A
:10095000A1E0B0E0EEEAF4E00C94E4286983DC0165
:10096000ED91FC910280F381E02D41E050E0BE0169
:100970006F5F7F4F09952196E2E00C94002983E098
:100980008093E9008091F200882319F08AE3809334
:10099000E8000895B8DF90E00895A1E0B0E0E3ED4D
:1009A000F4E00C94E428FC018485958597FD08C04B
:1009B0002FEF3FEF358724872196E2E00C94002942
:1009C000CE01019676DF019719F4898190E0F4CF8A
:1009D0008FEF9FEFF1CFA1E0B0E0E1EFF4E00C94F6
:1009E000E2288C01FC018485958597FF0AC0CE0121
:1009F00001965FDF019761F4898190E0F8019587A6
:100A00008487F801848595852196E4E00C94FE287E
:100A10008FEF9FEFF3CFFC018485958597FD0BC089
:100A20009FB7F89482E08093E9008091F2009FBF25
:100A300090E0019608959FB7F89482E08093E900D2
:100A40008091F2009FBF90E008954091CF085091AF
:100A5000D0082091CD083091CE0842175307B4F446
:100A60009091E8009570E1F39091E80092FD19C033
:100A70008093F1008091CF089091D00801968F73F8
:100A80009927892B19F48EEF8093E8008091CF0885
:100A90009091D00801969093D0088093CF0881E080
:100AA000089580E00895EF92FF920F931F93CF93E4
:100AB000DF93F82E192FE62E042F81E0860F880F82
:100AC000C4DF83E0C2DFCF2DD12FEC0EFD2EF11C51
:100AD000CE15DF0599F007FF0FC0FE018491B5DF49
:100AE000182F80E0B2DF812321968111F1CFCDB79D
:100AF000DEB7E6E00C94FC288881F1CF81E0F7CFE7
:100B0000B0E0A0E0E6E8F5E00C94DF28D82E8A01FA
:100B1000EB017B01E40EF51ECE15DF0551F0D7FE8B
:100B20000EC0FE01849191DF21968111F5CF0FEF68
:100B30001FEFC801CDB7DEB7E7E00C94FB28888132
:100B4000F2CFA1E0B0E0E7EAF5E00C94E22882E021
:100B5000898342E450E06CEE77E080E8D1DFE4DEA8
:100B6000DC0112960D911C910115110589F0D80137
:100B7000ED91FC910280F381E02DBE016F5F7F4F0C
:100B8000C801099597FD04C0F80100851185ECCFD7
:100B900089812196E4E00C94FE28615030F0209188
:100BA000F100FC0120830196F8CF289884E6809319
:100BB000E10808958FB18095807F669B88601C9BBB
:100BC000846008951092B0043E983F9808953E9A2C
:100BD0003F9A81E08093B00408952091A904E091A8
:100BE000A704F091A804CF0102969093A8048093E3
:100BF000A704222319F08591949108958081918111
:100C00000895CF92DF92EF92FF92CF93DF93E5DFCB
:100C1000811520E8920791F4809171008D7F809377
:100C2000710010929100469847981092A604DF91A7
:100C3000CF91FF90EF90DF90CF90089521E0209327
:100C4000A604813020E8920749F48091A404909191
:100C5000A5049093A8048093A704BFDF97FD05C067
:100C60002091A304222309F453C02091A20421114E
:100C70004FC021E02093AA04EC01DF77209709F010
:100C80004AC081E08093AB0446983FE9C32E3FE021
:100C9000D32EE12CF12CCAEFD0E0E0915509F09170
:100CA00056090995811103C081E08093AB048091BE
:100CB000AA04882329F08091AB04882309F43EC05C
:100CC00047988BDF0097F1F19C01DE010E94B0286C
:100CD000DC01CB0129E0B595A795979587952A95D5
:100CE000D1F7109290002AE020939100D0929900C1
:100CF000C09298008093AC049093AD04A093AE048E
:100D0000B093AF04809171008260809371008FCFA7
:100D10001092AA04B1CF9E0150E040E060E472E47A
:100D20008FE090E00E94682869017A0181E0C81A8A
:100D3000D108E108F1081092AB04AFCF4699C0CFBB
:100D4000479ABFCF8FEF9FEFDC01CBCF9C01E1E74C
:100D5000F0E090819D7F90831092A904E7E4F9E090
:100D6000F093A804E093A704F093A504E093A404EF
:100D7000318320837383628380E090E8958384834A
:100D800040CF0895482FE82FEF7386FF03C080E41B
:100D90008E1BE82FF0E0EE0FFF1FE35AF84F85910E
:100DA000949147FF03C09195819591090895E82F8B
:100DB000EF7386FF03C090E49E1BE92FF0E0E45E32
:100DC000F84FE49187FDE1958E2F0895EF92FF9201
:100DD0000F931F93A62FB0E0AA0FBB1FA05DBA4FC1
:100DE000E42FF0E0EE0FFF1FE05DFA4F4D915C91B4
:100DF00060817181460F571FE82FF0E0EE0FFF1F53
:100E0000E05DFA4F80819181480F591F8091F3086E
:100E10009091F408DC01A01BB10BB7FF03C0B195A2
:100E2000A195B109BC016E197F0977FF03C07195C7
:100E3000619571096A177B070CF4DB01821B930B28
:100E400097FF03C09195819591098A179B070CF430
:100E5000DC019D010E94C82824E0880F991F2A9573
:100E6000E1F7840F951F1F910F91FF90EF90089568
:100E7000ECECF4E0119288E0EC3CF807D9F7089527
:100E800020E0AC01D703C0014E03821F312D560371
:100E9000000C111C920B300D811D921F7403000C6D
:100EA000111C920B300D811D921F11240895A3E196
:100EB000B0E0EDE5F7E00C94D428FC0129833A83F7
:100EC0004B835C836D837E830F83A1EFB8E0E98061
:100ED000FA808D919C911197E81AF90ACB80DC80F9
:100EE00012968D919C911397C81AD90A6D807E80B5
:100EF00014968D919C91681A790A402E512C82018A
:100F00000E5C1F4F000F111FA80144535B4F970148
:100F1000D7010E94C8284B015C019601D6010E94AE
:100F2000C828860E971EA81EB91E9301D3010E94E1
:100F3000C828860E971EA81EB91EDA01AD92BC9273
:100F4000A280B380848195819987888726803780A5
:100F5000A085B185BD87AC87828593859F878E8765
:100F6000A485B585B98BA88B868597859B8B8A8B45
:100F7000A089B189BB87AA8760817181C70180DFA1
:100F80004C01B501C6017CDF880E991E6885798504
:100F9000C30176DF880E991EB101C70171DF5C01C4
:100FA0006C857D85C6016CDFA80EB91E6E857F85B8
:100FB000C30166DFA80EB91E68897989C70160DFA1
:100FC0007C016A897B89C6015BDFE80EF91E6A85B0
:100FD0007B85C30155DFF201EE0FFF1FEE0FFF1FF0
:100FE000E45FFC4F91828082B382A282F801E852D2
:100FF000F94FE80EF91EF194E194F108F182E082D4
:101000008F818F5F6396E2E10C94F0289C01B60318
:10101000C0016203000C111C00249009810D1124F1
:10102000911D08959C01369FC001279F800D911D41
:10103000379F900D269F810D1124911D08959C01CD
:101040003603C0017203800D911D379F900D269FBE
:10105000810D1124911D08959C013603C001729FDA
:10106000800D911D379F900D269F810D1124911D9C
:1010700008959C013603C001269F810D1124911D06
:101080000895EF92FF920F931F93CF93DF93EC019C
:101090008D2F78DE8C0181E08D0F74DE7C0160E0A5
:1010A00071E06C1B7109C801D7DF8C016C2FC7017F
:1010B000E0DF800F911FCDB7DEB7E6E00C94FC288F
:1010C000ACE0B0E0E6E6F8E00C94D7284F83588710
:1010D00069877A878B879C87CF80D884E984FA8454
:1010E0000B851C85C701F7FE04C0882799278E1938
:1010F0009F09980117FF04C022273327201B310BBB
:10110000821793070CF4C9019601D7FE04C0222769
:1011100033272C193D09821793070CF4C9018F3F1F
:101120009105B1F0ACF0D7FE03C02FEFC21AD20A7E
:10113000D594C794F7FE03C03FEFE31AF30AF59482
:10114000E79417FF02C00F5F1F4F15950795CACF91
:10115000B601C60174DF4C01B701C70170DF880E0C
:10116000991EB801C8016BDF880E991E38E0532E16
:10117000A12CBB24B39450E8652E77247394B50159
:10118000C50150DFBC01C4014DDF96958795B501BF
:101190009301281B390BC90145DF5C015A9451109A
:1011A000EECFBC01C60158DFD82EC92EB501C7014C
:1011B00053DFF82EE92EB501C8014EDF2D2D3C2D51
:1011C0004F2D5E2DBC0180E090E02C96EFE00C945A
:1011D000F328A5E1B0E0EFEEF8E00C94D8281887EA
:1011E00029873A874B875C876D877E878F87A88A98
:1011F000B98ACA8ADB8AEC8AFD8A688879888A88F3
:101200009B88AC88BD88602FC30100DF6C016885B6
:10121000C401FCDEC80ED91E6985C501F7DEC80E03
:10122000D91E6A85C301F2DE7C016B85C401EEDE46
:10123000E80EF91E6C85C501E9DEE80EF91E6D8524
:10124000C301E4DE8C016E85C401E0DE080F191FC6
:101250006F85C501DBDEDA82C982FC82EB82800FFA
:10126000911F9E838D832C2D3A814E2D5C81682F9A
:101270007E8180E090E06596EEE00C94F428EF9299
:10128000FF920F931F93CF93DF93DC0180E8689F59
:10129000B001112464537B4F30E0F02EF40E015066
:1012A00010E00F5F1F4FFD01942F549197FD06C072
:1012B000EB01C90FD11DE11011C0588331969F5F1A
:1012C0009F11F3CFA00FB11F3F5F60587F4F2313D3
:1012D000EACFCDB7DEB7E6E00C94FC288881852BF9
:1012E0008883ECCFEF920F9323E0829FC0011124FB
:1012F000EE24E39403E021E08250994FC0DF0F9188
:10130000EF900895FF920F931F93CF93DF93D62F03
:10131000C42F8C01083E83E0180710F007EE13E09D
:1013200080E00436110520F0045611098F5FF9CFD3
:10133000F12C0A30110520F00A501109F394F9CF6D
:10134000882391F04C2F6D2FCDDF44E04C0F6D2F93
:101350008F2DC8DF48E04C0F6D2F802FC3DFCDB736
:10136000DEB7E5E00C94FD2844E0FF20A1F342E065
:101370004C0F6D2F8F2DB6DF46E0EDCF1F93CF932F
:10138000DF93162FD42FC82F843608F0C3E680E0F1
:10139000CA3018F0CA508F5FFBCF42E0882321F09B
:1013A0004D2F612F9FDF44E04D0F612F8C2F9ADF6F
:1013B000DF91CF911F910895FDDB60917A016095D7
:1013C000682380937A0190917B019F5F90937B01CA
:1013D000E0917901F0E0EE0FFF1FE651F94F259102
:1013E0003491F901099508958091C7049091C8043A
:1013F0002091C9043091CA04E0919E04F0919F04A9
:101400006091A0047091A1044091C5045091C6045C
:10141000A0919C04B0919D044A1B5B0B57FF03C035
:101420005195419551094F3F510509F0BCF48E1B70
:101430009F0B97FF03C09195819591098F3F91056F
:1014400009F064F4261B370B37FF03C03195219553
:10145000310981E02F3F310511F00CF080E0089553
:1014600086E0EFEBF4E0ACE9B4E001900D928A95F0
:10147000E1F786E0EDE3F1E0DF01982F1D929A9508
:10148000E9F7E7E3F1E0DF011D928A95E9F70895B6
:101490008093CC08E5DF10927B01109278011092C6
:1014A000770110925C0110925B0180E2809332011F
:1014B00080E090E19093600180935F0181E08093F0
:1014C000790108956091750183E0689FB00111244E
:1014D00066537C4FFB012491319694916E5F7F4F50
:1014E000FB01649170E080E0862F77276627792BD7
:1014F000622B0895CF93C82FE5DF9B01482F8C2FD7
:1015000090E0982F8827990F990F092E000CAA0BAD
:101510009F5FAF4FBC018A2F620F731F841FCF9153
:1015200008958032B9F0E82FEE0FFF0BE253FD4F24
:1015300085919491292F269526952F7149F425E0C0
:10154000969587952A95E1F78F7121F481E00895AA
:1015500083E0089582E0089587FD1BC06034710523
:10156000C0F4FB0194E0EE0FFF1F9A95E1F7E078DD
:10157000F370E80FF11DE453FB4F6770772781E0AC
:1015800090E001C0880F6A95EAF7809590818923E1
:1015900080830895CF93461757070CF438C057FD42
:1015A00036C0603471059CF587FD31C077FF02C0FD
:1015B00070E060E0C62F4F33510514F04FE350E068
:1015C000C87F942F987F6770772762507F4FFB0109
:1015D0006491FA01E770FF27EA50FF4F4491E82F2A
:1015E000F0E080FF232F80E1C89FD0011124AE0FCF
:1015F000BF1FA453BB4F3C91C9130BC0E62FE4237C
:101600009E2F9095922BE223E32BE923EC93CF912D
:101610000895862F8095582F522BE62FE2238E2F88
:10162000832B85238C93A058BF4F892F8C1B885008
:10163000181624F42C93A058BF4FF9CF6C91E42FC7
:10164000E0958E2F822BE42FE223E62BE823DECFDA
:10165000E62FE770F0E0E251FF4FE4916695669562
:10166000669590E8699FD0011124A80FB11DA4537D
:10167000BB4F8C91E827EC930895A3E0B0E0E3E43E
:10168000FBE00C94DB28182FF62EE42FEE0FFF0B57
:10169000E253FD4F25913491822F8F718983C901C7
:1016A00045E0969587954A95E1F78F718A83932F48
:1016B000969596959F719B8303E0911104C002E07B
:1016C000811101C001E0CE0101965C01902E910EC6
:1016D000F50181915F01EF2C882361F0C82ED12C98
:1016E00080FF03C06E2D812FB3DFE394C601959573
:1016F0008795F2CF1F5F1911EBCF802F2396EBE078
:101700000C94F7280F931F93CF93C82F8B01F801E8
:1017100041918F01442351F0403211F4CD5FF7CF56
:1017200064E28C2FAADFCF5FC80FF1CFCF911F915A
:101730000F910895E62FE770F0E0E251FF4FE4913A
:1017400066956695669590E8699FD0011124A80F6B
:10175000B11DA453BB4F8C91E82BEC930895B0E0DE
:10176000A0E0E5EBFBE00C94DB2810916101611730
:1017700008F07CC0161B1A3008F019E0062FC82F9D
:10178000E82EEE0CEE0CEE0CDAE01D9FD02D1124AD
:101790009EE0D92EDD0EF12C69E06E0D8F2DCADF93
:1017A00061E16E0D8F2DC6DF69E16E0D8F2DC2DFF9
:1017B000F394F394DF1480F720E8C29FF001112422
:1017C000AF01445B5A4F90E0DA01A90FB11D9D01B2
:1017D00020583F4F8AEAF90180838C93965FD9178E
:1017E00098F7FA01ED0FF11DDF01A257BF4F8C935F
:1017F0008687802F90E09C01275B3E4F690182E045
:10180000B82EAA24A394F12CE12C912C1A1500F1E6
:101810004B2D6C2F8A2D800FB1DDF60181916F0168
:10182000E80EF11C882381F04B2D62E06C0FA6DDE1
:10183000EFEFE00FEA0DF0E0EF59FE4F8181980ED7
:101840004B2D61E06C0F9ADDA394FAE0BF0EDECF62
:10185000992061F0DE5F61E06C0F4D2F892D90E0E3
:1018600051DD62E06C0F4D2FC7014CDDCDB7DEB707
:10187000EBE00C94F7289C0143E0969587954A95F8
:10188000E1F737FD906E0895AAE0B0E0EAE4FCE0ED
:101890000C94D4289B838A837A8769875A013901FB
:1018A000D886CF824617570764F0E016F1064CF051
:1018B0009E2D8F2D7801092F182F8B2D5B014987C5
:1018C0008A8793014A815B81241B350B3D832C83DE
:1018D00047018A189B0897FE03C091948194910850
:1018E000180189859A85281A390A37FE03C0319470
:1018F000219431082A2D2770998597709983EA14CD
:10190000FB0414F42195277049855A85041715079F
:1019100024F489818195877089838A8187709CEFFF
:10192000C92EC80E0C2C000CDD082850330B4C813E
:101930005D81249FC001259F900D349F900D11243F
:101940008C9C90018D9C300D9C9C300D1124821B31
:10195000930B91DF2C0189818850990B9C014C815C
:101960005D81249FC001259F900D349F900D11240F
:101970002C9C90012D9C300D3C9C300D1124821B21
:10198000930B79DF6C01AE14BF040CF441C05FEF20
:10199000598329853A85201731070CF43CC03FEF65
:1019A0003E83EA14FB041CF451E0A51AB1088985B2
:1019B0009A85081719071CF401979A8789878A81E5
:1019C0009B8159DF8C01C301039655DF9B838A837A
:1019D000C50151DF5C0189859A854DDF7C019981C4
:1019E000692E990F77082E81022E000C330B3A874F
:1019F00029874A815B814017510749F11414150466
:101A00006CF4A60CB71C8C819D81481A590AF6CF3C
:101A100081E08983BECF41E04E83C3CF1C141D04F7
:101A20004CF429853A85E20EF31E4C815D81C41A7F
:101A3000D50AF4CF2F813885A701B501802FAADD03
:101A40000F5F1F4F480C591CC20CD31CD2CF2A96D3
:101A5000E2E10C94F028A3E0B0E0E1E3FDE00C94B7
:101A6000D428AA27BB27A41BB50B8B016A177B07B9
:101A70000CF47DC08A179B070CF479C0DA01BC5FB7
:101A8000A617B70708F473C0A817B90708F46FC002
:101A900069015B834A835C01CB01EDDE8983C5016B
:101AA000EADE5C010A811B8183E0169507958A9521
:101AB000E1F71B830A8328EF20032001219F500CAC
:101AC000112418E0410E511C8A819B81880F991FB7
:101AD000880F991F25E030E07901E81AF90A10E033
:101AE00000E03CE0232E312C96018A809B808A0CFA
:101AF0009B1CA40135018A819B81681A790AB30174
:101B00008981800F47DD9601A401B3018981801B83
:101B100041DD960148018A0C9B1CA4013501601A25
:101B2000710AB30189819A81890F34DD9601A4017C
:101B3000B3018981EA818E1B2DDDF7FC0BC0E40C1B
:101B4000F51CF8E04F0E511C4A815B814150510950
:101B50005B834A83E20CF31C58E0250E311C0F5FB7
:101B60001F4F8A819B81801791070CF0BDCF239670
:101B7000E2E10C94F0280F931F93492F50E0440F9B
:101B8000551F4A5F5E4FFA0125913491FA01329652
:101B9000A591B491482F4095349FB001249F610DC9
:101BA0001124711DB89FA001A89F410D1124511D42
:101BB000460F571F232F3327FA01E20FF31F9F0110
:101BC000DC010E94B028072F182F292F332780E02F
:101BD00090E0A2E0801B910BA20B9C014A2F50E0E9
:101BE000DF010E9484281F910F910895B0E0A0E0CA
:101BF000ECEFFDE00C94DC285C01E901841795070B
:101C000039F1D801A21BB30B201731071CF0D90101
:101C1000A01BB10B9B012A193B090E94B0286B0144
:101C20007C01CA018A199B098F3F9105B9F0B0F078
:101C3000A2DF55274F2D3E2D2D2DDC010E9484283B
:101C40000C171D071CF4919581959109C80FD91F98
:101C5000CE01CDB7DEB7EAE00C94F828FC01EE0F18
:101C6000FF1FEA5FFE4FA591B491A7019601E6CF51
:101C7000B0E0A0E0EEE3FEE00C94D6284B015C015E
:101C8000EA01280139019B01A70160E071E0CE0162
:101C9000ADDF6C0183019501A70160E071E0CE0129
:101CA000A5DFB601CDB7DEB7E0E10C94F228AAE0DB
:101CB000B0E0EDE5FEE00C94D4284C012A011801B7
:101CC000B42FA52F4817590714F4B82FA92FEB2FBD
:101CD000FA2FE215F3050CF4F801F7FDD9C0B42F83
:101CE000A52F8414950414F4B82FA92FEB2FFA2FE5
:101CF0002E163F060CF4F801E130F2400CF0C8C09B
:101D00005B013A8729873701261737070CF0E4C0B3
:101D1000E616F7060CF0C0C02C014A017A876987E5
:101D200059016A147B040CF4BFC0782D692D9A2DDB
:101D30008B2D48015701120169847A842401BA86E7
:101D4000A986872E962EA92EB82E77FCA1C0A114A5
:101D5000F4E0BF060CF09CC0A614B70409F498C0C8
:101D600081019401A30169857A85C5013FDF8983DB
:101D70009A83EC2DF0E0EE0FFF1FEA5FFC4F2591F8
:101D800034913E832D83B7FE9DC082019401498525
:101D90005A8570E060E0C50129DF7C0109811A8164
:101DA000940149855A8570E060E0C5011FDF8B838F
:101DB0009C834701B12CA12C89859A858130A4E0B0
:101DC0009A070CF482C082019401AC0160E074E0D7
:101DD000C5010CDF8F83988709811A812B813C8193
:101DE00049855A8560E074E0C50100DF20E034E0F9
:101DF000A216B30654F4CD80DE807C010F811885D5
:101E00004B815C81B401C5013FDDE985FA85F7FFAF
:101E100014C081019201A30170E060E0CF01E6DE11
:101E20002C0129813A81A30170E060E089859A85BF
:101E3000DDDE89839A831A861986C101F1E06F1667
:101E4000F4E07F06ACF081019201A30160E074E050
:101E500089859A85CBDE7C0129813A81A30160E0E6
:101E600074E089859A85C2DE1701612C24E0722E08
:101E700029853A85261537055CF4CD80DE807C0106
:101E80008101930149815A81B20189859A85FCDCDF
:101E90002A96E2E10C94F028742F652F922F832F5D
:101EA0002801FA86E98647CF982D892D480112012D
:101EB000492E582E9A2D8B2D570169847A84998743
:101EC0008A8743CF8B829C8277CF89819A814F8288
:101ED000588629853A858CCF89859A85E816F90632
:101EE0000CF41FCF32CFA5E3B0E0E9E7FFE00C949C
:101EF000D428E090E508F090E6080091E3081091FE
:101F0000E408C801BED86C01C801905CBAD88C0145
:101F1000C701B7D85C01C701905CB3D87C019A8334
:101F200089831C821B82BE82AD82B501C6010E94DC
:101F3000400798878F831A870987B701C6010E94D7
:101F400040079195819591099C878B87B501C801C0
:101F50000E9440079195819591099E878D87D88A27
:101F6000CF86B701C8010E9440079A8B898B3CDA63
:101F70008BA78111DBC100E020919C0430919D046E
:101F800040919E0450919F046091A0047091A1041F
:101F9000CE0101960E945707582E20913C073091A0
:101FA0003D072F3F310509F00CF4C4C140910C03EB
:101FB00050910D0360910E0370910F03CA0140937D
:101FC000100350931103609312037093130380580E
:101FD0009F4F909311038093100330933F072093FA
:101FE0003E078091300590913105909333058093A1
:101FF000320520919E0430919F047901890140E0CF
:1020000060E080E00E94E60680579E4F90930906AC
:10201000809308068FEF80937F01539401E00BA714
:1020200021E029A36090C5047090C604E090C70425
:10203000F090C804A090C904B090CA0447019394DA
:10204000262D7A8E698E482D9C8E8B8E6A2DBE8EA3
:10205000AD8E052D3A8D5C8D7E8DCE0101960E9450
:102060005707082F282F30E0A901495C5E4F440F25
:10207000551FFA01E453FB4F20803180F901EE0F28
:10208000FF1FEE0FFF1FE85FFC4F80819181A2814F
:10209000B38160817181CB01C096220F331F220F63
:1020A000331FF901E45FFC4F80839183A283B383E4
:1020B00042535B4FDA012D923C920F5F6701BBEFF9
:1020C000DB1A4C2DDC8ECB8E298D3A8D5C8D6D8D7F
:1020D0007E8DCE0101960E945707482E90E0DC01CC
:1020E000A95CBE4FAA0FBB1FFD01E453FB4F00814B
:1020F000118131E0EFEF2E16310409F00CF430E0DD
:1021000021E00F3F110509F00CF420E0332E3222BC
:10211000FC01EE0FFF1FEE0FFF1FE85FFC4F408139
:1021200051816281738120813181A901405D5F4FBE
:10213000880F991F880F991FFC01E45FFC4F4083B3
:10214000518362837383A253BB4F0D931C9301E0B1
:10215000040DC701995F482F9C8F8B8F298D3A8D75
:102160005C8D6D8D7E8DCE0101960E945707082FE4
:10217000E82FF0E0EE0FFF1FE65CF84F21E08081D2
:1021800091818F3F910509F00CF420E0322280917B
:102190007B01880F880F880F0E94D706680E711C7C
:1021A00087FD7A94262D7A8E698EFAEFFF1A4E2DCE
:1021B000FC8EEB8E32E0B31A6A2DBE8EAD8E3A8D58
:1021C0005C8D7E8DCE0101960E945707782EE82FF8
:1021D000F0E0EE0FFF1FE65CF84F808191818F3FAA
:1021E000910509F00CF46BC0332009F468C082E05B
:1021F000682E650C44244394450C49A1A42EB12CAF
:10220000760184019401462D642D852D0E94E606F9
:10221000F501EE0FFF1FE85FF94F91838083F50111
:10222000EE0FFF1FEE0FFF1FE458FE4F508241825A
:10223000628244E0242E238253E0352E350CA9A07F
:10224000A394B12C86019401432D662D842D0E9408
:10225000E606F501EE0FFF1FE85FF94F91838083DB
:10226000F501EE0FFF1FEE0FFF1FE458FE4F4082F7
:10227000618232822382E5E09E2E950C520CA9A049
:10228000A394A394B12C9601492D652D832D0E9412
:10229000E606F501EE0FFF1FE85FF94F918380839B
:1022A000F501EE0FFF1FEE0FFF1FE458FE4F608297
:1022B0005182928283E0838359A15D5F59A3D72C19
:1022C00010E08091B7041817B8F5E12FEE0FA1E0E8
:1022D000AE0FB0E0A05CBA4F8C91A12FB0E0A45338
:1022E000BB4F6C91F0E0E05CFA4F408190E4490212
:1022F000A0011124242F5C8B4B8BA0E46A02B00157
:102300001124462F7E8B6D8BB0E48B02C00111240B
:10231000682F988F8F8B0D2D3C895E89788DCE012B
:1023200001960E945707D82E1F5FCBCF1BA619A27C
:10233000512C78CE19A276CE88EB94E0E9A1ECA7D7
:1023400030E070E020E013E0DC014D91CD01740F2E
:10235000319FF0011124E05FF94F371708F043C0B7
:102360006081670D5181570D4281470DA62FB0E066
:10237000AA0FBB1FA45CB84F0D90BC91A02DAF3F1E
:10238000B10509F0D4F4A52FB0E0AA0FBB1FA45CDF
:10239000B84F0D90BC91A02DAF3FB10509F06CF482
:1023A000A42FB0E0AA0FBB1FA45CB84F0D90BC9146
:1023B000A02DAF3FB105A1F09CF0FCA404E0F09E7D
:1023C000D0011124A458BE4F6C9311965C931197C1
:1023D00012964C93129713962C930F2D0F5F0CA708
:1023E0003F5F3396BACF2F5F253009F0ADCF29A1DB
:1023F000822F90E09C01220F331F220F331FA9016F
:1024000044585E4F58A34F8F880F991FDC01A85F77
:10241000B94FBDABACABBCA5BAA7E72DF0E0F9ABAB
:10242000E8ABFCA5F9A0FF1608F468C06CE0A62E86
:1024300063E0B62E7CE3872E77E0972EC12C612CCB
:1024400077247394DC1090C25AE0E52E56E0F52E06
:1024500000E811E091E0EAA59E1708F0F5C2D70167
:102460006D917D917D01F80181909190A190B19045
:102470008F01892F282F30E0A90143565F4F440F69
:10248000551FFA01E453FB4F0190F081E02D4253B8
:102490005B4FE617F707E0F4DA01ED93FC93D901FF
:1024A000AA0FBB1FAA0FBB1FA458BE4F220F331F7A
:1024B000220F331FF901E858FE4F4080518062809F
:1024C00073804D925D926D927C921397815091F63C
:1024D000282F30E0F901EE0FFF1FE85FF94F7183FD
:1024E0006083220F331F220F331FF901E458FE4F80
:1024F00080829182A282B3829F5FADCFAF8DB8A15F
:10250000BC91B8A7EF8DF8A1F181F9A7AF8DB8A163
:102510001296CC9012971396BC91BDA7F8A4EF2DFC
:10252000F0E0EE0FFF1FE45CF84F208131813BA308
:102530002AA339A5E32FF0E0EE0FFF1FE45CF84F6C
:10254000408151815DA34CA36C2C712CF301EE0FE3
:10255000FF1FE45CF84FA080B180552453948AA1FA
:102560009BA18F3F910511F00CF0512CACA1BDA1A6
:10257000AF3FB10509F014F4689451F8BFEFAB1602
:10258000B10409F014F4689452F8F30128A939A9A8
:10259000E21BF30BE453FB4F808130E483027001B4
:1025A000112449A5842E912CF40188A999A9E81B2E
:1025B000F90BE453FB4F008190E4090280011124E0
:1025C000A8A52A2E312CF10128A939A9E21BF30B69
:1025D000E453FB4F208140E42402900111244C2D50
:1025E00069A58A2F0E94E6069BAB8AABACA9BDA960
:1025F0008D939D93BDABACAB252D30E0C901019708
:1026000085219323892B09F4C5C0B2E6BD1508F4D2
:102610007DC0880C991C880C991CF401E45FFC4F68
:102620004F01660C771C660C771C9301245F3C4FAE
:102630003FA32EA33101660C771C660C771CA30107
:10264000445F5C4F3A01DA016D917D918D919C91CF
:1026500050FC65C02080318042805380EAA0FBA0FE
:102660008B019C014CA15DA1C201B10101DB1B01E9
:102670002C01F3010081118122813381AEA1BFA120
:102680006D917D918D919C91EAA0FBA0A501F0DA5E
:102690002D2D30E0F901EE0FFF1FEE0FFF1FE45F5D
:1026A000FC4F2082318242825382220F331FF90174
:1026B000E45CF84F20E031E03183208321E02D0DF0
:1026C000422F50E0FA01EE0FFF1FEE0FFF1FE45FF5
:1026D000FC4F6083718382839383CA01880F991FA3
:1026E000FC01E45CF84F40E051E051834083E8A5F1
:1026F000AF8DB8A1EC9311962C9311971296DC92A2
:102700001297FDA51396FC93D394D39499A19F5F40
:1027100099A3AF8DB8A11496B8A3AF8F82CE51FC08
:102720001DC00081118122813381ECA0FDA04AA14E
:102730005BA19EDA1B012C01D4010D911D912D91FD
:102740003C91EEA1FFA16081718182819381ECA017
:10275000FDA0A5018DDAF9A5F8A79ACFAEA1BFA17A
:102760000D911D912D913C9175014AA15BA180DADB
:102770001B012C01EEA1FFA1008111812281338177
:10278000D4016D917D918D919C914CA15DA170DAE8
:10279000C8A67ECF552009F4B9CF62E6F62EFD1407
:1027A00008F4B4CF0AA5043608F0B0CF880C991C01
:1027B000880C991C9401245F3C4F3FA32EA3660C08
:1027C000771C660C771CA301445F5C4F5FA74EA784
:1027D0004101880C991C880C991CC401845F9C4F92
:1027E0004C0150FE77C0D9010D911D912D913C9166
:1027F000FC016081718182819381ECA0FDA04AA1DE
:102800005BA136DA2B013C01AEA5BFA50D911D9150
:102810002D913C91F40160817181828193817501D8
:102820004AA15BA125DA2D2D30E0F901EE0FFF1F43
:10283000EE0FFF1FE45FFC4F408251826282738281
:10284000220F331FF901E45CF84F20E031E03183BF
:10285000208321E02D0D422F50E0FA01EE0FFF1FE3
:10286000EE0FFF1FE45FFC4F6083718382839383CD
:10287000CA01880F991FFC01E45CF84F40E051E069
:1028800051834083AF8DB8A1DC92E9A51196EC93FA
:1028900011971296CC921297FDA51396FC93FAA469
:1028A000EF2DF0E0DF01AA0FBB1FA85FB94F4AA9C7
:1028B0005BA94D935C93EE0FFF1FEE0FFF1FE458D3
:1028C000FE4FD082C18222835DA553838F2D8F5FFF
:1028D0008AA71ACFAEA5BFA56D917D918D919C91D0
:1028E00051FE23C0EEA1FFA1408051806280738021
:1028F00075018B019C014CA15DA1C301B201B8D946
:102900002B013C01D4010D911D912D913C91EEA123
:10291000FFA16081718182819381EAA0FBA04CA11B
:102920005DA1A6D9C9A6C8A47ECFD4010D911D91E1
:102930002D913C91EAA0FBA0A5019AD92B013C0165
:10294000EEA1FFA10081118122813381AEA5BFA537
:102950006D917D918D919C91ECA0FDA0A50188D9F0
:10296000C9A4B8A5B9A75FCFF50100811181E280A4
:10297000F380D4018D919D914D018F3F9105D1F14F
:10298000CCF1F9D89C01D8010E94CE281B012C0162
:10299000D7010E94CE282114B8E73B064104B4ECCD
:1029A0005B06CCF12114E8E83E06EFEF4E06EBE3C0
:1029B0005E06C4F56115F8E77F078105F4EC9F0713
:1029C000CCF1611508E870070FEF80070BE3900763
:1029D000B4F592018101BFE03695279517950795CB
:1029E000BA95D1F72FE096958795779567952A95B3
:1029F000D1F77B011E5FD50111961C930E93C30185
:102A00008E199F0913969C938E931297C394B4E0EA
:102A1000AB0EB11C17CD212C48E7342E412C44ECD1
:102A2000542EC8CF212C38E8332E44244A943BE35B
:102A3000532EC0CF60E078E780E094ECCACF60E02E
:102A400078E88FEF9BE3C5CF0E9438074CE7842ED0
:102A500041E0942ED12CB12CA12CBAA5BD1509F4BE
:102A60004CC0F401C380FFEFCF121FC0FBA4FF20B6
:102A7000B9F0A0901003B090110380910C039091D5
:102A80000D03A81AB90A60910C0370910D0380918F
:102A90000E0390910F032FEF3FEFA5010E942B0D26
:102AA000D394E4E08E0E911CD8CFD4011296EC9111
:102AB000B4E0EB9FF0011124E45FFC4FE080F18073
:102AC00002811381D4011196EC91B4E0EB9FF001E7
:102AD0001124E45FFC4F2081318142815381D40174
:102AE000EC91B4E0EB9FF0011124E45FFC4F6081B6
:102AF000718182819381DBD8D3CFFBA5FF2309F4B9
:102B000091C085010C5F1F4F80910C0390910D03C4
:102B100022273327201B310B821793070CF482C026
:102B2000E0900E03F0900F03E216F3060CF47AC067
:102B300024E0A20EB21EA816B90608F473C0AE14A3
:102B4000BF0408F46FC00E943B0C89A3C7010E9418
:102B50003B0C5C0183E0169507958A95E1F728EF19
:102B600020032001219F500C112438E0430E511CFA
:102B7000C801880F991F880F991F25E030E069016F
:102B8000C81AD90A3CE0232E312CF12CE12C450146
:102B9000801A910AB40149A14E0D4F8F842F0E94D3
:102BA000AC0A3501600E711EB3018F8D0E94AC0A14
:102BB000B40199A09E18892D0E94AC0AB301892DF9
:102BC0000E94AC0A45018E189F08B40159A1500F0C
:102BD0005F8F852F0E94AC0A37016A0C7B1CB30102
:102BE0008F8D0E94AC0AB40199A0901A892D0E9481
:102BF000AC0AB301892D0E94AC0AD7FC07C0C40CF3
:102C0000D51C88E0480E511C01501109C20CD31C80
:102C100098E0290E311CAFEFEA1AFA0A0E151F05CB
:102C20000CF0B5CF8AA5E596E2E10C94F028EF927E
:102C30000F931F93CF93DF9356D9909179019630DC
:102C400009F073C080913101803208F479C0C091DD
:102C50005E014C2F419580917601E12C0AE2882398
:102C600009F472C024E060E08BEE93E00E943F091B
:102C700044E24C1BEE24E39403E021E060915D010B
:102C800088EE93E00E943F09C09131014C2F41959D
:102C9000E12C0CE123E065E086E996E00E943F0923
:102CA000D2E1DC1B0091CC084D2F65E081E0800F64
:102CB0000E94BE0910E0F801EF59FE4F4D2F66E06B
:102CC00081810E94BE09F801E75BFE4F80814D2F94
:102CD00067E08F5F0E94BE09C530E8F586E08C1B77
:102CE000EC2FF0E0EA5BFA4F9F013C5FDF0190E0E0
:102CF0001D929F5F8913FCCF9FEF9183E058FF4F98
:102D00002E173F0799F70DE70C0F8091320186953A
:102D100010E4181B1034F8F4D02FD7FD1AC0612F1F
:102D20008D2F0E949A0BDF5FF8CF80915E018A326F
:102D300018F48D5F80935E01923009F488CF82CFC2
:102D40008F5F8093310183CF23E060E085E194E0E1
:102D50008DCF1F5FDFCF44E64C0FE12C08E121E06F
:102D600067E080ED93E00E943F09DF91CF911F91D2
:102D70000F91EF900895FF920F931F93CF93DF93DE
:102D80008091C5049091C60420919C0430919D04CB
:102D9000821B930B0091C9041091CA042091A004D6
:102DA0003091A104021B130BF12C17FF05C01195E4
:102DB00001951109FF24F39497FF05C06894F1F879
:102DC000919581959109801791073CF46894F2F8E8
:102DD000302F212F8C01832F922F8F3F910511F0DF
:102DE0000CF04EC0FC01EE0FFF1FEA5FFE4F259175
:102DF0003491D8010E94CE28DC01CB0153E0B69576
:102E0000A795979587955A95D1F7182FC92F40E028
:102E1000D42FFE01EE0FFF1FE455FF4F85919491D3
:102E2000FE01EE0FFF1FE255FF4FC591D49160E008
:102E300071E0611B71090E941208D19F9001C19F2E
:102E4000210D1124311D820F931FF2FE06C020E0D8
:102E500030E4A901481B590BCA01F1FE06C020E06D
:102E600030E8A901481B590BCA01F0FE03C0919537
:102E700081959109905CCDB7DEB7E5E00C94FD2813
:102E80000E94BB0D9C01D8010E94CE28DC01CB0121
:102E90003BE0B695A795979587953A95D1F7B5CF2D
:102EA000B0E0A0E0E6E5F7E10C94DF287C018B01BF
:102EB000D22EFC0180819181461B570B57FF02C027
:102EC0004D5F5F4F5595479555954795EA01C81B4E
:102ED000D90B6D2D0E943908080F191F6D2DCE01D9
:102EE0000E943908F70120813181820F931F91835D
:102EF0008083C801CDB7DEB7E7E00C94FB28AF9222
:102F0000BF92CF92DF92EF920F931F93CF93DF93F5
:102F100000D000D000D0CDB7DEB749835A836B8391
:102F20007C838D839E83590149815A8181EFC82E0C
:102F300088E0D82EF6016081718120E487EE98E068
:102F4000AFDFF601918380834B815C816281738165
:102F500020E489EE98E0A4DFF601938382834D811B
:102F60005E816481758120E48BEE98E099DFF60143
:102F7000958384836091E5087091E6082E2DA50164
:102F80008DEE98E08DDF9093E6088093E5086091E0
:102F9000E3087091E4082E2DA8018FEE98E080DF01
:102FA0009093E4088093E30826960FB6F894DEBF6A
:102FB0000FBECDBFDF91CF911F910F91EF90DF90AA
:102FC000CF90BF90AF9008950DB407FEFDCF8EB5A2
:102FD0001EBC08958EBD00000DB407FEFDCF8EB55A
:102FE0000895CF92DF92EF926B01E82E0090B1042A
:102FF000D00C0090B204E01C599883E0EBDF8E2DDA
:10300000E9DF8D2DE7DF8C2DE5DF1EBCEF90DF9033
:10301000CF900895EF92FF920F931F93CF93DF937A
:103020008A017901DEDFE80110E000E00F5F1F4F49
:10303000E016F10651F0C8DF8993E016F106B0F70B
:10304000CDB7DEB7E6E00C94FC280DB407FEFDCF4B
:103050008EB5599A8883F4CF809375010E94620AD5
:1030600023E130E041E651E0D5DF1092CC0808952D
:1030700080E0F2DF80E00E94480AE9E4F1E011928A
:1030800081E0EB35F807D9F71092790186E0ECE0A2
:10309000F1E0A1EFB8E001900D928A95E1F780E0B0
:1030A00090EE9093E6088093E50880E09FE090938F
:1030B000E4088093E3088091760181708093760123
:1030C00080E2809331018AE280935E011092740164
:1030D000089580E0C1DF80E00E94480AC9CF0895CA
:1030E0003FB7F89480912D0190912E01A0912F016E
:1030F000B091300126B5A89B05C02F3F19F001966D
:10310000A11DB11D3FBFBA2FA92F982F8827BC0141
:10311000CD01620F711D811D911D42E0660F771F69
:10312000881F991F4A95D1F708958F929F92AF9269
:10313000BF92CF92DF92EF92FF926B017C01D0DFC2
:103140004B015C01C114D104E104F104B1F0C8DF0A
:10315000681979098A099B09683E734081059105C0
:1031600088F381E0C81AD108E108F10828EE820E40
:1031700023E0921EA11CB11CE5CFFF90EF90DF90E1
:10318000CF90BF90AF909F908F90089565E070E0D2
:1031900080E090E0CACF0895B0E0A0E0E2EDF8E171
:1031A0000C94DA286C017B018A0180910B01882341
:1031B00009F45BC08091E208882309F456C080912D
:1031C000D40880FF05C08091E00082608093E00019
:1031D000E801B12C8AEFA82E93E0892E2AE3922EE3
:1031E000209711F4BB20D1F10E948304811109C002
:1031F000AA94AA20D1F161E070E080E090E095DF30
:10320000EFCF8C171D0611F00CF08C2F9FB7F894A0
:103210008092E9002091E80025FD02C09FBFE0CF29
:10322000282F30E0C21BD30BF701815020F04191D1
:103230004093F100FACFE20EF31EBB2021F09092F2
:10324000E800B12CEBCF8091E80085FDE7CF9092AC
:10325000E800BB24B394209709F3F3CF5D9884E68C
:103260008093D308101611063CF081E090E0F6013F
:103270009383828310E000E0C801CDB7DEB7ECE0B5
:103280000C94F628EF92FF920F931F93CF93DF9346
:10329000EC01E62E142F842F0E94D706082F80E41D
:1032A000810F0E94D706182F8E2D0E94D706F82E68
:1032B00080E48E0D0E94D70688834F2D84039001F1
:1032C000112439839403900111243A831B821C83B7
:1032D000902F91959D83F194FE82482F8403900155
:1032E00011243F839403C00111249887CDB7DEB722
:1032F000E6E00C94FC28ADE1B0E0E1E8F9E10C94E3
:10330000D4284E8B5F8B688F798F8A8F9B8F322E5C
:10331000532E202E412E6E887F88888C998C2A8D82
:103320003B8D3D8F2C8F442D4195652D6195CE01B0
:103330000196A8DF1B861A861D861C86A12CBB84DD
:10334000C12CDD8409811A812B813C814D815E81F4
:103350006F81788589850E94E908288B398B4A8B93
:103360005B8B6C8B7D8B88899989680E791E8A8925
:103370009B89880E991E8C899D892C8D3D8D820F8D
:10338000931F462D7A826982682D9C828B829E8350
:103390008D8390E4E92E022D142D232D352D5A8195
:1033A0007C819E81ACDD6D96E2E10C94F028A6E074
:1033B000B0E0EDEDF9E10C94DC28D62E0E94300A45
:1033C00020917701309178011A82198280E0682F6C
:1033D0008B8384EF8C831E821D82E12C48E2F42EC5
:1033E00000E717E140E05A8174EF80E09E8183DFBF
:1033F00080917701909178019395909378018093D3
:1034000077010E94730FE12C0AE121E040E063E0C4
:1034100086E996E00E943F0901E121E04AE163E08C
:1034200085E896E00E943F098091CC0842E163E084
:103430008F5F0E94BE09ECECF6E08CE497E022E09E
:1034400021938E179F07D9F7ECE4F7E08CEC98E016
:1034500011928E179F07E1F70E94620A23ED30E078
:103460004CE053E0D7DD6FE173E080E00E94820B17
:1034700010E09FE3E92E93E0F92EF70181917F019F
:10348000882349F0803211F41D5FF7CF0E94910A22
:103490001F5F180FF2CF111111506FE373E080E836
:1034A000811B0E94820B00E018E08FE2F82EE02ED4
:1034B000B12CEE2DF0E0E15AFC4FC080F0E2FC159B
:1034C0003CF48C2D0E94910A8F5FB80EE394F1CFEB
:1034D000212F2B0D3327331F2138310534F036E0EF
:1034E000F30E8BE38F15C0F018E0802F90E0FC0105
:1034F000E15AFC4F5F01802F0F5F8E1550F4F501EC
:1035000041915F016F2D812F0E943D0B8F5F180F3E
:10351000F2CF1E5FC110CBCFE12C05E022E040E0EE
:1035200066E08BE796E00E943F09D7FE06C08091D7
:103530007501882371F181508FDDD4FE06C0809122
:103540007501813041F18F5F87DDD5FE09C0809123
:10355000CC08811102C08091610181508093CC0818
:10356000D6FE0CC08091CC08209161012150330B14
:103570008217130691F08F5F8093CC0880917401BD
:10358000883068F48F5F809374012696EAE00C948B
:10359000F82881E0D1CF80E0D7CF80E0EDCFD3FE17
:1035A00010C080917601882341F082E080937901F8
:1035B0008093760110927401E8CF80E00E94480A5F
:1035C000E4CFD2FEE2CF54DDE0CFA6E0B0E0EBEEF8
:1035D000FAE10C94DE28D62E86E0E5ECF4E0DE017C
:1035E000119601900D928A95E1F720915B0130913F
:1035F0005C01E12CB4E1FB2E00E717E149815A811F
:103600006B817C818D819E8176DE80915B019091C2
:103610005C01939590935C0180935B0110917B0119
:103620001F3F11F0D2FE05C085E080937901109212
:103630007401FDDAE091CC08F0E0E75BFE4F808199
:10364000813009F04FC01F70173008F017E0E12FEC
:10365000F0E0EE0FFF1FE35BF94F45915491E3E873
:10366000F5E08491E8EEF5E0E4913E2F282F0AE59D
:1036700017E0AAEDB7E070E060E0F12CE12CFB016F
:10368000EC57FA4F8491FB01E751FA4FE491DE2E9B
:10369000C82EC601822B932B8E299F297C01EE0C0C
:1036A000FF1C8E299F297C01F694E7948E299F297F
:1036B0008095F801F0808F21F42EF2228F298193DA
:1036C0008F01892F80959C918923932F9423892B97
:1036D0008D935427452754276F5F7F4F79016436B8
:1036E000710521F42696E8E00C94FA289601C7CFDC
:1036F000A6E0B0E0EEE7FBE10C94DF28D62E0E94B6
:10370000300A20917701309178011A8219821C8247
:103710001B821E821D82E12C8CE1F82E00E717E14E
:1037200040E05A8160E07C8180E09E81E4DD809110
:103730007701909178019395909378018093770128
:1037400080917B018F3F11F0D2FE05C082E0809313
:103750007901109274016BDA2696E7E00C94FB284D
:10376000A6E0B0E0E6EBFBE10C94DF28D62E20913A
:103770007701309178011A8219821C821B821E8285
:103780001D82E12C8CE1F82E00E717E140E05A8120
:1037900060E07C8180E09E81AEDD80917701909138
:1037A00078019395909378018093770180917B01C4
:1037B0008F3F11F0D2FE05C082E080937901109214
:1037C000740135DA2696E7E00C94FB28A6E0B0E019
:1037D000ECEEFBE10C94E02886E0ECE9F4E0DE019D
:1037E000119601900D928A95E1F700915F01109179
:1037F000600120915B0130915C0180919E04909169
:103800009F049E5F682F9C838B83E12C86E0F82EBB
:1038100049815A817C818D819E816DDD2696E6E00D
:103820000C94FC28CF93DF93C82FD62FCFDFC7FF90
:103830000AC080915F01909160018054910990933A
:10384000600180935F01C4FF0AC080915F01909185
:103850006001805C9F4F9093600180935F01809135
:103860005F019091600197FD11C0811520E29207E0
:1038700084F49093600180935F01D2FF03C082E0E3
:1038800080937901D4D9DF91CF91089590E080E0C1
:10389000F0CF80E090E2EDCFCF93C62F97DF20915D
:1038A000760192E0211193E080915E01882319F066
:1038B000835080935E01C2FF03C082E08093790150
:1038C000C7FF07C080915D01882381F181508093FB
:1038D0005D01C4FF07C080915D01891749F18F5FC9
:1038E00080935D01C3FF1FC0C0915D01222361F081
:1038F000C11109C08091CC080E94480A82E08093DF
:10390000790110927401C150C11114C080915B0102
:1039100090915C01909378018093770110927B01E4
:1039200087E08093790183D9CF910895892FCFCFF4
:1039300080E0D6CFC13011F488E0F3CFC23099F7E0
:1039400097DBF1CFEF92FF920F931F93CF93DF930B
:10395000C82FD62F3BDF8091330190E09C01369534
:103960002795369527954C2F407609F451C002963D
:10397000820F931F8F3F910508F052C0809333014F
:10398000C5FF0AC020915B0130915C01281B390BF7
:1039900030935C0120935B01C6FF0AC020915B015C
:1039A00030915C01820F931F90935C0180935B01C7
:1039B000C7FF05C0809132018E5F80933201C4FF42
:1039C00005C080913201825080933201C091320152
:1039D000C23048F5C2E0C0933201809131018823A2
:1039E00019F0815080933101809174018830F8F48E
:1039F0008F5F80937401D2FF05C086E080937901C8
:103A000010925D0114D9CDB7DEB7E6E00C94FC2826
:103A10000197821B930B09F0ADCF81E090E0AECF10
:103A20008FEF90E0ABCFC7FFD6CFC0E8D4CFD3FFA6
:103A3000E2CF00915B0110915C01C8010E94410836
:103A40007C01C801905C0E9441088C0186E0ECE991
:103A5000F4E0A3E4B1E001900D928A95E1F76C2FB8
:103A6000C7010E94390890933E0180933D016C2F5D
:103A700088279927801B910B0E9439089093420157
:103A80008093410183E08093790164E670E084EBE8
:103A900090E00E94A606AFCFAEE3B0E0E2E5FDE124
:103AA0000C94D42824E02DAB80913F0190914001EB
:103AB000C09740913D0150913E01411530EC5307B4
:103AC0000CF41BC3411560E456070CF019C3509366
:103AD0003E0140933D018115A0EC9A070CF413C3FD
:103AE0008115B0E49B070CF011C3909340018093C3
:103AF0003F0120914101309142012115E0EC3E0748
:103B00000CF407C32115F0E43F070CF005C3309314
:103B100042012093410140585F4F60919C04709195
:103B20009D04650F711D57FD7A9570939D046093F8
:103B30009C0480589F4F40919E0450919F04490FD0
:103B4000511D97FD5A9550939F0440939E04205811
:103B50003F4F8091A0049091A104830F911D37FDE8
:103B60009A959093A1048093A0042091BE042EAF57
:103B70008CE397E099A788A71CAA9EADACA99A17D9
:103B800009F4E5C2E8A5F9A5908081800281F6815B
:103B9000FCA7A8A5B9A51796BC91BEA7E8A5F9A54D
:103BA0008381E0909C04F0909D04F0E48F02E01883
:103BB000F1081124A8A5B9A514968C91A0909E0493
:103BC000B0909F04B0E48B02A018B1081124E8A5BE
:103BD000F9A59581C090A004D090A104F0E49F02C3
:103BE000C018D10811242CA5211104C03EA53323EF
:103BF00009F446C04EA56CA5CE01019643DB3A8080
:103C00005B806C816AA78D8188AB9E819AAB2F8087
:103C1000488419856981C7010E9406083C016AA58C
:103C2000C5010E940608680E791E622DC6010E9419
:103C30000608680E791E632DC7010E9406081C0144
:103C400068A9C5010E940608280E391E642DC60108
:103C50000E940608280E391E652DC7010E9406081D
:103C60002C016AA9C5010E940608480E591E612F41
:103C7000C6010E9406086201C80ED91E51017301D7
:103C8000A0E19A9EA0011124B0E18B9E4001112475
:103C9000E0E10E9F80011124EE27FF27E41BF50BC6
:103CA000FBA7EAA7DA01AE0DBF1DEE16FF064CF02A
:103CB000412C512C32014E155F0544F4D701A41B51
:103CC000B50B9D010E94C8282B013C0122243324FE
:103CD00028183908D401AA0DBB1DA214B30434F06E
:103CE0008A149B0454F4D501A819B9099D010E94B6
:103CF000C828460E571E681E791EEE27FF27E01BB8
:103D0000F10BD801AC0DBD1DCE16DF0634F00C153D
:103D10001D0554F4D601A01BB10B9D010E94C828BB
:103D2000460E571E681E791E21E0421620E45206F8
:103D30006104710408F0D8C13E2D2F2D8AA59BA5E2
:103D4000E816F90614F43AA52BA5832F922F4817ED
:103D500059070CF4CA01D701A81BB90BBBA3AAA32E
:103D60003A2D2B2DA214B30414F4322D232D832FBE
:103D7000922F881699060CF4C4019501281B390B63
:103D80003DA32CA33C2D2D2DCE16DF0614F43E2F83
:103D90002F2F832F922F081719070CF4C801D60173
:103DA000A81BB90BCD01BFA3AEA34AA15BA16CA117
:103DB0007DA19FA10E9460082AA33BA34CA35DA301
:103DC0006EA37FA3BCA5B111AAC1EEA5E111A7C145
:103DD0002AA03BA04CA05DA00EA11FA1A0903F0176
:103DE000B0904001C0904101D0904201B10180915A
:103DF0003D0190913E010E941F087C01B201C50166
:103E00000E941F08E80EF91EB801C6010E941F0893
:103E1000E80EF91E1E141F040CF466C1E114FCEF39
:103E2000FF0634F462E370E088E790E00E94A606A3
:103E300020913D0130913E013DA72CA7B101C70162
:103E40000E941F08ACA4BDA4A81AB90A80913F0122
:103E5000909140019FA78EA7B201C7010E941F0841
:103E6000CEA4DFA4C81AD90AA0914101B0914201A1
:103E7000B9ABA8ABB801C7010E941F084A2DBD8E7F
:103E8000AC8E6C2DDF8ECE8EE8A9F9A9E81BF90B5C
:103E9000CF01F9A3E8A35D8D7F8D99A10E946008F1
:103EA0002C8F3D8F4E8F5F8F68A379A32C8D3D8D16
:103EB00039AF28AF8E8D9F8D9BAF8AAFA8A1B9A1D6
:103EC000BDAFACAFE0913701F0913801FBABEAAB8D
:103ED0002091390130913A013FAB2EAB80913B01EB
:103EE00090913C019BA78AA7B801C9010E941F08B5
:103EF0007C01B2018AA59BA50E941F08E81AF90A55
:103F0000B1018AA59BA50E941F085C01B8018AA97E
:103F10009BA90E941F08A81AB90AB2018AA99BA9E5
:103F20000E941F086C01B1018EA99FA90E941F0861
:103F3000F7FE03C0AFEFEA1AFA0AF594E794ECA58E
:103F4000FDA5EE19FF097F01B7FE03C0FFEFAF1A11
:103F5000BF0AB594A7948EA49FA48A189B08C81A78
:103F6000D90AD7FE03C02FEFC21AD20AD594C7943C
:103F7000A8A8B9A8AC18BD08B101C7010E941F08C4
:103F80006C01B201C4010E941F08C80ED91EB801FD
:103F9000C5010E941F08C80ED91E68AD79ADC701C2
:103FA0000E941F087C016AAD7BADC4010E941F08FE
:103FB000E80EF91E6CAD7DADC5010E941F08E80E2C
:103FC000F91EF194E194F10860EC882799278C1987
:103FD0009D090E9439083C016C187D0865E5C70100
:103FE0000E9439086C01B101C3010E941F084C01F5
:103FF000B201C3010E941F085C01B801C3010E9405
:104000001F087C0168AD79ADC6010E941F08880EAB
:10401000991E6AAD7BADC6010E941F08A80EB91E8D
:104020006CAD7DADC6010E941F08E80EF91E8CA57F
:104030009DA5880D991D90933E0180933D018EA50D
:104040009FA58A0D9B1D9093400180933F0188A9F5
:1040500099A98E0D9F1D9093420180934101B80153
:10406000C5010E941F086C01B201C7010E941F0810
:10407000C81AD90AB101C7010E941F087C01B80102
:10408000C4010E941F08E81AF90AB201C4010E9483
:104090001F088C01B101C5010E941F08CC0CDD1C5A
:1040A000CC0CDD1CAAA9BBA9CA0EDB1ED09238011C
:1040B000C0923701EE0CFF1CEE0CFF1CEEA9FFA90D
:1040C000EE0EFF1EF0923A01E0923901081B190B27
:1040D000000F111F000F111F2AA53BA5020F131F70
:1040E00010933C0100933B013CA93F5F3CAB88A58A
:1040F00099A5089699A788A740CD40E050ECE7CC59
:1041000040E050E4E4CC80E090ECEFCC80E090E440
:10411000ECCC20E030ECFBCC20E030E4F8CCAAA0E2
:10412000BBA0CCA0DDA0EEA0FFA009811A812B814D
:104130003C814D815E816F81788589850E94E90887
:104140002AA33BA34CA35DA36EA37FA341CE2091E2
:10415000370130913801032E000C440B6FEF70E0F3
:1041600080E00E94BF28A82FCB0180589F4FAF4FFF
:10417000892F9A2FAA279093380180933701209195
:10418000390130913A01032E000C440B6FEF70E0BF
:1041900080E0F5D7A82FCB0180589F4FAF4F892FD4
:1041A0009A2FAA2790933A018093390120913B01DD
:1041B00030913C01032E000C440B6FEF70E080E067
:1041C000DED7A82FCB0180589F4FAF4F892F9A2F52
:1041D000AA2790933C0180933B019DA991509DABF0
:1041E000911162CC809141019091420197FF03C0EF
:1041F00091958195910920913F013091400137FFC0
:1042000003C0319521953109821793070CF4C90138
:1042100020913D0130913E0137FF03C0319521953A
:104220003109821793070CF4C9018F3F910509F0FA
:10423000BCF5809136018F5F809336018091340107
:10424000909135018830974070F5809136018E311C
:1042500050F580919E0490919F0481159C4E0CF026
:104260009CC086E0E3E4F1E0ACE9B4E001900D929B
:104270008A95E1F786E0EDE3F1E0DF01282F1D925A
:104280002A95E9F7E7E3F1E0DF011D928A95E9F766
:10429000E091CC08F0E0E75BFE4F80818E5F1DC0AF
:1042A00010923601CBCF109235011092340110924A
:1042B000360186E0EDE3F1E0DF011D928A95E9F732
:1042C0000E94BB1690935C0180935B01E091CC0847
:1042D000F0E0E75BFE4F80818F5F808382E0809318
:1042E00079010E94BB162C0186E0ECE9F4E0DE01C6
:1042F000569601900D928A95E1F76E887F88888C9A
:10430000998C2A8C3B8C4091E40841956091E60899
:104310006195CE0101960E9442191B861A861D8660
:104320001C8680E0E82EA12CBB84C12CDD848EE0AD
:10433000F82E09811A812B813C814D815E816F812C
:10434000788589850E94E908288B398B4A8B5B8B9D
:104350006C8B7D8B88899989680E791E8A899B89E7
:10436000880E991E8C899D89820D931D462D7A8217
:104370006982682D9C828B829E838D8390E1E92ED9
:1043800004E619E192015A817C819E810E947F1787
:104390000E941716EE96E2E123C70E94F4098823D3
:1043A00009F49FCF2091E5083091E608E091CC0810
:1043B000F0E0E75BFE4F80818F5F808384E0809335
:1043C000790130935C0120935B0110927B01809115
:1043D00071008D7F809371001092A90487E499E0A9
:1043E0009093A8048093A7049093A5048093A404B9
:1043F00084EB90E0909348098093470984E690E02D
:1044000090934A09809349092CE231E030934C099A
:1044100020934B0990934E0980934D0980E090E8DA
:104420009093500980934F090E9401065ACFAAE049
:10443000B0E0ECE1F2E2B8C6D62E28E0829F30016F
:10444000112420EF222E23E0322E412C512C230167
:1044500038EA832E33E0932EA12CB12C53012FEF99
:104460003FEF40E550E0C301B4010E942B0D30E066
:1044700020E040E450E0C301B4010E942B0D38E479
:10448000398781E08A879A85D91608F441C08985E1
:104490000E94D70618E4282FA103C0011124892FF8
:1044A000990F990B9C0128553C4F3A8329838985A4
:1044B00080540E94D706382FB103C0011124930104
:1044C000290F311D97FD3A953C832B8388EA882E6E
:1044D00083E0982E530189819A819E838D8338874A
:1044E0002F8394E0C92EED80FE800F811885A201F4
:1044F0009101C301B4010E94570E29803A804B807C
:104500005C809A859F5F9A872985285F2987BBCF22
:104510002A96E2E165C6EF920F93CF93C82F0E94CF
:10452000380760E080E00E94AF0B69E084E00E9401
:10453000AF0B80917401803130F48F5F80937401F0
:1045400010927B011EC08C2F8C70D1F380917B0167
:104550008032B9F49091760191110BC0C2FD09C06F
:104560008091CC08209161012150330B82171306F2
:1045700071F5892F90E095958795809376010E943B
:104580003818C3FF28C060917B01C0E0809176019C
:1045900081110CC085E14BDFEE24E3940FE021E0B4
:1045A0004EE662E08DE596E00E943F096C2F8DE2B9
:1045B0003EDFEE24E3940FE021E04EE665E08CE67A
:1045C00096E00E943F09CF910F91EF9008958F5F81
:1045D0000E94480AD6CFC2FF04C0C0917B0160E0B0
:1045E000D5CFC0E0FCCFEF920F93CF93DF938091B4
:1045F0007401883048F58F5F809374010E94730FB7
:10460000E12C0DE422E042E361E089EE94E00E94B7
:104610003F0921E042E364E08CE994E00E943F0915
:104620008091760109E4C1E3882311F00FE7C1E529
:104630000C1778F1D0E26D2F8C2F0E94280BDF5FD2
:10464000D932C9F7CF5FF4CFC091B00463FF0DC07A
:1046500089E08093790182E090E024D5C81771F257
:104660006C2F82E090E026D5C9CF62FF08C0CC2332
:1046700019F00E94E205C2CF0E94E705BFCF607625
:1046800009F4BCCF8091760191E08927809376016F
:10469000B5CF8091B00409E0811101C004E0E12CA4
:1046A00021E047E767E083E994E00E943F09DF915A
:1046B000CF910F91EF9008951F920F920FB60F9226
:1046C00011248F939F938091E1009091E100937F5B
:1046D0009093E10083FF0FC01092E90091E0909366
:1046E000EB001092EC0092E39093ED001092E20840
:1046F00098E09093F00082FF22C093E09093E9004D
:104700009091F200992319F09AE39093E800909128
:10471000D308992341F09091D30891509093D308F6
:10472000911101C05D9A9091E108992341F0909117
:10473000E10891509093E108911101C0289A84FFFB
:1047400018C08091E2008E7E81608093E2008091AB
:10475000E1008F7E8093E1008091D4088E7E80619D
:104760008093D4089F918F910F900FBE0F901F9050
:10477000189580FFF7CF8091E2008E7E8061809354
:10478000E2008091E1008E7E8093E1008091D40868
:104790008E7E8160E5CF1F920F920FB60F9211248B
:1047A000CF92DF92EF92FF920F931F932F933F933D
:1047B0004F935F936F937F938F939F93AF93BF9329
:1047C000EF93FF93CF93DF93CDB7DEB76C97DEBF48
:1047D000CDBF1092E9008091E80083FF25C068E01A
:1047E000CE0145960E94CD0582EF8093E8008D8929
:1047F00087FF39C09091E80090FFFCCF982F90760A
:1048000009F034C19E894F89588D2F89F88C9111F8
:1048100031C0803861F58091D2088093F100109208
:10482000F1008EEF8093E8006C960FB6F894DEBF2F
:104830000FBECDBFDF91CF91FF91EF91BF91AF91AF
:104840009F918F917F916F915F914F913F912F91A8
:104850001F910F91FF90EF90DF90CF900F900FBEC0
:104860000F901F9018959EEF9093E800C7CF10927D
:10487000F100D5CF913059F48111D3CF413051059A
:1048800081F68091D2088D7F8093D208CACF933071
:1048900049F48111C6CF4130510519F68091D208F3
:1048A0008260F2CF953041F48091E80080FFFCCF28
:1048B00020682093E300B5CF963009F0A9C00B8D96
:1048C0001C8D22E01092E9001092D0081092CF08BF
:1048D000F2122EC01092CE081092CD080E94A105AF
:1048E0001F8299E09983FA8291E09E8390EA9887EB
:1048F0009AEF99872091CF083091D008275F3F4FDA
:104900003C832B838D831092E9001092D008109283
:10491000CF081093CE080093CD0849E050E0BE01C7
:104920006F5F7F4F80E00E9480050E94A10579CFD4
:104930001093CE080093CD080E949404DC011296D7
:104940000D911C910115110509F451C1D801ED918A
:10495000FC910480F581E02DBE016B5E7F4FC801A4
:104960000995009709F03EC1F80100851185EACF4D
:10497000F3E0FF120EC08F89882309F440C0823013
:1049800061F440E867E080E598E00E9453058111FA
:1049900048CF81E28093EB0047CF813029F440E893
:1049A0006BE084E498E0F1CF833099F70E9494049F
:1049B000DC011296ED90FC908E010F5F1F4F680195
:1049C000E114F10479F0D701ED91FC910680F781B3
:1049D000E02DB801C7010995080F111DF701E0840A
:1049E000F184EECFD8011C92F60101900020E9F786
:1049F0003197BF016C197D0940E0C601C6CF6EE258
:104A000078E0FB01449150E080E80E94800509CFE6
:104A1000973009F4BECF983021F481E08093F10003
:104A200000CF993009F0FDCE837009F0B2CFE3E1F9
:104A3000F1E081E031E096E32191222371F080934F
:104A4000E9003093EB00DF0111972C912093EC00EB
:104A50009093ED008F5F873079F78EE78093EA00BF
:104A60001092EA008F898093E208DBCE8B8D9C8DBB
:104A70001092E9001092D0081092CF089093CE08BF
:104A80008093CD08898D811192C08E899D89913A3C
:104A900049F4813209F07DCF47E050E064E071E0F5
:104AA00080E0B3CF913209F074CF833269F48F89FB
:104AB000988DB0E0A0E08093000190930101A09355
:104AC0000201B0930301ADCE803269F48091E80019
:104AD00082FFFCCF67E084E091E00E94CD058BEF80
:104AE0008093E8009ECE823209F09BCE8F8980931E
:104AF0000B01EEEFFFE7859194918B3F9C4D51F1B7
:104B0000E0E0F8E08091040190910501A091060198
:104B1000B0910701803B9440A105B105F1F480916B
:104B20000B0180FD1AC0EE3F8AE0F80789F587E7A0
:104B300097E791838083809160008093D10888E11A
:104B40009BE00FB6F894A895809360000FBE9093F9
:104B5000600067CEEEEFFAE0D5CF80819181873794
:104B6000974709F05ECEA895809160008861809398
:104B700060008091D10880936000EE3F2AE0F20748
:104B800089F08091FE0A9091FF0A9183808349CE3B
:104B9000808191818737980751F29093FF0A809323
:104BA000FE0AC5CF1092FF0A1092FE0A3ACE0E946A
:104BB0009404DC0112960D911C910115110509F464
:104BC000E8CED801ED91FC910190F081E02DBE017D
:104BD0006B5E7F4FC8010995811123CEF8010085D6
:104BE0001185EBCF181619060CF41BCED2CEF1E0CE
:104BF000FF12BECE62E378E004CF1F920F920FB691
:104C00000F9211242F933F934F935F936F937F9352
:104C10008F939F93AF93BF93EF93FF938091AC04D7
:104C20009091AD04A091AE04B091AF04892B8A2B72
:104C30008B2B09F440C08091AB0481110BC088B16B
:104C400090E4892788B98091AA04882319F088B153
:104C5000805888B98091AC049091AD04A091AE04C5
:104C6000B091AF04181619061A061B069CF4809121
:104C7000AC049091AD04A091AE04B091AF04019743
:104C8000A109B1098093AC049093AD04A093AE0444
:104C9000B093AF04FF91EF91BF91AF919F918F912E
:104CA0007F916F915F914F913F912F910F900FBE28
:104CB0000F901F9018950E940106ECCF1F920F9243
:104CC0000FB60F9211242F933F938F939F93AF931F
:104CD000BF938091B3049091B404A091B504B091B6
:104CE000B60430912C0123E0230F2D3758F501969F
:104CF000A11DB11D20932C018093B3049093B404A3
:104D0000A093B504B093B60480912D0190912E012B
:104D1000A0912F01B09130010196A11DB11D80938A
:104D20002D0190932E01A0932F01B0933001BF91DC
:104D3000AF919F918F913F912F910F900FBE0F9048
:104D40001F90189526E8230F0296A11DB11DD2CF02
:104D5000E7EFF8E01382128288EE93E0A0E0B0E083
:104D600084839583A683B7838DE191E091838083CB
:104D70008FEF9FEF9587848786E594E0909356099F
:104D80008093550980E090E89093540980935309EB
:104D900046983E9A47983F9A0895B0E0A0E0E2ED29
:104DA000F6E20AC2789484B5826084BD84B58160DD
:104DB00084BD85B5826085BD85B5816085BD8091E6
:104DC0006E00816080936E0010928100809181005E
:104DD0008260809381008091810081608093810056
:104DE000809180008160809380008091910082603A
:104DF00080939100809191008160809391008091D7
:104E000090008160809390008091C10084608093C5
:104E1000C1008091C10082608093C1008091C10077
:104E200081608093C1008091C30081608093C30042
:104E30008091C00082608093C0008091C200816038
:104E40008093C20080917A00846080937A00809180
:104E50007A00826080937A0080917A0081608093EA
:104E60007A0080917A00806880937A001092E2083C
:104E70001092D2081092D4088091D700816080935C
:104E8000D70080EA8093D80089B5806189BD89B553
:104E9000826089BD09B400FEFDCF61E070E080E072
:104EA00090E00E9495188091D8008F7C806180935B
:104EB000D8008091E000807F8093E0008091E10045
:104EC0008E7E8093E1008DE08093E200559A209AD7
:104ED00081EC80937C0085B1806F85B984B1877E39
:104EE00084B984B1876E84B95E9A5F988AB1806D07
:104EF0008AB9769A6E9881B3806F81BB899880B3A6
:104F00008D7080BB80E58CBD81E08DBD0E94C61890
:104F10005F9A0E94C6185E985C98EFEDF7E08CEE01
:104F200097E024912EBD00000DB407FEFDCF319611
:104F30008E179F07B1F75C9A81E880936400809197
:104F4000650081608093650082E090E0ABD08823AB
:104F5000E1F00E94E7050E94DA0587FF19C05C981E
:104F600085EA8EBD00000DB407FEFDCF5C9A2E9839
:104F70002F982D982E988091640080628093640011
:104F800081E083BF889513BEFCCF0E94E205E3CF8A
:104F90005E9AE4E1F0E0859194918831954979F544
:104FA000E6E1F0E08491E7E1F0E0E491F82FF0939E
:104FB000B204E093B10459988BEA0E94EA17599A17
:104FC0000E9469188FB7F894C090B304D090B404CD
:104FD000E090B504F090B6048FBFAA24A394B12C3E
:104FE0000CEC14E0C0E0D4E08091600083FF0EC0C0
:104FF000F89487E78093000880930108FFCF82EB45
:105000009FEF9093B2048093B104D5CF2FB7F8945B
:105010008091B3049091B404A091B504B091B6040A
:105020002FBF8C19813230F4803281F3A3BE889572
:1050300013BEECCF8FB7F894C090B304D090B404F3
:10504000E090B504F090B6048FBF0E94DC09809117
:10505000CC080E947A0A0E94F117D8019E01ECEC5C
:10506000F4E098E00DB407FEFDCF5E9800808EB5A9
:105070000EBCB110012C0192215030402AF00000EA
:105080008D93EC3CF90790F3E2F35E9A599A8DB553
:1050900085E1ECE3F8E0A7EBB4E001900D928A958E
:1050A000E1F7A2CFF999FECF92BD81BDF89A992779
:1050B00080B50895262FF999FECF1FBA92BD81BD04
:1050C00020BD0FB6F894FA9AF99A0FBE019608958A
:1050D000052E97FB16F400940FD057FD05D01ED077
:1050E00007FC02D046F408C05095409530952195B4
:1050F0003F4F4F4F5F4F0895909580957095619504
:105100007F4F8F4F9F4F08952BD0A59F900DB49F39
:10511000900DA49F800D911D11240895A1E21A2ED7
:10512000AA1BBB1BFD010DC0AA1FBB1FEE1FFF1F4B
:10513000A217B307E407F50720F0A21BB30BE40B9B
:10514000F50B661F771F881F991F1A9469F76095E2
:105150007095809590959B01AC01BD01CF0108959C
:10516000A29FB001B39FC001A39F700D811D1124A8
:10517000911DB29F700D811D1124911D0895DB01B9
:10518000582FEEDF529F800DA49F800D11240895AB
:10519000E7DF332312F48A1B9B0B01C0E1DFB7FF6B
:1051A0000895821B930B08952F923F924F925F9226
:1051B0006F927F928F929F92AF92BF92CF92DF9227
:1051C000EF92FF920F931F93CF93DF93CDB7DEB78C
:1051D000CA1BDB0B0FB6F894DEBF0FBECDBF099420
:1051E0002A88398848885F846E847D848C849B8477
:1051F000AA84B984C884DF80EE80FD800C811B8185
:10520000AA81B981CE0FD11D0FB6F894DEBF0FBEB3
:10521000CDBFED010895EE0FFF1F0590F491E02D35
:065220000994F894FFCF91
:10522600FFFFFFFF00E1000000000000030D800605
:1052360085F200C1808100000000000000A804CCB7
:0C52460018CA04BF040B05CD04EB0400E3
:00000001FF
