:100000000C94BD120C94E5120C94E5120C94E512BC
:100010000C94E5120C94E5120C94E5120C94E51284
:100020000C94E5120C94E5120C94D3290C94422AFA
:100030000C94E5120C94E5120C94E5120C94E51264
:100040000C94E5120C94E5120C94E5120C94E51254
:100050000C94E5120C94E5120C94E5120C94742C9B
:100060000C94E5120C94E5120C94E5120C94E51234
:100070000C94E5120C94E5120C94E5120C94E51224
:100080000C94E5120C94E5120C94E5120C94E51214
:100090000C94E5120C94E5120C94E5120C94E51204
:1000A0000C94E5120C94E5120C94E51240005800F3
:1000B000001A00004000C040002000005800401A14
:1000C00000000000180028F600FA000010001800D8
:1000D00000F60000E00040F8004000004000F0C0E2
:1000E000000C0000A00040D800C00000A000402884
:1000F00000C000004000304000DC0000441000BCA4
:1001000004BC20004410004404BCE000441000BCC7
:100110000444E000441000440444200020001E0079
:1001200004D600E850001ED6040040E8401000004D
:10013000045000004010004004F000000010405047
:10014000040000002C3A352C393A2932272230207D
:1001500013280E182E1735342B3637252933322223
:100160003130132D28182F2E353A34363837121BDC
:10017000141D1E1F121A1B1D191E0900070F0A0D40
:100180000C110B0E0F131417151C18192522211D05
:10019000201C241023262736102C112A352B292623
:1001A0002B13121505040C0C01080100090B0203A6
:1001B0000B030608050C090801000B060006070FD3
:1001C0000E0A0C1011141617171618161918191DE7
:1001D0001C2021222124252423251D212024011037
:1001E000362523232636102A2C2A2C352726292685
:1001F0002A2B0F1213121415F800F8F80008020049
:10020000FF0100FE020001010002FF00FEFE00FFF0
:10021000FF0002FE00012800F40200F802000818A6
:1002200000F42800E41800E80800080800F80400BA
:10023000E81C00D8FC00E80000D8E800E8E400D89A
:10024000D800E4E800F60404EEFC04EED80000E870
:10025000000AEE04F6EE040AD8001CE80018E400D8
:1002600028080018F80018F800281800181C0028A2
:100270002804E428001C1800082800081800F81CAE
:1002800004D8E404D8D804E4D8041CE404281C04EA
:100290002828041C2804082800F8080028F8042846
:1002A0000804281804F82804F8500078EC003200FC
:1002B00000A00050280028000078005032F4EC0024
:1002C000005000A0140CD800005000A0EC00D80092
:1002D00000100050C40CC40000100020BC0CD00062
:1002E00000100020BC0CB80000100050B40CC4007A
:1002F00000001050B010C40000501000EC04B0001A
:10030000000010500010EC0000721000EC042820D7
:10031000007210003C042820007210003CF8ECE051
:1003200000721000EC04ECE0007210001410C4E045
:100330000050002F3CFA0A00EA50002F14060A0071
:100340001650002F0AFAEC4016500029D006C4407F
:100350001A0114001830201F2913011514182C300D
:100360001F2F291A2B17222E1C0D2A16252812277B
:1003700031211A2D2B22322E0D1D2A253328273408
:10038000310F1310161E19191C1A2326240F1213CD
:1003900016181E191B1C2325260709010C100B110A
:1003A0000A0D110D1616171117191A121F131B24F7
:1003B0002218211E1C1B2226251221202705040C91
:1003C000000B060B02030B0306050C080C010800CA
:1003D00006070908010007010C0F10110E0A161973
:1003E0001712261F1B2324182021D806D8D806EC64
:1003F000E006E1DF06E0E006E3DF06E4DD06E0DC40
:1004000006E1DD06E4DC06E3EC0028E006D8E006C1
:10041000ECEC001E000028E406ECE406D800001E08
:10042000EC00ECEC00D8D80AD8D80AEC00000A148A
:10043000001E00060014000A28000A14FA0028FA18
:1004400000EC041E1406000000D80006EC1406ECB4
:1004500014FAEC0AFA000AFAEC0000000000EC00C2
:1004600006D8EC04ECEC04D800040A14041E000ABC
:100470000028040A28FE000004D8000AEC140AEC44
:1004800014FEEC000400000AD850002800084600C2
:1004900000A00050D808280000A00050280828001C
:1004A00000500050C4F8D800005000503CF8D8006C
:1004B00000180050F600D800001800500A00D800BC
:1004C000001000200000CC00001000200000E4001C
:1004D00000500058C4000000F15000583C000000DB
:1004E000F1500032E4FCD840F35000321CFCD840FC
:1004F0000D4010000004C40000721000C4FCD8209D
:10050000007210003CFCD8E000721000C40C28E01F
:10051000007210003C0C2820001521201F24161703
:1005200023131822111C271B1500211F292417250E
:10053000231826221C282700101112131510161834
:10054000141B17000110121413101916141A1B098A
:1005500000070D0F0E0C150B1314171110181B1A92
:100560001C16191F1A1D1C191D1F05040C0C01084F
:100570000100090B02030B030608050C0908010022
:100580000B060006070D0A0F0C12151A1E1D191E68
:100590001DF800E2F800F60200EB0100EA0200EDAF
:1005A0000100EEFF00EAFE00EBFF00EEFE00ED0AA8
:1005B00004280200E20200F60A041EF6041EF604F5
:1005C00028ECFCF6ECFCE20800F614FCE214FCF665
:1005D0000800E2D8040A28FCF6D8FCF6EC040A1459
:1005E000040A28040A14041E00041E00040AEC0471
:1005F0001E0804E2F804E2EC00E21400E2D8080A63
:100600002800F6D800F628080A14081EEC081EA0D8
:1006100000F800000A0000480010EA00C800004886
:1006200000101600C80000A000180000BE0000A0C6
:1006300010000004B80000001048D804CA000000F0
:1006400010482804CA000020100000040000002008
:100650001000E004F000002010002004F000002052
:1006600010000004E000002D1000E0041020002D18
:100670001000200410E000300013000220001312CC
:10068000241E1823252729282B2D2C122224181547
:10069000232726292B2A2D002212012315012000B1
:1006A000323530312F333736383B3A3C0020220187
:1006B0002123012120322E3531342F3739363B3D6D
:1006C0003A131C1413111C0900070A101F0C0E0BFF
:1006D000001E0E01180D1F161A19171B1B1E0F10D6
:1006E0000F161D1B1005040C0C01080100090B025C
:1006F000030B030608050C090801000B060006079A
:100700000A1D100C0D0E00121E0115181F101619CF
:1007100018171B171E101B0F1D191B0800DCF800F3
:10072000DC0100E60200E5FF00E6FE00E50200E372
:100730000100E2FE00E3FF00E2EC00240800E6F81E
:1007400000E6F800EE0800EE1400000000120600BB
:10075000121400DCFA0012FA020EEC00DC14001293
:100760000000EEEC00EEEC00001400240000000697
:10077000020EEC00121400EE0000240804DCF80461
:10078000DC1404DCEC04DC1404EEEC04EEF40004F1
:10079000EC000CEC040CF4040414000C0C00040C2D
:1007A000040414040C0400000404F0FC0400FC0025
:1007B000F0FC0000FC04F00400F0040400F404F871
:1007C000EC00F8EC04F8F400F81404F80C00F80C51
:1007D00004F81400F85000503CFC140000300030C5
:1007E00000EC1C0000A00050280CC4000050005079
:1007F000C4FCC40000500050C4EC140000200010E1
:10080000B8EC2C0000200010D0EC2C000050001898
:10081000C4EC3600005000583C04EC001050005866
:10082000EC04C440F1500058C4F4EC000F00105028
:10083000B0F0140000001050D8F014000050100068
:10084000C4F03C0000721000C400C420007210000C
:100850003C10C4E0000010201410C4000020100060
:10086000C4F01000005010001410D8000050100008
:100870001410B000000110002427251E312122325F
:10088000200111102426271E3031222E3216180B7B
:100890000C1B17282B29232E221F2C1C1619180C71
:1008A0001A1B282A2B232F2E1F2D2C171C161D2018
:1008B0001F0E230D171D1C1D1E200E2123090007CE
:1008C0000E0A0F1412150C160B1C1D1F1E222022BF
:1008D000212305040C0C01080100090B02030B0382
:1008E0000608050C090801000B060006070E0D0A94
:1008F0001413120C17161E2122D8F61EECF61EE158
:10090000F614E0F615E3F614E4F615E0F617E1F652
:1009100018E4F617E3F61828FE14D8F614ECF614CB
:1009200028FE0014FE0014FE14D8FA1EECFA1E066F
:10093000F61406F608FAF608FAF614D8F600ECF6FD
:1009400000D8FA14D8FA00ECFA14ECFA00D8FEEC4D
:10095000ECFEEC0006ECECFED80006D81406EC1415
:1009600006D82806ECDEF608E6F608DEFA08E6FA0F
:10097000080A06DE0A06E60A0ADE0A0AE6D802ECD9
:10098000EC02D8140AD8280AEC000AEC140AEC008D
:100990000AD85000A000002800003800AD1400EC78
:1009A000E000A000500000C40000100020D400D0DF
:1009B0000000100020D400B80000180050CA00C485
:1009C0000000001050C404C40000501000D804B04F
:1009D00000007210000004EC20007210002804ECEB
:1009E00020007210002804C4E000721000D81CFC23
:1009F000E000721000001CFCE000A00050EC18FCAD
:100A0000000050222200002C002050002000181866
:100A100000000010200004C4000013161420102150
:100A20001E241F17271C1D281A1315162000101E20
:100A300023241726271D2928011000130E150D1435
:100A4000161B19181F25122C2F2D0111101B2219EE
:100A50001F24252C2E2F0D150E0D16150900070D20
:100A60000F0E12131D1C1B17121D1A171B18121A1A
:100A70001F1A1E201F1A1E1B2B2A05040C0C01080E
:100A80000100090B02030B030608050C090801000D
:100A90000B060006070D0A0F121413200B0C0C1A7C
:100AA000201B1C2BE200D8E200ECEC00E1EB00E0A4
:100AB000EC00E3EB00E4E900E0E800E1E900E4E851
:100AC00000E30A0028EC00D8EC00EC0A001CF60059
:100AD0001CF60028E204D8E204EC0A0000F600103C
:100AE0000A0010F606160A0616F60CF4E20CF4E2FA
:100AF00010F40A00ECF60C080A0C08F600000A00D4
:100B0000D81E00ECF600D8F604D8F610080A04D86F
:100B10001E04EC0A0400F610F40A10080A04ECF6AD
:100B20000400F60C100A0C100000E60000DE0004C1
:100B3000E60004DE50005000143C0000A00050D835
:100B400000000000A0005028000000005000783C89
:100B500000320000500078C400320000280050E24B
:100B600000D800002800501E00D8000050002800C7
:100B700000CE00005000180000B60000200010F465
:100B800000C000002000100C00C000005010000049
:100B900004B000003A1000E204CE20003A10001E1B
:100BA00004CEE000731000C4040020007310003C69
:100BB0000400E000731000C4043CE0007310003C2B
:100BC000043C200050003A000A1E00E150003AE2C6
:100BD0000A3C40E150003A1E0A3C401F5010000001
:100BE00004EC000017151211201422231F1D3521BB
:100BF0000B322D2F2B0C1725151116202236231DF5
:100C000024350B30322F312B1B261A0133001B27C2
:100C1000260134330F100E0D120A0E180D0F11108D
:100C20000D13120E19180900070E0A0F141C1121BA
:100C30001F1D1B28291A2D220C2E2C1B2F0C171EB2
:100C40001F05040C0C01080100090B02030B03062D
:100C500008050C090801000B060006070E0D0A1412
:100C60001D1C21221F1B1A281A0B2D0C0B2E1B21B9
:100C70002F17121E0A00D8F600D80100E20200E188
:100C8000FF00E2FE00E10200DF0100DEFE00DFFF08
:100C900000DE0A0A280A00E2F600E20A0A14F60A4E
:100CA00014F60A28EC0014EC002814002814001490
:100CB000D80014140428EC04282800140A000AF6AA
:100CC000000A0A00F6F600F6EC000AD8000A140042
:100CD0000A28000AD80414EC00F61400F628040AC6
:100CE000D8040A2804140A04F6F604F60A00F6F6F4
:100CF00000F6EC00F6F604E2F600EC1400EC0A0054
:100D0000ECEC00EC0A04E2EC04EC1404EC0A04D869
:100D1000F604D8EC04F61404F65000A0E2F0140037
:100D2000005000500AF0000000A00050F610000033
:100D300000500028E210E20000200010D610D4007D
:100D400000200010EE10D40000500018E210CA007D
:100D500000501000E214C4000050001522F20040C0
:100D6000ED500015221E00401350001A2AF80040D2
:100D7000E050001A2A1800402050001530000040B2
:100D8000D3500015301000402D00105032080000E4
:100D900000721000E2F4002000721000E21400E083
:100DA000000F140E1718161B1C1A212925112610C6
:100DB000012A000F15141719181B1D1C21282911B1
:100DC0002726012B2A120E13151614191A181D1E88
:100DD0001C120F0E151716191B1A1D1F1E090007CE
:100DE00011100D10130D2021252023210D24112079
:100DF0000C0B05040C0C01080100090B02030B038A
:100E00000608050C090801000B060006071012135E
:100E10002022230D0A2420250CFB08E2E708E2F239
:100E200008ECF308EBF008ECEF08EBF308E9F20844
:100E3000E8EF08E9F008E8FBF81EFB08ECE708EC2F
:100E4000FBF80A13FA0A13FAF6FBF8F6E7F80A0FAA
:100E5000F8F60FF80A17FE0A17FEF619020A190229
:100E6000F619060A1906F6170A0A170AF6130E0AE1
:100E7000130EF60F100A0F10F6FB08F6FB080A0F08
:100E800008F60F080AE7F81EE708F6FBFCF6E7FC91
:100E90000AFB0C0AE70CF6FB0CE2E70CE2500050F0
:100EA000C4003C0000A00050D810EC0000500050DE
:100EB0003C00EC00005000503C103C00001800507A
:100EC000F2003C0000100020FC0030000010002068
:100ED000FC00480000721000C414EC2000721000E6
:100EE0003C04ECE0007210003C143C200028100090
:100EF000F604500000281000F604280000001050EE
:100F0000EC043C0000500058C40814001050005875
:100F10001408EC400F5000583C0814801050005842
:100F200014083CC00F011000011110000B1D1E1110
:100F3000011B241C18221913201400100B1E1F1152
:100F40001B2324182122130C200D13121617151918
:100F50001A171C1D1A0D0E13161817191B1A1C1E12
:100F60001D0900070E0A0F12131414151217181971
:100F70001A1B1C05041E1E01080100091D02031D89
:100F8000030608051E090801001D060006070E0DD0
:100F90000A141615F60014F6002800001DFF001CA8
:100FA00000001FFF0020FD001CFC001DFD0020FCB8
:100FB000001FEC0028000414D80C00EC0014D8002A
:100FC00014D80028F60414F60428EC0800D8080009
:100FD000EC08EC0008000008EC1400001400EC28F9
:100FE0000000140814280814140828000014000035
:100FF00028000428EC0CEC1404EC280400280C1441
:10100000140C28A000400000380000A000180000C8
:10101000D20000480010EA00C80000480010160086
:10102000C80000A000180000BE0000A010000004CE
:10103000B80000001040D804C80000001040280488
:10104000C800001000A000F8000000A000250CFA65
:101050000040F6A00025F4FA00400AA0001518FE92
:101060000040EDA00015E8FE004013A00018200489
:101070000040E0A00018E0040040201334121433B4
:101080003513323414253300321301332501300077
:101090000030320131330131301D1B1E2316222155
:1010A0001F24181A171A2717212D20162F221D2B3F
:1010B0001C1D1C1B23151621201F18191A1A2A275C
:1010C000212E2D16282F1D2C2B0900070B110A0D80
:1010D0000F0C00120F01140E201E1F1517162321CE
:1010E000240A2629172816222E21202C1D05040D3E
:1010F0000D01080100090C02030C030608050D0987
:101100000801000C060006070B10110D0E0F00134E
:1011100012012514201D1E1518172322210A11263D
:10112000172728222F2E202D2C0800DCF800DC01A8
:1011300000E60200E5FF00E6FE00E50200E3010034
:10114000E2FE00E3FF00E2000024EC00240800E6D9
:10115000F800E6F800EC0800ECEC001400001414B1
:1011600000EC1400DCEC00ECF6FE14F6FE00F200DD
:1011700000F20014EE0414EE040012041412040031
:101180000E00000E00140AFE140AFE0002FC00FE0F
:10119000FC00FEFC1402FC14EC00DC140014F20051
:1011A000ECF6FEEC140024EE04EC1204EC0E00EC61
:1011B0000AFEEC02FCECFEFCEC0804DCF804DC1497
:1011C00004DCEC04DC1404ECEC04ECA0008028004B
:1011D000E00000A00080D800E00000400080400057
:1011E000200000400058C000160000400018C00059
:1011F0003A0000180010B600300000180010CA00B5
:10120000300000402000C008400000002040B0082E
:10121000300000001820E806F80000001820000642
:10122000E800000018201806D800005B10004004F9
:10123000D0E0005B1000C004D02000400046200435
:1012400030400A400033DC023040F9160001242807
:10125000221D1E1A1614002429281D271E001511F0
:1012600020312B2A301C2C332D001415202F312A2D
:101270002E302C32330B0E120135100B0F0E0134B1
:10128000350900070B130A0D110C121813171A1841
:10129000261B1C191F1D1A191D1F21221C2021226B
:1012A000212425232410231105040D0D010801001C
:1012B000090C02030C030608050D090801000C06C1
:1012C0000006070B12130D101112171817191A1C0C
:1012D0001926191726191C1F1F1C211C1B2024212D
:1012E00025212025102523D80020E80020DF001626
:1012F000DE0017E10016E20017DE0019DF001AE237
:101300000019E1001A280020180020D80016E80073
:1013100016080410080420E80010D8001018001067
:10132000280010D80820D80810E808201800002845
:1013300000001400F02800F00000000000F0180089
:10134000E02804F00000E0F40000EC00F0E800E029
:10135000D80000D800F0E800000C00001804E0E815
:1013600004E0D804F00000F8F400F80C00F00C00E1
:10137000E80006F8F406000006F0F406F80C06F0A3
:101380000C06E8F40220F4021040004AD0ECF00011
:1013900013800040E0F4D000004000803004E00002
:1013A000008000402014300000200040F014300085
:1013B00000100018FC14260000100018FC143A005D
:1013C00000400080D0E420000040004A10FCD0C063
:1013D0001340004A300C1080135B1000D0F8D0206E
:1013E000005B10003008D0E0005B100030183020A7
:1013F00000401000F0F8C000000010404008F0006D
:10140000004010001018400000001040E8183000A4
:10141000001516041A1B192425231512161A1E1B53
:101420002427251412151D1E1A282724030102142F
:101430000F121D1F1E282927030001171011131951
:10144000141C231D1704101318191C22230C020A44
:10145000110D0E17150417141519181A181D1A2333
:1014600022242228240D200E08072828030B03021B
:101470000C2605062606090B08280C0B0302260974
:1014800002090A11100D171314181C1D2226280D0D
:101490002120F40E20F40E10F40A10F40A20E0FAD1
:1014A000F0000A17FF0A16000A19FF0A1AFD0A16A9
:1014B000FC0A17FD0A1AFC0A19E0F210F0F21000FB
:1014C000FEE0E0F200F0F200F0FEE000FAF000FAD8
:1014D000E0F0FAE0E0FEF0F0FAF01002F01002E0C6
:1014E0002002F01006E01002002002002006F0208A
:1014F0000600F0F220E0F220100A10200A10100A74
:1015000020200E10000A10100E20000A20000E20CD
:101510008000400000000000400080C0001000007B
:101520004000504000FC00004000204000D8000077
:101530001800103600E400001800104A00E4000013
:10154000001050B0040400000010505004FC0000D3
:10155000A00030D802E70008A0001FD808D6001865
:10156000A0003028021900F8A0001F28082A00E86F
:1015700012131B1F1E10101D1A1B161801042926FA
:1015800028141217131F1C1E101E1D1B13160105F5
:1015900004261928251F101B18271A262325111F7A
:1015A0001A231023251018292727201B2024121B5B
:1015B00020122701290D020B150E0F2421112524BD
:1015C0001115261427000109080000030C03020D61
:1015D00001060701070A0C09000D0C0302010A02AB
:1015E0000A0B15140E242021252224152326180069
:1015F000F42800F42800E81800E82804082804F477
:101600002100F42200F31F00F41E00F32200F12158
:1016100000F01E00F11F00F0D80018E80018EC02DE
:10162000EE0000F8000212140618D8000CE8000CB6
:10163000280618000618280212D804F8D802EE145A
:1016400002120006E8D806E8EC06E80002EE1000F8
:10165000081000F8F00008E800F8000008F000F8B2
:10166000D800F8180008D8040C280008500038D01A
:10167000002E0000500080D000E00000300050F04C
:1016800000D400003000502800D40000100050406A
:1016900000D400001000203800C8000010002038DE
:1016A00000E000000010504404D40000501000304E
:1016B00004C000005010003004E80000801000DC7E
:1016C00004C00000001080BC04E00000400058D8B6
:1016D000001040F04000580C00DC00F00205031838
:1016E0002021020405181F20202325100526201F75
:1016F000231003051328271C2A29271612291D1B2E
:101700001317281C1E2A272816292A1D0B0D03151E
:101710000E0F0011011F182209080002010A01061C
:101720000701070A09000C00030C020A0B0D0C0349
:10173000020B0315140E0010111819222224232362
:101740001F221A00E01A00F42200F42200E0220412
:10175000F42204E01A00EB1B00EC1A00E91B00E87D
:101760001D00EC1E00EB1D00E81E00E9DE001EF26D
:10177000001E0E00E00E00F4E2FC10F60410DE0085
:1017800010F20010E2FC00F60400DE0000F200009F
:10179000F200E0FEFCE4FE04F80EFCE40E04F8DEC9
:1017A00000E0DE04E0DE0400F200F4FE00E0FE00F3
:1017B000F4FE04E00E04E0EC0010EC0000FE00EE8D
:1017C0000E00EE300070E4003400007000300C00B9
:1017D0002400003000B01C00EC00003000101C00A1
:1017E000B400001000101400BC0000100010240011
:1017F000BC00003010001C04B00000441000E404E1
:101800002420004410001C0424200030001D1C046F
:1018100006001830001D1C04F200E83000101C08FF
:10182000FC00003000101C04D400003000121C0228
:10183000DC00133000121C02CC00ED02050328115D
:10184000272412250204052810112413121A181B2C
:101850001614172220231E1C1F1A191816151422DD
:1018600021201E1D1C0B0D03140001211F20262307
:10187000242624250F290E2928271D1B1C2725294E
:1018800019171809080001060701070A09000C00CA
:10189000030C02010A020A0B0D0C03020B031415C0
:1018A00000211E1F2622230F28291D1A1B2726254B
:1018B0001916170800E01400E01400D80800D81426
:1018C00004D80804D80F00E01000DF0D00E00C0081
:1018D000DF1000DD0F00DC0C00DD0D00DCF800285F
:1018E000EC0028EC0418F8040C08041814040C1478
:1018F00000E40800E40802E81402E81402EC08021C
:10190000EC0800F01400F01400F60800F60804FCDF
:101910001404FC1404000804000800061400061453
:10192000000C08001808000CF8000CEC0018F80077
:10193000183000703C000000006800301600F00015
:10194000004410003C04F0E0001820201608DC00E1
:10195000001820201608040000300024F404F04091
:1019600013580030D608F00000300020CC080400E6
:1019700000300010CC08180000100010C40810003F
:1019800000100010D408100000301000CC0C1C0017
:1019900000441000CC0CF020001215111619151A75
:1019A0001C19121615161A191A1B1C0102002C2ECE
:1019B0002B0A0B073033310103021612202325288E
:1019C0001620231A16232328272726242327241BFF
:1019D0001A211A2321171B222324211B21221F062F
:1019E000131F132B13172B2D292B2B17222E2D2BC7
:1019F0002C2A2E2B222C0A2F0B303233080D0910E3
:101A00001306141713181B17080C0D1014131418B1
:101A100017181C1B07060A0D01003B31300E1D0F65
:101A2000051E040912080712060D0C0137360F1D9A
:101A300034351D3538370F3A0F313A301D383038CC
:101A4000393B3A3130393B0E001D050A1E0906129A
:101A5000E004FEEC04F2E008FEEC08F218000E24AC
:101A6000000E0E00FE1800F2FE00F2FE00FE240042
:101A7000FE1804F2F604F2F604FEEC04FEEC040692
:101A80000800FE0800F20E00F20E06FE0806FE0830
:101A900006F20E06F20E0AFC080AFC080AF40E0A08
:101AA000F40E0CF8080CF8E004061800FE0E000412
:101AB0000E00EC0E10F20E10FE0E12EC0E12F20ED4
:101AC00014EA0E14F40E16F40E16EA0E14060E1492
:101AD000FC0E12040E12FE0E16060E16FC2404FE58
:101AE000E0040EEC040EE0080EEC080EE50406E43B
:101AF0000407E70406E80407E40409E5040AE80427
:101B000009E7040A3000900C00180000600030E87B
:101B100000000000300030DC00E80000300010DC85
:101B200000D00000100010D400D80000100010E415
:101B300000D80000300800DC02CC0000202000F4B7
:101B400008F40000202000F4080C0000440800DC29
:101B50000200E0004408000C0200E00022252327D8
:101B60002426222425272524040705121A110118EA
:101B700000202321040607121B1A01191820222312
:101B80001C1F1D1E211F1C1E1F1E20210F050411BE
:101B900002100015131417150B0A02030809030994
:101BA0000C0B020E02050E04030C040C0D0F0E05A7
:101BB000040D0F0203101001130100131312101271
:101BC00011100014151416170C00060000FAE80096
:101BD000EEF400EEF400E6E800E6F402E6E802E6E1
:101BE000EF00EEF000EDED00EEEC00EDF000EBEFBD
:101BF00000EAEC00EBED00EAF400FAE800FAF40089
:101C0000060000060C00120000120C001E00001E50
:101C10000C02060002FAE802FAF40206F60006FEDA
:101C20000006F60806FE0806F60C02FE0C02F60C8C
:101C3000FEFE0CFEF608FAFE08FAF600FAFE00FABE
:101C400050004800003600009000B80000F6000088
:101C5000200010F400C400002000100C00C400009C
:101C60005000100000BC00005010000004B800003C
:101C70002D10001C041C20002D1000E404E42000A2
:101C80002D10001C04E4E0002D1000E4041CE00012
:101C90000010481404CA0000001048EC043600008C
:101CA0000010481404360000001050240400000006
:101CB000001050DC0400000022102200040020006C
:101CC000001048EC04CA0000020503140E1513119D
:101CD0001218281E1F241A020405140F0E131011C7
:101CE0001822281F2924141013151112192218164E
:101CF000271D1C2117051F031A251B1E0402140F84
:101D000010150E111923221620271C262105291F24
:101D10001A24251E28041B261C1D23190E10111B16
:101D200025261D27230E0F100D03021C1D13001F57
:101D30001E09080002010A01060701070A09000C32
:101D400000030C020A0B0D0C03020B0D14151F1FD0
:101D50001A141A1B141C17161B1C141C161D1D19F3
:101D60001319181213191213141C1F151E15121E05
:101D700012181E1E0100F600E40A00E40A00DCF658
:101D800000DC0A04DCF604DC0100E40200E3FF00EE
:101D9000E4FE00E30200E10100E0FE00E1FF00E0FC
:101DA0000004FAFA0400000406060400060000001D
:101DB0000006FA00000000FA0A0024F600241200CF
:101DC000F612000AEE00F6EE000AF600120A001201
:101DD0000A00EEF600EE0A0424F604241204F612B9
:101DE000040AEE04F6EE040AF604120A04120A04C7
:101DF000EEF604EE000046018B02CF0311055106FA
:101E00008D07C608FB092C0B570C7D0D9E0EB90FD4
:101E1000CE10DC11E412E613E014D515C216AA1791
:101E20008A186419381A051BCD1B8E1C4A1DFF1D0C
:101E3000B01E5A1F00200103070F1F3F7FFFFFFE48
:101E4000FCF8F0E0C080FFFFFFFFFF7F5555FF3F2C
:101E50003333AA2A9224FF1F711C9919451755156F
:101E6000B11349121111FF0F0F0F380E790DCC0C61
:101E7000300CA20B210BAA0A3D0AD8097B092409C0
:101E8000D30888084208FF07C107870750071C07C7
:101E9000EB06BC06900666063E061806F405D1055C
:101EA000B00590057205550539051E050505EC04BC
:101EB000D404BD04A70492047D04690456044404B8
:101EC000320421041004FF03F003E003D203C30330
:101ED000B503A8039B038E038103750369035E03A7
:101EE000530348033D03330329031F0315030C0366
:101EF0000303FA02F102E802E002D802D002C802AB
:101F0000C002B902B102AA02A3029C0295028F028A
:101F1000880282027C02760270026A0264025E0219
:101F2000590253024E02490243023E023902340270
:101F300030022B02260222021D0219021402100294
:101F40000C0208020402FF01FC01F801F401F00197
:101F5000EC01E901E501E101DE01DA01D701D4017B
:101F6000D001CD01CA01C701C301C001BD01BA0141
:101F7000B701B401B201AF01AC01A901A601A401EE
:101F8000A1019E019C0199019701940192018F0189
:101F90008D018A0188018601830181017F017D0114
:101FA0007A01780176017401720170016E016C0191
:101FB0006A01680166016401620160015E015C0101
:101FC0005A015801570155015301510150014E0169
:101FD0004C014A01490147014601440142014101C6
:101FE0003F013E013C013B01390138013601350119
:101FF0003301320130012F012E012C012B01290167
:1020000028012701250124012301210120011F01AD
:102010001E011C011B011A011901180116011501ED
:1020200014011301120111010F010E010D010C0128
:102030000B010A010901080107010601050104015C
:10204000030102010101000000AA55AA55FFFFFF8C
:1020500070887090F880C8A89088A8503820F8B888
:10206000A84870A84008C83850A85010A8700003AD
:1020700006090C0F1215181B1E2225272A2D303396
:1020800036393C3E414446494B4E505355575A5CB5
:102090005E60626466686A6B6D6E7071737475768B
:1020A00078797A7A7B7C7D7D7E7E7E7F7F7F7F00E4
:1020B00000240348066A098C0CAB0FC812E215F91C
:1020C000180B1C1A1F2322282526281F2B112EFB34
:1020D00030DF33BA368C39563C173FCE417A441C38
:1020E00047B4493F4CBF4E33519B53F5554258823C
:1020F0005AB35CD75EEB60F162E864CF66A6686DA8
:102100006A236CC96D5E6FE2705472B573047541D9
:10211000766B77847889797C7A5C7B297CE37C890F
:102120007D1D7E9C7E097F617FA67FD87FF57FFE27
:102130007FD5F08D14A1C881CFD9F1AF2000010265
:1021400004081020408000FE02FA2A1202728A72ED
:10215000027A8262827A02FAAA8A02FA2AD3040EE8
:102160001F4E114E00471847005F1551005F055A7A
:102170000047184700511F51005F1551004F104E86
:10218000104F00400040004000FF00400040004071
:102190000040004000400040005F054200511F51D8
:1021A00000411F41004E1151005F045F004000409C
:1021B000004000FF00404040404040404040404020
:1021C000404040404040404E595F405F505F40516A
:1021D0005F5140415F41404040404040407F00707F
:1021E000C8F000F880F80088F8880008F808F808B7
:1021F000F000F8A88800D820D80008F808020303E7
:10220000040404050404030404050504050606FA91
:1022100022FA02728A7202FA828202FAAA8A0202FE
:10222000020202020202020202FE0002000200FAA0
:10223000281200F228F200FA28D20002000200025E
:102240000002000200FF0092A84A00FA20FA007281
:102250008872000AF80A000200020002000200026E
:1022600000FF00761DC81C401C2A000A10061A1127
:1022700000008000800F000000FF00F1C81B5C1B05
:10228000041B2800040804140B00038000000C0049
:10229000F700FF00F6501A991931193C00061B0887
:1022A000140D000F8000000400F300010004B318B7
:1022B0003B18C3172A000006081A0F00F980000017
:1022C00011000700FF00EF4217DC166C162B00040C
:1022D0000408120E00F28000000C000E00FF00F552
:1022E000EE15701510152A00000C0A140C00F08071
:1022F000000009001000FF00F99214111489132A3C
:1023000000060806171100F480F9000D00FF000414
:10231000000CE7124B12CB11360006080422100005
:10232000108000000C00F000FF000C29117B10034E
:10233000103600040610200F00008000000F00007F
:1023400000FF00F2940F250F9D0E2500020A0811D0
:102350001100F18000001100FF00FF000F190EA115
:102360000D190D2C00000C08141100F880FC000C55
:1023700080F8000300F5740CE40B340B37000C04F8
:10238000061A1600008005000F000000FF00F0A4F0
:102390000A1A0A920930000A0A0218110000800085
:1023A000001100F500FF00F1F9087508D5073300AA
:1023B000080A061414000F80FF000700F100FA005D
:1023C0000B1B077F060F063E00080E021C0E0000C6
:1023D0008000000F000000FF00F29105190589043C
:1023E0002A00000A081612000080020011000000F6
:1023F000FF00F6EA035103A9023500060A081B157F
:1024000000FB8000001200EF000200F1F80144011F
:10241000AC003B00020C042A130010800000F700FF
:102420000000FF0000FEFE121E0C007EFE80C0C0F9
:1024300000FCFE12FEFC00CEDE98FE7E00000000D6
:102440000000000000FEFE121E0C00FEFE12FEDC6C
:1024500000FCFE12FEFC007CFE82C6440002FEFE72
:10246000020082FEFE82007CFE82C644007CFE9258
:10247000D6C600000080C0F03C7CF0800000000068
:1024800080E06080C0E060E0000080C0C06060C0AC
:10249000F87F070000E0E000000000C0C00000C0BE
:1024A000F038180C0606068E8E000080C0E06060D2
:1024B000E0800080FC7F07C0F0FCCEC3C34F063035
:1024C000381E0707060602030F1E3830001F3F1E86
:1024D0000301000000001E3F3130180E1F3F301076
:1024E000001F3F3030180C1E3F20001F3F3030309F
:1024F0003818CCFE0F01003E7F616070381F070066
:102500007F7F0000787F030000000000080B0002BE
:10251000020200000904000001020200000524007C
:10252000100105240101010424020605240600010E
:102530000705810310004009040100020A000000A1
:102540000705020240000007058302400000040363
:10255000090412010002EF0201404123368000010C
:102560000102030141726475696E6F204C4C430097
:1025700041726475626F7900BE2C11241FBECFEFCB
:10258000DAE0DEBFCDBF11E0A0E0B1E0E6E0FEE6BC
:1025900002C005900D92AC32B107D9F729E0ACE248
:1025A000B1E001C01D92AE39B207E1F712E1CDEB07
:1025B000D2E104C02197FE010E94FB36CC3BD1073B
:1025C000C9F70E94D92C0C9401370C940000FC012F
:1025D00080913705882311F13FB7F89482E080930A
:1025E000E9002091F200822F90E01816190614F4E9
:1025F00081E090E0882339F0289844E6409336053E
:102600004091F1004083222339F02091F200211102
:1026100003C02BE62093E8003FBF08958FEF9FEFA4
:1026200008952FB7F89483E08093E9009091E80033
:10263000892F807295FF04C09091F20080E4891B7D
:102640002FBF089580912E0581110DC082E08093E7
:102650002A0584E080932B0510922D0510922C05FD
:1026600081E080932E058AE295E00895CF93DF9371
:102670001F92CDB7DEB76983DC01ED91FC9102803A
:10268000F381E02D41E050E0BE016F5F7F4F09957F
:102690000F90DF91CF91089583E08093E9008091BE
:1026A000F200882319F08AE38093E80008950E94DD
:1026B000111390E00895CF93DF931F92CDB7DEB74B
:1026C000FC018485958597FD08C02FEF3FEF358786
:1026D00024870F90DF91CF910895CE0101960E943B
:1026E000E712019719F4898190E0F3CF8FEF9FEF04
:1026F000F0CF0F931F93CF93DF931F92CDB7DEB729
:102700008C01FC018485958597FF0BC0CE01019655
:102710000E94E712019771F4898190E0F801958792
:102720008487F801848595850F90DF91CF911F9163
:102730000F9108958FEF9FEFF1CFFC018485958570
:1027400097FD0BC09FB7F89482E08093E9008091D9
:10275000F2009FBF90E0019608959FB7F89482E041
:102760008093E9008091F2009FBF90E0089540912E
:10277000240550912505209122053091230542170B
:102780005307B4F49091E8009570E1F39091E8005C
:1027900092FD19C08093F100809124059091250548
:1027A00001968F739927892B19F48EEF8093E80097
:1027B000809124059091250501969093250580939D
:1027C000240581E0089580E00895EF92FF920F9331
:1027D0001F93CF93DF93F82E192FE62E042F81E05D
:1027E000860F880F0E94B71383E00E94B713CF2D86
:1027F000D12FEC0EFD2EF11CCE15DF05B9F007FF31
:1028000013C0FE0184910E94B713182F80E00E942C
:10281000B713812321968111EFCFDF91CF911F91C3
:102820000F91FF90EF9008958881EDCF81E0F5CF73
:10283000DF92EF92FF920F931F93CF93DF93D82EE7
:102840008A01EB017B01E40EF51ECE15DF0559F080
:10285000D7FE12C0FE0184910E94B7132196811108
:10286000F4CF0FEF1FEFC801DF91CF911F910F91B0
:10287000FF90EF90DF9008958881EECF0F931F9324
:10288000CF93DF931F92CDB7DEB782E0898342E416
:1028900050E06CE075E280E80E9418140E94221358
:1028A000DC0112960D911C910115110589F0D801DA
:1028B000ED91FC910280F381E02DBE016F5F7F4FAF
:1028C000C801099597FD04C0F80100851185ECCF7A
:1028D00089810F90DF91CF911F910F9108956150E1
:1028E00030F02091F100FC0120830196F8CF289868
:1028F00084E68093360508953FB7F8948091DB0411
:102900009091DC04A091DD04B091DE0426B5A89B73
:1029100005C02F3F19F00196A11DB11D3FBFBA2F71
:10292000A92F982F8827BC01CD01620F711D811D31
:10293000911D42E0660F771F881F991F4A95D1F7B6
:1029400008958F929F92AF92BF92CF92DF92EF92B3
:10295000FF926B017C010E947C144B015C01C1144D
:10296000D104E104F104B9F00E947C1468197909DA
:102970008A099B09683E73408105910580F321E037
:10298000C21AD108E108F10888EE880E83E0981E8B
:10299000A11CB11CE4CFFF90EF90DF90CF90BF90CF
:1029A000AF909F908F90089565E070E080E090E098
:1029B0000C94A1148F929F92AF92BF92CF92DF920C
:1029C000EF92FF920F931F93CF93DF936C017B01E4
:1029D0008A0180910B01882309F45CC0809137053E
:1029E000882309F457C08091290580FF05C0809194
:1029F000E00082608093E000E801B12C8AEFA82E0D
:102A000093E0892E2AE3922E209711F4BB20D9F16E
:102A10000E94111381110AC0AA94AA20D9F161E081
:102A200070E080E090E00E94A114EECF8C171D06AC
:102A300011F00CF08C2F9FB7F8948092E900209150
:102A4000E80025FD02C09FBFDFCF282F30E0C21B6A
:102A5000D30BF701815020F041914093F100FACF60
:102A6000E20EF31EBB2021F09092E800B12CEBCFD8
:102A70008091E80085FDE7CF9092E800BB24B394F5
:102A8000209709F3F3CF5D9884E68093280510160C
:102A900011063CF081E090E0F6019383828310E020
:102AA00000E0C801DF91CF911F910F91FF90EF904F
:102AB000DF90CF90BF90AF909F908F9008958FB18F
:102AC0008095807F669B88601C9B84600895482F5A
:102AD000E82FEF7386FF03C080E48E1BE82FF0E041
:102AE000EE0FFF1FE155FF4D8591949147FF03C005
:102AF0009195819591090895E82FEF7386FF03C0A2
:102B000090E49E1BE92FF0E0E259FF4DE49187FD30
:102B1000E1958E2F0895EF92FF920F931F93CF931D
:102B2000DF93E0919C05F0919D05E45DFE4FC62F7B
:102B3000D0E0CC0FDD1FCE0FDF1FA42FB0E0AA0F17
:102B4000BB1FAE0FBF1F488159816D917C91460F0D
:102B5000571F90E0880F991FE80FF91F808191811E
:102B6000480F591F8091480590914905DC01A01B31
:102B7000B10BB7FF03C0B195A195B109BC016E19A6
:102B80007F0977FF03C07195619571096A177B070B
:102B90000CF4DB01821B930B97FF03C09195819589
:102BA00091098A179B070CF4DC019D010E94EC3609
:102BB00024E0880F991F2A95E1F7840F951FDF9174
:102BC000CF911F910F91FF90EF90089520E0AC01FD
:102BD000D703C0014E03821F312DDE03920B300D4F
:102BE000811D921FFC03920B300D811D921F112439
:102BF00008959C01B603C001EA0300249009810DE9
:102C00001124911D08959C01369FC001279F800DBE
:102C1000911D379F900D269F810D1124911D0895C0
:102C20009C01369FC001269F810D1124911D08959E
:102C30009C013603C0017203800D911D379F900DDA
:102C4000269F810D1124911D08959C013603C0011A
:102C5000729F800D911D379F900D269F810D11242D
:102C6000911D08959C013603C001269F810D1124FA
:102C7000911D0895EF92FF920F931F93CF93DF93CF
:102C8000082FC92F892F0E946715D82F192F81E08F
:102C90008C0F0E9467157C01602F60958D2F912FFE
:102CA0000E943216EC01602FC7010E9432168C0F71
:102CB0009D1F810F911D17FD9A95DF91CF911F9157
:102CC0000F91FF90EF9008955F926F927F928F9295
:102CD0009F92AF92BF92CF92DF92EF92FF920F93AB
:102CE0001F93CF93DF93CDB7DEB72C970FB6F89431
:102CF000DEBF0FBECDBF4F83588769877A878B872A
:102D00009C87CF80D884E984FA840B851C85C70111
:102D1000F7FE04C0882799278E199F09980117FF8D
:102D200004C022273327201B310B821793070CF492
:102D3000C9019601D7FE04C0222733272C193D096B
:102D4000821793070CF4C9018F3F9105B1F0ACF0E5
:102D5000D7FE03C02FEFC21AD20AD594C794F7FE4C
:102D600003C03FEFE31AF30AF594E79417FF02C09C
:102D70000F5F1F4F15950795CACFB601C6010E9478
:102D800018164C01B701C7010E941816880E991E2B
:102D9000B801C8010E941816880E991E38E0532EFB
:102DA000A12CBB24B39450E8652E77247394B5010D
:102DB000C5010E940316BC01C4010E94031696952A
:102DC0008795B5019301281B390BC9010E94031691
:102DD0005C015A945110EBCFBC01C6010E9425162C
:102DE000D82EC92EB501C7010E942516F82EE92E4E
:102DF000B501C8010E9425162D2D3C2D4F2D5E2DAD
:102E0000BC0180E090E02C960FB6F894DEBF0FBEB8
:102E1000CDBFDF91CF911F910F91FF90EF90DF9089
:102E2000CF90BF90AF909F908F907F906F905F906A
:102E300008958F929F92AF92BF92CF92DF92EF92BE
:102E4000FF920F931F93CF93DF93CDB7DEB76897B1
:102E50000FB6F894DEBF0FBECDBF8F829886A986CD
:102E6000BA86CB86DC86ED86FE860F87188B298B8B
:102E70003A8B4B8B5C8B6D8B7E8B8F8B988F0FA1DE
:102E800018A589A49AA4ABA4BCA46F817885C801B5
:102E90000E94E6156C0169857A85C4010E94E615D9
:102EA000C80ED91E6B857C85C5010E94E615C80E2B
:102EB000D91E6D857E85C8010E94E6157C016F854F
:102EC0007889C4010E94E615E80EF91E69897A899D
:102ED000C5010E94E615E80EF91E6B897C89C801C0
:102EE0000E94E6158C016D897E89C4010E94E61559
:102EF000080F191F6F89788DC5010E94E615DA82C7
:102F0000C982FC82EB82800F911F9E838D832C2DC2
:102F10003A814E2D5C81682F7E8180E090E068963A
:102F20000FB6F894DEBF0FBECDBFDF91CF911F91DA
:102F30000F91FF90EF90DF90CF90BF90AF909F9058
:102F40008F9008952F923F924F925F926F927F924F
:102F50008F929F92AF92BF92CF92DF92EF92FF92A9
:102F60000F931F93CF93DF9300D000D000D01F9218
:102F7000CDB7DEB73C0129833A834B835C836D83F5
:102F80007E830F83A6E4B5E009811A818D919C911F
:102F90001197081B190BEB81FC8112968D919C9166
:102FA0001397E81BF90B4D815E8114968D919C91CE
:102FB000481B590B8F81482E512C1201220C331CB7
:102FC00080919C0590919D05280E391E7101A4EDFC
:102FD000EA1AAEEFFA0A9801D8010E94EC364B01CA
:102FE0005C019F01DF010E94EC36860E971EA81E31
:102FF000B91E9A01DA010E94EC36860E971EA81EB1
:10300000B91ED701AD92BC921A830983FC83EB836E
:103010005E834D8300D000D000D0ADB7BEB711960F
:1030200086E0FE01319601900D928A95E1F7F30159
:1030300080809180A280B380C480D580E680F780B4
:10304000008511852285338544855585668577857C
:10305000808991890E94191729833A834B835C8365
:103060006D837E832B813C818D819E81919581959D
:103070009109F201EE0FFF1FEE0FFF1FEE57FD4FFC
:1030800049815A815183408333832283D1018D93B7
:103090009C930F900F900F900F900F900F908F8137
:1030A0008F5F27960FB6F894DEBF0FBECDBFDF91BE
:1030B000CF911F910F91FF90EF90DF90CF90BF9035
:1030C000AF909F908F907F906F905F904F903F90C8
:1030D0002F9008956F927F928F929F92AF92BF929E
:1030E000CF92DF92EF92FF920F931F93CF93DF93D4
:1030F000CDB7DEB765970FB6F894DEBF0FBECDBF74
:10310000188729873A874B875C876D877E878F87EB
:10311000A88AB98ACA8ADB8AEC8AFD8A6888798893
:103120008A889B88AC88BD88602FC3010E94F915EE
:103130006C016885C4010E94F915C80ED91E698505
:10314000C5010E94F915C80ED91E6A85C3010E94E7
:10315000F9157C016B85C4010E94F915E80EF91E72
:103160006C85C5010E94F915E80EF91E6D85C30135
:103170000E94F9158C016E85C4010E94F915080F93
:10318000191F6F85C5010E94F915DA82C982FC8278
:10319000EB82800F911F9E838D832C2D3A814E2DC3
:1031A0005C81682F7E8180E090E065960FB6F89490
:1031B000DEBF0FBECDBFDF91CF911F910F91FF906A
:1031C000EF90DF90CF90BF90AF909F908F907F90C7
:1031D0006F900895EF92FF920F931F93CF93DF9319
:1031E000DC0180E8689FB001112462567A4F30E01C
:1031F000F02EF40E015010E00F5F1F4FFD01942FD1
:10320000549197FD06C0EB01C90FD11DE11013C009
:10321000588331969F5F9F11F3CFA00FB11F3F5F7F
:1032200060587F4F2313EACFDF91CF911F910F9109
:10323000FF90EF9008958881852B8883EACFEF92E5
:103240000F9323E0829FC0011124EE24E39403E056
:1032500021E0805B9F4D0E94EA180F91EF90089546
:103260000F931F93CF93DF93162FEC01C83E83E09B
:10327000D80710F0C7EED3E080E0C436D10520F0C7
:10328000C456D1098F5FF9CF00E0CA30D10518F0DC
:103290002A970F5FFACF882391F04CE5612F0E94A7
:1032A0001F1940E6612F802F0E941F1944E6612FED
:1032B0008C2FDF91CF911F910F910C941F1940E635
:1032C0000023A9F34EE5612F802F0E941F1942E6CB
:1032D000EECF1F93CF93DF93162FD42FC82F8436B2
:1032E00008F0C3E680E0CA3018F0CA508F5FFBCF09
:1032F00042E0882329F04D2F612F0E941F1944E0DE
:103300004D0F612F8C2FDF91CF911F910C941F19BE
:1033100087FD1BC060347105C0F4FB0194E0EE0F23
:10332000FF1F9A95E1F7E078F370E80FF11DE25680
:10333000FA4F6770772781E090E001C0880F6A95A7
:10334000EAF780959081892380830895CF9346176B
:1033500057070CF438C057FD36C0603471059CF532
:1033600087FD31C077FF02C070E060E0C62F4F33A9
:10337000510514F04FE350E0C87F942F987F677099
:103380007727625C714EFB016491FA01E770FF27B9
:10339000EA5CF14E4491E82FF0E080FF232F80E1BA
:1033A000C89FD0011124AE0FBF1FA256BA4F3C9147
:1033B000C9130BC0E62FE4239E2F9095922BE22396
:1033C000E32BE923EC93CF910895862F8095582F16
:1033D000522BE62FE2238E2F832B85238C93A0582C
:1033E000BF4F892F8C1B8850181624F42C93A0589B
:1033F000BF4FF9CF6C91E42FE0958E2F822BE42FF5
:10340000E223E62BE823DECFE62FE770F0E0E25C74
:10341000FE4DE49166956695669590E8699FD001AA
:103420001124A80FB11DA256BA4F8C91E82BEC9332
:1034300008959F92AF92BF92CF92DF92EF92FF9248
:103440000F931F93CF93DF93C82F062F182F110FC1
:10345000110F110FD0E099E0E92EE10E21E1F22EDB
:10346000F10E175E6E2D8D2F0E94041A6F2D8D2F79
:103470000E94041A612F8D2F0E94041ADE5FDA3633
:1034800089F720E8C29FC0011124825E994FFC0198
:10349000AC014C595F4F2AEADF01A058BF4F2C9373
:1034A00020833A96E417F507B9F7FC01E851FF4F7E
:1034B000208388599F4FFC01208310E0C80183516D
:1034C0009B4F5C01D2E0D12CC12CF12C82E0E82E84
:1034D000EC0E992493949C0E4D2F6C2F81E0800F5D
:1034E0000E946919F50181915F01C80ED11C8823E2
:1034F00069F04D2F6E2D0E946919F801E350FE4DC1
:103500008491F80E4D2F692D0E946919D65F0F5FC7
:103510001F4FDC3509F7FF20B1F061E06C0F8F2DF4
:1035200090E00E94301962E06C0FC601DF91CF91EC
:103530001F910F91FF90EF90DF90CF90BF90AF90D1
:103540009F900C943019DF91CF911F910F91FF90B4
:10355000EF90DF90CF90BF90AF909F9008959C0127
:1035600043E0969587954A95E1F737FD906E08956B
:103570002F923F924F925F926F927F928F929F9283
:10358000AF92BF92CF92DF92EF92FF920F931F9371
:10359000CF93DF93CDB7DEB72A970FB6F894DEBF8F
:1035A0000FBECDBF9B838A837A8769875A01390111
:1035B000D886CF824617570764F0E016F1064CF024
:1035C0009E2D8F2D7801092F182F8B2D5B01498798
:1035D0008A8793014A815B81241B350B3D832C83B1
:1035E00047018A189B0897FE03C091948194910823
:1035F000180189859A85281A390A37FE03C0319443
:10360000219431082A2D2770998597709983EA149F
:10361000FB0414F42195277049855A850417150772
:1036200024F489818195877089838A8187709CEFD2
:10363000C92EC80E0C2C000CDD082850330B4C8111
:103640005D81249FC001259F900D349F900D112412
:103650008C9C90018D9C300D9C9C300D1124821B04
:10366000930B0E94AF1A2C0189818850990B9C0101
:103670004C815D81249FC001259F900D349F900D4A
:1036800011242C9C90012D9C300D3C9C300D11245C
:10369000821B930B0E94AF1A6C01AE14BF040CF492
:1036A00045C05FEF598329853A85201731070CF40F
:1036B00040C03FEF3E83EA14FB041CF451E0A51A1E
:1036C000B10889859A85081719071CF401979A870C
:1036D00089878A819B810E94AF1A8C01C30103965E
:1036E0000E94AF1A9B838A83C5010E94AF1A5C01B6
:1036F00089859A850E94AF1A7C019981692E990F5C
:1037000077082E81022E000C330B3A8729874A81D5
:103710005B814017510751F1141415046CF4A60C89
:10372000B71C8C819D81481A590AF6CF81E08983A4
:10373000BACF41E04E83BFCF1C141D044CF4298541
:103740003A85E20EF31E4C815D81C41AD50AF4CF8E
:103750002F813885A701B501802F0E94A6190F5F20
:103760001F4F480C591CC20CD31CD1CF2A960FB640
:10377000F894DEBF0FBECDBFDF91CF911F910F91A7
:10378000FF90EF90DF90CF90BF90AF909F908F9081
:103790007F906F905F904F903F902F9008952F9261
:1037A0003F924F925F926F927F928F929F92AF92D1
:1037B000BF92CF92DF92EF92FF920F931F93CF931E
:1037C000DF9300D01F92CDB7DEB7AA27BB27A41B7B
:1037D000B50B6A177B070CF483C08A179B070CF4A0
:1037E0007FC0DA01BC5FA617B70708F479C0A81735
:1037F000B90708F475C069015B834A835C01CB019A
:103800000E94AF1A8983C5010E94AF1A5C010A8128
:103810001B8183E0169507958A95E1F71B830A8340
:1038200028EF20032001219F500C112418E0410EA5
:10383000511C8A819B81880F991F880F991F25E051
:1038400030E07901E81AF90A10E000E03CE0232EAC
:10385000312C96018A809B808A0C9B1CA401350127
:103860008A819B81681A790AB3018981800F0E943D
:10387000A6199601A401B3018981801B0E94A61993
:10388000960148018A0C9B1CA4013501601A710A3B
:10389000B30189819A81890F0E94A6199601A4011A
:1038A000B3018981EA818E1B0E94A619F7FC0BC027
:1038B000E40CF51CF8E04F0E511C4A815B8141502D
:1038C00051095B834A83E20CF31C58E0250E311C3E
:1038D0000F5F1F4F8A819B81801791070CF0B9CF32
:1038E0000F900F900F90DF91CF911F910F91FF904C
:1038F000EF90DF90CF90BF90AF909F908F907F9090
:103900006F905F904F903F902F900895CF92DF92ED
:10391000EF92FF920F931F93CF93DF93182F092FEE
:10392000E92FF0E0EE0FFF1FCF018A5B914EFC0103
:10393000C591D491FC013296C590D490612F6095C9
:10394000CE010E9410167C01612FC6010E94101644
:103950008E0D9F1DED2FF0E0E80FF91F9F01A12FA5
:10396000B02F0E94D336072F182F292F332780E03E
:1039700090E0A2E0801B910BA20B9C014A2F50E02B
:10398000DF010E94C836DF91CF911F910F91FF9008
:10399000EF90DF90CF900895AF92BF92CF92DF92D9
:1039A000EF92FF920F931F93CF93DF935C01E90196
:1039B0008417950741F1D801A21BB30B20173107DB
:1039C0001CF0D901A01BB10B9B012A193B090E94D5
:1039D000D3366B017C01CA018A199B098F3F91057F
:1039E000F1F0E8F00E94861C55274F2D3E2D2D2D1D
:1039F000DC010E94C8360C171D071CF491958195B7
:103A00009109C80FD91FCE01DF91CF911F910F915E
:103A1000FF90EF90DF90CF90BF90AF900895FC01A2
:103A2000EE0FFF1FEA5BF14EA591B491A70196013D
:103A3000E0CF4F925F926F927F928F929F92AF9260
:103A4000BF92CF92DF92EF92FF920F931F93CF938B
:103A5000DF935C01EA0139019B01A70160E071E09D
:103A6000CE010E94CC1C6C0183019501A70160E08E
:103A700071E0CE010E94CC1CB601DF91CF911F9165
:103A80000F91FF90EF90DF90CF90BF90AF909F90FD
:103A90008F907F906F905F904F9008952F923F92FC
:103AA0004F925F926F927F928F929F92AF92BF924E
:103AB000CF92DF92EF92FF920F931F93CF93DF93FA
:103AC000CDB7DEB72A970FB6F894DEBF0FBECDBFD5
:103AD0004C012A011801B42FA52F4817590714F4D7
:103AE000B82FA92FEB2FFA2FE215F3050CF4F801EC
:103AF000F7FDE4C0B42FA52F8414950414F4B82F57
:103B0000A92FEB2FFA2F2E163F060CF4F801E13007
:103B1000F2400CF0D3C05B013A87298737012617A2
:103B200037070CF004C1E616F7060CF0E0C02C01D4
:103B30004A017A87698759016A147B040CF4DFC053
:103B40009A2D8B2D682D292D48015701120169846A
:103B50007A842401BA86A986862E922EA92EB82EA2
:103B600077FCACC0A114F4E0BF060CF0A7C0A6140B
:103B7000B70409F4A3C081019401A30169857A8582
:103B8000C5010E94CC1C89839A83EC2DF0E0EE0FD6
:103B9000FF1FEA5BFF4D259134913E832D83B7FED5
:103BA000BCC08201940149855A8570E060E0C5017E
:103BB0000E94CC1C7C0109811A81940149855A8597
:103BC00070E060E0C5010E94CC1C8B839C834701A0
:103BD000B12CA12C89859A858130A4E09A070CF438
:103BE0009FC082019401AC0160E074E0C5010E94B5
:103BF000CC1C8F83988709811A812B813C81498550
:103C00005A8560E074E0C5010E94CC1C20E034E0DD
:103C1000A216B3065CF4CD80DE807C010F8118858E
:103C20004B815C81B401C5010E94B81AE985FA850F
:103C3000F7FF16C081019201A30170E060E0CF019F
:103C40000E94CC1C2C0129813A81A30170E060E024
:103C500089859A850E94CC1C89839A831A86198645
:103C6000C101F1E06F16F4E07F06BCF08101920122
:103C7000A30160E074E089859A850E94CC1C7C01D8
:103C800029813A81A30160E074E089859A850E94C8
:103C9000CC1C1701612C24E0722E29853A8526154B
:103CA000370564F4CD80DE807C0181019301498178
:103CB0005A81B20189859A850E94B81A2A960FB650
:103CC000F894DEBF0FBECDBFDF91CF911F910F9152
:103CD000FF90EF90DF90CF90BF90AF909F908F902C
:103CE0007F906F905F904F903F902F900895922F0C
:103CF000832F642F252F2801FA86E98627CF982D58
:103D0000892D48011201492E582E9A2D8B2D5701CD
:103D100069847A8499878A8723CF8B829C825ACF41
:103D200089819A814F82588629853A8571CF898504
:103D30009A85E816F9060CF4FFCE12CFDF92EF92C7
:103D4000FF920F931F93CF93DF937C018B01D22EB1
:103D5000FC0180819181461B570B57FF02C04D5FCC
:103D60005F4F5595479555954795EA01C81BD90B67
:103D70006D2D0E943216080F191F6D2DCE010E9465
:103D80003216F70120813181820F931F9183808346
:103D9000C801DF91CF911F910F91FF90EF90DF90BD
:103DA0000895AF92BF92CF92DF92EF920F931F933D
:103DB000CF93DF9300D000D000D0CDB7DEB74983DA
:103DC0005A836B837C838D839E83590149815A81F9
:103DD00086E4C82E85E0D82EF6016081718120E44A
:103DE0008CE395E00E949E1EF601918380834B81B7
:103DF0005C816281738120E48EE395E00E949E1EC7
:103E0000F601938382834D815E816481758120E414
:103E100080E495E00E949E1EF60195838483609164
:103E20003A0570913B052E2DA50182E495E00E9494
:103E30009E1E90933B0580933A05609138057091E2
:103E400039052E2DA80184E495E00E949E1E9093D2
:103E500039058093380526960FB6F894DEBF0FBE5D
:103E6000CDBFDF91CF911F910F91EF90DF90CF9059
:103E7000BF90AF900895CF93DF9300D000D000D0D3
:103E8000CDB7DEB760910E0570910F056D5E7F4F67
:103E900046E050E0CE0101960E94BF368B819C81A6
:103EA000E0911B05F0911C052D813E8160911D055F
:103EB00070911E0549815A81A0911905B0911A058A
:103EC0004A1B5B0B57FF03C05195419551094F3F6A
:103ED000510509F0BCF48E1B9F0B97FF03C0919511
:103EE000819591098F3F910509F064F4261B370BEA
:103EF00037FF03C031952195310981E02F3F31050E
:103F000011F00CF080E026960FB6F894DEBF0FBEDD
:103F1000CDBFDF91CF9108952F923F924F925F9244
:103F20006F927F928F929F92AF92BF92CF92DF92C9
:103F3000EF92FF920F931F93CF93DF93CDB7DEB72E
:103F4000EF970FB6F894DEBF0FBECDBF20910E05E0
:103F500030910F053CA72BA7295F3F4F3DAF2CAFFA
:103F6000EBA5FCA536969490EBA5FCA53296459161
:103F7000549159AF48AFEBA5FCA5859194919EA7AC
:103F80008DA7E0903A05F0903B050091380510911F
:103F90003905C8010E943A166C01C801905C0E9464
:103FA0003A168C01C7010E943A165C01C701905C69
:103FB0000E943A167C019A8389831C821B82BE82EE
:103FC000AD82B501C6010E94E61598878F831A87D6
:103FD0000987B701C6010E94E6159195819591095F
:103FE0009C878B87B501C8010E94E6159195819544
:103FF00091099E878D87D88ACF86B701C8010E9414
:10400000E6159A8B898B80E891E00E94861C10E06F
:10401000712C7914A8F5812F90E0EDA5FEA5E80F8D
:10402000F91F249130E82303F00111242E2FFC8B7B
:10403000EB8BFC0131964DA55EA5E40FF51F349185
:1040400050E83503F00111244E2FFE8BED8BFC015F
:1040500032968DA59EA5E80FF91F349150E83503DF
:10406000F00111246E2FF88FEF8B072D3C895E89AC
:10407000788DCE0101960E94A217782E1D5FC9CFC0
:104080000E943B1F8AA781116FC320911B053091AD
:104090001C058091480590914905281B390B80919A
:1040A0001D0590911E0540914A0550914B05841BBA
:1040B000950B4091190550911A0560914605709134
:1040C0004705461B570B5C8B4B8B3E8B2D8B988F7C
:1040D0008F8B00D000D000D0ADB7BEB7119686E070
:1040E000FE01739601900D928A95E1F789809A807E
:1040F000AB80BC80CD80DE80EF80F88409851A8596
:104100002B853C854D855E856F85788989899A895F
:104110000E9419172B8B3C8B4D8B5E8B6F8B788F8E
:104120004F89588D0F900F900F900F900F900F9018
:1041300041308FEF58070CF018C36B897C89AD892B
:10414000BE89519541955109872D90E0FC01EE0FF4
:10415000FF1FEE0FFF1FEE57FD4F71836083B38388
:10416000A2839C012F5F3F4FF901EE0FFF1FEE0F5F
:10417000FF1FEE57FD4F60587F4F71836083B383FD
:10418000A283C0909C05D0909D05880F991FF601D1
:10419000E80FF91F51834083220F331FF601E20F0E
:1041A000F31F5183408391E0970D9FAF8FEF809372
:1041B000EC0120911B0530911C0579018901472DE7
:1041C000672D872D0E948B15F601E85AFD4F805709
:1041D0009E4F918380837EAE73947394A1E0AAA7CF
:1041E000B1E0B9A360910E0570910F056D5E7F4F30
:1041F00046E050E0CE0149960E94BF368B8C9C8CE5
:104200009394482D9C8E8B8E072D298D3A8D5C8D35
:104210006D8D7E8DCE0101960E94A217082F282F4A
:1042200030E0F9013197C0909C05D0909D05D901EF
:10423000AA0FBB1FAC0DBD1D11E09E918E918F3F4B
:10424000910509F00CF410E0EE0FFF1FEE0FFF1FB9
:10425000EE57FD4F60817181828193814081518150
:10426000BA01605D7F4FF901EE0FFF1FEE0FFF1FD8
:10427000EE57FD4F60837183828393838D919C9170
:10428000220F331FF601E20FF31F918380830F5F2C
:10429000AB8CBC8CFCEFBF1A4A2DBC8EAB8E298D2B
:1042A0003A8D5C8D6D8D7E8DCE0101960E94A21798
:1042B000082FE82FF0E0DF011197EE0FFF1FEC0D44
:1042C000FD1D81E0329122912F3F310509F00CF460
:1042D00080E01823AA0FBB1FAA0FBB1FAE57BD4F0C
:1042E0006D917D918D919C911397202F30E04D9190
:1042F0005C91BA01605D7F4FD901AA0FBB1FAA0F65
:10430000BB1FAE57BD4F6D937D938D939C931397B9
:1043100080819181220F331FF601E20FF31F9183F9
:1043200080830F5F8B8D9C8D9E5F482F9C8F8B8F22
:10433000298D3A8D5C8D6D8D7E8DCE0101960E940A
:10434000A217082F282F2150330BF901EE0FFF1F62
:10435000EC0DFD1D81E0208131812F3F310509F0F9
:104360000CF480E018238B8D9C8D9A959C8F8B8FFD
:1043700080912005880F880F880F0E947C15298D59
:104380003A8DA901480F511D87FD5A95242F5A8F48
:10439000498F8D8D9E8D9250682F9E8F8D8F3A8D77
:1043A0004B8D5C8D7E8DCE0101960E94A2178F8F62
:1043B0008150990BFC01EE0FFF1FEC0DFD1D80815C
:1043C00091818F3F910509F00CF4D1C1112309F4BB
:1043D000CEC199A1292E312CF101E451FE4F86E97D
:1043E000808302E0602E670C55245394570C7501AE
:1043F00084019401462D652D872D0E948B15A8EA16
:10440000CA1AADEFDA0A220C331CF601E20DF31DD5
:104410009183808370922C0150922D0160922E0125
:10442000B4E0B0932F0189A18F5F282E312CF101C8
:10443000E451FE4F87E9808333E0432E470C85012A
:104440009401442D662D852D0E948B15F101EE0FF0
:10445000FF1FEC0DFD1D918380835092300160920F
:10446000310140923201E4E0E093330189A083946A
:104470008394912CF401E451FE4F88E9808355E048
:10448000552E570CF4E07F0E9501452D672D842D98
:104490000E948B15880C991CC80CD91CD6018D93D1
:1044A0009C93B9A1BD5FB9A36092340170923501AC
:1044B0005092360183E080933701ECE0EBA31AAA17
:1044C00019AA1BAA1AAEF9A9FBAFE9A9FAA92CAD42
:1044D0003DADE20FF31FE4913AAD3E0F3AAF48AD68
:1044E00059AD8BA993E0899F400D511D11245DABFF
:1044F0004CABA0909C05B0909D05AAADBBA9BA1786
:1045000008F09EC2E9A1E53908F09AC2ECA9FDA91C
:10451000F491FAA3ECA9FDA93196C490ECA9FDA9E8
:104520003296D4902AA1E22FF0E0EE0FFF1FEA0DA1
:10453000FB1D80809180EC2DF0E0EE0FFF1FEA0D57
:10454000FB1D20803180ED2DF0E0EE0FFF1FEA0D06
:10455000FB1D408151815DA34CA3772473945FEFD1
:104560008516910411F00CF0712C8FEF2816310490
:1045700009F014F4689471F8ACA1BDA1AF3FB10586
:1045800009F034F4689472F8B7E07B1609F4E4C0DB
:104590002DA53EA5EAA1F3E0EF9F200D311D1124CA
:1045A0002F5F3F4FF9012491EDA5FEA533E0C39E97
:1045B000E00DF11D112431960491EDA5FEA543E017
:1045C000D49EE00DF11D11243196349150E835034D
:1045D0007001112430E803038001112440E8240312
:1045E000900111244D2D6C2D8AA10E948B159FAB3B
:1045F0008EAB272D30E0C901019787219323892BAA
:1046000009F4F7C05F8D553908F0A6C08BA18D3B2A
:1046100008F0A2C0BAA1A4E0BA9FC0011124FC0115
:10462000EE57FD4FF8ABEFA7F4E0CF9EC001112489
:104630009C012E573D4F3FA32EA334E0D39EC001D3
:104640001124AC014E575D4F59A748A7AFA5B8A993
:104650006D917D918D919C9170FC8BC0EEA1FFA11D
:10466000408051806280738074018B019C01A101A4
:10467000C301B2010E94191D2B013C01AFA5B8A9CD
:104680000D911D912D913C91E8A5F9A56081718155
:10469000828193814CA15DA10E94191DFF8D2F2F56
:1046A00030E0F901EE0FFF1FEE0FFF1FEE57FD4F39
:1046B0004082518262827382220F331FF501E20F22
:1046C000F31F20E031E0318320832F8D2F5F422FB5
:1046D00050E0FA01EE0FFF1FEE0FFF1FEE57FD4FE8
:1046E0006083718382839383CA01880F991FF501C8
:1046F000E80FF91F40E051E0518340835BA1E52FB3
:10470000F0E0A9A18A2F90E0DC01A451BE4FAF01D7
:1047100055954795559547954A564C93B8EAAB1A27
:10472000BDEFBB0A880F991F8A0D9B1D4EA95FA97B
:10473000DC014D935C9359A15F5F59A3E45DFE4F8B
:104740008AA1808321839F8D9283ABADA383BBA17C
:10475000BC5FBBA39E5F9F8F3BA93F5F3BAB4CA958
:104760005DA94D5F5F4FC3CE1AA619A23BCD1BA218
:10477000A6CE71FC1EC0AEA1BFA10D911D912D91C1
:104780003C917101A4010E94191D2B013C01EEA175
:10479000FFA10081118122813381A8A5B9A56D9166
:1047A0007D918D919C914CA15DA10E94191DCAA281
:1047B00075CFE8A5F9A50081118122813381ECA094
:1047C000FDA0A4010E94191D2B013C01A8A5B9A5BB
:1047D0000D911D912D913C91EEA1FFA16081718100
:1047E00082819381ECA0FDA0A1010E94191DDAA293
:1047F00055CF772009F40CC1EF8DE53908F0ACCF27
:10480000FBA1F93B08F0A8CF3AA124E0329FC001F8
:104810001124AC014E575D4F5FA34EA354E0C59EDB
:10482000C0011124DC01AE57BD4FB9A7A8A7B4E061
:10483000DB9EC0011124FC01EE57FD4FF8ABEFA742
:1048400070FE99C0A8A5B9A50D911D912D913C911F
:10485000EEA1FFA160817181828193817101A40128
:104860000E94191D2B013C01AFA5B8A90D911D9106
:104870002D913C91EEA1FFA1608171818281938194
:10488000ECA0FDA0A4010E94191DBF8D2B2F30E0CC
:10489000F901EE0FFF1FEE0FFF1FEE57FD4F408295
:1048A000518262827382220F331FF501E20FF31FE0
:1048B00020E031E0318320834B2F4F5F242F30E005
:1048C000F901EE0FFF1FEE0FFF1FEE57FD4F608344
:1048D000718382839383C901880F991FF501E80FC3
:1048E000F91F80E091E0918380839BA1E92FF0E0A4
:1048F0008F011595079515950795A9A12A2F30E0E9
:10490000D901A451BE4F86E9800F8C93B501685A36
:104910007D4F220F331FDB01A20FB31F2EA93FA92A
:104920002D933C9389A18F5F90E0DC01A451BE4F91
:1049300009560C93880F991F680F791FDB012D937F
:104940003C93B9A1BE5FB9A3E45DFE4F2F8D2083D8
:10495000C182D2823BAD3383EBA1EC5FF0E0E45D3A
:10496000FE4F2083D182428333834BA1485F4BA308
:104970002E5F2F8FF1CEAFA5B8A96D917D918D914E
:104980009C9171FE24C0E8A5F9A540805180628009
:104990007380ECA0FDA08B019C01A101C301B201B9
:1049A0000E94191D2B013C01AEA1BFA10D911D91CB
:1049B0002D913C91E8A5F9A5608171818281938157
:1049C0007401A1010E94191DCD2CDAA05ECFAEA109
:1049D000BFA10D911D912D913C9174014CA15DA140
:1049E0000E94191D2B013C01E8A5F9A50081118148
:1049F00022813381AFA5B8A96D917D918D919C9154
:104A000071014CA15DA10E94191DDC2CCAA03DCFF3
:104A100059A1852F90E0FC01E451FE4FABA9A08382
:104A2000B8EAAB1ABDEFBB0A880F991F8A0D9B1D10
:104A30002EA93FA9FC01318320835F5F59A38CCE4F
:104A400089A99AA901969AAB89AB059709F03BCD44
:104A5000A2E8CA2EA2E0DA2E4501712C9F8D971193
:104A600033C08501065A1D4FADEEB1E0CC24C3948E
:104A7000A501485A5D4FE9A1CE1608F0ACC0F80177
:104A8000619171918F019D90DC2C8D2D90E09C01A6
:104A900021503109F901EE0FFF1FE40FF51FE080EF
:104AA000F180E616F70608F483C08D2D90E0FC0136
:104AB000EE0FFF1FE40FF51F7183608384519E4F3B
:104AC000FC019082C394D7CFD6010D911C91119710
:104AD0001296ED90FC90F401819191914F018F3FDE
:104AE0009105D9F1D4F10E94861C9C01D8010E9445
:104AF000F4361B012C01D7010E94F4362114F8E78B
:104B00003F064104F4EC5F06D4F1211428E8320694
:104B10002FEF42062BE35206CCF5611538E77307F9
:104B2000810534EC9307D4F1611548E874074FEF21
:104B300084074BE39407BCF5920181014FE0369561
:104B40002795179507954A95D1F75FE09695879534
:104B5000779567955A95D1F77B011E5FD60111961F
:104B60001C930E9380E091E08E199F0913969C93FD
:104B70008E9312977394B4E0CB0ED11C6FCF212C7F
:104B8000F8E73F2E412CF4EC5F2EC7CF212CE8E84C
:104B90003E2E44244A94EBE35E2EBFCF60E078E7DC
:104BA00080E094ECC9CF60E078E88FEF9BE3C4CF5E
:104BB000FC01EE0FFF1FE40FF51FF182E08224518C
:104BC0003E4FF901208184519E4FFC012083DA94ED
:104BD000D1105BCF6ACFFEAD8F2E912C2AA5222358
:104BE00071F0F401EE0FFF1FEA0DFB1D31E03AA753
:104BF000808191818F3F910509F00CF41AA6EEE9AE
:104C0000F5E08EE999E011928E179F07E1F7ECAD80
:104C1000FDAD5490EBA5FCA538967490750CEBA5F2
:104C2000FCA539966490670CEBA5FCA53A96D49048
:104C3000D60C880C991C880C991C94012E573D4F5A
:104C400049015CEE252E51E0352E412CB12CA12CD2
:104C50004FAD34E0439FC0011124DC01AE57BD4F7E
:104C6000B8A3AF8FB9A1B41509F476C0F101A19131
:104C70001F01A63908F046C0F3E0AF9FC001112420
:104C8000E8ADF9ADE80FF91F6491FC01319628AD4C
:104C900039ADE20FF31F2491FC01329648AD59ADB6
:104CA000E40FF51FE491B4E0AD1550F4B3E0A615A0
:104CB00038F4B2E0A71520F4B1E0A51508F4B0E08F
:104CC00034E0E39FF0011124EE57FD4FE080F180C6
:104CD0000281138144E0249FF0011124EE57FD4F1F
:104CE000208131814281538184E0689FF001112449
:104CF000EE57FD4F6081718182819381CB2E0E949E
:104D00004E1D17C0AF3FB9F45AA5552391F0AF8D92
:104D1000B8A1AD90BC90F40180819181A81AB90A24
:104D200060817181828193812FEF3FEFA5010E9405
:104D3000CF1B439497CFA659F4E0AF9FD001112425
:104D4000A45DBE4F6C9111962C9111971296EC9127
:104D500012971396BC91B4CF9AA5992309F490C0E9
:104D600085010C5F1F4FD4018D919C9111972227D3
:104D70003327201B310B821793070CF481C0129646
:104D8000ED90FC90E216F3060CF47AC0B4E0AB0EA2
:104D9000BB1EA816B90608F473C0AE14BF0408F40D
:104DA0006FC00E94AF1A8AA3C7010E94AF1A5C01AC
:104DB00083E0169507958A95E1F728EF20032001F7
:104DC000219F500C1124E8E04E0E511CC801880FA1
:104DD000991F880F991F25E030E06901C81AD90A88
:104DE0003CE0232E312CF12CE12C4501801A910A54
:104DF000B401FAA1FE0DFF8F8F2F0E948819350193
:104E0000600E711EB3018F8D0E948819B4019AA0A3
:104E10009E18892D0E948819B301892D0E94881936
:104E200045018E189F08B4012AA1200F2F8F822FD1
:104E30000E94881937016A0C7B1CB3018F8D0E9478
:104E40008819B4019AA0901A892D0E948819B3017B
:104E5000892D0E948819D7FC07C0C40CD51C38E0E6
:104E6000430E511C01501109C20CD31C48E0240E02
:104E7000311C5FEFE51AF50A0E151F050CF0B5CFD2
:104E800089A1EF960FB6F894DEBF0FBECDBFDF91BC
:104E9000CF911F910F91FF90EF90DF90CF90BF9037
:104EA000AF909F908F907F906F905F904F903F90CA
:104EB0002F90089560910E0570910F05635F7F4FED
:104EC00046E050E089E195E00E94BF3686E0E0E0F0
:104ED000F5E0DF01982F1D929A95E9F7E7EEF4E0EF
:104EE000DF011D928A95E9F708958093100529E165
:104EF000829FC00111248D599D4D90930F05809381
:104F00000E050E945A271092200510921205109249
:104F10001105109216051092150580E280930D057B
:104F200080E090E1909318058093170581E08093CD
:104F30001F05089580E00E947527EDEEF4E01192C0
:104F400084E0EF3FF807D9F710921F0586E0ECE008
:104F5000F1E0A6E4B5E001900D928A95E1F780E0DA
:104F600090EE90933B0580933A0580E09FE090930C
:104F700039058093380580E280930C058AE280939E
:104F8000E6040895AF92BF92CF92DF92EF92FF9224
:104F90000F931F93CF93DF9300D000D000D0CDB7F5
:104FA000DEB760910E0570910F056D5E7F4F46E094
:104FB00050E0CE0101960E94BF3689819A812091EE
:104FC000190530911A05821B930BED80FE8020910C
:104FD0001D0530911E05E21AF30A10E0F7FE04C029
:104FE000F194E194F10811E097FF04C012609195EB
:104FF000819591098E159F0534F414603E2D2F2D57
:105000007C01832F922F8F3F910511F00CF05BC034
:10501000FC01EE0FFF1FEA5BF14E25913491D701A1
:105020000E94F436DC01CB0163E0B695A795979515
:1050300087956A95D1F7082F892F90E0FC01EE0F34
:10504000FF1FEC50F24EE590F490FC01EE0FFF1FB5
:10505000EA50F24EA590B490602F6095C7010E946F
:1050600010166C01602FC5010E9410168C0D9D1D3D
:105070002F2D30E0820F931F12FF06C020E030E496
:10508000A901481B590BCA0111FF06C020E030E8F6
:10509000A901481B590BCA0110FF03C091958195C6
:1050A0009109905C26960FB6F894DEBF0FBECDBF77
:1050B000DF91CF911F910F91FF90EF90DF90CF90F4
:1050C000BF90AF9008950E94861C9C01D7010E945A
:1050D000F436DC01CB014BE0B695A7959795879503
:1050E0004A95D1F7A8CFEF92FF920F931F93CF93DA
:1050F000DF93EC01E62E142F842F0E947C15082FDD
:1051000080E4810F0E947C15182F8E2D0E947C1543
:10511000F82E80E48E0D0E947C1588834F2D840329
:105120009001112439839403900111243A831B8246
:105130001C83902F91959D83F194FE82482F8403C8
:10514000900111243F839403C00111249887DF91BB
:10515000CF911F910F91FF90EF9008952F923F9262
:105160004F925F926F927F928F929F92AF92BF9277
:10517000CF92DF92EF92FF920F931F93CF93DF9323
:10518000CDB7DEB76D970FB6F894DEBF0FBECDBFBB
:105190004E8B5F8B688F798F8A8F9B8F322E532E29
:1051A000202E412E6E887F88888C998C2A8D3B8D8D
:1051B0003D8F2C8F442D4195652D6195CE01019633
:1051C0000E9473281B861A861D861C86A12CBB8410
:1051D000C12CDD8409811A812B813C814D815E8146
:1051E0006F81788589850E946A18288B398B4A8B54
:1051F0005B8B6C8B7D8B88899989680E791E8A8977
:105200009B89880E991E8C899D892C8D3D8D820FDE
:10521000931F462D7A826982682D9C828B829E83A1
:105220008D8390E4E92E022D142D232D352D5A81E6
:105230007C819E810E94D11E6D960FB6F894DEBFD0
:105240000FBECDBFDF91CF911F910F91FF90EF90D7
:10525000DF90CF90BF90AF909F908F907F906F9096
:105260005F904F903F902F9008952F923F924F92D2
:105270005F926F927F928F929F92AF92BF92CF92E6
:10528000DF92EF92FF920F931F93CF93DF93CDB7EF
:10529000DEB72A970FB6F894DEBF0FBECDBFD62E6D
:1052A00028E0829F3001112420EF222E23E0322EAD
:1052B000412C512C230138EA832E33E0932EA12C6C
:1052C000B12C2FEF3FEF40E550E0C301B4010E9445
:1052D000CF1B30E020E040E450E0C301B4010E9465
:1052E000CF1B38E4398781E08A879A85D91608F47C
:1052F00041C089850E947C15282F38E4A303C00192
:105300001124892F990F990B9C0128553C4F3A8302
:105310002983898580540E947C15382F28E4B203A4
:10532000C00111249301290F311D97FD3A953C834B
:105330002B8388EA882E83E0982E89819A819E8328
:105340008D8338872F8394E0C92EED80FE800F81F6
:105350001885A2019101C301B4010E944E1D29804C
:105360003A804B805C809A859F5F9A872985285F69
:105370002987BBCF2A960FB6F894DEBF0FBECDBFEC
:10538000DF91CF911F910F91FF90EF90DF90CF9021
:10539000BF90AF909F908F907F906F905F904F9055
:1053A0003F902F9008951F920F920FB60F921124E5
:1053B0008F939F938091E1009091E100937F909370
:1053C000E10083FF0FC01092E90091E09093EB00A1
:1053D0001092EC0092E39093ED001092370598E064
:1053E0009093F00082FF22C093E09093E9009091A7
:1053F000F200992319F09AE39093E8009091280520
:10540000992341F09091280591509093280591118E
:1054100001C05D9A90913605992341F0909136052F
:10542000915090933605911101C0289A84FF18C0BD
:105430008091E2008E7E81608093E2008091E100A5
:105440008F7E8093E100809129058E7E806180931C
:1054500029059F918F910F900FBE0F901F90189567
:1054600080FFF7CF8091E2008E7E80618093E20022
:105470008091E1008E7E8093E100809129058E7EEF
:105480008160E5CF1F920F920FB60F921124CF9239
:10549000DF92EF92FF920F931F932F933F934F93BF
:1054A0005F936F937F938F939F93AF93BF93EF938C
:1054B000FF93CF93DF93CDB7DEB76C97DEBFCDBF41
:1054C0001092E9008091E80083FF25C068E0CE01DA
:1054D00045960E946F1482EF8093E8008D8987FFC4
:1054E00039C09091E80090FFFCCF982F907609F09A
:1054F00034C19E894F89588D2F89F88C911131C004
:10550000803861F5809127058093F1001092F100B9
:105510008EEF8093E8006C960FB6F894DEBF0FBE56
:10552000CDBFDF91CF91FF91EF91BF91AF919F914F
:105530008F917F916F915F914F913F912F911F912B
:105540000F91FF90EF90DF90CF900F900FBE0F90D4
:105550001F9018959EEF9093E800C7CF1092F1002E
:10556000D5CF913059F48111D3CF4130510581F617
:10557000809127058D7F80932705CACF933049F40A
:105580008111C6CF4130510519F6809127058260FF
:10559000F2CF953041F48091E80080FFFCCF206885
:1055A0002093E300B5CF963009F0A9C00B8D1C8D78
:1055B00022E01092E9001092250510922405F212C3
:1055C0002EC010922305109222050E943E141F82C5
:1055D00099E09983FA8291E09E8390EA98879AEF06
:1055E00099872091240530912505275F3F4F3C8303
:1055F0002B838D831092E9001092250510922405CB
:10560000109323050093220549E050E0BE016F5F2F
:105610007F4F80E00E9418140E943E1479CF1093AF
:105620002305009322050E942213DC0112960D919E
:105630001C910115110509F451C1D801ED91FC919E
:105640000480F581E02DBE016B5E7F4FC801099596
:10565000009709F03EC1F80100851185EACFF3E01B
:10566000FF120EC08F89882309F440C0823061F494
:1056700040E867E080E795E20E94E513811148CF9A
:1056800081E28093EB0047CF813029F440E86BE062
:1056900084E695E2F1CF833099F70E942213DC0172
:1056A0001296ED90FC908E010F5F1F4F6801E11480
:1056B000F10479F0D701ED91FC910680F781E02D9E
:1056C000B801C7010995080F111DF701E084F184A5
:1056D000EECFD8011C92F60101900020E9F7319736
:1056E000BF016C197D0940E0C601C6CF6EE475E2CA
:1056F000FB01449150E080E80E94181409CF9730D4
:1057000009F4BECF983021F481E08093F10000CFFE
:10571000993009F0FDCE837009F0B2CFE3E1F1E0FA
:1057200081E031E096E32191222371F08093E9003A
:105730003093EB00DF0111972C912093EC009093B4
:10574000ED008F5F873079F78EE78093EA00109243
:10575000EA008F8980933705DBCE8B8D9C8D10926C
:10576000E90010922505109224059093230580935B
:105770002205898D811192C08E899D89913A49F4C3
:10578000813209F07DCF47E050E064E071E080E0D5
:10579000B3CF913209F074CF833269F48F89988D39
:1057A000B0E0A0E08093000190930101A09302017A
:1057B000B0930301ADCE803269F48091E80082FF9E
:1057C000FCCF67E084E091E00E946F148BEF809340
:1057D000E8009ECE823209F09BCE8F8980930B0128
:1057E000EEEFFFE7859194918B3F9C4D51F1E0E006
:1057F000F8E08091040190910501A0910601B0911B
:105800000701803B9440A105B105F1F480910B01A3
:1058100080FD1AC0EE3F8AE0F80789F587E797E731
:1058200091838083809160008093260588E19BE0CE
:105830000FB6F894A895809360000FBE9093600017
:1058400067CEEEEFFAE0D5CF808191818737974719
:1058500009F05ECEA8958091600088618093600019
:105860008091260580936000EE3F2AE0F20789F0E0
:105870008091FE0A9091FF0A9183808349CE8081B6
:1058800091818737980751F29093FF0A8093FE0A1F
:10589000C5CF1092FF0A1092FE0A3ACE0E94221340
:1058A000DC0112960D911C910115110509F4E8CE49
:1058B000D801ED91FC910190F081E02DBE016B5E6D
:1058C0007F4FC8010995811123CEF801008511850C
:1058D000EBCF181619060CF41BCED2CEF1E0FF1256
:1058E000BECE62E575E204CF1F920F920FB60F9203
:1058F00011242F933F938F939F93AF93BF938091E6
:10590000DF049091E004A091E104B091E2043091B1
:10591000DA0423E0230F2D3758F50196A11DB11DA0
:105920002093DA048093DF049093E004A093E104D1
:10593000B093E2048091DB049091DC04A091DD043B
:10594000B091DE040196A11DB11D8093DB049093FC
:10595000DC04A093DD04B093DE04BF91AF919F916E
:105960008F913F912F910F900FBE0F901F90189520
:1059700026E8230F0296A11DB11DD2CFECE4F5E07D
:105980001382128288EE93E0A0E0B0E084839583D6
:10599000A683B7838DE191E0918380838FEF9FEFA2
:1059A000958784878EE995E090939D0580939C056B
:1059B0000895CF93DF93CDB7DEB7CE56D1090FB69A
:1059C000F894DEBF0FBECDBF789484B5826084BDED
:1059D00084B5816084BD85B5826085BD85B58160F3
:1059E00085BD80916E00816080936E001092810071
:1059F000809181008260809381008091810081602C
:105A000080938100809180008160809380008091EC
:105A100091008260809391008091910081608093D9
:105A20009100809190008160809390008091C100EE
:105A300084608093C1008091C10082608093C10026
:105A40008091C10081608093C1008091C30081601A
:105A50008093C3008091C00082608093C0008091D9
:105A6000C20081608093C20080917A00846080933C
:105A70007A0080917A00826080937A0080917A0027
:105A8000816080937A0080917A00806880937A00A8
:105A90001092370510922705109229058091D700A2
:105AA00081608093D70080EA8093D80089B58061B7
:105AB00089BD89B5826089BD09B400FEFDCF61E072
:105AC00070E080E090E00E94A1148091D8008F7C6B
:105AD00080618093D8008091E000807F8093E00017
