:100000000C9440130C9468130C9468130C946813AC
:100010000C9468130C9468130C9468130C94681374
:100020000C9468130C9468130C94E4300C945331C2
:100030000C9468130C9468130C9468130C94681354
:100040000C9468130C9468130C9468130C94681344
:100050000C9468130C9468130C9468130C948533F7
:100060000C9468130C9468130C9468130C94681324
:100070000C9468130C9468130C9468130C94681314
:100080000C94CF330C9468130C9468130C9468137D
:100090000C9468130C9468130C9468130C946813F4
:1000A0000C9468130C9468130C9468134000580067
:1000B000001A00004000C040002000005800401A14
:1000C00000000000180028F600FA000010001800D8
:1000D00000F60000E00040F8004000004000F0C0E2
:1000E000000C0000A00040D800C00000A000402884
:1000F00000C000004000304000DC0000441000BCA4
:1001000004BC20004410004404BCE000441000BCC7
:100110000444E000441000440444200020001E0079
:1001200004D600E850001ED6040040E8401000004D
:10013000045000004010004004F000000010405047
:10014000040000002C3A352C393A2932272230207D
:1001500013280E182E1735342B3637252933322223
:100160003130132D28182F2E353A34363837121BDC
:10017000141D1E1F121A1B1D191E0900070F0A0D40
:100180000C110B0E0F131417151C18192522211D05
:10019000201C241023262736102C112A352B292623
:1001A0002B13121505040C0C01080100090B0203A6
:1001B0000B030608050C090801000B060006070FD3
:1001C0000E0A0C1011141617171618161918191DE7
:1001D0001C2021222124252423251D212024011037
:1001E000362523232636102A2C2A2C352726292685
:1001F0002A2B0F1213121415F000F0F00010040057
:10020000FE0200FC040002020004FE00FCFC00FEF2
:10021000FE0004FC00025000E80400F0040010306E
:1002200000E85000C83000D01000101000F00800A6
:10023000D03800B0F800D00000B0D000D0C800B076
:10024000B000C8D000EC0808DCF808DCB00000D032
:100250000014DC08ECDC0814B00038D00030C80012
:1002600050100030F00030F00050300030380050B6
:100270005008C85000383000105000103000F038DE
:1002800008B0C808B0B008C8B00838C80850380866
:10029000505008385008105000F0100050F008502E
:1002A0001008503008F05008F0500078EC00320090
:1002B00000A00050280028000078005032F4EC0024
:1002C000005000A0140CD800005000A0EC00D80092
:1002D00000100050C40CC40000100020BC0CD00062
:1002E00000100020BC0CB80000100050B40CC4007A
:1002F00000001050B010C40000501000EC04B0001A
:10030000000010500010EC0000721000EC042820D7
:10031000007210003C042820007210003CF8ECE051
:1003200000721000EC04ECE0007210001410C4E045
:100330000050002F3CFA0A00EA50002F14060A0071
:100340001650002F0AFAEC4016500029D006C4407F
:100350001A0114001830201F2913011514182C300D
:100360001F2F291A2B17222E1C0D2A16252812277B
:1003700031211A2D2B22322E0D1D2A253328273408
:10038000310F1310161E19191C1A2326240F1213CD
:1003900016181E191B1C2325260709010C100B110A
:1003A0000A0D110D1616171117191A121F131B24F7
:1003B0002218211E1C1B2226251221202705040C91
:1003C000000B060B02030B0306050C080C010800CA
:1003D00006070908010007010C0F10110E0A161973
:1003E0001712261F1B2324182021B00CB0B00CD8E4
:1003F000C00CC2BE0CC0C00CC6BE0CC8BA0CC0B883
:100400000CC2BA0CC8B80CC6D80050C00CB0C00C96
:10041000D8D8003C000050C80CD8C80CB000003C34
:10042000D800D8D800B0B014B0B014D80000142848
:10043000003C000C0028001450001428F40050F474
:1004400000D8083C280C000000B0000CD8280CD8BC
:1004500028F4D814F40014F4D80000000000D800E8
:100460000CB0D808D8D808B000081428083C0014EC
:100470000050081450FC000008B00014D82814D80C
:1004800028FCD80008000014B050002800084600DE
:1004900000A00050D808280000A00050280828001C
:1004A00000500050C4F8D800005000503CF8D8006C
:1004B00000180050F600D800001800500A00D800BC
:1004C000001000200000CC00001000200000E4001C
:1004D00000500058C4000000F15000583C000000DB
:1004E000F1500032E4FCD840F35000321CFCD840FC
:1004F0000D4010000004C40000721000C4FCD8209D
:10050000007210003CFCD8E000721000C40C28E01F
:10051000007210003C0C2820001521201F24161703
:1005200023131822111C271B1500211F292417250E
:10053000231826221C282700101112131510161834
:10054000141B17000110121413101916141A1B098A
:1005500000070D0F0E0C150B1314171110181B1A92
:100560001C16191F1A1D1C191D1F05040C0C01084F
:100570000100090B02030B030608050C0908010022
:100580000B060006070D0A0F0C12151A1E1D191E68
:100590001DF000C4F000EC0400D60200D40400DA20
:1005A0000200DCFE00D4FC00D6FE00DCFC00DA1405
:1005B00008500400C40400EC14083CEC083CEC08AF
:1005C00050D8F8ECD8F8C41000EC28F8C428F8EC9F
:1005D0001000C4B0081450F8ECB0F8ECD808142897
:1005E000081450081428083C00083C000814D808D7
:1005F0003C1008C4F008C4D800C42800C4B01014CB
:100600005000ECB000EC50101428103CD8103CA066
:1006100000F800000A0000480010EA00C800004886
:1006200000101600C80000A000180000BE0000A0C6
:1006300010000004B80000001048D804CA000000F0
:1006400010482804CA000020100000040000002008
:100650001000E004F000002010002004F000002052
:1006600010000004E000002D1000E0041020002D18
:100670001000200410E000300013000220001312CC
:10068000241E1823252729282B2D2C122224181547
:10069000232726292B2A2D002212012315012000B1
:1006A000323530312F333736383B3A3C0020220187
:1006B0002123012120322E3531342F3739363B3D6D
:1006C0003A131C1413111C0900070A101F0C0E0BFF
:1006D000001E0E01180D1F161A19171B1B1E0F10D6
:1006E0000F161D1B1005040C0C01080100090B025C
:1006F000030B030608050C090801000B060006079A
:100700000A1D100C0D0E00121E0115181F101619CF
:1007100018171B171E101B0F1D191B1000B8F00017
:10072000B80200CC0400CAFE00CCFC00CA0400C61B
:100730000200C4FC00C6FE00C4D800481000CCF083
:1007400000CCF000DC1000DC2800000000240C00CD
:10075000242800B8F40024F4041CD800B82800248D
:100760000000DCD800DCD800002800480000000CA5
:10077000041CD800242800DC0000481008B8F00849
:10078000B82808B8D808B82808DCD808DCE8000879
:10079000D80018D80818E808082800181800081801
:1007A00008082808180800000808E0F80800F80001
:1007B000E0F80000F808E00800E0080800E808F0A9
:1007C000D800F0D808F0E800F02808F01800F01879
:1007D00008F02800F05000503CFC140000300030BD
:1007E00000EC1C0000A00050280CC4000050005079
:1007F000C4FCC40000500050C4EC140000200010E1
:10080000B8EC2C0000200010D0EC2C000050001898
:10081000C4EC3600005000583C04EC001050005866
:10082000EC04C440F1500058C4F4EC000F00105028
:10083000B0F0140000001050D8F014000050100068
:10084000C4F03C0000721000C400C420007210000C
:100850003C10C4E0000010201410C4000020100060
:10086000C4F01000005010001410D8000050100008
:100870001410B000000110002427251E312122325F
:10088000200111102426271E3031222E3216180B7B
:100890000C1B17282B29232E221F2C1C1619180C71
:1008A0001A1B282A2B232F2E1F2D2C171C161D2018
:1008B0001F0E230D171D1C1D1E200E2123090007CE
:1008C0000E0A0F1412150C160B1C1D1F1E222022BF
:1008D000212305040C0C01080100090B02030B0382
:1008E0000608050C090801000B060006070E0D0A94
:1008F0001413120C17161E2122B0EC3CD8EC3CC28B
:10090000EC28C0EC2AC6EC28C8EC2AC0EC2EC2ECBD
:1009100030C8EC2EC6EC3050FC28B0EC28D8EC28BF
:1009200050FC0028FC0028FC28B0F43CD8F43C0C17
:10093000EC280CEC10F4EC10F4EC28B0EC00D8EC43
:1009400000B0F428B0F400D8F428D8F400B0FCD8F3
:10095000D8FCD8000CD8D8FCB0000CB0280CD82893
:100960000CB0500CD8BCEC10CCEC10BCF410CCF497
:1009700010140CBC140CCC1414BC1414CCB004D83B
:10098000D804B02814B05014D80014D82814D800B3
:1009900014B05000A000002800003800AD1400EC96
:1009A000E000A000500000C40000100020D400D0DF
:1009B0000000100020D400B80000180050CA00C485
:1009C0000000001050C404C40000501000D804B04F
:1009D00000007210000004EC20007210002804ECEB
:1009E00020007210002804C4E000721000D81CFC23
:1009F000E000721000001CFCE000A00050EC18FCAD
:100A0000000050222200002C002050002000181866
:100A100000000010200004C4000013161420102150
:100A20001E241F17271C1D281A1315162000101E20
:100A300023241726271D2928011000130E150D1435
:100A4000161B19181F25122C2F2D0111101B2219EE
:100A50001F24252C2E2F0D150E0D16150900070D20
:100A60000F0E12131D1C1B17121D1A171B18121A1A
:100A70001F1A1E201F1A1E1B2B2A05040C0C01080E
:100A80000100090B02030B030608050C090801000D
:100A90000B060006070D0A0F121413200B0C0C1A7C
:100AA000201B1C2BC400B0C400D8D800C2D600C084
:100AB000D800C6D600C8D200C0D000C2D200C8D06C
:100AC00000C6140050D800B0D800D8140038EC008C
:100AD00038EC0050C408B0C408D8140000EC002062
:100AE000140020EC0C2C140C2CEC18E8C418E8C4EE
:100AF00020E81400D8EC1810141810EC00001400B2
:100B0000B03C00D8EC00B0EC08B0EC20101408B0F9
:100B10003C08D8140800EC20E81420101408D8EC85
:100B20000800EC18201418200000CC0000BC0008BD
:100B3000CC0008BC50005000143C0000A00050D86D
:100B400000000000A0005028000000005000783C89
:100B500000320000500078C400320000280050E24B
:100B600000D800002800501E00D8000050002800C7
:100B700000CE00005000180000B60000200010F465
:100B800000C000002000100C00C000005010000049
:100B900004B000003A1000E204CE20003A10001E1B
:100BA00004CEE000731000C4040020007310003C69
:100BB0000400E000731000C4043CE0007310003C2B
:100BC000043C200050003A000A1E00E150003AE2C6
:100BD0000A3C40E150003A1E0A3C401F5010000001
:100BE00004EC000017151211201422231F1D3521BB
:100BF0000B322D2F2B0C1725151116202236231DF5
:100C000024350B30322F312B1B261A0133001B27C2
:100C1000260134330F100E0D120A0E180D0F11108D
:100C20000D13120E19180900070E0A0F141C1121BA
:100C30001F1D1B28291A2D220C2E2C1B2F0C171EB2
:100C40001F05040C0C01080100090B02030B03062D
:100C500008050C090801000B060006070E0D0A1412
:100C60001D1C21221F1B1A281A0B2D0C0B2E1B21B9
:100C70002F17121E1400B0EC00B00200C40400C212
:100C8000FE00C4FC00C20400BE0200BCFC00BEFEAC
:100C900000BC1414501400C4EC00C4141428EC1448
:100CA00028EC1450D80028D80050280050280028DC
:100CB000B00028280850D80850500028140014EC20
:100CC00000141400ECEC00ECD80014B00014280060
:100CD00014500014B00828D800EC2800EC50081478
:100CE000B008145008281408ECEC08EC1400ECECE4
:100CF00000ECD800ECEC08C4EC00D82800D81400B4
:100D0000D8D800D81408C4D808D82808D81408B0EF
:100D1000EC08B0D808EC2808EC5000A8ECF00E0065
:100D2000002800600AF0FC0000780050F60CF80083
:100D300000500028EC0CDA0000200010E00CCC0081
:100D400000200010F80CCC0000500018EC0CC20081
:100D500000501000EC10BC000060001318F1FC40C3
:100D6000F66000181FF5FC40E460001525FCFC400F
:100D7000D30016602705FC0000721000ECF4F82088
:100D800000721000EC10F8E000600015250DFC402A
:100D90002D40002204F01820001119150F160E0125
:100DA0001A002026211E241F1118190F1716011BC7
:100DB0001A2025261E23242127221F25201D231E1D
:100DC0002126271F24251D1C230900070F0E0D0EA9
:100DD0001D0D1011151013110D140F100C0B280DF3
:100DE0001D05040C0C01080100090B02030B03068E
:100DF00008050C090801000B060006070E1C1D1053
:100E000012130D0A1410150C000CBCD80CBCEE0CFF
:100E1000D0F00CCEEA0CD0E80CCEF00CCAEE0CC828
:100E2000E80CCAEA0CC800F038000CD0D80CD0008E
:100E3000F01400F0E4D8F00C000CE4000C0C140CDE
:100E4000E4140C0CD8F038D80CE400F8E4D8F80C12
:100E500000140CD814E40014BCD814BC14F0E4142E
:100E6000F0141CF21423F81427001427091423117A
:100E7000141CF2E423F8E42700E42709E42311E436
:100E800000F028500050C4003C0000A00050D810D2
:100E9000EC00005000503C00EC00005000503C10B2
:100EA0003C0000180050F2003C0000100020FC0044
:100EB000300000100020FC00480000721000C41434
:100EC000EC20007210003C04ECE0007210003C14B6
:100ED0003C2000281000F604500000281000F60402
:100EE000280000001050EC043C0000500058C408DA
:100EF0001400105000581408EC400F5000583C08E3
:100F000014801050005814083CC00F01100001114B
:100F100010000B1D1E11011B241C18221913201474
:100F200000100B1E1F111B2324182122130C200D4F
:100F30001312161715191A171C1D1A0D0E13161851
:100F400017191B1A1C1E1D0900070E0A0F12131475
:100F50001415121718191A1B1C05041E1E0108016E
:100F600000091D02031D030608051E090801001DD6
:100F7000060006070E0D0A141615EC0028EC0050AA
:100F800000003AFE003800003EFE0040FA0038F84B
:100F9000003AFA0040F8003ED80050000828B01887
:100FA00000D80028B00028B00050EC0828EC085009
:100FB000D81000B01000D810D80010000010D828A9
:100FC00000002800D85000002810285010282810B1
:100FD00050000028000050000850D818D82808D821
:100FE000500800501828281850A000400000380071
:100FF00000A000180000D20000480010EA00C8005D
:10100000004800101600C80000A000180000BE0034
:1010100000A010000004B80000001040D804C80070
:10102000000010402804C800001000A000F80000D4
:1010300000A000250CFA0040F6A00025F4FA0040BC
:101040000AA0001518FE0040EDA00015E8FE0040C3
:1010500013A0001820040040E0A00018E0040040A5
:101060002013341214333513323414253300321361
:101070000133250130000030320131330131301DA0
:101080001B1E231622211F24181A171A2717212D79
:1010900020162F221D2B1C1D1C1B23151621201F63
:1010A00018191A1A2A27212E2D16282F1D2C2B0924
:1010B00000070B110A0D0F0C00120F01140E201E59
:1010C0001F1517162321240A2629172816222E2138
:1010D000202C1D05040D0D01080100090C02030C54
:1010E000030608050D090801000C060006070B1091
:1010F000110D0E0F001312012514201D1E151817B7
:101100002322210A1126172728222F2E202D2C10CA
:1011100000B8F000B80200CC0400CAFE00CCFC000D
:10112000CA0400C60200C4FC00C6FE00C400004899
:10113000D800481000CCF000CCF000D81000D8D86F
:1011400000280000282800D82800B8D800D8ECFCD7
:1011500028ECFC00E40000E40028DC0828DC08009F
:101160002408282408001C00001C002814FC281453
:10117000FC0004F800FCF800FCF82804F828D8006B
:10118000B8280028E400D8ECFCD8280048DC08D8AF
:101190002408D81C00D814FCD804F8D8FCF8D810BF
:1011A00008B8F008B82808B8D808B82808D8D80867
:1011B000D8A000802800E00000A00080D800E00057
:1011C000004000804000200000400058C000160091
:1011D00000400018C0003A0000180010B6003000AF
:1011E00000180010CA00300000402000C008400075
:1011F00000002040B008300000001820E806F80089
:10120000000018200006E800000018201806D8008A
:10121000005B10004004D0E0005B1000C004D02050
:1012200000400046200430400A400033DC023040D9
:10123000F91600012428221D1E1A1614002429283C
:101240001D271E00151120312B2A301C2C332D0098
:101250001415202F312A2E302C32330B0E1201356B
:10126000100B0F0E0134350900070B130A0D110C7A
:10127000121813171A18261B1C191F1D1A191D1FC7
:1012800021221C202122212425232410231105049E
:101290000D0D01080100090C02030C030608050DE1
:1012A000090801000C060006070B12130D1011129D
:1012B000171817191A1C1926191726191C1F1F1C75
:1012C000211C1B20242125212025102523B000408E
:1012D000D00040BE002CBC002EC2002CC4002EBC8E
:1012E0000032BE0034C40032C2003450004030002E
:1012F00040B0002CD0002C100820100840D0002056
:10130000B00020300020500020B01040B01020D09D
:1013100010403000005000002800E05000E00000C5
:10132000000000E03000C05008E00000C0E800000D
:10133000D800E0D000C0B00000B000E0D00000183D
:1013400000003008C0D008C0B008E00000F0E8009D
:10135000F01800E01800D0000CF0E80C00000CE0E1
:10136000E80CF0180CE0180CD0E80440E804204029
:10137000004AD0ECF00013800040E0F4D0000040C0
:1013800000803004E0000080004020143000002085
:101390000040F014300000100018FC14260000106B
:1013A0000018FC143A0000400080D0E42000004007
:1013B000004A10FCD0C01340004A300C1080135B70
:1013C0001000D0F8D020005B10003008D0E0005BA7
:1013D00010003018302000401000F0F8C00000006D
:1013E00010404008F00000401000101840000000BD
:1013F0001040E8183000001516041A1B1924252384
:101400001512161A1E1B2427251412151D1E1A2824
:101410002724030102140F121D1F1E282927030071
:10142000011710111319141C231D17041013181978
:101430001C22230C020A110D0E171504171415197E
:10144000181A181D1A2322242228240D200E0807FA
:101450002828030B03020C2605062606090B08287C
:101460000C0B0302260902090A11100D1713141898
:101470001C1D2226280D2120E81C40E81C20E81411
:1014800020E81440C0F4E000142EFE142C001432A6
:10149000FE1434FA142CF8142EFA1434F81432C052
:1014A000E420E0E42000FCC0C0E400E0E400E0FC54
:1014B000C000F4E000F4C0E0F4C0C0FCE0E0F4E000
:1014C0002004E02004C04004E0200CC020040040C0
:1014D0000400400CE0400C00E0E440C0E440201474
:1014E00020401420201440401C20001420201C40C8
:1014F000001440001C40800040000000000040003C
:1015000080C0001000004000504000FC000040007F
:10151000204000D800001800103600E40000180039
:10152000104A00E40000001050B004040000001055
:10153000505004FC0000A00030D802E70008A000D2
:101540001FD808D60018A0003028021900F8A00003
:101550001F28082A00E812131B1F1E10101D1A1B3B
:1015600016180104292628141217131F1C1E101EFA
:101570001D1B1316010504261928251F101B1827EB
:101580001A262325111F1A2310232510182927276F
:10159000201B2024121B20122701290D020B150EDF
:1015A0000F242111252411152614270001090800F4
:1015B00000030C03020D01060701070A0C09000DC8
:1015C0000C0302010A020A0B15140E242021252205
:1015D000241523263000E85000E85000D03000D019
:1015E0005008105008E84200E84400E63E00E83C9D
:1015F00000E64400E24200E03C00E23E00E0B000D1
:1016000030D00030D804DC0000F0000424280C3076
:10161000B00018D00018500C30000C30500424B02A
:1016200008F0B004DC280424000CD0B00CD0D80C96
:10163000D00004DC2000102000F0E00010D000F00A
:10164000000010E000F0B000F0300010B0081850BA
:101650000010500038D0002E0000500080D000E074
:101660000000300050F000D400003000502800D4BA
:1016700000001000504000D400001000203800C8C6
:1016800000001000203800E000000010504404D496
:1016900000005010003004C000005010003004E87A
:1016A0000000801000DC04C00000001080BC04E0DA
:1016B0000000400058D8001040F04000580C00DCFA
:1016C00000F0020503182021020405181F20202322
:1016D00025100526201F231003051328271C2A295F
:1016E000271612291D1B1317281C1E2A2728162906
:1016F0002A1D0B0D03150E0F0011011F18220908DA
:101700000002010A01060701070A09000C00030C88
:10171000020A0B0D0C03020B0315140E0010111816
:101720001922222423231F223400C03400E844005D
:10173000E84400C04408E84408C03400D63600D865
:101740003400D23600D03A00D83C00D63A00D03C23
:1017500000D2BC003CE4003C1C00C01C00E8C4F803
:1017600020EC0820BC0020E40020C4F800EC0800B5
:10177000BC0000E40000E400C0FCF8C8FC08F01C59
:10178000F8C81C08F0BC00C0BC08C0BC0800E400DD
:10179000E8FC00C0FC00E8FC08C01C08C0D8002021
:1017A000D80000FC00DC1C00DC300070E4003400D9
:1017B000007000300C002400003000B01C00EC0071
:1017C000003000101C00B400001000101400BC0019
:1017D000001000102400BC00003010001C04B000F9
:1017E00000441000E4042420004410001C042420C1
:1017F0000030001D1C0406001830001D1C04F200FF
:10180000E83000101C08FC00003000101C04D4005C
:10181000003000121C02DC00133000121C02CC004D
:10182000ED020503281127241225020405281011B2
:101830002413121A181B1614172220231E1C1F1AF9
:1018400019181615142221201E1D1C0B0D0314003F
:1018500001211F202623242624250F290E2928278D
:101860001D1B1C2725291917180908000106070147
:10187000070A09000C00030C02010A020A0B0D0CF6
:1018800003020B03141500211E1F2622230F2829F3
:101890001D1A1B2726251916171000C02800C0285E
:1018A00000B01000B02808B01008B01E00C0200022
:1018B000BE1A00C01800BE2000BA1E00B81800BA38
:1018C0001A00B8F00050D80050D80830F0081810AE
:1018D00008302808182800C81000C81004D02804B0
:1018E000D02804D81004D81000E02800E02800EC2C
:1018F0001000EC1008F82808F8280800100800105C
:10190000000C28000C280018100030100018F000FF
:1019100018D80030F0003030007034F81000005853
:10192000003012F800000044100034FC00E0001801
:1019300020181200EE0000182018120012000030CB
:101940000024F4FA00400A500030D8FC00000030B7
:101950000020D0FCEC0000300010D0FCD8000010BB
:101960000010C8FCE00000100010D8FCE0000030BF
:101970001000D000D40000441000D00000E0000EA1
:10198000110D1215111618150E1211121615161723
:10199000181A0F3C0708042E312F2B3A0B27252944
:1019A0001F231E0E1E1B1C16171C171D171D130FA1
:1019B000133C3C131D261D271A030F072A082E303F
:1019C000312B3B3A2928272824262728261F212285
:1019D00022231F23201E0E1F1E1C1216263C1D052F
:1019E0000A060C0F0310130F14171305090A0C1025
:1019F0000F101413141817040307021901060E051B
:101A000037392F2B2D2C090B0A040E030207190658
:101A1000030E35342C2D32332D3336352C382C2F04
:101A2000382E2D362E363739382F2E372F2B002DC6
:101A3000092B0BDCFCF428F82C40F82C18F80C28A7
:101A4000F8F4FCF8F4FCF80C40F80C2800F4ECFC7A
:101A5000F4ECFC0CDCFC0C0CF80C0CF8F418F8F4AE
:101A600018040C0C040C0C04F41804F4180C080CE6
:101A70000C080C0CF8180CF81810000C100028F8C2
:101A80000C18F81818F8E81818F418180C181CE8AE
:101A9000181CF41820E41820F81824F81824E41866
:101AA000201C182008181C18181C0C18241C18249A
:101AB0000840000CC4FCF4C4FCE4DCFCE4DCFCD412
:101AC000C4FCD4DC04D4C404D4D2FCE4D4FCE2CE00
:101AD000FCE4CCFCE2D4FCDED2FCDCCCFCDECEFCB4
:101AE000DCDC040CC404F41808183000900C001856
:101AF0000000600030E800000000300030DC00E84A
:101B00000000300010DC00D00000100010D400D81D
:101B10000000100010E400D80000300800DC02CC07
:101B20000000202000F408F40000202000F4080C3D
:101B30000000440800DC0200E0004408000C020041
:101B4000E0002225232724262224252725240407F4
:101B500005121A11011800202321040607121B1A6E
:101B60000119182022231C1F1D1E211F1C1E1F1EB1
:101B700020210F05041102100015131417150B0A6C
:101B80000203080903090C0B020E02050E04030CE4
:101B9000040C0D0F0E05040D0F02031010011301AC
:101BA0000013131210121110001415141617180038
:101BB0000C0000F4D000DCE800DCE800CCD000CC65
:101BC000E804CCD004CCDE00DCE000DADA00DCD8BB
:101BD00000DAE000D6DE00D4D800D6DA00D4E8007F
:101BE000F4D000F4E8000C00000C180024000024DD
:101BF00018003C00003C18040C0004F4D004F4E885
:101C0000040CEC000CFC000CEC100CFC100CEC18A0
:101C100004FC1804EC18FCFC18FCEC10F4FC10F4A8
:101C2000EC00F4FC00F45000480000360000900086
:101C3000B80000F60000200010F400C400002000EE
:101C4000100C00C400005000100000BC0000501038
:101C5000000004B800002D10001C041C20002D10F2
:101C600000E404E420002D10001C04E4E0002D102A
:101C700000E4041CE0000010481404CA0000001036
:101C800048EC043600000010481404360000001030
:101C9000502404000000001050DC0400000022105A
:101CA000220004002000001048EC04CA00000205D5
:101CB00003140E1513111218281E1F241A020405EE
:101CC000140F0E1310111822281F29241410131595
:101CD000111219221816271D1C2117051F031A257A
:101CE0001B1E0402140F10150E1119232216202793
:101CF0001C262105291F1A24251E28041B261C1D0D
:101D000023190E10111B25261D27230E0F100D035E
:101D1000021C1D13001F1E09080002010A0106070C
:101D200001070A09000C00030C020A0B0D0C030248
:101D30000B0D14151F1F1A141A1B141C17161B1C2D
:101D4000141C161D1D191319181213191213141C23
:101D50001F151E15121E12181E1E0100EC00C814BD
:101D600000C81400B8EC00B81408B8EC08B80200B9
:101D7000C80400C6FE00C8FC00C60400C20200C0C1
:101D8000FC00C2FE00C00008F4F4080000080C0CBF
:101D900008000C000000000CF400000000F4140027
:101DA00048EC00482400EC240014DC00ECDC0014B7
:101DB000EC00241400241400DCEC00DC140848ECD3
:101DC00008482408EC240814DC08ECDC0814EC08AF
:101DD000241408241408DCEC08DC000046018B0203
:101DE000CF03110551068D07C608FB092C0B570CB4
:101DF0007D0D9E0EB90FCE10DC11E412E613E01437
:101E0000D515C216AA178A186419381A051BCD1BD6
:101E10008E1C4A1DFF1DB01E5A1F00200103070F14
:101E20001F3F7FFFFFFEFCF8F0E0C080FFFFFFFFD9
:101E3000FF7F5555FF3F3333AA2A9224FF1F711CA1
:101E4000991945175515B11349121111FF0F0F0FAD
:101E5000380E790DCC0C300CA20B210BAA0A3D0ACE
:101E6000D8097B092409D30888084208FF07C1075D
:101E7000870750071C07EB06BC06900666063E0661
:101E80001806F405D105B00590057205550539050C
:101E90001E050505EC04D404BD04A70492047D04CA
:101EA000690456044404320421041004FF03F003BF
:101EB000E003D203C303B503A8039B038E0381038E
:101EC000750369035E03530348033D03330329038A
:101ED0001F0315030C030303FA02F102E802E002F8
:101EE000D802D002C802C002B902B102AA02A302FB
:101EF0009C0295028F02880282027C0276027002A6
:101F00006A0264025E02590253024E02490243020F
:101F10003E023902340230022B02260222021D0246
:101F20001902140210020C0208020402FF01FC0153
:101F3000F801F401F001EC01E901E501E101DE0144
:101F4000DA01D701D401D001CD01CA01C701C30113
:101F5000C001BD01BA01B701B401B201AF01AC01CA
:101F6000A901A601A401A1019E019C01990197016B
:101F7000940192018F018D018A01880186018301FC
:101F800081017F017D017A0178017601740172017E
:101F900070016E016C016A016801660164016201F1
:101FA00060015E015C015A0158015701550153015E
:101FB000510150014E014C014A01490147014601BE
:101FC0004401420141013F013E013C013B01390115
:101FD0003801360135013301320130012F012E0164
:101FE0002C012B01290128012701250124012301AE
:101FF000210120011F011E011C011B011A011901F1
:1020000018011601150114011301120111010F012C
:102010000E010D010C010B010A0109010801070164
:10202000060105010401030102010101000000AAEB
:1020300055AA55FFFFFF0102040810204080000050
:10204000F838000000000000FC7C0000000080C0A8
:10205000C0C0C0000080F87E0E0080C06060E0C09C
:102060000000000000000000E0E60600C0C00080A4
:10207000C0C0C0800000000000000000000080E040
:1020800070301818181838F0E000C0C00080C0C0C8
:10209000C0800000000080C06060E0C0000080F8E8
:1020A000780000007C7F0303030303037F7F0000AD
:1020B000003C7F636070381F0F007F7F00001E3F71
:1020C0003736333118080000000000003C3F0100A3
:1020D000383F0F070100001F3F30000000000000E4
:1020E00000001E3F716060603030180E0701383FFD
:1020F0000F070100001F3F3010001E3F37363331FD
:102100001808303707000000FFAA55AA1100000088
:10211000110055AAFFAAFFFF00FE02FA2A1202725E
:102120008A72027A8262827A02FAAA8A02FA2AD32E
:10213000040E1F4000400040005F055A005F15512B
:102140000052154900411F41005E055E005F055ABF
:1021500000411F4100400040004000FF004E114E72
:1021600000471847005F1551005F055A00471847A0
:1021700000511F51005F1551004F104E104F00408D
:102180000040004000FF0040004000400040004090
:1021900000400040005F054200511F5100411F41B7
:1021A000004E1151005F045F00400040004000FFFE
:1021B000004040404040404040404040404040405F
:1021C0004040404E595F405F505F40515F51404139
:1021D0005F41404040404040407F0070C8F000F800
:1021E00080F80088F8880008F808F808F000F8A8D7
:1021F0008800D820D80008F808FA22FA02728A72F9
:1022000002FA828202FAAA8A02020202020202028E
:10221000020202FE0002000200FA281200F228F276
:1022200000FA28D20002000200020002000200FFB1
:102230000092A84A00FA20FA00728872000AF80A8E
:102240000002000200020002000200FF005C1DAE5E
:102250001C261C2A000A10061A3A11000080008071
:102260000F000000FF00F102AE1B421BEA1A28001B
:1022700004080414240B00038000000C00F700FF86
:1022800000F603331A7F1917193D00061A08143C8B
:102290000D000D80FE000800F400FE00F803991800
:1022A0002118A9172A000006081A280F00F9800033
:1022B0000011000700FF00EF042817C21652162B6A
:1022C0000004040812220E00F28000000C000E0030
:1022D000FF00F504D4155615F6142A00000C0A1454
:1022E0002A0C00F080000009001000FF00F90478BB
:1022F00014F7136F132A00060806172B1100F48039
:10230000F9000D00FF0004000C05CD123112B111CF
:10231000360006080422341000108000000C00F083
:1023200000FF000C040F116110E90F3600040610C5
:10233000203A0F00008000000F000000FF00F204B0
:102340007A0F0B0F830E2500020A0811251100F1E8
:102350008000001100FF00FF000F03080E990D1907
:102360000D2900000A0615251000FB80FC800B00DB
:10237000FB000200F304740CE40B340B37000C0474
:10238000061A301600008005000F000000FF00F064
:1023900004A40A1A0A920930000A0A02182E11002F
:1023A000008000001100F500FF00F105F908750834
:1023B000D5073300080A06142C14000F80FF00070D
:1023C00000F100FA000B051B077F060F063E000810
:1023D0000E021C340E00008000000F000000FF0001
:1023E000F2049105190589042A00000A081628122A
:1023F000000080020011000000FF00F605EA035112
:1024000003A9023500060A081B331500FB800000F3
:102410001200EF000200F106F8014401AC003B009D
:10242000020C042A3C130010800000F7000000FF9B
:1024300000000618183C7E002499423CFEFE121E45
:102440000C007EFE80C0C000FCFE12FEFC00CEDE52
:1024500098FE7E000000000000000000FEFE121E3C
:102460000C00FEFE12FEDC00FCFE12FEFC007CFEF8
:1024700082C6440002FEFE020082FEFE82007CFE56
:1024800082C644007CFE92D6C600000080C0F03CAC
:102490007CF0800000000080E06080C0E060E00030
:1024A0000080C0C06060C0F87F070000E0E000006E
:1024B0000000C0C00000C0F038180C0606068E8E62
:1024C000000080C0E06060E0800080FC7F07C0F01A
:1024D000FCCEC3C34F0630381E0707060602030FA3
:1024E0001E3830001F3F1E0301000000001E3F3158
:1024F00030180E1F3F3010001F3F3030180C1E3FA9
:1025000020001F3F3030303818CCFE0F01003E7FD6
:10251000616070381F07007F7F0000787F03000034
:1025200000000070887090F880C8A89088A8503883
:1025300020F8B8A84870A84008C83850A85010A87B
:1025400070000306090C0F1215181B1E2225272ADE
:102550002D303336393C3E414446494B4E5053555D
:10256000575A5C5E60626466686A6B6D6E70717308
:1025700074757678797A7A7B7C7D7D7E7E7E7F7FAE
:102580007F7F0000240348066A098C0CAB0FC81239
:10259000E215F9180B1C1A1F2322282526281F2BA9
:1025A000112EFB30DF33BA368C39563C173FCE4103
:1025B0007A441C47B4493F4CBF4E33519B53F555A9
:1025C0004258825AB35CD75EEB60F162E864CF6632
:1025D000A6686D6A236CC96D5E6FE2705472B57344
:1025E000047541766B77847889797C7A5C7B297C69
:1025F000E37C897D1D7E9C7E097F617FA67FD87FDD
:10260000F57FFE7FD5F08D14A1C881CFD9F1AF2021
:1026100000080B000202020000090400000102028F
:102620000000052400100105240101010424020614
:10263000052406000107058103100040090401007C
:10264000020A00000007050202400000070583029D
:102650004000000403090412010002EF020140419E
:1026600023368000010102030141726475696E6FB7
:10267000204C4C430041726475626F790000303425
:1026800011241FBECFEFDAE0DEBFCDBF11E0A0E026
:10269000B1E0EEE2FDE602C005900D92AC32B1076A
:1026A000D9F729E0ACE2B1E001C01D92A93FB20721
:1026B000E1F713E1C0E4D3E104C02197FE010E94D9
:1026C0008F36CF33D107C9F70E948D340C949536DD
:1026D0000C94000080914F050895FC0180916E05D7
:1026E000882311F13FB7F89482E08093E9002091AC
:1026F000F200822F90E01816190614F481E090E0A1
:10270000882339F0289844E640936D054091F10004
:102710004083222339F02091F200211103C02BE6DF
:102720002093E8003FBF08958FEF9FEF08952FB7E4
:10273000F89483E08093E9009091E800892F8072FB
:1027400095FF04C09091F20080E4891B2FBF08958B
:102750008091650581110DC082E08093610584E060
:1027600080936205109264051092630581E0809366
:10277000650581E695E00895A1E0B0E0E2ECF3E1C3
:102780000C9468366983DC01ED91FC910280F38141
:10279000E02D41E050E0BE016F5F7F4F099521962B
:1027A000E2E00C94843683E08093E9008091F200AB
:1027B000882319F08AE38093E8000895B8DF90E059
:1027C0000895A1E0B0E0E7EEF3E10C946836FC0177
:1027D0008485958597FD08C02FEF3FEF35872487C7
:1027E0002196E2E00C948436CE01019676DF0197C3
:1027F00019F4898190E0F4CF8FEF9FEFF1CFA1E042
:10280000B0E0E5E0F4E10C9466368C01FC018485CF
:10281000958597FF0AC0CE0101965FDF019761F4AD
:10282000898190E0F80195878487F80184859585F2
:102830002196E4E00C9482368FEF9FEFF3CFFC01FA
:102840008485958597FD0BC09FB7F89482E08093AF
:10285000E9008091F2009FBF90E0019608959FB734
:10286000F89482E08093E9008091F2009FBF90E0AD
:10287000089540915B0550915C0520915905309178
:102880005A0542175307B4F49091E8009570E1F3AC
:102890009091E80092FD19C08093F10080915B0552
:1028A00090915C0501968F739927892B19F48EEF0F
:1028B0008093E80080915B0590915C050196909370
:1028C0005C0580935B0581E0089580E00895EF92B8
:1028D000FF920F931F93CF93DF93F82E192FE62EBD
:1028E000042F81E0860F880FC4DF83E0C2DFCF2D85
:1028F000D12FEC0EFD2EF11CCE15DF0599F007FF50
:102900000FC0FE018491B5DF182F80E0B2DF812374
:1029100021968111F1CFCDB7DEB7E6E00C94803679
:102920008881F1CF81E0F7CFB0E0A0E0EAE9F4E1FF
:102930000C946336D82E8A01EB017B01E40EF51E60
:10294000CE15DF0551F0D7FE0EC0FE01849191DF58
:1029500021968111F5CF0FEF1FEFC801CDB7DEB77C
:10296000E7E00C947F368881F2CFA1E0B0E0EBEB9A
:10297000F4E10C94663682E0898342E450E061E140
:1029800076E280E8D1DFE4DEDC0112960D911C9145
:102990000115110589F0D801ED91FC910280F381B8
:1029A000E02DBE016F5F7F4FC801099597FD04C000
:1029B000F80100851185ECCF89812196E4E00C9423
:1029C0008236615030F02091F100FC0120830196A5
:1029D000F8CF289884E680936D0508953FB7F89462
:1029E0008091550590915605A0915705B0915805D5
:1029F00026B5A89B05C02F3F19F00196A11DB11D5A
:102A00003FBFBA2FA92F982F8827BC01CD01620F95
:102A1000711D811D911D42E0660F771F881F991F50
:102A20004A95D1F708958F929F92AF92BF92CF921D
:102A3000DF92EF92FF926B017C01D0DF4B015C01D2
:102A4000C114D104E104F104B1F0C8DF68197909B7
:102A50008A099B09683E73408105910588F321E04E
:102A6000C21AD108E108F10888EE880E83E0981EAA
:102A7000A11CB11CE5CFFF90EF90DF90CF90BF90ED
:102A8000AF909F908F90089565E070E080E090E0B7
:102A9000CACF0895B0E0A0E0E0E5F5E10C945E3621
:102AA0006C017B018A0180910B01882309F45AC0D3
:102AB00080916E05882309F455C08091600580FFE0
:102AC00005C08091E00082608093E000E801B12CB5
:102AD0008AEFA82E93E0892E2AE3922E209711F4F4
:102AE000BB20C9F124DE811109C0AA94AA20D1F12A
:102AF00061E070E080E090E096DFF0CF8C171D067B
:102B000011F00CF08C2F9FB7F8948092E90020917F
:102B1000E80025FD02C09FBFE1CF282F30E0C21B97
:102B2000D30BF701815020F041914093F100FACF8F
:102B3000E20EF31EBB2021F09092E800B12CEBCF07
:102B40008091E80085FDE7CF9092E800BB24B39424
:102B5000209709F3F3CF5D9884E680935F05101604
:102B600011063CF081E090E0F6019383828310E04F
:102B700000E0C801CDB7DEB7ECE00C947A368FB137
:102B80008095807F669B88601C9B8460089510926E
:102B90004F053E983F9808953E9A3F9A81E0809372
:102BA0004F05089520914805E0914605F0914705AD
:102BB000CF0102969093470580934605222319F092
:102BC000859194910895808191810895CF92DF92AB
:102BD000EF92FF92CF93DF93E5DF811520E8920714
:102BE00091F4809171008D7F80937100109291001B
:102BF0004698479810924505DF91CF91FF90EF904E
:102C0000DF90CF90089521E020934505813020E8A2
:102C1000920749F4809143059091440590934705AC
:102C200080934605BFDF97FD05C020914205222312
:102C300009F453C02091410521114FC021E0209398
:102C40004905EC01DF77209709F04AC081E08093C5
:102C50004A0546983FE9C32E3FE0D32EE12CF12CE4
:102C6000CAEFD0E0E091F705F091F80509958111E0
:102C700003C081E080934A0580914905882329F0AB
:102C800080914A05882309F43EC047988BDF00975E
:102C9000F1F19C01DE010E943436DC01CB0129E018
:102CA000B595A795979587952A95D1F7109290009D
:102CB0002AE020939100D0929900C09298008093CE
:102CC0004B0590934C05A0934D05B0934E05809114
:102CD00071008260809371008FCF10924905B1CF4F
:102CE0009E0150E040E060E472E48FE090E00E94DA
:102CF000EC3569017A0181E0C81AD108E108F108D0
:102D000010924A05AFCF4699C0CF479ABFCF8FEFF9
:102D10009FEFDC01CBCF9C01E1E7F0E090819D7F4C
:102D2000908310924805E9EEF5E0F0934705E093B3
:102D30004605F0934405E093430531832083738374
:102D4000628380E090E89583848340CF0895482F84
:102D5000E82FEF7386FF03C080E48E1BE82FF0E0BE
:102D6000EE0FFF1FEE57FA4D8591949147FF03C078
:102D70009195819591090895E82FEF7386FF03C01F
:102D800090E49E1BE92FF0E0EF5BFA4DE49187FDA4
:102D9000E1958E2F0895EF92FF920F931F93CF939B
:102DA000DF93C091D905D091DA05A62FB0E0AA0F24
:102DB000BB1FAC0FBD1FE42FF0E0EE0FFF1FEC0FA9
:102DC000FD1F4D915C9160817181460F571F90E00E
:102DD000880F991FC80FD91F88819981480F591FE3
:102DE00080917F0590918005DC01A01BB10BB7FF9E
:102DF00003C0B195A195B109BC016E197F0977FF98
:102E000003C07195619571096A177B070CF4DB01AA
:102E1000821B930B97FF03C09195819591098A17A7
:102E20009B070CF4DC019D010E944C3624E0880FC6
:102E3000991F2A95E1F7840F951FCDB7DEB7E6E01D
:102E40000C94803620E0AC01D703C0014E03821FF2
:102E5000312D5603000C111C920B300D811D921F59
:102E60007403000C111C920B300D811D921F112454
:102E700008952F923F924F925F926F927F928F921E
:102E80009F92AF92BF92CF92DF92EF92FF920F93F9
:102E9000CF93DF93CDB7DEB764970FB6F894DEBF5C
:102EA0000FBECDBFFC0129833A834B835C836D83C6
:102EB0007E83ADE7B5E0E980FA808D919C91119712
:102EC000E81AF90ACB80DC8012968D919C911397B9
:102ED000C81AD90A6D807E8014968D919C91681ACB
:102EE000790A202E312C4091D9055091DA05210123
:102EF000440C551C440D551D9701D7010E944C36BA
:102F00004B015C019601D6010E944C36860E971E3D
:102F1000A81EB91E9301D3010E944C36860E971E3F
:102F2000A81EB91EDA01AD92BC92A280B380848142
:102F3000958198878F83A681B781BC87AB87808571
:102F400091859E878D87A285B385B88BAF87848551
:102F500095859A8B898BA685B785BC8BAB8B808931
:102F600091899A87898760817181C7016BDF4C01E4
:102F7000B501C60167DF880E991E6F817885C30190
:102F800061DF880E991E6B857C85C7015BDF5C0164
:102F90006D857E85C60156DFA80EB91E6F857889BE
:102FA000C30150DFA80EB91E69897A89C7014ADFBB
:102FB0007C016B897C89C60145DFE80EF91E6985B5
:102FC0007A85C3013FDFF101EE0FFF1FEE0FFF1FF8
:102FD000E55AFC4F91828082B382A282E091D305B0
:102FE000F091D405E40DF51DE80EF91EF194E1947D
:102FF000F108F182E08281E0800F64960FB6F894C8
:10300000DEBF0FBECDBFDF91CF910F91FF90EF904C
:10301000DF90CF90BF90AF909F908F907F906F90F8
:103020005F904F903F902F9008959C01B603C00190
:103030006203000C111C00249009810D1124911DC4
:1030400008959C01369FC001279F800D911D379FD9
:10305000900D269F810D1124911D08959C0136032A
:10306000C0017203800D911D379F900D269F810D29
:103070001124911D08959C013603C001729F800D9B
:10308000911D379F900D269F810D1124911D08954C
:103090009C013603C001269F810D1124911D0895C6
:1030A000EF92FF920F931F93CF93DF93EC018D2F3D
:1030B0004EDE8C0181E08D0F4ADE7C0160E071E024
:1030C0006C1B7109C801D7DF8C016C2FC701E0DFD1
:1030D000800F911FCDB7DEB7E6E00C948036ACE0F0
:1030E000B0E0E5E7F8E10C945B364F8358876987D9
:1030F0007A878B879C87CF80D884E984FA840B8574
:103100001C85C701F7FE04C0882799278E199F09DF
:10311000980117FF04C022273327201B310B821789
:1031200093070CF4C9019601D7FE04C02227332768
:103130002C193D09821793070CF4C9018F3F9105A3
:10314000B1F0ACF0D7FE03C02FEFC21AD20AD5946B
:10315000C794F7FE03C03FEFE31AF30AF594E79430
:1031600017FF02C00F5F1F4F15950795CACFB60115
:10317000C60174DF4C01B701C70170DF880E991ECC
:10318000B801C8016BDF880E991E38E0532EA12CC0
:10319000BB24B39450E8652E77247394B501C50120
:1031A00050DFBC01C4014DDF96958795B5019301B1
:1031B000281B390BC90145DF5C015A945110EECF31
:1031C000BC01C60158DFD82EC92EB501C70153DF97
:1031D000F82EE92EB501C8014EDF2D2D3C2D4F2DC7
:1031E0005E2DBC0180E090E02C96EFE00C947736E9
:1031F000A5E1B0E0EEEFF8E10C945C361887298782
:103200003A874B875C876D877E878F87A88AB98AC4
:10321000CA8ADB8AEC8AFD8A688879888A889B88D2
:10322000AC88BD88602FC30100DF6C016885C401D4
:10323000FCDEC80ED91E6985C501F7DEC80ED91E91
:103240006A85C301F2DE7C016B85C401EEDEE80E07
:10325000F91E6C85C501E9DEE80EF91E6D85C30116
:10326000E4DE8C016E85C401E0DE080F191F6F8556
:10327000C501DBDEDA82C982FC82EB82800F911FFE
:103280009E838D832C2D3A814E2D5C81682F7E810B
:1032900080E090E06596EEE00C947836EF92FF9235
:1032A0000F931F93CF93DF93DC0180E8689FB001F9
:1032B000112467507A4F30E0F02EF40E015010E0E8
:1032C0000F5F1F4FFD01942F549197FD06C0EB0136
:1032D000C90FD11DE11011C0588331969F5F9F1116
:1032E000F3CFA00FB11F3F5F60587F4F2313EACF8A
:1032F000CDB7DEB7E6E00C9480368881852B8883D5
:10330000ECCFEF920F9323E0829FC0011124EE24B3
:10331000E39403E021E08D5D9A4DC0DF0F91EF90C3
:1033200008950F931F93CF93DF93162FEC01C83EA0
:1033300083E0D80710F0C7EED3E080E0C436D105B3
:1033400020F0C456D1098F5FF9CF00E0CA30D10513
:1033500018F02A970F5FFACF882381F04CE5612F90
:10336000D0DF40E6612F802FCCDF44E6612F8C2F29
:10337000C8DFDF91CF911F910F91089540E60023A0
:10338000A9F34EE5612F802FBCDF42E6EFCF1F93FC
:10339000CF93DF93162FD42FC82F843608F0C3E6BF
:1033A00080E0CA3018F0CA508F5FFBCF42E088231C
:1033B00021F04D2F612FA5DF44E04D0F612F8C2FA1
:1033C000A0DFDF91CF911F910895809176019091B8
:1033D00077012091780130917901E0913D05F091DC
:1033E0003E0560913F0570914005409174015091F8
:1033F0007501A0913B05B0913C054A1B5B0B57FF43
:1034000003C05195419551094F3F510509F0BCF456
:103410008E1B9F0B97FF03C09195819591098F3F5C
:10342000910509F064F4261B370B37FF03C0319573
:103430002195310981E02F3F310511F00CF080E03A
:10344000089586E0EEE6F1E0ABE3B5E001900D9281
:103450008A95E1F786E0E9E4F1E0DF01982F1D921B
:103460009A95E9F7E0E3F1E0DF011D928A95E9F72B
:10347000089580935A012BE1829FC0011124835B40
:103480009D4D9093590180935801DBDF10926501A7
:1034900010925C0110925B011092600110925F012A
:1034A00080E28093560180E090E1909362018093E6
:1034B000610181E080936301089580E0DADFE6E353
:1034C000F1E0119281E0E834F807D9F71092630136
:1034D00086E0ECE0F1E0ADE7B5E001900D928A9571
:1034E000E1F780E090EE909372058093710580E0A3
:1034F0009FE09093700580936F0580915D018170CE
:1035000080935D0180E2809355018AE280932F01D0
:103510000895D3CF089587FD1BC060347105C0F4B2
:10352000FB0194E0EE0FFF1F9A95E1F7E078F3704E
:10353000E80FF11DE750FA4F6770772781E090E0C0
:1035400001C0880F6A95EAF780959081892380836E
:103550000895CF93461757070CF438C057FD36C06F
:10356000603471059CF587FD31C077FF02C070E0C3
:1035700060E0C62F4F33510514F04FE350E0C87F91
:10358000942F987F677077276C5D714EFB01649173
:10359000FA01E770FF27E45EF14E4491E82FF0E076
:1035A00080FF232F80E1C89FD0011124AE0FBF1FE1
:1035B000A750BA4F3C91C9130BC0E62FE4239E2FAE
:1035C0009095922BE223E32BE923EC93CF9108957E
:1035D000862F8095582F522BE62FE2238E2F832B98
:1035E00085238C93A058BF4F892F8C1B88501816A9
:1035F00024F42C93A058BF4FF9CF6C91E42FE095A1
:103600008E2F822BE42FE223E62BE823DECFE62F5A
:10361000E770F0E0EA5CFF4DE4916695669566958B
:1036200090E8699FD0011124A80FB11DA750BA4F8F
:103630008C91E82BEC930895B0E0A0E0E2E2FBE18E
:103640000C946236C82FE62E182F110F110F110F90
:10365000D0E069E0610F8D2FDADF61E1610F8D2F1E
:10366000D6DF69E1610F8D2FD2DFDE5FDA3689F7B1
:1036700020E8C29FC00111248758994FFC01AC017A
:103680004C595F4FDF01A058BF4F2AEA2C9320838B
:103690003A964E175F07B1F7FC01E851FF4F2083C0
:1036A00088599F4FFC012083CC24C394CE0CF12C6D
:1036B000C7018A5C9E4F7C01D2E010E000E0D12C73
:1036C0004D2F6C2F8C2D63DEF70181917F01080F48
:1036D000111D882391F04D2F62E06C0F58DEEFEF43
:1036E000EC0D2BE1E29FF0011124E959FD4D84918D
:1036F000D80E4D2F61E06C0F4ADED65FC394DC35E7
:10370000F9F6DD2049F061E06C0F8D2D90E009DEC7
:1037100062E06C0FC80105DECDB7DEB7E8E00C94BF
:103720007E369C0143E0969587954A95E1F737FDF3
:10373000906E0895AAE0B0E0E0EAFBE10C94583600
:103740009B838A837A8769875A013901D886CF8219
:103750004617570764F0E016F1064CF09E2D8F2DAA
:103760007801092F182F8B2D5B0149878A879301D8
:103770004A815B81241B350B3D832C8347018A18CA
:103780009B0897FE03C09194819491081801898544
:103790009A85281A390A37FE03C0319421943108DA
:1037A0002A2D2770998597709983EA14FB0414F4E5
:1037B0002195277049855A850417150724F48981B6
:1037C0008195877089838A8187709CEFC92EC80E86
:1037D0000C2C000CDD082850330B4C815D81249F9C
:1037E000C001259F900D349F900D11248C9C900159
:1037F0008D9C300D9C9C300D1124821B930B91DF0E
:103800002C0189818850990B9C014C815D81249FFA
:10381000C001259F900D349F900D11242C9C900188
:103820002D9C300D3C9C300D1124821B930B79DFB5
:103830006C01AE14BF040CF441C05FEF59832985BD
:103840003A85201731070CF43CC03FEF3E83EA1461
:10385000FB041CF451E0A51AB10889859A85081764
:1038600019071CF401979A8789878A819B8159DF00
:103870008C01C301039655DF9B838A83C50151DF09
:103880005C0189859A854DDF7C019981692E990FAC
:1038900077082E81022E000C330B3A8729874A8144
:1038A0005B814017510749F1141415046CF4A60C00
:1038B000B71C8C819D81481A590AF6CF81E0898313
:1038C000BECF41E04E83C3CF1C141D044CF42985A8
:1038D0003A85E20EF31E4C815D81C41AD50AF4CFFD
:1038E0002F813885A701B501802F33DE0F5F1F4F71
:1038F000480C591CC20CD31CD2CF2A96E2E10C947E
:103900007436A3E0B0E0E7E8FCE10C945836AA274F
:10391000BB27A41BB50B8B016A177B070CF47DC07A
:103920008A179B070CF479C0DA01BC5FA617B707AA
:1039300008F473C0A817B90708F46FC069015B8366
:103940004A835C01CB01EDDE8983C501EADE5C01BF
:103950000A811B8183E0169507958A95E1F71B8301
:103960000A8328EF20032001219F500C112418E026
:10397000410E511C8A819B81880F991F880F991FC6
:1039800025E030E07901E81AF90A10E000E03CE0B7
:10399000232E312C96018A809B808A0C9B1CA401CB
:1039A00035018A819B81681A790AB3018981800F68
:1039B000D0DD9601A401B3018981801BCADD960187
:1039C00048018A0C9B1CA4013501601A710AB301DD
:1039D00089819A81890FBDDD9601A401B301898196
:1039E000EA818E1BB6DDF7FC0BC0E40CF51CF8E099
:1039F0004F0E511C4A815B81415051095B834A83C0
:103A0000E20CF31C58E0250E311C0F5F1F4F8A811A
:103A10009B81801791070CF0BDCF2396E2E10C94B7
:103A200074360F931F93492F50E0440F551F445D88
:103A3000514EFA0125913491FA013296A591B49133
:103A4000482F4095349FB001249F610D1124711DB2
:103A5000B89FA001A89F410D1124511D460F571F6B
:103A6000232F3327FA01E20FF31F9F01DC010E948D
:103A70003436072F182F292F332780E090E0A2E05B
:103A8000801B910BA20B9C014A2F50E0DF010E948A
:103A900008361F910F910895B0E0A0E0E2E5FDE146
:103AA0000C9460365C01E9018417950739F1D8015F
:103AB000A21BB30B201731071CF0D901A01BB10BBF
:103AC0009B012A193B090E9434366B017C01CA0113
:103AD0008A199B098F3F9105B9F0B0F0A2DF5527F5
:103AE0004F2D3E2D2D2DDC010E9408360C171D0791
:103AF0001CF4919581959109C80FD91FCE01CDB7BE
:103B0000DEB7EAE00C947C36FC01EE0FFF1FE45DAB
:103B1000F14EA591B491A7019601E6CFB0E0A0E0E7
:103B2000E4E9FDE10C945A364B015C01EA012801FD
:103B300039019B01A70160E071E0CE01ADDF6C01AE
:103B400083019501A70160E071E0CE01A5DFB60118
:103B5000CDB7DEB7E0E10C947636AAE0B0E0E3EB57
:103B6000FDE10C9458364C012A011801B42FA52F01
:103B70004817590714F4B82FA92FEB2FFA2FE21585
:103B8000F3050CF4F801F7FDD9C0B42FA52F841468
:103B9000950414F4B82FA92FEB2FFA2F2E163F06F9
:103BA0000CF4F801E130F2400CF0C8C05B013A8738
:103BB00029873701261737070CF0E4C0E616F70609
:103BC0000CF0C0C02C014A017A87698759016A1438
:103BD0007B040CF4BFC0782D692D9A2D8B2D4801E4
:103BE0005701120169847A842401BA86A986872E36
:103BF000962EA92EB82E77FCA1C0A114F4E0BF0622
:103C00000CF09CC0A614B70409F498C0810194017B
:103C1000A30169857A85C5013FDF89839A83EC2DED
:103C2000F0E0EE0FFF1FE45DFF4D259134913E83E0
:103C30002D83B7FE9DC08201940149855A8570E0AD
:103C400060E0C50129DF7C0109811A819401498561
:103C50005A8570E060E0C5011FDF8B839C834701BC
:103C6000B12CA12C89859A858130A4E09A070CF4A7
:103C700082C082019401AC0160E074E0C5010CDFF8
:103C80008F83988709811A812B813C8149855A85C8
:103C900060E074E0C50100DF20E034E0A216B30666
:103CA00054F4CD80DE807C010F8118854B815C81CE
:103CB000B401C5013FDDE985FA85F7FF14C0810134
:103CC0009201A30170E060E0CF01E6DE2C012981C2
:103CD0003A81A30170E060E089859A85DDDE898301
:103CE0009A831A861986C101F1E06F16F4E07F0607
:103CF000ACF081019201A30160E074E089859A85AE
:103D0000CBDE7C0129813A81A30160E074E08985E2
:103D10009A85C2DE1701612C24E0722E29853A852E
:103D2000261537055CF4CD80DE807C01810193018E
:103D300049815A81B20189859A85FCDC2A96E2E1A3
:103D40000C947436742F652F922F832F2801FA86D6
:103D5000E98647CF982D892D48011201492E582E0A
:103D60009A2D8B2D570169847A8499878A8743CF4E
:103D70008B829C8277CF89819A814F825886298550
:103D80003A858CCF89859A85E816F9060CF41FCF01
:103D900032CFA8E3B0E0EFECFEE10C945836E090AF
:103DA0007105F090720500916F0510917005C801C2
:103DB00077D96C01C801905C73D98C01C70170D9A7
:103DC0005C01C701905C6CD97C019A8389831C8259
:103DD0001B82BE82AD82B501C60134D898878F831D
:103DE0001A870987B701C6012DD891958195910948
:103DF0009C878B87B501C80125D89195819591093C
:103E00009E878D87D88ACF86B701C8011BD89A8B29
:103E1000898BDBDA8EA7C090D305D090D4058111B1
:103E2000FEC100E020913B0530913C0540913D05ED
:103E300050913E0560913F0570914005CE0101967D
:103E400018D8582ED6018D919C911197412C8F3FF7
:103E5000910509F00CF441C040915B0350915C0363
:103E600060915D0370915E03CA0140935F035093BC
:103E70006003609361037093620380589F4F909337
:103E8000600380935F038D919C91119713969C938F
:103E90008E931297E091D905F091DA058081918196
:103EA0009383828320913D0530913E0579018901FC
:103EB00040E060E080E00E94CB16E091D505F091F3
:103EC000D60580579E4F918380838FEF80937E012C
:103ED0005394B1E0BEA74424439480907401909021
:103EE0007501E0907601F090770120907801309094
:103EF000790137017394282D9C8A8B8A462D7E8AFE
:103F00006D8A622D388E2F8A052D3C895E89788DC9
:103F1000CE0101960E943917082F90E0FC013197DD
:103F2000DC01AA0FBB1FAC0DBD1D11E03E912E910F
:103F30002F3F310509F00CF410E0EE0FFF1FEE0FDC
:103F4000FF1FE55AFC4F40815181628173812081BE
:103F50003181A901405D5F4FFC01EE0FFF1FEE0FA5
:103F6000FF1FE55AFC4F40835183628373832D9179
:103F70003C91880F991FF601E80FF91F31832083C8
:103F80000F5F5701FBEFBF1A4A2DBE8AAD8A2B89FE
:103F90003C895E896F89788DCE0101960E94391720
:103FA000082F90E0FC013197DC01AA0FBB1FAC0D7C
:103FB000BD1D41E03E912E912F3F310509F00CF4DB
:103FC00040E01423EE0FFF1FEE0FFF1FE55AFC4FDA
:103FD000408151816281738120813181A901405DDD
:103FE0005F4FFC01EE0FFF1FEE0FFF1FE55AFC4F66
:103FF00040835183628373832D913C91880F991F75
:10400000F601E80FF91F318320830F5FC701995F25
:10401000482F9E8B8D8B2B893C895E896F89788D8B
:10402000CE0101960E943917082F282F2150330BFB
:10403000F901EE0FFF1FEC0DFD1D21E08081918144
:104040008F3F910509F00CF420E012238091650167
:10405000880F880F880F0E94BC16880E911C87FD60
:104060009A94282D9C8A8B8A3AEFF31A4E2DFE8A59
:10407000ED8A52E0351A622D388E2F8A3C895E898E
:10408000788DCE0101960E943917382E90E09BABB7
:104090008AABFC013197EE0FFF1FEC0DFD1D8081F7
:1040A00091818F3F910509F00CF47CC0112309F434
:1040B00079C0E2E02E2E250C91E0950D9F8FA42D66
:1040C000B0E0BAA3A9A38090D5059090D60575015C
:1040D00083019301422D692F852D0E94CB16E9A102
:1040E000FAA1EE0FFF1FE80DF91D91838083E9A16E
:1040F000FAA1EE0FFF1FEE0FFF1FE558FE4F508293
:10410000BF8DB183228214E0E12EE38223E0250DEE
:1041100029A381E0840D482F50E05CA34BA37501D7
:104120008501930149A1622D8B2F0E94CB16EBA133
:10413000FCA1EE0FFF1FE80DF91D91838083EBA119
:10414000FCA1EE0FFF1FEE0FFF1FE558FE4F5F8D26
:104150005083218269A1628384E0838395E0950D79
:104160009F8F580E42E0642E640C712C9501492FEC
:10417000652D89A10E94CB169301220F331F820E59
:10418000931ED4018D939C93F301EE0FFF1FEE0F4E
:10419000FF1FE558FE4F20825182BF8DB28383E01E
:1041A0008383480EB32C10E0809166011817D8F570
:1041B000E12FEE0F2091DB053091DC05A1E0AE0F81
:1041C000A20FB32FB11D8C91A091DD05B091DE053A
:1041D000A10FB11D6C91E20FF32FF11D4081E0E4BE
:1041E0004E02A0011124242F5A8F498FF0E46F0250
:1041F000B0011124462F7C8F6B8F30E48302C00105
:104200001124682F9E8F8D8F0B2D3A8D5C8D7E8DA6
:10421000CE0101960E943917B82E1F5FC5CF1EA68A
:10422000412C512C5ACE2091D7053091D80587E6E4
:1042300091E049AA50E010E040E073E0F72EDC0185
:104240006D91CD01160FD9015F9DA00DB11D1124F7
:10425000511708F043C07C91730D11966C91119722
:10426000A62EA30C12960C911297030DE72FF0E0E7
:10427000EE0FFF1FEC0DFD1D0190F081E02DEF3FD3
:10428000F10509F0D4F4EA2DF0E0EE0FFF1FEC0D7C
:10429000FD1D0190F081E02DEF3FF10509F06CF478
:1042A000E02FF0E0EE0FFF1FEC0DFD1D0190F081FF
:1042B000E02DEF3FF10579F074F0E9A864E0E69EA7
:1042C000F0011124E558FE4F7083A18202834383DD
:1042D0006E2D6F5F69AB5F5F1396BACF4F5F45304E
:1042E00009F0ADCF842D90E098AB8FA7880F991F70
:1042F000880F991FDC01A558BE4FB8A3AF8FB9A98D
:10430000BDA7E091D305F091D405FAA7E9A7F9A9D3
:10431000EFA4EF1608F44DC07BE5872E73E0972ECF
:10432000E9A4FAA4A12C612C77247394BA1090C24A
:10433000AFE7B1E041E050E0D42EEDA54E1708F014
:104340001BC36091D5057091D605FA01EE0FFF1FD2
:10435000E60FF71F608071808D909D90AD90BD90AD
:104360008D2D90E09C01215031098901000F111F12
:10437000060F171FF801008111810615170508F4B3
:10438000D9C28D2D90E09C01220F331F620F731F45
:10439000FB0171826082880F991F880F991FFC01B1
:1043A000E558FE4F80829182A282B3824F5F5F4FB9
:1043B000C3CFAF8DB8A1AC901196BC91BFA3EF8DC8
:1043C000F8A1F281F8A7AF8DB8A11396BC91BCAB50
:1043D000EA2DF0E0EE0FFF1F29A53AA5E20FF31F2B
:1043E000208031803FA1E32FF0E0EE0FFF1F49A5B1
:1043F0005AA5E40FF51F808191819CA38BA398A5FA
:10440000892E912CF401EE0FFF1FE40FF51FC080E1
:10441000D180A1E0A9A3BFEF2B16310411F00CF05D
:1044200019A2EBA1FCA1EF3FF10509F01CF4F9A1E1
:10443000F260F9A32FEFC216D10409F01CF439A1E0
:10444000346039A38091DD059091DE05F4014AA91D
:104450005BA9E41BF50BE80FF91F208150E425024E
:10446000700111246FA1462E512CF201AAA9BBA9FB
:10447000EA1BFB0BE80FF91F0081B0E40B0280017F
:1044800011246A2C712C9301EAA9FBA92E1B3F0B66
:10449000820F931FDC012C91B0E42B0290011124B8
:1044A00048A58A2D0E94CB1698AF8FABE091D50519
:1044B000F091D605FEABEDABEFA5F8A9EE0FFF1F0F
:1044C0002DA93EA9E20FF31F9183808349A1242FD8
:1044D00030E0C901019784239323892B09F4CCC0D0
:1044E00056E75B1508F480C0C201880F991F880F3A
:1044F000991FDC01A55ABC4FBEA3ADA3C401880F10
:10450000991F880F991FFC01E55AFC4FFCA7EBA7E8
:104510004301880C991C880C991C9401255A3C4F26
:104520004901D9016D917D918D919C9140FD67C0AC
:10453000EDA1FEA1408051806280738071018B01EA
:104540009C014BA15CA1C301B201E8DA2B013C0143
:10455000D4010D911D912D913C91EBA5FCA560819D
:10456000718182819381A601D9DA2B2D30E0F90186
:10457000EE0FFF1FEE0FFF1FE55AFC4F40825182E6
:1045800062827382220F331FE9A5FAA5E20FF31F9F
:1045900020E031E03183208321E02B0DE22EF12C4D
:1045A000F701EE0FFF1FEE0FFF1FE55AFC4F608370
:1045B000718382839383EE0CFF1C49A55AA5E40EF8
:1045C000F51EE0E0F1E0D701ED93FC93AF8DB8A1CB
:1045D000AC9211962C9311971296BC921297ECA95B
:1045E0001396EC93B394B394AFA5B8A91196B8AB56
:1045F000AFA7EF8DF8A13496F8A3EF8F82CEF9A183
:10460000F1FD1EC0ADA1BEA10D911D912D913C915A
:10461000EBA0FCA0A10182DA2B013C01EDA1FEA1DF
:104620000081118122813381ABA5BCA56D917D9163
:104630008D919C91EBA0FCA0A60170DAAFA095CF64
:10464000EBA5FCA500811181228133817601A101B6
:1046500065DA2B013C01ABA5BCA50D911D912D91F7
:104660003C91EDA1FEA160817181828193814BA17A
:104670005CA154DAA8A479CFF9A1FF2309F4B4CF3F
:10468000B6E7EB2EEB1408F4AFCF2DA5283708F0D2
:10469000ABCF440C551C440C551CA201455A5C4F31
:1046A0005EA34DA3880C991C880C991CC401855AE3
:1046B0009C4F9CA78BA74301880C991C880C991CC4
:1046C000D401A55ABC4F4D01F0FF78C0FA0100811A
:1046D0001181228133816D917D918D919C91EBA00F
:1046E000FCA0A1011BDA2B013C01ABA5BCA50D91DF
:1046F0001D912D913C91F4016081718182819381A2
:104700007601A1010BDA2B2D30E0F901EE0FFF1F2E
:10471000EE0FFF1FE55AFC4F408251826282738286
:10472000220F331FE9A5FAA5E20FF31F20E031E0C5
:104730003183208321E02B0DE22EF12CF701EE0FC7
:10474000FF1FEE0FFF1FE55AFC4F608371838283CA
:104750009383EE0CFF1C49A55AA5E40EF51EE0E07C
:10476000F1E0D701ED93FC93AF8DB8A1BC92EFA11E
:104770001196EC931197F8A51296FC931297ECA85A
:104780001396EC923DA5E32FF0E0DF01AA0FBB1FCB
:104790004DA95EA9A40FB51F8FA998AD8D939C93C9
:1047A000EE0FFF1FEE0FFF1FE558FE4FB08298A5DA
:1047B00091832283E3823F5F3DA714CFABA5BCA5C5
:1047C0006D917D918D919C91B9A1B1FF23C0EDA117
:1047D000FEA1408051806280738076018B019C0134
:1047E0004BA15CA1C301B20199D92B013C01D401B9
:1047F0000D911D912D913C91EDA1FEA160817181E2
:104800008281938171014BA15CA188D9F8A5FFA396
:10481000A8A679CFD4010D911D912D913C917101E4
:10482000A6017CD92B013C01EDA1FEA100811181E3
:1048300022813381ABA5BCA56D917D918D919C9119
:10484000EBA0FCA0A6016AD9BFA1B8A7AFA25BCF1D
:10485000D4010D911C9111971296CD90DC90F70127
:10486000819191917F018F3F9105D1F1CCF1D9D800
:104870009C01D8010E9452361B012C01D6010E94D6
:1048800052362114F8E73F064104F4EC5F06CCF100
:10489000211428E832062FEF42062BE35206C4F516
:1048A000611538E77307810534EC9307CCF1611586
:1048B00048E874074FEF84074BE39407B4F592017F
:1048C00081014FE036952795179507954A95D1F7C1
:1048D0005FE096958795779567955A95D1F76B0127
:1048E0001E5FD40111961C930E93C3018C199D0970
:1048F00013969C938E931297A394B4E08B0E911C05
:1049000015CD212CF8E73F2E412CF4EC5F2EC8CFBB
:10491000212CE8E83E2E44244A94EBE35E2EC0CFDF
:1049200060E078E780E094ECCACF60E078E88FEF51
:104930009BE3C5CF7C01EE0CFF1CE60EF71EF701D2
:1049400011830083880F991F880F991F85589E4FE8
:10495000220F331F220F331F25583E4FF9010081CC
:10496000118122813381FC010083118322833383EF
:10497000DA94D110F5CC05CDE9EFF5E089EF99E0B7
:1049800011928E179F07E1F74BE7842E41E0942E9A
:10499000D12CB12CA12CFDA5FD1509F44DC0D401DD
:1049A0001396CC90BFEFCB121FC0EEA5EE23B9F04B
:1049B000A0905F03B090600380915B0390915C03D3
:1049C000A81AB90A60915B0370915C0380915D0342
:1049D00090915E032FEF3FEFA5010E94811CD394BD
:1049E000E4E08E0E911CD7CFD4011296EC91B4E086
:1049F000EB9FF0011124E55AFC4FE080F180028129
:104A00001381D4011196EC91B4E0EB9FF0011124D5
:104A1000E55AFC4F2081318142815381D401EC91D0
:104A2000B4E0EB9FF0011124E55AFC4F60817181E5
:104A30008281938192D8D3CFFEA5FF2309F491C040
:104A400085010C5F1F4F80915B0390915C032227CF
:104A50003327201B310B821793070CF482C0E090A0
:104A60005D03F0905E03E216F3060CF47AC024E0D6
:104A7000A20EB21EA816B90608F473C0AE14BF0485
:104A800008F46FC00E94911B89A3C7010E94911B6B
:104A90005C0183E0169507958A95E1F728EF2003DE
:104AA0002001219F500C112438E0430E511CC801F5
:104AB000880F991F880F991F25E030E06901C81AF7
:104AC000D90A3CE0232E312CF12CE12C4501801A2F
:104AD000910AB40149A14E0D4F8F842F0E948B1A69
:104AE0003501600E711EB3018F8D0E948B1AB401C7
:104AF00099A09E18892D0E948B1AB301892D0E94BE
:104B00008B1A45018E189F08B40159A1500F5F8F71
:104B1000852F0E948B1A37016A0C7B1CB3018F8D85
:104B20000E948B1AB40199A0901A892D0E948B1AA9
:104B3000B301892D0E948B1AD7FC07C0C40CD51C69
:104B400068E0460E511C01501109C20CD31C88E0CC
:104B5000280E311C9FEFE91AF90A0E151F050CF0FB
:104B6000B5CF8DA5E896E2E10C947436FF920F93D1
:104B70001F93CF93DF9380917401909175012091E1
:104B80003B0530913C05821B930B009178011091FD
:104B9000790120913F0530914005021B130BF12C48
:104BA00017FF05C0119501951109FF24F39497FF94
:104BB00005C06894F1F89195819591098017910746
:104BC0003CF46894F2F8302F212F8C01832F922F20
:104BD0008F3F910511F00CF04EC0FC01EE0FFF1F4E
:104BE000E45DF14E25913491D8010E945236DC01EA
:104BF000CB0153E0B695A795979587955A95D1F730
:104C0000182FC92F40E0D42FFE01EE0FFF1FE652F0
:104C1000F24E85919491FE01EE0FFF1FE452F24E89
:104C2000C591D49160E071E0611B71090E94211867
:104C3000D19F9001C19F210D1124311D820F931F1F
:104C4000F2FE06C020E030E4A901481B590BCA015E
:104C5000F1FE06C020E030E8A901481B590BCA014B
:104C6000F0FE03C0919581959109905CCDB7DEB7B8
:104C7000E5E00C9481360E94111D9C01D8010E9430
:104C80005236DC01CB013BE0B695A7959795879509
:104C90003A95D1F7B5CFB0E0A0E0E1E5F6E20C94AB
:104CA00063367C018B01D22EFC0180819181461BF1
:104CB000570B57FF02C04D5F5F4F55954795559570
:104CC0004795EA01C81BD90B6D2D0E944818080FA3
:104CD000191F6D2DCE010E944818F70120813181E6
:104CE000820F931F91838083C801CDB7DEB7E7E0C1
:104CF0000C947F36AF92BF92CF92DF92EF920F93D8
:104D00001F93CF93DF9300D000D000D0CDB7DEB794
:104D100049835A836B837C838D839E8359014981A8
:104D20005A818DE7C82E85E0D82EF6016081718109
:104D300020E483E795E0AFDFF601918380834B8128
:104D40005C816281738120E485E795E0A4DFF60150
:104D5000938382834D815E816481758120E487E73E
:104D600095E099DFF60195838483609171057091D8
:104D700072052E2DA50189E795E08DDF90937205D0
:104D80008093710560916F05709170052E2DA801BB
:104D90008BE795E080DF9093700580936F052696F2
:104DA0000FB6F894DEBF0FBECDBFDF91CF911F913C
:104DB0000F91EF90DF90CF90BF90AF900895EF925A
:104DC000FF920F931F93CF93DF93EC01E62E142FE6
:104DD000842F0E94BC16082F80E4810F0E94BC160D
:104DE000182F8E2D0E94BC16F82E80E48E0D0E9486
:104DF000BC1688834F2D84039001112439839403BA
:104E0000900111243A831B821C83902F91959D83DE
:104E1000F194FE82482F8403900111243F83940370
:104E2000C00111249887CDB7DEB7E6E00C94803638
:104E3000ADE1B0E0EEE1F7E20C9458364E8B5F8BBB
:104E4000688F798F8A8F9B8F322E532E202E412E82
:104E50006E887F88888C998C2A8D3B8D3D8F2C8F16
:104E6000442D4195652D6195CE010196A8DF1B86E5
:104E70001A861D861C86A12CBB84C12CDD84098169
:104E80001A812B813C814D815E816F817885898576
:104E90000E94F818288B398B4A8B5B8B6C8B7D8B2F
:104EA00088899989680E791E8A899B89880E991E3E
:104EB0008C899D892C8D3D8D820F931F462D7A8282
:104EC0006982682D9C828B829E838D8390E4E92E7B
:104ED000022D142D232D352D5A817C819E810ADFD0
:104EE0006D96E2E10C947436AAE0B0E0EAE7F7E2EE
:104EF0000C945836D62E28E0829F3001112420EFE2
:104F0000222E23E0322E412C512C230138EA832E0D
:104F100033E0932EA12CB12C53012FEF3FEF40E54E
:104F200050E0C301B4010E94811C30E020E040E465
:104F300050E0C301B4010E94811C38E4398781E04C
:104F40008A879A85D91608F441C089850E94BC16C3
:104F500018E4282FA103C0011124892F990F990B60
:104F60009C0128553C4F3A832983898580540E94AF
:104F7000BC16382FB103C00111249301290F311D34
:104F800097FD3A953C832B8388EA882E83E0982E00
:104F9000530189819A819E838D8338872F8394E082
:104FA000C92EED80FE800F811885A2019101C301F9
:104FB000B4010E94AD1D29803A804B805C809A85A7
:104FC0009F5F9A872985285F2987BBCF2A96E2E1D0
:104FD0000C947436AEE3B0E0E0EFF7E20C94583690
:104FE0000E94BF15C82ED0906401D094D82280931F
:104FF0006401809165018F5F809365016091580124
:10500000709159016A5F7F4F45E150E086E691E07B
:105010000E94CD358091580190915901FC01259154
:1050200034914091E5055091E6057091E705A72F71
:10503000B091E805E09166016A2F671B6E1790F446
:10504000F9016491FA016083F9013196E491ED93DD
:10505000F90132966491FA0161834E5F5F4F2D5FD3
:105060003F4FE8CFFC0132966591749140916C01FD
:10507000F3E04F9FA00111248091E3059091E40596
:105080000E94CD35E0915801F09159013496659117
:10509000749140916D0128E0429FA00111248091FC
:1050A000E1059091E2050E94CD3580916301823047
:1050B00019F08650823010F586E0EBE3F5E0DE0172
:1050C000119601900D928A95E1F70091610110917E
:1050D000620120915F013091600180913D059091C6
:1050E0003E059E5F682F9C838B83E12CA6E0FA2E01
:1050F00049815A817C818D819E819ADE80916301F4
:10510000811170C010914F05D3FE45C010925E0111
:105110000E94391A82E090E00E94D635181729F0D3
:10512000612F82E090E00E94DE350E94C91EE12CD2
:105130000DE422E042E361E089E894E20E944E1926
:1051400021E042E364E08CE394E20E944E198091F6
:105150005D01811135C049E481E390E0481798F181
:1051600020E2E22FE770F0E0EA5CFF4DE491A22F2D
:10517000A695A695A69530E8A39FD0011124A80F67
:10518000B91FA750BA4F3C91E327EC932F5F293208
:1051900041F70196E3CFD2FE08C0112319F00E9417
:1051A000C715C3CF0E94CC15C0CF8D2D807609F4D2
:1051B000BCCF80915D0191E0892780935D01B5CFDF
:1051C0004FE781E5CACF80914F0509E0811101C009
:1051D00004E0E12C21E047E767E083E394E20E94EA
:1051E0004E196CC0813009F0F1C020915B01309103
:1051F0005C01198A188A1B8A1A8A1D8A1C8AE12C6A
:10520000FCE1FF2E00E717E140E0598960E07B896F
:1052100080E09D890DDE80915B0190915C0193950A
:1052200090935C0180935B0180915D0180FF58C089
:10523000D5FE08C080915A01882309F443C08150EB
:1052400080935A01D6FE08C080915A01813109F439
:105250003BC08F5F80935A0180915E018830B0F52A
:105260008F5F80935E01D2FC0E945D1A10915A01FB
:105270006BE1169F60011124C601835B9D4D9093E5
:105280005901809358010E94211A0E94C91EE12CE5
:105290000CE122E040E066E089EF91E20E944E19C5
:1052A00042E166E081E0810F0E94C719F601E959E9
:1052B000FD4D849142E167E00E94C719EE96E2E15C
:1052C0000C94743681E1BCCF80E0C4CFD3FECBCF49
:1052D00082E08093630180935D0110925E01C3CFF1
:1052E000809165018F3F11F0D2FE05C082E080936E
:1052F000630110925E010E94C91E90916301963075
:1053000009F0D1C680915501803208F449C7943024
:1053100009F0D3C6E0915A01F0E0EA5CFE4F8081CB
:10532000813009F0CAC6E0916501EF70E73008F0FE
:10533000E7E0F0E0EE0FFF1FE85FFE4D459154916E
:10534000EEE3F0E28491E3EAF0E2E4913E2F282FCD
:1053500007E818E0A7E0B9E070E060E0F12CE12C8C
:10536000FB01E15CFF4D8491FB01EC55FF4DE491A5
:10537000DE2EC82EC601822B932B8E299F297C01FD
:10538000EE0CFF1C8E299F297C01F694E7948E2950
:105390009F298095F801F0808F21F42EF2228F2929
:1053A00081938F01892F80959C918923932F94233A
:1053B000892B8D935427452754276F5F7F4F7901A1
:1053C0006436710509F479C69601CACF823009F0B6
:1053D000A0C00E94BF152091570130E0A901569549
:1053E000479556954795982F907609F44DC02E5FB6
:1053F0003F4F240F351F2F3F310508F04EC020933B
:10540000570185FF0AC040915F0150916001421B26
:10541000530B5093600140935F0186FF0AC0409197
:105420005F0150916001240F351F3093600120937C
:105430005F0187FF05C0909156019E5F90935601D2
:1054400084FF05C0809156018250809356011091CF
:105450005601123028F512E0109356018091550143
:10546000882319F081508093550180915E01883026
:10547000D8F48F5F80935E01D2FE3DCF86E08093AB
:1054800063011092480137CF21503109241B350B9D
:1054900009F0B1CF21E030E0B2CF2FEF30E0AFCF55
:1054A00017FFDACF10E8D8CFD3FEE6CFE0905F0148
:1054B000F0906001C7010E9450185C01C701905C28
:1054C0000E9450187C0186E0EBE3F5E0AFE4B1E028
:1054D00001900D928A95E1F7612FC5010E9448184D
:1054E00090934A0180934901612F882799278E194B
:1054F0009F090E94481890934E0180934D0183E0CC
:105500008093630164E670E084EB90E00E948B1668
:10551000B3CF833009F0C1C484E08FAB80914B01DD
:1055200090914C01C0974091490150914A01411519
:10553000A0EC5A070CF413C34115B0E45B070CF060
:1055400011C350934A01409349018115E0EC9E0735
:105550000CF40BC38115F0E49F070CF009C3909382
:105560004C0180934B0120914D0130914E0121154A
:1055700060EC36070CF4FFC22115A0E43A070CF0EA
:10558000FDC230934E0120934D0140585F4F609112
:105590003B0570913C05650F711D57FD7A95709321
:1055A0003C0560933B0580589F4F40913D055091CD
:1055B0003E05490F511D97FD5A9550933E05409366
:1055C0003D0520583F4F80913F0590914005830F46
:1055D000911D37FD9A959093400580933F05B091BA
:1055E0006D01BEAF1EAA1DAA1AAAEEADFAA9EF1749
:1055F00009F4DFC2E091DF05F091E0052DA93EA995
:10560000E20FF31F90808180028136813AA7678183
:105610006CA78381E0903B05F0903C0590E4890203
:10562000E018F10811248481A0903D05B0903E055A
:10563000A0E48A02A018B10811249581C0903F050A
:10564000D0904005B0E49B02C018D108112431115C
:1056500003C0662309F446C04CA56AA5CE01019695
:10566000AEDB3A805B80EC81E8ABFD81FEA72E814A
:1056700028A72F80488419856981C7010E941518C1
:105680003C0168A9C5010E941518680E791E622D9B
:10569000C6010E941518680E791E632DC7010E946D
:1056A00015181C016EA5C5010E941518280E391E7B
:1056B000642DC6010E941518280E391E652DC701DC
:1056C0000E9415182C0168A5C5010E941518480EE6
:1056D000591E612FC6010E9415186201C80ED91EFD
:1056E0005101730130E1939EA001112460E1869E77
:1056F0004001112480E1089F80011124EE27FF273B
:10570000E41BF50BF9A7E8A7DA01AE0DBF1DEE16F5
:10571000FF064CF0412C512C32014E155F0544F42C
:10572000D701A41BB50B9D010E944C362B013C01F7
:105730002224332428183908D401AA0DBB1DA21431
:10574000B30434F08A149B0454F4D501A819B909A0
:105750009D010E944C36460E571E681E791EEE278C
:10576000FF27E01BF10BD801AC0DBD1DCE16DF06E7
:1057700034F00C151D0554F4D601A01BB10B9D018E
:105780000E944C36460E571E681E791E21E04216B6
:1057900020E452066104710408F0D8C13E2D2F2D7B
:1057A00088A599A5E816F90614F438A529A5832F2C
:1057B000922F481759070CF4CA01D701A81BB90B3F
:1057C000BBA3AAA33A2D2B2DA214B30414F4322D9B
:1057D000232D832F922F881699060CF4C40195016E
:1057E000281B390B3DA32CA33C2D2D2DCE16DF06F7
:1057F00014F43E2F2F2F832F922F081719070CF424
:10580000C801D601A81BB90BCD01BFA3AEA34AA105
:105810005BA16CA17DA19FA10E946F182AA33BA34D
:105820004CA35DA36EA37FA3BAA5B111AAC1ECA539
:10583000E111A7C12AA03BA04CA05DA00EA11FA111
:10584000A0904B01B0904C01C0904D01D0904E0102
:10585000B1018091490190914A010E942E187C016A
:10586000B201C5010E942E18E80EF91EB801C6014A
:105870000E942E18E80EF91E1E141F040CF466C1B7
:10588000E114FCEFFF0634F462E370E088E790E097
:105890000E948B162091490130914A0139A728A70F
:1058A000B101C7010E942E18A8A4B9A4A81AB90A68
:1058B00080914B0190914C019BA78AA7B201C7012F
:1058C0000E942E18CAA4DBA4C81AD90AA0914D01BF
:1058D000B0914E01BDA7ACA7B801C7010E942E1818
:1058E0004A2DBD8EAC8E6C2DDF8ECE8EECA5FDA527
:1058F000E81BF90BCF01F9A3E8A35D8D7F8D99A17A
:105900000E946F182C8F3D8F4E8F5F8F68A379A3F5
:105910002C8D3D8D39AF28AF8E8D9F8D9BAF8AAF7B
:10592000A8A1B9A1BDAFACAFE0913001F0913101B8
:10593000FFA7EEA7209132013091330139AB28AB9C
:1059400080913401909135019CAB8BABB801C901BA
:105950000E942E187C01B2018BA99CA90E942E18CE
:10596000E81AF90AB1018BA99CA90E942E185C01C2
:10597000B8018EA59FA50E942E18A81AB90AB201D7
:105980008EA59FA50E942E186C01B10188A999A926
:105990000E942E18F7FE03C0AFEFEA1AFA0AF59438
:1059A000E794E8A5F9A5EE19FF097F01B7FE03C04A
:1059B000FFEFAF1ABF0AB594A7948AA49BA48A18D4
:1059C0009B08C81AD90AD7FE03C02FEFC21AD20A01
:1059D000D594C794ACA4BDA4AC18BD08B101C7014F
:1059E0000E942E186C01B201C4010E942E18C80E2C
:1059F000D91EB801C5010E942E18C80ED91E68AD67
:105A000079ADC7010E942E187C016AAD7BADC4013F
:105A10000E942E18E80EF91E6CAD7DADC5010E94E6
:105A20002E18E80EF91EF194E194F10860EC882735
:105A300099278C199D090E9448183C016C187D0813
:105A400065E5C7010E9448186C01B101C3010E94BD
:105A50002E184C01B201C3010E942E185C01B8013E
:105A6000C3010E942E187C0168AD79ADC6010E9469
:105A70002E18880E991E6AAD7BADC6010E942E18A5
:105A8000A80EB91E6CAD7DADC6010E942E18E80EA1
:105A9000F91E88A599A5880D991D90934A018093B8
:105AA00049018AA59BA58A0D9B1D90934C0180936B
:105AB0004B018CA59DA58E0D9F1D90934E0180934B
:105AC0004D01B801C5010E942E186C01B201C70139
:105AD0000E942E18C81AD90AB101C7010E942E18B7
